{
  "_format": "hh-sol-artifact-1",
  "contractName": "GnosisAMB",
  "sourceName": "contracts/FlatGnosisAMB.sol",
  "abi": [
    {
      "inputs": [
        {
          "internalType": "address",
          "name": "_ambBridge",
          "type": "address"
        },
        {
          "internalType": "address payable",
          "name": "_tellor",
          "type": "address"
        }
      ],
      "stateMutability": "nonpayable",
      "type": "constructor"
    },
    {
      "anonymous": false,
      "inputs": [
        {
          "indexed": false,
          "internalType": "bytes32",
          "name": "_messageId",
          "type": "bytes32"
        },
        {
          "indexed": false,
          "internalType": "bool",
          "name": "_status",
          "type": "bool"
        }
      ],
      "name": "InfoRecieved",
      "type": "event"
    },
    {
      "inputs": [],
      "name": "_requestSelector",
      "outputs": [
        {
          "internalType": "bytes32",
          "name": "",
          "type": "bytes32"
        }
      ],
      "stateMutability": "view",
      "type": "function"
    },
    {
      "inputs": [],
      "name": "ambBridge",
      "outputs": [
        {
          "internalType": "contract IAMB",
          "name": "",
          "type": "address"
        }
      ],
      "stateMutability": "view",
      "type": "function"
    },
    {
      "inputs": [
        {
          "internalType": "bytes32",
          "name": "",
          "type": "bytes32"
        }
      ],
      "name": "didPush",
      "outputs": [
        {
          "internalType": "bool",
          "name": "",
          "type": "bool"
        }
      ],
      "stateMutability": "view",
      "type": "function"
    },
    {
      "inputs": [
        {
          "internalType": "bytes",
          "name": "_inputData",
          "type": "bytes"
        }
      ],
      "name": "getCommitment",
      "outputs": [
        {
          "internalType": "bytes",
          "name": "_value",
          "type": "bytes"
        }
      ],
      "stateMutability": "nonpayable",
      "type": "function"
    },
    {
      "inputs": [
        {
          "internalType": "bytes32",
          "name": "_queryId",
          "type": "bytes32"
        },
        {
          "internalType": "uint256",
          "name": "_timestamp",
          "type": "uint256"
        }
      ],
      "name": "getDataAfter",
      "outputs": [
        {
          "internalType": "bytes",
          "name": "_value",
          "type": "bytes"
        },
        {
          "internalType": "uint256",
          "name": "_timestampRetrieved",
          "type": "uint256"
        }
      ],
      "stateMutability": "view",
      "type": "function"
    },
    {
      "inputs": [
        {
          "internalType": "bytes32",
          "name": "_queryId",
          "type": "bytes32"
        },
        {
          "internalType": "uint256",
          "name": "_timestamp",
          "type": "uint256"
        }
      ],
      "name": "getDataBefore",
      "outputs": [
        {
          "internalType": "bytes",
          "name": "_value",
          "type": "bytes"
        },
        {
          "internalType": "uint256",
          "name": "_timestampRetrieved",
          "type": "uint256"
        }
      ],
      "stateMutability": "view",
      "type": "function"
    },
    {
      "inputs": [
        {
          "internalType": "bytes32",
          "name": "_queryId",
          "type": "bytes32"
        },
        {
          "internalType": "uint256",
          "name": "_timestamp",
          "type": "uint256"
        }
      ],
      "name": "getIndexForDataAfter",
      "outputs": [
        {
          "internalType": "bool",
          "name": "_found",
          "type": "bool"
        },
        {
          "internalType": "uint256",
          "name": "_index",
          "type": "uint256"
        }
      ],
      "stateMutability": "view",
      "type": "function"
    },
    {
      "inputs": [
        {
          "internalType": "bytes32",
          "name": "_queryId",
          "type": "bytes32"
        },
        {
          "internalType": "uint256",
          "name": "_timestamp",
          "type": "uint256"
        }
      ],
      "name": "getIndexForDataBefore",
      "outputs": [
        {
          "internalType": "bool",
          "name": "_found",
          "type": "bool"
        },
        {
          "internalType": "uint256",
          "name": "_index",
          "type": "uint256"
        }
      ],
      "stateMutability": "view",
      "type": "function"
    },
    {
      "inputs": [
        {
          "internalType": "bytes",
          "name": "_data",
          "type": "bytes"
        }
      ],
      "name": "getInfo",
      "outputs": [
        {
          "internalType": "bytes32",
          "name": "",
          "type": "bytes32"
        }
      ],
      "stateMutability": "nonpayable",
      "type": "function"
    },
    {
      "inputs": [],
      "name": "getMessageIds",
      "outputs": [
        {
          "internalType": "bytes32[]",
          "name": "",
          "type": "bytes32[]"
        }
      ],
      "stateMutability": "view",
      "type": "function"
    },
    {
      "inputs": [
        {
          "internalType": "bytes32",
          "name": "_queryId",
          "type": "bytes32"
        },
        {
          "internalType": "uint256",
          "name": "_timestamp",
          "type": "uint256"
        },
        {
          "internalType": "uint256",
          "name": "_maxAge",
          "type": "uint256"
        },
        {
          "internalType": "uint256",
          "name": "_maxCount",
          "type": "uint256"
        }
      ],
      "name": "getMultipleValuesBefore",
      "outputs": [
        {
          "internalType": "bytes[]",
          "name": "_values",
          "type": "bytes[]"
        },
        {
          "internalType": "uint256[]",
          "name": "_timestamps",
          "type": "uint256[]"
        }
      ],
      "stateMutability": "view",
      "type": "function"
    },
    {
      "inputs": [
        {
          "internalType": "bytes32",
          "name": "_queryId",
          "type": "bytes32"
        }
      ],
      "name": "getNewValueCountbyQueryId",
      "outputs": [
        {
          "internalType": "uint256",
          "name": "",
          "type": "uint256"
        }
      ],
      "stateMutability": "view",
      "type": "function"
    },
    {
      "inputs": [
        {
          "internalType": "bytes32",
          "name": "_queryId",
          "type": "bytes32"
        },
        {
          "internalType": "uint256",
          "name": "_timestamp",
          "type": "uint256"
        }
      ],
      "name": "getReporterByTimestamp",
      "outputs": [
        {
          "internalType": "address",
          "name": "",
          "type": "address"
        }
      ],
      "stateMutability": "view",
      "type": "function"
    },
    {
      "inputs": [
        {
          "internalType": "uint256",
          "name": "_timestamp",
          "type": "uint256"
        },
        {
          "internalType": "uint256",
          "name": "_chainID",
          "type": "uint256"
        },
        {
          "internalType": "address",
          "name": "_address",
          "type": "address"
        }
      ],
      "name": "getRootHashAndSupply",
      "outputs": [
        {
          "internalType": "bytes",
          "name": "_value",
          "type": "bytes"
        }
      ],
      "stateMutability": "view",
      "type": "function"
    },
    {
      "inputs": [
        {
          "internalType": "bytes32",
          "name": "_queryId",
          "type": "bytes32"
        },
        {
          "internalType": "uint256",
          "name": "_index",
          "type": "uint256"
        }
      ],
      "name": "getTimestampbyQueryIdandIndex",
      "outputs": [
        {
          "internalType": "uint256",
          "name": "",
          "type": "uint256"
        }
      ],
      "stateMutability": "view",
      "type": "function"
    },
    {
      "inputs": [],
      "name": "idMappingContract",
      "outputs": [
        {
          "internalType": "contract IMappingContract",
          "name": "",
          "type": "address"
        }
      ],
      "stateMutability": "view",
      "type": "function"
    },
    {
      "inputs": [
        {
          "internalType": "bytes32",
          "name": "_queryId",
          "type": "bytes32"
        },
        {
          "internalType": "uint256",
          "name": "_timestamp",
          "type": "uint256"
        }
      ],
      "name": "isInDispute",
      "outputs": [
        {
          "internalType": "bool",
          "name": "",
          "type": "bool"
        }
      ],
      "stateMutability": "view",
      "type": "function"
    },
    {
      "inputs": [
        {
          "internalType": "bytes32",
          "name": "",
          "type": "bytes32"
        }
      ],
      "name": "messageIdToData",
      "outputs": [
        {
          "internalType": "bytes",
          "name": "",
          "type": "bytes"
        }
      ],
      "stateMutability": "view",
      "type": "function"
    },
    {
      "inputs": [
        {
          "internalType": "uint256",
          "name": "",
          "type": "uint256"
        }
      ],
      "name": "messageIds",
      "outputs": [
        {
          "internalType": "bytes32",
          "name": "",
          "type": "bytes32"
        }
      ],
      "stateMutability": "view",
      "type": "function"
    },
    {
      "inputs": [
        {
          "internalType": "bytes32",
          "name": "messageId",
          "type": "bytes32"
        },
        {
          "internalType": "bool",
          "name": "status",
          "type": "bool"
        },
        {
          "internalType": "bytes",
          "name": "result",
          "type": "bytes"
        }
      ],
      "name": "onInformationReceived",
      "outputs": [],
      "stateMutability": "nonpayable",
      "type": "function"
    },
    {
      "inputs": [
        {
          "internalType": "bytes32",
          "name": "_queryId",
          "type": "bytes32"
        },
        {
          "internalType": "uint256",
          "name": "_timestamp",
          "type": "uint256"
        }
      ],
      "name": "retrieveData",
      "outputs": [
        {
          "internalType": "bytes",
          "name": "",
          "type": "bytes"
        }
      ],
      "stateMutability": "view",
      "type": "function"
    },
    {
      "inputs": [
        {
          "internalType": "bytes",
          "name": "_data",
          "type": "bytes"
        }
      ],
      "name": "sendCommitment",
      "outputs": [],
      "stateMutability": "nonpayable",
      "type": "function"
    },
    {
      "inputs": [
        {
          "internalType": "address",
          "name": "_addy",
          "type": "address"
        }
      ],
      "name": "setIdMappingContract",
      "outputs": [],
      "stateMutability": "nonpayable",
      "type": "function"
    },
    {
      "inputs": [],
      "name": "tellor",
      "outputs": [
        {
          "internalType": "contract ITellor",
          "name": "",
          "type": "address"
        }
      ],
      "stateMutability": "view",
      "type": "function"
    },
    {
      "inputs": [
        {
          "internalType": "bytes32",
          "name": "_id",
          "type": "bytes32"
        }
      ],
      "name": "valueFor",
      "outputs": [
        {
          "internalType": "int256",
          "name": "_value",
          "type": "int256"
        },
        {
          "internalType": "uint256",
          "name": "_timestamp",
          "type": "uint256"
        },
        {
          "internalType": "uint256",
          "name": "_statusCode",
          "type": "uint256"
        }
      ],
      "stateMutability": "view",
      "type": "function"
    }
  ],
  "bytecode": "0x60806040523480156200001157600080fd5b5060405162001ab738038062001ab7833981016040819052620000349162000082565b600080546001600160a01b039283166001600160a01b03199182161790915560028054939092169216919091179055620000c1565b6001600160a01b03811681146200007f57600080fd5b50565b600080604083850312156200009657600080fd5b8251620000a38162000069565b6020840151909250620000b68162000069565b809150509250929050565b6119e680620000d16000396000f3fe608060405234801561001057600080fd5b50600436106101735760003560e01c80636b2fd905116100de578063ce5e11bf11610097578063f534de5b11610071578063f534de5b1461039e578063f66f49c3146103b1578063f78eea83146103c4578063fcd4a546146103f257600080fd5b8063ce5e11bf14610351578063d27eb47314610364578063e07c54861461038b57600080fd5b80636b2fd905146102df57806377b03e0d146102f25780639d17b9c514610305578063a792765f14610318578063b6f6869e1461032b578063c5958af91461033e57600080fd5b80632af8aae0116101305780632af8aae01461024657806344e87f911461025957806351e3aea91461026c57806352ef4b141461027d5780635f2864b11461029e57806364ee3c6d146102be57600080fd5b8063016a7dd4146101785780630ba54df614610196578063193b505b146101c15780631959ad5b146101d657806320562081146101e9578063294490851461021c575b600080fd5b610180610413565b60405161018d91906111cf565b60405180910390f35b6002546101a9906001600160a01b031681565b6040516001600160a01b03909116815260200161018d565b6101d46101cf366004611228565b61046b565b005b6000546101a9906001600160a01b031681565b61020c6101f736600461124c565b60056020526000908152604090205460ff1681565b604051901515815260200161018d565b61022f61022a366004611265565b6104a3565b60408051921515835260208301919091520161018d565b6001546101a9906001600160a01b031681565b61020c610267366004611265565b610523565b6101d461027a3660046112f6565b50565b61029061028b3660046113b8565b6105a1565b60405190815260200161018d565b6102b16102ac36600461124c565b610639565b60405161018d919061143e565b6102d16102cc366004611265565b6106d3565b60405161018d929190611451565b6102b16102ed3660046112f6565b61072c565b61029061030036600461124c565b6107f1565b61029061031336600461124c565b61085f565b6102d1610326366004611265565b610880565b6102b1610339366004611473565b610907565b6102b161034c366004611265565b6109d0565b61029061035f366004611265565b610a49565b6102907f88b6c755140efe88bff94bfafa4a7fdffe226d27d92bd45385bb0cfa9098665081565b6101a9610399366004611265565b610a9a565b6101d46103ac3660046114ba565b610b0f565b61022f6103bf366004611265565b610bb5565b6103d76103d236600461124c565b610d72565b6040805193845260208401929092529082015260600161018d565b610405610400366004611516565b610e37565b60405161018d929190611548565b6060600380548060200260200160405190810160405280929190818152602001828054801561046157602002820191906000526020600020905b81548152602001906001019080831161044d575b5050505050905090565b6001546001600160a01b03161561048157600080fd5b600180546001600160a01b0319166001600160a01b0392909216919091179055565b60008054604051632944908560e01b8152600481018590526024810184905282916001600160a01b0316906329449085906044016040805180830381865afa1580156104f3573d6000803e3d6000fd5b505050506040513d601f19601f8201168201806040525081019061051791906115e3565b915091505b9250929050565b600080546040516344e87f9160e01b815260048101859052602481018490526001600160a01b03909116906344e87f9190604401602060405180830381865afa158015610574573d6000803e3d6000fd5b505050506040513d601f19601f820116820180604052508101906105989190611611565b90505b92915050565b60025460405163525ea93760e01b81526000916001600160a01b03169063525ea937906105f6907f88b6c755140efe88bff94bfafa4a7fdffe226d27d92bd45385bb0cfa90986650908790879060040161162e565b6020604051808303816000875af1158015610615573d6000803e3d6000fd5b505050506040513d601f19601f820116820180604052508101906105989190611664565b600460205260009081526040902080546106529061167d565b80601f016020809104026020016040519081016040528092919081815260200182805461067e9061167d565b80156106cb5780601f106106a0576101008083540402835291602001916106cb565b820191906000526020600020905b8154815290600101906020018083116106ae57829003601f168201915b505050505081565b606060008060006106e48686610bb5565b915091508161070b576000604051806020016040528060008152509093509350505061051c565b6107158682610a49565b925061072186846109d0565b935050509250929050565b6060600061073983611126565b6000818152600560209081526040808320805460ff191660011790556004909152902080549192509061076b9061167d565b80601f01602080910402602001604051908101604052809291908181526020018280546107979061167d565b80156107e45780601f106107b9576101008083540402835291602001916107e4565b820191906000526020600020905b8154815290600101906020018083116107c757829003601f168201915b5050505050915050919050565b600080546040516377b03e0d60e01b8152600481018490526001600160a01b03909116906377b03e0d90602401602060405180830381865afa15801561083b573d6000803e3d6000fd5b505050506040513d601f19601f8201168201806040525081019061059b9190611664565b6003818154811061086f57600080fd5b600091825260209091200154905081565b6000805460405163a792765f60e01b81526004810185905260248101849052606092916001600160a01b03169063a792765f90604401600060405180830381865afa1580156108d3573d6000803e3d6000fd5b505050506040513d6000823e601f3d908101601f191682016040526108fb91908101906116fe565b90969095509350505050565b60408051602081018490526001600160a01b0383168183015260608082018690528251808303820181526080830190935291600091610949919060a001611758565b6040516020818303038152906040528051906020012090506109738161a8c04261032691906117a9565b95509150846109c85760405162461bcd60e51b815260206004820152601960248201527f74696d657374616d70206d7573742062652070726573656e7400000000000000604482015260640160405180910390fd5b509392505050565b60005460405163c5958af960e01b815260048101849052602481018390526060916001600160a01b03169063c5958af990604401600060405180830381865afa158015610a21573d6000803e3d6000fd5b505050506040513d6000823e601f3d908101601f1916820160405261059891908101906117bc565b6000805460405163ce5e11bf60e01b815260048101859052602481018490526001600160a01b039091169063ce5e11bf90604401602060405180830381865afa158015610615573d6000803e3d6000fd5b6000805460405163703e2a4360e11b815260048101859052602481018490526001600160a01b039091169063e07c548690604401602060405180830381865afa158015610aeb573d6000803e3d6000fd5b505050506040513d601f19601f8201168201806040525081019061059891906117f1565b6002546001600160a01b03163314610b2657600080fd5b6000848152600460205260409020610b3f82848361185d565b50600380546001810182556000919091527fc2575a0e9e593c00f959f8c92f12db2869c3395a3b0502d05e2516446f71f85b018490556040805185815284151560208201527f5efa0943a541bb99f61278f069cae727623c637832e2fb773d817199c4e96cde910160405180910390a150505050565b6000806000610bc3856107f1565b905080600003610bda57600080925092505061051c565b80610be48161191e565b9150600190506000808381610bf98a83610a49565b9050888111610c14576000809750975050505050505061051c565b610c1e8a84610a49565b905088811115610c2d57600094505b8415610cdd576002610c3f8484611935565b610c499190611948565b9350610c558a85610a49565b905088811115610c96576000610c708b61035f6001886117a9565b9050898111610c825760009550610c90565b610c8d6001866117a9565b92505b50610c2d565b6000610ca78b61035f876001611935565b905089811115610cca576000955084610cbf8161196a565b955050809150610c90565b610cd5856001611935565b935050610c2d565b610ce78a82610523565b610cfd576001849750975050505050505061051c565b610d078a82610523565b8015610d1257508584105b15610d355783610d218161196a565b945050610d2e8a85610a49565b9050610cfd565b8584148015610d495750610d498a82610523565b15610d60576000809750975050505050505061051c565b6001849750975050505050505061051c565b6001546040516387a475fd60e01b8152600481018390526000918291829182916001600160a01b03909116906387a475fd90602401602060405180830381865afa158015610dc4573d6000803e3d6000fd5b505050506040513d601f19601f82011682018060405250810190610de89190611664565b90506060610dfb82610326426001611935565b945090506000849003610e1b576000806101949450945094505050610e30565b6000610e268261117e565b955060c893505050505b9193909250565b606080600080610e4b886103bf888a6117a9565b9150915081610e9c576040805160008082526020820190925290610e7f565b6060815260200190600190039081610e6a5790505b50604080516000815260208101909152909450925061111d915050565b6000610ea889896104a3565b909350905082610efb576040805160008082526020820190925290610edd565b6060815260200190600190039081610ec85790505b50604080516000815260208101909152909550935061111d92505050565b60008060008867ffffffffffffffff811115610f1957610f19611287565b604051908082528060200260200182016040528015610f42578160200160208202803683370190505b5090505b8883108015610f6957508482610f5d866001611935565b610f6791906117a9565b115b15610fcd576000610f7e8d61035f85886117a9565b9050610f8a8d82610523565b610fba5780828581518110610fa157610fa1611983565b602090810291909101015283610fb68161196a565b9450505b82610fc48161196a565b93505050610f46565b60008367ffffffffffffffff811115610fe857610fe8611287565b60405190808252806020026020018201604052801561101b57816020015b60608152602001906001900390816110065790505b50905060008467ffffffffffffffff81111561103957611039611287565b604051908082528060200260200182016040528015611062578160200160208202803683370190505b50905060005b8581101561111057838161107d6001896117a9565b61108791906117a9565b8151811061109757611097611983565b60200260200101518282815181106110b1576110b1611983565b6020026020010181815250506110e08f8383815181106110d3576110d3611983565b60200260200101516109d0565b8382815181106110f2576110f2611983565b602002602001018190525080806111089061196a565b915050611068565b5090985096505050505050505b94509492505050565b6000805b60208110156111785761113e816008611999565b83828151811061115057611150611983565b01602001516001600160f81b031916901c9190911790806111708161196a565b91505061112a565b50919050565b6000805b82518110156111785782818151811061119d5761119d611983565b016020015160f81c6111b183610100611999565b6111bb9190611935565b9150806111c78161196a565b915050611182565b6020808252825182820181905260009190848201906040850190845b81811015611207578351835292840192918401916001016111eb565b50909695505050505050565b6001600160a01b038116811461027a57600080fd5b60006020828403121561123a57600080fd5b813561124581611213565b9392505050565b60006020828403121561125e57600080fd5b5035919050565b6000806040838503121561127857600080fd5b50508035926020909101359150565b634e487b7160e01b600052604160045260246000fd5b604051601f8201601f1916810167ffffffffffffffff811182821017156112c6576112c6611287565b604052919050565b600067ffffffffffffffff8211156112e8576112e8611287565b50601f01601f191660200190565b60006020828403121561130857600080fd5b813567ffffffffffffffff81111561131f57600080fd5b8201601f8101841361133057600080fd5b803561134361133e826112ce565b61129d565b81815285602083850101111561135857600080fd5b81602084016020830137600091810160200191909152949350505050565b60008083601f84011261138857600080fd5b50813567ffffffffffffffff8111156113a057600080fd5b60208301915083602082850101111561051c57600080fd5b600080602083850312156113cb57600080fd5b823567ffffffffffffffff8111156113e257600080fd5b6108fb85828601611376565b60005b838110156114095781810151838201526020016113f1565b50506000910152565b6000815180845261142a8160208601602086016113ee565b601f01601f19169290920160200192915050565b6020815260006105986020830184611412565b6040815260006114646040830185611412565b90508260208301529392505050565b60008060006060848603121561148857600080fd5b833592506020840135915060408401356114a181611213565b809150509250925092565b801515811461027a57600080fd5b600080600080606085870312156114d057600080fd5b8435935060208501356114e2816114ac565b9250604085013567ffffffffffffffff8111156114fe57600080fd5b61150a87828801611376565b95989497509550505050565b6000806000806080858703121561152c57600080fd5b5050823594602084013594506040840135936060013592509050565b6000604082016040835280855180835260608501915060608160051b8601019250602080880160005b8381101561159f57605f1988870301855261158d868351611412565b95509382019390820190600101611571565b50508584038187015286518085528782019482019350915060005b828110156115d6578451845293810193928101926001016115ba565b5091979650505050505050565b600080604083850312156115f657600080fd5b8251611601816114ac565b6020939093015192949293505050565b60006020828403121561162357600080fd5b8151611245816114ac565b83815260406020820152816040820152818360608301376000818301606090810191909152601f909201601f1916010192915050565b60006020828403121561167657600080fd5b5051919050565b600181811c9082168061169157607f821691505b60208210810361117857634e487b7160e01b600052602260045260246000fd5b600082601f8301126116c257600080fd5b81516116d061133e826112ce565b8181528460208386010111156116e557600080fd5b6116f68260208301602087016113ee565b949350505050565b60008060006060848603121561171357600080fd5b835161171e816114ac565b602085015190935067ffffffffffffffff81111561173b57600080fd5b611747868287016116b1565b925050604084015190509250925092565b60408152601160408201527043726f7373436861696e42616c616e636560781b60608201526080602082015260006105986080830184611412565b634e487b7160e01b600052601160045260246000fd5b8181038181111561059b5761059b611793565b6000602082840312156117ce57600080fd5b815167ffffffffffffffff8111156117e557600080fd5b6116f6848285016116b1565b60006020828403121561180357600080fd5b815161124581611213565b601f82111561185857600081815260208120601f850160051c810160208610156118355750805b601f850160051c820191505b8181101561185457828155600101611841565b5050505b505050565b67ffffffffffffffff83111561187557611875611287565b61188983611883835461167d565b8361180e565b6000601f8411600181146118bd57600085156118a55750838201355b600019600387901b1c1916600186901b178355611917565b600083815260209020601f19861690835b828110156118ee57868501358255602094850194600190920191016118ce565b508682101561190b5760001960f88860031b161c19848701351681555b505060018560011b0183555b5050505050565b60008161192d5761192d611793565b506000190190565b8082018082111561059b5761059b611793565b60008261196557634e487b7160e01b600052601260045260246000fd5b500490565b60006001820161197c5761197c611793565b5060010190565b634e487b7160e01b600052603260045260246000fd5b808202811582820484141761059b5761059b61179356fea2646970667358221220a3afc692a19d8683dcb8bd1b578890ed3033c8b919bd5d980d2c5eae71b5491a64736f6c63430008110033",
  "linkReferences": {},
  "deployedLinkReferences": {}
}