{
  "_format": "hh-sol-artifact-1",
  "contractName": "UsingTellor",
  "sourceName": "contracts/FlatGnosisAMB.sol",
  "abi": [
    {
      "inputs": [
        {
          "internalType": "address payable",
          "name": "_tellor",
          "type": "address"
        }
      ],
      "stateMutability": "nonpayable",
      "type": "constructor"
    },
    {
      "inputs": [
        {
          "internalType": "bytes32",
          "name": "_queryId",
          "type": "bytes32"
        },
        {
          "internalType": "uint256",
          "name": "_timestamp",
          "type": "uint256"
        }
      ],
      "name": "getDataAfter",
      "outputs": [
        {
          "internalType": "bytes",
          "name": "_value",
          "type": "bytes"
        },
        {
          "internalType": "uint256",
          "name": "_timestampRetrieved",
          "type": "uint256"
        }
      ],
      "stateMutability": "view",
      "type": "function"
    },
    {
      "inputs": [
        {
          "internalType": "bytes32",
          "name": "_queryId",
          "type": "bytes32"
        },
        {
          "internalType": "uint256",
          "name": "_timestamp",
          "type": "uint256"
        }
      ],
      "name": "getDataBefore",
      "outputs": [
        {
          "internalType": "bytes",
          "name": "_value",
          "type": "bytes"
        },
        {
          "internalType": "uint256",
          "name": "_timestampRetrieved",
          "type": "uint256"
        }
      ],
      "stateMutability": "view",
      "type": "function"
    },
    {
      "inputs": [
        {
          "internalType": "bytes32",
          "name": "_queryId",
          "type": "bytes32"
        },
        {
          "internalType": "uint256",
          "name": "_timestamp",
          "type": "uint256"
        }
      ],
      "name": "getIndexForDataAfter",
      "outputs": [
        {
          "internalType": "bool",
          "name": "_found",
          "type": "bool"
        },
        {
          "internalType": "uint256",
          "name": "_index",
          "type": "uint256"
        }
      ],
      "stateMutability": "view",
      "type": "function"
    },
    {
      "inputs": [
        {
          "internalType": "bytes32",
          "name": "_queryId",
          "type": "bytes32"
        },
        {
          "internalType": "uint256",
          "name": "_timestamp",
          "type": "uint256"
        }
      ],
      "name": "getIndexForDataBefore",
      "outputs": [
        {
          "internalType": "bool",
          "name": "_found",
          "type": "bool"
        },
        {
          "internalType": "uint256",
          "name": "_index",
          "type": "uint256"
        }
      ],
      "stateMutability": "view",
      "type": "function"
    },
    {
      "inputs": [
        {
          "internalType": "bytes32",
          "name": "_queryId",
          "type": "bytes32"
        },
        {
          "internalType": "uint256",
          "name": "_timestamp",
          "type": "uint256"
        },
        {
          "internalType": "uint256",
          "name": "_maxAge",
          "type": "uint256"
        },
        {
          "internalType": "uint256",
          "name": "_maxCount",
          "type": "uint256"
        }
      ],
      "name": "getMultipleValuesBefore",
      "outputs": [
        {
          "internalType": "bytes[]",
          "name": "_values",
          "type": "bytes[]"
        },
        {
          "internalType": "uint256[]",
          "name": "_timestamps",
          "type": "uint256[]"
        }
      ],
      "stateMutability": "view",
      "type": "function"
    },
    {
      "inputs": [
        {
          "internalType": "bytes32",
          "name": "_queryId",
          "type": "bytes32"
        }
      ],
      "name": "getNewValueCountbyQueryId",
      "outputs": [
        {
          "internalType": "uint256",
          "name": "",
          "type": "uint256"
        }
      ],
      "stateMutability": "view",
      "type": "function"
    },
    {
      "inputs": [
        {
          "internalType": "bytes32",
          "name": "_queryId",
          "type": "bytes32"
        },
        {
          "internalType": "uint256",
          "name": "_timestamp",
          "type": "uint256"
        }
      ],
      "name": "getReporterByTimestamp",
      "outputs": [
        {
          "internalType": "address",
          "name": "",
          "type": "address"
        }
      ],
      "stateMutability": "view",
      "type": "function"
    },
    {
      "inputs": [
        {
          "internalType": "bytes32",
          "name": "_queryId",
          "type": "bytes32"
        },
        {
          "internalType": "uint256",
          "name": "_index",
          "type": "uint256"
        }
      ],
      "name": "getTimestampbyQueryIdandIndex",
      "outputs": [
        {
          "internalType": "uint256",
          "name": "",
          "type": "uint256"
        }
      ],
      "stateMutability": "view",
      "type": "function"
    },
    {
      "inputs": [],
      "name": "idMappingContract",
      "outputs": [
        {
          "internalType": "contract IMappingContract",
          "name": "",
          "type": "address"
        }
      ],
      "stateMutability": "view",
      "type": "function"
    },
    {
      "inputs": [
        {
          "internalType": "bytes32",
          "name": "_queryId",
          "type": "bytes32"
        },
        {
          "internalType": "uint256",
          "name": "_timestamp",
          "type": "uint256"
        }
      ],
      "name": "isInDispute",
      "outputs": [
        {
          "internalType": "bool",
          "name": "",
          "type": "bool"
        }
      ],
      "stateMutability": "view",
      "type": "function"
    },
    {
      "inputs": [
        {
          "internalType": "bytes32",
          "name": "_queryId",
          "type": "bytes32"
        },
        {
          "internalType": "uint256",
          "name": "_timestamp",
          "type": "uint256"
        }
      ],
      "name": "retrieveData",
      "outputs": [
        {
          "internalType": "bytes",
          "name": "",
          "type": "bytes"
        }
      ],
      "stateMutability": "view",
      "type": "function"
    },
    {
      "inputs": [
        {
          "internalType": "address",
          "name": "_addy",
          "type": "address"
        }
      ],
      "name": "setIdMappingContract",
      "outputs": [],
      "stateMutability": "nonpayable",
      "type": "function"
    },
    {
      "inputs": [],
      "name": "tellor",
      "outputs": [
        {
          "internalType": "contract ITellor",
          "name": "",
          "type": "address"
        }
      ],
      "stateMutability": "view",
      "type": "function"
    },
    {
      "inputs": [
        {
          "internalType": "bytes32",
          "name": "_id",
          "type": "bytes32"
        }
      ],
      "name": "valueFor",
      "outputs": [
        {
          "internalType": "int256",
          "name": "_value",
          "type": "int256"
        },
        {
          "internalType": "uint256",
          "name": "_timestamp",
          "type": "uint256"
        },
        {
          "internalType": "uint256",
          "name": "_statusCode",
          "type": "uint256"
        }
      ],
      "stateMutability": "view",
      "type": "function"
    }
  ],
  "bytecode": "0x608060405234801561001057600080fd5b5060405161112438038061112483398101604081905261002f91610054565b600080546001600160a01b0319166001600160a01b0392909216919091179055610084565b60006020828403121561006657600080fd5b81516001600160a01b038116811461007d57600080fd5b9392505050565b611091806100936000396000f3fe608060405234801561001057600080fd5b50600436106100ba5760003560e01c8063193b505b146100bf5780631959ad5b146100d457806329449085146101045780632af8aae01461012e57806344e87f911461014157806364ee3c6d1461016457806377b03e0d14610185578063a792765f146101a6578063c5958af9146101b9578063ce5e11bf146101d9578063e07c5486146101ec578063f66f49c3146101ff578063f78eea8314610212578063fcd4a54614610240575b600080fd5b6100d26100cd366004610c1f565b610261565b005b6000546100e7906001600160a01b031681565b6040516001600160a01b0390911681526020015b60405180910390f35b610117610112366004610c43565b610299565b6040805192151583526020830191909152016100fb565b6001546100e7906001600160a01b031681565b61015461014f366004610c43565b610318565b60405190151581526020016100fb565b610177610172366004610c43565b610395565b6040516100fb929190610cb5565b610198610193366004610cd7565b6103ee565b6040519081526020016100fb565b6101776101b4366004610c43565b61045c565b6101cc6101c7366004610c43565b6104e2565b6040516100fb9190610cf0565b6101986101e7366004610c43565b61055a565b6100e76101fa366004610c43565b6105ce565b61011761020d366004610c43565b610642565b610225610220366004610cd7565b6107ff565b604080519384526020840192909252908201526060016100fb565b61025361024e366004610d03565b6108c4565b6040516100fb929190610d35565b6001546001600160a01b03161561027757600080fd5b600180546001600160a01b0319166001600160a01b0392909216919091179055565b60008054604051632944908560e01b815282916001600160a01b0316906329449085906102cc9087908790600401610dd0565b6040805180830381865afa1580156102e8573d6000803e3d6000fd5b505050506040513d601f19601f8201168201806040525081019061030c9190610df3565b915091505b9250929050565b600080546040516344e87f9160e01b81526001600160a01b03909116906344e87f919061034b9086908690600401610dd0565b602060405180830381865afa158015610368573d6000803e3d6000fd5b505050506040513d601f19601f8201168201806040525081019061038c9190610e1f565b90505b92915050565b606060008060006103a68686610642565b91509150816103cd5760006040518060200160405280600081525090935093505050610311565b6103d7868261055a565b92506103e386846104e2565b935050509250929050565b600080546040516377b03e0d60e01b8152600481018490526001600160a01b03909116906377b03e0d90602401602060405180830381865afa158015610438573d6000803e3d6000fd5b505050506040513d601f19601f8201168201806040525081019061038f9190610e3a565b6000805460405163a792765f60e01b8152606092916001600160a01b03169063a792765f906104919087908790600401610dd0565b600060405180830381865afa1580156104ae573d6000803e3d6000fd5b505050506040513d6000823e601f3d908101601f191682016040526104d69190810190610ef0565b90969095509350505050565b60005460405163c5958af960e01b81526060916001600160a01b03169063c5958af9906105159086908690600401610dd0565b600060405180830381865afa158015610532573d6000803e3d6000fd5b505050506040513d6000823e601f3d908101601f1916820160405261038c9190810190610f47565b6000805460405163ce5e11bf60e01b81526001600160a01b039091169063ce5e11bf9061058d9086908690600401610dd0565b602060405180830381865afa1580156105aa573d6000803e3d6000fd5b505050506040513d601f19601f8201168201806040525081019061038c9190610e3a565b6000805460405163703e2a4360e11b81526001600160a01b039091169063e07c5486906106019086908690600401610dd0565b602060405180830381865afa15801561061e573d6000803e3d6000fd5b505050506040513d601f19601f8201168201806040525081019061038c9190610f83565b6000806000610650856103ee565b905080600003610667576000809250925050610311565b8061067181610fb6565b91506001905060008083816106868a8361055a565b90508881116106a15760008097509750505050505050610311565b6106ab8a8461055a565b9050888111156106ba57600094505b841561076a5760026106cc8484610fcd565b6106d69190610fe0565b93506106e28a8561055a565b9050888111156107235760006106fd8b6101e7600188611002565b905089811161070f576000955061071d565b61071a600186611002565b92505b506106ba565b60006107348b6101e7876001610fcd565b90508981111561075757600095508461074c81611015565b95505080915061071d565b610762856001610fcd565b9350506106ba565b6107748a82610318565b61078a5760018497509750505050505050610311565b6107948a82610318565b801561079f57508584105b156107c257836107ae81611015565b9450506107bb8a8561055a565b905061078a565b85841480156107d657506107d68a82610318565b156107ed5760008097509750505050505050610311565b60018497509750505050505050610311565b6001546040516387a475fd60e01b8152600481018390526000918291829182916001600160a01b03909116906387a475fd90602401602060405180830381865afa158015610851573d6000803e3d6000fd5b505050506040513d601f19601f820116820180604052508101906108759190610e3a565b90506060610888826101b4426001610fcd565b9450905060008490036108a85760008061019494509450945050506108bd565b60006108b382610bb0565b955060c893505050505b9193909250565b6060806000806108d88861020d888a611002565b915091508161092957604080516000808252602082019092529061090c565b60608152602001906001900390816108f75790505b506040805160008152602081019091529094509250610ba7915050565b60006109358989610299565b90935090508261098857604080516000808252602082019092529061096a565b60608152602001906001900390816109555790505b506040805160008152602081019091529095509350610ba792505050565b6000806000886001600160401b038111156109a5576109a5610e53565b6040519080825280602002602001820160405280156109ce578160200160208202803683370190505b5090505b88831080156109f5575084826109e9866001610fcd565b6109f39190611002565b115b15610a59576000610a0a8d6101e78588611002565b9050610a168d82610318565b610a465780828581518110610a2d57610a2d61102e565b602090810291909101015283610a4281611015565b9450505b82610a5081611015565b935050506109d2565b6000836001600160401b03811115610a7357610a73610e53565b604051908082528060200260200182016040528015610aa657816020015b6060815260200190600190039081610a915790505b5090506000846001600160401b03811115610ac357610ac3610e53565b604051908082528060200260200182016040528015610aec578160200160208202803683370190505b50905060005b85811015610b9a578381610b07600189611002565b610b119190611002565b81518110610b2157610b2161102e565b6020026020010151828281518110610b3b57610b3b61102e565b602002602001018181525050610b6a8f838381518110610b5d57610b5d61102e565b60200260200101516104e2565b838281518110610b7c57610b7c61102e565b60200260200101819052508080610b9290611015565b915050610af2565b5090985096505050505050505b94509492505050565b6000805b8251811015610c0157828181518110610bcf57610bcf61102e565b016020015160f81c610be383610100611044565b610bed9190610fcd565b915080610bf981611015565b915050610bb4565b50919050565b6001600160a01b0381168114610c1c57600080fd5b50565b600060208284031215610c3157600080fd5b8135610c3c81610c07565b9392505050565b60008060408385031215610c5657600080fd5b50508035926020909101359150565b60005b83811015610c80578181015183820152602001610c68565b50506000910152565b60008151808452610ca1816020860160208601610c65565b601f01601f19169290920160200192915050565b604081526000610cc86040830185610c89565b90508260208301529392505050565b600060208284031215610ce957600080fd5b5035919050565b60208152600061038c6020830184610c89565b60008060008060808587031215610d1957600080fd5b5050823594602084013594506040840135936060013592509050565b6000604082016040835280855180835260608501915060608160051b8601019250602080880160005b83811015610d8c57605f19888703018552610d7a868351610c89565b95509382019390820190600101610d5e565b50508584038187015286518085528782019482019350915060005b82811015610dc357845184529381019392810192600101610da7565b5091979650505050505050565b918252602082015260400190565b80518015158114610dee57600080fd5b919050565b60008060408385031215610e0657600080fd5b610e0f83610dde565b9150602083015190509250929050565b600060208284031215610e3157600080fd5b61038c82610dde565b600060208284031215610e4c57600080fd5b5051919050565b634e487b7160e01b600052604160045260246000fd5b600082601f830112610e7a57600080fd5b81516001600160401b0380821115610e9457610e94610e53565b604051601f8301601f19908116603f01168101908282118183101715610ebc57610ebc610e53565b81604052838152866020858801011115610ed557600080fd5b610ee6846020830160208901610c65565b9695505050505050565b600080600060608486031215610f0557600080fd5b610f0e84610dde565b60208501519093506001600160401b03811115610f2a57600080fd5b610f3686828701610e69565b925050604084015190509250925092565b600060208284031215610f5957600080fd5b81516001600160401b03811115610f6f57600080fd5b610f7b84828501610e69565b949350505050565b600060208284031215610f9557600080fd5b8151610c3c81610c07565b634e487b7160e01b600052601160045260246000fd5b600081610fc557610fc5610fa0565b506000190190565b8082018082111561038f5761038f610fa0565b600082610ffd57634e487b7160e01b600052601260045260246000fd5b500490565b8181038181111561038f5761038f610fa0565b60006001820161102757611027610fa0565b5060010190565b634e487b7160e01b600052603260045260246000fd5b808202811582820484141761038f5761038f610fa056fea2646970667358221220954bbc6e9a987d75bad624d182d25add7877901cb4901096a48e59fa2a25f52364736f6c63430008110033",
  "linkReferences": {},
  "deployedLinkReferences": {}
}