{
  "_format": "hh-sol-artifact-1",
  "contractName": "CFC",
  "sourceName": "contracts/FlatCFC.sol",
  "abi": [
    {
      "inputs": [
        {
          "internalType": "address",
          "name": "_charon",
          "type": "address"
        },
        {
          "internalType": "address",
          "name": "_oracle",
          "type": "address"
        },
        {
          "internalType": "uint256",
          "name": "_toOracle",
          "type": "uint256"
        },
        {
          "internalType": "uint256",
          "name": "_toLPs",
          "type": "uint256"
        },
        {
          "internalType": "uint256",
          "name": "_toHolders",
          "type": "uint256"
        },
        {
          "internalType": "uint256",
          "name": "_toUsers",
          "type": "uint256"
        }
      ],
      "stateMutability": "nonpayable",
      "type": "constructor"
    },
    {
      "anonymous": false,
      "inputs": [
        {
          "indexed": false,
          "internalType": "uint256",
          "name": "_amount",
          "type": "uint256"
        },
        {
          "indexed": false,
          "internalType": "bool",
          "name": "_isCHD",
          "type": "bool"
        }
      ],
      "name": "FeeAdded",
      "type": "event"
    },
    {
      "anonymous": false,
      "inputs": [
        {
          "indexed": false,
          "internalType": "uint256",
          "name": "_endDate",
          "type": "uint256"
        },
        {
          "indexed": false,
          "internalType": "uint256",
          "name": "_baseTokenrRewardsPerToken",
          "type": "uint256"
        },
        {
          "indexed": false,
          "internalType": "uint256",
          "name": "_chdRewardsPerToken",
          "type": "uint256"
        }
      ],
      "name": "FeeRoundEnded",
      "type": "event"
    },
    {
      "anonymous": false,
      "inputs": [
        {
          "indexed": false,
          "internalType": "address",
          "name": "_account",
          "type": "address"
        },
        {
          "indexed": false,
          "internalType": "uint256",
          "name": "_baseTokenRewards",
          "type": "uint256"
        },
        {
          "indexed": false,
          "internalType": "uint256",
          "name": "_chdRewards",
          "type": "uint256"
        }
      ],
      "name": "RewardClaimed",
      "type": "event"
    },
    {
      "inputs": [
        {
          "internalType": "uint256",
          "name": "_amount",
          "type": "uint256"
        },
        {
          "internalType": "bool",
          "name": "_isCHD",
          "type": "bool"
        }
      ],
      "name": "addFees",
      "outputs": [],
      "stateMutability": "nonpayable",
      "type": "function"
    },
    {
      "inputs": [],
      "name": "charon",
      "outputs": [
        {
          "internalType": "contract ICharon",
          "name": "",
          "type": "address"
        }
      ],
      "stateMutability": "view",
      "type": "function"
    },
    {
      "inputs": [],
      "name": "chd",
      "outputs": [
        {
          "internalType": "contract IERC20",
          "name": "",
          "type": "address"
        }
      ],
      "stateMutability": "view",
      "type": "function"
    },
    {
      "inputs": [],
      "name": "cit",
      "outputs": [
        {
          "internalType": "address",
          "name": "",
          "type": "address"
        }
      ],
      "stateMutability": "view",
      "type": "function"
    },
    {
      "inputs": [],
      "name": "citChain",
      "outputs": [
        {
          "internalType": "uint256",
          "name": "",
          "type": "uint256"
        }
      ],
      "stateMutability": "view",
      "type": "function"
    },
    {
      "inputs": [
        {
          "internalType": "uint256",
          "name": "_timestamp",
          "type": "uint256"
        },
        {
          "internalType": "address",
          "name": "_account",
          "type": "address"
        },
        {
          "internalType": "uint256",
          "name": "_balance",
          "type": "uint256"
        },
        {
          "internalType": "bytes32[]",
          "name": "_hashes",
          "type": "bytes32[]"
        },
        {
          "internalType": "bool[]",
          "name": "_right",
          "type": "bool[]"
        }
      ],
      "name": "claimRewards",
      "outputs": [],
      "stateMutability": "nonpayable",
      "type": "function"
    },
    {
      "inputs": [
        {
          "internalType": "uint256",
          "name": "",
          "type": "uint256"
        },
        {
          "internalType": "address",
          "name": "",
          "type": "address"
        }
      ],
      "name": "didClaim",
      "outputs": [
        {
          "internalType": "bool",
          "name": "",
          "type": "bool"
        }
      ],
      "stateMutability": "view",
      "type": "function"
    },
    {
      "inputs": [],
      "name": "endFeeRound",
      "outputs": [],
      "stateMutability": "nonpayable",
      "type": "function"
    },
    {
      "inputs": [
        {
          "internalType": "uint256",
          "name": "",
          "type": "uint256"
        }
      ],
      "name": "feePeriodByTimestamp",
      "outputs": [
        {
          "internalType": "uint256",
          "name": "endDate",
          "type": "uint256"
        },
        {
          "internalType": "bytes32",
          "name": "rootHash",
          "type": "bytes32"
        },
        {
          "internalType": "uint256",
          "name": "totalSupply",
          "type": "uint256"
        },
        {
          "internalType": "uint256",
          "name": "chdRewardsPerToken",
          "type": "uint256"
        },
        {
          "internalType": "uint256",
          "name": "baseTokenRewardsPerToken",
          "type": "uint256"
        },
        {
          "internalType": "uint256",
          "name": "feePeriodToDistributeCHD",
          "type": "uint256"
        },
        {
          "internalType": "uint256",
          "name": "feePeriodToDistributeToken",
          "type": "uint256"
        }
      ],
      "stateMutability": "view",
      "type": "function"
    },
    {
      "inputs": [
        {
          "internalType": "uint256",
          "name": "",
          "type": "uint256"
        }
      ],
      "name": "feePeriods",
      "outputs": [
        {
          "internalType": "uint256",
          "name": "",
          "type": "uint256"
        }
      ],
      "stateMutability": "view",
      "type": "function"
    },
    {
      "inputs": [
        {
          "internalType": "uint256",
          "name": "_timestamp",
          "type": "uint256"
        },
        {
          "internalType": "address",
          "name": "_account",
          "type": "address"
        }
      ],
      "name": "getDidClaim",
      "outputs": [
        {
          "internalType": "bool",
          "name": "",
          "type": "bool"
        }
      ],
      "stateMutability": "view",
      "type": "function"
    },
    {
      "inputs": [
        {
          "internalType": "uint256",
          "name": "_timestamp",
          "type": "uint256"
        }
      ],
      "name": "getFeePeriodByTimestamp",
      "outputs": [
        {
          "components": [
            {
              "internalType": "uint256",
              "name": "endDate",
              "type": "uint256"
            },
            {
              "internalType": "bytes32",
              "name": "rootHash",
              "type": "bytes32"
            },
            {
              "internalType": "uint256",
              "name": "totalSupply",
              "type": "uint256"
            },
            {
              "internalType": "uint256",
              "name": "chdRewardsPerToken",
              "type": "uint256"
            },
            {
              "internalType": "uint256",
              "name": "baseTokenRewardsPerToken",
              "type": "uint256"
            },
            {
              "internalType": "uint256",
              "name": "feePeriodToDistributeCHD",
              "type": "uint256"
            },
            {
              "internalType": "uint256",
              "name": "feePeriodToDistributeToken",
              "type": "uint256"
            }
          ],
          "internalType": "struct CFC.FeePeriod",
          "name": "",
          "type": "tuple"
        }
      ],
      "stateMutability": "view",
      "type": "function"
    },
    {
      "inputs": [],
      "name": "getFeePeriods",
      "outputs": [
        {
          "internalType": "uint256[]",
          "name": "",
          "type": "uint256[]"
        }
      ],
      "stateMutability": "view",
      "type": "function"
    },
    {
      "inputs": [
        {
          "internalType": "bytes32[]",
          "name": "_inputs",
          "type": "bytes32[]"
        }
      ],
      "name": "getRootHash",
      "outputs": [
        {
          "internalType": "bytes32",
          "name": "",
          "type": "bytes32"
        }
      ],
      "stateMutability": "pure",
      "type": "function"
    },
    {
      "inputs": [],
      "name": "oracle",
      "outputs": [
        {
          "internalType": "contract IOracle",
          "name": "",
          "type": "address"
        }
      ],
      "stateMutability": "view",
      "type": "function"
    },
    {
      "inputs": [
        {
          "internalType": "address",
          "name": "_cit",
          "type": "address"
        },
        {
          "internalType": "uint256",
          "name": "_chainId",
          "type": "uint256"
        },
        {
          "internalType": "address",
          "name": "_chd",
          "type": "address"
        }
      ],
      "name": "setCit",
      "outputs": [],
      "stateMutability": "nonpayable",
      "type": "function"
    },
    {
      "inputs": [],
      "name": "toDistributeCHD",
      "outputs": [
        {
          "internalType": "uint256",
          "name": "",
          "type": "uint256"
        }
      ],
      "stateMutability": "view",
      "type": "function"
    },
    {
      "inputs": [],
      "name": "toDistributeToken",
      "outputs": [
        {
          "internalType": "uint256",
          "name": "",
          "type": "uint256"
        }
      ],
      "stateMutability": "view",
      "type": "function"
    },
    {
      "inputs": [],
      "name": "toHolders",
      "outputs": [
        {
          "internalType": "uint256",
          "name": "",
          "type": "uint256"
        }
      ],
      "stateMutability": "view",
      "type": "function"
    },
    {
      "inputs": [],
      "name": "toLPs",
      "outputs": [
        {
          "internalType": "uint256",
          "name": "",
          "type": "uint256"
        }
      ],
      "stateMutability": "view",
      "type": "function"
    },
    {
      "inputs": [],
      "name": "toOracle",
      "outputs": [
        {
          "internalType": "uint256",
          "name": "",
          "type": "uint256"
        }
      ],
      "stateMutability": "view",
      "type": "function"
    },
    {
      "inputs": [],
      "name": "toUsers",
      "outputs": [
        {
          "internalType": "uint256",
          "name": "",
          "type": "uint256"
        }
      ],
      "stateMutability": "view",
      "type": "function"
    },
    {
      "inputs": [],
      "name": "token",
      "outputs": [
        {
          "internalType": "contract IERC20",
          "name": "",
          "type": "address"
        }
      ],
      "stateMutability": "view",
      "type": "function"
    },
    {
      "inputs": [],
      "name": "totalDistributedCHD",
      "outputs": [
        {
          "internalType": "uint256",
          "name": "",
          "type": "uint256"
        }
      ],
      "stateMutability": "view",
      "type": "function"
    },
    {
      "inputs": [],
      "name": "totalDistributedToken",
      "outputs": [
        {
          "internalType": "uint256",
          "name": "",
          "type": "uint256"
        }
      ],
      "stateMutability": "view",
      "type": "function"
    }
  ],
  "bytecode": "0x60806040523480156200001157600080fd5b5060405162001d7638038062001d768339810160408190526200003491620001f4565b808262000042858762000257565b6200004e919062000257565b6200005a919062000257565b68056bc75e2d6310000014620000a75760405162461bcd60e51b815260206004820152600e60248201526d73686f756c64206265203130302560901b604482015260640160405180910390fd5b600d80546001600160a01b038089166001600160a01b031992831617909255601080549288169290911691909117905560068490556005839055600482905560098190556000620000fc4262278d0062000257565b600a8054600181019091557fc65a7bb8d6351c1cf70c95a316cc6a92839c986682d98bc35f958f4883f9d2a8018190556000818152600b6020908152604091829020839055600d548251637e062a3560e11b815292519394506001600160a01b03169263fc0c546a9260048082019392918290030181865afa15801562000187573d6000803e3d6000fd5b505050506040513d601f19601f82011682018060405250810190620001ad91906200027f565b600e80546001600160a01b0319166001600160a01b039290921691909117905550620002a695505050505050565b6001600160a01b0381168114620001f157600080fd5b50565b60008060008060008060c087890312156200020e57600080fd5b86516200021b81620001db565b60208801519096506200022e81620001db565b6040880151606089015160808a015160a0909a0151989b929a5090989097909650945092505050565b808201808211156200027957634e487b7160e01b600052601160045260246000fd5b92915050565b6000602082840312156200029257600080fd5b81516200029f81620001db565b9392505050565b611ac080620002b66000396000f3fe608060405234801561001057600080fd5b50600436106101735760003560e01c80639f026b19116100de578063c84ad3c811610097578063e602ce8711610071578063e602ce87146103bf578063fc0c546a146103d2578063fc571a5c146103e5578063fcc71231146103f857600080fd5b8063c84ad3c814610344578063deaa93111461034d578063e32bedba1461035657600080fd5b80639f026b19146102ca578063a8109c80146102f8578063abc9cccb1461030b578063acda0e4114610313578063b52a7f2614610326578063bf60dca71461033b57600080fd5b8063429957ca11610130578063429957ca1461025c5780634372313a146102715780637066e11f146102845780637b65781c1461028d5780637dc0d1d0146102965780639e658587146102c157600080fd5b80631491d16b1461017857806317f8818b146101a0578063210b6452146101b75780632d99882c14610237578063391f0b1a146102405780633a608e6514610249575b600080fd5b61018b610186366004611603565b61040b565b60405190151581526020015b60405180910390f35b6101a960035481565b604051908152602001610197565b6102026101c536600461162f565b600b602052600090815260409020805460018201546002830154600384015460048501546005860154600690960154949593949293919290919087565b604080519788526020880196909652948601939093526060850191909152608084015260a083015260c082015260e001610197565b6101a960095481565b6101a960045481565b6101a961025736600461168f565b610438565b61026f61026a366004611746565b6106bf565b005b61026f61027f3660046117c2565b610b76565b6101a960055481565b6101a960025481565b6010546102a9906001600160a01b031681565b6040516001600160a01b039091168152602001610197565b6101a960085481565b61018b6102d8366004611603565b600c60209081526000928352604080842090915290825290205460ff1681565b600f546102a9906001600160a01b031681565b61026f610fbc565b61026f610321366004611856565b61133d565b61032e6113bc565b6040516101979190611892565b6101a960015481565b6101a960065481565b6101a960075481565b61036961036436600461162f565b611414565b6040516101979190600060e082019050825182526020830151602083015260408301516040830152606083015160608301526080830151608083015260a083015160a083015260c083015160c083015292915050565b6101a96103cd36600461162f565b6114ba565b600e546102a9906001600160a01b031681565b600d546102a9906001600160a01b031681565b6000546102a9906001600160a01b031681565b6000828152600c602090815260408083206001600160a01b038516845290915290205460ff165b92915050565b805160009060018190036104695782600081518110610459576104596118d6565b6020026020010151915050919050565b6000610476600283611902565b61048160028461192c565b61048b9190611940565b67ffffffffffffffff8111156104a3576104a3611648565b6040519080825280602002602001820160405280156104cc578160200160208202803683370190505b5090506000806104dd600185611953565b905060016000805b821561058c578885815181106104fd576104fd6118d6565b60200260200101519050838560016105159190611940565b111561054d5760408051602081018390529081018290526060015b60405160208183030381529060405280519060200120915061062d565b808961055a876001611940565b8151811061056a5761056a6118d6565b6020026020010151604051602001610530929190918252602082015260400190565b85858151811061059e5761059e6118d6565b60200260200101519050838560016105b69190611940565b11156105d5576040805160208101839052908101829052606001610530565b80866105e2876001611940565b815181106105f2576105f26118d6565b6020026020010151604051602001610614929190918252602082015260400190565b6040516020818303038152906040528051906020012091505b818661063a60028861192c565b8151811061064a5761064a6118d6565b6020908102919091010152610660600286611940565b9450838511156106915760026106768187611953565b610680919061192c565b935083156106965760009450600092505b6104e5565b856000815181106106a9576106a96118d6565b6020026020010151975050505050505050919050565b600068056bc75e2d63100000600554846106d99190611966565b6106e3919061192c565b9050600068056bc75e2d63100000600954856106ff9190611966565b610709919061192c565b9050600068056bc75e2d63100000600654866107259190611966565b61072f919061192c565b9050831561093a57600054600160a01b900460ff1661080d57600f546040516323b872dd60e01b8152336004820152306024820152604481018790526001600160a01b03909116906323b872dd906064016020604051808303816000875af115801561079f573d6000803e3d6000fd5b505050506040513d601f19601f820116820180604052508101906107c3919061197d565b61080d5760405162461bcd60e51b81526020600482015260166024820152751cda1bdd5b19081d1c985b9cd9995c88185b5bdd5b9d60521b60448201526064015b60405180910390fd5b600f54600d546001600160a01b039182169163095ea7b39116836108318787611940565b61083b9190611940565b6040516001600160e01b031960e085901b1681526001600160a01b03909216600483015260248201526044016020604051808303816000875af1158015610886573d6000803e3d6000fd5b505050506040513d601f19601f820116820180604052508101906108aa919061197d565b5084600360008282546108bd9190611940565b9091555050600d546040516323e1389f60e21b8152600481018490526024810185905260448101839052600160648201526001600160a01b0390911690638f84e27c90608401600060405180830381600087803b15801561091d57600080fd5b505af1158015610931573d6000803e3d6000fd5b50505050610b34565b600054600160a01b900460ff16610a0b57600e546040516323b872dd60e01b8152336004820152306024820152604481018790526001600160a01b03909116906323b872dd906064016020604051808303816000875af11580156109a2573d6000803e3d6000fd5b505050506040513d601f19601f820116820180604052508101906109c6919061197d565b610a0b5760405162461bcd60e51b81526020600482015260166024820152751cda1bdd5b19081d1c985b9cd9995c88185b5bdd5b9d60521b6044820152606401610804565b600e54600d546001600160a01b039182169163095ea7b3911683610a2f8787611940565b610a399190611940565b6040516001600160e01b031960e085901b1681526001600160a01b03909216600483015260248201526044016020604051808303816000875af1158015610a84573d6000803e3d6000fd5b505050506040513d601f19601f82011682018060405250810190610aa8919061197d565b508460026000828254610abb9190611940565b9091555050600d546040516323e1389f60e21b8152600481018490526024810185905260448101839052600060648201526001600160a01b0390911690638f84e27c90608401600060405180830381600087803b158015610b1b57600080fd5b505af1158015610b2f573d6000803e3d6000fd5b505050505b6040805186815285151560208201527fa6963574e873dd45783e8752f898bac350e77e7f869181865d92b9a7ad35dedb91015b60405180910390a15050505050565b6000878152600b60205260409020600a54600511610bfe57600a8054899190610ba190600590611953565b81548110610bb157610bb16118d6565b906000526020600020015410610bfe5760405162461bcd60e51b8152602060048201526012602482015271746f6f206c61746520746f6f20636c61696d60701b6044820152606401610804565b6000888152600c602090815260408083206001600160a01b038b16845290915290205460ff1615610c675760405162461bcd60e51b815260206004820152601360248201527263616e206f6e6c7920636c61696d206f6e636560681b6044820152606401610804565b6000888152600c602090815260408083206001600160a01b038b16808552908352818420805460ff19166001179055815192830152810188905260600160405160208183030381529060405280519060200120905085859050600103610cf1578086866000818110610cdb57610cdb6118d6565b9050602002013514610cec57600080fd5b610d5c565b8086866000818110610d0557610d056118d6565b905060200201351480610d3057508086866001818110610d2757610d276118d6565b90506020020135145b80610d5357508086866002818110610d4a57610d4a6118d6565b90506020020135145b610d5c57600080fd5b610dce826001015487878080602002602001604051908101604052809392919081815260200183836020028082843760009201919091525050604080516020808b0282810182019093528a82529093508a9250899182918501908490808284376000920191909152506114db92505050565b610dd757600080fd5b6000670de0b6b3a7640000888460040154610df29190611966565b610dfc919061192c565b90506000670de0b6b3a7640000898560030154610e199190611966565b610e23919061192c565b905080846005016000828254610e399190611953565b9250508190555081846006016000828254610e549190611953565b90915550508115610edf57600e5460405163a9059cbb60e01b81526001600160a01b038c81166004830152602482018590529091169063a9059cbb906044016020604051808303816000875af1158015610eb2573d6000803e3d6000fd5b505050506040513d601f19601f82011682018060405250810190610ed6919061197d565b610edf57600080fd5b8015610f6557600f5460405163a9059cbb60e01b81526001600160a01b038c81166004830152602482018490529091169063a9059cbb906044016020604051808303816000875af1158015610f38573d6000803e3d6000fd5b505050506040513d601f19601f82011682018060405250810190610f5c919061197d565b610f6557600080fd5b604080516001600160a01b038c168152602081018490529081018290527ff01da32686223933d8a18a391060918c7f11a3648639edd87ae013e2e27317439060600160405180910390a15050505050505050505050565b6000600b6000600a6001600a80549050610fd69190611953565b81548110610fe657610fe66118d6565b906000526020600020015481526020019081526020016000209050806000015461a8c06110139190611940565b42116110725760405162461bcd60e51b815260206004820152602860248201527f726f756e642073686f756c64206265206f76657220616e642074696d6520666f60448201526739103a32b63637b960c11b6064820152608401610804565b601054815460015460008054604051635b7b434f60e11b8152600481019490945260248401929092526001600160a01b03918216604484015292169063b6f6869e90606401600060405180830381865afa1580156110d4573d6000803e3d6000fd5b505050506040513d6000823e601f3d908101601f191682016040526110fc91908101906119a1565b9050600080828060200190518101906111159190611a4d565b6001860182905560028601819055909250905060006111374262278d00611940565b600a8054600181019091557fc65a7bb8d6351c1cf70c95a316cc6a92839c986682d98bc35f958f4883f9d2a8018190556000818152600b602052604090208190559050611185826064611966565b6004546002546111959190611966565b61119f919061192c565b60048601556111af826064611966565b6004546003546111bf9190611966565b6111c9919061192c565b856003018190555068056bc75e2d631000006004546003546111eb9190611966565b6111f5919061192c565b600586015560045460025468056bc75e2d631000009161121491611966565b61121e919061192c565b600686015560006002819055600355600a546005116112f4576000805460ff60a01b1916600160a01b178155600a805461129792600b92909161126390600590611953565b81548110611273576112736118d6565b906000526020600020015481526020019081526020016000206006015460006106bf565b6112e6600b6000600a6005600a805490506112b29190611953565b815481106112c2576112c26118d6565b906000526020600020015481526020019081526020016000206005015460016106bf565b6000805460ff60a01b191690555b845460048601546003870154604080519384526020840192909252908201527f123f66df6d2790a48e6051153493be80de7efdd976d2641797da698d78c1d7c990606001610b67565b6000546001600160a01b0316156113885760405162461bcd60e51b815260206004820152600f60248201526e18da5d08185b1c9958591e481cd95d608a1b6044820152606401610804565b600191909155600080546001600160a01b039384166001600160a01b031991821617909155600f8054929093169116179055565b6060600a80548060200260200160405190810160405280929190818152602001828054801561140a57602002820191906000526020600020905b8154815260200190600101908083116113f6575b5050505050905090565b6114576040518060e00160405280600081526020016000801916815260200160008152602001600081526020016000815260200160008152602001600081525090565b506000908152600b6020908152604091829020825160e081018452815481526001820154928101929092526002810154928201929092526003820154606082015260048201546080820152600582015460a082015260069091015460c082015290565b600a81815481106114ca57600080fd5b600091825260209091200154905081565b600080836000815181106114f1576114f16118d6565b602002602001015190506000600190505b84518110156115dc5783818151811061151d5761151d6118d6565b60200260200101511561157c578185828151811061153d5761153d6118d6565b602002602001015160405160200161155f929190918252602082015260400190565b6040516020818303038152906040528051906020012091506115ca565b84818151811061158e5761158e6118d6565b6020026020010151826040516020016115b1929190918252602082015260400190565b6040516020818303038152906040528051906020012091505b806115d481611a71565b915050611502565b509093149392505050565b80356001600160a01b03811681146115fe57600080fd5b919050565b6000806040838503121561161657600080fd5b82359150611626602084016115e7565b90509250929050565b60006020828403121561164157600080fd5b5035919050565b634e487b7160e01b600052604160045260246000fd5b604051601f8201601f1916810167ffffffffffffffff8111828210171561168757611687611648565b604052919050565b600060208083850312156116a257600080fd5b823567ffffffffffffffff808211156116ba57600080fd5b818501915085601f8301126116ce57600080fd5b8135818111156116e0576116e0611648565b8060051b91506116f184830161165e565b818152918301840191848101908884111561170b57600080fd5b938501935b8385101561172957843582529385019390850190611710565b98975050505050505050565b801515811461174357600080fd5b50565b6000806040838503121561175957600080fd5b82359150602083013561176b81611735565b809150509250929050565b60008083601f84011261178857600080fd5b50813567ffffffffffffffff8111156117a057600080fd5b6020830191508360208260051b85010111156117bb57600080fd5b9250929050565b600080600080600080600060a0888a0312156117dd57600080fd5b873596506117ed602089016115e7565b955060408801359450606088013567ffffffffffffffff8082111561181157600080fd5b61181d8b838c01611776565b909650945060808a013591508082111561183657600080fd5b506118438a828b01611776565b989b979a50959850939692959293505050565b60008060006060848603121561186b57600080fd5b611874846115e7565b925060208401359150611889604085016115e7565b90509250925092565b6020808252825182820181905260009190848201906040850190845b818110156118ca578351835292840192918401916001016118ae565b50909695505050505050565b634e487b7160e01b600052603260045260246000fd5b634e487b7160e01b600052601260045260246000fd5b600082611911576119116118ec565b500690565b634e487b7160e01b600052601160045260246000fd5b60008261193b5761193b6118ec565b500490565b8082018082111561043257610432611916565b8181038181111561043257610432611916565b808202811582820484141761043257610432611916565b60006020828403121561198f57600080fd5b815161199a81611735565b9392505050565b600060208083850312156119b457600080fd5b825167ffffffffffffffff808211156119cc57600080fd5b818501915085601f8301126119e057600080fd5b8151818111156119f2576119f2611648565b611a04601f8201601f1916850161165e565b91508082528684828501011115611a1a57600080fd5b60005b81811015611a38578381018501518382018601528401611a1d565b50600090820190930192909252509392505050565b60008060408385031215611a6057600080fd5b505080516020909101519092909150565b600060018201611a8357611a83611916565b506001019056fea2646970667358221220038a87e5c37c78b02dc576f36fda781004bc5d53348261f9ebfa7efc958d756e64736f6c63430008110033",
  "linkReferences": {},
  "deployedLinkReferences": {}
}