{
  "_format": "hh-sol-artifact-1",
  "contractName": "CFC",
  "sourceName": "contracts/FlatCFC.sol",
  "abi": [
    {
      "inputs": [
        {
          "internalType": "address",
          "name": "_charon",
          "type": "address"
        },
        {
          "internalType": "address",
          "name": "_oracle",
          "type": "address"
        },
        {
          "internalType": "uint256",
          "name": "_toOracle",
          "type": "uint256"
        },
        {
          "internalType": "uint256",
          "name": "_toLPs",
          "type": "uint256"
        },
        {
          "internalType": "uint256",
          "name": "_toHolders",
          "type": "uint256"
        },
        {
          "internalType": "uint256",
          "name": "_toUsers",
          "type": "uint256"
        }
      ],
      "stateMutability": "nonpayable",
      "type": "constructor"
    },
    {
      "anonymous": false,
      "inputs": [
        {
          "indexed": false,
          "internalType": "uint256",
          "name": "_amount",
          "type": "uint256"
        },
        {
          "indexed": false,
          "internalType": "bool",
          "name": "_isCHD",
          "type": "bool"
        }
      ],
      "name": "FeeAdded",
      "type": "event"
    },
    {
      "anonymous": false,
      "inputs": [
        {
          "indexed": false,
          "internalType": "uint256",
          "name": "_endDate",
          "type": "uint256"
        },
        {
          "indexed": false,
          "internalType": "uint256",
          "name": "_baseTokenrRewardsPerToken",
          "type": "uint256"
        },
        {
          "indexed": false,
          "internalType": "uint256",
          "name": "_chdRewardsPerToken",
          "type": "uint256"
        }
      ],
      "name": "FeeRoundEnded",
      "type": "event"
    },
    {
      "anonymous": false,
      "inputs": [
        {
          "indexed": false,
          "internalType": "address",
          "name": "_account",
          "type": "address"
        },
        {
          "indexed": false,
          "internalType": "uint256",
          "name": "_baseTokenRewards",
          "type": "uint256"
        },
        {
          "indexed": false,
          "internalType": "uint256",
          "name": "_chdRewards",
          "type": "uint256"
        }
      ],
      "name": "RewardClaimed",
      "type": "event"
    },
    {
      "inputs": [],
      "name": "CIT",
      "outputs": [
        {
          "internalType": "address",
          "name": "",
          "type": "address"
        }
      ],
      "stateMutability": "view",
      "type": "function"
    },
    {
      "inputs": [],
      "name": "CITChain",
      "outputs": [
        {
          "internalType": "uint256",
          "name": "",
          "type": "uint256"
        }
      ],
      "stateMutability": "view",
      "type": "function"
    },
    {
      "inputs": [
        {
          "internalType": "uint256",
          "name": "_amount",
          "type": "uint256"
        },
        {
          "internalType": "bool",
          "name": "_isCHD",
          "type": "bool"
        }
      ],
      "name": "addFees",
      "outputs": [],
      "stateMutability": "nonpayable",
      "type": "function"
    },
    {
      "inputs": [],
      "name": "charon",
      "outputs": [
        {
          "internalType": "contract ICharon",
          "name": "",
          "type": "address"
        }
      ],
      "stateMutability": "view",
      "type": "function"
    },
    {
      "inputs": [],
      "name": "chd",
      "outputs": [
        {
          "internalType": "contract IERC20",
          "name": "",
          "type": "address"
        }
      ],
      "stateMutability": "view",
      "type": "function"
    },
    {
      "inputs": [
        {
          "internalType": "uint256",
          "name": "_timestamp",
          "type": "uint256"
        },
        {
          "internalType": "address",
          "name": "_account",
          "type": "address"
        },
        {
          "internalType": "uint256",
          "name": "_balance",
          "type": "uint256"
        },
        {
          "internalType": "bytes32[]",
          "name": "_hashes",
          "type": "bytes32[]"
        },
        {
          "internalType": "bool[]",
          "name": "_right",
          "type": "bool[]"
        }
      ],
      "name": "claimRewards",
      "outputs": [],
      "stateMutability": "nonpayable",
      "type": "function"
    },
    {
      "inputs": [],
      "name": "endFeeRound",
      "outputs": [],
      "stateMutability": "nonpayable",
      "type": "function"
    },
    {
      "inputs": [
        {
          "internalType": "uint256",
          "name": "",
          "type": "uint256"
        }
      ],
      "name": "feePeriods",
      "outputs": [
        {
          "internalType": "uint256",
          "name": "",
          "type": "uint256"
        }
      ],
      "stateMutability": "view",
      "type": "function"
    },
    {
      "inputs": [
        {
          "internalType": "uint256",
          "name": "_timestamp",
          "type": "uint256"
        },
        {
          "internalType": "address",
          "name": "_account",
          "type": "address"
        }
      ],
      "name": "getDidClaim",
      "outputs": [
        {
          "internalType": "bool",
          "name": "",
          "type": "bool"
        }
      ],
      "stateMutability": "view",
      "type": "function"
    },
    {
      "inputs": [
        {
          "internalType": "uint256",
          "name": "_timestamp",
          "type": "uint256"
        }
      ],
      "name": "getFeePeriodByTimestamp",
      "outputs": [
        {
          "components": [
            {
              "internalType": "uint256",
              "name": "endDate",
              "type": "uint256"
            },
            {
              "internalType": "bytes32",
              "name": "rootHash",
              "type": "bytes32"
            },
            {
              "internalType": "uint256",
              "name": "totalSupply",
              "type": "uint256"
            },
            {
              "internalType": "uint256",
              "name": "chdRewardsPerToken",
              "type": "uint256"
            },
            {
              "internalType": "uint256",
              "name": "baseTokenRewardsPerToken",
              "type": "uint256"
            }
          ],
          "internalType": "struct CFC.FeePeriod",
          "name": "",
          "type": "tuple"
        }
      ],
      "stateMutability": "view",
      "type": "function"
    },
    {
      "inputs": [],
      "name": "getFeePeriods",
      "outputs": [
        {
          "internalType": "uint256[]",
          "name": "",
          "type": "uint256[]"
        }
      ],
      "stateMutability": "view",
      "type": "function"
    },
    {
      "inputs": [
        {
          "internalType": "bytes32[]",
          "name": "_inputs",
          "type": "bytes32[]"
        }
      ],
      "name": "getRootHash",
      "outputs": [
        {
          "internalType": "bytes32",
          "name": "",
          "type": "bytes32"
        }
      ],
      "stateMutability": "pure",
      "type": "function"
    },
    {
      "inputs": [],
      "name": "oracle",
      "outputs": [
        {
          "internalType": "contract IOracle",
          "name": "",
          "type": "address"
        }
      ],
      "stateMutability": "view",
      "type": "function"
    },
    {
      "inputs": [
        {
          "internalType": "address",
          "name": "_cit",
          "type": "address"
        },
        {
          "internalType": "uint256",
          "name": "_chainID",
          "type": "uint256"
        },
        {
          "internalType": "address",
          "name": "_chd",
          "type": "address"
        }
      ],
      "name": "setCIT",
      "outputs": [],
      "stateMutability": "nonpayable",
      "type": "function"
    },
    {
      "inputs": [],
      "name": "toDistributeCHD",
      "outputs": [
        {
          "internalType": "uint256",
          "name": "",
          "type": "uint256"
        }
      ],
      "stateMutability": "view",
      "type": "function"
    },
    {
      "inputs": [],
      "name": "toDistributeToken",
      "outputs": [
        {
          "internalType": "uint256",
          "name": "",
          "type": "uint256"
        }
      ],
      "stateMutability": "view",
      "type": "function"
    },
    {
      "inputs": [],
      "name": "toHolders",
      "outputs": [
        {
          "internalType": "uint256",
          "name": "",
          "type": "uint256"
        }
      ],
      "stateMutability": "view",
      "type": "function"
    },
    {
      "inputs": [],
      "name": "toLPs",
      "outputs": [
        {
          "internalType": "uint256",
          "name": "",
          "type": "uint256"
        }
      ],
      "stateMutability": "view",
      "type": "function"
    },
    {
      "inputs": [],
      "name": "toOracle",
      "outputs": [
        {
          "internalType": "uint256",
          "name": "",
          "type": "uint256"
        }
      ],
      "stateMutability": "view",
      "type": "function"
    },
    {
      "inputs": [],
      "name": "toUsers",
      "outputs": [
        {
          "internalType": "uint256",
          "name": "",
          "type": "uint256"
        }
      ],
      "stateMutability": "view",
      "type": "function"
    },
    {
      "inputs": [],
      "name": "token",
      "outputs": [
        {
          "internalType": "contract IERC20",
          "name": "",
          "type": "address"
        }
      ],
      "stateMutability": "view",
      "type": "function"
    },
    {
      "inputs": [],
      "name": "totalDistributedCHD",
      "outputs": [
        {
          "internalType": "uint256",
          "name": "",
          "type": "uint256"
        }
      ],
      "stateMutability": "view",
      "type": "function"
    },
    {
      "inputs": [],
      "name": "totalDistributedToken",
      "outputs": [
        {
          "internalType": "uint256",
          "name": "",
          "type": "uint256"
        }
      ],
      "stateMutability": "view",
      "type": "function"
    }
  ],
  "bytecode": "0x60806040523480156200001157600080fd5b50604051620019c5380380620019c5833981016040819052620000349162000188565b600c80546001600160a01b038089166001600160a01b031992831617909255600d80549288169290911691909117905560018490556002839055600382905560048190556000620000894262278d00620001e5565b60098054600181019091557f6e1540171b6c0c960b71a7020d9f60077f6af931a8bbf590da0223dacf75c7af018190556000818152600a6020526040808220839055600c54815163154d950160e31b8152825194955092936001600160a01b039091169263aa6ca8089260048083019391928290030181865afa15801562000115573d6000803e3d6000fd5b505050506040513d601f19601f820116820180604052508101906200013b91906200020d565b600f80546001600160a01b0319166001600160a01b03929092169190911790555062000245975050505050505050565b80516001600160a01b03811681146200018357600080fd5b919050565b60008060008060008060c08789031215620001a257600080fd5b620001ad876200016b565b9550620001bd602088016200016b565b945060408701519350606087015192506080870151915060a087015190509295509295509295565b808201808211156200020757634e487b7160e01b600052601160045260246000fd5b92915050565b600080604083850312156200022157600080fd5b6200022c836200016b565b91506200023c602084016200016b565b90509250929050565b61177080620002556000396000f3fe608060405234801561001057600080fd5b506004361061011d5760003560e01c80631491d16b1461012257806317f8818b1461014a578063232c7f69146101615780632d99882c1461016a578063391f0b1a146101735780633a608e651461017c578063429957ca1461018f5780634372313a146101a45780637066e11f146101b75780637b65781c146101c05780637dc0d1d0146101c95780639e658587146101f4578063a8109c80146101fd578063abc9cccb14610210578063b1fdaf0214610218578063b52a7f261461022b578063c84ad3c814610240578063deaa931114610249578063e32bedba14610252578063e602ce87146102a7578063e9bc9d31146102ba578063fc0c546a146102cd578063fc571a5c146102e0575b600080fd5b610135610130366004611220565b6102f3565b60405190151581526020015b60405180910390f35b61015360065481565b604051908152602001610141565b61015360005481565b61015360045481565b61015360035481565b61015361018a366004611292565b610320565b6101a261019d366004611348565b61058c565b005b6101a26101b23660046113c3565b610999565b61015360025481565b61015360055481565b600d546101dc906001600160a01b031681565b6040516001600160a01b039091168152602001610141565b61015360085481565b6010546101dc906001600160a01b031681565b6101a2610d26565b6101a2610226366004611456565b610f8e565b61023361100d565b6040516101419190611492565b61015360015481565b61015360075481565b6102656102603660046114d6565b611065565b6040516101419190600060a082019050825182526020830151602083015260408301516040830152606083015160608301526080830151608083015292915050565b6101536102b53660046114d6565b6110e9565b600e546101dc906001600160a01b031681565b600f546101dc906001600160a01b031681565b600c546101dc906001600160a01b031681565b6000828152600b602090815260408083206001600160a01b038516845290915290205460ff165b92915050565b805160009060018190036103515782600081518110610341576103416114ef565b6020026020010151915050919050565b600061035e60028361151b565b610369600284611545565b6103739190611559565b6001600160401b0381111561038a5761038a61124c565b6040519080825280602002602001820160405280156103b3578160200160208202803683370190505b5090506000806103c460018561156c565b905060016000805b8215610468578885815181106103e4576103e46114ef565b60200260200101519050838560016103fc9190611559565b111561043257808160405160200161041592919061157f565b6040516020818303038152906040528051906020012091506104fa565b808961043f876001611559565b8151811061044f5761044f6114ef565b602002602001015160405160200161041592919061157f565b85858151811061047a5761047a6114ef565b60200260200101519050838560016104929190611559565b11156104ab57808160405160200161041592919061157f565b80866104b8876001611559565b815181106104c8576104c86114ef565b60200260200101516040516020016104e192919061157f565b6040516020818303038152906040528051906020012091505b8186610507600288611545565b81518110610517576105176114ef565b602090810291909101015261052d600286611559565b94508385111561055e576002610543818761156c565b61054d9190611545565b935083156105635760009450600092505b6103cc565b85600081518110610576576105766114ef565b6020026020010151975050505050505050919050565b600068056bc75e2d63100000600254846105a6919061158d565b6105b09190611545565b9050600068056bc75e2d63100000600454856105cc919061158d565b6105d69190611545565b9050600068056bc75e2d63100000600154866105f2919061158d565b6105fc9190611545565b905083156107b4576010546040516323b872dd60e01b81526001600160a01b03909116906323b872dd9061063890339030908a906004016115a4565b6020604051808303816000875af1158015610657573d6000803e3d6000fd5b505050506040513d601f19601f8201168201806040525081019061067b91906115c8565b6106a05760405162461bcd60e51b8152600401610697906115ec565b60405180910390fd5b601054600c546001600160a01b039182169163095ea7b39116836106c48787611559565b6106ce9190611559565b6040518363ffffffff1660e01b81526004016106eb92919061161c565b6020604051808303816000875af115801561070a573d6000803e3d6000fd5b505050506040513d601f19601f8201168201806040525081019061072e91906115c8565b5084600660008282546107419190611559565b9091555050600c546040516323e1389f60e21b81526001600160a01b0390911690638f84e27c9061077d90859087908690600190600401611635565b600060405180830381600087803b15801561079757600080fd5b505af11580156107ab573d6000803e3d6000fd5b50505050610957565b600f546040516323b872dd60e01b81526001600160a01b03909116906323b872dd906107e890339030908a906004016115a4565b6020604051808303816000875af1158015610807573d6000803e3d6000fd5b505050506040513d601f19601f8201168201806040525081019061082b91906115c8565b6108475760405162461bcd60e51b8152600401610697906115ec565b600f54600c546001600160a01b039182169163095ea7b391168361086b8787611559565b6108759190611559565b6040518363ffffffff1660e01b815260040161089292919061161c565b6020604051808303816000875af11580156108b1573d6000803e3d6000fd5b505050506040513d601f19601f820116820180604052508101906108d591906115c8565b5084600560008282546108e89190611559565b9091555050600c546040516323e1389f60e21b81526001600160a01b0390911690638f84e27c9061092490859087908690600090600401611635565b600060405180830381600087803b15801561093e57600080fd5b505af1158015610952573d6000803e3d6000fd5b505050505b6040805186815285151560208201527fa6963574e873dd45783e8752f898bac350e77e7f869181865d92b9a7ad35dedb91015b60405180910390a15050505050565b6000878152600a60209081526040808320600b83528184206001600160a01b038b1685529092529091205460ff1615610a0a5760405162461bcd60e51b815260206004820152601360248201527263616e206f6e6c7920636c61696d206f6e636560681b6044820152606401610697565b6000888152600b602090815260408083206001600160a01b038b1684528252808320805460ff1916600117905551610a46918a918a910161161c565b60405160208183030381529060405280519060200120905085859050600103610a93578086866000818110610a7d57610a7d6114ef565b9050602002013514610a8e57600080fd5b610afe565b8086866000818110610aa757610aa76114ef565b905060200201351480610ad257508086866001818110610ac957610ac96114ef565b90506020020135145b80610af557508086866002818110610aec57610aec6114ef565b90506020020135145b610afe57600080fd5b610b70826001015487878080602002602001604051908101604052809392919081815260200183836020028082843760009201919091525050604080516020808b0282810182019093528a82529093508a92508991829185019084908082843760009201919091525061110a92505050565b610b7957600080fd5b6000670de0b6b3a7640000888460040154610b94919061158d565b610b9e9190611545565b90506000670de0b6b3a7640000898560030154610bbb919061158d565b610bc59190611545565b90508115610c4b57600f5460405163a9059cbb60e01b81526001600160a01b039091169063a9059cbb90610bff908d90869060040161161c565b6020604051808303816000875af1158015610c1e573d6000803e3d6000fd5b505050506040513d601f19601f82011682018060405250810190610c4291906115c8565b610c4b57600080fd5b8015610ccf5760105460405163a9059cbb60e01b81526001600160a01b039091169063a9059cbb90610c83908d90859060040161161c565b6020604051808303816000875af1158015610ca2573d6000803e3d6000fd5b505050506040513d601f19601f82011682018060405250810190610cc691906115c8565b610ccf57600080fd5b604080516001600160a01b038c168152602081018490529081018290527ff01da32686223933d8a18a391060918c7f11a3648639edd87ae013e2e27317439060600160405180910390a15050505050505050505050565b6000600a600060096001600980549050610d40919061156c565b81548110610d5057610d506114ef565b906000526020600020015481526020019081526020016000209050806000015461a8c0610d7d9190611559565b4211610ddc5760405162461bcd60e51b815260206004820152602860248201527f726f756e642073686f756c64206265206f76657220616e642074696d6520666f60448201526739103a32b63637b960c11b6064820152608401610697565b600d54815460008054600e54604051635b7b434f60e11b8152600481019490945260248401919091526001600160a01b0390811660448401529092169063b6f6869e90606401600060405180830381865afa158015610e3f573d6000803e3d6000fd5b505050506040513d6000823e601f3d908101601f19168201604052610e679190810190611652565b905060008082806020019051810190610e8091906116fd565b600186018290556002860181905590925090506000610ea24262278d00611559565b60098054600181019091557f6e1540171b6c0c960b71a7020d9f60077f6af931a8bbf590da0223dacf75c7af018190556000818152600a602052604090208190559050610ef082606461158d565b600354600554610f00919061158d565b610f0a9190611545565b6004860155610f1a82606461158d565b600354600654610f2a919061158d565b610f349190611545565b6003860190815560006005819055600655855460048701549154604080519283526020830193909352918101919091527f123f66df6d2790a48e6051153493be80de7efdd976d2641797da698d78c1d7c99060600161098a565b600e546001600160a01b031615610fd95760405162461bcd60e51b815260206004820152600f60248201526e18da5d08185b1c9958591e481cd95d608a1b6044820152606401610697565b600091909155600e80546001600160a01b039384166001600160a01b03199182161790915560108054929093169116179055565b6060600980548060200260200160405190810160405280929190818152602001828054801561105b57602002820191906000526020600020905b815481526020019060010190808311611047575b5050505050905090565b61109a6040518060a0016040528060008152602001600080191681526020016000815260200160008152602001600081525090565b506000908152600a6020908152604091829020825160a0810184528154815260018201549281019290925260028101549282019290925260038201546060820152600490910154608082015290565b600981815481106110f957600080fd5b600091825260209091200154905081565b60008083600081518110611120576111206114ef565b602002602001015190506000600190505b84518110156111f95783818151811061114c5761114c6114ef565b6020026020010151156111a2578185828151811061116c5761116c6114ef565b602002602001015160405160200161118592919061157f565b6040516020818303038152906040528051906020012091506111e7565b8481815181106111b4576111b46114ef565b6020026020010151826040516020016111ce92919061157f565b6040516020818303038152906040528051906020012091505b806111f181611721565b915050611131565b509093149392505050565b80356001600160a01b038116811461121b57600080fd5b919050565b6000806040838503121561123357600080fd5b8235915061124360208401611204565b90509250929050565b634e487b7160e01b600052604160045260246000fd5b604051601f8201601f191681016001600160401b038111828210171561128a5761128a61124c565b604052919050565b600060208083850312156112a557600080fd5b82356001600160401b03808211156112bc57600080fd5b818501915085601f8301126112d057600080fd5b8135818111156112e2576112e261124c565b8060051b91506112f3848301611262565b818152918301840191848101908884111561130d57600080fd5b938501935b8385101561132b57843582529385019390850190611312565b98975050505050505050565b801515811461134557600080fd5b50565b6000806040838503121561135b57600080fd5b82359150602083013561136d81611337565b809150509250929050565b60008083601f84011261138a57600080fd5b5081356001600160401b038111156113a157600080fd5b6020830191508360208260051b85010111156113bc57600080fd5b9250929050565b600080600080600080600060a0888a0312156113de57600080fd5b873596506113ee60208901611204565b95506040880135945060608801356001600160401b038082111561141157600080fd5b61141d8b838c01611378565b909650945060808a013591508082111561143657600080fd5b506114438a828b01611378565b989b979a50959850939692959293505050565b60008060006060848603121561146b57600080fd5b61147484611204565b92506020840135915061148960408501611204565b90509250925092565b6020808252825182820181905260009190848201906040850190845b818110156114ca578351835292840192918401916001016114ae565b50909695505050505050565b6000602082840312156114e857600080fd5b5035919050565b634e487b7160e01b600052603260045260246000fd5b634e487b7160e01b600052601260045260246000fd5b60008261152a5761152a611505565b500690565b634e487b7160e01b600052601160045260246000fd5b60008261155457611554611505565b500490565b8082018082111561031a5761031a61152f565b8181038181111561031a5761031a61152f565b918252602082015260400190565b808202811582820484141761031a5761031a61152f565b6001600160a01b039384168152919092166020820152604081019190915260600190565b6000602082840312156115da57600080fd5b81516115e581611337565b9392505050565b6020808252601690820152751cda1bdd5b19081d1c985b9cd9995c88185b5bdd5b9d60521b604082015260600190565b6001600160a01b03929092168252602082015260400190565b938452602084019290925260408301521515606082015260800190565b6000602080838503121561166557600080fd5b82516001600160401b038082111561167c57600080fd5b818501915085601f83011261169057600080fd5b8151818111156116a2576116a261124c565b6116b4601f8201601f19168501611262565b915080825286848285010111156116ca57600080fd5b60005b818110156116e85783810185015183820186015284016116cd565b50600090820190930192909252509392505050565b6000806040838503121561171057600080fd5b505080516020909101519092909150565b6000600182016117335761173361152f565b506001019056fea264697066735822122087295a898e3636d422770fb044c6ade949fcb9af8ac06e30774f72d9dd6d6fc264736f6c63430008110033",
  "linkReferences": {},
  "deployedLinkReferences": {}
}