{
  "_format": "hh-sol-artifact-1",
  "contractName": "CFC",
  "sourceName": "contracts/FlatCFC.sol",
  "abi": [
    {
      "inputs": [
        {
          "internalType": "address",
          "name": "_charon",
          "type": "address"
        },
        {
          "internalType": "address",
          "name": "_oracle",
          "type": "address"
        },
        {
          "internalType": "uint256",
          "name": "_toOracle",
          "type": "uint256"
        },
        {
          "internalType": "uint256",
          "name": "_toLPs",
          "type": "uint256"
        },
        {
          "internalType": "uint256",
          "name": "_toHolders",
          "type": "uint256"
        },
        {
          "internalType": "uint256",
          "name": "_toUsers",
          "type": "uint256"
        }
      ],
      "stateMutability": "nonpayable",
      "type": "constructor"
    },
    {
      "anonymous": false,
      "inputs": [
        {
          "indexed": false,
          "internalType": "uint256",
          "name": "_amount",
          "type": "uint256"
        },
        {
          "indexed": false,
          "internalType": "bool",
          "name": "_isCHD",
          "type": "bool"
        }
      ],
      "name": "FeeAdded",
      "type": "event"
    },
    {
      "anonymous": false,
      "inputs": [
        {
          "indexed": false,
          "internalType": "uint256",
          "name": "_endDate",
          "type": "uint256"
        },
        {
          "indexed": false,
          "internalType": "uint256",
          "name": "_baseTokenrRewardsPerToken",
          "type": "uint256"
        },
        {
          "indexed": false,
          "internalType": "uint256",
          "name": "_chdRewardsPerToken",
          "type": "uint256"
        }
      ],
      "name": "FeeRoundEnded",
      "type": "event"
    },
    {
      "anonymous": false,
      "inputs": [
        {
          "indexed": false,
          "internalType": "address",
          "name": "_account",
          "type": "address"
        },
        {
          "indexed": false,
          "internalType": "uint256",
          "name": "_baseTokenRewards",
          "type": "uint256"
        },
        {
          "indexed": false,
          "internalType": "uint256",
          "name": "_chdRewards",
          "type": "uint256"
        }
      ],
      "name": "RewardClaimed",
      "type": "event"
    },
    {
      "inputs": [
        {
          "internalType": "uint256",
          "name": "_amount",
          "type": "uint256"
        },
        {
          "internalType": "bool",
          "name": "_isCHD",
          "type": "bool"
        }
      ],
      "name": "addFees",
      "outputs": [],
      "stateMutability": "nonpayable",
      "type": "function"
    },
    {
      "inputs": [],
      "name": "charon",
      "outputs": [
        {
          "internalType": "contract ICharon",
          "name": "",
          "type": "address"
        }
      ],
      "stateMutability": "view",
      "type": "function"
    },
    {
      "inputs": [],
      "name": "chd",
      "outputs": [
        {
          "internalType": "contract IERC20",
          "name": "",
          "type": "address"
        }
      ],
      "stateMutability": "view",
      "type": "function"
    },
    {
      "inputs": [],
      "name": "cit",
      "outputs": [
        {
          "internalType": "address",
          "name": "",
          "type": "address"
        }
      ],
      "stateMutability": "view",
      "type": "function"
    },
    {
      "inputs": [],
      "name": "citChain",
      "outputs": [
        {
          "internalType": "uint256",
          "name": "",
          "type": "uint256"
        }
      ],
      "stateMutability": "view",
      "type": "function"
    },
    {
      "inputs": [
        {
          "internalType": "uint256",
          "name": "_timestamp",
          "type": "uint256"
        },
        {
          "internalType": "address",
          "name": "_account",
          "type": "address"
        },
        {
          "internalType": "uint256",
          "name": "_balance",
          "type": "uint256"
        },
        {
          "internalType": "bytes32[]",
          "name": "_hashes",
          "type": "bytes32[]"
        },
        {
          "internalType": "bool[]",
          "name": "_right",
          "type": "bool[]"
        }
      ],
      "name": "claimRewards",
      "outputs": [],
      "stateMutability": "nonpayable",
      "type": "function"
    },
    {
      "inputs": [
        {
          "internalType": "uint256",
          "name": "",
          "type": "uint256"
        },
        {
          "internalType": "address",
          "name": "",
          "type": "address"
        }
      ],
      "name": "didClaim",
      "outputs": [
        {
          "internalType": "bool",
          "name": "",
          "type": "bool"
        }
      ],
      "stateMutability": "view",
      "type": "function"
    },
    {
      "inputs": [],
      "name": "endFeeRound",
      "outputs": [],
      "stateMutability": "nonpayable",
      "type": "function"
    },
    {
      "inputs": [
        {
          "internalType": "uint256",
          "name": "",
          "type": "uint256"
        }
      ],
      "name": "feePeriodByTimestamp",
      "outputs": [
        {
          "internalType": "uint256",
          "name": "endDate",
          "type": "uint256"
        },
        {
          "internalType": "bytes32",
          "name": "rootHash",
          "type": "bytes32"
        },
        {
          "internalType": "uint256",
          "name": "totalSupply",
          "type": "uint256"
        },
        {
          "internalType": "uint256",
          "name": "chdRewardsPerToken",
          "type": "uint256"
        },
        {
          "internalType": "uint256",
          "name": "baseTokenRewardsPerToken",
          "type": "uint256"
        },
        {
          "internalType": "uint256",
          "name": "feePeriodToDistributeCHD",
          "type": "uint256"
        },
        {
          "internalType": "uint256",
          "name": "feePeriodToDistributeToken",
          "type": "uint256"
        }
      ],
      "stateMutability": "view",
      "type": "function"
    },
    {
      "inputs": [
        {
          "internalType": "uint256",
          "name": "",
          "type": "uint256"
        }
      ],
      "name": "feePeriods",
      "outputs": [
        {
          "internalType": "uint256",
          "name": "",
          "type": "uint256"
        }
      ],
      "stateMutability": "view",
      "type": "function"
    },
    {
      "inputs": [
        {
          "internalType": "uint256",
          "name": "_timestamp",
          "type": "uint256"
        },
        {
          "internalType": "address",
          "name": "_account",
          "type": "address"
        }
      ],
      "name": "getDidClaim",
      "outputs": [
        {
          "internalType": "bool",
          "name": "",
          "type": "bool"
        }
      ],
      "stateMutability": "view",
      "type": "function"
    },
    {
      "inputs": [
        {
          "internalType": "uint256",
          "name": "_timestamp",
          "type": "uint256"
        }
      ],
      "name": "getFeePeriodByTimestamp",
      "outputs": [
        {
          "components": [
            {
              "internalType": "uint256",
              "name": "endDate",
              "type": "uint256"
            },
            {
              "internalType": "bytes32",
              "name": "rootHash",
              "type": "bytes32"
            },
            {
              "internalType": "uint256",
              "name": "totalSupply",
              "type": "uint256"
            },
            {
              "internalType": "uint256",
              "name": "chdRewardsPerToken",
              "type": "uint256"
            },
            {
              "internalType": "uint256",
              "name": "baseTokenRewardsPerToken",
              "type": "uint256"
            },
            {
              "internalType": "uint256",
              "name": "feePeriodToDistributeCHD",
              "type": "uint256"
            },
            {
              "internalType": "uint256",
              "name": "feePeriodToDistributeToken",
              "type": "uint256"
            }
          ],
          "internalType": "struct CFC.FeePeriod",
          "name": "",
          "type": "tuple"
        }
      ],
      "stateMutability": "view",
      "type": "function"
    },
    {
      "inputs": [],
      "name": "getFeePeriods",
      "outputs": [
        {
          "internalType": "uint256[]",
          "name": "",
          "type": "uint256[]"
        }
      ],
      "stateMutability": "view",
      "type": "function"
    },
    {
      "inputs": [
        {
          "internalType": "bytes32[]",
          "name": "_inputs",
          "type": "bytes32[]"
        }
      ],
      "name": "getRootHash",
      "outputs": [
        {
          "internalType": "bytes32",
          "name": "",
          "type": "bytes32"
        }
      ],
      "stateMutability": "pure",
      "type": "function"
    },
    {
      "inputs": [],
      "name": "oracle",
      "outputs": [
        {
          "internalType": "contract IOracle",
          "name": "",
          "type": "address"
        }
      ],
      "stateMutability": "view",
      "type": "function"
    },
    {
      "inputs": [
        {
          "internalType": "address",
          "name": "_cit",
          "type": "address"
        },
        {
          "internalType": "uint256",
          "name": "_chainId",
          "type": "uint256"
        },
        {
          "internalType": "address",
          "name": "_chd",
          "type": "address"
        }
      ],
      "name": "setCit",
      "outputs": [],
      "stateMutability": "nonpayable",
      "type": "function"
    },
    {
      "inputs": [],
      "name": "toDistributeCHD",
      "outputs": [
        {
          "internalType": "uint256",
          "name": "",
          "type": "uint256"
        }
      ],
      "stateMutability": "view",
      "type": "function"
    },
    {
      "inputs": [],
      "name": "toDistributeToken",
      "outputs": [
        {
          "internalType": "uint256",
          "name": "",
          "type": "uint256"
        }
      ],
      "stateMutability": "view",
      "type": "function"
    },
    {
      "inputs": [],
      "name": "toHolders",
      "outputs": [
        {
          "internalType": "uint256",
          "name": "",
          "type": "uint256"
        }
      ],
      "stateMutability": "view",
      "type": "function"
    },
    {
      "inputs": [],
      "name": "toLPs",
      "outputs": [
        {
          "internalType": "uint256",
          "name": "",
          "type": "uint256"
        }
      ],
      "stateMutability": "view",
      "type": "function"
    },
    {
      "inputs": [],
      "name": "toOracle",
      "outputs": [
        {
          "internalType": "uint256",
          "name": "",
          "type": "uint256"
        }
      ],
      "stateMutability": "view",
      "type": "function"
    },
    {
      "inputs": [],
      "name": "toUsers",
      "outputs": [
        {
          "internalType": "uint256",
          "name": "",
          "type": "uint256"
        }
      ],
      "stateMutability": "view",
      "type": "function"
    },
    {
      "inputs": [],
      "name": "token",
      "outputs": [
        {
          "internalType": "contract IERC20",
          "name": "",
          "type": "address"
        }
      ],
      "stateMutability": "view",
      "type": "function"
    },
    {
      "inputs": [],
      "name": "totalDistributedCHD",
      "outputs": [
        {
          "internalType": "uint256",
          "name": "",
          "type": "uint256"
        }
      ],
      "stateMutability": "view",
      "type": "function"
    },
    {
      "inputs": [],
      "name": "totalDistributedToken",
      "outputs": [
        {
          "internalType": "uint256",
          "name": "",
          "type": "uint256"
        }
      ],
      "stateMutability": "view",
      "type": "function"
    }
  ],
  "bytecode": "0x60806040523480156200001157600080fd5b5060405162001d0f38038062001d0f8339810160408190526200003491620001f4565b808262000042858762000257565b6200004e919062000257565b6200005a919062000257565b68056bc75e2d6310000014620000a75760405162461bcd60e51b815260206004820152600e60248201526d73686f756c64206265203130302560901b604482015260640160405180910390fd5b600d80546001600160a01b038089166001600160a01b031992831617909255601080549288169290911691909117905560068490556005839055600482905560098190556000620000fc4262278d0062000257565b600a8054600181019091557fc65a7bb8d6351c1cf70c95a316cc6a92839c986682d98bc35f958f4883f9d2a8018190556000818152600b6020908152604091829020839055600d548251637e062a3560e11b815292519394506001600160a01b03169263fc0c546a9260048082019392918290030181865afa15801562000187573d6000803e3d6000fd5b505050506040513d601f19601f82011682018060405250810190620001ad91906200027f565b600e80546001600160a01b0319166001600160a01b039290921691909117905550620002a695505050505050565b6001600160a01b0381168114620001f157600080fd5b50565b60008060008060008060c087890312156200020e57600080fd5b86516200021b81620001db565b60208801519096506200022e81620001db565b6040880151606089015160808a015160a0909a0151989b929a5090989097909650945092505050565b808201808211156200027957634e487b7160e01b600052601160045260246000fd5b92915050565b6000602082840312156200029257600080fd5b81516200029f81620001db565b9392505050565b611a5980620002b66000396000f3fe608060405234801561001057600080fd5b50600436106101335760003560e01c80631491d16b1461013857806317f8818b14610160578063210b6452146101775780632d99882c146101f7578063391f0b1a146102005780633a608e6514610209578063429957ca1461021c5780634372313a146102315780637066e11f146102445780637b65781c1461024d5780637dc0d1d0146102565780639e658587146102815780639f026b191461028a578063a8109c80146102b8578063abc9cccb146102cb578063acda0e41146102d3578063b52a7f26146102e6578063bf60dca7146102fb578063c84ad3c814610304578063deaa93111461030d578063e32bedba14610316578063e602ce871461037f578063fc0c546a14610392578063fc571a5c146103a5578063fcc71231146103b8575b600080fd5b61014b610146366004611509565b6103cb565b60405190151581526020015b60405180910390f35b61016960035481565b604051908152602001610157565b6101c2610185366004611535565b600b602052600090815260409020805460018201546002830154600384015460048501546005860154600690960154949593949293919290919087565b604080519788526020880196909652948601939093526060850191909152608084015260a083015260c082015260e001610157565b61016960095481565b61016960045481565b610169610217366004611594565b6103f8565b61022f61022a36600461164a565b610664565b005b61022f61023f3660046116c5565b610a93565b61016960055481565b61016960025481565b601054610269906001600160a01b031681565b6040516001600160a01b039091168152602001610157565b61016960085481565b61014b610298366004611509565b600c60209081526000928352604080842090915290825290205460ff1681565b600f54610269906001600160a01b031681565b61022f610ed4565b61022f6102e1366004611758565b611255565b6102ee6112d4565b6040516101579190611794565b61016960015481565b61016960065481565b61016960075481565b610329610324366004611535565b61132c565b6040516101579190600060e082019050825182526020830151602083015260408301516040830152606083015160608301526080830151608083015260a083015160a083015260c083015160c083015292915050565b61016961038d366004611535565b6113d2565b600e54610269906001600160a01b031681565b600d54610269906001600160a01b031681565b600054610269906001600160a01b031681565b6000828152600c602090815260408083206001600160a01b038516845290915290205460ff165b92915050565b805160009060018190036104295782600081518110610419576104196117d8565b6020026020010151915050919050565b6000610436600283611804565b61044160028461182e565b61044b9190611842565b6001600160401b038111156104625761046261154e565b60405190808252806020026020018201604052801561048b578160200160208202803683370190505b50905060008061049c600185611855565b905060016000805b8215610540578885815181106104bc576104bc6117d8565b60200260200101519050838560016104d49190611842565b111561050a5780816040516020016104ed929190611868565b6040516020818303038152906040528051906020012091506105d2565b8089610517876001611842565b81518110610527576105276117d8565b60200260200101516040516020016104ed929190611868565b858581518110610552576105526117d8565b602002602001015190508385600161056a9190611842565b11156105835780816040516020016104ed929190611868565b8086610590876001611842565b815181106105a0576105a06117d8565b60200260200101516040516020016105b9929190611868565b6040516020818303038152906040528051906020012091505b81866105df60028861182e565b815181106105ef576105ef6117d8565b6020908102919091010152610605600286611842565b94508385111561063657600261061b8187611855565b610625919061182e565b9350831561063b5760009450600092505b6104a4565b8560008151811061064e5761064e6117d8565b6020026020010151975050505050505050919050565b600068056bc75e2d631000006005548461067e9190611876565b610688919061182e565b9050600068056bc75e2d63100000600954856106a49190611876565b6106ae919061182e565b9050600068056bc75e2d63100000600654866106ca9190611876565b6106d4919061182e565b9050831561089d57600054600160a01b900460ff1661078957600f546040516323b872dd60e01b81526001600160a01b03909116906323b872dd9061072190339030908a9060040161188d565b6020604051808303816000875af1158015610740573d6000803e3d6000fd5b505050506040513d601f19601f8201168201806040525081019061076491906118b1565b6107895760405162461bcd60e51b8152600401610780906118d5565b60405180910390fd5b600f54600d546001600160a01b039182169163095ea7b39116836107ad8787611842565b6107b79190611842565b6040518363ffffffff1660e01b81526004016107d4929190611905565b6020604051808303816000875af11580156107f3573d6000803e3d6000fd5b505050506040513d601f19601f8201168201806040525081019061081791906118b1565b50846003600082825461082a9190611842565b9091555050600d546040516323e1389f60e21b81526001600160a01b0390911690638f84e27c906108669085908790869060019060040161191e565b600060405180830381600087803b15801561088057600080fd5b505af1158015610894573d6000803e3d6000fd5b50505050610a51565b600054600160a01b900460ff1661094157600e546040516323b872dd60e01b81526001600160a01b03909116906323b872dd906108e290339030908a9060040161188d565b6020604051808303816000875af1158015610901573d6000803e3d6000fd5b505050506040513d601f19601f8201168201806040525081019061092591906118b1565b6109415760405162461bcd60e51b8152600401610780906118d5565b600e54600d546001600160a01b039182169163095ea7b39116836109658787611842565b61096f9190611842565b6040518363ffffffff1660e01b815260040161098c929190611905565b6020604051808303816000875af11580156109ab573d6000803e3d6000fd5b505050506040513d601f19601f820116820180604052508101906109cf91906118b1565b5084600260008282546109e29190611842565b9091555050600d546040516323e1389f60e21b81526001600160a01b0390911690638f84e27c90610a1e9085908790869060009060040161191e565b600060405180830381600087803b158015610a3857600080fd5b505af1158015610a4c573d6000803e3d6000fd5b505050505b6040805186815285151560208201527fa6963574e873dd45783e8752f898bac350e77e7f869181865d92b9a7ad35dedb91015b60405180910390a15050505050565b6000878152600b60205260409020600a54600511610b1b57600a8054899190610abe90600590611855565b81548110610ace57610ace6117d8565b906000526020600020015410610b1b5760405162461bcd60e51b8152602060048201526012602482015271746f6f206c61746520746f6f20636c61696d60701b6044820152606401610780565b6000888152600c602090815260408083206001600160a01b038b16845290915290205460ff1615610b845760405162461bcd60e51b815260206004820152601360248201527263616e206f6e6c7920636c61696d206f6e636560681b6044820152606401610780565b6000888152600c602090815260408083206001600160a01b038b1684528252808320805460ff1916600117905551610bc0918a918a9101611905565b60405160208183030381529060405280519060200120905085859050600103610c0d578086866000818110610bf757610bf76117d8565b9050602002013514610c0857600080fd5b610c78565b8086866000818110610c2157610c216117d8565b905060200201351480610c4c57508086866001818110610c4357610c436117d8565b90506020020135145b80610c6f57508086866002818110610c6657610c666117d8565b90506020020135145b610c7857600080fd5b610cea826001015487878080602002602001604051908101604052809392919081815260200183836020028082843760009201919091525050604080516020808b0282810182019093528a82529093508a9250899182918501908490808284376000920191909152506113f392505050565b610cf357600080fd5b6000670de0b6b3a7640000888460040154610d0e9190611876565b610d18919061182e565b90506000670de0b6b3a7640000898560030154610d359190611876565b610d3f919061182e565b905080846005016000828254610d559190611855565b9250508190555081846006016000828254610d709190611855565b90915550508115610df957600e5460405163a9059cbb60e01b81526001600160a01b039091169063a9059cbb90610dad908d908690600401611905565b6020604051808303816000875af1158015610dcc573d6000803e3d6000fd5b505050506040513d601f19601f82011682018060405250810190610df091906118b1565b610df957600080fd5b8015610e7d57600f5460405163a9059cbb60e01b81526001600160a01b039091169063a9059cbb90610e31908d908590600401611905565b6020604051808303816000875af1158015610e50573d6000803e3d6000fd5b505050506040513d601f19601f82011682018060405250810190610e7491906118b1565b610e7d57600080fd5b604080516001600160a01b038c168152602081018490529081018290527ff01da32686223933d8a18a391060918c7f11a3648639edd87ae013e2e27317439060600160405180910390a15050505050505050505050565b6000600b6000600a6001600a80549050610eee9190611855565b81548110610efe57610efe6117d8565b906000526020600020015481526020019081526020016000209050806000015461a8c0610f2b9190611842565b4211610f8a5760405162461bcd60e51b815260206004820152602860248201527f726f756e642073686f756c64206265206f76657220616e642074696d6520666f60448201526739103a32b63637b960c11b6064820152608401610780565b601054815460015460008054604051635b7b434f60e11b8152600481019490945260248401929092526001600160a01b03918216604484015292169063b6f6869e90606401600060405180830381865afa158015610fec573d6000803e3d6000fd5b505050506040513d6000823e601f3d908101601f19168201604052611014919081019061193b565b90506000808280602001905181019061102d91906119e6565b60018601829055600286018190559092509050600061104f4262278d00611842565b600a8054600181019091557fc65a7bb8d6351c1cf70c95a316cc6a92839c986682d98bc35f958f4883f9d2a8018190556000818152600b60205260409020819055905061109d826064611876565b6004546002546110ad9190611876565b6110b7919061182e565b60048601556110c7826064611876565b6004546003546110d79190611876565b6110e1919061182e565b856003018190555068056bc75e2d631000006004546003546111039190611876565b61110d919061182e565b600586015560045460025468056bc75e2d631000009161112c91611876565b611136919061182e565b600686015560006002819055600355600a5460051161120c576000805460ff60a01b1916600160a01b178155600a80546111af92600b92909161117b90600590611855565b8154811061118b5761118b6117d8565b90600052602060002001548152602001908152602001600020600601546000610664565b6111fe600b6000600a6005600a805490506111ca9190611855565b815481106111da576111da6117d8565b90600052602060002001548152602001908152602001600020600501546001610664565b6000805460ff60a01b191690555b845460048601546003870154604080519384526020840192909252908201527f123f66df6d2790a48e6051153493be80de7efdd976d2641797da698d78c1d7c990606001610a84565b6000546001600160a01b0316156112a05760405162461bcd60e51b815260206004820152600f60248201526e18da5d08185b1c9958591e481cd95d608a1b6044820152606401610780565b600191909155600080546001600160a01b039384166001600160a01b031991821617909155600f8054929093169116179055565b6060600a80548060200260200160405190810160405280929190818152602001828054801561132257602002820191906000526020600020905b81548152602001906001019080831161130e575b5050505050905090565b61136f6040518060e00160405280600081526020016000801916815260200160008152602001600081526020016000815260200160008152602001600081525090565b506000908152600b6020908152604091829020825160e081018452815481526001820154928101929092526002810154928201929092526003820154606082015260048201546080820152600582015460a082015260069091015460c082015290565b600a81815481106113e257600080fd5b600091825260209091200154905081565b60008083600081518110611409576114096117d8565b602002602001015190506000600190505b84518110156114e257838181518110611435576114356117d8565b60200260200101511561148b5781858281518110611455576114556117d8565b602002602001015160405160200161146e929190611868565b6040516020818303038152906040528051906020012091506114d0565b84818151811061149d5761149d6117d8565b6020026020010151826040516020016114b7929190611868565b6040516020818303038152906040528051906020012091505b806114da81611a0a565b91505061141a565b509093149392505050565b80356001600160a01b038116811461150457600080fd5b919050565b6000806040838503121561151c57600080fd5b8235915061152c602084016114ed565b90509250929050565b60006020828403121561154757600080fd5b5035919050565b634e487b7160e01b600052604160045260246000fd5b604051601f8201601f191681016001600160401b038111828210171561158c5761158c61154e565b604052919050565b600060208083850312156115a757600080fd5b82356001600160401b03808211156115be57600080fd5b818501915085601f8301126115d257600080fd5b8135818111156115e4576115e461154e565b8060051b91506115f5848301611564565b818152918301840191848101908884111561160f57600080fd5b938501935b8385101561162d57843582529385019390850190611614565b98975050505050505050565b801515811461164757600080fd5b50565b6000806040838503121561165d57600080fd5b82359150602083013561166f81611639565b809150509250929050565b60008083601f84011261168c57600080fd5b5081356001600160401b038111156116a357600080fd5b6020830191508360208260051b85010111156116be57600080fd5b9250929050565b600080600080600080600060a0888a0312156116e057600080fd5b873596506116f0602089016114ed565b95506040880135945060608801356001600160401b038082111561171357600080fd5b61171f8b838c0161167a565b909650945060808a013591508082111561173857600080fd5b506117458a828b0161167a565b989b979a50959850939692959293505050565b60008060006060848603121561176d57600080fd5b611776846114ed565b92506020840135915061178b604085016114ed565b90509250925092565b6020808252825182820181905260009190848201906040850190845b818110156117cc578351835292840192918401916001016117b0565b50909695505050505050565b634e487b7160e01b600052603260045260246000fd5b634e487b7160e01b600052601260045260246000fd5b600082611813576118136117ee565b500690565b634e487b7160e01b600052601160045260246000fd5b60008261183d5761183d6117ee565b500490565b808201808211156103f2576103f2611818565b818103818111156103f2576103f2611818565b918252602082015260400190565b80820281158282048414176103f2576103f2611818565b6001600160a01b039384168152919092166020820152604081019190915260600190565b6000602082840312156118c357600080fd5b81516118ce81611639565b9392505050565b6020808252601690820152751cda1bdd5b19081d1c985b9cd9995c88185b5bdd5b9d60521b604082015260600190565b6001600160a01b03929092168252602082015260400190565b938452602084019290925260408301521515606082015260800190565b6000602080838503121561194e57600080fd5b82516001600160401b038082111561196557600080fd5b818501915085601f83011261197957600080fd5b81518181111561198b5761198b61154e565b61199d601f8201601f19168501611564565b915080825286848285010111156119b357600080fd5b60005b818110156119d15783810185015183820186015284016119b6565b50600090820190930192909252509392505050565b600080604083850312156119f957600080fd5b505080516020909101519092909150565b600060018201611a1c57611a1c611818565b506001019056fea26469706673582212208f5d60ae17f2edbfec799c287c0aa5847004173db0e598fc7be2e483bd905fc364736f6c63430008110033",
  "linkReferences": {},
  "deployedLinkReferences": {}
}