{"contracts/Verifier16.sol":{"Verifier16":{"abi":[{"inputs":[{"internalType":"uint256[2]","name":"a","type":"uint256[2]"},{"internalType":"uint256[2][2]","name":"b","type":"uint256[2][2]"},{"internalType":"uint256[2]","name":"c","type":"uint256[2]"},{"internalType":"uint256[22]","name":"input","type":"uint256[22]"}],"name":"verifyProof","outputs":[{"internalType":"bool","name":"r","type":"bool"}],"stateMutability":"view","type":"function"}],"evm":{"bytecode":{"linkReferences":{},"object":"608060405234801561001057600080fd5b506117ed806100206000396000f3fe608060405234801561001057600080fd5b506004361061002b5760003560e01c8063c5a0fc2614610030575b600080fd5b61012d60048036036103c081101561004757600080fd5b6040805180820182529183019291818301918390600290839083908082843760009201829052506040805180820190915293969594608081019493509150600290835b828210156100c8576040805180820182529080840286019060029083908390808284376000920191909152505050815260019091019060200161008a565b5050604080518082018252939695948181019493509150600290839083908082843760009201919091525050604080516102c0818101909252929594938181019392509060169083908390808284376000920191909152509194506101419350505050565b604080519115158252519081900360200190f35b600061014b61168c565b604080518082018252875181526020808901518183015290835281516080810183528751518184019081528851830151606080840191909152908252835180850185528984018051518252518401518185015282840152848301919091528251808401845287518152878301518184015284840152825160168082526102e082019094529092909182016102c08036833701905050905060005b601681101561021e578481601681106101fa57fe5b602002015182828151811061020b57fe5b60209081029190910101526001016101e5565b506102298183610247565b6102385760019250505061023f565b6000925050505b949350505050565b60007f30644e72e131a029b85045b68181585d2833e84879b9709143e1f593f00000016102726116be565b61027a610423565b90508060800151518551600101146102ce576040805162461bcd60e51b81526020600482015260126024820152711d995c9a599a595c8b5898590b5a5b9c1d5d60721b604482015290519081900360640190fd5b6102d6611705565b6040518060400160405280600081526020016000815250905060005b86518110156103ac578387828151811061030857fe5b602002602001015110610362576040805162461bcd60e51b815260206004820152601f60248201527f76657269666965722d6774652d736e61726b2d7363616c61722d6669656c6400604482015290519081900360640190fd5b6103a28261039d8560800151846001018151811061037c57fe5b60200260200101518a858151811061039057fe5b60200260200101516110eb565b611180565b91506001016102f2565b506103cf8183608001516000815181106103c257fe5b6020026020010151611180565b90506104056103e18660000151611211565b8660200151846000015185602001518587604001518b60400151896060015161129d565b610415576001935050505061041d565b600093505050505b92915050565b61042b6116be565b6040805180820182527f2d4d9aa7e302d9df41749d5507949d05dbea33fbb16c643b22f599a2be6df2e281527f14bedd503c37ceb061d8ec60209fe345ce89830a19230301f076caff004d19266020808301919091529083528151608080820184527f0967032fcbf776d1afc985f88877f182d38480a653f2decaa9794cbc3bf3060c8285019081527f0e187847ad4c798374d0d6732bf501847dd68bc0e071241e0213bc7fc13db7ab606080850191909152908352845180860186527f304cfbd1e08a704a99f5e847d93f8c3caafddec46b7a0d379da69a4d112346a781527f1739c1b1a457a8c7313123d24d2f9192f896b7c63eea05a9d57f06547ad0cec8818601528385015285840192909252835180820185527f198e9393920d483a7260bfb731fb5d25f1aa493335a9e71297e485b7aef312c28186019081527f1800deef121f1e76426a00665e5c4479674322d4f75edadd46debd5cd992f6ed828501528152845180860186527f090689d0585ff075ec9e99ad690c3395bc4b313370b38ef355acdadcd122975b81527f12c85ea5db8c6deb4aab71808dcb408fe3d1e7690c43d37b4ce6cc0166fa7daa818601528185015285850152835190810184527f17da196b227f10ffb26d7c432db6bc1d1eb9535ec1d4b57eeaf4ec0ca151e0728185019081527f07ac23ebd208e26f5114d8ee492ac88636c06d3712d61d20dfd9a5c3e879b5ed828401528152835180850185527f026395a14310a204acf0283dcacb1deb0f54203f13b9cfb32853ff15072c431981527f152121077f34338fd363bfa966ebaf221357c763f995bfe9c4f961bb386f90b0818501528184015290840152815160178082526103008201909352919082015b6106af611705565b8152602001906001900390816106a757505060808201908152604080518082019091527f01d65afc1f7dfc2216afe4157ac42f2ce163f1e1a0fdc37d65db3b5f708540cb81527f0199093255ce5e39e9eecd6a493ba10bc4320adefeb495b336f57ef03b881af360208201529051805160009061072857fe5b602002602001018190525060405180604001604052807f0209828ea6bbfc32e1e4315093f47a3c5d57edcf731e93e749411855a8d0b08281526020017f143597bda533d7987144ce219e33da1fe15e74d1de6db6b4ec1a758bf138d4b2815250816080015160018151811061079957fe5b602002602001018190525060405180604001604052807f1f1d15c4a8526a19312294783f8cbc62e6f8a93612f480ae289149fa13c923c881526020017f0240be07043ac806481d70b5904c9cf671b2e9639a7e36b95f1a37c5e45de617815250816080015160028151811061080a57fe5b602002602001018190525060405180604001604052807f2b2fed80081d36fbc0b1560d35c5b0655890ce22c95b41dd8adb4d975c7324cb81526020017f1125192d479c6206821a9aad7a8a43d07126383d43259f4264782761d7df00df815250816080015160038151811061087b57fe5b602002602001018190525060405180604001604052807f03e80179efa347a277966cb78897b524236ac8e5ec70236596b0f5d46a15f9b181526020017f0ac293f3cd77cd5b12b28a82bceac67d8adec9013da9d86bb0bb4fddbf4f24dc81525081608001516004815181106108ec57fe5b602002602001018190525060405180604001604052807f1caa7d991f69ee5f95e6030e4ec7a85a3dc0fb1c0c6ce3b3b4adf75050b4952381526020017f2688e4f166f6030a4582fc8eb2adab65749df52673dd7f11616a8c0fb8ef26b2815250816080015160058151811061095d57fe5b602002602001018190525060405180604001604052807f1f7bcd82fc0ae03c7322d631be1823af5146bbcb96308085b87919743cae9e0481526020017f0ca41fd659b7167ee355f5def3065a476304940f91a788838808f1c878a81fc881525081608001516006815181106109ce57fe5b602002602001018190525060405180604001604052807f2deaa7f4161f773eda64b90037dddae2250bc6a3be991092a612eae7cd5201fe81526020017f08dbb8d965289f52740ad7d6a23414f2eadc0ffaa68197da3c56c3e4594f5f808152508160800151600781518110610a3f57fe5b602002602001018190525060405180604001604052807f27d94f50e42f9d04bb7f062fa877726831b9198e1e970f054df0873a139d4f0881526020017f04cb85f1cfe06274cf63ffc4e77f28c7f694a3b7614e1f181af3550354ebb88b8152508160800151600881518110610ab057fe5b602002602001018190525060405180604001604052807f2094f03a4dc4024f91a60b00c9a8de22d0557d2ba9e5d3179c446be5f91ae5a381526020017f0aa862125cf26fe30a5b734b3c26603bcb4f43c65f12316bb3f5199f5d1c14e68152508160800151600981518110610b2157fe5b602002602001018190525060405180604001604052807f116269bf72b7478a2040cb8c86f68ddd1eca36614c049f86b3d6427d5cf4428f81526020017f24eeff79fac4fc7cc15a532a530db38c36947269413d6d2df0c3535c7d221de08152508160800151600a81518110610b9257fe5b602002602001018190525060405180604001604052807f22371ba1bfa8d76ab0c78999bfe82f4ddb251f1e19316f39cb3199892d85b54581526020017f0ed143a57c2818d9e60511d827a2bdd350a7eb72cdaa466b2daadbe556b4e8de8152508160800151600b81518110610c0357fe5b602002602001018190525060405180604001604052807f02d7c440affc707b38daf9738ad3c3502f13a280a157f7e6d677a9385080674881526020017f1a27140ec6c0f27ec2bf8040b05854b044516dffba1c726a3a0a4ba3764869308152508160800151600c81518110610c7457fe5b602002602001018190525060405180604001604052807f1f5f6e666ab7687fbde00e979b1edd2ce0e421e0dd57ead65df99d48a9957bad81526020017f17271cda39d02a2444110c83d2170368e0c179bd5ae443826ce5c08a270cddba8152508160800151600d81518110610ce557fe5b602002602001018190525060405180604001604052807e37b5454a2feb0cc4c4a5a4333f25e5fad0f88a9913e91a16ca7f9cb43b94fc81526020017f28dd9688e52f8a6385e47cb2591c4dd23845dcbe863c8e313d531d96bd10f5378152508160800151600e81518110610d5557fe5b602002602001018190525060405180604001604052807f2c4ce96151f5449c93e87b4e41f22aaae20fd1977af863038d6a2537a005221281526020017f226a0f0532c6002aac62231f88612b0b7eceea0268165548b8a73d656ee44f358152508160800151600f81518110610dc657fe5b602002602001018190525060405180604001604052807f05c74f5cf4d8529801b86c32b9a17bdc29ab8a4beb545c004cc12a390e21d29081526020017f0aa547c27851d9104247c34f404aefdcda363f0a611d6373af3a5bf5f47ad1de8152508160800151601081518110610e3757fe5b602002602001018190525060405180604001604052807f041142a375a7ccc215cafe44bc8f477b4357cc1cbf49ce3825e7c0058399f97a81526020017f2c2b0d99a7abf312c1aad5c7a8f8bc06ef398ebdcfecd61c7dd243cad10d05198152508160800151601181518110610ea857fe5b602002602001018190525060405180604001604052807f1ebd0549b4b19a7681e3e130109d637d46a0b7c66133b22c97e8e9bf6189e91481526020017f288fbdb0edb3cbc6c2aca3303506409d47ac63f592e5cdd71e0a8121463584c08152508160800151601281518110610f1957fe5b602002602001018190525060405180604001604052807f27cf920136671d2b28e2dc42c25fa47046955e245d9b42b12c6052e04120556081526020017f1accc993b660ae79155499602db709acc4d780102e4b7354a026a275677d0c3c8152508160800151601381518110610f8a57fe5b602002602001018190525060405180604001604052807f2730dbe6c4abcfc3fe0ae60eae3f14604101478ce69805b17346a47ceeb5d07581526020017f074c449b56145ee167d4ee3bb6e197c0367eeee0da88f280bafa14f76220177a8152508160800151601481518110610ffb57fe5b602002602001018190525060405180604001604052807f1f8f998e6e346b04768b3997b1e911f5a06fd2cbfa1353c7b5a4d1bf9a55536d81526020017f206a2b4ca98f41f303af113a6c8f68588f8b28e5eadc9f9cec10aca58842fe00815250816080015160158151811061106c57fe5b602002602001018190525060405180604001604052807f1a744b7940a476c71dbccb03b4af15020a5a5303597c6d4471f7c008890eb91781526020017f300c58120538f5004f7b5b296fdfb650067a01b86058588e6e13ac0718c4e1e081525081608001516016815181106110dd57fe5b602002602001018190525090565b6110f3611705565b6110fb61171f565b835181526020808501519082015260408101839052600060608360808460076107d05a03fa905080801561112e57611130565bfe5b5080611178576040805162461bcd60e51b81526020600482015260126024820152711c185a5c9a5b99cb5b5d5b0b59985a5b195960721b604482015290519081900360640190fd5b505092915050565b611188611705565b61119061173d565b8351815260208085015181830152835160408301528301516060808301919091526000908360c08460066107d05a03fa905080801561112e575080611178576040805162461bcd60e51b81526020600482015260126024820152711c185a5c9a5b99cb5859190b59985a5b195960721b604482015290519081900360640190fd5b611219611705565b81517f30644e72e131a029b85045b68181585d97816a916871ca8d3c208c16d87cfd479015801561124c57506020830151155b1561126c5750506040805180820190915260008082526020820152611298565b6040518060400160405280846000015181526020018285602001518161128e57fe5b0683038152509150505b919050565b60408051600480825260a0820190925260009160609190816020015b6112c1611705565b8152602001906001900390816112b957505060408051600480825260a0820190925291925060609190602082015b6112f761175b565b8152602001906001900390816112ef5790505090508a8260008151811061131a57fe5b6020026020010181905250888260018151811061133357fe5b6020026020010181905250868260028151811061134c57fe5b6020026020010181905250848260038151811061136557fe5b6020026020010181905250898160008151811061137e57fe5b6020026020010181905250878160018151811061139757fe5b602002602001018190525085816002815181106113b057fe5b602002602001018190525083816003815181106113c957fe5b60200260200101819052506113de82826113ed565b9b9a5050505050505050505050565b6000815183511461143e576040805162461bcd60e51b81526020600482015260166024820152751c185a5c9a5b99cb5b195b99dd1a1ccb59985a5b195960521b604482015290519081900360640190fd5b82516006810260608167ffffffffffffffff8111801561145d57600080fd5b50604051908082528060200260200182016040528015611487578160200160208202803683370190505b50905060005b8381101561160c578681815181106114a157fe5b6020026020010151600001518282600602600001815181106114bf57fe5b6020026020010181815250508681815181106114d757fe5b6020026020010151602001518282600602600101815181106114f557fe5b60200260200101818152505085818151811061150d57fe5b60209081029190910101515151825183906002600685020190811061152e57fe5b60200260200101818152505085818151811061154657fe5b6020908102919091010151516001602002015182826006026003018151811061156b57fe5b60200260200101818152505085818151811061158357fe5b60200260200101516020015160006002811061159b57fe5b60200201518282600602600401815181106115b257fe5b6020026020010181815250508581815181106115ca57fe5b6020026020010151602001516001600281106115e257fe5b60200201518282600602600501815181106115f957fe5b602090810291909101015260010161148d565b5061161561177b565b6000602082602086026020860160086107d05a03fa905080801561112e57508061167e576040805162461bcd60e51b81526020600482015260156024820152741c185a5c9a5b99cb5bdc18dbd9194b59985a5b1959605a1b604482015290519081900360640190fd5b505115159695505050505050565b604051806060016040528061169f611705565b81526020016116ac61175b565b81526020016116b9611705565b905290565b6040518060a001604052806116d1611705565b81526020016116de61175b565b81526020016116eb61175b565b81526020016116f861175b565b8152602001606081525090565b604051806040016040528060008152602001600081525090565b60405180606001604052806003906020820280368337509192915050565b60405180608001604052806004906020820280368337509192915050565b604051806040016040528061176e611799565b81526020016116b9611799565b60405180602001604052806001906020820280368337509192915050565b6040518060400160405280600290602082028036833750919291505056fea2646970667358221220e7482e4159770682931ef138e21c1f881386d6b556ba4674b1a98170ac389c6d64736f6c634300060c0033","opcodes":"PUSH1 0x80 PUSH1 0x40 MSTORE CALLVALUE DUP1 ISZERO PUSH2 0x10 JUMPI PUSH1 0x0 DUP1 REVERT JUMPDEST POP PUSH2 0x17ED DUP1 PUSH2 0x20 PUSH1 0x0 CODECOPY PUSH1 0x0 RETURN INVALID PUSH1 0x80 PUSH1 0x40 MSTORE CALLVALUE DUP1 ISZERO PUSH2 0x10 JUMPI PUSH1 0x0 DUP1 REVERT JUMPDEST POP PUSH1 0x4 CALLDATASIZE LT PUSH2 0x2B JUMPI PUSH1 0x0 CALLDATALOAD PUSH1 0xE0 SHR DUP1 PUSH4 0xC5A0FC26 EQ PUSH2 0x30 JUMPI JUMPDEST PUSH1 0x0 DUP1 REVERT JUMPDEST PUSH2 0x12D PUSH1 0x4 DUP1 CALLDATASIZE SUB PUSH2 0x3C0 DUP2 LT ISZERO PUSH2 0x47 JUMPI PUSH1 0x0 DUP1 REVERT JUMPDEST PUSH1 0x40 DUP1 MLOAD DUP1 DUP3 ADD DUP3 MSTORE SWAP2 DUP4 ADD SWAP3 SWAP2 DUP2 DUP4 ADD SWAP2 DUP4 SWAP1 PUSH1 0x2 SWAP1 DUP4 SWAP1 DUP4 SWAP1 DUP1 DUP3 DUP5 CALLDATACOPY PUSH1 0x0 SWAP3 ADD DUP3 SWAP1 MSTORE POP PUSH1 0x40 DUP1 MLOAD DUP1 DUP3 ADD SWAP1 SWAP2 MSTORE SWAP4 SWAP7 SWAP6 SWAP5 PUSH1 0x80 DUP2 ADD SWAP5 SWAP4 POP SWAP2 POP PUSH1 0x2 SWAP1 DUP4 JUMPDEST DUP3 DUP3 LT ISZERO PUSH2 0xC8 JUMPI PUSH1 0x40 DUP1 MLOAD DUP1 DUP3 ADD DUP3 MSTORE SWAP1 DUP1 DUP5 MUL DUP7 ADD SWAP1 PUSH1 0x2 SWAP1 DUP4 SWAP1 DUP4 SWAP1 DUP1 DUP3 DUP5 CALLDATACOPY PUSH1 0x0 SWAP3 ADD SWAP2 SWAP1 SWAP2 MSTORE POP POP POP DUP2 MSTORE PUSH1 0x1 SWAP1 SWAP2 ADD SWAP1 PUSH1 0x20 ADD PUSH2 0x8A JUMP JUMPDEST POP POP PUSH1 0x40 DUP1 MLOAD DUP1 DUP3 ADD DUP3 MSTORE SWAP4 SWAP7 SWAP6 SWAP5 DUP2 DUP2 ADD SWAP5 SWAP4 POP SWAP2 POP PUSH1 0x2 SWAP1 DUP4 SWAP1 DUP4 SWAP1 DUP1 DUP3 DUP5 CALLDATACOPY PUSH1 0x0 SWAP3 ADD SWAP2 SWAP1 SWAP2 MSTORE POP POP PUSH1 0x40 DUP1 MLOAD PUSH2 0x2C0 DUP2 DUP2 ADD SWAP1 SWAP3 MSTORE SWAP3 SWAP6 SWAP5 SWAP4 DUP2 DUP2 ADD SWAP4 SWAP3 POP SWAP1 PUSH1 0x16 SWAP1 DUP4 SWAP1 DUP4 SWAP1 DUP1 DUP3 DUP5 CALLDATACOPY PUSH1 0x0 SWAP3 ADD SWAP2 SWAP1 SWAP2 MSTORE POP SWAP2 SWAP5 POP PUSH2 0x141 SWAP4 POP POP POP POP JUMP JUMPDEST PUSH1 0x40 DUP1 MLOAD SWAP2 ISZERO ISZERO DUP3 MSTORE MLOAD SWAP1 DUP2 SWAP1 SUB PUSH1 0x20 ADD SWAP1 RETURN JUMPDEST PUSH1 0x0 PUSH2 0x14B PUSH2 0x168C JUMP JUMPDEST PUSH1 0x40 DUP1 MLOAD DUP1 DUP3 ADD DUP3 MSTORE DUP8 MLOAD DUP2 MSTORE PUSH1 0x20 DUP1 DUP10 ADD MLOAD DUP2 DUP4 ADD MSTORE SWAP1 DUP4 MSTORE DUP2 MLOAD PUSH1 0x80 DUP2 ADD DUP4 MSTORE DUP8 MLOAD MLOAD DUP2 DUP5 ADD SWAP1 DUP2 MSTORE DUP9 MLOAD DUP4 ADD MLOAD PUSH1 0x60 DUP1 DUP5 ADD SWAP2 SWAP1 SWAP2 MSTORE SWAP1 DUP3 MSTORE DUP4 MLOAD DUP1 DUP6 ADD DUP6 MSTORE DUP10 DUP5 ADD DUP1 MLOAD MLOAD DUP3 MSTORE MLOAD DUP5 ADD MLOAD DUP2 DUP6 ADD MSTORE DUP3 DUP5 ADD MSTORE DUP5 DUP4 ADD SWAP2 SWAP1 SWAP2 MSTORE DUP3 MLOAD DUP1 DUP5 ADD DUP5 MSTORE DUP8 MLOAD DUP2 MSTORE DUP8 DUP4 ADD MLOAD DUP2 DUP5 ADD MSTORE DUP5 DUP5 ADD MSTORE DUP3 MLOAD PUSH1 0x16 DUP1 DUP3 MSTORE PUSH2 0x2E0 DUP3 ADD SWAP1 SWAP5 MSTORE SWAP1 SWAP3 SWAP1 SWAP2 DUP3 ADD PUSH2 0x2C0 DUP1 CALLDATASIZE DUP4 CALLDATACOPY ADD SWAP1 POP POP SWAP1 POP PUSH1 0x0 JUMPDEST PUSH1 0x16 DUP2 LT ISZERO PUSH2 0x21E JUMPI DUP5 DUP2 PUSH1 0x16 DUP2 LT PUSH2 0x1FA JUMPI INVALID JUMPDEST PUSH1 0x20 MUL ADD MLOAD DUP3 DUP3 DUP2 MLOAD DUP2 LT PUSH2 0x20B JUMPI INVALID JUMPDEST PUSH1 0x20 SWAP1 DUP2 MUL SWAP2 SWAP1 SWAP2 ADD ADD MSTORE PUSH1 0x1 ADD PUSH2 0x1E5 JUMP JUMPDEST POP PUSH2 0x229 DUP2 DUP4 PUSH2 0x247 JUMP JUMPDEST PUSH2 0x238 JUMPI PUSH1 0x1 SWAP3 POP POP POP PUSH2 0x23F JUMP JUMPDEST PUSH1 0x0 SWAP3 POP POP POP JUMPDEST SWAP5 SWAP4 POP POP POP POP JUMP JUMPDEST PUSH1 0x0 PUSH32 0x30644E72E131A029B85045B68181585D2833E84879B9709143E1F593F0000001 PUSH2 0x272 PUSH2 0x16BE JUMP JUMPDEST PUSH2 0x27A PUSH2 0x423 JUMP JUMPDEST SWAP1 POP DUP1 PUSH1 0x80 ADD MLOAD MLOAD DUP6 MLOAD PUSH1 0x1 ADD EQ PUSH2 0x2CE JUMPI PUSH1 0x40 DUP1 MLOAD PUSH3 0x461BCD PUSH1 0xE5 SHL DUP2 MSTORE PUSH1 0x20 PUSH1 0x4 DUP3 ADD MSTORE PUSH1 0x12 PUSH1 0x24 DUP3 ADD MSTORE PUSH18 0x1D995C9A599A595C8B5898590B5A5B9C1D5D PUSH1 0x72 SHL PUSH1 0x44 DUP3 ADD MSTORE SWAP1 MLOAD SWAP1 DUP2 SWAP1 SUB PUSH1 0x64 ADD SWAP1 REVERT JUMPDEST PUSH2 0x2D6 PUSH2 0x1705 JUMP JUMPDEST PUSH1 0x40 MLOAD DUP1 PUSH1 0x40 ADD PUSH1 0x40 MSTORE DUP1 PUSH1 0x0 DUP2 MSTORE PUSH1 0x20 ADD PUSH1 0x0 DUP2 MSTORE POP SWAP1 POP PUSH1 0x0 JUMPDEST DUP7 MLOAD DUP2 LT ISZERO PUSH2 0x3AC JUMPI DUP4 DUP8 DUP3 DUP2 MLOAD DUP2 LT PUSH2 0x308 JUMPI INVALID JUMPDEST PUSH1 0x20 MUL PUSH1 0x20 ADD ADD MLOAD LT PUSH2 0x362 JUMPI PUSH1 0x40 DUP1 MLOAD PUSH3 0x461BCD PUSH1 0xE5 SHL DUP2 MSTORE PUSH1 0x20 PUSH1 0x4 DUP3 ADD MSTORE PUSH1 0x1F PUSH1 0x24 DUP3 ADD MSTORE PUSH32 0x76657269666965722D6774652D736E61726B2D7363616C61722D6669656C6400 PUSH1 0x44 DUP3 ADD MSTORE SWAP1 MLOAD SWAP1 DUP2 SWAP1 SUB PUSH1 0x64 ADD SWAP1 REVERT JUMPDEST PUSH2 0x3A2 DUP3 PUSH2 0x39D DUP6 PUSH1 0x80 ADD MLOAD DUP5 PUSH1 0x1 ADD DUP2 MLOAD DUP2 LT PUSH2 0x37C JUMPI INVALID JUMPDEST PUSH1 0x20 MUL PUSH1 0x20 ADD ADD MLOAD DUP11 DUP6 DUP2 MLOAD DUP2 LT PUSH2 0x390 JUMPI INVALID JUMPDEST PUSH1 0x20 MUL PUSH1 0x20 ADD ADD MLOAD PUSH2 0x10EB JUMP JUMPDEST PUSH2 0x1180 JUMP JUMPDEST SWAP2 POP PUSH1 0x1 ADD PUSH2 0x2F2 JUMP JUMPDEST POP PUSH2 0x3CF DUP2 DUP4 PUSH1 0x80 ADD MLOAD PUSH1 0x0 DUP2 MLOAD DUP2 LT PUSH2 0x3C2 JUMPI INVALID JUMPDEST PUSH1 0x20 MUL PUSH1 0x20 ADD ADD MLOAD PUSH2 0x1180 JUMP JUMPDEST SWAP1 POP PUSH2 0x405 PUSH2 0x3E1 DUP7 PUSH1 0x0 ADD MLOAD PUSH2 0x1211 JUMP JUMPDEST DUP7 PUSH1 0x20 ADD MLOAD DUP5 PUSH1 0x0 ADD MLOAD DUP6 PUSH1 0x20 ADD MLOAD DUP6 DUP8 PUSH1 0x40 ADD MLOAD DUP12 PUSH1 0x40 ADD MLOAD DUP10 PUSH1 0x60 ADD MLOAD PUSH2 0x129D JUMP JUMPDEST PUSH2 0x415 JUMPI PUSH1 0x1 SWAP4 POP POP POP POP PUSH2 0x41D JUMP JUMPDEST PUSH1 0x0 SWAP4 POP POP POP POP JUMPDEST SWAP3 SWAP2 POP POP JUMP JUMPDEST PUSH2 0x42B PUSH2 0x16BE JUMP JUMPDEST PUSH1 0x40 DUP1 MLOAD DUP1 DUP3 ADD DUP3 MSTORE PUSH32 0x2D4D9AA7E302D9DF41749D5507949D05DBEA33FBB16C643B22F599A2BE6DF2E2 DUP2 MSTORE PUSH32 0x14BEDD503C37CEB061D8EC60209FE345CE89830A19230301F076CAFF004D1926 PUSH1 0x20 DUP1 DUP4 ADD SWAP2 SWAP1 SWAP2 MSTORE SWAP1 DUP4 MSTORE DUP2 MLOAD PUSH1 0x80 DUP1 DUP3 ADD DUP5 MSTORE PUSH32 0x967032FCBF776D1AFC985F88877F182D38480A653F2DECAA9794CBC3BF3060C DUP3 DUP6 ADD SWAP1 DUP2 MSTORE PUSH32 0xE187847AD4C798374D0D6732BF501847DD68BC0E071241E0213BC7FC13DB7AB PUSH1 0x60 DUP1 DUP6 ADD SWAP2 SWAP1 SWAP2 MSTORE SWAP1 DUP4 MSTORE DUP5 MLOAD DUP1 DUP7 ADD DUP7 MSTORE PUSH32 0x304CFBD1E08A704A99F5E847D93F8C3CAAFDDEC46B7A0D379DA69A4D112346A7 DUP2 MSTORE PUSH32 0x1739C1B1A457A8C7313123D24D2F9192F896B7C63EEA05A9D57F06547AD0CEC8 DUP2 DUP7 ADD MSTORE DUP4 DUP6 ADD MSTORE DUP6 DUP5 ADD SWAP3 SWAP1 SWAP3 MSTORE DUP4 MLOAD DUP1 DUP3 ADD DUP6 MSTORE PUSH32 0x198E9393920D483A7260BFB731FB5D25F1AA493335A9E71297E485B7AEF312C2 DUP2 DUP7 ADD SWAP1 DUP2 MSTORE PUSH32 0x1800DEEF121F1E76426A00665E5C4479674322D4F75EDADD46DEBD5CD992F6ED DUP3 DUP6 ADD MSTORE DUP2 MSTORE DUP5 MLOAD DUP1 DUP7 ADD DUP7 MSTORE PUSH32 0x90689D0585FF075EC9E99AD690C3395BC4B313370B38EF355ACDADCD122975B DUP2 MSTORE PUSH32 0x12C85EA5DB8C6DEB4AAB71808DCB408FE3D1E7690C43D37B4CE6CC0166FA7DAA DUP2 DUP7 ADD MSTORE DUP2 DUP6 ADD MSTORE DUP6 DUP6 ADD MSTORE DUP4 MLOAD SWAP1 DUP2 ADD DUP5 MSTORE PUSH32 0x17DA196B227F10FFB26D7C432DB6BC1D1EB9535EC1D4B57EEAF4EC0CA151E072 DUP2 DUP6 ADD SWAP1 DUP2 MSTORE PUSH32 0x7AC23EBD208E26F5114D8EE492AC88636C06D3712D61D20DFD9A5C3E879B5ED DUP3 DUP5 ADD MSTORE DUP2 MSTORE DUP4 MLOAD DUP1 DUP6 ADD DUP6 MSTORE PUSH32 0x26395A14310A204ACF0283DCACB1DEB0F54203F13B9CFB32853FF15072C4319 DUP2 MSTORE PUSH32 0x152121077F34338FD363BFA966EBAF221357C763F995BFE9C4F961BB386F90B0 DUP2 DUP6 ADD MSTORE DUP2 DUP5 ADD MSTORE SWAP1 DUP5 ADD MSTORE DUP2 MLOAD PUSH1 0x17 DUP1 DUP3 MSTORE PUSH2 0x300 DUP3 ADD SWAP1 SWAP4 MSTORE SWAP2 SWAP1 DUP3 ADD JUMPDEST PUSH2 0x6AF PUSH2 0x1705 JUMP JUMPDEST DUP2 MSTORE PUSH1 0x20 ADD SWAP1 PUSH1 0x1 SWAP1 SUB SWAP1 DUP2 PUSH2 0x6A7 JUMPI POP POP PUSH1 0x80 DUP3 ADD SWAP1 DUP2 MSTORE PUSH1 0x40 DUP1 MLOAD DUP1 DUP3 ADD SWAP1 SWAP2 MSTORE PUSH32 0x1D65AFC1F7DFC2216AFE4157AC42F2CE163F1E1A0FDC37D65DB3B5F708540CB DUP2 MSTORE PUSH32 0x199093255CE5E39E9EECD6A493BA10BC4320ADEFEB495B336F57EF03B881AF3 PUSH1 0x20 DUP3 ADD MSTORE SWAP1 MLOAD DUP1 MLOAD PUSH1 0x0 SWAP1 PUSH2 0x728 JUMPI INVALID JUMPDEST PUSH1 0x20 MUL PUSH1 0x20 ADD ADD DUP2 SWAP1 MSTORE POP PUSH1 0x40 MLOAD DUP1 PUSH1 0x40 ADD PUSH1 0x40 MSTORE DUP1 PUSH32 0x209828EA6BBFC32E1E4315093F47A3C5D57EDCF731E93E749411855A8D0B082 DUP2 MSTORE PUSH1 0x20 ADD PUSH32 0x143597BDA533D7987144CE219E33DA1FE15E74D1DE6DB6B4EC1A758BF138D4B2 DUP2 MSTORE POP DUP2 PUSH1 0x80 ADD MLOAD PUSH1 0x1 DUP2 MLOAD DUP2 LT PUSH2 0x799 JUMPI INVALID JUMPDEST PUSH1 0x20 MUL PUSH1 0x20 ADD ADD DUP2 SWAP1 MSTORE POP PUSH1 0x40 MLOAD DUP1 PUSH1 0x40 ADD PUSH1 0x40 MSTORE DUP1 PUSH32 0x1F1D15C4A8526A19312294783F8CBC62E6F8A93612F480AE289149FA13C923C8 DUP2 MSTORE PUSH1 0x20 ADD PUSH32 0x240BE07043AC806481D70B5904C9CF671B2E9639A7E36B95F1A37C5E45DE617 DUP2 MSTORE POP DUP2 PUSH1 0x80 ADD MLOAD PUSH1 0x2 DUP2 MLOAD DUP2 LT PUSH2 0x80A JUMPI INVALID JUMPDEST PUSH1 0x20 MUL PUSH1 0x20 ADD ADD DUP2 SWAP1 MSTORE POP PUSH1 0x40 MLOAD DUP1 PUSH1 0x40 ADD PUSH1 0x40 MSTORE DUP1 PUSH32 0x2B2FED80081D36FBC0B1560D35C5B0655890CE22C95B41DD8ADB4D975C7324CB DUP2 MSTORE PUSH1 0x20 ADD PUSH32 0x1125192D479C6206821A9AAD7A8A43D07126383D43259F4264782761D7DF00DF DUP2 MSTORE POP DUP2 PUSH1 0x80 ADD MLOAD PUSH1 0x3 DUP2 MLOAD DUP2 LT PUSH2 0x87B JUMPI INVALID JUMPDEST PUSH1 0x20 MUL PUSH1 0x20 ADD ADD DUP2 SWAP1 MSTORE POP PUSH1 0x40 MLOAD DUP1 PUSH1 0x40 ADD PUSH1 0x40 MSTORE DUP1 PUSH32 0x3E80179EFA347A277966CB78897B524236AC8E5EC70236596B0F5D46A15F9B1 DUP2 MSTORE PUSH1 0x20 ADD PUSH32 0xAC293F3CD77CD5B12B28A82BCEAC67D8ADEC9013DA9D86BB0BB4FDDBF4F24DC DUP2 MSTORE POP DUP2 PUSH1 0x80 ADD MLOAD PUSH1 0x4 DUP2 MLOAD DUP2 LT PUSH2 0x8EC JUMPI INVALID JUMPDEST PUSH1 0x20 MUL PUSH1 0x20 ADD ADD DUP2 SWAP1 MSTORE POP PUSH1 0x40 MLOAD DUP1 PUSH1 0x40 ADD PUSH1 0x40 MSTORE DUP1 PUSH32 0x1CAA7D991F69EE5F95E6030E4EC7A85A3DC0FB1C0C6CE3B3B4ADF75050B49523 DUP2 MSTORE PUSH1 0x20 ADD PUSH32 0x2688E4F166F6030A4582FC8EB2ADAB65749DF52673DD7F11616A8C0FB8EF26B2 DUP2 MSTORE POP DUP2 PUSH1 0x80 ADD MLOAD PUSH1 0x5 DUP2 MLOAD DUP2 LT PUSH2 0x95D JUMPI INVALID JUMPDEST PUSH1 0x20 MUL PUSH1 0x20 ADD ADD DUP2 SWAP1 MSTORE POP PUSH1 0x40 MLOAD DUP1 PUSH1 0x40 ADD PUSH1 0x40 MSTORE DUP1 PUSH32 0x1F7BCD82FC0AE03C7322D631BE1823AF5146BBCB96308085B87919743CAE9E04 DUP2 MSTORE PUSH1 0x20 ADD PUSH32 0xCA41FD659B7167EE355F5DEF3065A476304940F91A788838808F1C878A81FC8 DUP2 MSTORE POP DUP2 PUSH1 0x80 ADD MLOAD PUSH1 0x6 DUP2 MLOAD DUP2 LT PUSH2 0x9CE JUMPI INVALID JUMPDEST PUSH1 0x20 MUL PUSH1 0x20 ADD ADD DUP2 SWAP1 MSTORE POP PUSH1 0x40 MLOAD DUP1 PUSH1 0x40 ADD PUSH1 0x40 MSTORE DUP1 PUSH32 0x2DEAA7F4161F773EDA64B90037DDDAE2250BC6A3BE991092A612EAE7CD5201FE DUP2 MSTORE PUSH1 0x20 ADD PUSH32 0x8DBB8D965289F52740AD7D6A23414F2EADC0FFAA68197DA3C56C3E4594F5F80 DUP2 MSTORE POP DUP2 PUSH1 0x80 ADD MLOAD PUSH1 0x7 DUP2 MLOAD DUP2 LT PUSH2 0xA3F JUMPI INVALID JUMPDEST PUSH1 0x20 MUL PUSH1 0x20 ADD ADD DUP2 SWAP1 MSTORE POP PUSH1 0x40 MLOAD DUP1 PUSH1 0x40 ADD PUSH1 0x40 MSTORE DUP1 PUSH32 0x27D94F50E42F9D04BB7F062FA877726831B9198E1E970F054DF0873A139D4F08 DUP2 MSTORE PUSH1 0x20 ADD PUSH32 0x4CB85F1CFE06274CF63FFC4E77F28C7F694A3B7614E1F181AF3550354EBB88B DUP2 MSTORE POP DUP2 PUSH1 0x80 ADD MLOAD PUSH1 0x8 DUP2 MLOAD DUP2 LT PUSH2 0xAB0 JUMPI INVALID JUMPDEST PUSH1 0x20 MUL PUSH1 0x20 ADD ADD DUP2 SWAP1 MSTORE POP PUSH1 0x40 MLOAD DUP1 PUSH1 0x40 ADD PUSH1 0x40 MSTORE DUP1 PUSH32 0x2094F03A4DC4024F91A60B00C9A8DE22D0557D2BA9E5D3179C446BE5F91AE5A3 DUP2 MSTORE PUSH1 0x20 ADD PUSH32 0xAA862125CF26FE30A5B734B3C26603BCB4F43C65F12316BB3F5199F5D1C14E6 DUP2 MSTORE POP DUP2 PUSH1 0x80 ADD MLOAD PUSH1 0x9 DUP2 MLOAD DUP2 LT PUSH2 0xB21 JUMPI INVALID JUMPDEST PUSH1 0x20 MUL PUSH1 0x20 ADD ADD DUP2 SWAP1 MSTORE POP PUSH1 0x40 MLOAD DUP1 PUSH1 0x40 ADD PUSH1 0x40 MSTORE DUP1 PUSH32 0x116269BF72B7478A2040CB8C86F68DDD1ECA36614C049F86B3D6427D5CF4428F DUP2 MSTORE PUSH1 0x20 ADD PUSH32 0x24EEFF79FAC4FC7CC15A532A530DB38C36947269413D6D2DF0C3535C7D221DE0 DUP2 MSTORE POP DUP2 PUSH1 0x80 ADD MLOAD PUSH1 0xA DUP2 MLOAD DUP2 LT PUSH2 0xB92 JUMPI INVALID JUMPDEST PUSH1 0x20 MUL PUSH1 0x20 ADD ADD DUP2 SWAP1 MSTORE POP PUSH1 0x40 MLOAD DUP1 PUSH1 0x40 ADD PUSH1 0x40 MSTORE DUP1 PUSH32 0x22371BA1BFA8D76AB0C78999BFE82F4DDB251F1E19316F39CB3199892D85B545 DUP2 MSTORE PUSH1 0x20 ADD PUSH32 0xED143A57C2818D9E60511D827A2BDD350A7EB72CDAA466B2DAADBE556B4E8DE DUP2 MSTORE POP DUP2 PUSH1 0x80 ADD MLOAD PUSH1 0xB DUP2 MLOAD DUP2 LT PUSH2 0xC03 JUMPI INVALID JUMPDEST PUSH1 0x20 MUL PUSH1 0x20 ADD ADD DUP2 SWAP1 MSTORE POP PUSH1 0x40 MLOAD DUP1 PUSH1 0x40 ADD PUSH1 0x40 MSTORE DUP1 PUSH32 0x2D7C440AFFC707B38DAF9738AD3C3502F13A280A157F7E6D677A93850806748 DUP2 MSTORE PUSH1 0x20 ADD PUSH32 0x1A27140EC6C0F27EC2BF8040B05854B044516DFFBA1C726A3A0A4BA376486930 DUP2 MSTORE POP DUP2 PUSH1 0x80 ADD MLOAD PUSH1 0xC DUP2 MLOAD DUP2 LT PUSH2 0xC74 JUMPI INVALID JUMPDEST PUSH1 0x20 MUL PUSH1 0x20 ADD ADD DUP2 SWAP1 MSTORE POP PUSH1 0x40 MLOAD DUP1 PUSH1 0x40 ADD PUSH1 0x40 MSTORE DUP1 PUSH32 0x1F5F6E666AB7687FBDE00E979B1EDD2CE0E421E0DD57EAD65DF99D48A9957BAD DUP2 MSTORE PUSH1 0x20 ADD PUSH32 0x17271CDA39D02A2444110C83D2170368E0C179BD5AE443826CE5C08A270CDDBA DUP2 MSTORE POP DUP2 PUSH1 0x80 ADD MLOAD PUSH1 0xD DUP2 MLOAD DUP2 LT PUSH2 0xCE5 JUMPI INVALID JUMPDEST PUSH1 0x20 MUL PUSH1 0x20 ADD ADD DUP2 SWAP1 MSTORE POP PUSH1 0x40 MLOAD DUP1 PUSH1 0x40 ADD PUSH1 0x40 MSTORE DUP1 PUSH31 0x37B5454A2FEB0CC4C4A5A4333F25E5FAD0F88A9913E91A16CA7F9CB43B94FC DUP2 MSTORE PUSH1 0x20 ADD PUSH32 0x28DD9688E52F8A6385E47CB2591C4DD23845DCBE863C8E313D531D96BD10F537 DUP2 MSTORE POP DUP2 PUSH1 0x80 ADD MLOAD PUSH1 0xE DUP2 MLOAD DUP2 LT PUSH2 0xD55 JUMPI INVALID JUMPDEST PUSH1 0x20 MUL PUSH1 0x20 ADD ADD DUP2 SWAP1 MSTORE POP PUSH1 0x40 MLOAD DUP1 PUSH1 0x40 ADD PUSH1 0x40 MSTORE DUP1 PUSH32 0x2C4CE96151F5449C93E87B4E41F22AAAE20FD1977AF863038D6A2537A0052212 DUP2 MSTORE PUSH1 0x20 ADD PUSH32 0x226A0F0532C6002AAC62231F88612B0B7ECEEA0268165548B8A73D656EE44F35 DUP2 MSTORE POP DUP2 PUSH1 0x80 ADD MLOAD PUSH1 0xF DUP2 MLOAD DUP2 LT PUSH2 0xDC6 JUMPI INVALID JUMPDEST PUSH1 0x20 MUL PUSH1 0x20 ADD ADD DUP2 SWAP1 MSTORE POP PUSH1 0x40 MLOAD DUP1 PUSH1 0x40 ADD PUSH1 0x40 MSTORE DUP1 PUSH32 0x5C74F5CF4D8529801B86C32B9A17BDC29AB8A4BEB545C004CC12A390E21D290 DUP2 MSTORE PUSH1 0x20 ADD PUSH32 0xAA547C27851D9104247C34F404AEFDCDA363F0A611D6373AF3A5BF5F47AD1DE DUP2 MSTORE POP DUP2 PUSH1 0x80 ADD MLOAD PUSH1 0x10 DUP2 MLOAD DUP2 LT PUSH2 0xE37 JUMPI INVALID JUMPDEST PUSH1 0x20 MUL PUSH1 0x20 ADD ADD DUP2 SWAP1 MSTORE POP PUSH1 0x40 MLOAD DUP1 PUSH1 0x40 ADD PUSH1 0x40 MSTORE DUP1 PUSH32 0x41142A375A7CCC215CAFE44BC8F477B4357CC1CBF49CE3825E7C0058399F97A DUP2 MSTORE PUSH1 0x20 ADD PUSH32 0x2C2B0D99A7ABF312C1AAD5C7A8F8BC06EF398EBDCFECD61C7DD243CAD10D0519 DUP2 MSTORE POP DUP2 PUSH1 0x80 ADD MLOAD PUSH1 0x11 DUP2 MLOAD DUP2 LT PUSH2 0xEA8 JUMPI INVALID JUMPDEST PUSH1 0x20 MUL PUSH1 0x20 ADD ADD DUP2 SWAP1 MSTORE POP PUSH1 0x40 MLOAD DUP1 PUSH1 0x40 ADD PUSH1 0x40 MSTORE DUP1 PUSH32 0x1EBD0549B4B19A7681E3E130109D637D46A0B7C66133B22C97E8E9BF6189E914 DUP2 MSTORE PUSH1 0x20 ADD PUSH32 0x288FBDB0EDB3CBC6C2ACA3303506409D47AC63F592E5CDD71E0A8121463584C0 DUP2 MSTORE POP DUP2 PUSH1 0x80 ADD MLOAD PUSH1 0x12 DUP2 MLOAD DUP2 LT PUSH2 0xF19 JUMPI INVALID JUMPDEST PUSH1 0x20 MUL PUSH1 0x20 ADD ADD DUP2 SWAP1 MSTORE POP PUSH1 0x40 MLOAD DUP1 PUSH1 0x40 ADD PUSH1 0x40 MSTORE DUP1 PUSH32 0x27CF920136671D2B28E2DC42C25FA47046955E245D9B42B12C6052E041205560 DUP2 MSTORE PUSH1 0x20 ADD PUSH32 0x1ACCC993B660AE79155499602DB709ACC4D780102E4B7354A026A275677D0C3C DUP2 MSTORE POP DUP2 PUSH1 0x80 ADD MLOAD PUSH1 0x13 DUP2 MLOAD DUP2 LT PUSH2 0xF8A JUMPI INVALID JUMPDEST PUSH1 0x20 MUL PUSH1 0x20 ADD ADD DUP2 SWAP1 MSTORE POP PUSH1 0x40 MLOAD DUP1 PUSH1 0x40 ADD PUSH1 0x40 MSTORE DUP1 PUSH32 0x2730DBE6C4ABCFC3FE0AE60EAE3F14604101478CE69805B17346A47CEEB5D075 DUP2 MSTORE PUSH1 0x20 ADD PUSH32 0x74C449B56145EE167D4EE3BB6E197C0367EEEE0DA88F280BAFA14F76220177A DUP2 MSTORE POP DUP2 PUSH1 0x80 ADD MLOAD PUSH1 0x14 DUP2 MLOAD DUP2 LT PUSH2 0xFFB JUMPI INVALID JUMPDEST PUSH1 0x20 MUL PUSH1 0x20 ADD ADD DUP2 SWAP1 MSTORE POP PUSH1 0x40 MLOAD DUP1 PUSH1 0x40 ADD PUSH1 0x40 MSTORE DUP1 PUSH32 0x1F8F998E6E346B04768B3997B1E911F5A06FD2CBFA1353C7B5A4D1BF9A55536D DUP2 MSTORE PUSH1 0x20 ADD PUSH32 0x206A2B4CA98F41F303AF113A6C8F68588F8B28E5EADC9F9CEC10ACA58842FE00 DUP2 MSTORE POP DUP2 PUSH1 0x80 ADD MLOAD PUSH1 0x15 DUP2 MLOAD DUP2 LT PUSH2 0x106C JUMPI INVALID JUMPDEST PUSH1 0x20 MUL PUSH1 0x20 ADD ADD DUP2 SWAP1 MSTORE POP PUSH1 0x40 MLOAD DUP1 PUSH1 0x40 ADD PUSH1 0x40 MSTORE DUP1 PUSH32 0x1A744B7940A476C71DBCCB03B4AF15020A5A5303597C6D4471F7C008890EB917 DUP2 MSTORE PUSH1 0x20 ADD PUSH32 0x300C58120538F5004F7B5B296FDFB650067A01B86058588E6E13AC0718C4E1E0 DUP2 MSTORE POP DUP2 PUSH1 0x80 ADD MLOAD PUSH1 0x16 DUP2 MLOAD DUP2 LT PUSH2 0x10DD JUMPI INVALID JUMPDEST PUSH1 0x20 MUL PUSH1 0x20 ADD ADD DUP2 SWAP1 MSTORE POP SWAP1 JUMP JUMPDEST PUSH2 0x10F3 PUSH2 0x1705 JUMP JUMPDEST PUSH2 0x10FB PUSH2 0x171F JUMP JUMPDEST DUP4 MLOAD DUP2 MSTORE PUSH1 0x20 DUP1 DUP6 ADD MLOAD SWAP1 DUP3 ADD MSTORE PUSH1 0x40 DUP2 ADD DUP4 SWAP1 MSTORE PUSH1 0x0 PUSH1 0x60 DUP4 PUSH1 0x80 DUP5 PUSH1 0x7 PUSH2 0x7D0 GAS SUB STATICCALL SWAP1 POP DUP1 DUP1 ISZERO PUSH2 0x112E JUMPI PUSH2 0x1130 JUMP JUMPDEST INVALID JUMPDEST POP DUP1 PUSH2 0x1178 JUMPI PUSH1 0x40 DUP1 MLOAD PUSH3 0x461BCD PUSH1 0xE5 SHL DUP2 MSTORE PUSH1 0x20 PUSH1 0x4 DUP3 ADD MSTORE PUSH1 0x12 PUSH1 0x24 DUP3 ADD MSTORE PUSH18 0x1C185A5C9A5B99CB5B5D5B0B59985A5B1959 PUSH1 0x72 SHL PUSH1 0x44 DUP3 ADD MSTORE SWAP1 MLOAD SWAP1 DUP2 SWAP1 SUB PUSH1 0x64 ADD SWAP1 REVERT JUMPDEST POP POP SWAP3 SWAP2 POP POP JUMP JUMPDEST PUSH2 0x1188 PUSH2 0x1705 JUMP JUMPDEST PUSH2 0x1190 PUSH2 0x173D JUMP JUMPDEST DUP4 MLOAD DUP2 MSTORE PUSH1 0x20 DUP1 DUP6 ADD MLOAD DUP2 DUP4 ADD MSTORE DUP4 MLOAD PUSH1 0x40 DUP4 ADD MSTORE DUP4 ADD MLOAD PUSH1 0x60 DUP1 DUP4 ADD SWAP2 SWAP1 SWAP2 MSTORE PUSH1 0x0 SWAP1 DUP4 PUSH1 0xC0 DUP5 PUSH1 0x6 PUSH2 0x7D0 GAS SUB STATICCALL SWAP1 POP DUP1 DUP1 ISZERO PUSH2 0x112E JUMPI POP DUP1 PUSH2 0x1178 JUMPI PUSH1 0x40 DUP1 MLOAD PUSH3 0x461BCD PUSH1 0xE5 SHL DUP2 MSTORE PUSH1 0x20 PUSH1 0x4 DUP3 ADD MSTORE PUSH1 0x12 PUSH1 0x24 DUP3 ADD MSTORE PUSH18 0x1C185A5C9A5B99CB5859190B59985A5B1959 PUSH1 0x72 SHL PUSH1 0x44 DUP3 ADD MSTORE SWAP1 MLOAD SWAP1 DUP2 SWAP1 SUB PUSH1 0x64 ADD SWAP1 REVERT JUMPDEST PUSH2 0x1219 PUSH2 0x1705 JUMP JUMPDEST DUP2 MLOAD PUSH32 0x30644E72E131A029B85045B68181585D97816A916871CA8D3C208C16D87CFD47 SWAP1 ISZERO DUP1 ISZERO PUSH2 0x124C JUMPI POP PUSH1 0x20 DUP4 ADD MLOAD ISZERO JUMPDEST ISZERO PUSH2 0x126C JUMPI POP POP PUSH1 0x40 DUP1 MLOAD DUP1 DUP3 ADD SWAP1 SWAP2 MSTORE PUSH1 0x0 DUP1 DUP3 MSTORE PUSH1 0x20 DUP3 ADD MSTORE PUSH2 0x1298 JUMP JUMPDEST PUSH1 0x40 MLOAD DUP1 PUSH1 0x40 ADD PUSH1 0x40 MSTORE DUP1 DUP5 PUSH1 0x0 ADD MLOAD DUP2 MSTORE PUSH1 0x20 ADD DUP3 DUP6 PUSH1 0x20 ADD MLOAD DUP2 PUSH2 0x128E JUMPI INVALID JUMPDEST MOD DUP4 SUB DUP2 MSTORE POP SWAP2 POP POP JUMPDEST SWAP2 SWAP1 POP JUMP JUMPDEST PUSH1 0x40 DUP1 MLOAD PUSH1 0x4 DUP1 DUP3 MSTORE PUSH1 0xA0 DUP3 ADD SWAP1 SWAP3 MSTORE PUSH1 0x0 SWAP2 PUSH1 0x60 SWAP2 SWAP1 DUP2 PUSH1 0x20 ADD JUMPDEST PUSH2 0x12C1 PUSH2 0x1705 JUMP JUMPDEST DUP2 MSTORE PUSH1 0x20 ADD SWAP1 PUSH1 0x1 SWAP1 SUB SWAP1 DUP2 PUSH2 0x12B9 JUMPI POP POP PUSH1 0x40 DUP1 MLOAD PUSH1 0x4 DUP1 DUP3 MSTORE PUSH1 0xA0 DUP3 ADD SWAP1 SWAP3 MSTORE SWAP2 SWAP3 POP PUSH1 0x60 SWAP2 SWAP1 PUSH1 0x20 DUP3 ADD JUMPDEST PUSH2 0x12F7 PUSH2 0x175B JUMP JUMPDEST DUP2 MSTORE PUSH1 0x20 ADD SWAP1 PUSH1 0x1 SWAP1 SUB SWAP1 DUP2 PUSH2 0x12EF JUMPI SWAP1 POP POP SWAP1 POP DUP11 DUP3 PUSH1 0x0 DUP2 MLOAD DUP2 LT PUSH2 0x131A JUMPI INVALID JUMPDEST PUSH1 0x20 MUL PUSH1 0x20 ADD ADD DUP2 SWAP1 MSTORE POP DUP9 DUP3 PUSH1 0x1 DUP2 MLOAD DUP2 LT PUSH2 0x1333 JUMPI INVALID JUMPDEST PUSH1 0x20 MUL PUSH1 0x20 ADD ADD DUP2 SWAP1 MSTORE POP DUP7 DUP3 PUSH1 0x2 DUP2 MLOAD DUP2 LT PUSH2 0x134C JUMPI INVALID JUMPDEST PUSH1 0x20 MUL PUSH1 0x20 ADD ADD DUP2 SWAP1 MSTORE POP DUP5 DUP3 PUSH1 0x3 DUP2 MLOAD DUP2 LT PUSH2 0x1365 JUMPI INVALID JUMPDEST PUSH1 0x20 MUL PUSH1 0x20 ADD ADD DUP2 SWAP1 MSTORE POP DUP10 DUP2 PUSH1 0x0 DUP2 MLOAD DUP2 LT PUSH2 0x137E JUMPI INVALID JUMPDEST PUSH1 0x20 MUL PUSH1 0x20 ADD ADD DUP2 SWAP1 MSTORE POP DUP8 DUP2 PUSH1 0x1 DUP2 MLOAD DUP2 LT PUSH2 0x1397 JUMPI INVALID JUMPDEST PUSH1 0x20 MUL PUSH1 0x20 ADD ADD DUP2 SWAP1 MSTORE POP DUP6 DUP2 PUSH1 0x2 DUP2 MLOAD DUP2 LT PUSH2 0x13B0 JUMPI INVALID JUMPDEST PUSH1 0x20 MUL PUSH1 0x20 ADD ADD DUP2 SWAP1 MSTORE POP DUP4 DUP2 PUSH1 0x3 DUP2 MLOAD DUP2 LT PUSH2 0x13C9 JUMPI INVALID JUMPDEST PUSH1 0x20 MUL PUSH1 0x20 ADD ADD DUP2 SWAP1 MSTORE POP PUSH2 0x13DE DUP3 DUP3 PUSH2 0x13ED JUMP JUMPDEST SWAP12 SWAP11 POP POP POP POP POP POP POP POP POP POP POP JUMP JUMPDEST PUSH1 0x0 DUP2 MLOAD DUP4 MLOAD EQ PUSH2 0x143E JUMPI PUSH1 0x40 DUP1 MLOAD PUSH3 0x461BCD PUSH1 0xE5 SHL DUP2 MSTORE PUSH1 0x20 PUSH1 0x4 DUP3 ADD MSTORE PUSH1 0x16 PUSH1 0x24 DUP3 ADD MSTORE PUSH22 0x1C185A5C9A5B99CB5B195B99DD1A1CCB59985A5B1959 PUSH1 0x52 SHL PUSH1 0x44 DUP3 ADD MSTORE SWAP1 MLOAD SWAP1 DUP2 SWAP1 SUB PUSH1 0x64 ADD SWAP1 REVERT JUMPDEST DUP3 MLOAD PUSH1 0x6 DUP2 MUL PUSH1 0x60 DUP2 PUSH8 0xFFFFFFFFFFFFFFFF DUP2 GT DUP1 ISZERO PUSH2 0x145D JUMPI PUSH1 0x0 DUP1 REVERT JUMPDEST POP PUSH1 0x40 MLOAD SWAP1 DUP1 DUP3 MSTORE DUP1 PUSH1 0x20 MUL PUSH1 0x20 ADD DUP3 ADD PUSH1 0x40 MSTORE DUP1 ISZERO PUSH2 0x1487 JUMPI DUP2 PUSH1 0x20 ADD PUSH1 0x20 DUP3 MUL DUP1 CALLDATASIZE DUP4 CALLDATACOPY ADD SWAP1 POP JUMPDEST POP SWAP1 POP PUSH1 0x0 JUMPDEST DUP4 DUP2 LT ISZERO PUSH2 0x160C JUMPI DUP7 DUP2 DUP2 MLOAD DUP2 LT PUSH2 0x14A1 JUMPI INVALID JUMPDEST PUSH1 0x20 MUL PUSH1 0x20 ADD ADD MLOAD PUSH1 0x0 ADD MLOAD DUP3 DUP3 PUSH1 0x6 MUL PUSH1 0x0 ADD DUP2 MLOAD DUP2 LT PUSH2 0x14BF JUMPI INVALID JUMPDEST PUSH1 0x20 MUL PUSH1 0x20 ADD ADD DUP2 DUP2 MSTORE POP POP DUP7 DUP2 DUP2 MLOAD DUP2 LT PUSH2 0x14D7 JUMPI INVALID JUMPDEST PUSH1 0x20 MUL PUSH1 0x20 ADD ADD MLOAD PUSH1 0x20 ADD MLOAD DUP3 DUP3 PUSH1 0x6 MUL PUSH1 0x1 ADD DUP2 MLOAD DUP2 LT PUSH2 0x14F5 JUMPI INVALID JUMPDEST PUSH1 0x20 MUL PUSH1 0x20 ADD ADD DUP2 DUP2 MSTORE POP POP DUP6 DUP2 DUP2 MLOAD DUP2 LT PUSH2 0x150D JUMPI INVALID JUMPDEST PUSH1 0x20 SWAP1 DUP2 MUL SWAP2 SWAP1 SWAP2 ADD ADD MLOAD MLOAD MLOAD DUP3 MLOAD DUP4 SWAP1 PUSH1 0x2 PUSH1 0x6 DUP6 MUL ADD SWAP1 DUP2 LT PUSH2 0x152E JUMPI INVALID JUMPDEST PUSH1 0x20 MUL PUSH1 0x20 ADD ADD DUP2 DUP2 MSTORE POP POP DUP6 DUP2 DUP2 MLOAD DUP2 LT PUSH2 0x1546 JUMPI INVALID JUMPDEST PUSH1 0x20 SWAP1 DUP2 MUL SWAP2 SWAP1 SWAP2 ADD ADD MLOAD MLOAD PUSH1 0x1 PUSH1 0x20 MUL ADD MLOAD DUP3 DUP3 PUSH1 0x6 MUL PUSH1 0x3 ADD DUP2 MLOAD DUP2 LT PUSH2 0x156B JUMPI INVALID JUMPDEST PUSH1 0x20 MUL PUSH1 0x20 ADD ADD DUP2 DUP2 MSTORE POP POP DUP6 DUP2 DUP2 MLOAD DUP2 LT PUSH2 0x1583 JUMPI INVALID JUMPDEST PUSH1 0x20 MUL PUSH1 0x20 ADD ADD MLOAD PUSH1 0x20 ADD MLOAD PUSH1 0x0 PUSH1 0x2 DUP2 LT PUSH2 0x159B JUMPI INVALID JUMPDEST PUSH1 0x20 MUL ADD MLOAD DUP3 DUP3 PUSH1 0x6 MUL PUSH1 0x4 ADD DUP2 MLOAD DUP2 LT PUSH2 0x15B2 JUMPI INVALID JUMPDEST PUSH1 0x20 MUL PUSH1 0x20 ADD ADD DUP2 DUP2 MSTORE POP POP DUP6 DUP2 DUP2 MLOAD DUP2 LT PUSH2 0x15CA JUMPI INVALID JUMPDEST PUSH1 0x20 MUL PUSH1 0x20 ADD ADD MLOAD PUSH1 0x20 ADD MLOAD PUSH1 0x1 PUSH1 0x2 DUP2 LT PUSH2 0x15E2 JUMPI INVALID JUMPDEST PUSH1 0x20 MUL ADD MLOAD DUP3 DUP3 PUSH1 0x6 MUL PUSH1 0x5 ADD DUP2 MLOAD DUP2 LT PUSH2 0x15F9 JUMPI INVALID JUMPDEST PUSH1 0x20 SWAP1 DUP2 MUL SWAP2 SWAP1 SWAP2 ADD ADD MSTORE PUSH1 0x1 ADD PUSH2 0x148D JUMP JUMPDEST POP PUSH2 0x1615 PUSH2 0x177B JUMP JUMPDEST PUSH1 0x0 PUSH1 0x20 DUP3 PUSH1 0x20 DUP7 MUL PUSH1 0x20 DUP7 ADD PUSH1 0x8 PUSH2 0x7D0 GAS SUB STATICCALL SWAP1 POP DUP1 DUP1 ISZERO PUSH2 0x112E JUMPI POP DUP1 PUSH2 0x167E JUMPI PUSH1 0x40 DUP1 MLOAD PUSH3 0x461BCD PUSH1 0xE5 SHL DUP2 MSTORE PUSH1 0x20 PUSH1 0x4 DUP3 ADD MSTORE PUSH1 0x15 PUSH1 0x24 DUP3 ADD MSTORE PUSH21 0x1C185A5C9A5B99CB5BDC18DBD9194B59985A5B1959 PUSH1 0x5A SHL PUSH1 0x44 DUP3 ADD MSTORE SWAP1 MLOAD SWAP1 DUP2 SWAP1 SUB PUSH1 0x64 ADD SWAP1 REVERT JUMPDEST POP MLOAD ISZERO ISZERO SWAP7 SWAP6 POP POP POP POP POP POP JUMP JUMPDEST PUSH1 0x40 MLOAD DUP1 PUSH1 0x60 ADD PUSH1 0x40 MSTORE DUP1 PUSH2 0x169F PUSH2 0x1705 JUMP JUMPDEST DUP2 MSTORE PUSH1 0x20 ADD PUSH2 0x16AC PUSH2 0x175B JUMP JUMPDEST DUP2 MSTORE PUSH1 0x20 ADD PUSH2 0x16B9 PUSH2 0x1705 JUMP JUMPDEST SWAP1 MSTORE SWAP1 JUMP JUMPDEST PUSH1 0x40 MLOAD DUP1 PUSH1 0xA0 ADD PUSH1 0x40 MSTORE DUP1 PUSH2 0x16D1 PUSH2 0x1705 JUMP JUMPDEST DUP2 MSTORE PUSH1 0x20 ADD PUSH2 0x16DE PUSH2 0x175B JUMP JUMPDEST DUP2 MSTORE PUSH1 0x20 ADD PUSH2 0x16EB PUSH2 0x175B JUMP JUMPDEST DUP2 MSTORE PUSH1 0x20 ADD PUSH2 0x16F8 PUSH2 0x175B JUMP JUMPDEST DUP2 MSTORE PUSH1 0x20 ADD PUSH1 0x60 DUP2 MSTORE POP SWAP1 JUMP JUMPDEST PUSH1 0x40 MLOAD DUP1 PUSH1 0x40 ADD PUSH1 0x40 MSTORE DUP1 PUSH1 0x0 DUP2 MSTORE PUSH1 0x20 ADD PUSH1 0x0 DUP2 MSTORE POP SWAP1 JUMP JUMPDEST PUSH1 0x40 MLOAD DUP1 PUSH1 0x60 ADD PUSH1 0x40 MSTORE DUP1 PUSH1 0x3 SWAP1 PUSH1 0x20 DUP3 MUL DUP1 CALLDATASIZE DUP4 CALLDATACOPY POP SWAP2 SWAP3 SWAP2 POP POP JUMP JUMPDEST PUSH1 0x40 MLOAD DUP1 PUSH1 0x80 ADD PUSH1 0x40 MSTORE DUP1 PUSH1 0x4 SWAP1 PUSH1 0x20 DUP3 MUL DUP1 CALLDATASIZE DUP4 CALLDATACOPY POP SWAP2 SWAP3 SWAP2 POP POP JUMP JUMPDEST PUSH1 0x40 MLOAD DUP1 PUSH1 0x40 ADD PUSH1 0x40 MSTORE DUP1 PUSH2 0x176E PUSH2 0x1799 JUMP JUMPDEST DUP2 MSTORE PUSH1 0x20 ADD PUSH2 0x16B9 PUSH2 0x1799 JUMP JUMPDEST PUSH1 0x40 MLOAD DUP1 PUSH1 0x20 ADD PUSH1 0x40 MSTORE DUP1 PUSH1 0x1 SWAP1 PUSH1 0x20 DUP3 MUL DUP1 CALLDATASIZE DUP4 CALLDATACOPY POP SWAP2 SWAP3 SWAP2 POP POP JUMP JUMPDEST PUSH1 0x40 MLOAD DUP1 PUSH1 0x40 ADD PUSH1 0x40 MSTORE DUP1 PUSH1 0x2 SWAP1 PUSH1 0x20 DUP3 MUL DUP1 CALLDATASIZE DUP4 CALLDATACOPY POP SWAP2 SWAP3 SWAP2 POP POP JUMP INVALID LOG2 PUSH5 0x6970667358 0x22 SLT KECCAK256 0xE7 0x48 0x2E COINBASE MSIZE PUSH24 0x682931EF138E21C1F881386D6B556BA4674B1A98170AC38 SWAP13 PUSH14 0x64736F6C634300060C0033000000 "},"methodIdentifiers":{"verifyProof(uint256[2],uint256[2][2],uint256[2],uint256[22])":"c5a0fc26"}}}}}