{"contracts/Verifier2.sol":{"Verifier2":{"abi":[{"inputs":[{"internalType":"uint256[2]","name":"a","type":"uint256[2]"},{"internalType":"uint256[2][2]","name":"b","type":"uint256[2][2]"},{"internalType":"uint256[2]","name":"c","type":"uint256[2]"},{"internalType":"uint256[8]","name":"input","type":"uint256[8]"}],"name":"verifyProof","outputs":[{"internalType":"bool","name":"r","type":"bool"}],"stateMutability":"view","type":"function"}],"evm":{"bytecode":{"linkReferences":{},"object":"608060405234801561001057600080fd5b506111c0806100206000396000f3fe608060405234801561001057600080fd5b506004361061002b5760003560e01c8063c9219a7a14610030575b600080fd5b61012d600480360361020081101561004757600080fd5b6040805180820182529183019291818301918390600290839083908082843760009201829052506040805180820190915293969594608081019493509150600290835b828210156100c8576040805180820182529080840286019060029083908390808284376000920191909152505050815260019091019060200161008a565b505060408051808201825293969594818101949350915060029083908390808284376000920191909152505060408051610100818101909252929594938181019392509060089083908390808284376000920191909152509194506101419350505050565b604080519115158252519081900360200190f35b600061014b61105f565b6040805180820182528751815260208089015181830152908352815160808101835287515181840190815288518301516060808401919091529082528351808501855289840180515182525184015181850152828401528483019190915282518084018452875181528783015181840152848401528251600880825261012082019094529092909182016101008036833701905050905060005b600881101561021e578481600881106101fa57fe5b602002015182828151811061020b57fe5b60209081029190910101526001016101e5565b506102298183610247565b6102385760019250505061023f565b6000925050505b949350505050565b60007f30644e72e131a029b85045b68181585d2833e84879b9709143e1f593f0000001610272611091565b61027a610423565b90508060800151518551600101146102ce576040805162461bcd60e51b81526020600482015260126024820152711d995c9a599a595c8b5898590b5a5b9c1d5d60721b604482015290519081900360640190fd5b6102d66110d8565b6040518060400160405280600081526020016000815250905060005b86518110156103ac578387828151811061030857fe5b602002602001015110610362576040805162461bcd60e51b815260206004820152601f60248201527f76657269666965722d6774652d736e61726b2d7363616c61722d6669656c6400604482015290519081900360640190fd5b6103a28261039d8560800151846001018151811061037c57fe5b60200260200101518a858151811061039057fe5b6020026020010151610abe565b610b53565b91506001016102f2565b506103cf8183608001516000815181106103c257fe5b6020026020010151610b53565b90506104056103e18660000151610be4565b8660200151846000015185602001518587604001518b604001518960600151610c70565b610415576001935050505061041d565b600093505050505b92915050565b61042b611091565b6040805180820182527f2d4d9aa7e302d9df41749d5507949d05dbea33fbb16c643b22f599a2be6df2e281527f14bedd503c37ceb061d8ec60209fe345ce89830a19230301f076caff004d19266020808301919091529083528151608080820184527f0967032fcbf776d1afc985f88877f182d38480a653f2decaa9794cbc3bf3060c8285019081527f0e187847ad4c798374d0d6732bf501847dd68bc0e071241e0213bc7fc13db7ab606080850191909152908352845180860186527f304cfbd1e08a704a99f5e847d93f8c3caafddec46b7a0d379da69a4d112346a781527f1739c1b1a457a8c7313123d24d2f9192f896b7c63eea05a9d57f06547ad0cec8818601528385015285840192909252835180820185527f198e9393920d483a7260bfb731fb5d25f1aa493335a9e71297e485b7aef312c28186019081527f1800deef121f1e76426a00665e5c4479674322d4f75edadd46debd5cd992f6ed828501528152845180860186527f090689d0585ff075ec9e99ad690c3395bc4b313370b38ef355acdadcd122975b81527f12c85ea5db8c6deb4aab71808dcb408fe3d1e7690c43d37b4ce6cc0166fa7daa818601528185015285850152835190810184527f01fd89fa11654f6c3a267b8fc980aabe32614b7c42f2af8a5379e4f38b6340f98185019081527f1795fbc5fbe12aed08bc894050275529192727ed0c1e6c23ee7f0c353c8e248f828401528152835180850185527f2abd6431c8e7a459494a4d6e89e02372e3a95b4fb34d03c0240d415ee20b40b781527f1742e62416addb45dc04f72e38c0aea7b6c955b9722804d4fccf5922975eb00d818501528184015290840152815160098082526101408201909352919082015b6106af6110d8565b8152602001906001900390816106a757505060808201908152604080518082019091527f2ad9864396a7fb5b8709606b7e655663bf88dd4963f6015cd894f41b238b1d2b81527f1d3aa44e9dfe24cd574544ee5eb13eafef1e449555ab3a2549a791191aaea70a60208201529051805160009061072857fe5b602002602001018190525060405180604001604052807f2c5c1097f13a607493f5f67affe9b0d6f489cd8c4683b8316491a9e3f584627a81526020017f030640f2301849bdd08554761f8afc6255e33bc7996d8d768d82591ff29d0f4a815250816080015160018151811061079957fe5b602002602001018190525060405180604001604052807f0a3e9c1686dc6cf158b02a8b690892530444dead8531a09ea7a66b80b9252d9681526020017f0c9d66d98798d4d5009895b8f20a1f9c8bc9538651513422c5a659d6752452b4815250816080015160028151811061080a57fe5b602002602001018190525060405180604001604052807f13d708cc4f189430f94fff9700e15e8e3d465e83989f5a03785f44f00209139f81526020017f141c20e0480369ee8430ab294ba373621e948dadc0c2ad8ce863f6ef6b09ac52815250816080015160038151811061087b57fe5b602002602001018190525060405180604001604052807f040f6a23ef87ba1516aac419070e755409a3d610a8bdeaa46688b347fb162a8a81526020017f07b56a6552d232c96e4919d7970ee1f89af111e8988c32997f73a04bb8b79dcc81525081608001516004815181106108ec57fe5b602002602001018190525060405180604001604052807f1fad13dacde90b4a36cc49250655d59c00a6a806c213d85bbd9f7ff5abe8d02b81526020017f162cb21fcd61d35e66e39c5c684d647ed587674b96150db2923c1eb132a1f8bd815250816080015160058151811061095d57fe5b602002602001018190525060405180604001604052807f08cb72ef5e38b4ab9c19043288092dfb80e7f3a770af72d65d46cd67b0754c5e81526020017f1641a6917bd297f08f8ceac89fb1a6a02fd991ddadb4345f94e66d322dab3b1481525081608001516006815181106109ce57fe5b602002602001018190525060405180604001604052807f13a863d6c16c298a5bef9b6cecb6173fe5ac846e1313fcb57dd764fab514e63d81526020017f09d0a6f48dbf43c1cdc75783d4b4eac5530ea7503794753b3ec494c640e97f918152508160800151600781518110610a3f57fe5b602002602001018190525060405180604001604052807f13ce498966c9d18565e8cdcb0e4d91ded8a4cf828628d2fcf06ef0fc4d78c55e81526020017f0cb4f7352ddcc18b21fef7e6bf9e224f085860744bd87aada5ebecd26b8b27038152508160800151600881518110610ab057fe5b602002602001018190525090565b610ac66110d8565b610ace6110f2565b835181526020808501519082015260408101839052600060608360808460076107d05a03fa9050808015610b0157610b03565bfe5b5080610b4b576040805162461bcd60e51b81526020600482015260126024820152711c185a5c9a5b99cb5b5d5b0b59985a5b195960721b604482015290519081900360640190fd5b505092915050565b610b5b6110d8565b610b63611110565b8351815260208085015181830152835160408301528301516060808301919091526000908360c08460066107d05a03fa9050808015610b01575080610b4b576040805162461bcd60e51b81526020600482015260126024820152711c185a5c9a5b99cb5859190b59985a5b195960721b604482015290519081900360640190fd5b610bec6110d8565b81517f30644e72e131a029b85045b68181585d97816a916871ca8d3c208c16d87cfd4790158015610c1f57506020830151155b15610c3f5750506040805180820190915260008082526020820152610c6b565b60405180604001604052808460000151815260200182856020015181610c6157fe5b0683038152509150505b919050565b60408051600480825260a0820190925260009160609190816020015b610c946110d8565b815260200190600190039081610c8c57505060408051600480825260a0820190925291925060609190602082015b610cca61112e565b815260200190600190039081610cc25790505090508a82600081518110610ced57fe5b60200260200101819052508882600181518110610d0657fe5b60200260200101819052508682600281518110610d1f57fe5b60200260200101819052508482600381518110610d3857fe5b60200260200101819052508981600081518110610d5157fe5b60200260200101819052508781600181518110610d6a57fe5b60200260200101819052508581600281518110610d8357fe5b60200260200101819052508381600381518110610d9c57fe5b6020026020010181905250610db18282610dc0565b9b9a5050505050505050505050565b60008151835114610e11576040805162461bcd60e51b81526020600482015260166024820152751c185a5c9a5b99cb5b195b99dd1a1ccb59985a5b195960521b604482015290519081900360640190fd5b82516006810260608167ffffffffffffffff81118015610e3057600080fd5b50604051908082528060200260200182016040528015610e5a578160200160208202803683370190505b50905060005b83811015610fdf57868181518110610e7457fe5b602002602001015160000151828260060260000181518110610e9257fe5b602002602001018181525050868181518110610eaa57fe5b602002602001015160200151828260060260010181518110610ec857fe5b602002602001018181525050858181518110610ee057fe5b602090810291909101015151518251839060026006850201908110610f0157fe5b602002602001018181525050858181518110610f1957fe5b60209081029190910101515160016020020151828260060260030181518110610f3e57fe5b602002602001018181525050858181518110610f5657fe5b602002602001015160200151600060028110610f6e57fe5b6020020151828260060260040181518110610f8557fe5b602002602001018181525050858181518110610f9d57fe5b602002602001015160200151600160028110610fb557fe5b6020020151828260060260050181518110610fcc57fe5b6020908102919091010152600101610e60565b50610fe861114e565b6000602082602086026020860160086107d05a03fa9050808015610b01575080611051576040805162461bcd60e51b81526020600482015260156024820152741c185a5c9a5b99cb5bdc18dbd9194b59985a5b1959605a1b604482015290519081900360640190fd5b505115159695505050505050565b60405180606001604052806110726110d8565b815260200161107f61112e565b815260200161108c6110d8565b905290565b6040518060a001604052806110a46110d8565b81526020016110b161112e565b81526020016110be61112e565b81526020016110cb61112e565b8152602001606081525090565b604051806040016040528060008152602001600081525090565b60405180606001604052806003906020820280368337509192915050565b60405180608001604052806004906020820280368337509192915050565b604051806040016040528061114161116c565b815260200161108c61116c565b60405180602001604052806001906020820280368337509192915050565b6040518060400160405280600290602082028036833750919291505056fea26469706673582212208b37fa5ff4c136bff81ac069c2ec8afab95b377df368c2c8397e387d146840bf64736f6c634300060c0033","opcodes":"PUSH1 0x80 PUSH1 0x40 MSTORE CALLVALUE DUP1 ISZERO PUSH2 0x10 JUMPI PUSH1 0x0 DUP1 REVERT JUMPDEST POP PUSH2 0x11C0 DUP1 PUSH2 0x20 PUSH1 0x0 CODECOPY PUSH1 0x0 RETURN INVALID PUSH1 0x80 PUSH1 0x40 MSTORE CALLVALUE DUP1 ISZERO PUSH2 0x10 JUMPI PUSH1 0x0 DUP1 REVERT JUMPDEST POP PUSH1 0x4 CALLDATASIZE LT PUSH2 0x2B JUMPI PUSH1 0x0 CALLDATALOAD PUSH1 0xE0 SHR DUP1 PUSH4 0xC9219A7A EQ PUSH2 0x30 JUMPI JUMPDEST PUSH1 0x0 DUP1 REVERT JUMPDEST PUSH2 0x12D PUSH1 0x4 DUP1 CALLDATASIZE SUB PUSH2 0x200 DUP2 LT ISZERO PUSH2 0x47 JUMPI PUSH1 0x0 DUP1 REVERT JUMPDEST PUSH1 0x40 DUP1 MLOAD DUP1 DUP3 ADD DUP3 MSTORE SWAP2 DUP4 ADD SWAP3 SWAP2 DUP2 DUP4 ADD SWAP2 DUP4 SWAP1 PUSH1 0x2 SWAP1 DUP4 SWAP1 DUP4 SWAP1 DUP1 DUP3 DUP5 CALLDATACOPY PUSH1 0x0 SWAP3 ADD DUP3 SWAP1 MSTORE POP PUSH1 0x40 DUP1 MLOAD DUP1 DUP3 ADD SWAP1 SWAP2 MSTORE SWAP4 SWAP7 SWAP6 SWAP5 PUSH1 0x80 DUP2 ADD SWAP5 SWAP4 POP SWAP2 POP PUSH1 0x2 SWAP1 DUP4 JUMPDEST DUP3 DUP3 LT ISZERO PUSH2 0xC8 JUMPI PUSH1 0x40 DUP1 MLOAD DUP1 DUP3 ADD DUP3 MSTORE SWAP1 DUP1 DUP5 MUL DUP7 ADD SWAP1 PUSH1 0x2 SWAP1 DUP4 SWAP1 DUP4 SWAP1 DUP1 DUP3 DUP5 CALLDATACOPY PUSH1 0x0 SWAP3 ADD SWAP2 SWAP1 SWAP2 MSTORE POP POP POP DUP2 MSTORE PUSH1 0x1 SWAP1 SWAP2 ADD SWAP1 PUSH1 0x20 ADD PUSH2 0x8A JUMP JUMPDEST POP POP PUSH1 0x40 DUP1 MLOAD DUP1 DUP3 ADD DUP3 MSTORE SWAP4 SWAP7 SWAP6 SWAP5 DUP2 DUP2 ADD SWAP5 SWAP4 POP SWAP2 POP PUSH1 0x2 SWAP1 DUP4 SWAP1 DUP4 SWAP1 DUP1 DUP3 DUP5 CALLDATACOPY PUSH1 0x0 SWAP3 ADD SWAP2 SWAP1 SWAP2 MSTORE POP POP PUSH1 0x40 DUP1 MLOAD PUSH2 0x100 DUP2 DUP2 ADD SWAP1 SWAP3 MSTORE SWAP3 SWAP6 SWAP5 SWAP4 DUP2 DUP2 ADD SWAP4 SWAP3 POP SWAP1 PUSH1 0x8 SWAP1 DUP4 SWAP1 DUP4 SWAP1 DUP1 DUP3 DUP5 CALLDATACOPY PUSH1 0x0 SWAP3 ADD SWAP2 SWAP1 SWAP2 MSTORE POP SWAP2 SWAP5 POP PUSH2 0x141 SWAP4 POP POP POP POP JUMP JUMPDEST PUSH1 0x40 DUP1 MLOAD SWAP2 ISZERO ISZERO DUP3 MSTORE MLOAD SWAP1 DUP2 SWAP1 SUB PUSH1 0x20 ADD SWAP1 RETURN JUMPDEST PUSH1 0x0 PUSH2 0x14B PUSH2 0x105F JUMP JUMPDEST PUSH1 0x40 DUP1 MLOAD DUP1 DUP3 ADD DUP3 MSTORE DUP8 MLOAD DUP2 MSTORE PUSH1 0x20 DUP1 DUP10 ADD MLOAD DUP2 DUP4 ADD MSTORE SWAP1 DUP4 MSTORE DUP2 MLOAD PUSH1 0x80 DUP2 ADD DUP4 MSTORE DUP8 MLOAD MLOAD DUP2 DUP5 ADD SWAP1 DUP2 MSTORE DUP9 MLOAD DUP4 ADD MLOAD PUSH1 0x60 DUP1 DUP5 ADD SWAP2 SWAP1 SWAP2 MSTORE SWAP1 DUP3 MSTORE DUP4 MLOAD DUP1 DUP6 ADD DUP6 MSTORE DUP10 DUP5 ADD DUP1 MLOAD MLOAD DUP3 MSTORE MLOAD DUP5 ADD MLOAD DUP2 DUP6 ADD MSTORE DUP3 DUP5 ADD MSTORE DUP5 DUP4 ADD SWAP2 SWAP1 SWAP2 MSTORE DUP3 MLOAD DUP1 DUP5 ADD DUP5 MSTORE DUP8 MLOAD DUP2 MSTORE DUP8 DUP4 ADD MLOAD DUP2 DUP5 ADD MSTORE DUP5 DUP5 ADD MSTORE DUP3 MLOAD PUSH1 0x8 DUP1 DUP3 MSTORE PUSH2 0x120 DUP3 ADD SWAP1 SWAP5 MSTORE SWAP1 SWAP3 SWAP1 SWAP2 DUP3 ADD PUSH2 0x100 DUP1 CALLDATASIZE DUP4 CALLDATACOPY ADD SWAP1 POP POP SWAP1 POP PUSH1 0x0 JUMPDEST PUSH1 0x8 DUP2 LT ISZERO PUSH2 0x21E JUMPI DUP5 DUP2 PUSH1 0x8 DUP2 LT PUSH2 0x1FA JUMPI INVALID JUMPDEST PUSH1 0x20 MUL ADD MLOAD DUP3 DUP3 DUP2 MLOAD DUP2 LT PUSH2 0x20B JUMPI INVALID JUMPDEST PUSH1 0x20 SWAP1 DUP2 MUL SWAP2 SWAP1 SWAP2 ADD ADD MSTORE PUSH1 0x1 ADD PUSH2 0x1E5 JUMP JUMPDEST POP PUSH2 0x229 DUP2 DUP4 PUSH2 0x247 JUMP JUMPDEST PUSH2 0x238 JUMPI PUSH1 0x1 SWAP3 POP POP POP PUSH2 0x23F JUMP JUMPDEST PUSH1 0x0 SWAP3 POP POP POP JUMPDEST SWAP5 SWAP4 POP POP POP POP JUMP JUMPDEST PUSH1 0x0 PUSH32 0x30644E72E131A029B85045B68181585D2833E84879B9709143E1F593F0000001 PUSH2 0x272 PUSH2 0x1091 JUMP JUMPDEST PUSH2 0x27A PUSH2 0x423 JUMP JUMPDEST SWAP1 POP DUP1 PUSH1 0x80 ADD MLOAD MLOAD DUP6 MLOAD PUSH1 0x1 ADD EQ PUSH2 0x2CE JUMPI PUSH1 0x40 DUP1 MLOAD PUSH3 0x461BCD PUSH1 0xE5 SHL DUP2 MSTORE PUSH1 0x20 PUSH1 0x4 DUP3 ADD MSTORE PUSH1 0x12 PUSH1 0x24 DUP3 ADD MSTORE PUSH18 0x1D995C9A599A595C8B5898590B5A5B9C1D5D PUSH1 0x72 SHL PUSH1 0x44 DUP3 ADD MSTORE SWAP1 MLOAD SWAP1 DUP2 SWAP1 SUB PUSH1 0x64 ADD SWAP1 REVERT JUMPDEST PUSH2 0x2D6 PUSH2 0x10D8 JUMP JUMPDEST PUSH1 0x40 MLOAD DUP1 PUSH1 0x40 ADD PUSH1 0x40 MSTORE DUP1 PUSH1 0x0 DUP2 MSTORE PUSH1 0x20 ADD PUSH1 0x0 DUP2 MSTORE POP SWAP1 POP PUSH1 0x0 JUMPDEST DUP7 MLOAD DUP2 LT ISZERO PUSH2 0x3AC JUMPI DUP4 DUP8 DUP3 DUP2 MLOAD DUP2 LT PUSH2 0x308 JUMPI INVALID JUMPDEST PUSH1 0x20 MUL PUSH1 0x20 ADD ADD MLOAD LT PUSH2 0x362 JUMPI PUSH1 0x40 DUP1 MLOAD PUSH3 0x461BCD PUSH1 0xE5 SHL DUP2 MSTORE PUSH1 0x20 PUSH1 0x4 DUP3 ADD MSTORE PUSH1 0x1F PUSH1 0x24 DUP3 ADD MSTORE PUSH32 0x76657269666965722D6774652D736E61726B2D7363616C61722D6669656C6400 PUSH1 0x44 DUP3 ADD MSTORE SWAP1 MLOAD SWAP1 DUP2 SWAP1 SUB PUSH1 0x64 ADD SWAP1 REVERT JUMPDEST PUSH2 0x3A2 DUP3 PUSH2 0x39D DUP6 PUSH1 0x80 ADD MLOAD DUP5 PUSH1 0x1 ADD DUP2 MLOAD DUP2 LT PUSH2 0x37C JUMPI INVALID JUMPDEST PUSH1 0x20 MUL PUSH1 0x20 ADD ADD MLOAD DUP11 DUP6 DUP2 MLOAD DUP2 LT PUSH2 0x390 JUMPI INVALID JUMPDEST PUSH1 0x20 MUL PUSH1 0x20 ADD ADD MLOAD PUSH2 0xABE JUMP JUMPDEST PUSH2 0xB53 JUMP JUMPDEST SWAP2 POP PUSH1 0x1 ADD PUSH2 0x2F2 JUMP JUMPDEST POP PUSH2 0x3CF DUP2 DUP4 PUSH1 0x80 ADD MLOAD PUSH1 0x0 DUP2 MLOAD DUP2 LT PUSH2 0x3C2 JUMPI INVALID JUMPDEST PUSH1 0x20 MUL PUSH1 0x20 ADD ADD MLOAD PUSH2 0xB53 JUMP JUMPDEST SWAP1 POP PUSH2 0x405 PUSH2 0x3E1 DUP7 PUSH1 0x0 ADD MLOAD PUSH2 0xBE4 JUMP JUMPDEST DUP7 PUSH1 0x20 ADD MLOAD DUP5 PUSH1 0x0 ADD MLOAD DUP6 PUSH1 0x20 ADD MLOAD DUP6 DUP8 PUSH1 0x40 ADD MLOAD DUP12 PUSH1 0x40 ADD MLOAD DUP10 PUSH1 0x60 ADD MLOAD PUSH2 0xC70 JUMP JUMPDEST PUSH2 0x415 JUMPI PUSH1 0x1 SWAP4 POP POP POP POP PUSH2 0x41D JUMP JUMPDEST PUSH1 0x0 SWAP4 POP POP POP POP JUMPDEST SWAP3 SWAP2 POP POP JUMP JUMPDEST PUSH2 0x42B PUSH2 0x1091 JUMP JUMPDEST PUSH1 0x40 DUP1 MLOAD DUP1 DUP3 ADD DUP3 MSTORE PUSH32 0x2D4D9AA7E302D9DF41749D5507949D05DBEA33FBB16C643B22F599A2BE6DF2E2 DUP2 MSTORE PUSH32 0x14BEDD503C37CEB061D8EC60209FE345CE89830A19230301F076CAFF004D1926 PUSH1 0x20 DUP1 DUP4 ADD SWAP2 SWAP1 SWAP2 MSTORE SWAP1 DUP4 MSTORE DUP2 MLOAD PUSH1 0x80 DUP1 DUP3 ADD DUP5 MSTORE PUSH32 0x967032FCBF776D1AFC985F88877F182D38480A653F2DECAA9794CBC3BF3060C DUP3 DUP6 ADD SWAP1 DUP2 MSTORE PUSH32 0xE187847AD4C798374D0D6732BF501847DD68BC0E071241E0213BC7FC13DB7AB PUSH1 0x60 DUP1 DUP6 ADD SWAP2 SWAP1 SWAP2 MSTORE SWAP1 DUP4 MSTORE DUP5 MLOAD DUP1 DUP7 ADD DUP7 MSTORE PUSH32 0x304CFBD1E08A704A99F5E847D93F8C3CAAFDDEC46B7A0D379DA69A4D112346A7 DUP2 MSTORE PUSH32 0x1739C1B1A457A8C7313123D24D2F9192F896B7C63EEA05A9D57F06547AD0CEC8 DUP2 DUP7 ADD MSTORE DUP4 DUP6 ADD MSTORE DUP6 DUP5 ADD SWAP3 SWAP1 SWAP3 MSTORE DUP4 MLOAD DUP1 DUP3 ADD DUP6 MSTORE PUSH32 0x198E9393920D483A7260BFB731FB5D25F1AA493335A9E71297E485B7AEF312C2 DUP2 DUP7 ADD SWAP1 DUP2 MSTORE PUSH32 0x1800DEEF121F1E76426A00665E5C4479674322D4F75EDADD46DEBD5CD992F6ED DUP3 DUP6 ADD MSTORE DUP2 MSTORE DUP5 MLOAD DUP1 DUP7 ADD DUP7 MSTORE PUSH32 0x90689D0585FF075EC9E99AD690C3395BC4B313370B38EF355ACDADCD122975B DUP2 MSTORE PUSH32 0x12C85EA5DB8C6DEB4AAB71808DCB408FE3D1E7690C43D37B4CE6CC0166FA7DAA DUP2 DUP7 ADD MSTORE DUP2 DUP6 ADD MSTORE DUP6 DUP6 ADD MSTORE DUP4 MLOAD SWAP1 DUP2 ADD DUP5 MSTORE PUSH32 0x1FD89FA11654F6C3A267B8FC980AABE32614B7C42F2AF8A5379E4F38B6340F9 DUP2 DUP6 ADD SWAP1 DUP2 MSTORE PUSH32 0x1795FBC5FBE12AED08BC894050275529192727ED0C1E6C23EE7F0C353C8E248F DUP3 DUP5 ADD MSTORE DUP2 MSTORE DUP4 MLOAD DUP1 DUP6 ADD DUP6 MSTORE PUSH32 0x2ABD6431C8E7A459494A4D6E89E02372E3A95B4FB34D03C0240D415EE20B40B7 DUP2 MSTORE PUSH32 0x1742E62416ADDB45DC04F72E38C0AEA7B6C955B9722804D4FCCF5922975EB00D DUP2 DUP6 ADD MSTORE DUP2 DUP5 ADD MSTORE SWAP1 DUP5 ADD MSTORE DUP2 MLOAD PUSH1 0x9 DUP1 DUP3 MSTORE PUSH2 0x140 DUP3 ADD SWAP1 SWAP4 MSTORE SWAP2 SWAP1 DUP3 ADD JUMPDEST PUSH2 0x6AF PUSH2 0x10D8 JUMP JUMPDEST DUP2 MSTORE PUSH1 0x20 ADD SWAP1 PUSH1 0x1 SWAP1 SUB SWAP1 DUP2 PUSH2 0x6A7 JUMPI POP POP PUSH1 0x80 DUP3 ADD SWAP1 DUP2 MSTORE PUSH1 0x40 DUP1 MLOAD DUP1 DUP3 ADD SWAP1 SWAP2 MSTORE PUSH32 0x2AD9864396A7FB5B8709606B7E655663BF88DD4963F6015CD894F41B238B1D2B DUP2 MSTORE PUSH32 0x1D3AA44E9DFE24CD574544EE5EB13EAFEF1E449555AB3A2549A791191AAEA70A PUSH1 0x20 DUP3 ADD MSTORE SWAP1 MLOAD DUP1 MLOAD PUSH1 0x0 SWAP1 PUSH2 0x728 JUMPI INVALID JUMPDEST PUSH1 0x20 MUL PUSH1 0x20 ADD ADD DUP2 SWAP1 MSTORE POP PUSH1 0x40 MLOAD DUP1 PUSH1 0x40 ADD PUSH1 0x40 MSTORE DUP1 PUSH32 0x2C5C1097F13A607493F5F67AFFE9B0D6F489CD8C4683B8316491A9E3F584627A DUP2 MSTORE PUSH1 0x20 ADD PUSH32 0x30640F2301849BDD08554761F8AFC6255E33BC7996D8D768D82591FF29D0F4A DUP2 MSTORE POP DUP2 PUSH1 0x80 ADD MLOAD PUSH1 0x1 DUP2 MLOAD DUP2 LT PUSH2 0x799 JUMPI INVALID JUMPDEST PUSH1 0x20 MUL PUSH1 0x20 ADD ADD DUP2 SWAP1 MSTORE POP PUSH1 0x40 MLOAD DUP1 PUSH1 0x40 ADD PUSH1 0x40 MSTORE DUP1 PUSH32 0xA3E9C1686DC6CF158B02A8B690892530444DEAD8531A09EA7A66B80B9252D96 DUP2 MSTORE PUSH1 0x20 ADD PUSH32 0xC9D66D98798D4D5009895B8F20A1F9C8BC9538651513422C5A659D6752452B4 DUP2 MSTORE POP DUP2 PUSH1 0x80 ADD MLOAD PUSH1 0x2 DUP2 MLOAD DUP2 LT PUSH2 0x80A JUMPI INVALID JUMPDEST PUSH1 0x20 MUL PUSH1 0x20 ADD ADD DUP2 SWAP1 MSTORE POP PUSH1 0x40 MLOAD DUP1 PUSH1 0x40 ADD PUSH1 0x40 MSTORE DUP1 PUSH32 0x13D708CC4F189430F94FFF9700E15E8E3D465E83989F5A03785F44F00209139F DUP2 MSTORE PUSH1 0x20 ADD PUSH32 0x141C20E0480369EE8430AB294BA373621E948DADC0C2AD8CE863F6EF6B09AC52 DUP2 MSTORE POP DUP2 PUSH1 0x80 ADD MLOAD PUSH1 0x3 DUP2 MLOAD DUP2 LT PUSH2 0x87B JUMPI INVALID JUMPDEST PUSH1 0x20 MUL PUSH1 0x20 ADD ADD DUP2 SWAP1 MSTORE POP PUSH1 0x40 MLOAD DUP1 PUSH1 0x40 ADD PUSH1 0x40 MSTORE DUP1 PUSH32 0x40F6A23EF87BA1516AAC419070E755409A3D610A8BDEAA46688B347FB162A8A DUP2 MSTORE PUSH1 0x20 ADD PUSH32 0x7B56A6552D232C96E4919D7970EE1F89AF111E8988C32997F73A04BB8B79DCC DUP2 MSTORE POP DUP2 PUSH1 0x80 ADD MLOAD PUSH1 0x4 DUP2 MLOAD DUP2 LT PUSH2 0x8EC JUMPI INVALID JUMPDEST PUSH1 0x20 MUL PUSH1 0x20 ADD ADD DUP2 SWAP1 MSTORE POP PUSH1 0x40 MLOAD DUP1 PUSH1 0x40 ADD PUSH1 0x40 MSTORE DUP1 PUSH32 0x1FAD13DACDE90B4A36CC49250655D59C00A6A806C213D85BBD9F7FF5ABE8D02B DUP2 MSTORE PUSH1 0x20 ADD PUSH32 0x162CB21FCD61D35E66E39C5C684D647ED587674B96150DB2923C1EB132A1F8BD DUP2 MSTORE POP DUP2 PUSH1 0x80 ADD MLOAD PUSH1 0x5 DUP2 MLOAD DUP2 LT PUSH2 0x95D JUMPI INVALID JUMPDEST PUSH1 0x20 MUL PUSH1 0x20 ADD ADD DUP2 SWAP1 MSTORE POP PUSH1 0x40 MLOAD DUP1 PUSH1 0x40 ADD PUSH1 0x40 MSTORE DUP1 PUSH32 0x8CB72EF5E38B4AB9C19043288092DFB80E7F3A770AF72D65D46CD67B0754C5E DUP2 MSTORE PUSH1 0x20 ADD PUSH32 0x1641A6917BD297F08F8CEAC89FB1A6A02FD991DDADB4345F94E66D322DAB3B14 DUP2 MSTORE POP DUP2 PUSH1 0x80 ADD MLOAD PUSH1 0x6 DUP2 MLOAD DUP2 LT PUSH2 0x9CE JUMPI INVALID JUMPDEST PUSH1 0x20 MUL PUSH1 0x20 ADD ADD DUP2 SWAP1 MSTORE POP PUSH1 0x40 MLOAD DUP1 PUSH1 0x40 ADD PUSH1 0x40 MSTORE DUP1 PUSH32 0x13A863D6C16C298A5BEF9B6CECB6173FE5AC846E1313FCB57DD764FAB514E63D DUP2 MSTORE PUSH1 0x20 ADD PUSH32 0x9D0A6F48DBF43C1CDC75783D4B4EAC5530EA7503794753B3EC494C640E97F91 DUP2 MSTORE POP DUP2 PUSH1 0x80 ADD MLOAD PUSH1 0x7 DUP2 MLOAD DUP2 LT PUSH2 0xA3F JUMPI INVALID JUMPDEST PUSH1 0x20 MUL PUSH1 0x20 ADD ADD DUP2 SWAP1 MSTORE POP PUSH1 0x40 MLOAD DUP1 PUSH1 0x40 ADD PUSH1 0x40 MSTORE DUP1 PUSH32 0x13CE498966C9D18565E8CDCB0E4D91DED8A4CF828628D2FCF06EF0FC4D78C55E DUP2 MSTORE PUSH1 0x20 ADD PUSH32 0xCB4F7352DDCC18B21FEF7E6BF9E224F085860744BD87AADA5EBECD26B8B2703 DUP2 MSTORE POP DUP2 PUSH1 0x80 ADD MLOAD PUSH1 0x8 DUP2 MLOAD DUP2 LT PUSH2 0xAB0 JUMPI INVALID JUMPDEST PUSH1 0x20 MUL PUSH1 0x20 ADD ADD DUP2 SWAP1 MSTORE POP SWAP1 JUMP JUMPDEST PUSH2 0xAC6 PUSH2 0x10D8 JUMP JUMPDEST PUSH2 0xACE PUSH2 0x10F2 JUMP JUMPDEST DUP4 MLOAD DUP2 MSTORE PUSH1 0x20 DUP1 DUP6 ADD MLOAD SWAP1 DUP3 ADD MSTORE PUSH1 0x40 DUP2 ADD DUP4 SWAP1 MSTORE PUSH1 0x0 PUSH1 0x60 DUP4 PUSH1 0x80 DUP5 PUSH1 0x7 PUSH2 0x7D0 GAS SUB STATICCALL SWAP1 POP DUP1 DUP1 ISZERO PUSH2 0xB01 JUMPI PUSH2 0xB03 JUMP JUMPDEST INVALID JUMPDEST POP DUP1 PUSH2 0xB4B JUMPI PUSH1 0x40 DUP1 MLOAD PUSH3 0x461BCD PUSH1 0xE5 SHL DUP2 MSTORE PUSH1 0x20 PUSH1 0x4 DUP3 ADD MSTORE PUSH1 0x12 PUSH1 0x24 DUP3 ADD MSTORE PUSH18 0x1C185A5C9A5B99CB5B5D5B0B59985A5B1959 PUSH1 0x72 SHL PUSH1 0x44 DUP3 ADD MSTORE SWAP1 MLOAD SWAP1 DUP2 SWAP1 SUB PUSH1 0x64 ADD SWAP1 REVERT JUMPDEST POP POP SWAP3 SWAP2 POP POP JUMP JUMPDEST PUSH2 0xB5B PUSH2 0x10D8 JUMP JUMPDEST PUSH2 0xB63 PUSH2 0x1110 JUMP JUMPDEST DUP4 MLOAD DUP2 MSTORE PUSH1 0x20 DUP1 DUP6 ADD MLOAD DUP2 DUP4 ADD MSTORE DUP4 MLOAD PUSH1 0x40 DUP4 ADD MSTORE DUP4 ADD MLOAD PUSH1 0x60 DUP1 DUP4 ADD SWAP2 SWAP1 SWAP2 MSTORE PUSH1 0x0 SWAP1 DUP4 PUSH1 0xC0 DUP5 PUSH1 0x6 PUSH2 0x7D0 GAS SUB STATICCALL SWAP1 POP DUP1 DUP1 ISZERO PUSH2 0xB01 JUMPI POP DUP1 PUSH2 0xB4B JUMPI PUSH1 0x40 DUP1 MLOAD PUSH3 0x461BCD PUSH1 0xE5 SHL DUP2 MSTORE PUSH1 0x20 PUSH1 0x4 DUP3 ADD MSTORE PUSH1 0x12 PUSH1 0x24 DUP3 ADD MSTORE PUSH18 0x1C185A5C9A5B99CB5859190B59985A5B1959 PUSH1 0x72 SHL PUSH1 0x44 DUP3 ADD MSTORE SWAP1 MLOAD SWAP1 DUP2 SWAP1 SUB PUSH1 0x64 ADD SWAP1 REVERT JUMPDEST PUSH2 0xBEC PUSH2 0x10D8 JUMP JUMPDEST DUP2 MLOAD PUSH32 0x30644E72E131A029B85045B68181585D97816A916871CA8D3C208C16D87CFD47 SWAP1 ISZERO DUP1 ISZERO PUSH2 0xC1F JUMPI POP PUSH1 0x20 DUP4 ADD MLOAD ISZERO JUMPDEST ISZERO PUSH2 0xC3F JUMPI POP POP PUSH1 0x40 DUP1 MLOAD DUP1 DUP3 ADD SWAP1 SWAP2 MSTORE PUSH1 0x0 DUP1 DUP3 MSTORE PUSH1 0x20 DUP3 ADD MSTORE PUSH2 0xC6B JUMP JUMPDEST PUSH1 0x40 MLOAD DUP1 PUSH1 0x40 ADD PUSH1 0x40 MSTORE DUP1 DUP5 PUSH1 0x0 ADD MLOAD DUP2 MSTORE PUSH1 0x20 ADD DUP3 DUP6 PUSH1 0x20 ADD MLOAD DUP2 PUSH2 0xC61 JUMPI INVALID JUMPDEST MOD DUP4 SUB DUP2 MSTORE POP SWAP2 POP POP JUMPDEST SWAP2 SWAP1 POP JUMP JUMPDEST PUSH1 0x40 DUP1 MLOAD PUSH1 0x4 DUP1 DUP3 MSTORE PUSH1 0xA0 DUP3 ADD SWAP1 SWAP3 MSTORE PUSH1 0x0 SWAP2 PUSH1 0x60 SWAP2 SWAP1 DUP2 PUSH1 0x20 ADD JUMPDEST PUSH2 0xC94 PUSH2 0x10D8 JUMP JUMPDEST DUP2 MSTORE PUSH1 0x20 ADD SWAP1 PUSH1 0x1 SWAP1 SUB SWAP1 DUP2 PUSH2 0xC8C JUMPI POP POP PUSH1 0x40 DUP1 MLOAD PUSH1 0x4 DUP1 DUP3 MSTORE PUSH1 0xA0 DUP3 ADD SWAP1 SWAP3 MSTORE SWAP2 SWAP3 POP PUSH1 0x60 SWAP2 SWAP1 PUSH1 0x20 DUP3 ADD JUMPDEST PUSH2 0xCCA PUSH2 0x112E JUMP JUMPDEST DUP2 MSTORE PUSH1 0x20 ADD SWAP1 PUSH1 0x1 SWAP1 SUB SWAP1 DUP2 PUSH2 0xCC2 JUMPI SWAP1 POP POP SWAP1 POP DUP11 DUP3 PUSH1 0x0 DUP2 MLOAD DUP2 LT PUSH2 0xCED JUMPI INVALID JUMPDEST PUSH1 0x20 MUL PUSH1 0x20 ADD ADD DUP2 SWAP1 MSTORE POP DUP9 DUP3 PUSH1 0x1 DUP2 MLOAD DUP2 LT PUSH2 0xD06 JUMPI INVALID JUMPDEST PUSH1 0x20 MUL PUSH1 0x20 ADD ADD DUP2 SWAP1 MSTORE POP DUP7 DUP3 PUSH1 0x2 DUP2 MLOAD DUP2 LT PUSH2 0xD1F JUMPI INVALID JUMPDEST PUSH1 0x20 MUL PUSH1 0x20 ADD ADD DUP2 SWAP1 MSTORE POP DUP5 DUP3 PUSH1 0x3 DUP2 MLOAD DUP2 LT PUSH2 0xD38 JUMPI INVALID JUMPDEST PUSH1 0x20 MUL PUSH1 0x20 ADD ADD DUP2 SWAP1 MSTORE POP DUP10 DUP2 PUSH1 0x0 DUP2 MLOAD DUP2 LT PUSH2 0xD51 JUMPI INVALID JUMPDEST PUSH1 0x20 MUL PUSH1 0x20 ADD ADD DUP2 SWAP1 MSTORE POP DUP8 DUP2 PUSH1 0x1 DUP2 MLOAD DUP2 LT PUSH2 0xD6A JUMPI INVALID JUMPDEST PUSH1 0x20 MUL PUSH1 0x20 ADD ADD DUP2 SWAP1 MSTORE POP DUP6 DUP2 PUSH1 0x2 DUP2 MLOAD DUP2 LT PUSH2 0xD83 JUMPI INVALID JUMPDEST PUSH1 0x20 MUL PUSH1 0x20 ADD ADD DUP2 SWAP1 MSTORE POP DUP4 DUP2 PUSH1 0x3 DUP2 MLOAD DUP2 LT PUSH2 0xD9C JUMPI INVALID JUMPDEST PUSH1 0x20 MUL PUSH1 0x20 ADD ADD DUP2 SWAP1 MSTORE POP PUSH2 0xDB1 DUP3 DUP3 PUSH2 0xDC0 JUMP JUMPDEST SWAP12 SWAP11 POP POP POP POP POP POP POP POP POP POP POP JUMP JUMPDEST PUSH1 0x0 DUP2 MLOAD DUP4 MLOAD EQ PUSH2 0xE11 JUMPI PUSH1 0x40 DUP1 MLOAD PUSH3 0x461BCD PUSH1 0xE5 SHL DUP2 MSTORE PUSH1 0x20 PUSH1 0x4 DUP3 ADD MSTORE PUSH1 0x16 PUSH1 0x24 DUP3 ADD MSTORE PUSH22 0x1C185A5C9A5B99CB5B195B99DD1A1CCB59985A5B1959 PUSH1 0x52 SHL PUSH1 0x44 DUP3 ADD MSTORE SWAP1 MLOAD SWAP1 DUP2 SWAP1 SUB PUSH1 0x64 ADD SWAP1 REVERT JUMPDEST DUP3 MLOAD PUSH1 0x6 DUP2 MUL PUSH1 0x60 DUP2 PUSH8 0xFFFFFFFFFFFFFFFF DUP2 GT DUP1 ISZERO PUSH2 0xE30 JUMPI PUSH1 0x0 DUP1 REVERT JUMPDEST POP PUSH1 0x40 MLOAD SWAP1 DUP1 DUP3 MSTORE DUP1 PUSH1 0x20 MUL PUSH1 0x20 ADD DUP3 ADD PUSH1 0x40 MSTORE DUP1 ISZERO PUSH2 0xE5A JUMPI DUP2 PUSH1 0x20 ADD PUSH1 0x20 DUP3 MUL DUP1 CALLDATASIZE DUP4 CALLDATACOPY ADD SWAP1 POP JUMPDEST POP SWAP1 POP PUSH1 0x0 JUMPDEST DUP4 DUP2 LT ISZERO PUSH2 0xFDF JUMPI DUP7 DUP2 DUP2 MLOAD DUP2 LT PUSH2 0xE74 JUMPI INVALID JUMPDEST PUSH1 0x20 MUL PUSH1 0x20 ADD ADD MLOAD PUSH1 0x0 ADD MLOAD DUP3 DUP3 PUSH1 0x6 MUL PUSH1 0x0 ADD DUP2 MLOAD DUP2 LT PUSH2 0xE92 JUMPI INVALID JUMPDEST PUSH1 0x20 MUL PUSH1 0x20 ADD ADD DUP2 DUP2 MSTORE POP POP DUP7 DUP2 DUP2 MLOAD DUP2 LT PUSH2 0xEAA JUMPI INVALID JUMPDEST PUSH1 0x20 MUL PUSH1 0x20 ADD ADD MLOAD PUSH1 0x20 ADD MLOAD DUP3 DUP3 PUSH1 0x6 MUL PUSH1 0x1 ADD DUP2 MLOAD DUP2 LT PUSH2 0xEC8 JUMPI INVALID JUMPDEST PUSH1 0x20 MUL PUSH1 0x20 ADD ADD DUP2 DUP2 MSTORE POP POP DUP6 DUP2 DUP2 MLOAD DUP2 LT PUSH2 0xEE0 JUMPI INVALID JUMPDEST PUSH1 0x20 SWAP1 DUP2 MUL SWAP2 SWAP1 SWAP2 ADD ADD MLOAD MLOAD MLOAD DUP3 MLOAD DUP4 SWAP1 PUSH1 0x2 PUSH1 0x6 DUP6 MUL ADD SWAP1 DUP2 LT PUSH2 0xF01 JUMPI INVALID JUMPDEST PUSH1 0x20 MUL PUSH1 0x20 ADD ADD DUP2 DUP2 MSTORE POP POP DUP6 DUP2 DUP2 MLOAD DUP2 LT PUSH2 0xF19 JUMPI INVALID JUMPDEST PUSH1 0x20 SWAP1 DUP2 MUL SWAP2 SWAP1 SWAP2 ADD ADD MLOAD MLOAD PUSH1 0x1 PUSH1 0x20 MUL ADD MLOAD DUP3 DUP3 PUSH1 0x6 MUL PUSH1 0x3 ADD DUP2 MLOAD DUP2 LT PUSH2 0xF3E JUMPI INVALID JUMPDEST PUSH1 0x20 MUL PUSH1 0x20 ADD ADD DUP2 DUP2 MSTORE POP POP DUP6 DUP2 DUP2 MLOAD DUP2 LT PUSH2 0xF56 JUMPI INVALID JUMPDEST PUSH1 0x20 MUL PUSH1 0x20 ADD ADD MLOAD PUSH1 0x20 ADD MLOAD PUSH1 0x0 PUSH1 0x2 DUP2 LT PUSH2 0xF6E JUMPI INVALID JUMPDEST PUSH1 0x20 MUL ADD MLOAD DUP3 DUP3 PUSH1 0x6 MUL PUSH1 0x4 ADD DUP2 MLOAD DUP2 LT PUSH2 0xF85 JUMPI INVALID JUMPDEST PUSH1 0x20 MUL PUSH1 0x20 ADD ADD DUP2 DUP2 MSTORE POP POP DUP6 DUP2 DUP2 MLOAD DUP2 LT PUSH2 0xF9D JUMPI INVALID JUMPDEST PUSH1 0x20 MUL PUSH1 0x20 ADD ADD MLOAD PUSH1 0x20 ADD MLOAD PUSH1 0x1 PUSH1 0x2 DUP2 LT PUSH2 0xFB5 JUMPI INVALID JUMPDEST PUSH1 0x20 MUL ADD MLOAD DUP3 DUP3 PUSH1 0x6 MUL PUSH1 0x5 ADD DUP2 MLOAD DUP2 LT PUSH2 0xFCC JUMPI INVALID JUMPDEST PUSH1 0x20 SWAP1 DUP2 MUL SWAP2 SWAP1 SWAP2 ADD ADD MSTORE PUSH1 0x1 ADD PUSH2 0xE60 JUMP JUMPDEST POP PUSH2 0xFE8 PUSH2 0x114E JUMP JUMPDEST PUSH1 0x0 PUSH1 0x20 DUP3 PUSH1 0x20 DUP7 MUL PUSH1 0x20 DUP7 ADD PUSH1 0x8 PUSH2 0x7D0 GAS SUB STATICCALL SWAP1 POP DUP1 DUP1 ISZERO PUSH2 0xB01 JUMPI POP DUP1 PUSH2 0x1051 JUMPI PUSH1 0x40 DUP1 MLOAD PUSH3 0x461BCD PUSH1 0xE5 SHL DUP2 MSTORE PUSH1 0x20 PUSH1 0x4 DUP3 ADD MSTORE PUSH1 0x15 PUSH1 0x24 DUP3 ADD MSTORE PUSH21 0x1C185A5C9A5B99CB5BDC18DBD9194B59985A5B1959 PUSH1 0x5A SHL PUSH1 0x44 DUP3 ADD MSTORE SWAP1 MLOAD SWAP1 DUP2 SWAP1 SUB PUSH1 0x64 ADD SWAP1 REVERT JUMPDEST POP MLOAD ISZERO ISZERO SWAP7 SWAP6 POP POP POP POP POP POP JUMP JUMPDEST PUSH1 0x40 MLOAD DUP1 PUSH1 0x60 ADD PUSH1 0x40 MSTORE DUP1 PUSH2 0x1072 PUSH2 0x10D8 JUMP JUMPDEST DUP2 MSTORE PUSH1 0x20 ADD PUSH2 0x107F PUSH2 0x112E JUMP JUMPDEST DUP2 MSTORE PUSH1 0x20 ADD PUSH2 0x108C PUSH2 0x10D8 JUMP JUMPDEST SWAP1 MSTORE SWAP1 JUMP JUMPDEST PUSH1 0x40 MLOAD DUP1 PUSH1 0xA0 ADD PUSH1 0x40 MSTORE DUP1 PUSH2 0x10A4 PUSH2 0x10D8 JUMP JUMPDEST DUP2 MSTORE PUSH1 0x20 ADD PUSH2 0x10B1 PUSH2 0x112E JUMP JUMPDEST DUP2 MSTORE PUSH1 0x20 ADD PUSH2 0x10BE PUSH2 0x112E JUMP JUMPDEST DUP2 MSTORE PUSH1 0x20 ADD PUSH2 0x10CB PUSH2 0x112E JUMP JUMPDEST DUP2 MSTORE PUSH1 0x20 ADD PUSH1 0x60 DUP2 MSTORE POP SWAP1 JUMP JUMPDEST PUSH1 0x40 MLOAD DUP1 PUSH1 0x40 ADD PUSH1 0x40 MSTORE DUP1 PUSH1 0x0 DUP2 MSTORE PUSH1 0x20 ADD PUSH1 0x0 DUP2 MSTORE POP SWAP1 JUMP JUMPDEST PUSH1 0x40 MLOAD DUP1 PUSH1 0x60 ADD PUSH1 0x40 MSTORE DUP1 PUSH1 0x3 SWAP1 PUSH1 0x20 DUP3 MUL DUP1 CALLDATASIZE DUP4 CALLDATACOPY POP SWAP2 SWAP3 SWAP2 POP POP JUMP JUMPDEST PUSH1 0x40 MLOAD DUP1 PUSH1 0x80 ADD PUSH1 0x40 MSTORE DUP1 PUSH1 0x4 SWAP1 PUSH1 0x20 DUP3 MUL DUP1 CALLDATASIZE DUP4 CALLDATACOPY POP SWAP2 SWAP3 SWAP2 POP POP JUMP JUMPDEST PUSH1 0x40 MLOAD DUP1 PUSH1 0x40 ADD PUSH1 0x40 MSTORE DUP1 PUSH2 0x1141 PUSH2 0x116C JUMP JUMPDEST DUP2 MSTORE PUSH1 0x20 ADD PUSH2 0x108C PUSH2 0x116C JUMP JUMPDEST PUSH1 0x40 MLOAD DUP1 PUSH1 0x20 ADD PUSH1 0x40 MSTORE DUP1 PUSH1 0x1 SWAP1 PUSH1 0x20 DUP3 MUL DUP1 CALLDATASIZE DUP4 CALLDATACOPY POP SWAP2 SWAP3 SWAP2 POP POP JUMP JUMPDEST PUSH1 0x40 MLOAD DUP1 PUSH1 0x40 ADD PUSH1 0x40 MSTORE DUP1 PUSH1 0x2 SWAP1 PUSH1 0x20 DUP3 MUL DUP1 CALLDATASIZE DUP4 CALLDATACOPY POP SWAP2 SWAP3 SWAP2 POP POP JUMP INVALID LOG2 PUSH5 0x6970667358 0x22 SLT KECCAK256 DUP12 CALLDATACOPY STATICCALL 0x5F DELEGATECALL 0xC1 CALLDATASIZE 0xBF 0xF8 BYTE 0xC0 PUSH10 0xC2EC8AFAB95B377DF368 0xC2 0xC8 CODECOPY PUSH31 0x387D146840BF64736F6C634300060C00330000000000000000000000000000 "},"methodIdentifiers":{"verifyProof(uint256[2],uint256[2][2],uint256[2],uint256[8])":"c9219a7a"}}}}}