{"contracts/Verifier2.sol":{"Verifier2":{"abi":[{"inputs":[{"internalType":"uint256[2]","name":"a","type":"uint256[2]"},{"internalType":"uint256[2][2]","name":"b","type":"uint256[2][2]"},{"internalType":"uint256[2]","name":"c","type":"uint256[2]"},{"internalType":"uint256[8]","name":"input","type":"uint256[8]"}],"name":"verifyProof","outputs":[{"internalType":"bool","name":"r","type":"bool"}],"stateMutability":"view","type":"function"}],"evm":{"bytecode":{"linkReferences":{},"object":"608060405234801561001057600080fd5b506111be806100206000396000f3fe608060405234801561001057600080fd5b506004361061002b5760003560e01c8063c9219a7a14610030575b600080fd5b61012d600480360361020081101561004757600080fd5b6040805180820182529183019291818301918390600290839083908082843760009201829052506040805180820190915293969594608081019493509150600290835b828210156100c8576040805180820182529080840286019060029083908390808284376000920191909152505050815260019091019060200161008a565b505060408051808201825293969594818101949350915060029083908390808284376000920191909152505060408051610100818101909252929594938181019392509060089083908390808284376000920191909152509194506101419350505050565b604080519115158252519081900360200190f35b600061014b61105d565b6040805180820182528751815260208089015181830152908352815160808101835287515181840190815288518301516060808401919091529082528351808501855289840180515182525184015181850152828401528483019190915282518084018452875181528783015181840152848401528251600880825261012082019094529092909182016101008036833701905050905060005b600881101561021e578481600881106101fa57fe5b602002015182828151811061020b57fe5b60209081029190910101526001016101e5565b506102298183610247565b6102385760019250505061023f565b6000925050505b949350505050565b60007f30644e72e131a029b85045b68181585d2833e84879b9709143e1f593f000000161027261108f565b61027a610423565b90508060800151518551600101146102ce576040805162461bcd60e51b81526020600482015260126024820152711d995c9a599a595c8b5898590b5a5b9c1d5d60721b604482015290519081900360640190fd5b6102d66110d6565b6040518060400160405280600081526020016000815250905060005b86518110156103ac578387828151811061030857fe5b602002602001015110610362576040805162461bcd60e51b815260206004820152601f60248201527f76657269666965722d6774652d736e61726b2d7363616c61722d6669656c6400604482015290519081900360640190fd5b6103a28261039d8560800151846001018151811061037c57fe5b60200260200101518a858151811061039057fe5b6020026020010151610abd565b610b52565b91506001016102f2565b506103cf8183608001516000815181106103c257fe5b6020026020010151610b52565b90506104056103e18660000151610be3565b8660200151846000015185602001518587604001518b604001518960600151610c6f565b610415576001935050505061041d565b600093505050505b92915050565b61042b61108f565b6040805180820182527f2d4d9aa7e302d9df41749d5507949d05dbea33fbb16c643b22f599a2be6df2e281527f14bedd503c37ceb061d8ec60209fe345ce89830a19230301f076caff004d19266020808301919091529083528151608080820184527f0967032fcbf776d1afc985f88877f182d38480a653f2decaa9794cbc3bf3060c8285019081527f0e187847ad4c798374d0d6732bf501847dd68bc0e071241e0213bc7fc13db7ab606080850191909152908352845180860186527f304cfbd1e08a704a99f5e847d93f8c3caafddec46b7a0d379da69a4d112346a781527f1739c1b1a457a8c7313123d24d2f9192f896b7c63eea05a9d57f06547ad0cec8818601528385015285840192909252835180820185527f198e9393920d483a7260bfb731fb5d25f1aa493335a9e71297e485b7aef312c28186019081527f1800deef121f1e76426a00665e5c4479674322d4f75edadd46debd5cd992f6ed828501528152845180860186527f090689d0585ff075ec9e99ad690c3395bc4b313370b38ef355acdadcd122975b81527f12c85ea5db8c6deb4aab71808dcb408fe3d1e7690c43d37b4ce6cc0166fa7daa818601528185015285850152835190810184527f08d75dddc9f4c5ae90ba01c9f1324b0d8c683013974a3876c21e90e1f556f55c8185019081527f2a4e4fec1aec86b3fdf8fabadb1eeb7c15503176469e46e773e48121064403fa828401528152835180850185527f21b7ebf5798fc0e9f6443c3fabc176fa36114d2e964aea3407b41c265be38bab81527f138b4e3e198bfc0d7d23cea22cd88a52ddc7736cfa4eac16ab2bdef3bbc599b3818501528184015290840152815160098082526101408201909352919082015b6106af6110d6565b8152602001906001900390816106a757505060808201908152604080518082019091527f10fbb98839e6ca67b072515c5df28a4d14b7401fb71963e0469a131309d0658b81527f1af581ead335951cd602f2ac172a00514bb0365324970123d6d3f895fa1656bb60208201529051805160009061072857fe5b602002602001018190525060405180604001604052807f098010170b1e5199ec534f93f99eef78b659bbaaa21f681ded831ad7fd567d0681526020017f24adba7d4d846feccb506a86c5e398b3d94a99372c147b58aebab2f93f107491815250816080015160018151811061079957fe5b602002602001018190525060405180604001604052807f2690611efbfe68ab96b4589655ce68412ad16bb2dce3b8692b753acf5cb0124881526020017ee66cc53d46f138390430ee812d17c88b3b1f865ba833bd94bf0a7592807845815250816080015160028151811061080957fe5b602002602001018190525060405180604001604052807f0938310eb534ddfa43d4fbf8133a5b6351ba668bb857892960fb960017ffbc8c81526020017f2f76b4d95cc9b25a3197461477ab9d2a417b51a51fbf74a4d5a9ec17c4ecc54d815250816080015160038151811061087a57fe5b602002602001018190525060405180604001604052807f01cc0ee70e57a15e032e171d869511f28757ac963ebb1dce5d1e5b3d5451e8d081526020017f09d1eb9fc15ab836408fd53382326800198a4de4bc627dce105dd16e665c1b6681525081608001516004815181106108eb57fe5b602002602001018190525060405180604001604052807f2ea12997fdb723b5cd79475e0f00d9b4cde687d73168380ba1fd509e2e6c6be881526020017f030a49daef5c7dd93e81c5cdee776f32e5c3b9c43c958660ea994355ff73c0e1815250816080015160058151811061095c57fe5b602002602001018190525060405180604001604052807f0d4bea08ac5281470b3fb8858087ae878d8f870950b27635a387e433525c3fce81526020017f0ea629cca8e70882a268922d22db94143acfd49abb522fa1822907c87de651a381525081608001516006815181106109cd57fe5b602002602001018190525060405180604001604052807f1d1abfeea6e75eeb6eae29360714ab961fb58c80c5b88fe79e6a25f815bbb35881526020017f2c85d45401d7cbfef2e46a1bbffc71bcda624ee7b5b36727634d1b4438dd887d8152508160800151600781518110610a3e57fe5b602002602001018190525060405180604001604052807f0dcfbe0929036456e745c33a12a40ad77090a2f931500f2d2657778ac2f2fd8381526020017f17c6c8645788b0a7c7d7cdf4ad84394abcdf74fdef834d55f8ba5a9e5f78ed578152508160800151600881518110610aaf57fe5b602002602001018190525090565b610ac56110d6565b610acd6110f0565b835181526020808501519082015260408101839052600060608360808460076107d05a03fa9050808015610b0057610b02565bfe5b5080610b4a576040805162461bcd60e51b81526020600482015260126024820152711c185a5c9a5b99cb5b5d5b0b59985a5b195960721b604482015290519081900360640190fd5b505092915050565b610b5a6110d6565b610b6261110e565b8351815260208085015181830152835160408301528301516060808301919091526000908360c08460066107d05a03fa9050808015610b00575080610b4a576040805162461bcd60e51b81526020600482015260126024820152711c185a5c9a5b99cb5859190b59985a5b195960721b604482015290519081900360640190fd5b610beb6110d6565b81517f30644e72e131a029b85045b68181585d97816a916871ca8d3c208c16d87cfd4790158015610c1e57506020830151155b15610c3e5750506040805180820190915260008082526020820152610c6a565b60405180604001604052808460000151815260200182856020015181610c6057fe5b0683038152509150505b919050565b60408051600480825260a0820190925260009160609190816020015b610c936110d6565b815260200190600190039081610c8b57505060408051600480825260a0820190925291925060609190602082015b610cc961112c565b815260200190600190039081610cc15790505090508a82600081518110610cec57fe5b60200260200101819052508882600181518110610d0557fe5b60200260200101819052508682600281518110610d1e57fe5b60200260200101819052508482600381518110610d3757fe5b60200260200101819052508981600081518110610d5057fe5b60200260200101819052508781600181518110610d6957fe5b60200260200101819052508581600281518110610d8257fe5b60200260200101819052508381600381518110610d9b57fe5b6020026020010181905250610db08282610dbf565b9b9a5050505050505050505050565b60008151835114610e10576040805162461bcd60e51b81526020600482015260166024820152751c185a5c9a5b99cb5b195b99dd1a1ccb59985a5b195960521b604482015290519081900360640190fd5b8251600681026060816001600160401b0381118015610e2e57600080fd5b50604051908082528060200260200182016040528015610e58578160200160208202803683370190505b50905060005b83811015610fdd57868181518110610e7257fe5b602002602001015160000151828260060260000181518110610e9057fe5b602002602001018181525050868181518110610ea857fe5b602002602001015160200151828260060260010181518110610ec657fe5b602002602001018181525050858181518110610ede57fe5b602090810291909101015151518251839060026006850201908110610eff57fe5b602002602001018181525050858181518110610f1757fe5b60209081029190910101515160016020020151828260060260030181518110610f3c57fe5b602002602001018181525050858181518110610f5457fe5b602002602001015160200151600060028110610f6c57fe5b6020020151828260060260040181518110610f8357fe5b602002602001018181525050858181518110610f9b57fe5b602002602001015160200151600160028110610fb357fe5b6020020151828260060260050181518110610fca57fe5b6020908102919091010152600101610e5e565b50610fe661114c565b6000602082602086026020860160086107d05a03fa9050808015610b0057508061104f576040805162461bcd60e51b81526020600482015260156024820152741c185a5c9a5b99cb5bdc18dbd9194b59985a5b1959605a1b604482015290519081900360640190fd5b505115159695505050505050565b60405180606001604052806110706110d6565b815260200161107d61112c565b815260200161108a6110d6565b905290565b6040518060a001604052806110a26110d6565b81526020016110af61112c565b81526020016110bc61112c565b81526020016110c961112c565b8152602001606081525090565b604051806040016040528060008152602001600081525090565b60405180606001604052806003906020820280368337509192915050565b60405180608001604052806004906020820280368337509192915050565b604051806040016040528061113f61116a565b815260200161108a61116a565b60405180602001604052806001906020820280368337509192915050565b6040518060400160405280600290602082028036833750919291505056fea264697066735822122020f3fab322582fc9f4302b9e5dbed9f86eb7460f9788aee7fcbcaff8dd5b7fd164736f6c634300060c0033","opcodes":"PUSH1 0x80 PUSH1 0x40 MSTORE CALLVALUE DUP1 ISZERO PUSH2 0x10 JUMPI PUSH1 0x0 DUP1 REVERT JUMPDEST POP PUSH2 0x11BE DUP1 PUSH2 0x20 PUSH1 0x0 CODECOPY PUSH1 0x0 RETURN INVALID PUSH1 0x80 PUSH1 0x40 MSTORE CALLVALUE DUP1 ISZERO PUSH2 0x10 JUMPI PUSH1 0x0 DUP1 REVERT JUMPDEST POP PUSH1 0x4 CALLDATASIZE LT PUSH2 0x2B JUMPI PUSH1 0x0 CALLDATALOAD PUSH1 0xE0 SHR DUP1 PUSH4 0xC9219A7A EQ PUSH2 0x30 JUMPI JUMPDEST PUSH1 0x0 DUP1 REVERT JUMPDEST PUSH2 0x12D PUSH1 0x4 DUP1 CALLDATASIZE SUB PUSH2 0x200 DUP2 LT ISZERO PUSH2 0x47 JUMPI PUSH1 0x0 DUP1 REVERT JUMPDEST PUSH1 0x40 DUP1 MLOAD DUP1 DUP3 ADD DUP3 MSTORE SWAP2 DUP4 ADD SWAP3 SWAP2 DUP2 DUP4 ADD SWAP2 DUP4 SWAP1 PUSH1 0x2 SWAP1 DUP4 SWAP1 DUP4 SWAP1 DUP1 DUP3 DUP5 CALLDATACOPY PUSH1 0x0 SWAP3 ADD DUP3 SWAP1 MSTORE POP PUSH1 0x40 DUP1 MLOAD DUP1 DUP3 ADD SWAP1 SWAP2 MSTORE SWAP4 SWAP7 SWAP6 SWAP5 PUSH1 0x80 DUP2 ADD SWAP5 SWAP4 POP SWAP2 POP PUSH1 0x2 SWAP1 DUP4 JUMPDEST DUP3 DUP3 LT ISZERO PUSH2 0xC8 JUMPI PUSH1 0x40 DUP1 MLOAD DUP1 DUP3 ADD DUP3 MSTORE SWAP1 DUP1 DUP5 MUL DUP7 ADD SWAP1 PUSH1 0x2 SWAP1 DUP4 SWAP1 DUP4 SWAP1 DUP1 DUP3 DUP5 CALLDATACOPY PUSH1 0x0 SWAP3 ADD SWAP2 SWAP1 SWAP2 MSTORE POP POP POP DUP2 MSTORE PUSH1 0x1 SWAP1 SWAP2 ADD SWAP1 PUSH1 0x20 ADD PUSH2 0x8A JUMP JUMPDEST POP POP PUSH1 0x40 DUP1 MLOAD DUP1 DUP3 ADD DUP3 MSTORE SWAP4 SWAP7 SWAP6 SWAP5 DUP2 DUP2 ADD SWAP5 SWAP4 POP SWAP2 POP PUSH1 0x2 SWAP1 DUP4 SWAP1 DUP4 SWAP1 DUP1 DUP3 DUP5 CALLDATACOPY PUSH1 0x0 SWAP3 ADD SWAP2 SWAP1 SWAP2 MSTORE POP POP PUSH1 0x40 DUP1 MLOAD PUSH2 0x100 DUP2 DUP2 ADD SWAP1 SWAP3 MSTORE SWAP3 SWAP6 SWAP5 SWAP4 DUP2 DUP2 ADD SWAP4 SWAP3 POP SWAP1 PUSH1 0x8 SWAP1 DUP4 SWAP1 DUP4 SWAP1 DUP1 DUP3 DUP5 CALLDATACOPY PUSH1 0x0 SWAP3 ADD SWAP2 SWAP1 SWAP2 MSTORE POP SWAP2 SWAP5 POP PUSH2 0x141 SWAP4 POP POP POP POP JUMP JUMPDEST PUSH1 0x40 DUP1 MLOAD SWAP2 ISZERO ISZERO DUP3 MSTORE MLOAD SWAP1 DUP2 SWAP1 SUB PUSH1 0x20 ADD SWAP1 RETURN JUMPDEST PUSH1 0x0 PUSH2 0x14B PUSH2 0x105D JUMP JUMPDEST PUSH1 0x40 DUP1 MLOAD DUP1 DUP3 ADD DUP3 MSTORE DUP8 MLOAD DUP2 MSTORE PUSH1 0x20 DUP1 DUP10 ADD MLOAD DUP2 DUP4 ADD MSTORE SWAP1 DUP4 MSTORE DUP2 MLOAD PUSH1 0x80 DUP2 ADD DUP4 MSTORE DUP8 MLOAD MLOAD DUP2 DUP5 ADD SWAP1 DUP2 MSTORE DUP9 MLOAD DUP4 ADD MLOAD PUSH1 0x60 DUP1 DUP5 ADD SWAP2 SWAP1 SWAP2 MSTORE SWAP1 DUP3 MSTORE DUP4 MLOAD DUP1 DUP6 ADD DUP6 MSTORE DUP10 DUP5 ADD DUP1 MLOAD MLOAD DUP3 MSTORE MLOAD DUP5 ADD MLOAD DUP2 DUP6 ADD MSTORE DUP3 DUP5 ADD MSTORE DUP5 DUP4 ADD SWAP2 SWAP1 SWAP2 MSTORE DUP3 MLOAD DUP1 DUP5 ADD DUP5 MSTORE DUP8 MLOAD DUP2 MSTORE DUP8 DUP4 ADD MLOAD DUP2 DUP5 ADD MSTORE DUP5 DUP5 ADD MSTORE DUP3 MLOAD PUSH1 0x8 DUP1 DUP3 MSTORE PUSH2 0x120 DUP3 ADD SWAP1 SWAP5 MSTORE SWAP1 SWAP3 SWAP1 SWAP2 DUP3 ADD PUSH2 0x100 DUP1 CALLDATASIZE DUP4 CALLDATACOPY ADD SWAP1 POP POP SWAP1 POP PUSH1 0x0 JUMPDEST PUSH1 0x8 DUP2 LT ISZERO PUSH2 0x21E JUMPI DUP5 DUP2 PUSH1 0x8 DUP2 LT PUSH2 0x1FA JUMPI INVALID JUMPDEST PUSH1 0x20 MUL ADD MLOAD DUP3 DUP3 DUP2 MLOAD DUP2 LT PUSH2 0x20B JUMPI INVALID JUMPDEST PUSH1 0x20 SWAP1 DUP2 MUL SWAP2 SWAP1 SWAP2 ADD ADD MSTORE PUSH1 0x1 ADD PUSH2 0x1E5 JUMP JUMPDEST POP PUSH2 0x229 DUP2 DUP4 PUSH2 0x247 JUMP JUMPDEST PUSH2 0x238 JUMPI PUSH1 0x1 SWAP3 POP POP POP PUSH2 0x23F JUMP JUMPDEST PUSH1 0x0 SWAP3 POP POP POP JUMPDEST SWAP5 SWAP4 POP POP POP POP JUMP JUMPDEST PUSH1 0x0 PUSH32 0x30644E72E131A029B85045B68181585D2833E84879B9709143E1F593F0000001 PUSH2 0x272 PUSH2 0x108F JUMP JUMPDEST PUSH2 0x27A PUSH2 0x423 JUMP JUMPDEST SWAP1 POP DUP1 PUSH1 0x80 ADD MLOAD MLOAD DUP6 MLOAD PUSH1 0x1 ADD EQ PUSH2 0x2CE JUMPI PUSH1 0x40 DUP1 MLOAD PUSH3 0x461BCD PUSH1 0xE5 SHL DUP2 MSTORE PUSH1 0x20 PUSH1 0x4 DUP3 ADD MSTORE PUSH1 0x12 PUSH1 0x24 DUP3 ADD MSTORE PUSH18 0x1D995C9A599A595C8B5898590B5A5B9C1D5D PUSH1 0x72 SHL PUSH1 0x44 DUP3 ADD MSTORE SWAP1 MLOAD SWAP1 DUP2 SWAP1 SUB PUSH1 0x64 ADD SWAP1 REVERT JUMPDEST PUSH2 0x2D6 PUSH2 0x10D6 JUMP JUMPDEST PUSH1 0x40 MLOAD DUP1 PUSH1 0x40 ADD PUSH1 0x40 MSTORE DUP1 PUSH1 0x0 DUP2 MSTORE PUSH1 0x20 ADD PUSH1 0x0 DUP2 MSTORE POP SWAP1 POP PUSH1 0x0 JUMPDEST DUP7 MLOAD DUP2 LT ISZERO PUSH2 0x3AC JUMPI DUP4 DUP8 DUP3 DUP2 MLOAD DUP2 LT PUSH2 0x308 JUMPI INVALID JUMPDEST PUSH1 0x20 MUL PUSH1 0x20 ADD ADD MLOAD LT PUSH2 0x362 JUMPI PUSH1 0x40 DUP1 MLOAD PUSH3 0x461BCD PUSH1 0xE5 SHL DUP2 MSTORE PUSH1 0x20 PUSH1 0x4 DUP3 ADD MSTORE PUSH1 0x1F PUSH1 0x24 DUP3 ADD MSTORE PUSH32 0x76657269666965722D6774652D736E61726B2D7363616C61722D6669656C6400 PUSH1 0x44 DUP3 ADD MSTORE SWAP1 MLOAD SWAP1 DUP2 SWAP1 SUB PUSH1 0x64 ADD SWAP1 REVERT JUMPDEST PUSH2 0x3A2 DUP3 PUSH2 0x39D DUP6 PUSH1 0x80 ADD MLOAD DUP5 PUSH1 0x1 ADD DUP2 MLOAD DUP2 LT PUSH2 0x37C JUMPI INVALID JUMPDEST PUSH1 0x20 MUL PUSH1 0x20 ADD ADD MLOAD DUP11 DUP6 DUP2 MLOAD DUP2 LT PUSH2 0x390 JUMPI INVALID JUMPDEST PUSH1 0x20 MUL PUSH1 0x20 ADD ADD MLOAD PUSH2 0xABD JUMP JUMPDEST PUSH2 0xB52 JUMP JUMPDEST SWAP2 POP PUSH1 0x1 ADD PUSH2 0x2F2 JUMP JUMPDEST POP PUSH2 0x3CF DUP2 DUP4 PUSH1 0x80 ADD MLOAD PUSH1 0x0 DUP2 MLOAD DUP2 LT PUSH2 0x3C2 JUMPI INVALID JUMPDEST PUSH1 0x20 MUL PUSH1 0x20 ADD ADD MLOAD PUSH2 0xB52 JUMP JUMPDEST SWAP1 POP PUSH2 0x405 PUSH2 0x3E1 DUP7 PUSH1 0x0 ADD MLOAD PUSH2 0xBE3 JUMP JUMPDEST DUP7 PUSH1 0x20 ADD MLOAD DUP5 PUSH1 0x0 ADD MLOAD DUP6 PUSH1 0x20 ADD MLOAD DUP6 DUP8 PUSH1 0x40 ADD MLOAD DUP12 PUSH1 0x40 ADD MLOAD DUP10 PUSH1 0x60 ADD MLOAD PUSH2 0xC6F JUMP JUMPDEST PUSH2 0x415 JUMPI PUSH1 0x1 SWAP4 POP POP POP POP PUSH2 0x41D JUMP JUMPDEST PUSH1 0x0 SWAP4 POP POP POP POP JUMPDEST SWAP3 SWAP2 POP POP JUMP JUMPDEST PUSH2 0x42B PUSH2 0x108F JUMP JUMPDEST PUSH1 0x40 DUP1 MLOAD DUP1 DUP3 ADD DUP3 MSTORE PUSH32 0x2D4D9AA7E302D9DF41749D5507949D05DBEA33FBB16C643B22F599A2BE6DF2E2 DUP2 MSTORE PUSH32 0x14BEDD503C37CEB061D8EC60209FE345CE89830A19230301F076CAFF004D1926 PUSH1 0x20 DUP1 DUP4 ADD SWAP2 SWAP1 SWAP2 MSTORE SWAP1 DUP4 MSTORE DUP2 MLOAD PUSH1 0x80 DUP1 DUP3 ADD DUP5 MSTORE PUSH32 0x967032FCBF776D1AFC985F88877F182D38480A653F2DECAA9794CBC3BF3060C DUP3 DUP6 ADD SWAP1 DUP2 MSTORE PUSH32 0xE187847AD4C798374D0D6732BF501847DD68BC0E071241E0213BC7FC13DB7AB PUSH1 0x60 DUP1 DUP6 ADD SWAP2 SWAP1 SWAP2 MSTORE SWAP1 DUP4 MSTORE DUP5 MLOAD DUP1 DUP7 ADD DUP7 MSTORE PUSH32 0x304CFBD1E08A704A99F5E847D93F8C3CAAFDDEC46B7A0D379DA69A4D112346A7 DUP2 MSTORE PUSH32 0x1739C1B1A457A8C7313123D24D2F9192F896B7C63EEA05A9D57F06547AD0CEC8 DUP2 DUP7 ADD MSTORE DUP4 DUP6 ADD MSTORE DUP6 DUP5 ADD SWAP3 SWAP1 SWAP3 MSTORE DUP4 MLOAD DUP1 DUP3 ADD DUP6 MSTORE PUSH32 0x198E9393920D483A7260BFB731FB5D25F1AA493335A9E71297E485B7AEF312C2 DUP2 DUP7 ADD SWAP1 DUP2 MSTORE PUSH32 0x1800DEEF121F1E76426A00665E5C4479674322D4F75EDADD46DEBD5CD992F6ED DUP3 DUP6 ADD MSTORE DUP2 MSTORE DUP5 MLOAD DUP1 DUP7 ADD DUP7 MSTORE PUSH32 0x90689D0585FF075EC9E99AD690C3395BC4B313370B38EF355ACDADCD122975B DUP2 MSTORE PUSH32 0x12C85EA5DB8C6DEB4AAB71808DCB408FE3D1E7690C43D37B4CE6CC0166FA7DAA DUP2 DUP7 ADD MSTORE DUP2 DUP6 ADD MSTORE DUP6 DUP6 ADD MSTORE DUP4 MLOAD SWAP1 DUP2 ADD DUP5 MSTORE PUSH32 0x8D75DDDC9F4C5AE90BA01C9F1324B0D8C683013974A3876C21E90E1F556F55C DUP2 DUP6 ADD SWAP1 DUP2 MSTORE PUSH32 0x2A4E4FEC1AEC86B3FDF8FABADB1EEB7C15503176469E46E773E48121064403FA DUP3 DUP5 ADD MSTORE DUP2 MSTORE DUP4 MLOAD DUP1 DUP6 ADD DUP6 MSTORE PUSH32 0x21B7EBF5798FC0E9F6443C3FABC176FA36114D2E964AEA3407B41C265BE38BAB DUP2 MSTORE PUSH32 0x138B4E3E198BFC0D7D23CEA22CD88A52DDC7736CFA4EAC16AB2BDEF3BBC599B3 DUP2 DUP6 ADD MSTORE DUP2 DUP5 ADD MSTORE SWAP1 DUP5 ADD MSTORE DUP2 MLOAD PUSH1 0x9 DUP1 DUP3 MSTORE PUSH2 0x140 DUP3 ADD SWAP1 SWAP4 MSTORE SWAP2 SWAP1 DUP3 ADD JUMPDEST PUSH2 0x6AF PUSH2 0x10D6 JUMP JUMPDEST DUP2 MSTORE PUSH1 0x20 ADD SWAP1 PUSH1 0x1 SWAP1 SUB SWAP1 DUP2 PUSH2 0x6A7 JUMPI POP POP PUSH1 0x80 DUP3 ADD SWAP1 DUP2 MSTORE PUSH1 0x40 DUP1 MLOAD DUP1 DUP3 ADD SWAP1 SWAP2 MSTORE PUSH32 0x10FBB98839E6CA67B072515C5DF28A4D14B7401FB71963E0469A131309D0658B DUP2 MSTORE PUSH32 0x1AF581EAD335951CD602F2AC172A00514BB0365324970123D6D3F895FA1656BB PUSH1 0x20 DUP3 ADD MSTORE SWAP1 MLOAD DUP1 MLOAD PUSH1 0x0 SWAP1 PUSH2 0x728 JUMPI INVALID JUMPDEST PUSH1 0x20 MUL PUSH1 0x20 ADD ADD DUP2 SWAP1 MSTORE POP PUSH1 0x40 MLOAD DUP1 PUSH1 0x40 ADD PUSH1 0x40 MSTORE DUP1 PUSH32 0x98010170B1E5199EC534F93F99EEF78B659BBAAA21F681DED831AD7FD567D06 DUP2 MSTORE PUSH1 0x20 ADD PUSH32 0x24ADBA7D4D846FECCB506A86C5E398B3D94A99372C147B58AEBAB2F93F107491 DUP2 MSTORE POP DUP2 PUSH1 0x80 ADD MLOAD PUSH1 0x1 DUP2 MLOAD DUP2 LT PUSH2 0x799 JUMPI INVALID JUMPDEST PUSH1 0x20 MUL PUSH1 0x20 ADD ADD DUP2 SWAP1 MSTORE POP PUSH1 0x40 MLOAD DUP1 PUSH1 0x40 ADD PUSH1 0x40 MSTORE DUP1 PUSH32 0x2690611EFBFE68AB96B4589655CE68412AD16BB2DCE3B8692B753ACF5CB01248 DUP2 MSTORE PUSH1 0x20 ADD PUSH31 0xE66CC53D46F138390430EE812D17C88B3B1F865BA833BD94BF0A7592807845 DUP2 MSTORE POP DUP2 PUSH1 0x80 ADD MLOAD PUSH1 0x2 DUP2 MLOAD DUP2 LT PUSH2 0x809 JUMPI INVALID JUMPDEST PUSH1 0x20 MUL PUSH1 0x20 ADD ADD DUP2 SWAP1 MSTORE POP PUSH1 0x40 MLOAD DUP1 PUSH1 0x40 ADD PUSH1 0x40 MSTORE DUP1 PUSH32 0x938310EB534DDFA43D4FBF8133A5B6351BA668BB857892960FB960017FFBC8C DUP2 MSTORE PUSH1 0x20 ADD PUSH32 0x2F76B4D95CC9B25A3197461477AB9D2A417B51A51FBF74A4D5A9EC17C4ECC54D DUP2 MSTORE POP DUP2 PUSH1 0x80 ADD MLOAD PUSH1 0x3 DUP2 MLOAD DUP2 LT PUSH2 0x87A JUMPI INVALID JUMPDEST PUSH1 0x20 MUL PUSH1 0x20 ADD ADD DUP2 SWAP1 MSTORE POP PUSH1 0x40 MLOAD DUP1 PUSH1 0x40 ADD PUSH1 0x40 MSTORE DUP1 PUSH32 0x1CC0EE70E57A15E032E171D869511F28757AC963EBB1DCE5D1E5B3D5451E8D0 DUP2 MSTORE PUSH1 0x20 ADD PUSH32 0x9D1EB9FC15AB836408FD53382326800198A4DE4BC627DCE105DD16E665C1B66 DUP2 MSTORE POP DUP2 PUSH1 0x80 ADD MLOAD PUSH1 0x4 DUP2 MLOAD DUP2 LT PUSH2 0x8EB JUMPI INVALID JUMPDEST PUSH1 0x20 MUL PUSH1 0x20 ADD ADD DUP2 SWAP1 MSTORE POP PUSH1 0x40 MLOAD DUP1 PUSH1 0x40 ADD PUSH1 0x40 MSTORE DUP1 PUSH32 0x2EA12997FDB723B5CD79475E0F00D9B4CDE687D73168380BA1FD509E2E6C6BE8 DUP2 MSTORE PUSH1 0x20 ADD PUSH32 0x30A49DAEF5C7DD93E81C5CDEE776F32E5C3B9C43C958660EA994355FF73C0E1 DUP2 MSTORE POP DUP2 PUSH1 0x80 ADD MLOAD PUSH1 0x5 DUP2 MLOAD DUP2 LT PUSH2 0x95C JUMPI INVALID JUMPDEST PUSH1 0x20 MUL PUSH1 0x20 ADD ADD DUP2 SWAP1 MSTORE POP PUSH1 0x40 MLOAD DUP1 PUSH1 0x40 ADD PUSH1 0x40 MSTORE DUP1 PUSH32 0xD4BEA08AC5281470B3FB8858087AE878D8F870950B27635A387E433525C3FCE DUP2 MSTORE PUSH1 0x20 ADD PUSH32 0xEA629CCA8E70882A268922D22DB94143ACFD49ABB522FA1822907C87DE651A3 DUP2 MSTORE POP DUP2 PUSH1 0x80 ADD MLOAD PUSH1 0x6 DUP2 MLOAD DUP2 LT PUSH2 0x9CD JUMPI INVALID JUMPDEST PUSH1 0x20 MUL PUSH1 0x20 ADD ADD DUP2 SWAP1 MSTORE POP PUSH1 0x40 MLOAD DUP1 PUSH1 0x40 ADD PUSH1 0x40 MSTORE DUP1 PUSH32 0x1D1ABFEEA6E75EEB6EAE29360714AB961FB58C80C5B88FE79E6A25F815BBB358 DUP2 MSTORE PUSH1 0x20 ADD PUSH32 0x2C85D45401D7CBFEF2E46A1BBFFC71BCDA624EE7B5B36727634D1B4438DD887D DUP2 MSTORE POP DUP2 PUSH1 0x80 ADD MLOAD PUSH1 0x7 DUP2 MLOAD DUP2 LT PUSH2 0xA3E JUMPI INVALID JUMPDEST PUSH1 0x20 MUL PUSH1 0x20 ADD ADD DUP2 SWAP1 MSTORE POP PUSH1 0x40 MLOAD DUP1 PUSH1 0x40 ADD PUSH1 0x40 MSTORE DUP1 PUSH32 0xDCFBE0929036456E745C33A12A40AD77090A2F931500F2D2657778AC2F2FD83 DUP2 MSTORE PUSH1 0x20 ADD PUSH32 0x17C6C8645788B0A7C7D7CDF4AD84394ABCDF74FDEF834D55F8BA5A9E5F78ED57 DUP2 MSTORE POP DUP2 PUSH1 0x80 ADD MLOAD PUSH1 0x8 DUP2 MLOAD DUP2 LT PUSH2 0xAAF JUMPI INVALID JUMPDEST PUSH1 0x20 MUL PUSH1 0x20 ADD ADD DUP2 SWAP1 MSTORE POP SWAP1 JUMP JUMPDEST PUSH2 0xAC5 PUSH2 0x10D6 JUMP JUMPDEST PUSH2 0xACD PUSH2 0x10F0 JUMP JUMPDEST DUP4 MLOAD DUP2 MSTORE PUSH1 0x20 DUP1 DUP6 ADD MLOAD SWAP1 DUP3 ADD MSTORE PUSH1 0x40 DUP2 ADD DUP4 SWAP1 MSTORE PUSH1 0x0 PUSH1 0x60 DUP4 PUSH1 0x80 DUP5 PUSH1 0x7 PUSH2 0x7D0 GAS SUB STATICCALL SWAP1 POP DUP1 DUP1 ISZERO PUSH2 0xB00 JUMPI PUSH2 0xB02 JUMP JUMPDEST INVALID JUMPDEST POP DUP1 PUSH2 0xB4A JUMPI PUSH1 0x40 DUP1 MLOAD PUSH3 0x461BCD PUSH1 0xE5 SHL DUP2 MSTORE PUSH1 0x20 PUSH1 0x4 DUP3 ADD MSTORE PUSH1 0x12 PUSH1 0x24 DUP3 ADD MSTORE PUSH18 0x1C185A5C9A5B99CB5B5D5B0B59985A5B1959 PUSH1 0x72 SHL PUSH1 0x44 DUP3 ADD MSTORE SWAP1 MLOAD SWAP1 DUP2 SWAP1 SUB PUSH1 0x64 ADD SWAP1 REVERT JUMPDEST POP POP SWAP3 SWAP2 POP POP JUMP JUMPDEST PUSH2 0xB5A PUSH2 0x10D6 JUMP JUMPDEST PUSH2 0xB62 PUSH2 0x110E JUMP JUMPDEST DUP4 MLOAD DUP2 MSTORE PUSH1 0x20 DUP1 DUP6 ADD MLOAD DUP2 DUP4 ADD MSTORE DUP4 MLOAD PUSH1 0x40 DUP4 ADD MSTORE DUP4 ADD MLOAD PUSH1 0x60 DUP1 DUP4 ADD SWAP2 SWAP1 SWAP2 MSTORE PUSH1 0x0 SWAP1 DUP4 PUSH1 0xC0 DUP5 PUSH1 0x6 PUSH2 0x7D0 GAS SUB STATICCALL SWAP1 POP DUP1 DUP1 ISZERO PUSH2 0xB00 JUMPI POP DUP1 PUSH2 0xB4A JUMPI PUSH1 0x40 DUP1 MLOAD PUSH3 0x461BCD PUSH1 0xE5 SHL DUP2 MSTORE PUSH1 0x20 PUSH1 0x4 DUP3 ADD MSTORE PUSH1 0x12 PUSH1 0x24 DUP3 ADD MSTORE PUSH18 0x1C185A5C9A5B99CB5859190B59985A5B1959 PUSH1 0x72 SHL PUSH1 0x44 DUP3 ADD MSTORE SWAP1 MLOAD SWAP1 DUP2 SWAP1 SUB PUSH1 0x64 ADD SWAP1 REVERT JUMPDEST PUSH2 0xBEB PUSH2 0x10D6 JUMP JUMPDEST DUP2 MLOAD PUSH32 0x30644E72E131A029B85045B68181585D97816A916871CA8D3C208C16D87CFD47 SWAP1 ISZERO DUP1 ISZERO PUSH2 0xC1E JUMPI POP PUSH1 0x20 DUP4 ADD MLOAD ISZERO JUMPDEST ISZERO PUSH2 0xC3E JUMPI POP POP PUSH1 0x40 DUP1 MLOAD DUP1 DUP3 ADD SWAP1 SWAP2 MSTORE PUSH1 0x0 DUP1 DUP3 MSTORE PUSH1 0x20 DUP3 ADD MSTORE PUSH2 0xC6A JUMP JUMPDEST PUSH1 0x40 MLOAD DUP1 PUSH1 0x40 ADD PUSH1 0x40 MSTORE DUP1 DUP5 PUSH1 0x0 ADD MLOAD DUP2 MSTORE PUSH1 0x20 ADD DUP3 DUP6 PUSH1 0x20 ADD MLOAD DUP2 PUSH2 0xC60 JUMPI INVALID JUMPDEST MOD DUP4 SUB DUP2 MSTORE POP SWAP2 POP POP JUMPDEST SWAP2 SWAP1 POP JUMP JUMPDEST PUSH1 0x40 DUP1 MLOAD PUSH1 0x4 DUP1 DUP3 MSTORE PUSH1 0xA0 DUP3 ADD SWAP1 SWAP3 MSTORE PUSH1 0x0 SWAP2 PUSH1 0x60 SWAP2 SWAP1 DUP2 PUSH1 0x20 ADD JUMPDEST PUSH2 0xC93 PUSH2 0x10D6 JUMP JUMPDEST DUP2 MSTORE PUSH1 0x20 ADD SWAP1 PUSH1 0x1 SWAP1 SUB SWAP1 DUP2 PUSH2 0xC8B JUMPI POP POP PUSH1 0x40 DUP1 MLOAD PUSH1 0x4 DUP1 DUP3 MSTORE PUSH1 0xA0 DUP3 ADD SWAP1 SWAP3 MSTORE SWAP2 SWAP3 POP PUSH1 0x60 SWAP2 SWAP1 PUSH1 0x20 DUP3 ADD JUMPDEST PUSH2 0xCC9 PUSH2 0x112C JUMP JUMPDEST DUP2 MSTORE PUSH1 0x20 ADD SWAP1 PUSH1 0x1 SWAP1 SUB SWAP1 DUP2 PUSH2 0xCC1 JUMPI SWAP1 POP POP SWAP1 POP DUP11 DUP3 PUSH1 0x0 DUP2 MLOAD DUP2 LT PUSH2 0xCEC JUMPI INVALID JUMPDEST PUSH1 0x20 MUL PUSH1 0x20 ADD ADD DUP2 SWAP1 MSTORE POP DUP9 DUP3 PUSH1 0x1 DUP2 MLOAD DUP2 LT PUSH2 0xD05 JUMPI INVALID JUMPDEST PUSH1 0x20 MUL PUSH1 0x20 ADD ADD DUP2 SWAP1 MSTORE POP DUP7 DUP3 PUSH1 0x2 DUP2 MLOAD DUP2 LT PUSH2 0xD1E JUMPI INVALID JUMPDEST PUSH1 0x20 MUL PUSH1 0x20 ADD ADD DUP2 SWAP1 MSTORE POP DUP5 DUP3 PUSH1 0x3 DUP2 MLOAD DUP2 LT PUSH2 0xD37 JUMPI INVALID JUMPDEST PUSH1 0x20 MUL PUSH1 0x20 ADD ADD DUP2 SWAP1 MSTORE POP DUP10 DUP2 PUSH1 0x0 DUP2 MLOAD DUP2 LT PUSH2 0xD50 JUMPI INVALID JUMPDEST PUSH1 0x20 MUL PUSH1 0x20 ADD ADD DUP2 SWAP1 MSTORE POP DUP8 DUP2 PUSH1 0x1 DUP2 MLOAD DUP2 LT PUSH2 0xD69 JUMPI INVALID JUMPDEST PUSH1 0x20 MUL PUSH1 0x20 ADD ADD DUP2 SWAP1 MSTORE POP DUP6 DUP2 PUSH1 0x2 DUP2 MLOAD DUP2 LT PUSH2 0xD82 JUMPI INVALID JUMPDEST PUSH1 0x20 MUL PUSH1 0x20 ADD ADD DUP2 SWAP1 MSTORE POP DUP4 DUP2 PUSH1 0x3 DUP2 MLOAD DUP2 LT PUSH2 0xD9B JUMPI INVALID JUMPDEST PUSH1 0x20 MUL PUSH1 0x20 ADD ADD DUP2 SWAP1 MSTORE POP PUSH2 0xDB0 DUP3 DUP3 PUSH2 0xDBF JUMP JUMPDEST SWAP12 SWAP11 POP POP POP POP POP POP POP POP POP POP POP JUMP JUMPDEST PUSH1 0x0 DUP2 MLOAD DUP4 MLOAD EQ PUSH2 0xE10 JUMPI PUSH1 0x40 DUP1 MLOAD PUSH3 0x461BCD PUSH1 0xE5 SHL DUP2 MSTORE PUSH1 0x20 PUSH1 0x4 DUP3 ADD MSTORE PUSH1 0x16 PUSH1 0x24 DUP3 ADD MSTORE PUSH22 0x1C185A5C9A5B99CB5B195B99DD1A1CCB59985A5B1959 PUSH1 0x52 SHL PUSH1 0x44 DUP3 ADD MSTORE SWAP1 MLOAD SWAP1 DUP2 SWAP1 SUB PUSH1 0x64 ADD SWAP1 REVERT JUMPDEST DUP3 MLOAD PUSH1 0x6 DUP2 MUL PUSH1 0x60 DUP2 PUSH1 0x1 PUSH1 0x1 PUSH1 0x40 SHL SUB DUP2 GT DUP1 ISZERO PUSH2 0xE2E JUMPI PUSH1 0x0 DUP1 REVERT JUMPDEST POP PUSH1 0x40 MLOAD SWAP1 DUP1 DUP3 MSTORE DUP1 PUSH1 0x20 MUL PUSH1 0x20 ADD DUP3 ADD PUSH1 0x40 MSTORE DUP1 ISZERO PUSH2 0xE58 JUMPI DUP2 PUSH1 0x20 ADD PUSH1 0x20 DUP3 MUL DUP1 CALLDATASIZE DUP4 CALLDATACOPY ADD SWAP1 POP JUMPDEST POP SWAP1 POP PUSH1 0x0 JUMPDEST DUP4 DUP2 LT ISZERO PUSH2 0xFDD JUMPI DUP7 DUP2 DUP2 MLOAD DUP2 LT PUSH2 0xE72 JUMPI INVALID JUMPDEST PUSH1 0x20 MUL PUSH1 0x20 ADD ADD MLOAD PUSH1 0x0 ADD MLOAD DUP3 DUP3 PUSH1 0x6 MUL PUSH1 0x0 ADD DUP2 MLOAD DUP2 LT PUSH2 0xE90 JUMPI INVALID JUMPDEST PUSH1 0x20 MUL PUSH1 0x20 ADD ADD DUP2 DUP2 MSTORE POP POP DUP7 DUP2 DUP2 MLOAD DUP2 LT PUSH2 0xEA8 JUMPI INVALID JUMPDEST PUSH1 0x20 MUL PUSH1 0x20 ADD ADD MLOAD PUSH1 0x20 ADD MLOAD DUP3 DUP3 PUSH1 0x6 MUL PUSH1 0x1 ADD DUP2 MLOAD DUP2 LT PUSH2 0xEC6 JUMPI INVALID JUMPDEST PUSH1 0x20 MUL PUSH1 0x20 ADD ADD DUP2 DUP2 MSTORE POP POP DUP6 DUP2 DUP2 MLOAD DUP2 LT PUSH2 0xEDE JUMPI INVALID JUMPDEST PUSH1 0x20 SWAP1 DUP2 MUL SWAP2 SWAP1 SWAP2 ADD ADD MLOAD MLOAD MLOAD DUP3 MLOAD DUP4 SWAP1 PUSH1 0x2 PUSH1 0x6 DUP6 MUL ADD SWAP1 DUP2 LT PUSH2 0xEFF JUMPI INVALID JUMPDEST PUSH1 0x20 MUL PUSH1 0x20 ADD ADD DUP2 DUP2 MSTORE POP POP DUP6 DUP2 DUP2 MLOAD DUP2 LT PUSH2 0xF17 JUMPI INVALID JUMPDEST PUSH1 0x20 SWAP1 DUP2 MUL SWAP2 SWAP1 SWAP2 ADD ADD MLOAD MLOAD PUSH1 0x1 PUSH1 0x20 MUL ADD MLOAD DUP3 DUP3 PUSH1 0x6 MUL PUSH1 0x3 ADD DUP2 MLOAD DUP2 LT PUSH2 0xF3C JUMPI INVALID JUMPDEST PUSH1 0x20 MUL PUSH1 0x20 ADD ADD DUP2 DUP2 MSTORE POP POP DUP6 DUP2 DUP2 MLOAD DUP2 LT PUSH2 0xF54 JUMPI INVALID JUMPDEST PUSH1 0x20 MUL PUSH1 0x20 ADD ADD MLOAD PUSH1 0x20 ADD MLOAD PUSH1 0x0 PUSH1 0x2 DUP2 LT PUSH2 0xF6C JUMPI INVALID JUMPDEST PUSH1 0x20 MUL ADD MLOAD DUP3 DUP3 PUSH1 0x6 MUL PUSH1 0x4 ADD DUP2 MLOAD DUP2 LT PUSH2 0xF83 JUMPI INVALID JUMPDEST PUSH1 0x20 MUL PUSH1 0x20 ADD ADD DUP2 DUP2 MSTORE POP POP DUP6 DUP2 DUP2 MLOAD DUP2 LT PUSH2 0xF9B JUMPI INVALID JUMPDEST PUSH1 0x20 MUL PUSH1 0x20 ADD ADD MLOAD PUSH1 0x20 ADD MLOAD PUSH1 0x1 PUSH1 0x2 DUP2 LT PUSH2 0xFB3 JUMPI INVALID JUMPDEST PUSH1 0x20 MUL ADD MLOAD DUP3 DUP3 PUSH1 0x6 MUL PUSH1 0x5 ADD DUP2 MLOAD DUP2 LT PUSH2 0xFCA JUMPI INVALID JUMPDEST PUSH1 0x20 SWAP1 DUP2 MUL SWAP2 SWAP1 SWAP2 ADD ADD MSTORE PUSH1 0x1 ADD PUSH2 0xE5E JUMP JUMPDEST POP PUSH2 0xFE6 PUSH2 0x114C JUMP JUMPDEST PUSH1 0x0 PUSH1 0x20 DUP3 PUSH1 0x20 DUP7 MUL PUSH1 0x20 DUP7 ADD PUSH1 0x8 PUSH2 0x7D0 GAS SUB STATICCALL SWAP1 POP DUP1 DUP1 ISZERO PUSH2 0xB00 JUMPI POP DUP1 PUSH2 0x104F JUMPI PUSH1 0x40 DUP1 MLOAD PUSH3 0x461BCD PUSH1 0xE5 SHL DUP2 MSTORE PUSH1 0x20 PUSH1 0x4 DUP3 ADD MSTORE PUSH1 0x15 PUSH1 0x24 DUP3 ADD MSTORE PUSH21 0x1C185A5C9A5B99CB5BDC18DBD9194B59985A5B1959 PUSH1 0x5A SHL PUSH1 0x44 DUP3 ADD MSTORE SWAP1 MLOAD SWAP1 DUP2 SWAP1 SUB PUSH1 0x64 ADD SWAP1 REVERT JUMPDEST POP MLOAD ISZERO ISZERO SWAP7 SWAP6 POP POP POP POP POP POP JUMP JUMPDEST PUSH1 0x40 MLOAD DUP1 PUSH1 0x60 ADD PUSH1 0x40 MSTORE DUP1 PUSH2 0x1070 PUSH2 0x10D6 JUMP JUMPDEST DUP2 MSTORE PUSH1 0x20 ADD PUSH2 0x107D PUSH2 0x112C JUMP JUMPDEST DUP2 MSTORE PUSH1 0x20 ADD PUSH2 0x108A PUSH2 0x10D6 JUMP JUMPDEST SWAP1 MSTORE SWAP1 JUMP JUMPDEST PUSH1 0x40 MLOAD DUP1 PUSH1 0xA0 ADD PUSH1 0x40 MSTORE DUP1 PUSH2 0x10A2 PUSH2 0x10D6 JUMP JUMPDEST DUP2 MSTORE PUSH1 0x20 ADD PUSH2 0x10AF PUSH2 0x112C JUMP JUMPDEST DUP2 MSTORE PUSH1 0x20 ADD PUSH2 0x10BC PUSH2 0x112C JUMP JUMPDEST DUP2 MSTORE PUSH1 0x20 ADD PUSH2 0x10C9 PUSH2 0x112C JUMP JUMPDEST DUP2 MSTORE PUSH1 0x20 ADD PUSH1 0x60 DUP2 MSTORE POP SWAP1 JUMP JUMPDEST PUSH1 0x40 MLOAD DUP1 PUSH1 0x40 ADD PUSH1 0x40 MSTORE DUP1 PUSH1 0x0 DUP2 MSTORE PUSH1 0x20 ADD PUSH1 0x0 DUP2 MSTORE POP SWAP1 JUMP JUMPDEST PUSH1 0x40 MLOAD DUP1 PUSH1 0x60 ADD PUSH1 0x40 MSTORE DUP1 PUSH1 0x3 SWAP1 PUSH1 0x20 DUP3 MUL DUP1 CALLDATASIZE DUP4 CALLDATACOPY POP SWAP2 SWAP3 SWAP2 POP POP JUMP JUMPDEST PUSH1 0x40 MLOAD DUP1 PUSH1 0x80 ADD PUSH1 0x40 MSTORE DUP1 PUSH1 0x4 SWAP1 PUSH1 0x20 DUP3 MUL DUP1 CALLDATASIZE DUP4 CALLDATACOPY POP SWAP2 SWAP3 SWAP2 POP POP JUMP JUMPDEST PUSH1 0x40 MLOAD DUP1 PUSH1 0x40 ADD PUSH1 0x40 MSTORE DUP1 PUSH2 0x113F PUSH2 0x116A JUMP JUMPDEST DUP2 MSTORE PUSH1 0x20 ADD PUSH2 0x108A PUSH2 0x116A JUMP JUMPDEST PUSH1 0x40 MLOAD DUP1 PUSH1 0x20 ADD PUSH1 0x40 MSTORE DUP1 PUSH1 0x1 SWAP1 PUSH1 0x20 DUP3 MUL DUP1 CALLDATASIZE DUP4 CALLDATACOPY POP SWAP2 SWAP3 SWAP2 POP POP JUMP JUMPDEST PUSH1 0x40 MLOAD DUP1 PUSH1 0x40 ADD PUSH1 0x40 MSTORE DUP1 PUSH1 0x2 SWAP1 PUSH1 0x20 DUP3 MUL DUP1 CALLDATASIZE DUP4 CALLDATACOPY POP SWAP2 SWAP3 SWAP2 POP POP JUMP INVALID LOG2 PUSH5 0x6970667358 0x22 SLT KECCAK256 KECCAK256 RETURN STATICCALL 0xB3 0x22 PC 0x2F 0xC9 DELEGATECALL ADDRESS 0x2B SWAP15 0x5D 0xBE 0xD9 0xF8 PUSH15 0xB7460F9788AEE7FCBCAFF8DD5B7FD1 PUSH5 0x736F6C6343 STOP MOD 0xC STOP CALLER "},"methodIdentifiers":{"verifyProof(uint256[2],uint256[2][2],uint256[2],uint256[8])":"c9219a7a"}}}}}