{"contracts/FlatCharon.sol":{"Charon":{"abi":[{"inputs":[{"internalType":"address","name":"_verifier2","type":"address"},{"internalType":"address","name":"_verifier16","type":"address"},{"internalType":"address","name":"_hasher","type":"address"},{"internalType":"address","name":"_token","type":"address"},{"internalType":"uint256","name":"_fee","type":"uint256"},{"internalType":"address[]","name":"_oracles","type":"address[]"},{"internalType":"uint32","name":"_merkleTreeHeight","type":"uint32"},{"internalType":"uint256","name":"_chainID","type":"uint256"},{"internalType":"string","name":"_name","type":"string"},{"internalType":"string","name":"_symbol","type":"string"}],"stateMutability":"nonpayable","type":"constructor"},{"anonymous":false,"inputs":[{"indexed":true,"internalType":"address","name":"_src","type":"address"},{"indexed":true,"internalType":"address","name":"_dst","type":"address"},{"indexed":false,"internalType":"uint256","name":"_amt","type":"uint256"}],"name":"Approval","type":"event"},{"anonymous":false,"inputs":[{"indexed":false,"internalType":"bool","name":"_isCHD","type":"bool"},{"indexed":false,"internalType":"address","name":"_sender","type":"address"},{"indexed":false,"internalType":"uint256","name":"_depositId","type":"uint256"},{"indexed":false,"internalType":"int256","name":"_amount","type":"int256"}],"name":"DepositToOtherChain","type":"event"},{"anonymous":false,"inputs":[{"indexed":false,"internalType":"address","name":"_lp","type":"address"},{"indexed":false,"internalType":"uint256","name":"_poolAmountOut","type":"uint256"}],"name":"LPDeposit","type":"event"},{"anonymous":false,"inputs":[{"indexed":false,"internalType":"address","name":"_lp","type":"address"},{"indexed":false,"internalType":"uint256","name":"_poolAmountIn","type":"uint256"}],"name":"LPWithdrawal","type":"event"},{"anonymous":false,"inputs":[{"indexed":false,"internalType":"bytes32","name":"_commitment","type":"bytes32"},{"indexed":false,"internalType":"uint256","name":"_index","type":"uint256"},{"indexed":false,"internalType":"bytes","name":"_encryptedOutput","type":"bytes"},{"indexed":false,"internalType":"bool","name":"_isDeposit","type":"bool"}],"name":"NewCommitment","type":"event"},{"anonymous":false,"inputs":[{"indexed":false,"internalType":"bytes32","name":"_nullifier","type":"bytes32"}],"name":"NewNullifier","type":"event"},{"anonymous":false,"inputs":[{"indexed":false,"internalType":"uint256","name":"_oracleIndex","type":"uint256"},{"indexed":false,"internalType":"bytes","name":"_inputData","type":"bytes"}],"name":"OracleDeposit","type":"event"},{"anonymous":false,"inputs":[{"indexed":false,"internalType":"uint256","name":"_amount","type":"uint256"},{"indexed":false,"internalType":"bool","name":"_isCHD","type":"bool"}],"name":"RewardAdded","type":"event"},{"anonymous":false,"inputs":[{"indexed":false,"internalType":"address","name":"_user","type":"address"},{"indexed":false,"internalType":"bool","name":"_inIsCHD","type":"bool"},{"indexed":false,"internalType":"uint256","name":"_tokenAmountIn","type":"uint256"},{"indexed":false,"internalType":"uint256","name":"_tokenAmountOut","type":"uint256"}],"name":"Swap","type":"event"},{"anonymous":false,"inputs":[{"indexed":true,"internalType":"address","name":"_src","type":"address"},{"indexed":true,"internalType":"address","name":"_dst","type":"address"},{"indexed":false,"internalType":"uint256","name":"_amt","type":"uint256"}],"name":"Transfer","type":"event"},{"inputs":[],"name":"FIELD_SIZE","outputs":[{"internalType":"uint256","name":"","type":"uint256"}],"stateMutability":"view","type":"function"},{"inputs":[],"name":"ROOT_HISTORY_SIZE","outputs":[{"internalType":"uint32","name":"","type":"uint32"}],"stateMutability":"view","type":"function"},{"inputs":[],"name":"ZERO_VALUE","outputs":[{"internalType":"uint256","name":"","type":"uint256"}],"stateMutability":"view","type":"function"},{"inputs":[{"internalType":"uint256","name":"_toUsers","type":"uint256"},{"internalType":"uint256","name":"_toLPs","type":"uint256"},{"internalType":"uint256","name":"_toOracle","type":"uint256"},{"internalType":"bool","name":"_isCHD","type":"bool"}],"name":"addRewards","outputs":[],"stateMutability":"nonpayable","type":"function"},{"inputs":[{"internalType":"address","name":"_src","type":"address"},{"internalType":"address","name":"_dst","type":"address"}],"name":"allowance","outputs":[{"internalType":"uint256","name":"","type":"uint256"}],"stateMutability":"view","type":"function"},{"inputs":[{"internalType":"address","name":"_spender","type":"address"},{"internalType":"uint256","name":"_amount","type":"uint256"}],"name":"approve","outputs":[{"internalType":"bool","name":"","type":"bool"}],"stateMutability":"nonpayable","type":"function"},{"inputs":[{"internalType":"address","name":"_user","type":"address"}],"name":"balanceOf","outputs":[{"internalType":"uint256","name":"","type":"uint256"}],"stateMutability":"view","type":"function"},{"inputs":[{"internalType":"uint256","name":"_tokenBalanceIn","type":"uint256"},{"internalType":"uint256","name":"_tokenBalanceOut","type":"uint256"},{"internalType":"uint256","name":"_tokenAmountOut","type":"uint256"},{"internalType":"uint256","name":"_swapFee","type":"uint256"}],"name":"calcInGivenOut","outputs":[{"internalType":"uint256","name":"_tokenAmountIn","type":"uint256"}],"stateMutability":"pure","type":"function"},{"inputs":[{"internalType":"uint256","name":"_tokenBalanceIn","type":"uint256"},{"internalType":"uint256","name":"_tokenBalanceOut","type":"uint256"},{"internalType":"uint256","name":"_tokenAmountIn","type":"uint256"},{"internalType":"uint256","name":"_swapFee","type":"uint256"}],"name":"calcOutGivenIn","outputs":[{"internalType":"uint256","name":"_tokenAmountOut","type":"uint256"}],"stateMutability":"pure","type":"function"},{"inputs":[{"internalType":"uint256","name":"_tokenBalanceIn","type":"uint256"},{"internalType":"uint256","name":"_poolSupply","type":"uint256"},{"internalType":"uint256","name":"_tokenAmountIn","type":"uint256"}],"name":"calcPoolOutGivenSingleIn","outputs":[{"internalType":"uint256","name":"_poolAmountOut","type":"uint256"}],"stateMutability":"pure","type":"function"},{"inputs":[{"internalType":"uint256","name":"_tokenBalanceOut","type":"uint256"},{"internalType":"uint256","name":"_inSupply","type":"uint256"},{"internalType":"uint256","name":"_amountIn","type":"uint256"},{"internalType":"uint256","name":"_swapFee","type":"uint256"},{"internalType":"bool","name":"_isPool","type":"bool"}],"name":"calcSingleOutGivenIn","outputs":[{"internalType":"uint256","name":"_tokenAmountOut","type":"uint256"}],"stateMutability":"pure","type":"function"},{"inputs":[{"internalType":"uint256","name":"_tokenBalanceIn","type":"uint256"},{"internalType":"uint256","name":"_tokenBalanceOut","type":"uint256"},{"internalType":"uint256","name":"_swapFee","type":"uint256"}],"name":"calcSpotPrice","outputs":[{"internalType":"uint256","name":"","type":"uint256"}],"stateMutability":"pure","type":"function"},{"inputs":[],"name":"chainID","outputs":[{"internalType":"uint256","name":"","type":"uint256"}],"stateMutability":"view","type":"function"},{"inputs":[],"name":"chd","outputs":[{"internalType":"contract CHD","name":"","type":"address"}],"stateMutability":"view","type":"function"},{"inputs":[],"name":"checkDrip","outputs":[],"stateMutability":"nonpayable","type":"function"},{"inputs":[],"name":"controller","outputs":[{"internalType":"address","name":"","type":"address"}],"stateMutability":"view","type":"function"},{"inputs":[],"name":"decimals","outputs":[{"internalType":"uint8","name":"","type":"uint8"}],"stateMutability":"pure","type":"function"},{"inputs":[{"components":[{"internalType":"bytes","name":"proof","type":"bytes"},{"internalType":"bytes32","name":"root","type":"bytes32"},{"internalType":"uint256","name":"extDataHash","type":"uint256"},{"internalType":"uint256","name":"publicAmount","type":"uint256"},{"internalType":"bytes32[]","name":"inputNullifiers","type":"bytes32[]"},{"internalType":"bytes32[2]","name":"outputCommitments","type":"bytes32[2]"}],"internalType":"struct Charon.Proof","name":"_proofArgs","type":"tuple"},{"components":[{"internalType":"address","name":"recipient","type":"address"},{"internalType":"int256","name":"extAmount","type":"int256"},{"internalType":"uint256","name":"fee","type":"uint256"},{"internalType":"uint256","name":"rebate","type":"uint256"},{"internalType":"bytes","name":"encryptedOutput1","type":"bytes"},{"internalType":"bytes","name":"encryptedOutput2","type":"bytes"}],"internalType":"struct Charon.ExtData","name":"_extData","type":"tuple"},{"internalType":"bool","name":"_isCHD","type":"bool"},{"internalType":"uint256","name":"_maxOut","type":"uint256"}],"name":"depositToOtherChain","outputs":[{"internalType":"uint256","name":"_depositId","type":"uint256"}],"stateMutability":"nonpayable","type":"function"},{"inputs":[],"name":"dripRate","outputs":[{"internalType":"uint256","name":"","type":"uint256"}],"stateMutability":"view","type":"function"},{"inputs":[],"name":"fee","outputs":[{"internalType":"uint256","name":"","type":"uint256"}],"stateMutability":"view","type":"function"},{"inputs":[{"internalType":"uint256[]","name":"_partnerChains","type":"uint256[]"},{"internalType":"address[]","name":"_partnerAddys","type":"address[]"},{"internalType":"uint256","name":"_balance","type":"uint256"},{"internalType":"uint256","name":"_synthBalance","type":"uint256"},{"internalType":"address","name":"_chd","type":"address"},{"internalType":"address","name":"_cfc","type":"address"}],"name":"finalize","outputs":[],"stateMutability":"nonpayable","type":"function"},{"inputs":[{"internalType":"uint256","name":"_id","type":"uint256"}],"name":"getDepositCommitmentsById","outputs":[{"components":[{"components":[{"internalType":"address","name":"recipient","type":"address"},{"internalType":"int256","name":"extAmount","type":"int256"},{"internalType":"uint256","name":"fee","type":"uint256"},{"internalType":"uint256","name":"rebate","type":"uint256"},{"internalType":"bytes","name":"encryptedOutput1","type":"bytes"},{"internalType":"bytes","name":"encryptedOutput2","type":"bytes"}],"internalType":"struct Charon.ExtData","name":"extData","type":"tuple"},{"components":[{"internalType":"bytes","name":"proof","type":"bytes"},{"internalType":"bytes32","name":"root","type":"bytes32"},{"internalType":"uint256","name":"extDataHash","type":"uint256"},{"internalType":"uint256","name":"publicAmount","type":"uint256"},{"internalType":"bytes32[]","name":"inputNullifiers","type":"bytes32[]"},{"internalType":"bytes32[2]","name":"outputCommitments","type":"bytes32[2]"}],"internalType":"struct Charon.Proof","name":"proof","type":"tuple"}],"internalType":"struct Charon.Commitment","name":"","type":"tuple"}],"stateMutability":"view","type":"function"},{"inputs":[{"internalType":"bytes32","name":"_commitment","type":"bytes32"}],"name":"getDepositIdByCommitmentHash","outputs":[{"internalType":"uint256","name":"","type":"uint256"}],"stateMutability":"view","type":"function"},{"inputs":[],"name":"getLastRoot","outputs":[{"internalType":"bytes32","name":"","type":"bytes32"}],"stateMutability":"view","type":"function"},{"inputs":[{"internalType":"uint256","name":"_depositId","type":"uint256"}],"name":"getOracleSubmission","outputs":[{"internalType":"bytes","name":"","type":"bytes"}],"stateMutability":"view","type":"function"},{"inputs":[],"name":"getOracles","outputs":[{"internalType":"address[]","name":"","type":"address[]"}],"stateMutability":"view","type":"function"},{"inputs":[],"name":"getPartnerContracts","outputs":[{"components":[{"internalType":"uint256","name":"chainID","type":"uint256"},{"internalType":"address","name":"contractAddress","type":"address"}],"internalType":"struct Charon.PartnerContract[]","name":"","type":"tuple[]"}],"stateMutability":"view","type":"function"},{"inputs":[],"name":"getSpotPrice","outputs":[{"internalType":"uint256","name":"","type":"uint256"}],"stateMutability":"view","type":"function"},{"inputs":[{"internalType":"uint256","name":"_i","type":"uint256"}],"name":"getZeros","outputs":[{"internalType":"bytes32","name":"","type":"bytes32"}],"stateMutability":"view","type":"function"},{"inputs":[{"internalType":"bytes32","name":"_left","type":"bytes32"},{"internalType":"bytes32","name":"_right","type":"bytes32"}],"name":"hashLeftRight","outputs":[{"internalType":"bytes32","name":"","type":"bytes32"}],"stateMutability":"view","type":"function"},{"inputs":[],"name":"hasher","outputs":[{"internalType":"contract IHasher","name":"","type":"address"}],"stateMutability":"view","type":"function"},{"inputs":[{"internalType":"bytes32","name":"_root","type":"bytes32"}],"name":"isKnownRoot","outputs":[{"internalType":"bool","name":"","type":"bool"}],"stateMutability":"view","type":"function"},{"inputs":[{"internalType":"bytes32","name":"_nullifierHash","type":"bytes32"}],"name":"isSpent","outputs":[{"internalType":"bool","name":"","type":"bool"}],"stateMutability":"view","type":"function"},{"inputs":[],"name":"lastDrip","outputs":[{"internalType":"uint256","name":"","type":"uint256"}],"stateMutability":"view","type":"function"},{"inputs":[],"name":"levels","outputs":[{"internalType":"uint32","name":"","type":"uint32"}],"stateMutability":"view","type":"function"},{"inputs":[{"internalType":"uint256","name":"_poolAmountOut","type":"uint256"},{"internalType":"uint256","name":"_maxCHDIn","type":"uint256"},{"internalType":"uint256","name":"_maxBaseAssetIn","type":"uint256"}],"name":"lpDeposit","outputs":[],"stateMutability":"nonpayable","type":"function"},{"inputs":[{"internalType":"uint256","name":"_tokenAmountIn","type":"uint256"},{"internalType":"uint256","name":"_minPoolAmountOut","type":"uint256"}],"name":"lpSingleCHD","outputs":[],"stateMutability":"nonpayable","type":"function"},{"inputs":[{"internalType":"uint256","name":"_poolAmountIn","type":"uint256"},{"internalType":"uint256","name":"_minCHDOut","type":"uint256"},{"internalType":"uint256","name":"_minBaseAssetOut","type":"uint256"}],"name":"lpWithdraw","outputs":[{"internalType":"uint256","name":"_tokenAmountOut","type":"uint256"}],"stateMutability":"nonpayable","type":"function"},{"inputs":[],"name":"name","outputs":[{"internalType":"string","name":"","type":"string"}],"stateMutability":"view","type":"function"},{"inputs":[],"name":"oracleCHDFunds","outputs":[{"internalType":"uint256","name":"","type":"uint256"}],"stateMutability":"view","type":"function"},{"inputs":[{"internalType":"uint256","name":"_oracleIndex","type":"uint256"},{"internalType":"bytes","name":"_inputData","type":"bytes"}],"name":"oracleDeposit","outputs":[],"stateMutability":"nonpayable","type":"function"},{"inputs":[],"name":"oracleTokenFunds","outputs":[{"internalType":"uint256","name":"","type":"uint256"}],"stateMutability":"view","type":"function"},{"inputs":[],"name":"recordBalance","outputs":[{"internalType":"uint256","name":"","type":"uint256"}],"stateMutability":"view","type":"function"},{"inputs":[],"name":"recordBalanceSynth","outputs":[{"internalType":"uint256","name":"","type":"uint256"}],"stateMutability":"view","type":"function"},{"inputs":[],"name":"singleCHDLPToDrip","outputs":[{"internalType":"uint256","name":"","type":"uint256"}],"stateMutability":"view","type":"function"},{"inputs":[{"internalType":"address","name":"","type":"address"}],"name":"singleLockTime","outputs":[{"internalType":"uint256","name":"","type":"uint256"}],"stateMutability":"view","type":"function"},{"inputs":[{"internalType":"bool","name":"_inIsCHD","type":"bool"},{"internalType":"uint256","name":"_tokenAmountIn","type":"uint256"},{"internalType":"uint256","name":"_minAmountOut","type":"uint256"},{"internalType":"uint256","name":"_maxPrice","type":"uint256"}],"name":"swap","outputs":[{"internalType":"uint256","name":"_tokenAmountOut","type":"uint256"},{"internalType":"uint256","name":"_spotPriceAfter","type":"uint256"}],"stateMutability":"nonpayable","type":"function"},{"inputs":[],"name":"symbol","outputs":[{"internalType":"string","name":"","type":"string"}],"stateMutability":"view","type":"function"},{"inputs":[],"name":"token","outputs":[{"internalType":"contract IERC20","name":"","type":"address"}],"stateMutability":"view","type":"function"},{"inputs":[],"name":"totalSupply","outputs":[{"internalType":"uint256","name":"","type":"uint256"}],"stateMutability":"view","type":"function"},{"inputs":[{"components":[{"internalType":"bytes","name":"proof","type":"bytes"},{"internalType":"bytes32","name":"root","type":"bytes32"},{"internalType":"uint256","name":"extDataHash","type":"uint256"},{"internalType":"uint256","name":"publicAmount","type":"uint256"},{"internalType":"bytes32[]","name":"inputNullifiers","type":"bytes32[]"},{"internalType":"bytes32[2]","name":"outputCommitments","type":"bytes32[2]"}],"internalType":"struct Charon.Proof","name":"_args","type":"tuple"},{"components":[{"internalType":"address","name":"recipient","type":"address"},{"internalType":"int256","name":"extAmount","type":"int256"},{"internalType":"uint256","name":"fee","type":"uint256"},{"internalType":"uint256","name":"rebate","type":"uint256"},{"internalType":"bytes","name":"encryptedOutput1","type":"bytes"},{"internalType":"bytes","name":"encryptedOutput2","type":"bytes"}],"internalType":"struct Charon.ExtData","name":"_extData","type":"tuple"}],"name":"transact","outputs":[],"stateMutability":"payable","type":"function"},{"inputs":[{"internalType":"address","name":"_to","type":"address"},{"internalType":"uint256","name":"_amount","type":"uint256"}],"name":"transfer","outputs":[{"internalType":"bool","name":"","type":"bool"}],"stateMutability":"nonpayable","type":"function"},{"inputs":[{"internalType":"address","name":"_from","type":"address"},{"internalType":"address","name":"_to","type":"address"},{"internalType":"uint256","name":"_amount","type":"uint256"}],"name":"transferFrom","outputs":[{"internalType":"bool","name":"","type":"bool"}],"stateMutability":"nonpayable","type":"function"},{"inputs":[],"name":"userRewards","outputs":[{"internalType":"uint256","name":"","type":"uint256"}],"stateMutability":"view","type":"function"},{"inputs":[],"name":"userRewardsCHD","outputs":[{"internalType":"uint256","name":"","type":"uint256"}],"stateMutability":"view","type":"function"},{"inputs":[],"name":"verifier16","outputs":[{"internalType":"contract IVerifier","name":"","type":"address"}],"stateMutability":"view","type":"function"},{"inputs":[],"name":"verifier2","outputs":[{"internalType":"contract IVerifier","name":"","type":"address"}],"stateMutability":"view","type":"function"}],"evm":{"bytecode":{"linkReferences":{},"object":"610160604052600380546001600160401b03191690553480156200002257600080fd5b50604051620069113803806200691183398101604081905262000045916200050e565b8181858a60008263ffffffff16116200005d57600080fd5b60208263ffffffff16106200007157600080fd5b63ffffffff821660a0526001600160a01b0381166080526000805260026020527f2fe54c60d3acabf3343a35b6eba15db4821b340f76e741e2249685ed4899af6c7fac33ff75c19e70fe83507db0d683fd3465c996598dc972688b7ace676c89077b5560015b60208163ffffffff1611620001e557816001600160a01b031663299e566060405180604001604052806002600060018762000113919062000629565b63ffffffff1681526020019081526020016000205481526020016002600060018762000140919062000629565b63ffffffff168152602001908152602001600020548152506040518263ffffffff1660e01b815260040162000176919062000650565b602060405180830381865afa15801562000194573d6000803e3d6000fd5b505050506040513d601f19601f82011682018060405250810190620001ba919062000683565b63ffffffff821660009081526002602052604090205580620001dc816200069d565b915050620000d7565b5060005b8263ffffffff168163ffffffff161015620002345763ffffffff81166000908152600260209081526040808320549183905290912055806200022b816200069d565b915050620001e9565b505063ffffffff166000908152600260209081526040822054918052600190527fa6eef7e35abe7026729641147f7915573c7e97b47efa546f5f6e3230263bcb4955600462000284838262000752565b50600562000293828262000752565b5050506001600160a01b03808b1660e05289811661010052871660c052610140869052600c80546001600160a01b031916331790556101208390528451620002e390600d906020880190620002f4565b50505050505050505050506200081e565b8280548282559060005260206000209081019282156200034c579160200282015b828111156200034c57825182546001600160a01b0319166001600160a01b0390911617825560209092019160019091019062000315565b506200035a9291506200035e565b5090565b5b808211156200035a57600081556001016200035f565b80516001600160a01b03811681146200038d57600080fd5b919050565b634e487b7160e01b600052604160045260246000fd5b604051601f8201601f191681016001600160401b0381118282101715620003d357620003d362000392565b604052919050565b600082601f830112620003ed57600080fd5b815160206001600160401b038211156200040b576200040b62000392565b8160051b6200041c828201620003a8565b92835284810182019282810190878511156200043757600080fd5b83870192505b848310156200046157620004518362000375565b825291830191908301906200043d565b979650505050505050565b805163ffffffff811681146200038d57600080fd5b600082601f8301126200049357600080fd5b81516001600160401b03811115620004af57620004af62000392565b6020620004c5601f8301601f19168201620003a8565b8281528582848701011115620004da57600080fd5b60005b83811015620004fa578581018301518282018401528201620004dd565b506000928101909101919091529392505050565b6000806000806000806000806000806101408b8d0312156200052f57600080fd5b6200053a8b62000375565b99506200054a60208c0162000375565b98506200055a60408c0162000375565b97506200056a60608c0162000375565b60808c015160a08d015191985096506001600160401b03808211156200058f57600080fd5b6200059d8e838f01620003db565b9650620005ad60c08e016200046c565b955060e08d015194506101008d0151915080821115620005cc57600080fd5b620005da8e838f0162000481565b93506101208d0151915080821115620005f257600080fd5b50620006018d828e0162000481565b9150509295989b9194979a5092959850565b634e487b7160e01b600052601160045260246000fd5b63ffffffff82811682821603908082111562000649576200064962000613565b5092915050565b60408101818360005b60028110156200067a57815183526020928301929091019060010162000659565b50505092915050565b6000602082840312156200069657600080fd5b5051919050565b600063ffffffff808316818103620006b957620006b962000613565b6001019392505050565b600181811c90821680620006d857607f821691505b602082108103620006f957634e487b7160e01b600052602260045260246000fd5b50919050565b601f8211156200074d57600081815260208120601f850160051c81016020861015620007285750805b601f850160051c820191505b81811015620007495782815560010162000734565b5050505b505050565b81516001600160401b038111156200076e576200076e62000392565b62000786816200077f8454620006c3565b84620006ff565b602080601f831160018114620007be5760008415620007a55750858301515b600019600386901b1c1916600185901b17855562000749565b600085815260208120601f198616915b82811015620007ef57888601518255948401946001909101908401620007ce565b50858210156200080e5787850151600019600388901b60f8161c191681555b5050505050600190811b01905550565b60805160a05160c05160e051610100516101205161014051615ffe6200091360003960008181610a250152818161167101528181611ab10152611d5c0152600081816108eb01528181613ff6015261417d0152600081816104ba015261412801526000818161065f0152613fa1015260008181610b67015281816117d90152818161198401528181611aef01528181611e3801528181611fe20152818161255c0152818161270e01528181612fce015281816130ab01528181613658015281816136eb0152613886015260008181610616015281816148140152614876015260008181610b1301526112280152615ffe6000f3fe6080604052600436106103765760003560e01c806373ee0ac5116101d1578063cd87a3b411610102578063e0e6236e116100a0578063ec7329591161006f578063ec73295914610acd578063ed33639f14610b01578063f77c479114610b35578063fc0c546a14610b5557600080fd5b8063e0e6236e14610a47578063e5285dcc14610a67578063ea2388d214610a97578063eadb825914610ab757600080fd5b8063d544c1d2116100dc578063d544c1d214610998578063dc76fabc146109b8578063dd62ed3e146109cd578063ddca3f4314610a1357600080fd5b8063cd87a3b41461094d578063d2b12ad514610962578063d32615921461098257600080fd5b80639e7b1cd91161016f578063aad3264111610149578063aad32641146108b9578063adc879e9146108d9578063ba70f7571461090d578063bd4920e51461093757600080fd5b80639e7b1cd914610866578063a8109c8014610879578063a9059cbb1461089957600080fd5b8063840d205f116101ab578063840d205f146107e45780638f84e27c146108115780639260df2a1461083157806395d89b411461085157600080fd5b806373ee0ac51461078e57806376a38e91146107ae5780637d33bc73146107ce57600080fd5b80633c0540cf116102ab57806359542ca9116102495780636a01218e116102235780636a01218e146106f85780636d9833e31461071857806370a082311461073857806372ee63411461076e57600080fd5b806359542ca9146106815780635bb25be3146106b657806367fb329b146106d857600080fd5b8063436f9be411610285578063436f9be4146105b75780634b4d4ae8146105d75780634ecf518b14610604578063522d0d701461064d57600080fd5b80633c0540cf1461054657806340884c5214610573578063414a37ba1461059557600080fd5b806323b872dd116103185780632fc0355f116102f25780632fc0355f146104a8578063313ce567146104f457806334540e181461051057806338bf282e1461052657600080fd5b806323b872dd1461045c57806324e14a7a1461047c5780632d57121b1461049257600080fd5b80631595497d116103545780631595497d146103ed57806315e1b7021461041157806318160ddd146104315780631f639ee41461044657600080fd5b806306fdde031461037b578063095ea7b3146103a65780630b785fc6146103d6575b600080fd5b34801561038757600080fd5b50610390610b89565b60405161039d9190614d4b565b60405180910390f35b3480156103b257600080fd5b506103c66103c1366004614d88565b610c1b565b604051901515815260200161039d565b3480156103e257600080fd5b506103eb610c88565b005b3480156103f957600080fd5b5061040360145481565b60405190815260200161039d565b34801561041d57600080fd5b5061039061042c366004614db4565b610cea565b34801561043d57600080fd5b50600654610403565b34801561045257600080fd5b5061040360105481565b34801561046857600080fd5b506103c6610477366004614dcd565b6110a6565b34801561048857600080fd5b50610403600f5481565b34801561049e57600080fd5b5061040360135481565b3480156104b457600080fd5b506104dc7f000000000000000000000000000000000000000000000000000000000000000081565b6040516001600160a01b03909116815260200161039d565b34801561050057600080fd5b506040516012815260200161039d565b34801561051c57600080fd5b5061040360115481565b34801561053257600080fd5b50610403610541366004614e0e565b6111d1565b34801561055257600080fd5b50610403610561366004614db4565b6000908152601a602052604090205490565b34801561057f57600080fd5b506105886112ae565b60405161039d9190614e30565b3480156105a157600080fd5b50610403600080516020615fa983398151915281565b3480156105c357600080fd5b506104036105d2366004614e7d565b61130f565b3480156105e357600080fd5b506105f76105f2366004614db4565b611351565b60405161039d9190614f30565b34801561061057600080fd5b506106387f000000000000000000000000000000000000000000000000000000000000000081565b60405163ffffffff909116815260200161039d565b34801561065957600080fd5b506104dc7f000000000000000000000000000000000000000000000000000000000000000081565b34801561068d57600080fd5b506106a161069c366004614ff4565b611651565b6040805192835260208301919091520161039d565b3480156106c257600080fd5b506106cb611c5b565b60405161039d919061502f565b3480156106e457600080fd5b506104036106f3366004614db4565b611cd0565b34801561070457600080fd5b50610403610713366004614e7d565b611cf2565b34801561072457600080fd5b506103c6610733366004614db4565b6121b2565b34801561074457600080fd5b50610403610753366004615087565b6001600160a01b031660009081526007602052604090205490565b34801561077a57600080fd5b506104036107893660046150a4565b612230565b34801561079a57600080fd5b506103eb6107a9366004614e0e565b612291565b3480156107ba57600080fd5b506104036107c93660046150a4565b612401565b3480156107da57600080fd5b5061040360125481565b3480156107f057600080fd5b506104036107ff366004615087565b60186020526000908152604090205481565b34801561081d57600080fd5b506103eb61082c3660046150d6565b61245b565b34801561083d57600080fd5b506103eb61084c36600461523e565b6126a8565b34801561085d57600080fd5b506103906128e1565b6103eb610874366004615587565b6128f0565b34801561088557600080fd5b506009546104dc906001600160a01b031681565b3480156108a557600080fd5b506103c66108b4366004614d88565b612c75565b3480156108c557600080fd5b506104036108d43660046155ea565b612c8b565b3480156108e557600080fd5b506104037f000000000000000000000000000000000000000000000000000000000000000081565b34801561091957600080fd5b5060035463ffffffff16600090815260016020526040902054610403565b34801561094357600080fd5b5061040360155481565b34801561095957600080fd5b50610638606481565b34801561096e57600080fd5b506103eb61097d366004615667565b613318565b34801561098e57600080fd5b5061040360175481565b3480156109a457600080fd5b506103eb6109b3366004614e7d565b6137a9565b3480156109c457600080fd5b506104036139cc565b3480156109d957600080fd5b506104036109e83660046156a3565b6001600160a01b03918216600090815260086020908152604080832093909416825291909152205490565b348015610a1f57600080fd5b506104037f000000000000000000000000000000000000000000000000000000000000000081565b348015610a5357600080fd5b50610403610a62366004614e7d565b6139e3565b348015610a7357600080fd5b506103c6610a82366004614db4565b60009081526019602052604090205460ff1690565b348015610aa357600080fd5b50610403610ab23660046156dc565b613a62565b348015610ac357600080fd5b5061040360165481565b348015610ad957600080fd5b506104037f2fe54c60d3acabf3343a35b6eba15db4821b340f76e741e2249685ed4899af6c81565b348015610b0d57600080fd5b506104dc7f000000000000000000000000000000000000000000000000000000000000000081565b348015610b4157600080fd5b50600c546104dc906001600160a01b031681565b348015610b6157600080fd5b506104dc7f000000000000000000000000000000000000000000000000000000000000000081565b606060048054610b9890615729565b80601f0160208091040260200160405190810160405280929190818152602001828054610bc490615729565b8015610c115780601f10610be657610100808354040283529160200191610c11565b820191906000526020600020905b815481529060010190602001808311610bf457829003601f168201915b5050505050905090565b3360008181526008602090815260408083206001600160a01b038716808552925280832085905551919290917f8c5be1e5ebec7d5bd14f71427d1e84f3dd0314c0f7b2291e5b200ac8c7c3b92590610c769086815260200190565b60405180910390a35060015b92915050565b60165442118015610c9b57506000601554115b15610ce85742601655601754601554811115610cb657506015545b8060126000828254610cc89190615779565b925050819055508060156000828254610ce1919061578c565b9091555050505b565b60606000600a610cfb60018561578c565b81548110610d0b57610d0b61579f565b600091825260209091206040805161010081018252600d90930290910180546001600160a01b03169183019182526001810154606084015260028101546080840152600381015460a0840152600481018054919284929091849160c085019190610d7490615729565b80601f0160208091040260200160405190810160405280929190818152602001828054610da090615729565b8015610ded5780601f10610dc257610100808354040283529160200191610ded565b820191906000526020600020905b815481529060010190602001808311610dd057829003601f168201915b50505050508152602001600582018054610e0690615729565b80601f0160208091040260200160405190810160405280929190818152602001828054610e3290615729565b8015610e7f5780601f10610e5457610100808354040283529160200191610e7f565b820191906000526020600020905b815481529060010190602001808311610e6257829003601f168201915b5050505050815250508152602001600682016040518060c0016040529081600082018054610eac90615729565b80601f0160208091040260200160405190810160405280929190818152602001828054610ed890615729565b8015610f255780601f10610efa57610100808354040283529160200191610f25565b820191906000526020600020905b815481529060010190602001808311610f0857829003601f168201915b5050505050815260200160018201548152602001600282015481526020016003820154815260200160048201805480602002602001604051908101604052809291908181526020018280548015610f9b57602002820191906000526020600020905b815481526020019060010190808311610f87575b5050509183525050604080518082019182905260209092019190600584019060029082845b815481526020019060010190808311610fc057505050505081525050815250509050806020015160800151600081518110610ffd57610ffd61579f565b60200260200101518160200151608001516001815181106110205761102061579f565b6020026020010151826020015160a001516000600281106110435761104361579f565b6020020151836020015160a001516001600281106110635761106361579f565b6020908102919091015185820151518651608081015160a09091015160405161108f98979695016157b5565b604051602081830303815290604052915050919050565b6000336001600160a01b03851614806110e257506001600160a01b03841660009081526008602090815260408083203384529091529020548211155b6111225760405162461bcd60e51b815260206004820152600c60248201526b1b9bdd08185c1c1c9bdd995960a21b60448201526064015b60405180910390fd5b61112d848484613bb2565b336001600160a01b038516146111c7576001600160a01b038416600090815260086020908152604080832033845290915290205461116c90839061578c565b6001600160a01b038516600081815260086020908152604080832033808552908352928190208590555193845290927f8c5be1e5ebec7d5bd14f71427d1e84f3dd0314c0f7b2291e5b200ac8c7c3b925910160405180910390a35b5060019392505050565b6000600080516020615fa983398151915283106111ed57600080fd5b600080516020615fa9833981519152821061120757600080fd5b61120f614b8a565b8381526020810183905260405163014cf2b360e51b81527f00000000000000000000000000000000000000000000000000000000000000006001600160a01b03169063299e566090611265908490600401615814565b602060405180830381865afa158015611282573d6000803e3d6000fd5b505050506040513d601f19601f820116820180604052508101906112a69190615822565b949350505050565b6060600d805480602002602001604051908101604052809291908181526020018280548015610c1157602002820191906000526020600020905b81546001600160a01b031681526001909101906020018083116112e8575050505050905090565b60008061131c8585613c8b565b9050600061133b670de0b6b3a7640000611336868261578c565b613c8b565b90506113478282613dad565b9695505050505050565b611359614ba8565b600a61136660018461578c565b815481106113765761137661579f565b600091825260209091206040805161010081018252600d90930290910180546001600160a01b03169183019182526001810154606084015260028101546080840152600381015460a0840152600481018054919284929091849160c0850191906113df90615729565b80601f016020809104026020016040519081016040528092919081815260200182805461140b90615729565b80156114585780601f1061142d57610100808354040283529160200191611458565b820191906000526020600020905b81548152906001019060200180831161143b57829003601f168201915b5050505050815260200160058201805461147190615729565b80601f016020809104026020016040519081016040528092919081815260200182805461149d90615729565b80156114ea5780601f106114bf576101008083540402835291602001916114ea565b820191906000526020600020905b8154815290600101906020018083116114cd57829003601f168201915b5050505050815250508152602001600682016040518060c001604052908160008201805461151790615729565b80601f016020809104026020016040519081016040528092919081815260200182805461154390615729565b80156115905780601f1061156557610100808354040283529160200191611590565b820191906000526020600020905b81548152906001019060200180831161157357829003601f168201915b505050505081526020016001820154815260200160028201548152602001600382015481526020016004820180548060200260200160405190810160405280929190818152602001828054801561160657602002820191906000526020600020905b8154815260200190600101908083116115f2575b5050509183525050604080518082019182905260209092019190600584019060029082845b81548152602001906001019080831161162b575050509190925250505090525092915050565b600e54600090819060ff161561166657600080fd5b6000806000611695887f0000000000000000000000000000000000000000000000000000000000000000613dad565b905060006116a3828a61578c565b905089156116ba57601254935060115492506116c5565b601154935060125492505b6116d7846706f05b59d3b20000613dad565b8911156116e357600080fd5b60006116f18585600061130f565b90508781111561170057600080fd5b8a1561171b57611714848684600080613a62565b965061172b565b6117288585846000612230565b96505b8887101561173857600080fd5b6117428288613c8b565b81111561174e57600080fd5b611758878561578c565b93508a1561196057600954604051630a6c1a4f60e11b81526001600160a01b03909116906314d8349e90611792903390869060040161583b565b600060405180830381600087803b1580156117ac57600080fd5b505af11580156117c0573d6000803e3d6000fd5b505060405163a9059cbb60e01b81526001600160a01b037f000000000000000000000000000000000000000000000000000000000000000016925063a9059cbb91506118129033908b9060040161583b565b6020604051808303816000875af1158015611831573d6000803e3d6000fd5b505050506040513d601f19601f820116820180604052508101906118559190615854565b61185e57600080fd5b8660116000828254611870919061578c565b9091555050821561195b57600954600c5460405163095ea7b360e01b81526001600160a01b039283169263095ea7b3926118b192911690879060040161583b565b6020604051808303816000875af11580156118d0573d6000803e3d6000fd5b505050506040513d601f19601f820116820180604052508101906118f49190615854565b50600c5460405163214cabe560e11b815260048101859052600160248201526001600160a01b039091169063429957ca90604401600060405180830381600087803b15801561194257600080fd5b505af1158015611956573d6000803e3d6000fd5b505050505b611bd4565b61196a8286615779565b6040516323b872dd60e01b81529095506001600160a01b037f000000000000000000000000000000000000000000000000000000000000000016906323b872dd906119bd90339030908f90600401615871565b6020604051808303816000875af11580156119dc573d6000803e3d6000fd5b505050506040513d601f19601f82011682018060405250810190611a009190615854565b611a0957600080fd5b60095460405163a9059cbb60e01b81526001600160a01b039091169063a9059cbb90611a3b9033908b9060040161583b565b6020604051808303816000875af1158015611a5a573d6000803e3d6000fd5b505050506040513d601f19601f82011682018060405250810190611a7e9190615854565b508160116000828254611a919190615779565b925050819055508660126000828254611aaa919061578c565b90915550507f000000000000000000000000000000000000000000000000000000000000000015611bd457600c5460405163095ea7b360e01b81526001600160a01b037f000000000000000000000000000000000000000000000000000000000000000081169263095ea7b392611b2a929190911690879060040161583b565b6020604051808303816000875af1158015611b49573d6000803e3d6000fd5b505050506040513d601f19601f82011682018060405250810190611b6d9190615854565b50600c5460405163214cabe560e11b815260048101859052600060248201526001600160a01b039091169063429957ca90604401600060405180830381600087803b158015611bbb57600080fd5b505af1158015611bcf573d6000803e3d6000fd5b505050505b611be08585600061130f565b955080861015611bef57600080fd5b87861115611bfc57600080fd5b611c04610c88565b604080513381528c151560208201529081018b9052606081018890527fbfd50a04f1e6e4aee344f5d0e7f15d74d0dbb58cd1f711daa6463094ca9508cd9060800160405180910390a1505050505094509492505050565b6060600b805480602002602001604051908101604052809291908181526020016000905b82821015611cc75760008481526020908190206040805180820190915260028502909101805482526001908101546001600160a01b0316828401529083529092019101611c7f565b50505050905090565b600060208211610376575060009081526002602052604090205490565b919050565b600e5460009060ff1615611d0557600080fd5b336000908152601860205260409020544211611d4c5760405162461bcd60e51b81526020600482015260066024820152651b1bd8dad95960d21b6044820152606401611119565b611d54610c88565b6000611d80857f0000000000000000000000000000000000000000000000000000000000000000613dad565b90506000611d8e828761578c565b90506000611d9e82600654613c8b565b9050611daa3383613e38565b611db681601154613dad565b935083600003611dc557600080fd5b84841015611dd257600080fd5b83601154611de0919061578c565b6011819055506000611df482601254613dad565b905080600003611e0357600080fd5b86811015611e1057600080fd5b80601254611e1e919061578c565b60125560405163a9059cbb60e01b81526001600160a01b037f0000000000000000000000000000000000000000000000000000000000000000169063a9059cbb90611e6f903390899060040161583b565b6020604051808303816000875af1158015611e8e573d6000803e3d6000fd5b505050506040513d601f19601f82011682018060405250810190611eb29190615854565b611ebb57600080fd5b60095460405163a9059cbb60e01b81526001600160a01b039091169063a9059cbb90611eed903390859060040161583b565b6020604051808303816000875af1158015611f0c573d6000803e3d6000fd5b505050506040513d601f19601f82011682018060405250810190611f309190615854565b507f63408840c9001c8bb7d2941b1ded0ced9ea308da1addf18e9eab93675613b2583389604051611f6292919061583b565b60405180910390a183156121a757611f7c84600654613c8b565b9150611f883385613e38565b611f9482601154613dad565b945084601154611fa4919061578c565b601155601254611fb5908390613dad565b905080601254611fc5919061578c565b601255600c5460405163095ea7b360e01b81526001600160a01b037f000000000000000000000000000000000000000000000000000000000000000081169263095ea7b39261201d929190911690899060040161583b565b6020604051808303816000875af115801561203c573d6000803e3d6000fd5b505050506040513d601f19601f820116820180604052508101906120609190615854565b50600c5460405163214cabe560e11b815260048101879052600060248201526001600160a01b039091169063429957ca90604401600060405180830381600087803b1580156120ae57600080fd5b505af11580156120c2573d6000803e3d6000fd5b5050600954600c5460405163095ea7b360e01b81526001600160a01b03928316945063095ea7b393506120fd9290911690859060040161583b565b6020604051808303816000875af115801561211c573d6000803e3d6000fd5b505050506040513d601f19601f820116820180604052508101906121409190615854565b50600c5460405163214cabe560e11b815260048101839052600160248201526001600160a01b039091169063429957ca90604401600060405180830381600087803b15801561218e57600080fd5b505af11580156121a2573d6000803e3d6000fd5b505050505b505050509392505050565b60008181036121c357506000919050565b60035463ffffffff16805b63ffffffff811660009081526001602052604090205484036121f4575060019392505050565b8063ffffffff16600003612206575060645b8061221081615895565b9150508163ffffffff168163ffffffff16036121ce575060009392505050565b60008061224583670de0b6b3a764000061578c565b90506122518482613dad565b90506000612263876113368482615779565b9050600061227982670de0b6b3a764000061578c565b90506122858782613dad565b98975050505050505050565b600e5460ff16156122a157600080fd5b60006122b2601254600654856139e3565b905082601560008282546122c69190615779565b90915550506015546122db906103e8906158cb565b601755818110156123215760405162461bcd60e51b815260206004820152601060248201526f1b5a5b941bdbdb105b5bdd5b9d13dd5d60821b6044820152606401611119565b61232b3382613ecc565b6009546040516323b872dd60e01b81526001600160a01b03909116906323b872dd9061235f90339030908890600401615871565b6020604051808303816000875af115801561237e573d6000803e3d6000fd5b505050506040513d601f19601f820116820180604052508101906123a29190615854565b506123b04262015180615779565b33600081815260186020526040908190209290925590517ff16ede70e2cc42ecf32f5e0d9505c5e24fafa0ea54a44ca42089b4170f9af88c916123f491849061583b565b60405180910390a1505050565b60008061240e848661578c565b9050600061241c8683613c8b565b90506000612432670de0b6b3a76400008361578c565b905061244685670de0b6b3a764000061578c565b93506122856124558983613dad565b85613c8b565b600e5460ff161561246b57600080fd5b8015612552576009546001600160a01b03166323b872dd33308561248f888a615779565b6124999190615779565b6040518463ffffffff1660e01b81526004016124b793929190615871565b6020604051808303816000875af11580156124d6573d6000803e3d6000fd5b505050506040513d601f19601f820116820180604052508101906124fa9190615854565b61250357600080fd5b82601260008282546125159190615779565b92505081905550816010600082825461252e9190615779565b9250508190555083601460008282546125479190615779565b9091555061264c9050565b6001600160a01b037f0000000000000000000000000000000000000000000000000000000000000000166323b872dd33308561258e888a615779565b6125989190615779565b6040518463ffffffff1660e01b81526004016125b693929190615871565b6020604051808303816000875af11580156125d5573d6000803e3d6000fd5b505050506040513d601f19601f820116820180604052508101906125f99190615854565b61260257600080fd5b82601160008282546126149190615779565b9250508190555081600f600082825461262d9190615779565b9250508190555083601360008282546126469190615779565b90915550505b612654610c88565b7f46296264cd106b25aaa6bd852f4cf76bbd7d70550bbe6352bc3a47e35c6f1b2f826126808587615779565b61268a9190615779565b6040805191825283151560208301520160405180910390a150505050565b600c546001600160a01b031633146126bf57600080fd5b6009546001600160a01b0316156126d557600080fd5b60118490556012839055600980546001600160a01b0319166001600160a01b03848116919091179091556040516323b872dd60e01b81527f0000000000000000000000000000000000000000000000000000000000000000909116906323b872dd9061274990339030908990600401615871565b6020604051808303816000875af1158015612768573d6000803e3d6000fd5b505050506040513d601f19601f8201168201806040525081019061278c9190615854565b61279557600080fd5b60095460405163d4beb4fd60e01b81526001600160a01b039091169063d4beb4fd906127c7903090879060040161583b565b600060405180830381600087803b1580156127e157600080fd5b505af11580156127f5573d6000803e3d6000fd5b5050505061280c3368056bc75e2d63100000613ecc565b60005b85518110156128b957600b60405180604001604052808984815181106128375761283761579f565b602002602001015181526020018884815181106128565761285661579f565b6020908102919091018101516001600160a01b0390811690925283546001808201865560009586529482902084516002909202019081559201519190920180546001600160a01b03191691909216179055806128b1816158df565b91505061280f565b50600c80546001600160a01b0319166001600160a01b03929092169190911790555050505050565b606060058054610b9890615729565b600e5460ff161561290057600080fd5b600e805460ff1916600117905560408101516020820151600091612923916158f8565b90506000811215612952576129378161591f565b61294f90600080516020615fa983398151915261578c565b90505b8083606001511461296257600080fd5b61296f83602001516121b2565b6129aa5760405162461bcd60e51b815260206004820152600c60248201526b1a5b9d985b1a59081c9bdbdd60a21b6044820152606401611119565b6129b383613f58565b6129ef5760405162461bcd60e51b815260206004820152600d60248201526c34b73b30b634b210383937b7b360991b6044820152606401611119565b600080516020615fa983398151915282604051602001612a0f919061593b565b6040516020818303038152906040528051906020012060001c612a32919061594e565b836040015114612a785760405162461bcd60e51b81526020600482015260116024820152700d2dcc6dee4e4cac6e840cac840d0c2e6d607b1b6044820152606401611119565b600082602001511215612afb57600954825160208401516001600160a01b039092169163d4beb4fd9190612aab9061591f565b6040518363ffffffff1660e01b8152600401612ac892919061583b565b600060405180830381600087803b158015612ae257600080fd5b505af1158015612af6573d6000803e3d6000fd5b505050505b612b07838360006144bb565b604082015160009015612c2057600954604080850151905163d4beb4fd60e01b81526001600160a01b039092169163d4beb4fd91612b4a9133919060040161583b565b600060405180830381600087803b158015612b6457600080fd5b505af1158015612b78573d6000803e3d6000fd5b50505050606083015115612c2057612b9b60125460115485606001516000612230565b90508260600151836040015111612be55760405162461bcd60e51b815260206004820152600e60248201526d72656261746520746f6f2062696760901b6044820152606401611119565b82516040516001600160a01b039091169082156108fc029083906000818181858888f19350505050158015612c1e573d6000803e3d6000fd5b505b803414612c655760405162461bcd60e51b81526020600482015260136024820152726d73672076616c756520213d2072656261746560681b6044820152606401611119565b5050600e805460ff191690555050565b6000612c82338484613bb2565b50600192915050565b600080846020015113612ce05760405162461bcd60e51b815260206004820152601760248201527f616d6f756e74206d75737420626520706f7369746976650000000000000000006044820152606401611119565b600e5460ff1615612cf057600080fd5b6040805180820182528581526020808201889052600a8054600181018255600091909152825180517fc65a7bb8d6351c1cf70c95a316cc6a92839c986682d98bc35f958f4883f9d2a8600d90930292830180546001600160a01b0319166001600160a01b03909216919091178155928101517fc65a7bb8d6351c1cf70c95a316cc6a92839c986682d98bc35f958f4883f9d2a9830155938401517fc65a7bb8d6351c1cf70c95a316cc6a92839c986682d98bc35f958f4883f9d2aa82015560608401517fc65a7bb8d6351c1cf70c95a316cc6a92839c986682d98bc35f958f4883f9d2ab82015560808401519293919283917fc65a7bb8d6351c1cf70c95a316cc6a92839c986682d98bc35f958f4883f9d2ac0190612e0f90826159b1565b5060a08201516005820190612e2490826159b1565b5050506020820151805160068301908190612e3f90826159b1565b506020828101516001830155604083015160028301556060830151600383015560808301518051612e769260048501920190614bcd565b5060a0820151612e8c9060058301906002614c14565b5050600a54885160608a01516020808c015160405194985060009750612eb89650929450909201615a70565b60405160208183030381529060405280519060200120905081601a6000838152602001908152602001600020819055506000612eff60115460125488602001516000612401565b90508415612f74576009546020870151604051630a6c1a4f60e11b81526001600160a01b03909216916314d8349e91612f3d9133919060040161583b565b600060405180830381600087803b158015612f5757600080fd5b505af1158015612f6b573d6000803e3d6000fd5b5050505061306b565b83811115612fb75760405162461bcd60e51b815260206004820152601060248201526f17db585e13dd5d08195e18d95959195960821b6044820152606401611119565b6040516323b872dd60e01b81526001600160a01b037f000000000000000000000000000000000000000000000000000000000000000016906323b872dd9061300790339030908690600401615871565b6020604051808303816000875af1158015613026573d6000803e3d6000fd5b505050506040513d601f19601f8201168201806040525081019061304a9190615854565b61305357600080fd5b80601160008282546130659190615779565b90915550505b60006103e860135461307d91906158cb565b905081811115801561308f5750600081115b156131465760405163a9059cbb60e01b81526001600160a01b037f0000000000000000000000000000000000000000000000000000000000000000169063a9059cbb906130e2903390859060040161583b565b6020604051808303816000875af1158015613101573d6000803e3d6000fd5b505050506040513d601f19601f820116820180604052508101906131259190615854565b61312e57600080fd5b8060136000828254613140919061578c565b90915550505b6103e860145461315691906158cb565b905061316587602001516146dd565b81111580156131745750600081115b156132075760095460405163a9059cbb60e01b81526001600160a01b039091169063a9059cbb906131ab903390859060040161583b565b6020604051808303816000875af11580156131ca573d6000803e3d6000fd5b505050506040513d601f19601f820116820180604052508101906131ee9190615854565b508060146000828254613201919061578c565b90915550505b60005b600d546132199060019061578c565b81116132b657600d81815481106132325761323261579f565b6000918252602090912001546001600160a01b03166351e3aea961325587610cea565b6040518263ffffffff1660e01b81526004016132719190614d4b565b600060405180830381600087803b15801561328b57600080fd5b505af115801561329f573d6000803e3d6000fd5b5050505080806132ae906158df565b91505061320a565b506132bf610c88565b6020808801516040805189151581523393810193909352820186905260608201527f0a690c60dfc5e43723ca5640f57a04e22055c1e98fe144bb95da52ce24ae4b9b9060800160405180910390a1505050949350505050565b600e5460ff161561332857600080fd5b613330614c41565b613338614c7a565b60606000600d868154811061334f5761334f61579f565b600091825260209091200154604051636b2fd90560e01b81526001600160a01b0390911690636b2fd90590613388908890600401614d4b565b6000604051808303816000875af11580156133a7573d6000803e3d6000fd5b505050506040513d6000823e601f3d908101601f191682016040526133cf9190810190615ada565b604080516002808252606082019092529294509092508160200160208202803683375050506080850152815161340e9060209084018101908401615b20565b8a608001516000815181106134255761342561579f565b602002602001018b608001516001815181106134435761344361579f565b602002602001018c60a001516000600281106134615761346161579f565b602002018d60a0015160016002811061347c5761347c61579f565b60a08f019590955260808e0195909552948d5260209092029092019390935292905291909152526134af848460016144bb565b60006107d060105411156135ef576103e86010546134cd91906158cb565b905080601060008282546134e1919061578c565b90915550506001600160a01b03821615613578576135006002826158cb565b60095460405163a9059cbb60e01b81529192506001600160a01b03169063a9059cbb90613533908590859060040161583b565b6020604051808303816000875af1158015613552573d6000803e3d6000fd5b505050506040513d601f19601f820116820180604052508101906135769190615854565b505b60095460405163a9059cbb60e01b81526001600160a01b039091169063a9059cbb906135aa903390859060040161583b565b6020604051808303816000875af11580156135c9573d6000803e3d6000fd5b505050506040513d601f19601f820116820180604052508101906135ed9190615854565b505b6107d0600f541115613767576103e8600f5461360b91906158cb565b905080600f600082825461361f919061578c565b90915550506001600160a01b038216156136d45761363e6002826158cb565b60405163a9059cbb60e01b81529091506001600160a01b037f0000000000000000000000000000000000000000000000000000000000000000169063a9059cbb9061368f908590859060040161583b565b6020604051808303816000875af11580156136ae573d6000803e3d6000fd5b505050506040513d601f19601f820116820180604052508101906136d29190615854565b505b60405163a9059cbb60e01b81526001600160a01b037f0000000000000000000000000000000000000000000000000000000000000000169063a9059cbb90613722903390859060040161583b565b6020604051808303816000875af1158015613741573d6000803e3d6000fd5b505050506040513d601f19601f820116820180604052508101906137659190615854565b505b7f7f293aa0b9ae407a05fb89bef36529d7b5a7b5912e5cfa7a0ee9e251e70c6b0e8787604051613798929190615bce565b60405180910390a150505050505050565b600e5460ff16156137b957600080fd5b60006137c784600654613c8b565b9050600081116138065760405162461bcd60e51b815260206004820152600a602482015269726174696f207a65726f60b01b6044820152606401611119565b600061381482601154613dad565b90508281111561382357600080fd5b806011546138319190615779565b601181905550600061384583601254613dad565b90508481111561385457600080fd5b806012546138629190615779565b60125561386f3387613ecc565b6040516323b872dd60e01b81526001600160a01b037f000000000000000000000000000000000000000000000000000000000000000016906323b872dd906138bf90339030908790600401615871565b6020604051808303816000875af11580156138de573d6000803e3d6000fd5b505050506040513d601f19601f820116820180604052508101906139029190615854565b61390b57600080fd5b6009546040516323b872dd60e01b81526001600160a01b03909116906323b872dd9061393f90339030908690600401615871565b6020604051808303816000875af115801561395e573d6000803e3d6000fd5b505050506040513d601f19601f820116820180604052508101906139829190615854565b5061398b610c88565b7ff16ede70e2cc42ecf32f5e0d9505c5e24fafa0ea54a44ca42089b4170f9af88c33876040516139bc92919061583b565b60405180910390a1505050505050565b60006139de601254601154600061130f565b905090565b6000806139f883670de0b6b3a7640000613dad565b90506000613a068287615779565b90506000613a148288613c8b565b90506000613a3b82613a36670de0b6b3a7640000671bc16d674ec80000613c8b565b6146f9565b90506000613a498289613dad565b9050613a55888261578c565b9998505050505050505050565b6000808215613b3757613a85670de0b6b3a7640000671bc16d674ec80000613c8b565b90506000613a9b86670de0b6b3a7640000613dad565b90506000613aa9828961578c565b90506000613ab7828a613c8b565b90506000613ad182613a36670de0b6b3a764000088613c8b565b90506000613adf828d613dad565b90506000613aed828e61578c565b90506000613b0c613b0689670de0b6b3a764000061578c565b8c613dad565b9050613b2982613b2483670de0b6b3a764000061578c565b613dad565b985050505050505050613ba8565b6000613b4b85670de0b6b3a764000061578c565b9050613b578682613dad565b90506000613b6d670de0b6b3a764000089613c8b565b90506000613b8c613b8683670de0b6b3a764000061578c565b896146f9565b9050613b988a82613dad565b613ba2908b61578c565b94505050505b5095945050505050565b6001600160a01b0383166000908152601860205260409020544211613bd657600080fd5b6001600160a01b038316600090815260076020526040902054613bfa90829061578c565b6001600160a01b038085166000908152600760205260408082209390935590841681522054613c2a908290615779565b6001600160a01b0380841660008181526007602052604090819020939093559151908516907fddf252ad1be2c89b69c2b068fc378daa952ba7f163c4a11628f55a4df523b3ef90613c7e9085815260200190565b60405180910390a3505050565b600081600003613ccc5760405162461bcd60e51b815260206004820152600c60248201526b4552525f4449565f5a45524f60a01b6044820152606401611119565b6000613ce084670de0b6b3a7640000615be7565b9050831580613cff5750613cf484826158cb565b670de0b6b3a7640000145b613d3e5760405162461bcd60e51b815260206004820152601060248201526f11549497d1125597d25395115493905360821b6044820152606401611119565b6000613d4b6002856158cb565b613d559083615779565b905081811015613d9a5760405162461bcd60e51b815260206004820152601060248201526f11549497d1125597d25395115493905360821b6044820152606401611119565b613da484826158cb565b95945050505050565b600080613dba8385615be7565b9050831580613dd1575082613dcf85836158cb565b145b613e105760405162461bcd60e51b815260206004820152601060248201526f4552525f4d554c5f4f564552464c4f5760801b6044820152606401611119565b6000613e24826706f05b59d3b20000615779565b9050613da4670de0b6b3a7640000826158cb565b6001600160a01b038216600090815260076020526040902054613e5c90829061578c565b6001600160a01b038316600090815260076020526040902055600654613e8390829061578c565b6006556040518181526000906001600160a01b038416907fddf252ad1be2c89b69c2b068fc378daa952ba7f163c4a11628f55a4df523b3ef906020015b60405180910390a35050565b6001600160a01b038216600090815260076020526040902054613ef0908290615779565b6001600160a01b038316600090815260076020526040902055600654613f17908290615779565b6006556040518181526001600160a01b038316906000907fddf252ad1be2c89b69c2b068fc378daa952ba7f163c4a11628f55a4df523b3ef90602001613ec0565b6000613f62614b8a565b613f6a614cb9565b613f72614b8a565b8460000151806020019051810190613f8a9190615c43565b6080880151519295509093509150600203614119577f00000000000000000000000000000000000000000000000000000000000000006001600160a01b031663c9219a7a8484846040518061010001604052808b6020015160001c81526020018b6060015181526020017f000000000000000000000000000000000000000000000000000000000000000081526020018b6040015181526020018b6080015160008151811061403b5761403b61579f565b602002602001015160001c81526020018b608001516001815181106140625761406261579f565b602002602001015160001c81526020018b60a001516000600281106140895761408961579f565b602002015160001c81526020018b60a001516001600281106140ad576140ad61579f565b602002015190526040516001600160e01b031960e087901b1681526140d89493929190600401615cfe565b602060405180830381865afa1580156140f5573d6000803e3d6000fd5b505050506040513d601f19601f82011682018060405250810190613da49190615854565b846080015151601003614481577f00000000000000000000000000000000000000000000000000000000000000006001600160a01b031663c5a0fc26848484604051806102c001604052808b6020015160001c81526020018b6060015181526020017f000000000000000000000000000000000000000000000000000000000000000081526020018b6040015181526020018b608001516000815181106141c2576141c261579f565b602002602001015160001c81526020018b608001516001815181106141e9576141e961579f565b602002602001015160001c81526020018b608001516002815181106142105761421061579f565b602002602001015160001c81526020018b608001516003815181106142375761423761579f565b602002602001015160001c81526020018b6080015160048151811061425e5761425e61579f565b602002602001015160001c81526020018b608001516005815181106142855761428561579f565b602002602001015160001c81526020018b608001516006815181106142ac576142ac61579f565b602002602001015160001c81526020018b608001516007815181106142d3576142d361579f565b602002602001015160001c81526020018b608001516008815181106142fa576142fa61579f565b602002602001015160001c81526020018b608001516009815181106143215761432161579f565b602002602001015160001c81526020018b60800151600a815181106143485761434861579f565b602002602001015160001c81526020018b60800151600b8151811061436f5761436f61579f565b602002602001015160001c81526020018b60800151600c815181106143965761439661579f565b602002602001015160001c81526020018b60800151600d815181106143bd576143bd61579f565b602002602001015160001c81526020018b60800151600e815181106143e4576143e461579f565b602002602001015160001c81526020018b60800151600f8151811061440b5761440b61579f565b602002602001015160001c81526020018b60a001516000600281106144325761443261579f565b602002015160001c81526020018b60a001516001600281106144565761445661579f565b602002015190526040516001600160e01b031960e087901b1681526140d89493929190600401615d5b565b60405162461bcd60e51b815260206004820152600f60248201526e189859081a5b9c1d5d0818dbdd5b9d608a1b6044820152606401611119565b60005b8360800151518110156145f75760196000856080015183815181106144e5576144e561579f565b60209081029190910181015182528101919091526040016000205460ff16156145465760405162461bcd60e51b8152602060048201526013602482015272125b9c1d5d08185b1c9958591e481cdc195b9d606a1b6044820152606401611119565b600160196000866080015184815181106145625761456261579f565b6020026020010151815260200190815260200160002060006101000a81548160ff0219169083151502179055507f5e58f77bbf94b46d8d896e29753e4458c6e59b48581e20ed58c9558e96f297ce846080015182815181106145c6576145c661579f565b60200260200101516040516145dd91815260200190565b60405180910390a1806145ef816158df565b9150506144be565b5060a0830151805160209091015161460f91906147fe565b50614618610c88565b60a0830151516003547f2521e31ea1559c6ff96bf5bd8f8332b81f1a00fce5f2f35430bd450a657c2a76919061465e90600290640100000000900463ffffffff16615dac565b8460800151846040516146749493929190615dc9565b60405180910390a160a08301517f2521e31ea1559c6ff96bf5bd8f8332b81f1a00fce5f2f35430bd450a657c2a7690600160200201516003546146c790600190640100000000900463ffffffff16615dac565b8460a00151846040516123f49493929190615dc9565b6000808212156146f5576146f08261591f565b610c82565b5090565b600060018310156147435760405162461bcd60e51b81526020600482015260146024820152734552525f504f575f424153455f544f4f5f4c4f5760601b6044820152606401611119565b671bc16d674ec7ffff8311156147935760405162461bcd60e51b815260206004820152601560248201527408aa4a4bea09eaebe8482a68abea89e9ebe90928e9605b1b6044820152606401611119565b600061479e836149ba565b905060006147ac828561578c565b905060006147c2866147bd856149d7565b6149eb565b9050816000036147d6579250610c82915050565b60006147e787846305f5e100614a60565b90506147f38282613dad565b979650505050505050565b600354640100000000900463ffffffff1661483a7f00000000000000000000000000000000000000000000000000000000000000006002615f0d565b63ffffffff168163ffffffff160361485157600080fd5b600061485e600283615f22565b9050600061486c85856111d1565b905060008060015b7f000000000000000000000000000000000000000000000000000000000000000063ffffffff168163ffffffff161015614934576148b3600286615f45565b63ffffffff166000036148ed5763ffffffff8116600090815260026020908152604080832054918390529091208590558493509150614909565b63ffffffff811660009081526020819052604090205492508391505b61491383836111d1565b9350614920600286615f22565b94508061492c81615f68565b915050614874565b5060035460009060649061494f9063ffffffff166001615f8b565b6149599190615f45565b6003805463ffffffff191663ffffffff83169081179091556000908152600160205260409020859055905061498f866002615f8b565b600360046101000a81548163ffffffff021916908363ffffffff160217905550505050505092915050565b60006149c5826149d7565b610c8290670de0b6b3a7640000615be7565b6000610c82670de0b6b3a7640000836158cb565b60006149f860028361594e565b600003614a0d57670de0b6b3a7640000614a0f565b825b9050614a1c6002836158cb565b91505b8115610c8257614a2f8384613dad565b9250614a3c60028361594e565b15614a4e57614a4b8184613dad565b90505b614a596002836158cb565b9150614a1f565b6000828180614a7787670de0b6b3a7640000614b53565b670de0b6b3a76400009550909250905083600060015b878310614b46576000614aa882670de0b6b3a7640000615be7565b9050600080614ac889614ac3670de0b6b3a76400008661578c565b614b53565b91509150614ada86613b24848b613dad565b9550614ae68684613c8b565b955085600003614af857505050614b46565b8615614b02579315935b8015614b0c579315935b8415614b2357614b1c868b61578c565b9950614b30565b614b2d868b615779565b99505b5050508080614b3e906158df565b915050614a8d565b5050505050509392505050565b600080828410614b7257614b67838561578c565b600091509150614b83565b614b7c848461578c565b6001915091505b9250929050565b60405180604001604052806002906020820280368337509192915050565b6040518060400160405280614bbb614c7a565b8152602001614bc8614c41565b905290565b828054828255906000526020600020908101928215614c08579160200282015b82811115614c08578251825591602001919060010190614bed565b506146f5929150614ce6565b8260028101928215614c085791602002820182811115614c08578251825591602001919060010190614bed565b6040518060c001604052806060815260200160008019168152602001600081526020016000815260200160608152602001614bc8614b8a565b6040518060c0016040528060006001600160a01b0316815260200160008152602001600081526020016000815260200160608152602001606081525090565b60405180604001604052806002905b614cd0614b8a565b815260200190600190039081614cc85790505090565b5b808211156146f55760008155600101614ce7565b60005b83811015614d16578181015183820152602001614cfe565b50506000910152565b60008151808452614d37816020860160208601614cfb565b601f01601f19169290920160200192915050565b602081526000614d5e6020830184614d1f565b9392505050565b6001600160a01b0381168114614d7a57600080fd5b50565b8035611ced81614d65565b60008060408385031215614d9b57600080fd5b8235614da681614d65565b946020939093013593505050565b600060208284031215614dc657600080fd5b5035919050565b600080600060608486031215614de257600080fd5b8335614ded81614d65565b92506020840135614dfd81614d65565b929592945050506040919091013590565b60008060408385031215614e2157600080fd5b50508035926020909101359150565b6020808252825182820181905260009190848201906040850190845b81811015614e715783516001600160a01b031683529284019291840191600101614e4c565b50909695505050505050565b600080600060608486031215614e9257600080fd5b505081359360208301359350604090920135919050565b60018060a01b0381511682526020810151602083015260408101516040830152606081015160608301526000608082015160c06080850152614eee60c0850182614d1f565b905060a083015184820360a0860152613da48282614d1f565b8060005b6002811015614f2a578151845260209384019390910190600101614f0b565b50505050565b600060208083528351604082850152614f4c6060850182614ea9565b905081850151601f19858303016040860152805160e08352614f7160e0840182614d1f565b9050838201518484015260408201516040840152606082015160608401526080820151838203608085015281815180845286840191508683019350600092505b80831015614fd15783518252928601926001929092019190860190614fb1565b5060a0840151955061228560a0860187614f07565b8015158114614d7a57600080fd5b6000806000806080858703121561500a57600080fd5b843561501581614fe6565b966020860135965060408601359560600135945092505050565b602080825282518282018190526000919060409081850190868401855b8281101561507a578151805185528601516001600160a01b031686850152928401929085019060010161504c565b5091979650505050505050565b60006020828403121561509957600080fd5b8135614d5e81614d65565b600080600080608085870312156150ba57600080fd5b5050823594602084013594506040840135936060013592509050565b600080600080608085870312156150ec57600080fd5b843593506020850135925060408501359150606085013561510c81614fe6565b939692955090935050565b634e487b7160e01b600052604160045260246000fd5b60405160c081016001600160401b038111828210171561514f5761514f615117565b60405290565b604080519081016001600160401b038111828210171561514f5761514f615117565b604051601f8201601f191681016001600160401b038111828210171561519f5761519f615117565b604052919050565b60006001600160401b038211156151c0576151c0615117565b5060051b60200190565b600082601f8301126151db57600080fd5b813560206151f06151eb836151a7565b615177565b82815260059290921b8401810191818101908684111561520f57600080fd5b8286015b8481101561523357803561522681614d65565b8352918301918301615213565b509695505050505050565b60008060008060008060c0878903121561525757600080fd5b86356001600160401b038082111561526e57600080fd5b818901915089601f83011261528257600080fd5b813560206152926151eb836151a7565b82815260059290921b8401810191818101908d8411156152b157600080fd5b948201945b838610156152cf578535825294820194908201906152b6565b9a50508a0135925050808211156152e557600080fd5b506152f289828a016151ca565b955050604087013593506060870135925061530f60808801614d7d565b915061531d60a08801614d7d565b90509295509295509295565b60006001600160401b0382111561534257615342615117565b50601f01601f191660200190565b600082601f83011261536157600080fd5b813561536f6151eb82615329565b81815284602083860101111561538457600080fd5b816020850160208301376000918101602001919091529392505050565b600082601f8301126153b257600080fd5b813560206153c26151eb836151a7565b82815260059290921b840181019181810190868411156153e157600080fd5b8286015b8481101561523357803583529183019183016153e5565b600082601f83011261540d57600080fd5b615415615155565b80604084018581111561542757600080fd5b845b81811015615441578035845260209384019301615429565b509095945050505050565b600060e0828403121561545e57600080fd5b61546661512d565b905081356001600160401b038082111561547f57600080fd5b61548b85838601615350565b835260208401356020840152604084013560408401526060840135606084015260808401359150808211156154bf57600080fd5b506154cc848285016153a1565b6080830152506154df8360a084016153fc565b60a082015292915050565b600060c082840312156154fc57600080fd5b61550461512d565b905061550f82614d7d565b815260208201356020820152604082013560408201526060820135606082015260808201356001600160401b038082111561554957600080fd5b61555585838601615350565b608084015260a084013591508082111561556e57600080fd5b5061557b84828501615350565b60a08301525092915050565b6000806040838503121561559a57600080fd5b82356001600160401b03808211156155b157600080fd5b6155bd8683870161544c565b935060208501359150808211156155d357600080fd5b506155e0858286016154ea565b9150509250929050565b6000806000806080858703121561560057600080fd5b84356001600160401b038082111561561757600080fd5b6156238883890161544c565b9550602087013591508082111561563957600080fd5b50615646878288016154ea565b935050604085013561565781614fe6565b9396929550929360600135925050565b6000806040838503121561567a57600080fd5b8235915060208301356001600160401b0381111561569757600080fd5b6155e085828601615350565b600080604083850312156156b657600080fd5b82356156c181614d65565b915060208301356156d181614d65565b809150509250929050565b600080600080600060a086880312156156f457600080fd5b85359450602086013593506040860135925060608601359150608086013561571b81614fe6565b809150509295509295909350565b600181811c9082168061573d57607f821691505b60208210810361575d57634e487b7160e01b600052602260045260246000fd5b50919050565b634e487b7160e01b600052601160045260246000fd5b80820180821115610c8257610c82615763565b81810381811115610c8257610c82615763565b634e487b7160e01b600052603260045260246000fd5b87815286602082015285604082015284606082015260e0608082015260006157e060e0830186614d1f565b82810360a08401526157f28186614d1f565b905082810360c08401526158068185614d1f565b9a9950505050505050505050565b60408101610c828284614f07565b60006020828403121561583457600080fd5b5051919050565b6001600160a01b03929092168252602082015260400190565b60006020828403121561586657600080fd5b8151614d5e81614fe6565b6001600160a01b039384168152919092166020820152604081019190915260600190565b600063ffffffff8216806158ab576158ab615763565b6000190192915050565b634e487b7160e01b600052601260045260246000fd5b6000826158da576158da6158b5565b500490565b6000600182016158f1576158f1615763565b5060010190565b818103600083128015838313168383128216171561591857615918615763565b5092915050565b6000600160ff1b820161593457615934615763565b5060000390565b602081526000614d5e6020830184614ea9565b60008261595d5761595d6158b5565b500690565b601f8211156159ac57600081815260208120601f850160051c810160208610156159895750805b601f850160051c820191505b818110156159a857828155600101615995565b5050505b505050565b81516001600160401b038111156159ca576159ca615117565b6159de816159d88454615729565b84615962565b602080601f831160018114615a1357600084156159fb5750858301515b600019600386901b1c1916600185901b1785556159a8565b600085815260208120601f198616915b82811015615a4257888601518255948401946001909101908401615a23565b5085821015615a605787850151600019600388901b60f8161c191681555b5050505050600190811b01905550565b606081526000615a836060830186614d1f565b60208301949094525060400152919050565b600082601f830112615aa657600080fd5b8151615ab46151eb82615329565b818152846020838601011115615ac957600080fd5b6112a6826020830160208701614cfb565b60008060408385031215615aed57600080fd5b82516001600160401b03811115615b0357600080fd5b615b0f85828601615a95565b92505060208301516156d181614d65565b600080600080600080600060e0888a031215615b3b57600080fd5b8751965060208801519550604088015194506060880151935060808801516001600160401b0380821115615b6e57600080fd5b615b7a8b838c01615a95565b945060a08a0151915080821115615b9057600080fd5b615b9c8b838c01615a95565b935060c08a0151915080821115615bb257600080fd5b50615bbf8a828b01615a95565b91505092959891949750929550565b8281526040602082015260006112a66040830184614d1f565b8082028115828204841417610c8257610c82615763565b600082601f830112615c0f57600080fd5b615c17615155565b806040840185811115615c2957600080fd5b845b81811015615441578051845260209384019301615c2b565b60008060006101008486031215615c5957600080fd5b615c638585615bfe565b9250604085605f860112615c7657600080fd5b615c7e615155565b8060c0870188811115615c9057600080fd5b8388015b81811015615cb557615ca68a82615bfe565b84526020909301928401615c94565b50819550615cc38982615bfe565b9450505050509250925092565b8060005b6002811015614f2a57615ce8848351614f07565b6040939093019260209190910190600101615cd4565b6102008101615d0d8287614f07565b615d1a6040830186615cd0565b615d2760c0830185614f07565b61010082018360005b6008811015615d4f578151835260209283019290910190600101615d30565b50505095945050505050565b6103c08101615d6a8287614f07565b615d776040830186615cd0565b615d8460c0830185614f07565b61010082018360005b6016811015615d4f578151835260209283019290910190600101615d8d565b63ffffffff82811682821603908082111561591857615918615763565b84815263ffffffff84166020820152608060408201526000615dee6080830185614d1f565b9050821515606083015295945050505050565b600181815b80851115615e3e578163ffffffff04821115615e2457615e24615763565b80851615615e3157918102915b93841c9390800290615e06565b509250929050565b600082615e5557506001610c82565b81615e6257506000610c82565b8160018114615e785760028114615e8257615eb3565b6001915050610c82565b60ff841115615e9357615e93615763565b6001841b915063ffffffff821115615ead57615ead615763565b50610c82565b5060208310610133831016604e8410600b8410161715615ee5575081810a63ffffffff8111156146f0576146f0615763565b615eef8383615e01565b8063ffffffff04821115615f0557615f05615763565b029392505050565b600063ffffffff6112a6818516828516615e46565b600063ffffffff80841680615f3957615f396158b5565b92169190910492915050565b600063ffffffff80841680615f5c57615f5c6158b5565b92169190910692915050565b600063ffffffff808316818103615f8157615f81615763565b6001019392505050565b63ffffffff8181168382160190808211156159185761591861576356fe30644e72e131a029b85045b68181585d2833e84879b9709143e1f593f0000001a26469706673582212200075ad4c9d938576a987aadf4a51016d04c09caee06d17947a718ea39dc6f26664736f6c63430008110033","opcodes":"PUSH2 0x160 PUSH1 0x40 MSTORE PUSH1 0x3 DUP1 SLOAD PUSH1 0x1 PUSH1 0x1 PUSH1 0x40 SHL SUB NOT AND SWAP1 SSTORE CALLVALUE DUP1 ISZERO PUSH3 0x22 JUMPI PUSH1 0x0 DUP1 REVERT JUMPDEST POP PUSH1 0x40 MLOAD PUSH3 0x6911 CODESIZE SUB DUP1 PUSH3 0x6911 DUP4 CODECOPY DUP2 ADD PUSH1 0x40 DUP2 SWAP1 MSTORE PUSH3 0x45 SWAP2 PUSH3 0x50E JUMP JUMPDEST DUP2 DUP2 DUP6 DUP11 PUSH1 0x0 DUP3 PUSH4 0xFFFFFFFF AND GT PUSH3 0x5D JUMPI PUSH1 0x0 DUP1 REVERT JUMPDEST PUSH1 0x20 DUP3 PUSH4 0xFFFFFFFF AND LT PUSH3 0x71 JUMPI PUSH1 0x0 DUP1 REVERT JUMPDEST PUSH4 0xFFFFFFFF DUP3 AND PUSH1 0xA0 MSTORE PUSH1 0x1 PUSH1 0x1 PUSH1 0xA0 SHL SUB DUP2 AND PUSH1 0x80 MSTORE PUSH1 0x0 DUP1 MSTORE PUSH1 0x2 PUSH1 0x20 MSTORE PUSH32 0x2FE54C60D3ACABF3343A35B6EBA15DB4821B340F76E741E2249685ED4899AF6C PUSH32 0xAC33FF75C19E70FE83507DB0D683FD3465C996598DC972688B7ACE676C89077B SSTORE PUSH1 0x1 JUMPDEST PUSH1 0x20 DUP2 PUSH4 0xFFFFFFFF AND GT PUSH3 0x1E5 JUMPI DUP2 PUSH1 0x1 PUSH1 0x1 PUSH1 0xA0 SHL SUB AND PUSH4 0x299E5660 PUSH1 0x40 MLOAD DUP1 PUSH1 0x40 ADD PUSH1 0x40 MSTORE DUP1 PUSH1 0x2 PUSH1 0x0 PUSH1 0x1 DUP8 PUSH3 0x113 SWAP2 SWAP1 PUSH3 0x629 JUMP JUMPDEST PUSH4 0xFFFFFFFF AND DUP2 MSTORE PUSH1 0x20 ADD SWAP1 DUP2 MSTORE PUSH1 0x20 ADD PUSH1 0x0 KECCAK256 SLOAD DUP2 MSTORE PUSH1 0x20 ADD PUSH1 0x2 PUSH1 0x0 PUSH1 0x1 DUP8 PUSH3 0x140 SWAP2 SWAP1 PUSH3 0x629 JUMP JUMPDEST PUSH4 0xFFFFFFFF AND DUP2 MSTORE PUSH1 0x20 ADD SWAP1 DUP2 MSTORE PUSH1 0x20 ADD PUSH1 0x0 KECCAK256 SLOAD DUP2 MSTORE POP PUSH1 0x40 MLOAD DUP3 PUSH4 0xFFFFFFFF AND PUSH1 0xE0 SHL DUP2 MSTORE PUSH1 0x4 ADD PUSH3 0x176 SWAP2 SWAP1 PUSH3 0x650 JUMP JUMPDEST PUSH1 0x20 PUSH1 0x40 MLOAD DUP1 DUP4 SUB DUP2 DUP7 GAS STATICCALL ISZERO DUP1 ISZERO PUSH3 0x194 JUMPI RETURNDATASIZE PUSH1 0x0 DUP1 RETURNDATACOPY RETURNDATASIZE PUSH1 0x0 REVERT JUMPDEST POP POP POP POP PUSH1 0x40 MLOAD RETURNDATASIZE PUSH1 0x1F NOT PUSH1 0x1F DUP3 ADD AND DUP3 ADD DUP1 PUSH1 0x40 MSTORE POP DUP2 ADD SWAP1 PUSH3 0x1BA SWAP2 SWAP1 PUSH3 0x683 JUMP JUMPDEST PUSH4 0xFFFFFFFF DUP3 AND PUSH1 0x0 SWAP1 DUP2 MSTORE PUSH1 0x2 PUSH1 0x20 MSTORE PUSH1 0x40 SWAP1 KECCAK256 SSTORE DUP1 PUSH3 0x1DC DUP2 PUSH3 0x69D JUMP JUMPDEST SWAP2 POP POP PUSH3 0xD7 JUMP JUMPDEST POP PUSH1 0x0 JUMPDEST DUP3 PUSH4 0xFFFFFFFF AND DUP2 PUSH4 0xFFFFFFFF AND LT ISZERO PUSH3 0x234 JUMPI PUSH4 0xFFFFFFFF DUP2 AND PUSH1 0x0 SWAP1 DUP2 MSTORE PUSH1 0x2 PUSH1 0x20 SWAP1 DUP2 MSTORE PUSH1 0x40 DUP1 DUP4 KECCAK256 SLOAD SWAP2 DUP4 SWAP1 MSTORE SWAP1 SWAP2 KECCAK256 SSTORE DUP1 PUSH3 0x22B DUP2 PUSH3 0x69D JUMP JUMPDEST SWAP2 POP POP PUSH3 0x1E9 JUMP JUMPDEST POP POP PUSH4 0xFFFFFFFF AND PUSH1 0x0 SWAP1 DUP2 MSTORE PUSH1 0x2 PUSH1 0x20 SWAP1 DUP2 MSTORE PUSH1 0x40 DUP3 KECCAK256 SLOAD SWAP2 DUP1 MSTORE PUSH1 0x1 SWAP1 MSTORE PUSH32 0xA6EEF7E35ABE7026729641147F7915573C7E97B47EFA546F5F6E3230263BCB49 SSTORE PUSH1 0x4 PUSH3 0x284 DUP4 DUP3 PUSH3 0x752 JUMP JUMPDEST POP PUSH1 0x5 PUSH3 0x293 DUP3 DUP3 PUSH3 0x752 JUMP JUMPDEST POP POP POP PUSH1 0x1 PUSH1 0x1 PUSH1 0xA0 SHL SUB DUP1 DUP12 AND PUSH1 0xE0 MSTORE DUP10 DUP2 AND PUSH2 0x100 MSTORE DUP8 AND PUSH1 0xC0 MSTORE PUSH2 0x140 DUP7 SWAP1 MSTORE PUSH1 0xC DUP1 SLOAD PUSH1 0x1 PUSH1 0x1 PUSH1 0xA0 SHL SUB NOT AND CALLER OR SWAP1 SSTORE PUSH2 0x120 DUP4 SWAP1 MSTORE DUP5 MLOAD PUSH3 0x2E3 SWAP1 PUSH1 0xD SWAP1 PUSH1 0x20 DUP9 ADD SWAP1 PUSH3 0x2F4 JUMP JUMPDEST POP POP POP POP POP POP POP POP POP POP POP PUSH3 0x81E JUMP JUMPDEST DUP3 DUP1 SLOAD DUP3 DUP3 SSTORE SWAP1 PUSH1 0x0 MSTORE PUSH1 0x20 PUSH1 0x0 KECCAK256 SWAP1 DUP2 ADD SWAP3 DUP3 ISZERO PUSH3 0x34C JUMPI SWAP2 PUSH1 0x20 MUL DUP3 ADD JUMPDEST DUP3 DUP2 GT ISZERO PUSH3 0x34C JUMPI DUP3 MLOAD DUP3 SLOAD PUSH1 0x1 PUSH1 0x1 PUSH1 0xA0 SHL SUB NOT AND PUSH1 0x1 PUSH1 0x1 PUSH1 0xA0 SHL SUB SWAP1 SWAP2 AND OR DUP3 SSTORE PUSH1 0x20 SWAP1 SWAP3 ADD SWAP2 PUSH1 0x1 SWAP1 SWAP2 ADD SWAP1 PUSH3 0x315 JUMP JUMPDEST POP PUSH3 0x35A SWAP3 SWAP2 POP PUSH3 0x35E JUMP JUMPDEST POP SWAP1 JUMP JUMPDEST JUMPDEST DUP1 DUP3 GT ISZERO PUSH3 0x35A JUMPI PUSH1 0x0 DUP2 SSTORE PUSH1 0x1 ADD PUSH3 0x35F JUMP JUMPDEST DUP1 MLOAD PUSH1 0x1 PUSH1 0x1 PUSH1 0xA0 SHL SUB DUP2 AND DUP2 EQ PUSH3 0x38D JUMPI PUSH1 0x0 DUP1 REVERT JUMPDEST SWAP2 SWAP1 POP JUMP JUMPDEST PUSH4 0x4E487B71 PUSH1 0xE0 SHL PUSH1 0x0 MSTORE PUSH1 0x41 PUSH1 0x4 MSTORE PUSH1 0x24 PUSH1 0x0 REVERT JUMPDEST PUSH1 0x40 MLOAD PUSH1 0x1F DUP3 ADD PUSH1 0x1F NOT AND DUP2 ADD PUSH1 0x1 PUSH1 0x1 PUSH1 0x40 SHL SUB DUP2 GT DUP3 DUP3 LT OR ISZERO PUSH3 0x3D3 JUMPI PUSH3 0x3D3 PUSH3 0x392 JUMP JUMPDEST PUSH1 0x40 MSTORE SWAP2 SWAP1 POP JUMP JUMPDEST PUSH1 0x0 DUP3 PUSH1 0x1F DUP4 ADD SLT PUSH3 0x3ED JUMPI PUSH1 0x0 DUP1 REVERT JUMPDEST DUP2 MLOAD PUSH1 0x20 PUSH1 0x1 PUSH1 0x1 PUSH1 0x40 SHL SUB DUP3 GT ISZERO PUSH3 0x40B JUMPI PUSH3 0x40B PUSH3 0x392 JUMP JUMPDEST DUP2 PUSH1 0x5 SHL PUSH3 0x41C DUP3 DUP3 ADD PUSH3 0x3A8 JUMP JUMPDEST SWAP3 DUP4 MSTORE DUP5 DUP2 ADD DUP3 ADD SWAP3 DUP3 DUP2 ADD SWAP1 DUP8 DUP6 GT ISZERO PUSH3 0x437 JUMPI PUSH1 0x0 DUP1 REVERT JUMPDEST DUP4 DUP8 ADD SWAP3 POP JUMPDEST DUP5 DUP4 LT ISZERO PUSH3 0x461 JUMPI PUSH3 0x451 DUP4 PUSH3 0x375 JUMP JUMPDEST DUP3 MSTORE SWAP2 DUP4 ADD SWAP2 SWAP1 DUP4 ADD SWAP1 PUSH3 0x43D JUMP JUMPDEST SWAP8 SWAP7 POP POP POP POP POP POP POP JUMP JUMPDEST DUP1 MLOAD PUSH4 0xFFFFFFFF DUP2 AND DUP2 EQ PUSH3 0x38D JUMPI PUSH1 0x0 DUP1 REVERT JUMPDEST PUSH1 0x0 DUP3 PUSH1 0x1F DUP4 ADD SLT PUSH3 0x493 JUMPI PUSH1 0x0 DUP1 REVERT JUMPDEST DUP2 MLOAD PUSH1 0x1 PUSH1 0x1 PUSH1 0x40 SHL SUB DUP2 GT ISZERO PUSH3 0x4AF JUMPI PUSH3 0x4AF PUSH3 0x392 JUMP JUMPDEST PUSH1 0x20 PUSH3 0x4C5 PUSH1 0x1F DUP4 ADD PUSH1 0x1F NOT AND DUP3 ADD PUSH3 0x3A8 JUMP JUMPDEST DUP3 DUP2 MSTORE DUP6 DUP3 DUP5 DUP8 ADD ADD GT ISZERO PUSH3 0x4DA JUMPI PUSH1 0x0 DUP1 REVERT JUMPDEST PUSH1 0x0 JUMPDEST DUP4 DUP2 LT ISZERO PUSH3 0x4FA JUMPI DUP6 DUP2 ADD DUP4 ADD MLOAD DUP3 DUP3 ADD DUP5 ADD MSTORE DUP3 ADD PUSH3 0x4DD JUMP JUMPDEST POP PUSH1 0x0 SWAP3 DUP2 ADD SWAP1 SWAP2 ADD SWAP2 SWAP1 SWAP2 MSTORE SWAP4 SWAP3 POP POP POP JUMP JUMPDEST PUSH1 0x0 DUP1 PUSH1 0x0 DUP1 PUSH1 0x0 DUP1 PUSH1 0x0 DUP1 PUSH1 0x0 DUP1 PUSH2 0x140 DUP12 DUP14 SUB SLT ISZERO PUSH3 0x52F JUMPI PUSH1 0x0 DUP1 REVERT JUMPDEST PUSH3 0x53A DUP12 PUSH3 0x375 JUMP JUMPDEST SWAP10 POP PUSH3 0x54A PUSH1 0x20 DUP13 ADD PUSH3 0x375 JUMP JUMPDEST SWAP9 POP PUSH3 0x55A PUSH1 0x40 DUP13 ADD PUSH3 0x375 JUMP JUMPDEST SWAP8 POP PUSH3 0x56A PUSH1 0x60 DUP13 ADD PUSH3 0x375 JUMP JUMPDEST PUSH1 0x80 DUP13 ADD MLOAD PUSH1 0xA0 DUP14 ADD MLOAD SWAP2 SWAP9 POP SWAP7 POP PUSH1 0x1 PUSH1 0x1 PUSH1 0x40 SHL SUB DUP1 DUP3 GT ISZERO PUSH3 0x58F JUMPI PUSH1 0x0 DUP1 REVERT JUMPDEST PUSH3 0x59D DUP15 DUP4 DUP16 ADD PUSH3 0x3DB JUMP JUMPDEST SWAP7 POP PUSH3 0x5AD PUSH1 0xC0 DUP15 ADD PUSH3 0x46C JUMP JUMPDEST SWAP6 POP PUSH1 0xE0 DUP14 ADD MLOAD SWAP5 POP PUSH2 0x100 DUP14 ADD MLOAD SWAP2 POP DUP1 DUP3 GT ISZERO PUSH3 0x5CC JUMPI PUSH1 0x0 DUP1 REVERT JUMPDEST PUSH3 0x5DA DUP15 DUP4 DUP16 ADD PUSH3 0x481 JUMP JUMPDEST SWAP4 POP PUSH2 0x120 DUP14 ADD MLOAD SWAP2 POP DUP1 DUP3 GT ISZERO PUSH3 0x5F2 JUMPI PUSH1 0x0 DUP1 REVERT JUMPDEST POP PUSH3 0x601 DUP14 DUP3 DUP15 ADD PUSH3 0x481 JUMP JUMPDEST SWAP2 POP POP SWAP3 SWAP6 SWAP9 SWAP12 SWAP2 SWAP5 SWAP8 SWAP11 POP SWAP3 SWAP6 SWAP9 POP JUMP JUMPDEST PUSH4 0x4E487B71 PUSH1 0xE0 SHL PUSH1 0x0 MSTORE PUSH1 0x11 PUSH1 0x4 MSTORE PUSH1 0x24 PUSH1 0x0 REVERT JUMPDEST PUSH4 0xFFFFFFFF DUP3 DUP2 AND DUP3 DUP3 AND SUB SWAP1 DUP1 DUP3 GT ISZERO PUSH3 0x649 JUMPI PUSH3 0x649 PUSH3 0x613 JUMP JUMPDEST POP SWAP3 SWAP2 POP POP JUMP JUMPDEST PUSH1 0x40 DUP2 ADD DUP2 DUP4 PUSH1 0x0 JUMPDEST PUSH1 0x2 DUP2 LT ISZERO PUSH3 0x67A JUMPI DUP2 MLOAD DUP4 MSTORE PUSH1 0x20 SWAP3 DUP4 ADD SWAP3 SWAP1 SWAP2 ADD SWAP1 PUSH1 0x1 ADD PUSH3 0x659 JUMP JUMPDEST POP POP POP SWAP3 SWAP2 POP POP JUMP JUMPDEST PUSH1 0x0 PUSH1 0x20 DUP3 DUP5 SUB SLT ISZERO PUSH3 0x696 JUMPI PUSH1 0x0 DUP1 REVERT JUMPDEST POP MLOAD SWAP2 SWAP1 POP JUMP JUMPDEST PUSH1 0x0 PUSH4 0xFFFFFFFF DUP1 DUP4 AND DUP2 DUP2 SUB PUSH3 0x6B9 JUMPI PUSH3 0x6B9 PUSH3 0x613 JUMP JUMPDEST PUSH1 0x1 ADD SWAP4 SWAP3 POP POP POP JUMP JUMPDEST PUSH1 0x1 DUP2 DUP2 SHR SWAP1 DUP3 AND DUP1 PUSH3 0x6D8 JUMPI PUSH1 0x7F DUP3 AND SWAP2 POP JUMPDEST PUSH1 0x20 DUP3 LT DUP2 SUB PUSH3 0x6F9 JUMPI PUSH4 0x4E487B71 PUSH1 0xE0 SHL PUSH1 0x0 MSTORE PUSH1 0x22 PUSH1 0x4 MSTORE PUSH1 0x24 PUSH1 0x0 REVERT JUMPDEST POP SWAP2 SWAP1 POP JUMP JUMPDEST PUSH1 0x1F DUP3 GT ISZERO PUSH3 0x74D JUMPI PUSH1 0x0 DUP2 DUP2 MSTORE PUSH1 0x20 DUP2 KECCAK256 PUSH1 0x1F DUP6 ADD PUSH1 0x5 SHR DUP2 ADD PUSH1 0x20 DUP7 LT ISZERO PUSH3 0x728 JUMPI POP DUP1 JUMPDEST PUSH1 0x1F DUP6 ADD PUSH1 0x5 SHR DUP3 ADD SWAP2 POP JUMPDEST DUP2 DUP2 LT ISZERO PUSH3 0x749 JUMPI DUP3 DUP2 SSTORE PUSH1 0x1 ADD PUSH3 0x734 JUMP JUMPDEST POP POP POP JUMPDEST POP POP POP JUMP JUMPDEST DUP2 MLOAD PUSH1 0x1 PUSH1 0x1 PUSH1 0x40 SHL SUB DUP2 GT ISZERO PUSH3 0x76E JUMPI PUSH3 0x76E PUSH3 0x392 JUMP JUMPDEST PUSH3 0x786 DUP2 PUSH3 0x77F DUP5 SLOAD PUSH3 0x6C3 JUMP JUMPDEST DUP5 PUSH3 0x6FF JUMP JUMPDEST PUSH1 0x20 DUP1 PUSH1 0x1F DUP4 GT PUSH1 0x1 DUP2 EQ PUSH3 0x7BE JUMPI PUSH1 0x0 DUP5 ISZERO PUSH3 0x7A5 JUMPI POP DUP6 DUP4 ADD MLOAD JUMPDEST PUSH1 0x0 NOT PUSH1 0x3 DUP7 SWAP1 SHL SHR NOT AND PUSH1 0x1 DUP6 SWAP1 SHL OR DUP6 SSTORE PUSH3 0x749 JUMP JUMPDEST PUSH1 0x0 DUP6 DUP2 MSTORE PUSH1 0x20 DUP2 KECCAK256 PUSH1 0x1F NOT DUP7 AND SWAP2 JUMPDEST DUP3 DUP2 LT ISZERO PUSH3 0x7EF JUMPI DUP9 DUP7 ADD MLOAD DUP3 SSTORE SWAP5 DUP5 ADD SWAP5 PUSH1 0x1 SWAP1 SWAP2 ADD SWAP1 DUP5 ADD PUSH3 0x7CE JUMP JUMPDEST POP DUP6 DUP3 LT ISZERO PUSH3 0x80E JUMPI DUP8 DUP6 ADD MLOAD PUSH1 0x0 NOT PUSH1 0x3 DUP9 SWAP1 SHL PUSH1 0xF8 AND SHR NOT AND DUP2 SSTORE JUMPDEST POP POP POP POP POP PUSH1 0x1 SWAP1 DUP2 SHL ADD SWAP1 SSTORE POP JUMP JUMPDEST PUSH1 0x80 MLOAD PUSH1 0xA0 MLOAD PUSH1 0xC0 MLOAD PUSH1 0xE0 MLOAD PUSH2 0x100 MLOAD PUSH2 0x120 MLOAD PUSH2 0x140 MLOAD PUSH2 0x5FFE PUSH3 0x913 PUSH1 0x0 CODECOPY PUSH1 0x0 DUP2 DUP2 PUSH2 0xA25 ADD MSTORE DUP2 DUP2 PUSH2 0x1671 ADD MSTORE DUP2 DUP2 PUSH2 0x1AB1 ADD MSTORE PUSH2 0x1D5C ADD MSTORE PUSH1 0x0 DUP2 DUP2 PUSH2 0x8EB ADD MSTORE DUP2 DUP2 PUSH2 0x3FF6 ADD MSTORE PUSH2 0x417D ADD MSTORE PUSH1 0x0 DUP2 DUP2 PUSH2 0x4BA ADD MSTORE PUSH2 0x4128 ADD MSTORE PUSH1 0x0 DUP2 DUP2 PUSH2 0x65F ADD MSTORE PUSH2 0x3FA1 ADD MSTORE PUSH1 0x0 DUP2 DUP2 PUSH2 0xB67 ADD MSTORE DUP2 DUP2 PUSH2 0x17D9 ADD MSTORE DUP2 DUP2 PUSH2 0x1984 ADD MSTORE DUP2 DUP2 PUSH2 0x1AEF ADD MSTORE DUP2 DUP2 PUSH2 0x1E38 ADD MSTORE DUP2 DUP2 PUSH2 0x1FE2 ADD MSTORE DUP2 DUP2 PUSH2 0x255C ADD MSTORE DUP2 DUP2 PUSH2 0x270E ADD MSTORE DUP2 DUP2 PUSH2 0x2FCE ADD MSTORE DUP2 DUP2 PUSH2 0x30AB ADD MSTORE DUP2 DUP2 PUSH2 0x3658 ADD MSTORE DUP2 DUP2 PUSH2 0x36EB ADD MSTORE PUSH2 0x3886 ADD MSTORE PUSH1 0x0 DUP2 DUP2 PUSH2 0x616 ADD MSTORE DUP2 DUP2 PUSH2 0x4814 ADD MSTORE PUSH2 0x4876 ADD MSTORE PUSH1 0x0 DUP2 DUP2 PUSH2 0xB13 ADD MSTORE PUSH2 0x1228 ADD MSTORE PUSH2 0x5FFE PUSH1 0x0 RETURN INVALID PUSH1 0x80 PUSH1 0x40 MSTORE PUSH1 0x4 CALLDATASIZE LT PUSH2 0x376 JUMPI PUSH1 0x0 CALLDATALOAD PUSH1 0xE0 SHR DUP1 PUSH4 0x73EE0AC5 GT PUSH2 0x1D1 JUMPI DUP1 PUSH4 0xCD87A3B4 GT PUSH2 0x102 JUMPI DUP1 PUSH4 0xE0E6236E GT PUSH2 0xA0 JUMPI DUP1 PUSH4 0xEC732959 GT PUSH2 0x6F JUMPI DUP1 PUSH4 0xEC732959 EQ PUSH2 0xACD JUMPI DUP1 PUSH4 0xED33639F EQ PUSH2 0xB01 JUMPI DUP1 PUSH4 0xF77C4791 EQ PUSH2 0xB35 JUMPI DUP1 PUSH4 0xFC0C546A EQ PUSH2 0xB55 JUMPI PUSH1 0x0 DUP1 REVERT JUMPDEST DUP1 PUSH4 0xE0E6236E EQ PUSH2 0xA47 JUMPI DUP1 PUSH4 0xE5285DCC EQ PUSH2 0xA67 JUMPI DUP1 PUSH4 0xEA2388D2 EQ PUSH2 0xA97 JUMPI DUP1 PUSH4 0xEADB8259 EQ PUSH2 0xAB7 JUMPI PUSH1 0x0 DUP1 REVERT JUMPDEST DUP1 PUSH4 0xD544C1D2 GT PUSH2 0xDC JUMPI DUP1 PUSH4 0xD544C1D2 EQ PUSH2 0x998 JUMPI DUP1 PUSH4 0xDC76FABC EQ PUSH2 0x9B8 JUMPI DUP1 PUSH4 0xDD62ED3E EQ PUSH2 0x9CD JUMPI DUP1 PUSH4 0xDDCA3F43 EQ PUSH2 0xA13 JUMPI PUSH1 0x0 DUP1 REVERT JUMPDEST DUP1 PUSH4 0xCD87A3B4 EQ PUSH2 0x94D JUMPI DUP1 PUSH4 0xD2B12AD5 EQ PUSH2 0x962 JUMPI DUP1 PUSH4 0xD3261592 EQ PUSH2 0x982 JUMPI PUSH1 0x0 DUP1 REVERT JUMPDEST DUP1 PUSH4 0x9E7B1CD9 GT PUSH2 0x16F JUMPI DUP1 PUSH4 0xAAD32641 GT PUSH2 0x149 JUMPI DUP1 PUSH4 0xAAD32641 EQ PUSH2 0x8B9 JUMPI DUP1 PUSH4 0xADC879E9 EQ PUSH2 0x8D9 JUMPI DUP1 PUSH4 0xBA70F757 EQ PUSH2 0x90D JUMPI DUP1 PUSH4 0xBD4920E5 EQ PUSH2 0x937 JUMPI PUSH1 0x0 DUP1 REVERT JUMPDEST DUP1 PUSH4 0x9E7B1CD9 EQ PUSH2 0x866 JUMPI DUP1 PUSH4 0xA8109C80 EQ PUSH2 0x879 JUMPI DUP1 PUSH4 0xA9059CBB EQ PUSH2 0x899 JUMPI PUSH1 0x0 DUP1 REVERT JUMPDEST DUP1 PUSH4 0x840D205F GT PUSH2 0x1AB JUMPI DUP1 PUSH4 0x840D205F EQ PUSH2 0x7E4 JUMPI DUP1 PUSH4 0x8F84E27C EQ PUSH2 0x811 JUMPI DUP1 PUSH4 0x9260DF2A EQ PUSH2 0x831 JUMPI DUP1 PUSH4 0x95D89B41 EQ PUSH2 0x851 JUMPI PUSH1 0x0 DUP1 REVERT JUMPDEST DUP1 PUSH4 0x73EE0AC5 EQ PUSH2 0x78E JUMPI DUP1 PUSH4 0x76A38E91 EQ PUSH2 0x7AE JUMPI DUP1 PUSH4 0x7D33BC73 EQ PUSH2 0x7CE JUMPI PUSH1 0x0 DUP1 REVERT JUMPDEST DUP1 PUSH4 0x3C0540CF GT PUSH2 0x2AB JUMPI DUP1 PUSH4 0x59542CA9 GT PUSH2 0x249 JUMPI DUP1 PUSH4 0x6A01218E GT PUSH2 0x223 JUMPI DUP1 PUSH4 0x6A01218E EQ PUSH2 0x6F8 JUMPI DUP1 PUSH4 0x6D9833E3 EQ PUSH2 0x718 JUMPI DUP1 PUSH4 0x70A08231 EQ PUSH2 0x738 JUMPI DUP1 PUSH4 0x72EE6341 EQ PUSH2 0x76E JUMPI PUSH1 0x0 DUP1 REVERT JUMPDEST DUP1 PUSH4 0x59542CA9 EQ PUSH2 0x681 JUMPI DUP1 PUSH4 0x5BB25BE3 EQ PUSH2 0x6B6 JUMPI DUP1 PUSH4 0x67FB329B EQ PUSH2 0x6D8 JUMPI PUSH1 0x0 DUP1 REVERT JUMPDEST DUP1 PUSH4 0x436F9BE4 GT PUSH2 0x285 JUMPI DUP1 PUSH4 0x436F9BE4 EQ PUSH2 0x5B7 JUMPI DUP1 PUSH4 0x4B4D4AE8 EQ PUSH2 0x5D7 JUMPI DUP1 PUSH4 0x4ECF518B EQ PUSH2 0x604 JUMPI DUP1 PUSH4 0x522D0D70 EQ PUSH2 0x64D JUMPI PUSH1 0x0 DUP1 REVERT JUMPDEST DUP1 PUSH4 0x3C0540CF EQ PUSH2 0x546 JUMPI DUP1 PUSH4 0x40884C52 EQ PUSH2 0x573 JUMPI DUP1 PUSH4 0x414A37BA EQ PUSH2 0x595 JUMPI PUSH1 0x0 DUP1 REVERT JUMPDEST DUP1 PUSH4 0x23B872DD GT PUSH2 0x318 JUMPI DUP1 PUSH4 0x2FC0355F GT PUSH2 0x2F2 JUMPI DUP1 PUSH4 0x2FC0355F EQ PUSH2 0x4A8 JUMPI DUP1 PUSH4 0x313CE567 EQ PUSH2 0x4F4 JUMPI DUP1 PUSH4 0x34540E18 EQ PUSH2 0x510 JUMPI DUP1 PUSH4 0x38BF282E EQ PUSH2 0x526 JUMPI PUSH1 0x0 DUP1 REVERT JUMPDEST DUP1 PUSH4 0x23B872DD EQ PUSH2 0x45C JUMPI DUP1 PUSH4 0x24E14A7A EQ PUSH2 0x47C JUMPI DUP1 PUSH4 0x2D57121B EQ PUSH2 0x492 JUMPI PUSH1 0x0 DUP1 REVERT JUMPDEST DUP1 PUSH4 0x1595497D GT PUSH2 0x354 JUMPI DUP1 PUSH4 0x1595497D EQ PUSH2 0x3ED JUMPI DUP1 PUSH4 0x15E1B702 EQ PUSH2 0x411 JUMPI DUP1 PUSH4 0x18160DDD EQ PUSH2 0x431 JUMPI DUP1 PUSH4 0x1F639EE4 EQ PUSH2 0x446 JUMPI PUSH1 0x0 DUP1 REVERT JUMPDEST DUP1 PUSH4 0x6FDDE03 EQ PUSH2 0x37B JUMPI DUP1 PUSH4 0x95EA7B3 EQ PUSH2 0x3A6 JUMPI DUP1 PUSH4 0xB785FC6 EQ PUSH2 0x3D6 JUMPI JUMPDEST PUSH1 0x0 DUP1 REVERT JUMPDEST CALLVALUE DUP1 ISZERO PUSH2 0x387 JUMPI PUSH1 0x0 DUP1 REVERT JUMPDEST POP PUSH2 0x390 PUSH2 0xB89 JUMP JUMPDEST PUSH1 0x40 MLOAD PUSH2 0x39D SWAP2 SWAP1 PUSH2 0x4D4B JUMP JUMPDEST PUSH1 0x40 MLOAD DUP1 SWAP2 SUB SWAP1 RETURN JUMPDEST CALLVALUE DUP1 ISZERO PUSH2 0x3B2 JUMPI PUSH1 0x0 DUP1 REVERT JUMPDEST POP PUSH2 0x3C6 PUSH2 0x3C1 CALLDATASIZE PUSH1 0x4 PUSH2 0x4D88 JUMP JUMPDEST PUSH2 0xC1B JUMP JUMPDEST PUSH1 0x40 MLOAD SWAP1 ISZERO ISZERO DUP2 MSTORE PUSH1 0x20 ADD PUSH2 0x39D JUMP JUMPDEST CALLVALUE DUP1 ISZERO PUSH2 0x3E2 JUMPI PUSH1 0x0 DUP1 REVERT JUMPDEST POP PUSH2 0x3EB PUSH2 0xC88 JUMP JUMPDEST STOP JUMPDEST CALLVALUE DUP1 ISZERO PUSH2 0x3F9 JUMPI PUSH1 0x0 DUP1 REVERT JUMPDEST POP PUSH2 0x403 PUSH1 0x14 SLOAD DUP2 JUMP JUMPDEST PUSH1 0x40 MLOAD SWAP1 DUP2 MSTORE PUSH1 0x20 ADD PUSH2 0x39D JUMP JUMPDEST CALLVALUE DUP1 ISZERO PUSH2 0x41D JUMPI PUSH1 0x0 DUP1 REVERT JUMPDEST POP PUSH2 0x390 PUSH2 0x42C CALLDATASIZE PUSH1 0x4 PUSH2 0x4DB4 JUMP JUMPDEST PUSH2 0xCEA JUMP JUMPDEST CALLVALUE DUP1 ISZERO PUSH2 0x43D JUMPI PUSH1 0x0 DUP1 REVERT JUMPDEST POP PUSH1 0x6 SLOAD PUSH2 0x403 JUMP JUMPDEST CALLVALUE DUP1 ISZERO PUSH2 0x452 JUMPI PUSH1 0x0 DUP1 REVERT JUMPDEST POP PUSH2 0x403 PUSH1 0x10 SLOAD DUP2 JUMP JUMPDEST CALLVALUE DUP1 ISZERO PUSH2 0x468 JUMPI PUSH1 0x0 DUP1 REVERT JUMPDEST POP PUSH2 0x3C6 PUSH2 0x477 CALLDATASIZE PUSH1 0x4 PUSH2 0x4DCD JUMP JUMPDEST PUSH2 0x10A6 JUMP JUMPDEST CALLVALUE DUP1 ISZERO PUSH2 0x488 JUMPI PUSH1 0x0 DUP1 REVERT JUMPDEST POP PUSH2 0x403 PUSH1 0xF SLOAD DUP2 JUMP JUMPDEST CALLVALUE DUP1 ISZERO PUSH2 0x49E JUMPI PUSH1 0x0 DUP1 REVERT JUMPDEST POP PUSH2 0x403 PUSH1 0x13 SLOAD DUP2 JUMP JUMPDEST CALLVALUE DUP1 ISZERO PUSH2 0x4B4 JUMPI PUSH1 0x0 DUP1 REVERT JUMPDEST POP PUSH2 0x4DC PUSH32 0x0 DUP2 JUMP JUMPDEST PUSH1 0x40 MLOAD PUSH1 0x1 PUSH1 0x1 PUSH1 0xA0 SHL SUB SWAP1 SWAP2 AND DUP2 MSTORE PUSH1 0x20 ADD PUSH2 0x39D JUMP JUMPDEST CALLVALUE DUP1 ISZERO PUSH2 0x500 JUMPI PUSH1 0x0 DUP1 REVERT JUMPDEST POP PUSH1 0x40 MLOAD PUSH1 0x12 DUP2 MSTORE PUSH1 0x20 ADD PUSH2 0x39D JUMP JUMPDEST CALLVALUE DUP1 ISZERO PUSH2 0x51C JUMPI PUSH1 0x0 DUP1 REVERT JUMPDEST POP PUSH2 0x403 PUSH1 0x11 SLOAD DUP2 JUMP JUMPDEST CALLVALUE DUP1 ISZERO PUSH2 0x532 JUMPI PUSH1 0x0 DUP1 REVERT JUMPDEST POP PUSH2 0x403 PUSH2 0x541 CALLDATASIZE PUSH1 0x4 PUSH2 0x4E0E JUMP JUMPDEST PUSH2 0x11D1 JUMP JUMPDEST CALLVALUE DUP1 ISZERO PUSH2 0x552 JUMPI PUSH1 0x0 DUP1 REVERT JUMPDEST POP PUSH2 0x403 PUSH2 0x561 CALLDATASIZE PUSH1 0x4 PUSH2 0x4DB4 JUMP JUMPDEST PUSH1 0x0 SWAP1 DUP2 MSTORE PUSH1 0x1A PUSH1 0x20 MSTORE PUSH1 0x40 SWAP1 KECCAK256 SLOAD SWAP1 JUMP JUMPDEST CALLVALUE DUP1 ISZERO PUSH2 0x57F JUMPI PUSH1 0x0 DUP1 REVERT JUMPDEST POP PUSH2 0x588 PUSH2 0x12AE JUMP JUMPDEST PUSH1 0x40 MLOAD PUSH2 0x39D SWAP2 SWAP1 PUSH2 0x4E30 JUMP JUMPDEST CALLVALUE DUP1 ISZERO PUSH2 0x5A1 JUMPI PUSH1 0x0 DUP1 REVERT JUMPDEST POP PUSH2 0x403 PUSH1 0x0 DUP1 MLOAD PUSH1 0x20 PUSH2 0x5FA9 DUP4 CODECOPY DUP2 MLOAD SWAP2 MSTORE DUP2 JUMP JUMPDEST CALLVALUE DUP1 ISZERO PUSH2 0x5C3 JUMPI PUSH1 0x0 DUP1 REVERT JUMPDEST POP PUSH2 0x403 PUSH2 0x5D2 CALLDATASIZE PUSH1 0x4 PUSH2 0x4E7D JUMP JUMPDEST PUSH2 0x130F JUMP JUMPDEST CALLVALUE DUP1 ISZERO PUSH2 0x5E3 JUMPI PUSH1 0x0 DUP1 REVERT JUMPDEST POP PUSH2 0x5F7 PUSH2 0x5F2 CALLDATASIZE PUSH1 0x4 PUSH2 0x4DB4 JUMP JUMPDEST PUSH2 0x1351 JUMP JUMPDEST PUSH1 0x40 MLOAD PUSH2 0x39D SWAP2 SWAP1 PUSH2 0x4F30 JUMP JUMPDEST CALLVALUE DUP1 ISZERO PUSH2 0x610 JUMPI PUSH1 0x0 DUP1 REVERT JUMPDEST POP PUSH2 0x638 PUSH32 0x0 DUP2 JUMP JUMPDEST PUSH1 0x40 MLOAD PUSH4 0xFFFFFFFF SWAP1 SWAP2 AND DUP2 MSTORE PUSH1 0x20 ADD PUSH2 0x39D JUMP JUMPDEST CALLVALUE DUP1 ISZERO PUSH2 0x659 JUMPI PUSH1 0x0 DUP1 REVERT JUMPDEST POP PUSH2 0x4DC PUSH32 0x0 DUP2 JUMP JUMPDEST CALLVALUE DUP1 ISZERO PUSH2 0x68D JUMPI PUSH1 0x0 DUP1 REVERT JUMPDEST POP PUSH2 0x6A1 PUSH2 0x69C CALLDATASIZE PUSH1 0x4 PUSH2 0x4FF4 JUMP JUMPDEST PUSH2 0x1651 JUMP JUMPDEST PUSH1 0x40 DUP1 MLOAD SWAP3 DUP4 MSTORE PUSH1 0x20 DUP4 ADD SWAP2 SWAP1 SWAP2 MSTORE ADD PUSH2 0x39D JUMP JUMPDEST CALLVALUE DUP1 ISZERO PUSH2 0x6C2 JUMPI PUSH1 0x0 DUP1 REVERT JUMPDEST POP PUSH2 0x6CB PUSH2 0x1C5B JUMP JUMPDEST PUSH1 0x40 MLOAD PUSH2 0x39D SWAP2 SWAP1 PUSH2 0x502F JUMP JUMPDEST CALLVALUE DUP1 ISZERO PUSH2 0x6E4 JUMPI PUSH1 0x0 DUP1 REVERT JUMPDEST POP PUSH2 0x403 PUSH2 0x6F3 CALLDATASIZE PUSH1 0x4 PUSH2 0x4DB4 JUMP JUMPDEST PUSH2 0x1CD0 JUMP JUMPDEST CALLVALUE DUP1 ISZERO PUSH2 0x704 JUMPI PUSH1 0x0 DUP1 REVERT JUMPDEST POP PUSH2 0x403 PUSH2 0x713 CALLDATASIZE PUSH1 0x4 PUSH2 0x4E7D JUMP JUMPDEST PUSH2 0x1CF2 JUMP JUMPDEST CALLVALUE DUP1 ISZERO PUSH2 0x724 JUMPI PUSH1 0x0 DUP1 REVERT JUMPDEST POP PUSH2 0x3C6 PUSH2 0x733 CALLDATASIZE PUSH1 0x4 PUSH2 0x4DB4 JUMP JUMPDEST PUSH2 0x21B2 JUMP JUMPDEST CALLVALUE DUP1 ISZERO PUSH2 0x744 JUMPI PUSH1 0x0 DUP1 REVERT JUMPDEST POP PUSH2 0x403 PUSH2 0x753 CALLDATASIZE PUSH1 0x4 PUSH2 0x5087 JUMP JUMPDEST PUSH1 0x1 PUSH1 0x1 PUSH1 0xA0 SHL SUB AND PUSH1 0x0 SWAP1 DUP2 MSTORE PUSH1 0x7 PUSH1 0x20 MSTORE PUSH1 0x40 SWAP1 KECCAK256 SLOAD SWAP1 JUMP JUMPDEST CALLVALUE DUP1 ISZERO PUSH2 0x77A JUMPI PUSH1 0x0 DUP1 REVERT JUMPDEST POP PUSH2 0x403 PUSH2 0x789 CALLDATASIZE PUSH1 0x4 PUSH2 0x50A4 JUMP JUMPDEST PUSH2 0x2230 JUMP JUMPDEST CALLVALUE DUP1 ISZERO PUSH2 0x79A JUMPI PUSH1 0x0 DUP1 REVERT JUMPDEST POP PUSH2 0x3EB PUSH2 0x7A9 CALLDATASIZE PUSH1 0x4 PUSH2 0x4E0E JUMP JUMPDEST PUSH2 0x2291 JUMP JUMPDEST CALLVALUE DUP1 ISZERO PUSH2 0x7BA JUMPI PUSH1 0x0 DUP1 REVERT JUMPDEST POP PUSH2 0x403 PUSH2 0x7C9 CALLDATASIZE PUSH1 0x4 PUSH2 0x50A4 JUMP JUMPDEST PUSH2 0x2401 JUMP JUMPDEST CALLVALUE DUP1 ISZERO PUSH2 0x7DA JUMPI PUSH1 0x0 DUP1 REVERT JUMPDEST POP PUSH2 0x403 PUSH1 0x12 SLOAD DUP2 JUMP JUMPDEST CALLVALUE DUP1 ISZERO PUSH2 0x7F0 JUMPI PUSH1 0x0 DUP1 REVERT JUMPDEST POP PUSH2 0x403 PUSH2 0x7FF CALLDATASIZE PUSH1 0x4 PUSH2 0x5087 JUMP JUMPDEST PUSH1 0x18 PUSH1 0x20 MSTORE PUSH1 0x0 SWAP1 DUP2 MSTORE PUSH1 0x40 SWAP1 KECCAK256 SLOAD DUP2 JUMP JUMPDEST CALLVALUE DUP1 ISZERO PUSH2 0x81D JUMPI PUSH1 0x0 DUP1 REVERT JUMPDEST POP PUSH2 0x3EB PUSH2 0x82C CALLDATASIZE PUSH1 0x4 PUSH2 0x50D6 JUMP JUMPDEST PUSH2 0x245B JUMP JUMPDEST CALLVALUE DUP1 ISZERO PUSH2 0x83D JUMPI PUSH1 0x0 DUP1 REVERT JUMPDEST POP PUSH2 0x3EB PUSH2 0x84C CALLDATASIZE PUSH1 0x4 PUSH2 0x523E JUMP JUMPDEST PUSH2 0x26A8 JUMP JUMPDEST CALLVALUE DUP1 ISZERO PUSH2 0x85D JUMPI PUSH1 0x0 DUP1 REVERT JUMPDEST POP PUSH2 0x390 PUSH2 0x28E1 JUMP JUMPDEST PUSH2 0x3EB PUSH2 0x874 CALLDATASIZE PUSH1 0x4 PUSH2 0x5587 JUMP JUMPDEST PUSH2 0x28F0 JUMP JUMPDEST CALLVALUE DUP1 ISZERO PUSH2 0x885 JUMPI PUSH1 0x0 DUP1 REVERT JUMPDEST POP PUSH1 0x9 SLOAD PUSH2 0x4DC SWAP1 PUSH1 0x1 PUSH1 0x1 PUSH1 0xA0 SHL SUB AND DUP2 JUMP JUMPDEST CALLVALUE DUP1 ISZERO PUSH2 0x8A5 JUMPI PUSH1 0x0 DUP1 REVERT JUMPDEST POP PUSH2 0x3C6 PUSH2 0x8B4 CALLDATASIZE PUSH1 0x4 PUSH2 0x4D88 JUMP JUMPDEST PUSH2 0x2C75 JUMP JUMPDEST CALLVALUE DUP1 ISZERO PUSH2 0x8C5 JUMPI PUSH1 0x0 DUP1 REVERT JUMPDEST POP PUSH2 0x403 PUSH2 0x8D4 CALLDATASIZE PUSH1 0x4 PUSH2 0x55EA JUMP JUMPDEST PUSH2 0x2C8B JUMP JUMPDEST CALLVALUE DUP1 ISZERO PUSH2 0x8E5 JUMPI PUSH1 0x0 DUP1 REVERT JUMPDEST POP PUSH2 0x403 PUSH32 0x0 DUP2 JUMP JUMPDEST CALLVALUE DUP1 ISZERO PUSH2 0x919 JUMPI PUSH1 0x0 DUP1 REVERT JUMPDEST POP PUSH1 0x3 SLOAD PUSH4 0xFFFFFFFF AND PUSH1 0x0 SWAP1 DUP2 MSTORE PUSH1 0x1 PUSH1 0x20 MSTORE PUSH1 0x40 SWAP1 KECCAK256 SLOAD PUSH2 0x403 JUMP JUMPDEST CALLVALUE DUP1 ISZERO PUSH2 0x943 JUMPI PUSH1 0x0 DUP1 REVERT JUMPDEST POP PUSH2 0x403 PUSH1 0x15 SLOAD DUP2 JUMP JUMPDEST CALLVALUE DUP1 ISZERO PUSH2 0x959 JUMPI PUSH1 0x0 DUP1 REVERT JUMPDEST POP PUSH2 0x638 PUSH1 0x64 DUP2 JUMP JUMPDEST CALLVALUE DUP1 ISZERO PUSH2 0x96E JUMPI PUSH1 0x0 DUP1 REVERT JUMPDEST POP PUSH2 0x3EB PUSH2 0x97D CALLDATASIZE PUSH1 0x4 PUSH2 0x5667 JUMP JUMPDEST PUSH2 0x3318 JUMP JUMPDEST CALLVALUE DUP1 ISZERO PUSH2 0x98E JUMPI PUSH1 0x0 DUP1 REVERT JUMPDEST POP PUSH2 0x403 PUSH1 0x17 SLOAD DUP2 JUMP JUMPDEST CALLVALUE DUP1 ISZERO PUSH2 0x9A4 JUMPI PUSH1 0x0 DUP1 REVERT JUMPDEST POP PUSH2 0x3EB PUSH2 0x9B3 CALLDATASIZE PUSH1 0x4 PUSH2 0x4E7D JUMP JUMPDEST PUSH2 0x37A9 JUMP JUMPDEST CALLVALUE DUP1 ISZERO PUSH2 0x9C4 JUMPI PUSH1 0x0 DUP1 REVERT JUMPDEST POP PUSH2 0x403 PUSH2 0x39CC JUMP JUMPDEST CALLVALUE DUP1 ISZERO PUSH2 0x9D9 JUMPI PUSH1 0x0 DUP1 REVERT JUMPDEST POP PUSH2 0x403 PUSH2 0x9E8 CALLDATASIZE PUSH1 0x4 PUSH2 0x56A3 JUMP JUMPDEST PUSH1 0x1 PUSH1 0x1 PUSH1 0xA0 SHL SUB SWAP2 DUP3 AND PUSH1 0x0 SWAP1 DUP2 MSTORE PUSH1 0x8 PUSH1 0x20 SWAP1 DUP2 MSTORE PUSH1 0x40 DUP1 DUP4 KECCAK256 SWAP4 SWAP1 SWAP5 AND DUP3 MSTORE SWAP2 SWAP1 SWAP2 MSTORE KECCAK256 SLOAD SWAP1 JUMP JUMPDEST CALLVALUE DUP1 ISZERO PUSH2 0xA1F JUMPI PUSH1 0x0 DUP1 REVERT JUMPDEST POP PUSH2 0x403 PUSH32 0x0 DUP2 JUMP JUMPDEST CALLVALUE DUP1 ISZERO PUSH2 0xA53 JUMPI PUSH1 0x0 DUP1 REVERT JUMPDEST POP PUSH2 0x403 PUSH2 0xA62 CALLDATASIZE PUSH1 0x4 PUSH2 0x4E7D JUMP JUMPDEST PUSH2 0x39E3 JUMP JUMPDEST CALLVALUE DUP1 ISZERO PUSH2 0xA73 JUMPI PUSH1 0x0 DUP1 REVERT JUMPDEST POP PUSH2 0x3C6 PUSH2 0xA82 CALLDATASIZE PUSH1 0x4 PUSH2 0x4DB4 JUMP JUMPDEST PUSH1 0x0 SWAP1 DUP2 MSTORE PUSH1 0x19 PUSH1 0x20 MSTORE PUSH1 0x40 SWAP1 KECCAK256 SLOAD PUSH1 0xFF AND SWAP1 JUMP JUMPDEST CALLVALUE DUP1 ISZERO PUSH2 0xAA3 JUMPI PUSH1 0x0 DUP1 REVERT JUMPDEST POP PUSH2 0x403 PUSH2 0xAB2 CALLDATASIZE PUSH1 0x4 PUSH2 0x56DC JUMP JUMPDEST PUSH2 0x3A62 JUMP JUMPDEST CALLVALUE DUP1 ISZERO PUSH2 0xAC3 JUMPI PUSH1 0x0 DUP1 REVERT JUMPDEST POP PUSH2 0x403 PUSH1 0x16 SLOAD DUP2 JUMP JUMPDEST CALLVALUE DUP1 ISZERO PUSH2 0xAD9 JUMPI PUSH1 0x0 DUP1 REVERT JUMPDEST POP PUSH2 0x403 PUSH32 0x2FE54C60D3ACABF3343A35B6EBA15DB4821B340F76E741E2249685ED4899AF6C DUP2 JUMP JUMPDEST CALLVALUE DUP1 ISZERO PUSH2 0xB0D JUMPI PUSH1 0x0 DUP1 REVERT JUMPDEST POP PUSH2 0x4DC PUSH32 0x0 DUP2 JUMP JUMPDEST CALLVALUE DUP1 ISZERO PUSH2 0xB41 JUMPI PUSH1 0x0 DUP1 REVERT JUMPDEST POP PUSH1 0xC SLOAD PUSH2 0x4DC SWAP1 PUSH1 0x1 PUSH1 0x1 PUSH1 0xA0 SHL SUB AND DUP2 JUMP JUMPDEST CALLVALUE DUP1 ISZERO PUSH2 0xB61 JUMPI PUSH1 0x0 DUP1 REVERT JUMPDEST POP PUSH2 0x4DC PUSH32 0x0 DUP2 JUMP JUMPDEST PUSH1 0x60 PUSH1 0x4 DUP1 SLOAD PUSH2 0xB98 SWAP1 PUSH2 0x5729 JUMP JUMPDEST DUP1 PUSH1 0x1F ADD PUSH1 0x20 DUP1 SWAP2 DIV MUL PUSH1 0x20 ADD PUSH1 0x40 MLOAD SWAP1 DUP2 ADD PUSH1 0x40 MSTORE DUP1 SWAP3 SWAP2 SWAP1 DUP2 DUP2 MSTORE PUSH1 0x20 ADD DUP3 DUP1 SLOAD PUSH2 0xBC4 SWAP1 PUSH2 0x5729 JUMP JUMPDEST DUP1 ISZERO PUSH2 0xC11 JUMPI DUP1 PUSH1 0x1F LT PUSH2 0xBE6 JUMPI PUSH2 0x100 DUP1 DUP4 SLOAD DIV MUL DUP4 MSTORE SWAP2 PUSH1 0x20 ADD SWAP2 PUSH2 0xC11 JUMP JUMPDEST DUP3 ADD SWAP2 SWAP1 PUSH1 0x0 MSTORE PUSH1 0x20 PUSH1 0x0 KECCAK256 SWAP1 JUMPDEST DUP2 SLOAD DUP2 MSTORE SWAP1 PUSH1 0x1 ADD SWAP1 PUSH1 0x20 ADD DUP1 DUP4 GT PUSH2 0xBF4 JUMPI DUP3 SWAP1 SUB PUSH1 0x1F AND DUP3 ADD SWAP2 JUMPDEST POP POP POP POP POP SWAP1 POP SWAP1 JUMP JUMPDEST CALLER PUSH1 0x0 DUP2 DUP2 MSTORE PUSH1 0x8 PUSH1 0x20 SWAP1 DUP2 MSTORE PUSH1 0x40 DUP1 DUP4 KECCAK256 PUSH1 0x1 PUSH1 0x1 PUSH1 0xA0 SHL SUB DUP8 AND DUP1 DUP6 MSTORE SWAP3 MSTORE DUP1 DUP4 KECCAK256 DUP6 SWAP1 SSTORE MLOAD SWAP2 SWAP3 SWAP1 SWAP2 PUSH32 0x8C5BE1E5EBEC7D5BD14F71427D1E84F3DD0314C0F7B2291E5B200AC8C7C3B925 SWAP1 PUSH2 0xC76 SWAP1 DUP7 DUP2 MSTORE PUSH1 0x20 ADD SWAP1 JUMP JUMPDEST PUSH1 0x40 MLOAD DUP1 SWAP2 SUB SWAP1 LOG3 POP PUSH1 0x1 JUMPDEST SWAP3 SWAP2 POP POP JUMP JUMPDEST PUSH1 0x16 SLOAD TIMESTAMP GT DUP1 ISZERO PUSH2 0xC9B JUMPI POP PUSH1 0x0 PUSH1 0x15 SLOAD GT JUMPDEST ISZERO PUSH2 0xCE8 JUMPI TIMESTAMP PUSH1 0x16 SSTORE PUSH1 0x17 SLOAD PUSH1 0x15 SLOAD DUP2 GT ISZERO PUSH2 0xCB6 JUMPI POP PUSH1 0x15 SLOAD JUMPDEST DUP1 PUSH1 0x12 PUSH1 0x0 DUP3 DUP3 SLOAD PUSH2 0xCC8 SWAP2 SWAP1 PUSH2 0x5779 JUMP JUMPDEST SWAP3 POP POP DUP2 SWAP1 SSTORE POP DUP1 PUSH1 0x15 PUSH1 0x0 DUP3 DUP3 SLOAD PUSH2 0xCE1 SWAP2 SWAP1 PUSH2 0x578C JUMP JUMPDEST SWAP1 SWAP2 SSTORE POP POP POP JUMPDEST JUMP JUMPDEST PUSH1 0x60 PUSH1 0x0 PUSH1 0xA PUSH2 0xCFB PUSH1 0x1 DUP6 PUSH2 0x578C JUMP JUMPDEST DUP2 SLOAD DUP2 LT PUSH2 0xD0B JUMPI PUSH2 0xD0B PUSH2 0x579F JUMP JUMPDEST PUSH1 0x0 SWAP2 DUP3 MSTORE PUSH1 0x20 SWAP1 SWAP2 KECCAK256 PUSH1 0x40 DUP1 MLOAD PUSH2 0x100 DUP2 ADD DUP3 MSTORE PUSH1 0xD SWAP1 SWAP4 MUL SWAP1 SWAP2 ADD DUP1 SLOAD PUSH1 0x1 PUSH1 0x1 PUSH1 0xA0 SHL SUB AND SWAP2 DUP4 ADD SWAP2 DUP3 MSTORE PUSH1 0x1 DUP2 ADD SLOAD PUSH1 0x60 DUP5 ADD MSTORE PUSH1 0x2 DUP2 ADD SLOAD PUSH1 0x80 DUP5 ADD MSTORE PUSH1 0x3 DUP2 ADD SLOAD PUSH1 0xA0 DUP5 ADD MSTORE PUSH1 0x4 DUP2 ADD DUP1 SLOAD SWAP2 SWAP3 DUP5 SWAP3 SWAP1 SWAP2 DUP5 SWAP2 PUSH1 0xC0 DUP6 ADD SWAP2 SWAP1 PUSH2 0xD74 SWAP1 PUSH2 0x5729 JUMP JUMPDEST DUP1 PUSH1 0x1F ADD PUSH1 0x20 DUP1 SWAP2 DIV MUL PUSH1 0x20 ADD PUSH1 0x40 MLOAD SWAP1 DUP2 ADD PUSH1 0x40 MSTORE DUP1 SWAP3 SWAP2 SWAP1 DUP2 DUP2 MSTORE PUSH1 0x20 ADD DUP3 DUP1 SLOAD PUSH2 0xDA0 SWAP1 PUSH2 0x5729 JUMP JUMPDEST DUP1 ISZERO PUSH2 0xDED JUMPI DUP1 PUSH1 0x1F LT PUSH2 0xDC2 JUMPI PUSH2 0x100 DUP1 DUP4 SLOAD DIV MUL DUP4 MSTORE SWAP2 PUSH1 0x20 ADD SWAP2 PUSH2 0xDED JUMP JUMPDEST DUP3 ADD SWAP2 SWAP1 PUSH1 0x0 MSTORE PUSH1 0x20 PUSH1 0x0 KECCAK256 SWAP1 JUMPDEST DUP2 SLOAD DUP2 MSTORE SWAP1 PUSH1 0x1 ADD SWAP1 PUSH1 0x20 ADD DUP1 DUP4 GT PUSH2 0xDD0 JUMPI DUP3 SWAP1 SUB PUSH1 0x1F AND DUP3 ADD SWAP2 JUMPDEST POP POP POP POP POP DUP2 MSTORE PUSH1 0x20 ADD PUSH1 0x5 DUP3 ADD DUP1 SLOAD PUSH2 0xE06 SWAP1 PUSH2 0x5729 JUMP JUMPDEST DUP1 PUSH1 0x1F ADD PUSH1 0x20 DUP1 SWAP2 DIV MUL PUSH1 0x20 ADD PUSH1 0x40 MLOAD SWAP1 DUP2 ADD PUSH1 0x40 MSTORE DUP1 SWAP3 SWAP2 SWAP1 DUP2 DUP2 MSTORE PUSH1 0x20 ADD DUP3 DUP1 SLOAD PUSH2 0xE32 SWAP1 PUSH2 0x5729 JUMP JUMPDEST DUP1 ISZERO PUSH2 0xE7F JUMPI DUP1 PUSH1 0x1F LT PUSH2 0xE54 JUMPI PUSH2 0x100 DUP1 DUP4 SLOAD DIV MUL DUP4 MSTORE SWAP2 PUSH1 0x20 ADD SWAP2 PUSH2 0xE7F JUMP JUMPDEST DUP3 ADD SWAP2 SWAP1 PUSH1 0x0 MSTORE PUSH1 0x20 PUSH1 0x0 KECCAK256 SWAP1 JUMPDEST DUP2 SLOAD DUP2 MSTORE SWAP1 PUSH1 0x1 ADD SWAP1 PUSH1 0x20 ADD DUP1 DUP4 GT PUSH2 0xE62 JUMPI DUP3 SWAP1 SUB PUSH1 0x1F AND DUP3 ADD SWAP2 JUMPDEST POP POP POP POP POP DUP2 MSTORE POP POP DUP2 MSTORE PUSH1 0x20 ADD PUSH1 0x6 DUP3 ADD PUSH1 0x40 MLOAD DUP1 PUSH1 0xC0 ADD PUSH1 0x40 MSTORE SWAP1 DUP2 PUSH1 0x0 DUP3 ADD DUP1 SLOAD PUSH2 0xEAC SWAP1 PUSH2 0x5729 JUMP JUMPDEST DUP1 PUSH1 0x1F ADD PUSH1 0x20 DUP1 SWAP2 DIV MUL PUSH1 0x20 ADD PUSH1 0x40 MLOAD SWAP1 DUP2 ADD PUSH1 0x40 MSTORE DUP1 SWAP3 SWAP2 SWAP1 DUP2 DUP2 MSTORE PUSH1 0x20 ADD DUP3 DUP1 SLOAD PUSH2 0xED8 SWAP1 PUSH2 0x5729 JUMP JUMPDEST DUP1 ISZERO PUSH2 0xF25 JUMPI DUP1 PUSH1 0x1F LT PUSH2 0xEFA JUMPI PUSH2 0x100 DUP1 DUP4 SLOAD DIV MUL DUP4 MSTORE SWAP2 PUSH1 0x20 ADD SWAP2 PUSH2 0xF25 JUMP JUMPDEST DUP3 ADD SWAP2 SWAP1 PUSH1 0x0 MSTORE PUSH1 0x20 PUSH1 0x0 KECCAK256 SWAP1 JUMPDEST DUP2 SLOAD DUP2 MSTORE SWAP1 PUSH1 0x1 ADD SWAP1 PUSH1 0x20 ADD DUP1 DUP4 GT PUSH2 0xF08 JUMPI DUP3 SWAP1 SUB PUSH1 0x1F AND DUP3 ADD SWAP2 JUMPDEST POP POP POP POP POP DUP2 MSTORE PUSH1 0x20 ADD PUSH1 0x1 DUP3 ADD SLOAD DUP2 MSTORE PUSH1 0x20 ADD PUSH1 0x2 DUP3 ADD SLOAD DUP2 MSTORE PUSH1 0x20 ADD PUSH1 0x3 DUP3 ADD SLOAD DUP2 MSTORE PUSH1 0x20 ADD PUSH1 0x4 DUP3 ADD DUP1 SLOAD DUP1 PUSH1 0x20 MUL PUSH1 0x20 ADD PUSH1 0x40 MLOAD SWAP1 DUP2 ADD PUSH1 0x40 MSTORE DUP1 SWAP3 SWAP2 SWAP1 DUP2 DUP2 MSTORE PUSH1 0x20 ADD DUP3 DUP1 SLOAD DUP1 ISZERO PUSH2 0xF9B JUMPI PUSH1 0x20 MUL DUP3 ADD SWAP2 SWAP1 PUSH1 0x0 MSTORE PUSH1 0x20 PUSH1 0x0 KECCAK256 SWAP1 JUMPDEST DUP2 SLOAD DUP2 MSTORE PUSH1 0x20 ADD SWAP1 PUSH1 0x1 ADD SWAP1 DUP1 DUP4 GT PUSH2 0xF87 JUMPI JUMPDEST POP POP POP SWAP2 DUP4 MSTORE POP POP PUSH1 0x40 DUP1 MLOAD DUP1 DUP3 ADD SWAP2 DUP3 SWAP1 MSTORE PUSH1 0x20 SWAP1 SWAP3 ADD SWAP2 SWAP1 PUSH1 0x5 DUP5 ADD SWAP1 PUSH1 0x2 SWAP1 DUP3 DUP5 JUMPDEST DUP2 SLOAD DUP2 MSTORE PUSH1 0x20 ADD SWAP1 PUSH1 0x1 ADD SWAP1 DUP1 DUP4 GT PUSH2 0xFC0 JUMPI POP POP POP POP POP DUP2 MSTORE POP POP DUP2 MSTORE POP POP SWAP1 POP DUP1 PUSH1 0x20 ADD MLOAD PUSH1 0x80 ADD MLOAD PUSH1 0x0 DUP2 MLOAD DUP2 LT PUSH2 0xFFD JUMPI PUSH2 0xFFD PUSH2 0x579F JUMP JUMPDEST PUSH1 0x20 MUL PUSH1 0x20 ADD ADD MLOAD DUP2 PUSH1 0x20 ADD MLOAD PUSH1 0x80 ADD MLOAD PUSH1 0x1 DUP2 MLOAD DUP2 LT PUSH2 0x1020 JUMPI PUSH2 0x1020 PUSH2 0x579F JUMP JUMPDEST PUSH1 0x20 MUL PUSH1 0x20 ADD ADD MLOAD DUP3 PUSH1 0x20 ADD MLOAD PUSH1 0xA0 ADD MLOAD PUSH1 0x0 PUSH1 0x2 DUP2 LT PUSH2 0x1043 JUMPI PUSH2 0x1043 PUSH2 0x579F JUMP JUMPDEST PUSH1 0x20 MUL ADD MLOAD DUP4 PUSH1 0x20 ADD MLOAD PUSH1 0xA0 ADD MLOAD PUSH1 0x1 PUSH1 0x2 DUP2 LT PUSH2 0x1063 JUMPI PUSH2 0x1063 PUSH2 0x579F JUMP JUMPDEST PUSH1 0x20 SWAP1 DUP2 MUL SWAP2 SWAP1 SWAP2 ADD MLOAD DUP6 DUP3 ADD MLOAD MLOAD DUP7 MLOAD PUSH1 0x80 DUP2 ADD MLOAD PUSH1 0xA0 SWAP1 SWAP2 ADD MLOAD PUSH1 0x40 MLOAD PUSH2 0x108F SWAP9 SWAP8 SWAP7 SWAP6 ADD PUSH2 0x57B5 JUMP JUMPDEST PUSH1 0x40 MLOAD PUSH1 0x20 DUP2 DUP4 SUB SUB DUP2 MSTORE SWAP1 PUSH1 0x40 MSTORE SWAP2 POP POP SWAP2 SWAP1 POP JUMP JUMPDEST PUSH1 0x0 CALLER PUSH1 0x1 PUSH1 0x1 PUSH1 0xA0 SHL SUB DUP6 AND EQ DUP1 PUSH2 0x10E2 JUMPI POP PUSH1 0x1 PUSH1 0x1 PUSH1 0xA0 SHL SUB DUP5 AND PUSH1 0x0 SWAP1 DUP2 MSTORE PUSH1 0x8 PUSH1 0x20 SWAP1 DUP2 MSTORE PUSH1 0x40 DUP1 DUP4 KECCAK256 CALLER DUP5 MSTORE SWAP1 SWAP2 MSTORE SWAP1 KECCAK256 SLOAD DUP3 GT ISZERO JUMPDEST PUSH2 0x1122 JUMPI PUSH1 0x40 MLOAD PUSH3 0x461BCD PUSH1 0xE5 SHL DUP2 MSTORE PUSH1 0x20 PUSH1 0x4 DUP3 ADD MSTORE PUSH1 0xC PUSH1 0x24 DUP3 ADD MSTORE PUSH12 0x1B9BDD08185C1C1C9BDD9959 PUSH1 0xA2 SHL PUSH1 0x44 DUP3 ADD MSTORE PUSH1 0x64 ADD JUMPDEST PUSH1 0x40 MLOAD DUP1 SWAP2 SUB SWAP1 REVERT JUMPDEST PUSH2 0x112D DUP5 DUP5 DUP5 PUSH2 0x3BB2 JUMP JUMPDEST CALLER PUSH1 0x1 PUSH1 0x1 PUSH1 0xA0 SHL SUB DUP6 AND EQ PUSH2 0x11C7 JUMPI PUSH1 0x1 PUSH1 0x1 PUSH1 0xA0 SHL SUB DUP5 AND PUSH1 0x0 SWAP1 DUP2 MSTORE PUSH1 0x8 PUSH1 0x20 SWAP1 DUP2 MSTORE PUSH1 0x40 DUP1 DUP4 KECCAK256 CALLER DUP5 MSTORE SWAP1 SWAP2 MSTORE SWAP1 KECCAK256 SLOAD PUSH2 0x116C SWAP1 DUP4 SWAP1 PUSH2 0x578C JUMP JUMPDEST PUSH1 0x1 PUSH1 0x1 PUSH1 0xA0 SHL SUB DUP6 AND PUSH1 0x0 DUP2 DUP2 MSTORE PUSH1 0x8 PUSH1 0x20 SWAP1 DUP2 MSTORE PUSH1 0x40 DUP1 DUP4 KECCAK256 CALLER DUP1 DUP6 MSTORE SWAP1 DUP4 MSTORE SWAP3 DUP2 SWAP1 KECCAK256 DUP6 SWAP1 SSTORE MLOAD SWAP4 DUP5 MSTORE SWAP1 SWAP3 PUSH32 0x8C5BE1E5EBEC7D5BD14F71427D1E84F3DD0314C0F7B2291E5B200AC8C7C3B925 SWAP2 ADD PUSH1 0x40 MLOAD DUP1 SWAP2 SUB SWAP1 LOG3 JUMPDEST POP PUSH1 0x1 SWAP4 SWAP3 POP POP POP JUMP JUMPDEST PUSH1 0x0 PUSH1 0x0 DUP1 MLOAD PUSH1 0x20 PUSH2 0x5FA9 DUP4 CODECOPY DUP2 MLOAD SWAP2 MSTORE DUP4 LT PUSH2 0x11ED JUMPI PUSH1 0x0 DUP1 REVERT JUMPDEST PUSH1 0x0 DUP1 MLOAD PUSH1 0x20 PUSH2 0x5FA9 DUP4 CODECOPY DUP2 MLOAD SWAP2 MSTORE DUP3 LT PUSH2 0x1207 JUMPI PUSH1 0x0 DUP1 REVERT JUMPDEST PUSH2 0x120F PUSH2 0x4B8A JUMP JUMPDEST DUP4 DUP2 MSTORE PUSH1 0x20 DUP2 ADD DUP4 SWAP1 MSTORE PUSH1 0x40 MLOAD PUSH4 0x14CF2B3 PUSH1 0xE5 SHL DUP2 MSTORE PUSH32 0x0 PUSH1 0x1 PUSH1 0x1 PUSH1 0xA0 SHL SUB AND SWAP1 PUSH4 0x299E5660 SWAP1 PUSH2 0x1265 SWAP1 DUP5 SWAP1 PUSH1 0x4 ADD PUSH2 0x5814 JUMP JUMPDEST PUSH1 0x20 PUSH1 0x40 MLOAD DUP1 DUP4 SUB DUP2 DUP7 GAS STATICCALL ISZERO DUP1 ISZERO PUSH2 0x1282 JUMPI RETURNDATASIZE PUSH1 0x0 DUP1 RETURNDATACOPY RETURNDATASIZE PUSH1 0x0 REVERT JUMPDEST POP POP POP POP PUSH1 0x40 MLOAD RETURNDATASIZE PUSH1 0x1F NOT PUSH1 0x1F DUP3 ADD AND DUP3 ADD DUP1 PUSH1 0x40 MSTORE POP DUP2 ADD SWAP1 PUSH2 0x12A6 SWAP2 SWAP1 PUSH2 0x5822 JUMP JUMPDEST SWAP5 SWAP4 POP POP POP POP JUMP JUMPDEST PUSH1 0x60 PUSH1 0xD DUP1 SLOAD DUP1 PUSH1 0x20 MUL PUSH1 0x20 ADD PUSH1 0x40 MLOAD SWAP1 DUP2 ADD PUSH1 0x40 MSTORE DUP1 SWAP3 SWAP2 SWAP1 DUP2 DUP2 MSTORE PUSH1 0x20 ADD DUP3 DUP1 SLOAD DUP1 ISZERO PUSH2 0xC11 JUMPI PUSH1 0x20 MUL DUP3 ADD SWAP2 SWAP1 PUSH1 0x0 MSTORE PUSH1 0x20 PUSH1 0x0 KECCAK256 SWAP1 JUMPDEST DUP2 SLOAD PUSH1 0x1 PUSH1 0x1 PUSH1 0xA0 SHL SUB AND DUP2 MSTORE PUSH1 0x1 SWAP1 SWAP2 ADD SWAP1 PUSH1 0x20 ADD DUP1 DUP4 GT PUSH2 0x12E8 JUMPI POP POP POP POP POP SWAP1 POP SWAP1 JUMP JUMPDEST PUSH1 0x0 DUP1 PUSH2 0x131C DUP6 DUP6 PUSH2 0x3C8B JUMP JUMPDEST SWAP1 POP PUSH1 0x0 PUSH2 0x133B PUSH8 0xDE0B6B3A7640000 PUSH2 0x1336 DUP7 DUP3 PUSH2 0x578C JUMP JUMPDEST PUSH2 0x3C8B JUMP JUMPDEST SWAP1 POP PUSH2 0x1347 DUP3 DUP3 PUSH2 0x3DAD JUMP JUMPDEST SWAP7 SWAP6 POP POP POP POP POP POP JUMP JUMPDEST PUSH2 0x1359 PUSH2 0x4BA8 JUMP JUMPDEST PUSH1 0xA PUSH2 0x1366 PUSH1 0x1 DUP5 PUSH2 0x578C JUMP JUMPDEST DUP2 SLOAD DUP2 LT PUSH2 0x1376 JUMPI PUSH2 0x1376 PUSH2 0x579F JUMP JUMPDEST PUSH1 0x0 SWAP2 DUP3 MSTORE PUSH1 0x20 SWAP1 SWAP2 KECCAK256 PUSH1 0x40 DUP1 MLOAD PUSH2 0x100 DUP2 ADD DUP3 MSTORE PUSH1 0xD SWAP1 SWAP4 MUL SWAP1 SWAP2 ADD DUP1 SLOAD PUSH1 0x1 PUSH1 0x1 PUSH1 0xA0 SHL SUB AND SWAP2 DUP4 ADD SWAP2 DUP3 MSTORE PUSH1 0x1 DUP2 ADD SLOAD PUSH1 0x60 DUP5 ADD MSTORE PUSH1 0x2 DUP2 ADD SLOAD PUSH1 0x80 DUP5 ADD MSTORE PUSH1 0x3 DUP2 ADD SLOAD PUSH1 0xA0 DUP5 ADD MSTORE PUSH1 0x4 DUP2 ADD DUP1 SLOAD SWAP2 SWAP3 DUP5 SWAP3 SWAP1 SWAP2 DUP5 SWAP2 PUSH1 0xC0 DUP6 ADD SWAP2 SWAP1 PUSH2 0x13DF SWAP1 PUSH2 0x5729 JUMP JUMPDEST DUP1 PUSH1 0x1F ADD PUSH1 0x20 DUP1 SWAP2 DIV MUL PUSH1 0x20 ADD PUSH1 0x40 MLOAD SWAP1 DUP2 ADD PUSH1 0x40 MSTORE DUP1 SWAP3 SWAP2 SWAP1 DUP2 DUP2 MSTORE PUSH1 0x20 ADD DUP3 DUP1 SLOAD PUSH2 0x140B SWAP1 PUSH2 0x5729 JUMP JUMPDEST DUP1 ISZERO PUSH2 0x1458 JUMPI DUP1 PUSH1 0x1F LT PUSH2 0x142D JUMPI PUSH2 0x100 DUP1 DUP4 SLOAD DIV MUL DUP4 MSTORE SWAP2 PUSH1 0x20 ADD SWAP2 PUSH2 0x1458 JUMP JUMPDEST DUP3 ADD SWAP2 SWAP1 PUSH1 0x0 MSTORE PUSH1 0x20 PUSH1 0x0 KECCAK256 SWAP1 JUMPDEST DUP2 SLOAD DUP2 MSTORE SWAP1 PUSH1 0x1 ADD SWAP1 PUSH1 0x20 ADD DUP1 DUP4 GT PUSH2 0x143B JUMPI DUP3 SWAP1 SUB PUSH1 0x1F AND DUP3 ADD SWAP2 JUMPDEST POP POP POP POP POP DUP2 MSTORE PUSH1 0x20 ADD PUSH1 0x5 DUP3 ADD DUP1 SLOAD PUSH2 0x1471 SWAP1 PUSH2 0x5729 JUMP JUMPDEST DUP1 PUSH1 0x1F ADD PUSH1 0x20 DUP1 SWAP2 DIV MUL PUSH1 0x20 ADD PUSH1 0x40 MLOAD SWAP1 DUP2 ADD PUSH1 0x40 MSTORE DUP1 SWAP3 SWAP2 SWAP1 DUP2 DUP2 MSTORE PUSH1 0x20 ADD DUP3 DUP1 SLOAD PUSH2 0x149D SWAP1 PUSH2 0x5729 JUMP JUMPDEST DUP1 ISZERO PUSH2 0x14EA JUMPI DUP1 PUSH1 0x1F LT PUSH2 0x14BF JUMPI PUSH2 0x100 DUP1 DUP4 SLOAD DIV MUL DUP4 MSTORE SWAP2 PUSH1 0x20 ADD SWAP2 PUSH2 0x14EA JUMP JUMPDEST DUP3 ADD SWAP2 SWAP1 PUSH1 0x0 MSTORE PUSH1 0x20 PUSH1 0x0 KECCAK256 SWAP1 JUMPDEST DUP2 SLOAD DUP2 MSTORE SWAP1 PUSH1 0x1 ADD SWAP1 PUSH1 0x20 ADD DUP1 DUP4 GT PUSH2 0x14CD JUMPI DUP3 SWAP1 SUB PUSH1 0x1F AND DUP3 ADD SWAP2 JUMPDEST POP POP POP POP POP DUP2 MSTORE POP POP DUP2 MSTORE PUSH1 0x20 ADD PUSH1 0x6 DUP3 ADD PUSH1 0x40 MLOAD DUP1 PUSH1 0xC0 ADD PUSH1 0x40 MSTORE SWAP1 DUP2 PUSH1 0x0 DUP3 ADD DUP1 SLOAD PUSH2 0x1517 SWAP1 PUSH2 0x5729 JUMP JUMPDEST DUP1 PUSH1 0x1F ADD PUSH1 0x20 DUP1 SWAP2 DIV MUL PUSH1 0x20 ADD PUSH1 0x40 MLOAD SWAP1 DUP2 ADD PUSH1 0x40 MSTORE DUP1 SWAP3 SWAP2 SWAP1 DUP2 DUP2 MSTORE PUSH1 0x20 ADD DUP3 DUP1 SLOAD PUSH2 0x1543 SWAP1 PUSH2 0x5729 JUMP JUMPDEST DUP1 ISZERO PUSH2 0x1590 JUMPI DUP1 PUSH1 0x1F LT PUSH2 0x1565 JUMPI PUSH2 0x100 DUP1 DUP4 SLOAD DIV MUL DUP4 MSTORE SWAP2 PUSH1 0x20 ADD SWAP2 PUSH2 0x1590 JUMP JUMPDEST DUP3 ADD SWAP2 SWAP1 PUSH1 0x0 MSTORE PUSH1 0x20 PUSH1 0x0 KECCAK256 SWAP1 JUMPDEST DUP2 SLOAD DUP2 MSTORE SWAP1 PUSH1 0x1 ADD SWAP1 PUSH1 0x20 ADD DUP1 DUP4 GT PUSH2 0x1573 JUMPI DUP3 SWAP1 SUB PUSH1 0x1F AND DUP3 ADD SWAP2 JUMPDEST POP POP POP POP POP DUP2 MSTORE PUSH1 0x20 ADD PUSH1 0x1 DUP3 ADD SLOAD DUP2 MSTORE PUSH1 0x20 ADD PUSH1 0x2 DUP3 ADD SLOAD DUP2 MSTORE PUSH1 0x20 ADD PUSH1 0x3 DUP3 ADD SLOAD DUP2 MSTORE PUSH1 0x20 ADD PUSH1 0x4 DUP3 ADD DUP1 SLOAD DUP1 PUSH1 0x20 MUL PUSH1 0x20 ADD PUSH1 0x40 MLOAD SWAP1 DUP2 ADD PUSH1 0x40 MSTORE DUP1 SWAP3 SWAP2 SWAP1 DUP2 DUP2 MSTORE PUSH1 0x20 ADD DUP3 DUP1 SLOAD DUP1 ISZERO PUSH2 0x1606 JUMPI PUSH1 0x20 MUL DUP3 ADD SWAP2 SWAP1 PUSH1 0x0 MSTORE PUSH1 0x20 PUSH1 0x0 KECCAK256 SWAP1 JUMPDEST DUP2 SLOAD DUP2 MSTORE PUSH1 0x20 ADD SWAP1 PUSH1 0x1 ADD SWAP1 DUP1 DUP4 GT PUSH2 0x15F2 JUMPI JUMPDEST POP POP POP SWAP2 DUP4 MSTORE POP POP PUSH1 0x40 DUP1 MLOAD DUP1 DUP3 ADD SWAP2 DUP3 SWAP1 MSTORE PUSH1 0x20 SWAP1 SWAP3 ADD SWAP2 SWAP1 PUSH1 0x5 DUP5 ADD SWAP1 PUSH1 0x2 SWAP1 DUP3 DUP5 JUMPDEST DUP2 SLOAD DUP2 MSTORE PUSH1 0x20 ADD SWAP1 PUSH1 0x1 ADD SWAP1 DUP1 DUP4 GT PUSH2 0x162B JUMPI POP POP POP SWAP2 SWAP1 SWAP3 MSTORE POP POP POP SWAP1 MSTORE POP SWAP3 SWAP2 POP POP JUMP JUMPDEST PUSH1 0xE SLOAD PUSH1 0x0 SWAP1 DUP2 SWAP1 PUSH1 0xFF AND ISZERO PUSH2 0x1666 JUMPI PUSH1 0x0 DUP1 REVERT JUMPDEST PUSH1 0x0 DUP1 PUSH1 0x0 PUSH2 0x1695 DUP9 PUSH32 0x0 PUSH2 0x3DAD JUMP JUMPDEST SWAP1 POP PUSH1 0x0 PUSH2 0x16A3 DUP3 DUP11 PUSH2 0x578C JUMP JUMPDEST SWAP1 POP DUP10 ISZERO PUSH2 0x16BA JUMPI PUSH1 0x12 SLOAD SWAP4 POP PUSH1 0x11 SLOAD SWAP3 POP PUSH2 0x16C5 JUMP JUMPDEST PUSH1 0x11 SLOAD SWAP4 POP PUSH1 0x12 SLOAD SWAP3 POP JUMPDEST PUSH2 0x16D7 DUP5 PUSH8 0x6F05B59D3B20000 PUSH2 0x3DAD JUMP JUMPDEST DUP10 GT ISZERO PUSH2 0x16E3 JUMPI PUSH1 0x0 DUP1 REVERT JUMPDEST PUSH1 0x0 PUSH2 0x16F1 DUP6 DUP6 PUSH1 0x0 PUSH2 0x130F JUMP JUMPDEST SWAP1 POP DUP8 DUP2 GT ISZERO PUSH2 0x1700 JUMPI PUSH1 0x0 DUP1 REVERT JUMPDEST DUP11 ISZERO PUSH2 0x171B JUMPI PUSH2 0x1714 DUP5 DUP7 DUP5 PUSH1 0x0 DUP1 PUSH2 0x3A62 JUMP JUMPDEST SWAP7 POP PUSH2 0x172B JUMP JUMPDEST PUSH2 0x1728 DUP6 DUP6 DUP5 PUSH1 0x0 PUSH2 0x2230 JUMP JUMPDEST SWAP7 POP JUMPDEST DUP9 DUP8 LT ISZERO PUSH2 0x1738 JUMPI PUSH1 0x0 DUP1 REVERT JUMPDEST PUSH2 0x1742 DUP3 DUP9 PUSH2 0x3C8B JUMP JUMPDEST DUP2 GT ISZERO PUSH2 0x174E JUMPI PUSH1 0x0 DUP1 REVERT JUMPDEST PUSH2 0x1758 DUP8 DUP6 PUSH2 0x578C JUMP JUMPDEST SWAP4 POP DUP11 ISZERO PUSH2 0x1960 JUMPI PUSH1 0x9 SLOAD PUSH1 0x40 MLOAD PUSH4 0xA6C1A4F PUSH1 0xE1 SHL DUP2 MSTORE PUSH1 0x1 PUSH1 0x1 PUSH1 0xA0 SHL SUB SWAP1 SWAP2 AND SWAP1 PUSH4 0x14D8349E SWAP1 PUSH2 0x1792 SWAP1 CALLER SWAP1 DUP7 SWAP1 PUSH1 0x4 ADD PUSH2 0x583B JUMP JUMPDEST PUSH1 0x0 PUSH1 0x40 MLOAD DUP1 DUP4 SUB DUP2 PUSH1 0x0 DUP8 DUP1 EXTCODESIZE ISZERO DUP1 ISZERO PUSH2 0x17AC JUMPI PUSH1 0x0 DUP1 REVERT JUMPDEST POP GAS CALL ISZERO DUP1 ISZERO PUSH2 0x17C0 JUMPI RETURNDATASIZE PUSH1 0x0 DUP1 RETURNDATACOPY RETURNDATASIZE PUSH1 0x0 REVERT JUMPDEST POP POP PUSH1 0x40 MLOAD PUSH4 0xA9059CBB PUSH1 0xE0 SHL DUP2 MSTORE PUSH1 0x1 PUSH1 0x1 PUSH1 0xA0 SHL SUB PUSH32 0x0 AND SWAP3 POP PUSH4 0xA9059CBB SWAP2 POP PUSH2 0x1812 SWAP1 CALLER SWAP1 DUP12 SWAP1 PUSH1 0x4 ADD PUSH2 0x583B JUMP JUMPDEST PUSH1 0x20 PUSH1 0x40 MLOAD DUP1 DUP4 SUB DUP2 PUSH1 0x0 DUP8 GAS CALL ISZERO DUP1 ISZERO PUSH2 0x1831 JUMPI RETURNDATASIZE PUSH1 0x0 DUP1 RETURNDATACOPY RETURNDATASIZE PUSH1 0x0 REVERT JUMPDEST POP POP POP POP PUSH1 0x40 MLOAD RETURNDATASIZE PUSH1 0x1F NOT PUSH1 0x1F DUP3 ADD AND DUP3 ADD DUP1 PUSH1 0x40 MSTORE POP DUP2 ADD SWAP1 PUSH2 0x1855 SWAP2 SWAP1 PUSH2 0x5854 JUMP JUMPDEST PUSH2 0x185E JUMPI PUSH1 0x0 DUP1 REVERT JUMPDEST DUP7 PUSH1 0x11 PUSH1 0x0 DUP3 DUP3 SLOAD PUSH2 0x1870 SWAP2 SWAP1 PUSH2 0x578C JUMP JUMPDEST SWAP1 SWAP2 SSTORE POP POP DUP3 ISZERO PUSH2 0x195B JUMPI PUSH1 0x9 SLOAD PUSH1 0xC SLOAD PUSH1 0x40 MLOAD PUSH4 0x95EA7B3 PUSH1 0xE0 SHL DUP2 MSTORE PUSH1 0x1 PUSH1 0x1 PUSH1 0xA0 SHL SUB SWAP3 DUP4 AND SWAP3 PUSH4 0x95EA7B3 SWAP3 PUSH2 0x18B1 SWAP3 SWAP2 AND SWAP1 DUP8 SWAP1 PUSH1 0x4 ADD PUSH2 0x583B JUMP JUMPDEST PUSH1 0x20 PUSH1 0x40 MLOAD DUP1 DUP4 SUB DUP2 PUSH1 0x0 DUP8 GAS CALL ISZERO DUP1 ISZERO PUSH2 0x18D0 JUMPI RETURNDATASIZE PUSH1 0x0 DUP1 RETURNDATACOPY RETURNDATASIZE PUSH1 0x0 REVERT JUMPDEST POP POP POP POP PUSH1 0x40 MLOAD RETURNDATASIZE PUSH1 0x1F NOT PUSH1 0x1F DUP3 ADD AND DUP3 ADD DUP1 PUSH1 0x40 MSTORE POP DUP2 ADD SWAP1 PUSH2 0x18F4 SWAP2 SWAP1 PUSH2 0x5854 JUMP JUMPDEST POP PUSH1 0xC SLOAD PUSH1 0x40 MLOAD PUSH4 0x214CABE5 PUSH1 0xE1 SHL DUP2 MSTORE PUSH1 0x4 DUP2 ADD DUP6 SWAP1 MSTORE PUSH1 0x1 PUSH1 0x24 DUP3 ADD MSTORE PUSH1 0x1 PUSH1 0x1 PUSH1 0xA0 SHL SUB SWAP1 SWAP2 AND SWAP1 PUSH4 0x429957CA SWAP1 PUSH1 0x44 ADD PUSH1 0x0 PUSH1 0x40 MLOAD DUP1 DUP4 SUB DUP2 PUSH1 0x0 DUP8 DUP1 EXTCODESIZE ISZERO DUP1 ISZERO PUSH2 0x1942 JUMPI PUSH1 0x0 DUP1 REVERT JUMPDEST POP GAS CALL ISZERO DUP1 ISZERO PUSH2 0x1956 JUMPI RETURNDATASIZE PUSH1 0x0 DUP1 RETURNDATACOPY RETURNDATASIZE PUSH1 0x0 REVERT JUMPDEST POP POP POP POP JUMPDEST PUSH2 0x1BD4 JUMP JUMPDEST PUSH2 0x196A DUP3 DUP7 PUSH2 0x5779 JUMP JUMPDEST PUSH1 0x40 MLOAD PUSH4 0x23B872DD PUSH1 0xE0 SHL DUP2 MSTORE SWAP1 SWAP6 POP PUSH1 0x1 PUSH1 0x1 PUSH1 0xA0 SHL SUB PUSH32 0x0 AND SWAP1 PUSH4 0x23B872DD SWAP1 PUSH2 0x19BD SWAP1 CALLER SWAP1 ADDRESS SWAP1 DUP16 SWAP1 PUSH1 0x4 ADD PUSH2 0x5871 JUMP JUMPDEST PUSH1 0x20 PUSH1 0x40 MLOAD DUP1 DUP4 SUB DUP2 PUSH1 0x0 DUP8 GAS CALL ISZERO DUP1 ISZERO PUSH2 0x19DC JUMPI RETURNDATASIZE PUSH1 0x0 DUP1 RETURNDATACOPY RETURNDATASIZE PUSH1 0x0 REVERT JUMPDEST POP POP POP POP PUSH1 0x40 MLOAD RETURNDATASIZE PUSH1 0x1F NOT PUSH1 0x1F DUP3 ADD AND DUP3 ADD DUP1 PUSH1 0x40 MSTORE POP DUP2 ADD SWAP1 PUSH2 0x1A00 SWAP2 SWAP1 PUSH2 0x5854 JUMP JUMPDEST PUSH2 0x1A09 JUMPI PUSH1 0x0 DUP1 REVERT JUMPDEST PUSH1 0x9 SLOAD PUSH1 0x40 MLOAD PUSH4 0xA9059CBB PUSH1 0xE0 SHL DUP2 MSTORE PUSH1 0x1 PUSH1 0x1 PUSH1 0xA0 SHL SUB SWAP1 SWAP2 AND SWAP1 PUSH4 0xA9059CBB SWAP1 PUSH2 0x1A3B SWAP1 CALLER SWAP1 DUP12 SWAP1 PUSH1 0x4 ADD PUSH2 0x583B JUMP JUMPDEST PUSH1 0x20 PUSH1 0x40 MLOAD DUP1 DUP4 SUB DUP2 PUSH1 0x0 DUP8 GAS CALL ISZERO DUP1 ISZERO PUSH2 0x1A5A JUMPI RETURNDATASIZE PUSH1 0x0 DUP1 RETURNDATACOPY RETURNDATASIZE PUSH1 0x0 REVERT JUMPDEST POP POP POP POP PUSH1 0x40 MLOAD RETURNDATASIZE PUSH1 0x1F NOT PUSH1 0x1F DUP3 ADD AND DUP3 ADD DUP1 PUSH1 0x40 MSTORE POP DUP2 ADD SWAP1 PUSH2 0x1A7E SWAP2 SWAP1 PUSH2 0x5854 JUMP JUMPDEST POP DUP2 PUSH1 0x11 PUSH1 0x0 DUP3 DUP3 SLOAD PUSH2 0x1A91 SWAP2 SWAP1 PUSH2 0x5779 JUMP JUMPDEST SWAP3 POP POP DUP2 SWAP1 SSTORE POP DUP7 PUSH1 0x12 PUSH1 0x0 DUP3 DUP3 SLOAD PUSH2 0x1AAA SWAP2 SWAP1 PUSH2 0x578C JUMP JUMPDEST SWAP1 SWAP2 SSTORE POP POP PUSH32 0x0 ISZERO PUSH2 0x1BD4 JUMPI PUSH1 0xC SLOAD PUSH1 0x40 MLOAD PUSH4 0x95EA7B3 PUSH1 0xE0 SHL DUP2 MSTORE PUSH1 0x1 PUSH1 0x1 PUSH1 0xA0 SHL SUB PUSH32 0x0 DUP2 AND SWAP3 PUSH4 0x95EA7B3 SWAP3 PUSH2 0x1B2A SWAP3 SWAP2 SWAP1 SWAP2 AND SWAP1 DUP8 SWAP1 PUSH1 0x4 ADD PUSH2 0x583B JUMP JUMPDEST PUSH1 0x20 PUSH1 0x40 MLOAD DUP1 DUP4 SUB DUP2 PUSH1 0x0 DUP8 GAS CALL ISZERO DUP1 ISZERO PUSH2 0x1B49 JUMPI RETURNDATASIZE PUSH1 0x0 DUP1 RETURNDATACOPY RETURNDATASIZE PUSH1 0x0 REVERT JUMPDEST POP POP POP POP PUSH1 0x40 MLOAD RETURNDATASIZE PUSH1 0x1F NOT PUSH1 0x1F DUP3 ADD AND DUP3 ADD DUP1 PUSH1 0x40 MSTORE POP DUP2 ADD SWAP1 PUSH2 0x1B6D SWAP2 SWAP1 PUSH2 0x5854 JUMP JUMPDEST POP PUSH1 0xC SLOAD PUSH1 0x40 MLOAD PUSH4 0x214CABE5 PUSH1 0xE1 SHL DUP2 MSTORE PUSH1 0x4 DUP2 ADD DUP6 SWAP1 MSTORE PUSH1 0x0 PUSH1 0x24 DUP3 ADD MSTORE PUSH1 0x1 PUSH1 0x1 PUSH1 0xA0 SHL SUB SWAP1 SWAP2 AND SWAP1 PUSH4 0x429957CA SWAP1 PUSH1 0x44 ADD PUSH1 0x0 PUSH1 0x40 MLOAD DUP1 DUP4 SUB DUP2 PUSH1 0x0 DUP8 DUP1 EXTCODESIZE ISZERO DUP1 ISZERO PUSH2 0x1BBB JUMPI PUSH1 0x0 DUP1 REVERT JUMPDEST POP GAS CALL ISZERO DUP1 ISZERO PUSH2 0x1BCF JUMPI RETURNDATASIZE PUSH1 0x0 DUP1 RETURNDATACOPY RETURNDATASIZE PUSH1 0x0 REVERT JUMPDEST POP POP POP POP JUMPDEST PUSH2 0x1BE0 DUP6 DUP6 PUSH1 0x0 PUSH2 0x130F JUMP JUMPDEST SWAP6 POP DUP1 DUP7 LT ISZERO PUSH2 0x1BEF JUMPI PUSH1 0x0 DUP1 REVERT JUMPDEST DUP8 DUP7 GT ISZERO PUSH2 0x1BFC JUMPI PUSH1 0x0 DUP1 REVERT JUMPDEST PUSH2 0x1C04 PUSH2 0xC88 JUMP JUMPDEST PUSH1 0x40 DUP1 MLOAD CALLER DUP2 MSTORE DUP13 ISZERO ISZERO PUSH1 0x20 DUP3 ADD MSTORE SWAP1 DUP2 ADD DUP12 SWAP1 MSTORE PUSH1 0x60 DUP2 ADD DUP9 SWAP1 MSTORE PUSH32 0xBFD50A04F1E6E4AEE344F5D0E7F15D74D0DBB58CD1F711DAA6463094CA9508CD SWAP1 PUSH1 0x80 ADD PUSH1 0x40 MLOAD DUP1 SWAP2 SUB SWAP1 LOG1 POP POP POP POP POP SWAP5 POP SWAP5 SWAP3 POP POP POP JUMP JUMPDEST PUSH1 0x60 PUSH1 0xB DUP1 SLOAD DUP1 PUSH1 0x20 MUL PUSH1 0x20 ADD PUSH1 0x40 MLOAD SWAP1 DUP2 ADD PUSH1 0x40 MSTORE DUP1 SWAP3 SWAP2 SWAP1 DUP2 DUP2 MSTORE PUSH1 0x20 ADD PUSH1 0x0 SWAP1 JUMPDEST DUP3 DUP3 LT ISZERO PUSH2 0x1CC7 JUMPI PUSH1 0x0 DUP5 DUP2 MSTORE PUSH1 0x20 SWAP1 DUP2 SWAP1 KECCAK256 PUSH1 0x40 DUP1 MLOAD DUP1 DUP3 ADD SWAP1 SWAP2 MSTORE PUSH1 0x2 DUP6 MUL SWAP1 SWAP2 ADD DUP1 SLOAD DUP3 MSTORE PUSH1 0x1 SWAP1 DUP2 ADD SLOAD PUSH1 0x1 PUSH1 0x1 PUSH1 0xA0 SHL SUB AND DUP3 DUP5 ADD MSTORE SWAP1 DUP4 MSTORE SWAP1 SWAP3 ADD SWAP2 ADD PUSH2 0x1C7F JUMP JUMPDEST POP POP POP POP SWAP1 POP SWAP1 JUMP JUMPDEST PUSH1 0x0 PUSH1 0x20 DUP3 GT PUSH2 0x376 JUMPI POP PUSH1 0x0 SWAP1 DUP2 MSTORE PUSH1 0x2 PUSH1 0x20 MSTORE PUSH1 0x40 SWAP1 KECCAK256 SLOAD SWAP1 JUMP JUMPDEST SWAP2 SWAP1 POP JUMP JUMPDEST PUSH1 0xE SLOAD PUSH1 0x0 SWAP1 PUSH1 0xFF AND ISZERO PUSH2 0x1D05 JUMPI PUSH1 0x0 DUP1 REVERT JUMPDEST CALLER PUSH1 0x0 SWAP1 DUP2 MSTORE PUSH1 0x18 PUSH1 0x20 MSTORE PUSH1 0x40 SWAP1 KECCAK256 SLOAD TIMESTAMP GT PUSH2 0x1D4C JUMPI PUSH1 0x40 MLOAD PUSH3 0x461BCD PUSH1 0xE5 SHL DUP2 MSTORE PUSH1 0x20 PUSH1 0x4 DUP3 ADD MSTORE PUSH1 0x6 PUSH1 0x24 DUP3 ADD MSTORE PUSH6 0x1B1BD8DAD959 PUSH1 0xD2 SHL PUSH1 0x44 DUP3 ADD MSTORE PUSH1 0x64 ADD PUSH2 0x1119 JUMP JUMPDEST PUSH2 0x1D54 PUSH2 0xC88 JUMP JUMPDEST PUSH1 0x0 PUSH2 0x1D80 DUP6 PUSH32 0x0 PUSH2 0x3DAD JUMP JUMPDEST SWAP1 POP PUSH1 0x0 PUSH2 0x1D8E DUP3 DUP8 PUSH2 0x578C JUMP JUMPDEST SWAP1 POP PUSH1 0x0 PUSH2 0x1D9E DUP3 PUSH1 0x6 SLOAD PUSH2 0x3C8B JUMP JUMPDEST SWAP1 POP PUSH2 0x1DAA CALLER DUP4 PUSH2 0x3E38 JUMP JUMPDEST PUSH2 0x1DB6 DUP2 PUSH1 0x11 SLOAD PUSH2 0x3DAD JUMP JUMPDEST SWAP4 POP DUP4 PUSH1 0x0 SUB PUSH2 0x1DC5 JUMPI PUSH1 0x0 DUP1 REVERT JUMPDEST DUP5 DUP5 LT ISZERO PUSH2 0x1DD2 JUMPI PUSH1 0x0 DUP1 REVERT JUMPDEST DUP4 PUSH1 0x11 SLOAD PUSH2 0x1DE0 SWAP2 SWAP1 PUSH2 0x578C JUMP JUMPDEST PUSH1 0x11 DUP2 SWAP1 SSTORE POP PUSH1 0x0 PUSH2 0x1DF4 DUP3 PUSH1 0x12 SLOAD PUSH2 0x3DAD JUMP JUMPDEST SWAP1 POP DUP1 PUSH1 0x0 SUB PUSH2 0x1E03 JUMPI PUSH1 0x0 DUP1 REVERT JUMPDEST DUP7 DUP2 LT ISZERO PUSH2 0x1E10 JUMPI PUSH1 0x0 DUP1 REVERT JUMPDEST DUP1 PUSH1 0x12 SLOAD PUSH2 0x1E1E SWAP2 SWAP1 PUSH2 0x578C JUMP JUMPDEST PUSH1 0x12 SSTORE PUSH1 0x40 MLOAD PUSH4 0xA9059CBB PUSH1 0xE0 SHL DUP2 MSTORE PUSH1 0x1 PUSH1 0x1 PUSH1 0xA0 SHL SUB PUSH32 0x0 AND SWAP1 PUSH4 0xA9059CBB SWAP1 PUSH2 0x1E6F SWAP1 CALLER SWAP1 DUP10 SWAP1 PUSH1 0x4 ADD PUSH2 0x583B JUMP JUMPDEST PUSH1 0x20 PUSH1 0x40 MLOAD DUP1 DUP4 SUB DUP2 PUSH1 0x0 DUP8 GAS CALL ISZERO DUP1 ISZERO PUSH2 0x1E8E JUMPI RETURNDATASIZE PUSH1 0x0 DUP1 RETURNDATACOPY RETURNDATASIZE PUSH1 0x0 REVERT JUMPDEST POP POP POP POP PUSH1 0x40 MLOAD RETURNDATASIZE PUSH1 0x1F NOT PUSH1 0x1F DUP3 ADD AND DUP3 ADD DUP1 PUSH1 0x40 MSTORE POP DUP2 ADD SWAP1 PUSH2 0x1EB2 SWAP2 SWAP1 PUSH2 0x5854 JUMP JUMPDEST PUSH2 0x1EBB JUMPI PUSH1 0x0 DUP1 REVERT JUMPDEST PUSH1 0x9 SLOAD PUSH1 0x40 MLOAD PUSH4 0xA9059CBB PUSH1 0xE0 SHL DUP2 MSTORE PUSH1 0x1 PUSH1 0x1 PUSH1 0xA0 SHL SUB SWAP1 SWAP2 AND SWAP1 PUSH4 0xA9059CBB SWAP1 PUSH2 0x1EED SWAP1 CALLER SWAP1 DUP6 SWAP1 PUSH1 0x4 ADD PUSH2 0x583B JUMP JUMPDEST PUSH1 0x20 PUSH1 0x40 MLOAD DUP1 DUP4 SUB DUP2 PUSH1 0x0 DUP8 GAS CALL ISZERO DUP1 ISZERO PUSH2 0x1F0C JUMPI RETURNDATASIZE PUSH1 0x0 DUP1 RETURNDATACOPY RETURNDATASIZE PUSH1 0x0 REVERT JUMPDEST POP POP POP POP PUSH1 0x40 MLOAD RETURNDATASIZE PUSH1 0x1F NOT PUSH1 0x1F DUP3 ADD AND DUP3 ADD DUP1 PUSH1 0x40 MSTORE POP DUP2 ADD SWAP1 PUSH2 0x1F30 SWAP2 SWAP1 PUSH2 0x5854 JUMP JUMPDEST POP PUSH32 0x63408840C9001C8BB7D2941B1DED0CED9EA308DA1ADDF18E9EAB93675613B258 CALLER DUP10 PUSH1 0x40 MLOAD PUSH2 0x1F62 SWAP3 SWAP2 SWAP1 PUSH2 0x583B JUMP JUMPDEST PUSH1 0x40 MLOAD DUP1 SWAP2 SUB SWAP1 LOG1 DUP4 ISZERO PUSH2 0x21A7 JUMPI PUSH2 0x1F7C DUP5 PUSH1 0x6 SLOAD PUSH2 0x3C8B JUMP JUMPDEST SWAP2 POP PUSH2 0x1F88 CALLER DUP6 PUSH2 0x3E38 JUMP JUMPDEST PUSH2 0x1F94 DUP3 PUSH1 0x11 SLOAD PUSH2 0x3DAD JUMP JUMPDEST SWAP5 POP DUP5 PUSH1 0x11 SLOAD PUSH2 0x1FA4 SWAP2 SWAP1 PUSH2 0x578C JUMP JUMPDEST PUSH1 0x11 SSTORE PUSH1 0x12 SLOAD PUSH2 0x1FB5 SWAP1 DUP4 SWAP1 PUSH2 0x3DAD JUMP JUMPDEST SWAP1 POP DUP1 PUSH1 0x12 SLOAD PUSH2 0x1FC5 SWAP2 SWAP1 PUSH2 0x578C JUMP JUMPDEST PUSH1 0x12 SSTORE PUSH1 0xC SLOAD PUSH1 0x40 MLOAD PUSH4 0x95EA7B3 PUSH1 0xE0 SHL DUP2 MSTORE PUSH1 0x1 PUSH1 0x1 PUSH1 0xA0 SHL SUB PUSH32 0x0 DUP2 AND SWAP3 PUSH4 0x95EA7B3 SWAP3 PUSH2 0x201D SWAP3 SWAP2 SWAP1 SWAP2 AND SWAP1 DUP10 SWAP1 PUSH1 0x4 ADD PUSH2 0x583B JUMP JUMPDEST PUSH1 0x20 PUSH1 0x40 MLOAD DUP1 DUP4 SUB DUP2 PUSH1 0x0 DUP8 GAS CALL ISZERO DUP1 ISZERO PUSH2 0x203C JUMPI RETURNDATASIZE PUSH1 0x0 DUP1 RETURNDATACOPY RETURNDATASIZE PUSH1 0x0 REVERT JUMPDEST POP POP POP POP PUSH1 0x40 MLOAD RETURNDATASIZE PUSH1 0x1F NOT PUSH1 0x1F DUP3 ADD AND DUP3 ADD DUP1 PUSH1 0x40 MSTORE POP DUP2 ADD SWAP1 PUSH2 0x2060 SWAP2 SWAP1 PUSH2 0x5854 JUMP JUMPDEST POP PUSH1 0xC SLOAD PUSH1 0x40 MLOAD PUSH4 0x214CABE5 PUSH1 0xE1 SHL DUP2 MSTORE PUSH1 0x4 DUP2 ADD DUP8 SWAP1 MSTORE PUSH1 0x0 PUSH1 0x24 DUP3 ADD MSTORE PUSH1 0x1 PUSH1 0x1 PUSH1 0xA0 SHL SUB SWAP1 SWAP2 AND SWAP1 PUSH4 0x429957CA SWAP1 PUSH1 0x44 ADD PUSH1 0x0 PUSH1 0x40 MLOAD DUP1 DUP4 SUB DUP2 PUSH1 0x0 DUP8 DUP1 EXTCODESIZE ISZERO DUP1 ISZERO PUSH2 0x20AE JUMPI PUSH1 0x0 DUP1 REVERT JUMPDEST POP GAS CALL ISZERO DUP1 ISZERO PUSH2 0x20C2 JUMPI RETURNDATASIZE PUSH1 0x0 DUP1 RETURNDATACOPY RETURNDATASIZE PUSH1 0x0 REVERT JUMPDEST POP POP PUSH1 0x9 SLOAD PUSH1 0xC SLOAD PUSH1 0x40 MLOAD PUSH4 0x95EA7B3 PUSH1 0xE0 SHL DUP2 MSTORE PUSH1 0x1 PUSH1 0x1 PUSH1 0xA0 SHL SUB SWAP3 DUP4 AND SWAP5 POP PUSH4 0x95EA7B3 SWAP4 POP PUSH2 0x20FD SWAP3 SWAP1 SWAP2 AND SWAP1 DUP6 SWAP1 PUSH1 0x4 ADD PUSH2 0x583B JUMP JUMPDEST PUSH1 0x20 PUSH1 0x40 MLOAD DUP1 DUP4 SUB DUP2 PUSH1 0x0 DUP8 GAS CALL ISZERO DUP1 ISZERO PUSH2 0x211C JUMPI RETURNDATASIZE PUSH1 0x0 DUP1 RETURNDATACOPY RETURNDATASIZE PUSH1 0x0 REVERT JUMPDEST POP POP POP POP PUSH1 0x40 MLOAD RETURNDATASIZE PUSH1 0x1F NOT PUSH1 0x1F DUP3 ADD AND DUP3 ADD DUP1 PUSH1 0x40 MSTORE POP DUP2 ADD SWAP1 PUSH2 0x2140 SWAP2 SWAP1 PUSH2 0x5854 JUMP JUMPDEST POP PUSH1 0xC SLOAD PUSH1 0x40 MLOAD PUSH4 0x214CABE5 PUSH1 0xE1 SHL DUP2 MSTORE PUSH1 0x4 DUP2 ADD DUP4 SWAP1 MSTORE PUSH1 0x1 PUSH1 0x24 DUP3 ADD MSTORE PUSH1 0x1 PUSH1 0x1 PUSH1 0xA0 SHL SUB SWAP1 SWAP2 AND SWAP1 PUSH4 0x429957CA SWAP1 PUSH1 0x44 ADD PUSH1 0x0 PUSH1 0x40 MLOAD DUP1 DUP4 SUB DUP2 PUSH1 0x0 DUP8 DUP1 EXTCODESIZE ISZERO DUP1 ISZERO PUSH2 0x218E JUMPI PUSH1 0x0 DUP1 REVERT JUMPDEST POP GAS CALL ISZERO DUP1 ISZERO PUSH2 0x21A2 JUMPI RETURNDATASIZE PUSH1 0x0 DUP1 RETURNDATACOPY RETURNDATASIZE PUSH1 0x0 REVERT JUMPDEST POP POP POP POP JUMPDEST POP POP POP POP SWAP4 SWAP3 POP POP POP JUMP JUMPDEST PUSH1 0x0 DUP2 DUP2 SUB PUSH2 0x21C3 JUMPI POP PUSH1 0x0 SWAP2 SWAP1 POP JUMP JUMPDEST PUSH1 0x3 SLOAD PUSH4 0xFFFFFFFF AND DUP1 JUMPDEST PUSH4 0xFFFFFFFF DUP2 AND PUSH1 0x0 SWAP1 DUP2 MSTORE PUSH1 0x1 PUSH1 0x20 MSTORE PUSH1 0x40 SWAP1 KECCAK256 SLOAD DUP5 SUB PUSH2 0x21F4 JUMPI POP PUSH1 0x1 SWAP4 SWAP3 POP POP POP JUMP JUMPDEST DUP1 PUSH4 0xFFFFFFFF AND PUSH1 0x0 SUB PUSH2 0x2206 JUMPI POP PUSH1 0x64 JUMPDEST DUP1 PUSH2 0x2210 DUP2 PUSH2 0x5895 JUMP JUMPDEST SWAP2 POP POP DUP2 PUSH4 0xFFFFFFFF AND DUP2 PUSH4 0xFFFFFFFF AND SUB PUSH2 0x21CE JUMPI POP PUSH1 0x0 SWAP4 SWAP3 POP POP POP JUMP JUMPDEST PUSH1 0x0 DUP1 PUSH2 0x2245 DUP4 PUSH8 0xDE0B6B3A7640000 PUSH2 0x578C JUMP JUMPDEST SWAP1 POP PUSH2 0x2251 DUP5 DUP3 PUSH2 0x3DAD JUMP JUMPDEST SWAP1 POP PUSH1 0x0 PUSH2 0x2263 DUP8 PUSH2 0x1336 DUP5 DUP3 PUSH2 0x5779 JUMP JUMPDEST SWAP1 POP PUSH1 0x0 PUSH2 0x2279 DUP3 PUSH8 0xDE0B6B3A7640000 PUSH2 0x578C JUMP JUMPDEST SWAP1 POP PUSH2 0x2285 DUP8 DUP3 PUSH2 0x3DAD JUMP JUMPDEST SWAP9 SWAP8 POP POP POP POP POP POP POP POP JUMP JUMPDEST PUSH1 0xE SLOAD PUSH1 0xFF AND ISZERO PUSH2 0x22A1 JUMPI PUSH1 0x0 DUP1 REVERT JUMPDEST PUSH1 0x0 PUSH2 0x22B2 PUSH1 0x12 SLOAD PUSH1 0x6 SLOAD DUP6 PUSH2 0x39E3 JUMP JUMPDEST SWAP1 POP DUP3 PUSH1 0x15 PUSH1 0x0 DUP3 DUP3 SLOAD PUSH2 0x22C6 SWAP2 SWAP1 PUSH2 0x5779 JUMP JUMPDEST SWAP1 SWAP2 SSTORE POP POP PUSH1 0x15 SLOAD PUSH2 0x22DB SWAP1 PUSH2 0x3E8 SWAP1 PUSH2 0x58CB JUMP JUMPDEST PUSH1 0x17 SSTORE DUP2 DUP2 LT ISZERO PUSH2 0x2321 JUMPI PUSH1 0x40 MLOAD PUSH3 0x461BCD PUSH1 0xE5 SHL DUP2 MSTORE PUSH1 0x20 PUSH1 0x4 DUP3 ADD MSTORE PUSH1 0x10 PUSH1 0x24 DUP3 ADD MSTORE PUSH16 0x1B5A5B941BDBDB105B5BDD5B9D13DD5D PUSH1 0x82 SHL PUSH1 0x44 DUP3 ADD MSTORE PUSH1 0x64 ADD PUSH2 0x1119 JUMP JUMPDEST PUSH2 0x232B CALLER DUP3 PUSH2 0x3ECC JUMP JUMPDEST PUSH1 0x9 SLOAD PUSH1 0x40 MLOAD PUSH4 0x23B872DD PUSH1 0xE0 SHL DUP2 MSTORE PUSH1 0x1 PUSH1 0x1 PUSH1 0xA0 SHL SUB SWAP1 SWAP2 AND SWAP1 PUSH4 0x23B872DD SWAP1 PUSH2 0x235F SWAP1 CALLER SWAP1 ADDRESS SWAP1 DUP9 SWAP1 PUSH1 0x4 ADD PUSH2 0x5871 JUMP JUMPDEST PUSH1 0x20 PUSH1 0x40 MLOAD DUP1 DUP4 SUB DUP2 PUSH1 0x0 DUP8 GAS CALL ISZERO DUP1 ISZERO PUSH2 0x237E JUMPI RETURNDATASIZE PUSH1 0x0 DUP1 RETURNDATACOPY RETURNDATASIZE PUSH1 0x0 REVERT JUMPDEST POP POP POP POP PUSH1 0x40 MLOAD RETURNDATASIZE PUSH1 0x1F NOT PUSH1 0x1F DUP3 ADD AND DUP3 ADD DUP1 PUSH1 0x40 MSTORE POP DUP2 ADD SWAP1 PUSH2 0x23A2 SWAP2 SWAP1 PUSH2 0x5854 JUMP JUMPDEST POP PUSH2 0x23B0 TIMESTAMP PUSH3 0x15180 PUSH2 0x5779 JUMP JUMPDEST CALLER PUSH1 0x0 DUP2 DUP2 MSTORE PUSH1 0x18 PUSH1 0x20 MSTORE PUSH1 0x40 SWAP1 DUP2 SWAP1 KECCAK256 SWAP3 SWAP1 SWAP3 SSTORE SWAP1 MLOAD PUSH32 0xF16EDE70E2CC42ECF32F5E0D9505C5E24FAFA0EA54A44CA42089B4170F9AF88C SWAP2 PUSH2 0x23F4 SWAP2 DUP5 SWAP1 PUSH2 0x583B JUMP JUMPDEST PUSH1 0x40 MLOAD DUP1 SWAP2 SUB SWAP1 LOG1 POP POP POP JUMP JUMPDEST PUSH1 0x0 DUP1 PUSH2 0x240E DUP5 DUP7 PUSH2 0x578C JUMP JUMPDEST SWAP1 POP PUSH1 0x0 PUSH2 0x241C DUP7 DUP4 PUSH2 0x3C8B JUMP JUMPDEST SWAP1 POP PUSH1 0x0 PUSH2 0x2432 PUSH8 0xDE0B6B3A7640000 DUP4 PUSH2 0x578C JUMP JUMPDEST SWAP1 POP PUSH2 0x2446 DUP6 PUSH8 0xDE0B6B3A7640000 PUSH2 0x578C JUMP JUMPDEST SWAP4 POP PUSH2 0x2285 PUSH2 0x2455 DUP10 DUP4 PUSH2 0x3DAD JUMP JUMPDEST DUP6 PUSH2 0x3C8B JUMP JUMPDEST PUSH1 0xE SLOAD PUSH1 0xFF AND ISZERO PUSH2 0x246B JUMPI PUSH1 0x0 DUP1 REVERT JUMPDEST DUP1 ISZERO PUSH2 0x2552 JUMPI PUSH1 0x9 SLOAD PUSH1 0x1 PUSH1 0x1 PUSH1 0xA0 SHL SUB AND PUSH4 0x23B872DD CALLER ADDRESS DUP6 PUSH2 0x248F DUP9 DUP11 PUSH2 0x5779 JUMP JUMPDEST PUSH2 0x2499 SWAP2 SWAP1 PUSH2 0x5779 JUMP JUMPDEST PUSH1 0x40 MLOAD DUP5 PUSH4 0xFFFFFFFF AND PUSH1 0xE0 SHL DUP2 MSTORE PUSH1 0x4 ADD PUSH2 0x24B7 SWAP4 SWAP3 SWAP2 SWAP1 PUSH2 0x5871 JUMP JUMPDEST PUSH1 0x20 PUSH1 0x40 MLOAD DUP1 DUP4 SUB DUP2 PUSH1 0x0 DUP8 GAS CALL ISZERO DUP1 ISZERO PUSH2 0x24D6 JUMPI RETURNDATASIZE PUSH1 0x0 DUP1 RETURNDATACOPY RETURNDATASIZE PUSH1 0x0 REVERT JUMPDEST POP POP POP POP PUSH1 0x40 MLOAD RETURNDATASIZE PUSH1 0x1F NOT PUSH1 0x1F DUP3 ADD AND DUP3 ADD DUP1 PUSH1 0x40 MSTORE POP DUP2 ADD SWAP1 PUSH2 0x24FA SWAP2 SWAP1 PUSH2 0x5854 JUMP JUMPDEST PUSH2 0x2503 JUMPI PUSH1 0x0 DUP1 REVERT JUMPDEST DUP3 PUSH1 0x12 PUSH1 0x0 DUP3 DUP3 SLOAD PUSH2 0x2515 SWAP2 SWAP1 PUSH2 0x5779 JUMP JUMPDEST SWAP3 POP POP DUP2 SWAP1 SSTORE POP DUP2 PUSH1 0x10 PUSH1 0x0 DUP3 DUP3 SLOAD PUSH2 0x252E SWAP2 SWAP1 PUSH2 0x5779 JUMP JUMPDEST SWAP3 POP POP DUP2 SWAP1 SSTORE POP DUP4 PUSH1 0x14 PUSH1 0x0 DUP3 DUP3 SLOAD PUSH2 0x2547 SWAP2 SWAP1 PUSH2 0x5779 JUMP JUMPDEST SWAP1 SWAP2 SSTORE POP PUSH2 0x264C SWAP1 POP JUMP JUMPDEST PUSH1 0x1 PUSH1 0x1 PUSH1 0xA0 SHL SUB PUSH32 0x0 AND PUSH4 0x23B872DD CALLER ADDRESS DUP6 PUSH2 0x258E DUP9 DUP11 PUSH2 0x5779 JUMP JUMPDEST PUSH2 0x2598 SWAP2 SWAP1 PUSH2 0x5779 JUMP JUMPDEST PUSH1 0x40 MLOAD DUP5 PUSH4 0xFFFFFFFF AND PUSH1 0xE0 SHL DUP2 MSTORE PUSH1 0x4 ADD PUSH2 0x25B6 SWAP4 SWAP3 SWAP2 SWAP1 PUSH2 0x5871 JUMP JUMPDEST PUSH1 0x20 PUSH1 0x40 MLOAD DUP1 DUP4 SUB DUP2 PUSH1 0x0 DUP8 GAS CALL ISZERO DUP1 ISZERO PUSH2 0x25D5 JUMPI RETURNDATASIZE PUSH1 0x0 DUP1 RETURNDATACOPY RETURNDATASIZE PUSH1 0x0 REVERT JUMPDEST POP POP POP POP PUSH1 0x40 MLOAD RETURNDATASIZE PUSH1 0x1F NOT PUSH1 0x1F DUP3 ADD AND DUP3 ADD DUP1 PUSH1 0x40 MSTORE POP DUP2 ADD SWAP1 PUSH2 0x25F9 SWAP2 SWAP1 PUSH2 0x5854 JUMP JUMPDEST PUSH2 0x2602 JUMPI PUSH1 0x0 DUP1 REVERT JUMPDEST DUP3 PUSH1 0x11 PUSH1 0x0 DUP3 DUP3 SLOAD PUSH2 0x2614 SWAP2 SWAP1 PUSH2 0x5779 JUMP JUMPDEST SWAP3 POP POP DUP2 SWAP1 SSTORE POP DUP2 PUSH1 0xF PUSH1 0x0 DUP3 DUP3 SLOAD PUSH2 0x262D SWAP2 SWAP1 PUSH2 0x5779 JUMP JUMPDEST SWAP3 POP POP DUP2 SWAP1 SSTORE POP DUP4 PUSH1 0x13 PUSH1 0x0 DUP3 DUP3 SLOAD PUSH2 0x2646 SWAP2 SWAP1 PUSH2 0x5779 JUMP JUMPDEST SWAP1 SWAP2 SSTORE POP POP JUMPDEST PUSH2 0x2654 PUSH2 0xC88 JUMP JUMPDEST PUSH32 0x46296264CD106B25AAA6BD852F4CF76BBD7D70550BBE6352BC3A47E35C6F1B2F DUP3 PUSH2 0x2680 DUP6 DUP8 PUSH2 0x5779 JUMP JUMPDEST PUSH2 0x268A SWAP2 SWAP1 PUSH2 0x5779 JUMP JUMPDEST PUSH1 0x40 DUP1 MLOAD SWAP2 DUP3 MSTORE DUP4 ISZERO ISZERO PUSH1 0x20 DUP4 ADD MSTORE ADD PUSH1 0x40 MLOAD DUP1 SWAP2 SUB SWAP1 LOG1 POP POP POP POP JUMP JUMPDEST PUSH1 0xC SLOAD PUSH1 0x1 PUSH1 0x1 PUSH1 0xA0 SHL SUB AND CALLER EQ PUSH2 0x26BF JUMPI PUSH1 0x0 DUP1 REVERT JUMPDEST PUSH1 0x9 SLOAD PUSH1 0x1 PUSH1 0x1 PUSH1 0xA0 SHL SUB AND ISZERO PUSH2 0x26D5 JUMPI PUSH1 0x0 DUP1 REVERT JUMPDEST PUSH1 0x11 DUP5 SWAP1 SSTORE PUSH1 0x12 DUP4 SWAP1 SSTORE PUSH1 0x9 DUP1 SLOAD PUSH1 0x1 PUSH1 0x1 PUSH1 0xA0 SHL SUB NOT AND PUSH1 0x1 PUSH1 0x1 PUSH1 0xA0 SHL SUB DUP5 DUP2 AND SWAP2 SWAP1 SWAP2 OR SWAP1 SWAP2 SSTORE PUSH1 0x40 MLOAD PUSH4 0x23B872DD PUSH1 0xE0 SHL DUP2 MSTORE PUSH32 0x0 SWAP1 SWAP2 AND SWAP1 PUSH4 0x23B872DD SWAP1 PUSH2 0x2749 SWAP1 CALLER SWAP1 ADDRESS SWAP1 DUP10 SWAP1 PUSH1 0x4 ADD PUSH2 0x5871 JUMP JUMPDEST PUSH1 0x20 PUSH1 0x40 MLOAD DUP1 DUP4 SUB DUP2 PUSH1 0x0 DUP8 GAS CALL ISZERO DUP1 ISZERO PUSH2 0x2768 JUMPI RETURNDATASIZE PUSH1 0x0 DUP1 RETURNDATACOPY RETURNDATASIZE PUSH1 0x0 REVERT JUMPDEST POP POP POP POP PUSH1 0x40 MLOAD RETURNDATASIZE PUSH1 0x1F NOT PUSH1 0x1F DUP3 ADD AND DUP3 ADD DUP1 PUSH1 0x40 MSTORE POP DUP2 ADD SWAP1 PUSH2 0x278C SWAP2 SWAP1 PUSH2 0x5854 JUMP JUMPDEST PUSH2 0x2795 JUMPI PUSH1 0x0 DUP1 REVERT JUMPDEST PUSH1 0x9 SLOAD PUSH1 0x40 MLOAD PUSH4 0xD4BEB4FD PUSH1 0xE0 SHL DUP2 MSTORE PUSH1 0x1 PUSH1 0x1 PUSH1 0xA0 SHL SUB SWAP1 SWAP2 AND SWAP1 PUSH4 0xD4BEB4FD SWAP1 PUSH2 0x27C7 SWAP1 ADDRESS SWAP1 DUP8 SWAP1 PUSH1 0x4 ADD PUSH2 0x583B JUMP JUMPDEST PUSH1 0x0 PUSH1 0x40 MLOAD DUP1 DUP4 SUB DUP2 PUSH1 0x0 DUP8 DUP1 EXTCODESIZE ISZERO DUP1 ISZERO PUSH2 0x27E1 JUMPI PUSH1 0x0 DUP1 REVERT JUMPDEST POP GAS CALL ISZERO DUP1 ISZERO PUSH2 0x27F5 JUMPI RETURNDATASIZE PUSH1 0x0 DUP1 RETURNDATACOPY RETURNDATASIZE PUSH1 0x0 REVERT JUMPDEST POP POP POP POP PUSH2 0x280C CALLER PUSH9 0x56BC75E2D63100000 PUSH2 0x3ECC JUMP JUMPDEST PUSH1 0x0 JUMPDEST DUP6 MLOAD DUP2 LT ISZERO PUSH2 0x28B9 JUMPI PUSH1 0xB PUSH1 0x40 MLOAD DUP1 PUSH1 0x40 ADD PUSH1 0x40 MSTORE DUP1 DUP10 DUP5 DUP2 MLOAD DUP2 LT PUSH2 0x2837 JUMPI PUSH2 0x2837 PUSH2 0x579F JUMP JUMPDEST PUSH1 0x20 MUL PUSH1 0x20 ADD ADD MLOAD DUP2 MSTORE PUSH1 0x20 ADD DUP9 DUP5 DUP2 MLOAD DUP2 LT PUSH2 0x2856 JUMPI PUSH2 0x2856 PUSH2 0x579F JUMP JUMPDEST PUSH1 0x20 SWAP1 DUP2 MUL SWAP2 SWAP1 SWAP2 ADD DUP2 ADD MLOAD PUSH1 0x1 PUSH1 0x1 PUSH1 0xA0 SHL SUB SWAP1 DUP2 AND SWAP1 SWAP3 MSTORE DUP4 SLOAD PUSH1 0x1 DUP1 DUP3 ADD DUP7 SSTORE PUSH1 0x0 SWAP6 DUP7 MSTORE SWAP5 DUP3 SWAP1 KECCAK256 DUP5 MLOAD PUSH1 0x2 SWAP1 SWAP3 MUL ADD SWAP1 DUP2 SSTORE SWAP3 ADD MLOAD SWAP2 SWAP1 SWAP3 ADD DUP1 SLOAD PUSH1 0x1 PUSH1 0x1 PUSH1 0xA0 SHL SUB NOT AND SWAP2 SWAP1 SWAP3 AND OR SWAP1 SSTORE DUP1 PUSH2 0x28B1 DUP2 PUSH2 0x58DF JUMP JUMPDEST SWAP2 POP POP PUSH2 0x280F JUMP JUMPDEST POP PUSH1 0xC DUP1 SLOAD PUSH1 0x1 PUSH1 0x1 PUSH1 0xA0 SHL SUB NOT AND PUSH1 0x1 PUSH1 0x1 PUSH1 0xA0 SHL SUB SWAP3 SWAP1 SWAP3 AND SWAP2 SWAP1 SWAP2 OR SWAP1 SSTORE POP POP POP POP POP JUMP JUMPDEST PUSH1 0x60 PUSH1 0x5 DUP1 SLOAD PUSH2 0xB98 SWAP1 PUSH2 0x5729 JUMP JUMPDEST PUSH1 0xE SLOAD PUSH1 0xFF AND ISZERO PUSH2 0x2900 JUMPI PUSH1 0x0 DUP1 REVERT JUMPDEST PUSH1 0xE DUP1 SLOAD PUSH1 0xFF NOT AND PUSH1 0x1 OR SWAP1 SSTORE PUSH1 0x40 DUP2 ADD MLOAD PUSH1 0x20 DUP3 ADD MLOAD PUSH1 0x0 SWAP2 PUSH2 0x2923 SWAP2 PUSH2 0x58F8 JUMP JUMPDEST SWAP1 POP PUSH1 0x0 DUP2 SLT ISZERO PUSH2 0x2952 JUMPI PUSH2 0x2937 DUP2 PUSH2 0x591F JUMP JUMPDEST PUSH2 0x294F SWAP1 PUSH1 0x0 DUP1 MLOAD PUSH1 0x20 PUSH2 0x5FA9 DUP4 CODECOPY DUP2 MLOAD SWAP2 MSTORE PUSH2 0x578C JUMP JUMPDEST SWAP1 POP JUMPDEST DUP1 DUP4 PUSH1 0x60 ADD MLOAD EQ PUSH2 0x2962 JUMPI PUSH1 0x0 DUP1 REVERT JUMPDEST PUSH2 0x296F DUP4 PUSH1 0x20 ADD MLOAD PUSH2 0x21B2 JUMP JUMPDEST PUSH2 0x29AA JUMPI PUSH1 0x40 MLOAD PUSH3 0x461BCD PUSH1 0xE5 SHL DUP2 MSTORE PUSH1 0x20 PUSH1 0x4 DUP3 ADD MSTORE PUSH1 0xC PUSH1 0x24 DUP3 ADD MSTORE PUSH12 0x1A5B9D985B1A59081C9BDBDD PUSH1 0xA2 SHL PUSH1 0x44 DUP3 ADD MSTORE PUSH1 0x64 ADD PUSH2 0x1119 JUMP JUMPDEST PUSH2 0x29B3 DUP4 PUSH2 0x3F58 JUMP JUMPDEST PUSH2 0x29EF JUMPI PUSH1 0x40 MLOAD PUSH3 0x461BCD PUSH1 0xE5 SHL DUP2 MSTORE PUSH1 0x20 PUSH1 0x4 DUP3 ADD MSTORE PUSH1 0xD PUSH1 0x24 DUP3 ADD MSTORE PUSH13 0x34B73B30B634B210383937B7B3 PUSH1 0x99 SHL PUSH1 0x44 DUP3 ADD MSTORE PUSH1 0x64 ADD PUSH2 0x1119 JUMP JUMPDEST PUSH1 0x0 DUP1 MLOAD PUSH1 0x20 PUSH2 0x5FA9 DUP4 CODECOPY DUP2 MLOAD SWAP2 MSTORE DUP3 PUSH1 0x40 MLOAD PUSH1 0x20 ADD PUSH2 0x2A0F SWAP2 SWAP1 PUSH2 0x593B JUMP JUMPDEST PUSH1 0x40 MLOAD PUSH1 0x20 DUP2 DUP4 SUB SUB DUP2 MSTORE SWAP1 PUSH1 0x40 MSTORE DUP1 MLOAD SWAP1 PUSH1 0x20 ADD KECCAK256 PUSH1 0x0 SHR PUSH2 0x2A32 SWAP2 SWAP1 PUSH2 0x594E JUMP JUMPDEST DUP4 PUSH1 0x40 ADD MLOAD EQ PUSH2 0x2A78 JUMPI PUSH1 0x40 MLOAD PUSH3 0x461BCD PUSH1 0xE5 SHL DUP2 MSTORE PUSH1 0x20 PUSH1 0x4 DUP3 ADD MSTORE PUSH1 0x11 PUSH1 0x24 DUP3 ADD MSTORE PUSH17 0xD2DCC6DEE4E4CAC6E840CAC840D0C2E6D PUSH1 0x7B SHL PUSH1 0x44 DUP3 ADD MSTORE PUSH1 0x64 ADD PUSH2 0x1119 JUMP JUMPDEST PUSH1 0x0 DUP3 PUSH1 0x20 ADD MLOAD SLT ISZERO PUSH2 0x2AFB JUMPI PUSH1 0x9 SLOAD DUP3 MLOAD PUSH1 0x20 DUP5 ADD MLOAD PUSH1 0x1 PUSH1 0x1 PUSH1 0xA0 SHL SUB SWAP1 SWAP3 AND SWAP2 PUSH4 0xD4BEB4FD SWAP2 SWAP1 PUSH2 0x2AAB SWAP1 PUSH2 0x591F JUMP JUMPDEST PUSH1 0x40 MLOAD DUP4 PUSH4 0xFFFFFFFF AND PUSH1 0xE0 SHL DUP2 MSTORE PUSH1 0x4 ADD PUSH2 0x2AC8 SWAP3 SWAP2 SWAP1 PUSH2 0x583B JUMP JUMPDEST PUSH1 0x0 PUSH1 0x40 MLOAD DUP1 DUP4 SUB DUP2 PUSH1 0x0 DUP8 DUP1 EXTCODESIZE ISZERO DUP1 ISZERO PUSH2 0x2AE2 JUMPI PUSH1 0x0 DUP1 REVERT JUMPDEST POP GAS CALL ISZERO DUP1 ISZERO PUSH2 0x2AF6 JUMPI RETURNDATASIZE PUSH1 0x0 DUP1 RETURNDATACOPY RETURNDATASIZE PUSH1 0x0 REVERT JUMPDEST POP POP POP POP JUMPDEST PUSH2 0x2B07 DUP4 DUP4 PUSH1 0x0 PUSH2 0x44BB JUMP JUMPDEST PUSH1 0x40 DUP3 ADD MLOAD PUSH1 0x0 SWAP1 ISZERO PUSH2 0x2C20 JUMPI PUSH1 0x9 SLOAD PUSH1 0x40 DUP1 DUP6 ADD MLOAD SWAP1 MLOAD PUSH4 0xD4BEB4FD PUSH1 0xE0 SHL DUP2 MSTORE PUSH1 0x1 PUSH1 0x1 PUSH1 0xA0 SHL SUB SWAP1 SWAP3 AND SWAP2 PUSH4 0xD4BEB4FD SWAP2 PUSH2 0x2B4A SWAP2 CALLER SWAP2 SWAP1 PUSH1 0x4 ADD PUSH2 0x583B JUMP JUMPDEST PUSH1 0x0 PUSH1 0x40 MLOAD DUP1 DUP4 SUB DUP2 PUSH1 0x0 DUP8 DUP1 EXTCODESIZE ISZERO DUP1 ISZERO PUSH2 0x2B64 JUMPI PUSH1 0x0 DUP1 REVERT JUMPDEST POP GAS CALL ISZERO DUP1 ISZERO PUSH2 0x2B78 JUMPI RETURNDATASIZE PUSH1 0x0 DUP1 RETURNDATACOPY RETURNDATASIZE PUSH1 0x0 REVERT JUMPDEST POP POP POP POP PUSH1 0x60 DUP4 ADD MLOAD ISZERO PUSH2 0x2C20 JUMPI PUSH2 0x2B9B PUSH1 0x12 SLOAD PUSH1 0x11 SLOAD DUP6 PUSH1 0x60 ADD MLOAD PUSH1 0x0 PUSH2 0x2230 JUMP JUMPDEST SWAP1 POP DUP3 PUSH1 0x60 ADD MLOAD DUP4 PUSH1 0x40 ADD MLOAD GT PUSH2 0x2BE5 JUMPI PUSH1 0x40 MLOAD PUSH3 0x461BCD PUSH1 0xE5 SHL DUP2 MSTORE PUSH1 0x20 PUSH1 0x4 DUP3 ADD MSTORE PUSH1 0xE PUSH1 0x24 DUP3 ADD MSTORE PUSH14 0x72656261746520746F6F20626967 PUSH1 0x90 SHL PUSH1 0x44 DUP3 ADD MSTORE PUSH1 0x64 ADD PUSH2 0x1119 JUMP JUMPDEST DUP3 MLOAD PUSH1 0x40 MLOAD PUSH1 0x1 PUSH1 0x1 PUSH1 0xA0 SHL SUB SWAP1 SWAP2 AND SWAP1 DUP3 ISZERO PUSH2 0x8FC MUL SWAP1 DUP4 SWAP1 PUSH1 0x0 DUP2 DUP2 DUP2 DUP6 DUP9 DUP9 CALL SWAP4 POP POP POP POP ISZERO DUP1 ISZERO PUSH2 0x2C1E JUMPI RETURNDATASIZE PUSH1 0x0 DUP1 RETURNDATACOPY RETURNDATASIZE PUSH1 0x0 REVERT JUMPDEST POP JUMPDEST DUP1 CALLVALUE EQ PUSH2 0x2C65 JUMPI PUSH1 0x40 MLOAD PUSH3 0x461BCD PUSH1 0xE5 SHL DUP2 MSTORE PUSH1 0x20 PUSH1 0x4 DUP3 ADD MSTORE PUSH1 0x13 PUSH1 0x24 DUP3 ADD MSTORE PUSH19 0x6D73672076616C756520213D20726562617465 PUSH1 0x68 SHL PUSH1 0x44 DUP3 ADD MSTORE PUSH1 0x64 ADD PUSH2 0x1119 JUMP JUMPDEST POP POP PUSH1 0xE DUP1 SLOAD PUSH1 0xFF NOT AND SWAP1 SSTORE POP POP JUMP JUMPDEST PUSH1 0x0 PUSH2 0x2C82 CALLER DUP5 DUP5 PUSH2 0x3BB2 JUMP JUMPDEST POP PUSH1 0x1 SWAP3 SWAP2 POP POP JUMP JUMPDEST PUSH1 0x0 DUP1 DUP5 PUSH1 0x20 ADD MLOAD SGT PUSH2 0x2CE0 JUMPI PUSH1 0x40 MLOAD PUSH3 0x461BCD PUSH1 0xE5 SHL DUP2 MSTORE PUSH1 0x20 PUSH1 0x4 DUP3 ADD MSTORE PUSH1 0x17 PUSH1 0x24 DUP3 ADD MSTORE PUSH32 0x616D6F756E74206D75737420626520706F736974697665000000000000000000 PUSH1 0x44 DUP3 ADD MSTORE PUSH1 0x64 ADD PUSH2 0x1119 JUMP JUMPDEST PUSH1 0xE SLOAD PUSH1 0xFF AND ISZERO PUSH2 0x2CF0 JUMPI PUSH1 0x0 DUP1 REVERT JUMPDEST PUSH1 0x40 DUP1 MLOAD DUP1 DUP3 ADD DUP3 MSTORE DUP6 DUP2 MSTORE PUSH1 0x20 DUP1 DUP3 ADD DUP9 SWAP1 MSTORE PUSH1 0xA DUP1 SLOAD PUSH1 0x1 DUP2 ADD DUP3 SSTORE PUSH1 0x0 SWAP2 SWAP1 SWAP2 MSTORE DUP3 MLOAD DUP1 MLOAD PUSH32 0xC65A7BB8D6351C1CF70C95A316CC6A92839C986682D98BC35F958F4883F9D2A8 PUSH1 0xD SWAP1 SWAP4 MUL SWAP3 DUP4 ADD DUP1 SLOAD PUSH1 0x1 PUSH1 0x1 PUSH1 0xA0 SHL SUB NOT AND PUSH1 0x1 PUSH1 0x1 PUSH1 0xA0 SHL SUB SWAP1 SWAP3 AND SWAP2 SWAP1 SWAP2 OR DUP2 SSTORE SWAP3 DUP2 ADD MLOAD PUSH32 0xC65A7BB8D6351C1CF70C95A316CC6A92839C986682D98BC35F958F4883F9D2A9 DUP4 ADD SSTORE SWAP4 DUP5 ADD MLOAD PUSH32 0xC65A7BB8D6351C1CF70C95A316CC6A92839C986682D98BC35F958F4883F9D2AA DUP3 ADD SSTORE PUSH1 0x60 DUP5 ADD MLOAD PUSH32 0xC65A7BB8D6351C1CF70C95A316CC6A92839C986682D98BC35F958F4883F9D2AB DUP3 ADD SSTORE PUSH1 0x80 DUP5 ADD MLOAD SWAP3 SWAP4 SWAP2 SWAP3 DUP4 SWAP2 PUSH32 0xC65A7BB8D6351C1CF70C95A316CC6A92839C986682D98BC35F958F4883F9D2AC ADD SWAP1 PUSH2 0x2E0F SWAP1 DUP3 PUSH2 0x59B1 JUMP JUMPDEST POP PUSH1 0xA0 DUP3 ADD MLOAD PUSH1 0x5 DUP3 ADD SWAP1 PUSH2 0x2E24 SWAP1 DUP3 PUSH2 0x59B1 JUMP JUMPDEST POP POP POP PUSH1 0x20 DUP3 ADD MLOAD DUP1 MLOAD PUSH1 0x6 DUP4 ADD SWAP1 DUP2 SWAP1 PUSH2 0x2E3F SWAP1 DUP3 PUSH2 0x59B1 JUMP JUMPDEST POP PUSH1 0x20 DUP3 DUP2 ADD MLOAD PUSH1 0x1 DUP4 ADD SSTORE PUSH1 0x40 DUP4 ADD MLOAD PUSH1 0x2 DUP4 ADD SSTORE PUSH1 0x60 DUP4 ADD MLOAD PUSH1 0x3 DUP4 ADD SSTORE PUSH1 0x80 DUP4 ADD MLOAD DUP1 MLOAD PUSH2 0x2E76 SWAP3 PUSH1 0x4 DUP6 ADD SWAP3 ADD SWAP1 PUSH2 0x4BCD JUMP JUMPDEST POP PUSH1 0xA0 DUP3 ADD MLOAD PUSH2 0x2E8C SWAP1 PUSH1 0x5 DUP4 ADD SWAP1 PUSH1 0x2 PUSH2 0x4C14 JUMP JUMPDEST POP POP PUSH1 0xA SLOAD DUP9 MLOAD PUSH1 0x60 DUP11 ADD MLOAD PUSH1 0x20 DUP1 DUP13 ADD MLOAD PUSH1 0x40 MLOAD SWAP5 SWAP9 POP PUSH1 0x0 SWAP8 POP PUSH2 0x2EB8 SWAP7 POP SWAP3 SWAP5 POP SWAP1 SWAP3 ADD PUSH2 0x5A70 JUMP JUMPDEST PUSH1 0x40 MLOAD PUSH1 0x20 DUP2 DUP4 SUB SUB DUP2 MSTORE SWAP1 PUSH1 0x40 MSTORE DUP1 MLOAD SWAP1 PUSH1 0x20 ADD KECCAK256 SWAP1 POP DUP2 PUSH1 0x1A PUSH1 0x0 DUP4 DUP2 MSTORE PUSH1 0x20 ADD SWAP1 DUP2 MSTORE PUSH1 0x20 ADD PUSH1 0x0 KECCAK256 DUP2 SWAP1 SSTORE POP PUSH1 0x0 PUSH2 0x2EFF PUSH1 0x11 SLOAD PUSH1 0x12 SLOAD DUP9 PUSH1 0x20 ADD MLOAD PUSH1 0x0 PUSH2 0x2401 JUMP JUMPDEST SWAP1 POP DUP5 ISZERO PUSH2 0x2F74 JUMPI PUSH1 0x9 SLOAD PUSH1 0x20 DUP8 ADD MLOAD PUSH1 0x40 MLOAD PUSH4 0xA6C1A4F PUSH1 0xE1 SHL DUP2 MSTORE PUSH1 0x1 PUSH1 0x1 PUSH1 0xA0 SHL SUB SWAP1 SWAP3 AND SWAP2 PUSH4 0x14D8349E SWAP2 PUSH2 0x2F3D SWAP2 CALLER SWAP2 SWAP1 PUSH1 0x4 ADD PUSH2 0x583B JUMP JUMPDEST PUSH1 0x0 PUSH1 0x40 MLOAD DUP1 DUP4 SUB DUP2 PUSH1 0x0 DUP8 DUP1 EXTCODESIZE ISZERO DUP1 ISZERO PUSH2 0x2F57 JUMPI PUSH1 0x0 DUP1 REVERT JUMPDEST POP GAS CALL ISZERO DUP1 ISZERO PUSH2 0x2F6B JUMPI RETURNDATASIZE PUSH1 0x0 DUP1 RETURNDATACOPY RETURNDATASIZE PUSH1 0x0 REVERT JUMPDEST POP POP POP POP PUSH2 0x306B JUMP JUMPDEST DUP4 DUP2 GT ISZERO PUSH2 0x2FB7 JUMPI PUSH1 0x40 MLOAD PUSH3 0x461BCD PUSH1 0xE5 SHL DUP2 MSTORE PUSH1 0x20 PUSH1 0x4 DUP3 ADD MSTORE PUSH1 0x10 PUSH1 0x24 DUP3 ADD MSTORE PUSH16 0x17DB585E13DD5D08195E18D959591959 PUSH1 0x82 SHL PUSH1 0x44 DUP3 ADD MSTORE PUSH1 0x64 ADD PUSH2 0x1119 JUMP JUMPDEST PUSH1 0x40 MLOAD PUSH4 0x23B872DD PUSH1 0xE0 SHL DUP2 MSTORE PUSH1 0x1 PUSH1 0x1 PUSH1 0xA0 SHL SUB PUSH32 0x0 AND SWAP1 PUSH4 0x23B872DD SWAP1 PUSH2 0x3007 SWAP1 CALLER SWAP1 ADDRESS SWAP1 DUP7 SWAP1 PUSH1 0x4 ADD PUSH2 0x5871 JUMP JUMPDEST PUSH1 0x20 PUSH1 0x40 MLOAD DUP1 DUP4 SUB DUP2 PUSH1 0x0 DUP8 GAS CALL ISZERO DUP1 ISZERO PUSH2 0x3026 JUMPI RETURNDATASIZE PUSH1 0x0 DUP1 RETURNDATACOPY RETURNDATASIZE PUSH1 0x0 REVERT JUMPDEST POP POP POP POP PUSH1 0x40 MLOAD RETURNDATASIZE PUSH1 0x1F NOT PUSH1 0x1F DUP3 ADD AND DUP3 ADD DUP1 PUSH1 0x40 MSTORE POP DUP2 ADD SWAP1 PUSH2 0x304A SWAP2 SWAP1 PUSH2 0x5854 JUMP JUMPDEST PUSH2 0x3053 JUMPI PUSH1 0x0 DUP1 REVERT JUMPDEST DUP1 PUSH1 0x11 PUSH1 0x0 DUP3 DUP3 SLOAD PUSH2 0x3065 SWAP2 SWAP1 PUSH2 0x5779 JUMP JUMPDEST SWAP1 SWAP2 SSTORE POP POP JUMPDEST PUSH1 0x0 PUSH2 0x3E8 PUSH1 0x13 SLOAD PUSH2 0x307D SWAP2 SWAP1 PUSH2 0x58CB JUMP JUMPDEST SWAP1 POP DUP2 DUP2 GT ISZERO DUP1 ISZERO PUSH2 0x308F JUMPI POP PUSH1 0x0 DUP2 GT JUMPDEST ISZERO PUSH2 0x3146 JUMPI PUSH1 0x40 MLOAD PUSH4 0xA9059CBB PUSH1 0xE0 SHL DUP2 MSTORE PUSH1 0x1 PUSH1 0x1 PUSH1 0xA0 SHL SUB PUSH32 0x0 AND SWAP1 PUSH4 0xA9059CBB SWAP1 PUSH2 0x30E2 SWAP1 CALLER SWAP1 DUP6 SWAP1 PUSH1 0x4 ADD PUSH2 0x583B JUMP JUMPDEST PUSH1 0x20 PUSH1 0x40 MLOAD DUP1 DUP4 SUB DUP2 PUSH1 0x0 DUP8 GAS CALL ISZERO DUP1 ISZERO PUSH2 0x3101 JUMPI RETURNDATASIZE PUSH1 0x0 DUP1 RETURNDATACOPY RETURNDATASIZE PUSH1 0x0 REVERT JUMPDEST POP POP POP POP PUSH1 0x40 MLOAD RETURNDATASIZE PUSH1 0x1F NOT PUSH1 0x1F DUP3 ADD AND DUP3 ADD DUP1 PUSH1 0x40 MSTORE POP DUP2 ADD SWAP1 PUSH2 0x3125 SWAP2 SWAP1 PUSH2 0x5854 JUMP JUMPDEST PUSH2 0x312E JUMPI PUSH1 0x0 DUP1 REVERT JUMPDEST DUP1 PUSH1 0x13 PUSH1 0x0 DUP3 DUP3 SLOAD PUSH2 0x3140 SWAP2 SWAP1 PUSH2 0x578C JUMP JUMPDEST SWAP1 SWAP2 SSTORE POP POP JUMPDEST PUSH2 0x3E8 PUSH1 0x14 SLOAD PUSH2 0x3156 SWAP2 SWAP1 PUSH2 0x58CB JUMP JUMPDEST SWAP1 POP PUSH2 0x3165 DUP8 PUSH1 0x20 ADD MLOAD PUSH2 0x46DD JUMP JUMPDEST DUP2 GT ISZERO DUP1 ISZERO PUSH2 0x3174 JUMPI POP PUSH1 0x0 DUP2 GT JUMPDEST ISZERO PUSH2 0x3207 JUMPI PUSH1 0x9 SLOAD PUSH1 0x40 MLOAD PUSH4 0xA9059CBB PUSH1 0xE0 SHL DUP2 MSTORE PUSH1 0x1 PUSH1 0x1 PUSH1 0xA0 SHL SUB SWAP1 SWAP2 AND SWAP1 PUSH4 0xA9059CBB SWAP1 PUSH2 0x31AB SWAP1 CALLER SWAP1 DUP6 SWAP1 PUSH1 0x4 ADD PUSH2 0x583B JUMP JUMPDEST PUSH1 0x20 PUSH1 0x40 MLOAD DUP1 DUP4 SUB DUP2 PUSH1 0x0 DUP8 GAS CALL ISZERO DUP1 ISZERO PUSH2 0x31CA JUMPI RETURNDATASIZE PUSH1 0x0 DUP1 RETURNDATACOPY RETURNDATASIZE PUSH1 0x0 REVERT JUMPDEST POP POP POP POP PUSH1 0x40 MLOAD RETURNDATASIZE PUSH1 0x1F NOT PUSH1 0x1F DUP3 ADD AND DUP3 ADD DUP1 PUSH1 0x40 MSTORE POP DUP2 ADD SWAP1 PUSH2 0x31EE SWAP2 SWAP1 PUSH2 0x5854 JUMP JUMPDEST POP DUP1 PUSH1 0x14 PUSH1 0x0 DUP3 DUP3 SLOAD PUSH2 0x3201 SWAP2 SWAP1 PUSH2 0x578C JUMP JUMPDEST SWAP1 SWAP2 SSTORE POP POP JUMPDEST PUSH1 0x0 JUMPDEST PUSH1 0xD SLOAD PUSH2 0x3219 SWAP1 PUSH1 0x1 SWAP1 PUSH2 0x578C JUMP JUMPDEST DUP2 GT PUSH2 0x32B6 JUMPI PUSH1 0xD DUP2 DUP2 SLOAD DUP2 LT PUSH2 0x3232 JUMPI PUSH2 0x3232 PUSH2 0x579F JUMP JUMPDEST PUSH1 0x0 SWAP2 DUP3 MSTORE PUSH1 0x20 SWAP1 SWAP2 KECCAK256 ADD SLOAD PUSH1 0x1 PUSH1 0x1 PUSH1 0xA0 SHL SUB AND PUSH4 0x51E3AEA9 PUSH2 0x3255 DUP8 PUSH2 0xCEA JUMP JUMPDEST PUSH1 0x40 MLOAD DUP3 PUSH4 0xFFFFFFFF AND PUSH1 0xE0 SHL DUP2 MSTORE PUSH1 0x4 ADD PUSH2 0x3271 SWAP2 SWAP1 PUSH2 0x4D4B JUMP JUMPDEST PUSH1 0x0 PUSH1 0x40 MLOAD DUP1 DUP4 SUB DUP2 PUSH1 0x0 DUP8 DUP1 EXTCODESIZE ISZERO DUP1 ISZERO PUSH2 0x328B JUMPI PUSH1 0x0 DUP1 REVERT JUMPDEST POP GAS CALL ISZERO DUP1 ISZERO PUSH2 0x329F JUMPI RETURNDATASIZE PUSH1 0x0 DUP1 RETURNDATACOPY RETURNDATASIZE PUSH1 0x0 REVERT JUMPDEST POP POP POP POP DUP1 DUP1 PUSH2 0x32AE SWAP1 PUSH2 0x58DF JUMP JUMPDEST SWAP2 POP POP PUSH2 0x320A JUMP JUMPDEST POP PUSH2 0x32BF PUSH2 0xC88 JUMP JUMPDEST PUSH1 0x20 DUP1 DUP9 ADD MLOAD PUSH1 0x40 DUP1 MLOAD DUP10 ISZERO ISZERO DUP2 MSTORE CALLER SWAP4 DUP2 ADD SWAP4 SWAP1 SWAP4 MSTORE DUP3 ADD DUP7 SWAP1 MSTORE PUSH1 0x60 DUP3 ADD MSTORE PUSH32 0xA690C60DFC5E43723CA5640F57A04E22055C1E98FE144BB95DA52CE24AE4B9B SWAP1 PUSH1 0x80 ADD PUSH1 0x40 MLOAD DUP1 SWAP2 SUB SWAP1 LOG1 POP POP POP SWAP5 SWAP4 POP POP POP POP JUMP JUMPDEST PUSH1 0xE SLOAD PUSH1 0xFF AND ISZERO PUSH2 0x3328 JUMPI PUSH1 0x0 DUP1 REVERT JUMPDEST PUSH2 0x3330 PUSH2 0x4C41 JUMP JUMPDEST PUSH2 0x3338 PUSH2 0x4C7A JUMP JUMPDEST PUSH1 0x60 PUSH1 0x0 PUSH1 0xD DUP7 DUP2 SLOAD DUP2 LT PUSH2 0x334F JUMPI PUSH2 0x334F PUSH2 0x579F JUMP JUMPDEST PUSH1 0x0 SWAP2 DUP3 MSTORE PUSH1 0x20 SWAP1 SWAP2 KECCAK256 ADD SLOAD PUSH1 0x40 MLOAD PUSH4 0x6B2FD905 PUSH1 0xE0 SHL DUP2 MSTORE PUSH1 0x1 PUSH1 0x1 PUSH1 0xA0 SHL SUB SWAP1 SWAP2 AND SWAP1 PUSH4 0x6B2FD905 SWAP1 PUSH2 0x3388 SWAP1 DUP9 SWAP1 PUSH1 0x4 ADD PUSH2 0x4D4B JUMP JUMPDEST PUSH1 0x0 PUSH1 0x40 MLOAD DUP1 DUP4 SUB DUP2 PUSH1 0x0 DUP8 GAS CALL ISZERO DUP1 ISZERO PUSH2 0x33A7 JUMPI RETURNDATASIZE PUSH1 0x0 DUP1 RETURNDATACOPY RETURNDATASIZE PUSH1 0x0 REVERT JUMPDEST POP POP POP POP PUSH1 0x40 MLOAD RETURNDATASIZE PUSH1 0x0 DUP3 RETURNDATACOPY PUSH1 0x1F RETURNDATASIZE SWAP1 DUP2 ADD PUSH1 0x1F NOT AND DUP3 ADD PUSH1 0x40 MSTORE PUSH2 0x33CF SWAP2 SWAP1 DUP2 ADD SWAP1 PUSH2 0x5ADA JUMP JUMPDEST PUSH1 0x40 DUP1 MLOAD PUSH1 0x2 DUP1 DUP3 MSTORE PUSH1 0x60 DUP3 ADD SWAP1 SWAP3 MSTORE SWAP3 SWAP5 POP SWAP1 SWAP3 POP DUP2 PUSH1 0x20 ADD PUSH1 0x20 DUP3 MUL DUP1 CALLDATASIZE DUP4 CALLDATACOPY POP POP POP PUSH1 0x80 DUP6 ADD MSTORE DUP2 MLOAD PUSH2 0x340E SWAP1 PUSH1 0x20 SWAP1 DUP5 ADD DUP2 ADD SWAP1 DUP5 ADD PUSH2 0x5B20 JUMP JUMPDEST DUP11 PUSH1 0x80 ADD MLOAD PUSH1 0x0 DUP2 MLOAD DUP2 LT PUSH2 0x3425 JUMPI PUSH2 0x3425 PUSH2 0x579F JUMP JUMPDEST PUSH1 0x20 MUL PUSH1 0x20 ADD ADD DUP12 PUSH1 0x80 ADD MLOAD PUSH1 0x1 DUP2 MLOAD DUP2 LT PUSH2 0x3443 JUMPI PUSH2 0x3443 PUSH2 0x579F JUMP JUMPDEST PUSH1 0x20 MUL PUSH1 0x20 ADD ADD DUP13 PUSH1 0xA0 ADD MLOAD PUSH1 0x0 PUSH1 0x2 DUP2 LT PUSH2 0x3461 JUMPI PUSH2 0x3461 PUSH2 0x579F JUMP JUMPDEST PUSH1 0x20 MUL ADD DUP14 PUSH1 0xA0 ADD MLOAD PUSH1 0x1 PUSH1 0x2 DUP2 LT PUSH2 0x347C JUMPI PUSH2 0x347C PUSH2 0x579F JUMP JUMPDEST PUSH1 0xA0 DUP16 ADD SWAP6 SWAP1 SWAP6 MSTORE PUSH1 0x80 DUP15 ADD SWAP6 SWAP1 SWAP6 MSTORE SWAP5 DUP14 MSTORE PUSH1 0x20 SWAP1 SWAP3 MUL SWAP1 SWAP3 ADD SWAP4 SWAP1 SWAP4 MSTORE SWAP3 SWAP1 MSTORE SWAP2 SWAP1 SWAP2 MSTORE MSTORE PUSH2 0x34AF DUP5 DUP5 PUSH1 0x1 PUSH2 0x44BB JUMP JUMPDEST PUSH1 0x0 PUSH2 0x7D0 PUSH1 0x10 SLOAD GT ISZERO PUSH2 0x35EF JUMPI PUSH2 0x3E8 PUSH1 0x10 SLOAD PUSH2 0x34CD SWAP2 SWAP1 PUSH2 0x58CB JUMP JUMPDEST SWAP1 POP DUP1 PUSH1 0x10 PUSH1 0x0 DUP3 DUP3 SLOAD PUSH2 0x34E1 SWAP2 SWAP1 PUSH2 0x578C JUMP JUMPDEST SWAP1 SWAP2 SSTORE POP POP PUSH1 0x1 PUSH1 0x1 PUSH1 0xA0 SHL SUB DUP3 AND ISZERO PUSH2 0x3578 JUMPI PUSH2 0x3500 PUSH1 0x2 DUP3 PUSH2 0x58CB JUMP JUMPDEST PUSH1 0x9 SLOAD PUSH1 0x40 MLOAD PUSH4 0xA9059CBB PUSH1 0xE0 SHL DUP2 MSTORE SWAP2 SWAP3 POP PUSH1 0x1 PUSH1 0x1 PUSH1 0xA0 SHL SUB AND SWAP1 PUSH4 0xA9059CBB SWAP1 PUSH2 0x3533 SWAP1 DUP6 SWAP1 DUP6 SWAP1 PUSH1 0x4 ADD PUSH2 0x583B JUMP JUMPDEST PUSH1 0x20 PUSH1 0x40 MLOAD DUP1 DUP4 SUB DUP2 PUSH1 0x0 DUP8 GAS CALL ISZERO DUP1 ISZERO PUSH2 0x3552 JUMPI RETURNDATASIZE PUSH1 0x0 DUP1 RETURNDATACOPY RETURNDATASIZE PUSH1 0x0 REVERT JUMPDEST POP POP POP POP PUSH1 0x40 MLOAD RETURNDATASIZE PUSH1 0x1F NOT PUSH1 0x1F DUP3 ADD AND DUP3 ADD DUP1 PUSH1 0x40 MSTORE POP DUP2 ADD SWAP1 PUSH2 0x3576 SWAP2 SWAP1 PUSH2 0x5854 JUMP JUMPDEST POP JUMPDEST PUSH1 0x9 SLOAD PUSH1 0x40 MLOAD PUSH4 0xA9059CBB PUSH1 0xE0 SHL DUP2 MSTORE PUSH1 0x1 PUSH1 0x1 PUSH1 0xA0 SHL SUB SWAP1 SWAP2 AND SWAP1 PUSH4 0xA9059CBB SWAP1 PUSH2 0x35AA SWAP1 CALLER SWAP1 DUP6 SWAP1 PUSH1 0x4 ADD PUSH2 0x583B JUMP JUMPDEST PUSH1 0x20 PUSH1 0x40 MLOAD DUP1 DUP4 SUB DUP2 PUSH1 0x0 DUP8 GAS CALL ISZERO DUP1 ISZERO PUSH2 0x35C9 JUMPI RETURNDATASIZE PUSH1 0x0 DUP1 RETURNDATACOPY RETURNDATASIZE PUSH1 0x0 REVERT JUMPDEST POP POP POP POP PUSH1 0x40 MLOAD RETURNDATASIZE PUSH1 0x1F NOT PUSH1 0x1F DUP3 ADD AND DUP3 ADD DUP1 PUSH1 0x40 MSTORE POP DUP2 ADD SWAP1 PUSH2 0x35ED SWAP2 SWAP1 PUSH2 0x5854 JUMP JUMPDEST POP JUMPDEST PUSH2 0x7D0 PUSH1 0xF SLOAD GT ISZERO PUSH2 0x3767 JUMPI PUSH2 0x3E8 PUSH1 0xF SLOAD PUSH2 0x360B SWAP2 SWAP1 PUSH2 0x58CB JUMP JUMPDEST SWAP1 POP DUP1 PUSH1 0xF PUSH1 0x0 DUP3 DUP3 SLOAD PUSH2 0x361F SWAP2 SWAP1 PUSH2 0x578C JUMP JUMPDEST SWAP1 SWAP2 SSTORE POP POP PUSH1 0x1 PUSH1 0x1 PUSH1 0xA0 SHL SUB DUP3 AND ISZERO PUSH2 0x36D4 JUMPI PUSH2 0x363E PUSH1 0x2 DUP3 PUSH2 0x58CB JUMP JUMPDEST PUSH1 0x40 MLOAD PUSH4 0xA9059CBB PUSH1 0xE0 SHL DUP2 MSTORE SWAP1 SWAP2 POP PUSH1 0x1 PUSH1 0x1 PUSH1 0xA0 SHL SUB PUSH32 0x0 AND SWAP1 PUSH4 0xA9059CBB SWAP1 PUSH2 0x368F SWAP1 DUP6 SWAP1 DUP6 SWAP1 PUSH1 0x4 ADD PUSH2 0x583B JUMP JUMPDEST PUSH1 0x20 PUSH1 0x40 MLOAD DUP1 DUP4 SUB DUP2 PUSH1 0x0 DUP8 GAS CALL ISZERO DUP1 ISZERO PUSH2 0x36AE JUMPI RETURNDATASIZE PUSH1 0x0 DUP1 RETURNDATACOPY RETURNDATASIZE PUSH1 0x0 REVERT JUMPDEST POP POP POP POP PUSH1 0x40 MLOAD RETURNDATASIZE PUSH1 0x1F NOT PUSH1 0x1F DUP3 ADD AND DUP3 ADD DUP1 PUSH1 0x40 MSTORE POP DUP2 ADD SWAP1 PUSH2 0x36D2 SWAP2 SWAP1 PUSH2 0x5854 JUMP JUMPDEST POP JUMPDEST PUSH1 0x40 MLOAD PUSH4 0xA9059CBB PUSH1 0xE0 SHL DUP2 MSTORE PUSH1 0x1 PUSH1 0x1 PUSH1 0xA0 SHL SUB PUSH32 0x0 AND SWAP1 PUSH4 0xA9059CBB SWAP1 PUSH2 0x3722 SWAP1 CALLER SWAP1 DUP6 SWAP1 PUSH1 0x4 ADD PUSH2 0x583B JUMP JUMPDEST PUSH1 0x20 PUSH1 0x40 MLOAD DUP1 DUP4 SUB DUP2 PUSH1 0x0 DUP8 GAS CALL ISZERO DUP1 ISZERO PUSH2 0x3741 JUMPI RETURNDATASIZE PUSH1 0x0 DUP1 RETURNDATACOPY RETURNDATASIZE PUSH1 0x0 REVERT JUMPDEST POP POP POP POP PUSH1 0x40 MLOAD RETURNDATASIZE PUSH1 0x1F NOT PUSH1 0x1F DUP3 ADD AND DUP3 ADD DUP1 PUSH1 0x40 MSTORE POP DUP2 ADD SWAP1 PUSH2 0x3765 SWAP2 SWAP1 PUSH2 0x5854 JUMP JUMPDEST POP JUMPDEST PUSH32 0x7F293AA0B9AE407A05FB89BEF36529D7B5A7B5912E5CFA7A0EE9E251E70C6B0E DUP8 DUP8 PUSH1 0x40 MLOAD PUSH2 0x3798 SWAP3 SWAP2 SWAP1 PUSH2 0x5BCE JUMP JUMPDEST PUSH1 0x40 MLOAD DUP1 SWAP2 SUB SWAP1 LOG1 POP POP POP POP POP POP POP JUMP JUMPDEST PUSH1 0xE SLOAD PUSH1 0xFF AND ISZERO PUSH2 0x37B9 JUMPI PUSH1 0x0 DUP1 REVERT JUMPDEST PUSH1 0x0 PUSH2 0x37C7 DUP5 PUSH1 0x6 SLOAD PUSH2 0x3C8B JUMP JUMPDEST SWAP1 POP PUSH1 0x0 DUP2 GT PUSH2 0x3806 JUMPI PUSH1 0x40 MLOAD PUSH3 0x461BCD PUSH1 0xE5 SHL DUP2 MSTORE PUSH1 0x20 PUSH1 0x4 DUP3 ADD MSTORE PUSH1 0xA PUSH1 0x24 DUP3 ADD MSTORE PUSH10 0x726174696F207A65726F PUSH1 0xB0 SHL PUSH1 0x44 DUP3 ADD MSTORE PUSH1 0x64 ADD PUSH2 0x1119 JUMP JUMPDEST PUSH1 0x0 PUSH2 0x3814 DUP3 PUSH1 0x11 SLOAD PUSH2 0x3DAD JUMP JUMPDEST SWAP1 POP DUP3 DUP2 GT ISZERO PUSH2 0x3823 JUMPI PUSH1 0x0 DUP1 REVERT JUMPDEST DUP1 PUSH1 0x11 SLOAD PUSH2 0x3831 SWAP2 SWAP1 PUSH2 0x5779 JUMP JUMPDEST PUSH1 0x11 DUP2 SWAP1 SSTORE POP PUSH1 0x0 PUSH2 0x3845 DUP4 PUSH1 0x12 SLOAD PUSH2 0x3DAD JUMP JUMPDEST SWAP1 POP DUP5 DUP2 GT ISZERO PUSH2 0x3854 JUMPI PUSH1 0x0 DUP1 REVERT JUMPDEST DUP1 PUSH1 0x12 SLOAD PUSH2 0x3862 SWAP2 SWAP1 PUSH2 0x5779 JUMP JUMPDEST PUSH1 0x12 SSTORE PUSH2 0x386F CALLER DUP8 PUSH2 0x3ECC JUMP JUMPDEST PUSH1 0x40 MLOAD PUSH4 0x23B872DD PUSH1 0xE0 SHL DUP2 MSTORE PUSH1 0x1 PUSH1 0x1 PUSH1 0xA0 SHL SUB PUSH32 0x0 AND SWAP1 PUSH4 0x23B872DD SWAP1 PUSH2 0x38BF SWAP1 CALLER SWAP1 ADDRESS SWAP1 DUP8 SWAP1 PUSH1 0x4 ADD PUSH2 0x5871 JUMP JUMPDEST PUSH1 0x20 PUSH1 0x40 MLOAD DUP1 DUP4 SUB DUP2 PUSH1 0x0 DUP8 GAS CALL ISZERO DUP1 ISZERO PUSH2 0x38DE JUMPI RETURNDATASIZE PUSH1 0x0 DUP1 RETURNDATACOPY RETURNDATASIZE PUSH1 0x0 REVERT JUMPDEST POP POP POP POP PUSH1 0x40 MLOAD RETURNDATASIZE PUSH1 0x1F NOT PUSH1 0x1F DUP3 ADD AND DUP3 ADD DUP1 PUSH1 0x40 MSTORE POP DUP2 ADD SWAP1 PUSH2 0x3902 SWAP2 SWAP1 PUSH2 0x5854 JUMP JUMPDEST PUSH2 0x390B JUMPI PUSH1 0x0 DUP1 REVERT JUMPDEST PUSH1 0x9 SLOAD PUSH1 0x40 MLOAD PUSH4 0x23B872DD PUSH1 0xE0 SHL DUP2 MSTORE PUSH1 0x1 PUSH1 0x1 PUSH1 0xA0 SHL SUB SWAP1 SWAP2 AND SWAP1 PUSH4 0x23B872DD SWAP1 PUSH2 0x393F SWAP1 CALLER SWAP1 ADDRESS SWAP1 DUP7 SWAP1 PUSH1 0x4 ADD PUSH2 0x5871 JUMP JUMPDEST PUSH1 0x20 PUSH1 0x40 MLOAD DUP1 DUP4 SUB DUP2 PUSH1 0x0 DUP8 GAS CALL ISZERO DUP1 ISZERO PUSH2 0x395E JUMPI RETURNDATASIZE PUSH1 0x0 DUP1 RETURNDATACOPY RETURNDATASIZE PUSH1 0x0 REVERT JUMPDEST POP POP POP POP PUSH1 0x40 MLOAD RETURNDATASIZE PUSH1 0x1F NOT PUSH1 0x1F DUP3 ADD AND DUP3 ADD DUP1 PUSH1 0x40 MSTORE POP DUP2 ADD SWAP1 PUSH2 0x3982 SWAP2 SWAP1 PUSH2 0x5854 JUMP JUMPDEST POP PUSH2 0x398B PUSH2 0xC88 JUMP JUMPDEST PUSH32 0xF16EDE70E2CC42ECF32F5E0D9505C5E24FAFA0EA54A44CA42089B4170F9AF88C CALLER DUP8 PUSH1 0x40 MLOAD PUSH2 0x39BC SWAP3 SWAP2 SWAP1 PUSH2 0x583B JUMP JUMPDEST PUSH1 0x40 MLOAD DUP1 SWAP2 SUB SWAP1 LOG1 POP POP POP POP POP POP JUMP JUMPDEST PUSH1 0x0 PUSH2 0x39DE PUSH1 0x12 SLOAD PUSH1 0x11 SLOAD PUSH1 0x0 PUSH2 0x130F JUMP JUMPDEST SWAP1 POP SWAP1 JUMP JUMPDEST PUSH1 0x0 DUP1 PUSH2 0x39F8 DUP4 PUSH8 0xDE0B6B3A7640000 PUSH2 0x3DAD JUMP JUMPDEST SWAP1 POP PUSH1 0x0 PUSH2 0x3A06 DUP3 DUP8 PUSH2 0x5779 JUMP JUMPDEST SWAP1 POP PUSH1 0x0 PUSH2 0x3A14 DUP3 DUP9 PUSH2 0x3C8B JUMP JUMPDEST SWAP1 POP PUSH1 0x0 PUSH2 0x3A3B DUP3 PUSH2 0x3A36 PUSH8 0xDE0B6B3A7640000 PUSH8 0x1BC16D674EC80000 PUSH2 0x3C8B JUMP JUMPDEST PUSH2 0x46F9 JUMP JUMPDEST SWAP1 POP PUSH1 0x0 PUSH2 0x3A49 DUP3 DUP10 PUSH2 0x3DAD JUMP JUMPDEST SWAP1 POP PUSH2 0x3A55 DUP9 DUP3 PUSH2 0x578C JUMP JUMPDEST SWAP10 SWAP9 POP POP POP POP POP POP POP POP POP JUMP JUMPDEST PUSH1 0x0 DUP1 DUP3 ISZERO PUSH2 0x3B37 JUMPI PUSH2 0x3A85 PUSH8 0xDE0B6B3A7640000 PUSH8 0x1BC16D674EC80000 PUSH2 0x3C8B JUMP JUMPDEST SWAP1 POP PUSH1 0x0 PUSH2 0x3A9B DUP7 PUSH8 0xDE0B6B3A7640000 PUSH2 0x3DAD JUMP JUMPDEST SWAP1 POP PUSH1 0x0 PUSH2 0x3AA9 DUP3 DUP10 PUSH2 0x578C JUMP JUMPDEST SWAP1 POP PUSH1 0x0 PUSH2 0x3AB7 DUP3 DUP11 PUSH2 0x3C8B JUMP JUMPDEST SWAP1 POP PUSH1 0x0 PUSH2 0x3AD1 DUP3 PUSH2 0x3A36 PUSH8 0xDE0B6B3A7640000 DUP9 PUSH2 0x3C8B JUMP JUMPDEST SWAP1 POP PUSH1 0x0 PUSH2 0x3ADF DUP3 DUP14 PUSH2 0x3DAD JUMP JUMPDEST SWAP1 POP PUSH1 0x0 PUSH2 0x3AED DUP3 DUP15 PUSH2 0x578C JUMP JUMPDEST SWAP1 POP PUSH1 0x0 PUSH2 0x3B0C PUSH2 0x3B06 DUP10 PUSH8 0xDE0B6B3A7640000 PUSH2 0x578C JUMP JUMPDEST DUP13 PUSH2 0x3DAD JUMP JUMPDEST SWAP1 POP PUSH2 0x3B29 DUP3 PUSH2 0x3B24 DUP4 PUSH8 0xDE0B6B3A7640000 PUSH2 0x578C JUMP JUMPDEST PUSH2 0x3DAD JUMP JUMPDEST SWAP9 POP POP POP POP POP POP POP POP PUSH2 0x3BA8 JUMP JUMPDEST PUSH1 0x0 PUSH2 0x3B4B DUP6 PUSH8 0xDE0B6B3A7640000 PUSH2 0x578C JUMP JUMPDEST SWAP1 POP PUSH2 0x3B57 DUP7 DUP3 PUSH2 0x3DAD JUMP JUMPDEST SWAP1 POP PUSH1 0x0 PUSH2 0x3B6D PUSH8 0xDE0B6B3A7640000 DUP10 PUSH2 0x3C8B JUMP JUMPDEST SWAP1 POP PUSH1 0x0 PUSH2 0x3B8C PUSH2 0x3B86 DUP4 PUSH8 0xDE0B6B3A7640000 PUSH2 0x578C JUMP JUMPDEST DUP10 PUSH2 0x46F9 JUMP JUMPDEST SWAP1 POP PUSH2 0x3B98 DUP11 DUP3 PUSH2 0x3DAD JUMP JUMPDEST PUSH2 0x3BA2 SWAP1 DUP12 PUSH2 0x578C JUMP JUMPDEST SWAP5 POP POP POP POP JUMPDEST POP SWAP6 SWAP5 POP POP POP POP POP JUMP JUMPDEST PUSH1 0x1 PUSH1 0x1 PUSH1 0xA0 SHL SUB DUP4 AND PUSH1 0x0 SWAP1 DUP2 MSTORE PUSH1 0x18 PUSH1 0x20 MSTORE PUSH1 0x40 SWAP1 KECCAK256 SLOAD TIMESTAMP GT PUSH2 0x3BD6 JUMPI PUSH1 0x0 DUP1 REVERT JUMPDEST PUSH1 0x1 PUSH1 0x1 PUSH1 0xA0 SHL SUB DUP4 AND PUSH1 0x0 SWAP1 DUP2 MSTORE PUSH1 0x7 PUSH1 0x20 MSTORE PUSH1 0x40 SWAP1 KECCAK256 SLOAD PUSH2 0x3BFA SWAP1 DUP3 SWAP1 PUSH2 0x578C JUMP JUMPDEST PUSH1 0x1 PUSH1 0x1 PUSH1 0xA0 SHL SUB DUP1 DUP6 AND PUSH1 0x0 SWAP1 DUP2 MSTORE PUSH1 0x7 PUSH1 0x20 MSTORE PUSH1 0x40 DUP1 DUP3 KECCAK256 SWAP4 SWAP1 SWAP4 SSTORE SWAP1 DUP5 AND DUP2 MSTORE KECCAK256 SLOAD PUSH2 0x3C2A SWAP1 DUP3 SWAP1 PUSH2 0x5779 JUMP JUMPDEST PUSH1 0x1 PUSH1 0x1 PUSH1 0xA0 SHL SUB DUP1 DUP5 AND PUSH1 0x0 DUP2 DUP2 MSTORE PUSH1 0x7 PUSH1 0x20 MSTORE PUSH1 0x40 SWAP1 DUP2 SWAP1 KECCAK256 SWAP4 SWAP1 SWAP4 SSTORE SWAP2 MLOAD SWAP1 DUP6 AND SWAP1 PUSH32 0xDDF252AD1BE2C89B69C2B068FC378DAA952BA7F163C4A11628F55A4DF523B3EF SWAP1 PUSH2 0x3C7E SWAP1 DUP6 DUP2 MSTORE PUSH1 0x20 ADD SWAP1 JUMP JUMPDEST PUSH1 0x40 MLOAD DUP1 SWAP2 SUB SWAP1 LOG3 POP POP POP JUMP JUMPDEST PUSH1 0x0 DUP2 PUSH1 0x0 SUB PUSH2 0x3CCC JUMPI PUSH1 0x40 MLOAD PUSH3 0x461BCD PUSH1 0xE5 SHL DUP2 MSTORE PUSH1 0x20 PUSH1 0x4 DUP3 ADD MSTORE PUSH1 0xC PUSH1 0x24 DUP3 ADD MSTORE PUSH12 0x4552525F4449565F5A45524F PUSH1 0xA0 SHL PUSH1 0x44 DUP3 ADD MSTORE PUSH1 0x64 ADD PUSH2 0x1119 JUMP JUMPDEST PUSH1 0x0 PUSH2 0x3CE0 DUP5 PUSH8 0xDE0B6B3A7640000 PUSH2 0x5BE7 JUMP JUMPDEST SWAP1 POP DUP4 ISZERO DUP1 PUSH2 0x3CFF JUMPI POP PUSH2 0x3CF4 DUP5 DUP3 PUSH2 0x58CB JUMP JUMPDEST PUSH8 0xDE0B6B3A7640000 EQ JUMPDEST PUSH2 0x3D3E JUMPI PUSH1 0x40 MLOAD PUSH3 0x461BCD PUSH1 0xE5 SHL DUP2 MSTORE PUSH1 0x20 PUSH1 0x4 DUP3 ADD MSTORE PUSH1 0x10 PUSH1 0x24 DUP3 ADD MSTORE PUSH16 0x11549497D1125597D253951154939053 PUSH1 0x82 SHL PUSH1 0x44 DUP3 ADD MSTORE PUSH1 0x64 ADD PUSH2 0x1119 JUMP JUMPDEST PUSH1 0x0 PUSH2 0x3D4B PUSH1 0x2 DUP6 PUSH2 0x58CB JUMP JUMPDEST PUSH2 0x3D55 SWAP1 DUP4 PUSH2 0x5779 JUMP JUMPDEST SWAP1 POP DUP2 DUP2 LT ISZERO PUSH2 0x3D9A JUMPI PUSH1 0x40 MLOAD PUSH3 0x461BCD PUSH1 0xE5 SHL DUP2 MSTORE PUSH1 0x20 PUSH1 0x4 DUP3 ADD MSTORE PUSH1 0x10 PUSH1 0x24 DUP3 ADD MSTORE PUSH16 0x11549497D1125597D253951154939053 PUSH1 0x82 SHL PUSH1 0x44 DUP3 ADD MSTORE PUSH1 0x64 ADD PUSH2 0x1119 JUMP JUMPDEST PUSH2 0x3DA4 DUP5 DUP3 PUSH2 0x58CB JUMP JUMPDEST SWAP6 SWAP5 POP POP POP POP POP JUMP JUMPDEST PUSH1 0x0 DUP1 PUSH2 0x3DBA DUP4 DUP6 PUSH2 0x5BE7 JUMP JUMPDEST SWAP1 POP DUP4 ISZERO DUP1 PUSH2 0x3DD1 JUMPI POP DUP3 PUSH2 0x3DCF DUP6 DUP4 PUSH2 0x58CB JUMP JUMPDEST EQ JUMPDEST PUSH2 0x3E10 JUMPI PUSH1 0x40 MLOAD PUSH3 0x461BCD PUSH1 0xE5 SHL DUP2 MSTORE PUSH1 0x20 PUSH1 0x4 DUP3 ADD MSTORE PUSH1 0x10 PUSH1 0x24 DUP3 ADD MSTORE PUSH16 0x4552525F4D554C5F4F564552464C4F57 PUSH1 0x80 SHL PUSH1 0x44 DUP3 ADD MSTORE PUSH1 0x64 ADD PUSH2 0x1119 JUMP JUMPDEST PUSH1 0x0 PUSH2 0x3E24 DUP3 PUSH8 0x6F05B59D3B20000 PUSH2 0x5779 JUMP JUMPDEST SWAP1 POP PUSH2 0x3DA4 PUSH8 0xDE0B6B3A7640000 DUP3 PUSH2 0x58CB JUMP JUMPDEST PUSH1 0x1 PUSH1 0x1 PUSH1 0xA0 SHL SUB DUP3 AND PUSH1 0x0 SWAP1 DUP2 MSTORE PUSH1 0x7 PUSH1 0x20 MSTORE PUSH1 0x40 SWAP1 KECCAK256 SLOAD PUSH2 0x3E5C SWAP1 DUP3 SWAP1 PUSH2 0x578C JUMP JUMPDEST PUSH1 0x1 PUSH1 0x1 PUSH1 0xA0 SHL SUB DUP4 AND PUSH1 0x0 SWAP1 DUP2 MSTORE PUSH1 0x7 PUSH1 0x20 MSTORE PUSH1 0x40 SWAP1 KECCAK256 SSTORE PUSH1 0x6 SLOAD PUSH2 0x3E83 SWAP1 DUP3 SWAP1 PUSH2 0x578C JUMP JUMPDEST PUSH1 0x6 SSTORE PUSH1 0x40 MLOAD DUP2 DUP2 MSTORE PUSH1 0x0 SWAP1 PUSH1 0x1 PUSH1 0x1 PUSH1 0xA0 SHL SUB DUP5 AND SWAP1 PUSH32 0xDDF252AD1BE2C89B69C2B068FC378DAA952BA7F163C4A11628F55A4DF523B3EF SWAP1 PUSH1 0x20 ADD JUMPDEST PUSH1 0x40 MLOAD DUP1 SWAP2 SUB SWAP1 LOG3 POP POP JUMP JUMPDEST PUSH1 0x1 PUSH1 0x1 PUSH1 0xA0 SHL SUB DUP3 AND PUSH1 0x0 SWAP1 DUP2 MSTORE PUSH1 0x7 PUSH1 0x20 MSTORE PUSH1 0x40 SWAP1 KECCAK256 SLOAD PUSH2 0x3EF0 SWAP1 DUP3 SWAP1 PUSH2 0x5779 JUMP JUMPDEST PUSH1 0x1 PUSH1 0x1 PUSH1 0xA0 SHL SUB DUP4 AND PUSH1 0x0 SWAP1 DUP2 MSTORE PUSH1 0x7 PUSH1 0x20 MSTORE PUSH1 0x40 SWAP1 KECCAK256 SSTORE PUSH1 0x6 SLOAD PUSH2 0x3F17 SWAP1 DUP3 SWAP1 PUSH2 0x5779 JUMP JUMPDEST PUSH1 0x6 SSTORE PUSH1 0x40 MLOAD DUP2 DUP2 MSTORE PUSH1 0x1 PUSH1 0x1 PUSH1 0xA0 SHL SUB DUP4 AND SWAP1 PUSH1 0x0 SWAP1 PUSH32 0xDDF252AD1BE2C89B69C2B068FC378DAA952BA7F163C4A11628F55A4DF523B3EF SWAP1 PUSH1 0x20 ADD PUSH2 0x3EC0 JUMP JUMPDEST PUSH1 0x0 PUSH2 0x3F62 PUSH2 0x4B8A JUMP JUMPDEST PUSH2 0x3F6A PUSH2 0x4CB9 JUMP JUMPDEST PUSH2 0x3F72 PUSH2 0x4B8A JUMP JUMPDEST DUP5 PUSH1 0x0 ADD MLOAD DUP1 PUSH1 0x20 ADD SWAP1 MLOAD DUP2 ADD SWAP1 PUSH2 0x3F8A SWAP2 SWAP1 PUSH2 0x5C43 JUMP JUMPDEST PUSH1 0x80 DUP9 ADD MLOAD MLOAD SWAP3 SWAP6 POP SWAP1 SWAP4 POP SWAP2 POP PUSH1 0x2 SUB PUSH2 0x4119 JUMPI PUSH32 0x0 PUSH1 0x1 PUSH1 0x1 PUSH1 0xA0 SHL SUB AND PUSH4 0xC9219A7A DUP5 DUP5 DUP5 PUSH1 0x40 MLOAD DUP1 PUSH2 0x100 ADD PUSH1 0x40 MSTORE DUP1 DUP12 PUSH1 0x20 ADD MLOAD PUSH1 0x0 SHR DUP2 MSTORE PUSH1 0x20 ADD DUP12 PUSH1 0x60 ADD MLOAD DUP2 MSTORE PUSH1 0x20 ADD PUSH32 0x0 DUP2 MSTORE PUSH1 0x20 ADD DUP12 PUSH1 0x40 ADD MLOAD DUP2 MSTORE PUSH1 0x20 ADD DUP12 PUSH1 0x80 ADD MLOAD PUSH1 0x0 DUP2 MLOAD DUP2 LT PUSH2 0x403B JUMPI PUSH2 0x403B PUSH2 0x579F JUMP JUMPDEST PUSH1 0x20 MUL PUSH1 0x20 ADD ADD MLOAD PUSH1 0x0 SHR DUP2 MSTORE PUSH1 0x20 ADD DUP12 PUSH1 0x80 ADD MLOAD PUSH1 0x1 DUP2 MLOAD DUP2 LT PUSH2 0x4062 JUMPI PUSH2 0x4062 PUSH2 0x579F JUMP JUMPDEST PUSH1 0x20 MUL PUSH1 0x20 ADD ADD MLOAD PUSH1 0x0 SHR DUP2 MSTORE PUSH1 0x20 ADD DUP12 PUSH1 0xA0 ADD MLOAD PUSH1 0x0 PUSH1 0x2 DUP2 LT PUSH2 0x4089 JUMPI PUSH2 0x4089 PUSH2 0x579F JUMP JUMPDEST PUSH1 0x20 MUL ADD MLOAD PUSH1 0x0 SHR DUP2 MSTORE PUSH1 0x20 ADD DUP12 PUSH1 0xA0 ADD MLOAD PUSH1 0x1 PUSH1 0x2 DUP2 LT PUSH2 0x40AD JUMPI PUSH2 0x40AD PUSH2 0x579F JUMP JUMPDEST PUSH1 0x20 MUL ADD MLOAD SWAP1 MSTORE PUSH1 0x40 MLOAD PUSH1 0x1 PUSH1 0x1 PUSH1 0xE0 SHL SUB NOT PUSH1 0xE0 DUP8 SWAP1 SHL AND DUP2 MSTORE PUSH2 0x40D8 SWAP5 SWAP4 SWAP3 SWAP2 SWAP1 PUSH1 0x4 ADD PUSH2 0x5CFE JUMP JUMPDEST PUSH1 0x20 PUSH1 0x40 MLOAD DUP1 DUP4 SUB DUP2 DUP7 GAS STATICCALL ISZERO DUP1 ISZERO PUSH2 0x40F5 JUMPI RETURNDATASIZE PUSH1 0x0 DUP1 RETURNDATACOPY RETURNDATASIZE PUSH1 0x0 REVERT JUMPDEST POP POP POP POP PUSH1 0x40 MLOAD RETURNDATASIZE PUSH1 0x1F NOT PUSH1 0x1F DUP3 ADD AND DUP3 ADD DUP1 PUSH1 0x40 MSTORE POP DUP2 ADD SWAP1 PUSH2 0x3DA4 SWAP2 SWAP1 PUSH2 0x5854 JUMP JUMPDEST DUP5 PUSH1 0x80 ADD MLOAD MLOAD PUSH1 0x10 SUB PUSH2 0x4481 JUMPI PUSH32 0x0 PUSH1 0x1 PUSH1 0x1 PUSH1 0xA0 SHL SUB AND PUSH4 0xC5A0FC26 DUP5 DUP5 DUP5 PUSH1 0x40 MLOAD DUP1 PUSH2 0x2C0 ADD PUSH1 0x40 MSTORE DUP1 DUP12 PUSH1 0x20 ADD MLOAD PUSH1 0x0 SHR DUP2 MSTORE PUSH1 0x20 ADD DUP12 PUSH1 0x60 ADD MLOAD DUP2 MSTORE PUSH1 0x20 ADD PUSH32 0x0 DUP2 MSTORE PUSH1 0x20 ADD DUP12 PUSH1 0x40 ADD MLOAD DUP2 MSTORE PUSH1 0x20 ADD DUP12 PUSH1 0x80 ADD MLOAD PUSH1 0x0 DUP2 MLOAD DUP2 LT PUSH2 0x41C2 JUMPI PUSH2 0x41C2 PUSH2 0x579F JUMP JUMPDEST PUSH1 0x20 MUL PUSH1 0x20 ADD ADD MLOAD PUSH1 0x0 SHR DUP2 MSTORE PUSH1 0x20 ADD DUP12 PUSH1 0x80 ADD MLOAD PUSH1 0x1 DUP2 MLOAD DUP2 LT PUSH2 0x41E9 JUMPI PUSH2 0x41E9 PUSH2 0x579F JUMP JUMPDEST PUSH1 0x20 MUL PUSH1 0x20 ADD ADD MLOAD PUSH1 0x0 SHR DUP2 MSTORE PUSH1 0x20 ADD DUP12 PUSH1 0x80 ADD MLOAD PUSH1 0x2 DUP2 MLOAD DUP2 LT PUSH2 0x4210 JUMPI PUSH2 0x4210 PUSH2 0x579F JUMP JUMPDEST PUSH1 0x20 MUL PUSH1 0x20 ADD ADD MLOAD PUSH1 0x0 SHR DUP2 MSTORE PUSH1 0x20 ADD DUP12 PUSH1 0x80 ADD MLOAD PUSH1 0x3 DUP2 MLOAD DUP2 LT PUSH2 0x4237 JUMPI PUSH2 0x4237 PUSH2 0x579F JUMP JUMPDEST PUSH1 0x20 MUL PUSH1 0x20 ADD ADD MLOAD PUSH1 0x0 SHR DUP2 MSTORE PUSH1 0x20 ADD DUP12 PUSH1 0x80 ADD MLOAD PUSH1 0x4 DUP2 MLOAD DUP2 LT PUSH2 0x425E JUMPI PUSH2 0x425E PUSH2 0x579F JUMP JUMPDEST PUSH1 0x20 MUL PUSH1 0x20 ADD ADD MLOAD PUSH1 0x0 SHR DUP2 MSTORE PUSH1 0x20 ADD DUP12 PUSH1 0x80 ADD MLOAD PUSH1 0x5 DUP2 MLOAD DUP2 LT PUSH2 0x4285 JUMPI PUSH2 0x4285 PUSH2 0x579F JUMP JUMPDEST PUSH1 0x20 MUL PUSH1 0x20 ADD ADD MLOAD PUSH1 0x0 SHR DUP2 MSTORE PUSH1 0x20 ADD DUP12 PUSH1 0x80 ADD MLOAD PUSH1 0x6 DUP2 MLOAD DUP2 LT PUSH2 0x42AC JUMPI PUSH2 0x42AC PUSH2 0x579F JUMP JUMPDEST PUSH1 0x20 MUL PUSH1 0x20 ADD ADD MLOAD PUSH1 0x0 SHR DUP2 MSTORE PUSH1 0x20 ADD DUP12 PUSH1 0x80 ADD MLOAD PUSH1 0x7 DUP2 MLOAD DUP2 LT PUSH2 0x42D3 JUMPI PUSH2 0x42D3 PUSH2 0x579F JUMP JUMPDEST PUSH1 0x20 MUL PUSH1 0x20 ADD ADD MLOAD PUSH1 0x0 SHR DUP2 MSTORE PUSH1 0x20 ADD DUP12 PUSH1 0x80 ADD MLOAD PUSH1 0x8 DUP2 MLOAD DUP2 LT PUSH2 0x42FA JUMPI PUSH2 0x42FA PUSH2 0x579F JUMP JUMPDEST PUSH1 0x20 MUL PUSH1 0x20 ADD ADD MLOAD PUSH1 0x0 SHR DUP2 MSTORE PUSH1 0x20 ADD DUP12 PUSH1 0x80 ADD MLOAD PUSH1 0x9 DUP2 MLOAD DUP2 LT PUSH2 0x4321 JUMPI PUSH2 0x4321 PUSH2 0x579F JUMP JUMPDEST PUSH1 0x20 MUL PUSH1 0x20 ADD ADD MLOAD PUSH1 0x0 SHR DUP2 MSTORE PUSH1 0x20 ADD DUP12 PUSH1 0x80 ADD MLOAD PUSH1 0xA DUP2 MLOAD DUP2 LT PUSH2 0x4348 JUMPI PUSH2 0x4348 PUSH2 0x579F JUMP JUMPDEST PUSH1 0x20 MUL PUSH1 0x20 ADD ADD MLOAD PUSH1 0x0 SHR DUP2 MSTORE PUSH1 0x20 ADD DUP12 PUSH1 0x80 ADD MLOAD PUSH1 0xB DUP2 MLOAD DUP2 LT PUSH2 0x436F JUMPI PUSH2 0x436F PUSH2 0x579F JUMP JUMPDEST PUSH1 0x20 MUL PUSH1 0x20 ADD ADD MLOAD PUSH1 0x0 SHR DUP2 MSTORE PUSH1 0x20 ADD DUP12 PUSH1 0x80 ADD MLOAD PUSH1 0xC DUP2 MLOAD DUP2 LT PUSH2 0x4396 JUMPI PUSH2 0x4396 PUSH2 0x579F JUMP JUMPDEST PUSH1 0x20 MUL PUSH1 0x20 ADD ADD MLOAD PUSH1 0x0 SHR DUP2 MSTORE PUSH1 0x20 ADD DUP12 PUSH1 0x80 ADD MLOAD PUSH1 0xD DUP2 MLOAD DUP2 LT PUSH2 0x43BD JUMPI PUSH2 0x43BD PUSH2 0x579F JUMP JUMPDEST PUSH1 0x20 MUL PUSH1 0x20 ADD ADD MLOAD PUSH1 0x0 SHR DUP2 MSTORE PUSH1 0x20 ADD DUP12 PUSH1 0x80 ADD MLOAD PUSH1 0xE DUP2 MLOAD DUP2 LT PUSH2 0x43E4 JUMPI PUSH2 0x43E4 PUSH2 0x579F JUMP JUMPDEST PUSH1 0x20 MUL PUSH1 0x20 ADD ADD MLOAD PUSH1 0x0 SHR DUP2 MSTORE PUSH1 0x20 ADD DUP12 PUSH1 0x80 ADD MLOAD PUSH1 0xF DUP2 MLOAD DUP2 LT PUSH2 0x440B JUMPI PUSH2 0x440B PUSH2 0x579F JUMP JUMPDEST PUSH1 0x20 MUL PUSH1 0x20 ADD ADD MLOAD PUSH1 0x0 SHR DUP2 MSTORE PUSH1 0x20 ADD DUP12 PUSH1 0xA0 ADD MLOAD PUSH1 0x0 PUSH1 0x2 DUP2 LT PUSH2 0x4432 JUMPI PUSH2 0x4432 PUSH2 0x579F JUMP JUMPDEST PUSH1 0x20 MUL ADD MLOAD PUSH1 0x0 SHR DUP2 MSTORE PUSH1 0x20 ADD DUP12 PUSH1 0xA0 ADD MLOAD PUSH1 0x1 PUSH1 0x2 DUP2 LT PUSH2 0x4456 JUMPI PUSH2 0x4456 PUSH2 0x579F JUMP JUMPDEST PUSH1 0x20 MUL ADD MLOAD SWAP1 MSTORE PUSH1 0x40 MLOAD PUSH1 0x1 PUSH1 0x1 PUSH1 0xE0 SHL SUB NOT PUSH1 0xE0 DUP8 SWAP1 SHL AND DUP2 MSTORE PUSH2 0x40D8 SWAP5 SWAP4 SWAP3 SWAP2 SWAP1 PUSH1 0x4 ADD PUSH2 0x5D5B JUMP JUMPDEST PUSH1 0x40 MLOAD PUSH3 0x461BCD PUSH1 0xE5 SHL DUP2 MSTORE PUSH1 0x20 PUSH1 0x4 DUP3 ADD MSTORE PUSH1 0xF PUSH1 0x24 DUP3 ADD MSTORE PUSH15 0x189859081A5B9C1D5D0818DBDD5B9D PUSH1 0x8A SHL PUSH1 0x44 DUP3 ADD MSTORE PUSH1 0x64 ADD PUSH2 0x1119 JUMP JUMPDEST PUSH1 0x0 JUMPDEST DUP4 PUSH1 0x80 ADD MLOAD MLOAD DUP2 LT ISZERO PUSH2 0x45F7 JUMPI PUSH1 0x19 PUSH1 0x0 DUP6 PUSH1 0x80 ADD MLOAD DUP4 DUP2 MLOAD DUP2 LT PUSH2 0x44E5 JUMPI PUSH2 0x44E5 PUSH2 0x579F JUMP JUMPDEST PUSH1 0x20 SWAP1 DUP2 MUL SWAP2 SWAP1 SWAP2 ADD DUP2 ADD MLOAD DUP3 MSTORE DUP2 ADD SWAP2 SWAP1 SWAP2 MSTORE PUSH1 0x40 ADD PUSH1 0x0 KECCAK256 SLOAD PUSH1 0xFF AND ISZERO PUSH2 0x4546 JUMPI PUSH1 0x40 MLOAD PUSH3 0x461BCD PUSH1 0xE5 SHL DUP2 MSTORE PUSH1 0x20 PUSH1 0x4 DUP3 ADD MSTORE PUSH1 0x13 PUSH1 0x24 DUP3 ADD MSTORE PUSH19 0x125B9C1D5D08185B1C9958591E481CDC195B9D PUSH1 0x6A SHL PUSH1 0x44 DUP3 ADD MSTORE PUSH1 0x64 ADD PUSH2 0x1119 JUMP JUMPDEST PUSH1 0x1 PUSH1 0x19 PUSH1 0x0 DUP7 PUSH1 0x80 ADD MLOAD DUP5 DUP2 MLOAD DUP2 LT PUSH2 0x4562 JUMPI PUSH2 0x4562 PUSH2 0x579F JUMP JUMPDEST PUSH1 0x20 MUL PUSH1 0x20 ADD ADD MLOAD DUP2 MSTORE PUSH1 0x20 ADD SWAP1 DUP2 MSTORE PUSH1 0x20 ADD PUSH1 0x0 KECCAK256 PUSH1 0x0 PUSH2 0x100 EXP DUP2 SLOAD DUP2 PUSH1 0xFF MUL NOT AND SWAP1 DUP4 ISZERO ISZERO MUL OR SWAP1 SSTORE POP PUSH32 0x5E58F77BBF94B46D8D896E29753E4458C6E59B48581E20ED58C9558E96F297CE DUP5 PUSH1 0x80 ADD MLOAD DUP3 DUP2 MLOAD DUP2 LT PUSH2 0x45C6 JUMPI PUSH2 0x45C6 PUSH2 0x579F JUMP JUMPDEST PUSH1 0x20 MUL PUSH1 0x20 ADD ADD MLOAD PUSH1 0x40 MLOAD PUSH2 0x45DD SWAP2 DUP2 MSTORE PUSH1 0x20 ADD SWAP1 JUMP JUMPDEST PUSH1 0x40 MLOAD DUP1 SWAP2 SUB SWAP1 LOG1 DUP1 PUSH2 0x45EF DUP2 PUSH2 0x58DF JUMP JUMPDEST SWAP2 POP POP PUSH2 0x44BE JUMP JUMPDEST POP PUSH1 0xA0 DUP4 ADD MLOAD DUP1 MLOAD PUSH1 0x20 SWAP1 SWAP2 ADD MLOAD PUSH2 0x460F SWAP2 SWAP1 PUSH2 0x47FE JUMP JUMPDEST POP PUSH2 0x4618 PUSH2 0xC88 JUMP JUMPDEST PUSH1 0xA0 DUP4 ADD MLOAD MLOAD PUSH1 0x3 SLOAD PUSH32 0x2521E31EA1559C6FF96BF5BD8F8332B81F1A00FCE5F2F35430BD450A657C2A76 SWAP2 SWAP1 PUSH2 0x465E SWAP1 PUSH1 0x2 SWAP1 PUSH5 0x100000000 SWAP1 DIV PUSH4 0xFFFFFFFF AND PUSH2 0x5DAC JUMP JUMPDEST DUP5 PUSH1 0x80 ADD MLOAD DUP5 PUSH1 0x40 MLOAD PUSH2 0x4674 SWAP5 SWAP4 SWAP3 SWAP2 SWAP1 PUSH2 0x5DC9 JUMP JUMPDEST PUSH1 0x40 MLOAD DUP1 SWAP2 SUB SWAP1 LOG1 PUSH1 0xA0 DUP4 ADD MLOAD PUSH32 0x2521E31EA1559C6FF96BF5BD8F8332B81F1A00FCE5F2F35430BD450A657C2A76 SWAP1 PUSH1 0x1 PUSH1 0x20 MUL ADD MLOAD PUSH1 0x3 SLOAD PUSH2 0x46C7 SWAP1 PUSH1 0x1 SWAP1 PUSH5 0x100000000 SWAP1 DIV PUSH4 0xFFFFFFFF AND PUSH2 0x5DAC JUMP JUMPDEST DUP5 PUSH1 0xA0 ADD MLOAD DUP5 PUSH1 0x40 MLOAD PUSH2 0x23F4 SWAP5 SWAP4 SWAP3 SWAP2 SWAP1 PUSH2 0x5DC9 JUMP JUMPDEST PUSH1 0x0 DUP1 DUP3 SLT ISZERO PUSH2 0x46F5 JUMPI PUSH2 0x46F0 DUP3 PUSH2 0x591F JUMP JUMPDEST PUSH2 0xC82 JUMP JUMPDEST POP SWAP1 JUMP JUMPDEST PUSH1 0x0 PUSH1 0x1 DUP4 LT ISZERO PUSH2 0x4743 JUMPI PUSH1 0x40 MLOAD PUSH3 0x461BCD PUSH1 0xE5 SHL DUP2 MSTORE PUSH1 0x20 PUSH1 0x4 DUP3 ADD MSTORE PUSH1 0x14 PUSH1 0x24 DUP3 ADD MSTORE PUSH20 0x4552525F504F575F424153455F544F4F5F4C4F57 PUSH1 0x60 SHL PUSH1 0x44 DUP3 ADD MSTORE PUSH1 0x64 ADD PUSH2 0x1119 JUMP JUMPDEST PUSH8 0x1BC16D674EC7FFFF DUP4 GT ISZERO PUSH2 0x4793 JUMPI PUSH1 0x40 MLOAD PUSH3 0x461BCD PUSH1 0xE5 SHL DUP2 MSTORE PUSH1 0x20 PUSH1 0x4 DUP3 ADD MSTORE PUSH1 0x15 PUSH1 0x24 DUP3 ADD MSTORE PUSH21 0x8AA4A4BEA09EAEBE8482A68ABEA89E9EBE90928E9 PUSH1 0x5B SHL PUSH1 0x44 DUP3 ADD MSTORE PUSH1 0x64 ADD PUSH2 0x1119 JUMP JUMPDEST PUSH1 0x0 PUSH2 0x479E DUP4 PUSH2 0x49BA JUMP JUMPDEST SWAP1 POP PUSH1 0x0 PUSH2 0x47AC DUP3 DUP6 PUSH2 0x578C JUMP JUMPDEST SWAP1 POP PUSH1 0x0 PUSH2 0x47C2 DUP7 PUSH2 0x47BD DUP6 PUSH2 0x49D7 JUMP JUMPDEST PUSH2 0x49EB JUMP JUMPDEST SWAP1 POP DUP2 PUSH1 0x0 SUB PUSH2 0x47D6 JUMPI SWAP3 POP PUSH2 0xC82 SWAP2 POP POP JUMP JUMPDEST PUSH1 0x0 PUSH2 0x47E7 DUP8 DUP5 PUSH4 0x5F5E100 PUSH2 0x4A60 JUMP JUMPDEST SWAP1 POP PUSH2 0x47F3 DUP3 DUP3 PUSH2 0x3DAD JUMP JUMPDEST SWAP8 SWAP7 POP POP POP POP POP POP POP JUMP JUMPDEST PUSH1 0x3 SLOAD PUSH5 0x100000000 SWAP1 DIV PUSH4 0xFFFFFFFF AND PUSH2 0x483A PUSH32 0x0 PUSH1 0x2 PUSH2 0x5F0D JUMP JUMPDEST PUSH4 0xFFFFFFFF AND DUP2 PUSH4 0xFFFFFFFF AND SUB PUSH2 0x4851 JUMPI PUSH1 0x0 DUP1 REVERT JUMPDEST PUSH1 0x0 PUSH2 0x485E PUSH1 0x2 DUP4 PUSH2 0x5F22 JUMP JUMPDEST SWAP1 POP PUSH1 0x0 PUSH2 0x486C DUP6 DUP6 PUSH2 0x11D1 JUMP JUMPDEST SWAP1 POP PUSH1 0x0 DUP1 PUSH1 0x1 JUMPDEST PUSH32 0x0 PUSH4 0xFFFFFFFF AND DUP2 PUSH4 0xFFFFFFFF AND LT ISZERO PUSH2 0x4934 JUMPI PUSH2 0x48B3 PUSH1 0x2 DUP7 PUSH2 0x5F45 JUMP JUMPDEST PUSH4 0xFFFFFFFF AND PUSH1 0x0 SUB PUSH2 0x48ED JUMPI PUSH4 0xFFFFFFFF DUP2 AND PUSH1 0x0 SWAP1 DUP2 MSTORE PUSH1 0x2 PUSH1 0x20 SWAP1 DUP2 MSTORE PUSH1 0x40 DUP1 DUP4 KECCAK256 SLOAD SWAP2 DUP4 SWAP1 MSTORE SWAP1 SWAP2 KECCAK256 DUP6 SWAP1 SSTORE DUP5 SWAP4 POP SWAP2 POP PUSH2 0x4909 JUMP JUMPDEST PUSH4 0xFFFFFFFF DUP2 AND PUSH1 0x0 SWAP1 DUP2 MSTORE PUSH1 0x20 DUP2 SWAP1 MSTORE PUSH1 0x40 SWAP1 KECCAK256 SLOAD SWAP3 POP DUP4 SWAP2 POP JUMPDEST PUSH2 0x4913 DUP4 DUP4 PUSH2 0x11D1 JUMP JUMPDEST SWAP4 POP PUSH2 0x4920 PUSH1 0x2 DUP7 PUSH2 0x5F22 JUMP JUMPDEST SWAP5 POP DUP1 PUSH2 0x492C DUP2 PUSH2 0x5F68 JUMP JUMPDEST SWAP2 POP POP PUSH2 0x4874 JUMP JUMPDEST POP PUSH1 0x3 SLOAD PUSH1 0x0 SWAP1 PUSH1 0x64 SWAP1 PUSH2 0x494F SWAP1 PUSH4 0xFFFFFFFF AND PUSH1 0x1 PUSH2 0x5F8B JUMP JUMPDEST PUSH2 0x4959 SWAP2 SWAP1 PUSH2 0x5F45 JUMP JUMPDEST PUSH1 0x3 DUP1 SLOAD PUSH4 0xFFFFFFFF NOT AND PUSH4 0xFFFFFFFF DUP4 AND SWAP1 DUP2 OR SWAP1 SWAP2 SSTORE PUSH1 0x0 SWAP1 DUP2 MSTORE PUSH1 0x1 PUSH1 0x20 MSTORE PUSH1 0x40 SWAP1 KECCAK256 DUP6 SWAP1 SSTORE SWAP1 POP PUSH2 0x498F DUP7 PUSH1 0x2 PUSH2 0x5F8B JUMP JUMPDEST PUSH1 0x3 PUSH1 0x4 PUSH2 0x100 EXP DUP2 SLOAD DUP2 PUSH4 0xFFFFFFFF MUL NOT AND SWAP1 DUP4 PUSH4 0xFFFFFFFF AND MUL OR SWAP1 SSTORE POP POP POP POP POP POP SWAP3 SWAP2 POP POP JUMP JUMPDEST PUSH1 0x0 PUSH2 0x49C5 DUP3 PUSH2 0x49D7 JUMP JUMPDEST PUSH2 0xC82 SWAP1 PUSH8 0xDE0B6B3A7640000 PUSH2 0x5BE7 JUMP JUMPDEST PUSH1 0x0 PUSH2 0xC82 PUSH8 0xDE0B6B3A7640000 DUP4 PUSH2 0x58CB JUMP JUMPDEST PUSH1 0x0 PUSH2 0x49F8 PUSH1 0x2 DUP4 PUSH2 0x594E JUMP JUMPDEST PUSH1 0x0 SUB PUSH2 0x4A0D JUMPI PUSH8 0xDE0B6B3A7640000 PUSH2 0x4A0F JUMP JUMPDEST DUP3 JUMPDEST SWAP1 POP PUSH2 0x4A1C PUSH1 0x2 DUP4 PUSH2 0x58CB JUMP JUMPDEST SWAP2 POP JUMPDEST DUP2 ISZERO PUSH2 0xC82 JUMPI PUSH2 0x4A2F DUP4 DUP5 PUSH2 0x3DAD JUMP JUMPDEST SWAP3 POP PUSH2 0x4A3C PUSH1 0x2 DUP4 PUSH2 0x594E JUMP JUMPDEST ISZERO PUSH2 0x4A4E JUMPI PUSH2 0x4A4B DUP2 DUP5 PUSH2 0x3DAD JUMP JUMPDEST SWAP1 POP JUMPDEST PUSH2 0x4A59 PUSH1 0x2 DUP4 PUSH2 0x58CB JUMP JUMPDEST SWAP2 POP PUSH2 0x4A1F JUMP JUMPDEST PUSH1 0x0 DUP3 DUP2 DUP1 PUSH2 0x4A77 DUP8 PUSH8 0xDE0B6B3A7640000 PUSH2 0x4B53 JUMP JUMPDEST PUSH8 0xDE0B6B3A7640000 SWAP6 POP SWAP1 SWAP3 POP SWAP1 POP DUP4 PUSH1 0x0 PUSH1 0x1 JUMPDEST DUP8 DUP4 LT PUSH2 0x4B46 JUMPI PUSH1 0x0 PUSH2 0x4AA8 DUP3 PUSH8 0xDE0B6B3A7640000 PUSH2 0x5BE7 JUMP JUMPDEST SWAP1 POP PUSH1 0x0 DUP1 PUSH2 0x4AC8 DUP10 PUSH2 0x4AC3 PUSH8 0xDE0B6B3A7640000 DUP7 PUSH2 0x578C JUMP JUMPDEST PUSH2 0x4B53 JUMP JUMPDEST SWAP2 POP SWAP2 POP PUSH2 0x4ADA DUP7 PUSH2 0x3B24 DUP5 DUP12 PUSH2 0x3DAD JUMP JUMPDEST SWAP6 POP PUSH2 0x4AE6 DUP7 DUP5 PUSH2 0x3C8B JUMP JUMPDEST SWAP6 POP DUP6 PUSH1 0x0 SUB PUSH2 0x4AF8 JUMPI POP POP POP PUSH2 0x4B46 JUMP JUMPDEST DUP7 ISZERO PUSH2 0x4B02 JUMPI SWAP4 ISZERO SWAP4 JUMPDEST DUP1 ISZERO PUSH2 0x4B0C JUMPI SWAP4 ISZERO SWAP4 JUMPDEST DUP5 ISZERO PUSH2 0x4B23 JUMPI PUSH2 0x4B1C DUP7 DUP12 PUSH2 0x578C JUMP JUMPDEST SWAP10 POP PUSH2 0x4B30 JUMP JUMPDEST PUSH2 0x4B2D DUP7 DUP12 PUSH2 0x5779 JUMP JUMPDEST SWAP10 POP JUMPDEST POP POP POP DUP1 DUP1 PUSH2 0x4B3E SWAP1 PUSH2 0x58DF JUMP JUMPDEST SWAP2 POP POP PUSH2 0x4A8D JUMP JUMPDEST POP POP POP POP POP POP SWAP4 SWAP3 POP POP POP JUMP JUMPDEST PUSH1 0x0 DUP1 DUP3 DUP5 LT PUSH2 0x4B72 JUMPI PUSH2 0x4B67 DUP4 DUP6 PUSH2 0x578C JUMP JUMPDEST PUSH1 0x0 SWAP2 POP SWAP2 POP PUSH2 0x4B83 JUMP JUMPDEST PUSH2 0x4B7C DUP5 DUP5 PUSH2 0x578C JUMP JUMPDEST PUSH1 0x1 SWAP2 POP SWAP2 POP JUMPDEST SWAP3 POP SWAP3 SWAP1 POP JUMP JUMPDEST PUSH1 0x40 MLOAD DUP1 PUSH1 0x40 ADD PUSH1 0x40 MSTORE DUP1 PUSH1 0x2 SWAP1 PUSH1 0x20 DUP3 MUL DUP1 CALLDATASIZE DUP4 CALLDATACOPY POP SWAP2 SWAP3 SWAP2 POP POP JUMP JUMPDEST PUSH1 0x40 MLOAD DUP1 PUSH1 0x40 ADD PUSH1 0x40 MSTORE DUP1 PUSH2 0x4BBB PUSH2 0x4C7A JUMP JUMPDEST DUP2 MSTORE PUSH1 0x20 ADD PUSH2 0x4BC8 PUSH2 0x4C41 JUMP JUMPDEST SWAP1 MSTORE SWAP1 JUMP JUMPDEST DUP3 DUP1 SLOAD DUP3 DUP3 SSTORE SWAP1 PUSH1 0x0 MSTORE PUSH1 0x20 PUSH1 0x0 KECCAK256 SWAP1 DUP2 ADD SWAP3 DUP3 ISZERO PUSH2 0x4C08 JUMPI SWAP2 PUSH1 0x20 MUL DUP3 ADD JUMPDEST DUP3 DUP2 GT ISZERO PUSH2 0x4C08 JUMPI DUP3 MLOAD DUP3 SSTORE SWAP2 PUSH1 0x20 ADD SWAP2 SWAP1 PUSH1 0x1 ADD SWAP1 PUSH2 0x4BED JUMP JUMPDEST POP PUSH2 0x46F5 SWAP3 SWAP2 POP PUSH2 0x4CE6 JUMP JUMPDEST DUP3 PUSH1 0x2 DUP2 ADD SWAP3 DUP3 ISZERO PUSH2 0x4C08 JUMPI SWAP2 PUSH1 0x20 MUL DUP3 ADD DUP3 DUP2 GT ISZERO PUSH2 0x4C08 JUMPI DUP3 MLOAD DUP3 SSTORE SWAP2 PUSH1 0x20 ADD SWAP2 SWAP1 PUSH1 0x1 ADD SWAP1 PUSH2 0x4BED JUMP JUMPDEST PUSH1 0x40 MLOAD DUP1 PUSH1 0xC0 ADD PUSH1 0x40 MSTORE DUP1 PUSH1 0x60 DUP2 MSTORE PUSH1 0x20 ADD PUSH1 0x0 DUP1 NOT AND DUP2 MSTORE PUSH1 0x20 ADD PUSH1 0x0 DUP2 MSTORE PUSH1 0x20 ADD PUSH1 0x0 DUP2 MSTORE PUSH1 0x20 ADD PUSH1 0x60 DUP2 MSTORE PUSH1 0x20 ADD PUSH2 0x4BC8 PUSH2 0x4B8A JUMP JUMPDEST PUSH1 0x40 MLOAD DUP1 PUSH1 0xC0 ADD PUSH1 0x40 MSTORE DUP1 PUSH1 0x0 PUSH1 0x1 PUSH1 0x1 PUSH1 0xA0 SHL SUB AND DUP2 MSTORE PUSH1 0x20 ADD PUSH1 0x0 DUP2 MSTORE PUSH1 0x20 ADD PUSH1 0x0 DUP2 MSTORE PUSH1 0x20 ADD PUSH1 0x0 DUP2 MSTORE PUSH1 0x20 ADD PUSH1 0x60 DUP2 MSTORE PUSH1 0x20 ADD PUSH1 0x60 DUP2 MSTORE POP SWAP1 JUMP JUMPDEST PUSH1 0x40 MLOAD DUP1 PUSH1 0x40 ADD PUSH1 0x40 MSTORE DUP1 PUSH1 0x2 SWAP1 JUMPDEST PUSH2 0x4CD0 PUSH2 0x4B8A JUMP JUMPDEST DUP2 MSTORE PUSH1 0x20 ADD SWAP1 PUSH1 0x1 SWAP1 SUB SWAP1 DUP2 PUSH2 0x4CC8 JUMPI SWAP1 POP POP SWAP1 JUMP JUMPDEST JUMPDEST DUP1 DUP3 GT ISZERO PUSH2 0x46F5 JUMPI PUSH1 0x0 DUP2 SSTORE PUSH1 0x1 ADD PUSH2 0x4CE7 JUMP JUMPDEST PUSH1 0x0 JUMPDEST DUP4 DUP2 LT ISZERO PUSH2 0x4D16 JUMPI DUP2 DUP2 ADD MLOAD DUP4 DUP3 ADD MSTORE PUSH1 0x20 ADD PUSH2 0x4CFE JUMP JUMPDEST POP POP PUSH1 0x0 SWAP2 ADD MSTORE JUMP JUMPDEST PUSH1 0x0 DUP2 MLOAD DUP1 DUP5 MSTORE PUSH2 0x4D37 DUP2 PUSH1 0x20 DUP7 ADD PUSH1 0x20 DUP7 ADD PUSH2 0x4CFB JUMP JUMPDEST PUSH1 0x1F ADD PUSH1 0x1F NOT AND SWAP3 SWAP1 SWAP3 ADD PUSH1 0x20 ADD SWAP3 SWAP2 POP POP JUMP JUMPDEST PUSH1 0x20 DUP2 MSTORE PUSH1 0x0 PUSH2 0x4D5E PUSH1 0x20 DUP4 ADD DUP5 PUSH2 0x4D1F JUMP JUMPDEST SWAP4 SWAP3 POP POP POP JUMP JUMPDEST PUSH1 0x1 PUSH1 0x1 PUSH1 0xA0 SHL SUB DUP2 AND DUP2 EQ PUSH2 0x4D7A JUMPI PUSH1 0x0 DUP1 REVERT JUMPDEST POP JUMP JUMPDEST DUP1 CALLDATALOAD PUSH2 0x1CED DUP2 PUSH2 0x4D65 JUMP JUMPDEST PUSH1 0x0 DUP1 PUSH1 0x40 DUP4 DUP6 SUB SLT ISZERO PUSH2 0x4D9B JUMPI PUSH1 0x0 DUP1 REVERT JUMPDEST DUP3 CALLDATALOAD PUSH2 0x4DA6 DUP2 PUSH2 0x4D65 JUMP JUMPDEST SWAP5 PUSH1 0x20 SWAP4 SWAP1 SWAP4 ADD CALLDATALOAD SWAP4 POP POP POP JUMP JUMPDEST PUSH1 0x0 PUSH1 0x20 DUP3 DUP5 SUB SLT ISZERO PUSH2 0x4DC6 JUMPI PUSH1 0x0 DUP1 REVERT JUMPDEST POP CALLDATALOAD SWAP2 SWAP1 POP JUMP JUMPDEST PUSH1 0x0 DUP1 PUSH1 0x0 PUSH1 0x60 DUP5 DUP7 SUB SLT ISZERO PUSH2 0x4DE2 JUMPI PUSH1 0x0 DUP1 REVERT JUMPDEST DUP4 CALLDATALOAD PUSH2 0x4DED DUP2 PUSH2 0x4D65 JUMP JUMPDEST SWAP3 POP PUSH1 0x20 DUP5 ADD CALLDATALOAD PUSH2 0x4DFD DUP2 PUSH2 0x4D65 JUMP JUMPDEST SWAP3 SWAP6 SWAP3 SWAP5 POP POP POP PUSH1 0x40 SWAP2 SWAP1 SWAP2 ADD CALLDATALOAD SWAP1 JUMP JUMPDEST PUSH1 0x0 DUP1 PUSH1 0x40 DUP4 DUP6 SUB SLT ISZERO PUSH2 0x4E21 JUMPI PUSH1 0x0 DUP1 REVERT JUMPDEST POP POP DUP1 CALLDATALOAD SWAP3 PUSH1 0x20 SWAP1 SWAP2 ADD CALLDATALOAD SWAP2 POP JUMP JUMPDEST PUSH1 0x20 DUP1 DUP3 MSTORE DUP3 MLOAD DUP3 DUP3 ADD DUP2 SWAP1 MSTORE PUSH1 0x0 SWAP2 SWAP1 DUP5 DUP3 ADD SWAP1 PUSH1 0x40 DUP6 ADD SWAP1 DUP5 JUMPDEST DUP2 DUP2 LT ISZERO PUSH2 0x4E71 JUMPI DUP4 MLOAD PUSH1 0x1 PUSH1 0x1 PUSH1 0xA0 SHL SUB AND DUP4 MSTORE SWAP3 DUP5 ADD SWAP3 SWAP2 DUP5 ADD SWAP2 PUSH1 0x1 ADD PUSH2 0x4E4C JUMP JUMPDEST POP SWAP1 SWAP7 SWAP6 POP POP POP POP POP POP JUMP JUMPDEST PUSH1 0x0 DUP1 PUSH1 0x0 PUSH1 0x60 DUP5 DUP7 SUB SLT ISZERO PUSH2 0x4E92 JUMPI PUSH1 0x0 DUP1 REVERT JUMPDEST POP POP DUP2 CALLDATALOAD SWAP4 PUSH1 0x20 DUP4 ADD CALLDATALOAD SWAP4 POP PUSH1 0x40 SWAP1 SWAP3 ADD CALLDATALOAD SWAP2 SWAP1 POP JUMP JUMPDEST PUSH1 0x1 DUP1 PUSH1 0xA0 SHL SUB DUP2 MLOAD AND DUP3 MSTORE PUSH1 0x20 DUP2 ADD MLOAD PUSH1 0x20 DUP4 ADD MSTORE PUSH1 0x40 DUP2 ADD MLOAD PUSH1 0x40 DUP4 ADD MSTORE PUSH1 0x60 DUP2 ADD MLOAD PUSH1 0x60 DUP4 ADD MSTORE PUSH1 0x0 PUSH1 0x80 DUP3 ADD MLOAD PUSH1 0xC0 PUSH1 0x80 DUP6 ADD MSTORE PUSH2 0x4EEE PUSH1 0xC0 DUP6 ADD DUP3 PUSH2 0x4D1F JUMP JUMPDEST SWAP1 POP PUSH1 0xA0 DUP4 ADD MLOAD DUP5 DUP3 SUB PUSH1 0xA0 DUP7 ADD MSTORE PUSH2 0x3DA4 DUP3 DUP3 PUSH2 0x4D1F JUMP JUMPDEST DUP1 PUSH1 0x0 JUMPDEST PUSH1 0x2 DUP2 LT ISZERO PUSH2 0x4F2A JUMPI DUP2 MLOAD DUP5 MSTORE PUSH1 0x20 SWAP4 DUP5 ADD SWAP4 SWAP1 SWAP2 ADD SWAP1 PUSH1 0x1 ADD PUSH2 0x4F0B JUMP JUMPDEST POP POP POP POP JUMP JUMPDEST PUSH1 0x0 PUSH1 0x20 DUP1 DUP4 MSTORE DUP4 MLOAD PUSH1 0x40 DUP3 DUP6 ADD MSTORE PUSH2 0x4F4C PUSH1 0x60 DUP6 ADD DUP3 PUSH2 0x4EA9 JUMP JUMPDEST SWAP1 POP DUP2 DUP6 ADD MLOAD PUSH1 0x1F NOT DUP6 DUP4 SUB ADD PUSH1 0x40 DUP7 ADD MSTORE DUP1 MLOAD PUSH1 0xE0 DUP4 MSTORE PUSH2 0x4F71 PUSH1 0xE0 DUP5 ADD DUP3 PUSH2 0x4D1F JUMP JUMPDEST SWAP1 POP DUP4 DUP3 ADD MLOAD DUP5 DUP5 ADD MSTORE PUSH1 0x40 DUP3 ADD MLOAD PUSH1 0x40 DUP5 ADD MSTORE PUSH1 0x60 DUP3 ADD MLOAD PUSH1 0x60 DUP5 ADD MSTORE PUSH1 0x80 DUP3 ADD MLOAD DUP4 DUP3 SUB PUSH1 0x80 DUP6 ADD MSTORE DUP2 DUP2 MLOAD DUP1 DUP5 MSTORE DUP7 DUP5 ADD SWAP2 POP DUP7 DUP4 ADD SWAP4 POP PUSH1 0x0 SWAP3 POP JUMPDEST DUP1 DUP4 LT ISZERO PUSH2 0x4FD1 JUMPI DUP4 MLOAD DUP3 MSTORE SWAP3 DUP7 ADD SWAP3 PUSH1 0x1 SWAP3 SWAP1 SWAP3 ADD SWAP2 SWAP1 DUP7 ADD SWAP1 PUSH2 0x4FB1 JUMP JUMPDEST POP PUSH1 0xA0 DUP5 ADD MLOAD SWAP6 POP PUSH2 0x2285 PUSH1 0xA0 DUP7 ADD DUP8 PUSH2 0x4F07 JUMP JUMPDEST DUP1 ISZERO ISZERO DUP2 EQ PUSH2 0x4D7A JUMPI PUSH1 0x0 DUP1 REVERT JUMPDEST PUSH1 0x0 DUP1 PUSH1 0x0 DUP1 PUSH1 0x80 DUP6 DUP8 SUB SLT ISZERO PUSH2 0x500A JUMPI PUSH1 0x0 DUP1 REVERT JUMPDEST DUP5 CALLDATALOAD PUSH2 0x5015 DUP2 PUSH2 0x4FE6 JUMP JUMPDEST SWAP7 PUSH1 0x20 DUP7 ADD CALLDATALOAD SWAP7 POP PUSH1 0x40 DUP7 ADD CALLDATALOAD SWAP6 PUSH1 0x60 ADD CALLDATALOAD SWAP5 POP SWAP3 POP POP POP JUMP JUMPDEST PUSH1 0x20 DUP1 DUP3 MSTORE DUP3 MLOAD DUP3 DUP3 ADD DUP2 SWAP1 MSTORE PUSH1 0x0 SWAP2 SWAP1 PUSH1 0x40 SWAP1 DUP2 DUP6 ADD SWAP1 DUP7 DUP5 ADD DUP6 JUMPDEST DUP3 DUP2 LT ISZERO PUSH2 0x507A JUMPI DUP2 MLOAD DUP1 MLOAD DUP6 MSTORE DUP7 ADD MLOAD PUSH1 0x1 PUSH1 0x1 PUSH1 0xA0 SHL SUB AND DUP7 DUP6 ADD MSTORE SWAP3 DUP5 ADD SWAP3 SWAP1 DUP6 ADD SWAP1 PUSH1 0x1 ADD PUSH2 0x504C JUMP JUMPDEST POP SWAP2 SWAP8 SWAP7 POP POP POP POP POP POP POP JUMP JUMPDEST PUSH1 0x0 PUSH1 0x20 DUP3 DUP5 SUB SLT ISZERO PUSH2 0x5099 JUMPI PUSH1 0x0 DUP1 REVERT JUMPDEST DUP2 CALLDATALOAD PUSH2 0x4D5E DUP2 PUSH2 0x4D65 JUMP JUMPDEST PUSH1 0x0 DUP1 PUSH1 0x0 DUP1 PUSH1 0x80 DUP6 DUP8 SUB SLT ISZERO PUSH2 0x50BA JUMPI PUSH1 0x0 DUP1 REVERT JUMPDEST POP POP DUP3 CALLDATALOAD SWAP5 PUSH1 0x20 DUP5 ADD CALLDATALOAD SWAP5 POP PUSH1 0x40 DUP5 ADD CALLDATALOAD SWAP4 PUSH1 0x60 ADD CALLDATALOAD SWAP3 POP SWAP1 POP JUMP JUMPDEST PUSH1 0x0 DUP1 PUSH1 0x0 DUP1 PUSH1 0x80 DUP6 DUP8 SUB SLT ISZERO PUSH2 0x50EC JUMPI PUSH1 0x0 DUP1 REVERT JUMPDEST DUP5 CALLDATALOAD SWAP4 POP PUSH1 0x20 DUP6 ADD CALLDATALOAD SWAP3 POP PUSH1 0x40 DUP6 ADD CALLDATALOAD SWAP2 POP PUSH1 0x60 DUP6 ADD CALLDATALOAD PUSH2 0x510C DUP2 PUSH2 0x4FE6 JUMP JUMPDEST SWAP4 SWAP7 SWAP3 SWAP6 POP SWAP1 SWAP4 POP POP JUMP JUMPDEST PUSH4 0x4E487B71 PUSH1 0xE0 SHL PUSH1 0x0 MSTORE PUSH1 0x41 PUSH1 0x4 MSTORE PUSH1 0x24 PUSH1 0x0 REVERT JUMPDEST PUSH1 0x40 MLOAD PUSH1 0xC0 DUP2 ADD PUSH1 0x1 PUSH1 0x1 PUSH1 0x40 SHL SUB DUP2 GT DUP3 DUP3 LT OR ISZERO PUSH2 0x514F JUMPI PUSH2 0x514F PUSH2 0x5117 JUMP JUMPDEST PUSH1 0x40 MSTORE SWAP1 JUMP JUMPDEST PUSH1 0x40 DUP1 MLOAD SWAP1 DUP2 ADD PUSH1 0x1 PUSH1 0x1 PUSH1 0x40 SHL SUB DUP2 GT DUP3 DUP3 LT OR ISZERO PUSH2 0x514F JUMPI PUSH2 0x514F PUSH2 0x5117 JUMP JUMPDEST PUSH1 0x40 MLOAD PUSH1 0x1F DUP3 ADD PUSH1 0x1F NOT AND DUP2 ADD PUSH1 0x1 PUSH1 0x1 PUSH1 0x40 SHL SUB DUP2 GT DUP3 DUP3 LT OR ISZERO PUSH2 0x519F JUMPI PUSH2 0x519F PUSH2 0x5117 JUMP JUMPDEST PUSH1 0x40 MSTORE SWAP2 SWAP1 POP JUMP JUMPDEST PUSH1 0x0 PUSH1 0x1 PUSH1 0x1 PUSH1 0x40 SHL SUB DUP3 GT ISZERO PUSH2 0x51C0 JUMPI PUSH2 0x51C0 PUSH2 0x5117 JUMP JUMPDEST POP PUSH1 0x5 SHL PUSH1 0x20 ADD SWAP1 JUMP JUMPDEST PUSH1 0x0 DUP3 PUSH1 0x1F DUP4 ADD SLT PUSH2 0x51DB JUMPI PUSH1 0x0 DUP1 REVERT JUMPDEST DUP2 CALLDATALOAD PUSH1 0x20 PUSH2 0x51F0 PUSH2 0x51EB DUP4 PUSH2 0x51A7 JUMP JUMPDEST PUSH2 0x5177 JUMP JUMPDEST DUP3 DUP2 MSTORE PUSH1 0x5 SWAP3 SWAP1 SWAP3 SHL DUP5 ADD DUP2 ADD SWAP2 DUP2 DUP2 ADD SWAP1 DUP7 DUP5 GT ISZERO PUSH2 0x520F JUMPI PUSH1 0x0 DUP1 REVERT JUMPDEST DUP3 DUP7 ADD JUMPDEST DUP5 DUP2 LT ISZERO PUSH2 0x5233 JUMPI DUP1 CALLDATALOAD PUSH2 0x5226 DUP2 PUSH2 0x4D65 JUMP JUMPDEST DUP4 MSTORE SWAP2 DUP4 ADD SWAP2 DUP4 ADD PUSH2 0x5213 JUMP JUMPDEST POP SWAP7 SWAP6 POP POP POP POP POP POP JUMP JUMPDEST PUSH1 0x0 DUP1 PUSH1 0x0 DUP1 PUSH1 0x0 DUP1 PUSH1 0xC0 DUP8 DUP10 SUB SLT ISZERO PUSH2 0x5257 JUMPI PUSH1 0x0 DUP1 REVERT JUMPDEST DUP7 CALLDATALOAD PUSH1 0x1 PUSH1 0x1 PUSH1 0x40 SHL SUB DUP1 DUP3 GT ISZERO PUSH2 0x526E JUMPI PUSH1 0x0 DUP1 REVERT JUMPDEST DUP2 DUP10 ADD SWAP2 POP DUP10 PUSH1 0x1F DUP4 ADD SLT PUSH2 0x5282 JUMPI PUSH1 0x0 DUP1 REVERT JUMPDEST DUP2 CALLDATALOAD PUSH1 0x20 PUSH2 0x5292 PUSH2 0x51EB DUP4 PUSH2 0x51A7 JUMP JUMPDEST DUP3 DUP2 MSTORE PUSH1 0x5 SWAP3 SWAP1 SWAP3 SHL DUP5 ADD DUP2 ADD SWAP2 DUP2 DUP2 ADD SWAP1 DUP14 DUP5 GT ISZERO PUSH2 0x52B1 JUMPI PUSH1 0x0 DUP1 REVERT JUMPDEST SWAP5 DUP3 ADD SWAP5 JUMPDEST DUP4 DUP7 LT ISZERO PUSH2 0x52CF JUMPI DUP6 CALLDATALOAD DUP3 MSTORE SWAP5 DUP3 ADD SWAP5 SWAP1 DUP3 ADD SWAP1 PUSH2 0x52B6 JUMP JUMPDEST SWAP11 POP POP DUP11 ADD CALLDATALOAD SWAP3 POP POP DUP1 DUP3 GT ISZERO PUSH2 0x52E5 JUMPI PUSH1 0x0 DUP1 REVERT JUMPDEST POP PUSH2 0x52F2 DUP10 DUP3 DUP11 ADD PUSH2 0x51CA JUMP JUMPDEST SWAP6 POP POP PUSH1 0x40 DUP8 ADD CALLDATALOAD SWAP4 POP PUSH1 0x60 DUP8 ADD CALLDATALOAD SWAP3 POP PUSH2 0x530F PUSH1 0x80 DUP9 ADD PUSH2 0x4D7D JUMP JUMPDEST SWAP2 POP PUSH2 0x531D PUSH1 0xA0 DUP9 ADD PUSH2 0x4D7D JUMP JUMPDEST SWAP1 POP SWAP3 SWAP6 POP SWAP3 SWAP6 POP SWAP3 SWAP6 JUMP JUMPDEST PUSH1 0x0 PUSH1 0x1 PUSH1 0x1 PUSH1 0x40 SHL SUB DUP3 GT ISZERO PUSH2 0x5342 JUMPI PUSH2 0x5342 PUSH2 0x5117 JUMP JUMPDEST POP PUSH1 0x1F ADD PUSH1 0x1F NOT AND PUSH1 0x20 ADD SWAP1 JUMP JUMPDEST PUSH1 0x0 DUP3 PUSH1 0x1F DUP4 ADD SLT PUSH2 0x5361 JUMPI PUSH1 0x0 DUP1 REVERT JUMPDEST DUP2 CALLDATALOAD PUSH2 0x536F PUSH2 0x51EB DUP3 PUSH2 0x5329 JUMP JUMPDEST DUP2 DUP2 MSTORE DUP5 PUSH1 0x20 DUP4 DUP7 ADD ADD GT ISZERO PUSH2 0x5384 JUMPI PUSH1 0x0 DUP1 REVERT JUMPDEST DUP2 PUSH1 0x20 DUP6 ADD PUSH1 0x20 DUP4 ADD CALLDATACOPY PUSH1 0x0 SWAP2 DUP2 ADD PUSH1 0x20 ADD SWAP2 SWAP1 SWAP2 MSTORE SWAP4 SWAP3 POP POP POP JUMP JUMPDEST PUSH1 0x0 DUP3 PUSH1 0x1F DUP4 ADD SLT PUSH2 0x53B2 JUMPI PUSH1 0x0 DUP1 REVERT JUMPDEST DUP2 CALLDATALOAD PUSH1 0x20 PUSH2 0x53C2 PUSH2 0x51EB DUP4 PUSH2 0x51A7 JUMP JUMPDEST DUP3 DUP2 MSTORE PUSH1 0x5 SWAP3 SWAP1 SWAP3 SHL DUP5 ADD DUP2 ADD SWAP2 DUP2 DUP2 ADD SWAP1 DUP7 DUP5 GT ISZERO PUSH2 0x53E1 JUMPI PUSH1 0x0 DUP1 REVERT JUMPDEST DUP3 DUP7 ADD JUMPDEST DUP5 DUP2 LT ISZERO PUSH2 0x5233 JUMPI DUP1 CALLDATALOAD DUP4 MSTORE SWAP2 DUP4 ADD SWAP2 DUP4 ADD PUSH2 0x53E5 JUMP JUMPDEST PUSH1 0x0 DUP3 PUSH1 0x1F DUP4 ADD SLT PUSH2 0x540D JUMPI PUSH1 0x0 DUP1 REVERT JUMPDEST PUSH2 0x5415 PUSH2 0x5155 JUMP JUMPDEST DUP1 PUSH1 0x40 DUP5 ADD DUP6 DUP2 GT ISZERO PUSH2 0x5427 JUMPI PUSH1 0x0 DUP1 REVERT JUMPDEST DUP5 JUMPDEST DUP2 DUP2 LT ISZERO PUSH2 0x5441 JUMPI DUP1 CALLDATALOAD DUP5 MSTORE PUSH1 0x20 SWAP4 DUP5 ADD SWAP4 ADD PUSH2 0x5429 JUMP JUMPDEST POP SWAP1 SWAP6 SWAP5 POP POP POP POP POP JUMP JUMPDEST PUSH1 0x0 PUSH1 0xE0 DUP3 DUP5 SUB SLT ISZERO PUSH2 0x545E JUMPI PUSH1 0x0 DUP1 REVERT JUMPDEST PUSH2 0x5466 PUSH2 0x512D JUMP JUMPDEST SWAP1 POP DUP2 CALLDATALOAD PUSH1 0x1 PUSH1 0x1 PUSH1 0x40 SHL SUB DUP1 DUP3 GT ISZERO PUSH2 0x547F JUMPI PUSH1 0x0 DUP1 REVERT JUMPDEST PUSH2 0x548B DUP6 DUP4 DUP7 ADD PUSH2 0x5350 JUMP JUMPDEST DUP4 MSTORE PUSH1 0x20 DUP5 ADD CALLDATALOAD PUSH1 0x20 DUP5 ADD MSTORE PUSH1 0x40 DUP5 ADD CALLDATALOAD PUSH1 0x40 DUP5 ADD MSTORE PUSH1 0x60 DUP5 ADD CALLDATALOAD PUSH1 0x60 DUP5 ADD MSTORE PUSH1 0x80 DUP5 ADD CALLDATALOAD SWAP2 POP DUP1 DUP3 GT ISZERO PUSH2 0x54BF JUMPI PUSH1 0x0 DUP1 REVERT JUMPDEST POP PUSH2 0x54CC DUP5 DUP3 DUP6 ADD PUSH2 0x53A1 JUMP JUMPDEST PUSH1 0x80 DUP4 ADD MSTORE POP PUSH2 0x54DF DUP4 PUSH1 0xA0 DUP5 ADD PUSH2 0x53FC JUMP JUMPDEST PUSH1 0xA0 DUP3 ADD MSTORE SWAP3 SWAP2 POP POP JUMP JUMPDEST PUSH1 0x0 PUSH1 0xC0 DUP3 DUP5 SUB SLT ISZERO PUSH2 0x54FC JUMPI PUSH1 0x0 DUP1 REVERT JUMPDEST PUSH2 0x5504 PUSH2 0x512D JUMP JUMPDEST SWAP1 POP PUSH2 0x550F DUP3 PUSH2 0x4D7D JUMP JUMPDEST DUP2 MSTORE PUSH1 0x20 DUP3 ADD CALLDATALOAD PUSH1 0x20 DUP3 ADD MSTORE PUSH1 0x40 DUP3 ADD CALLDATALOAD PUSH1 0x40 DUP3 ADD MSTORE PUSH1 0x60 DUP3 ADD CALLDATALOAD PUSH1 0x60 DUP3 ADD MSTORE PUSH1 0x80 DUP3 ADD CALLDATALOAD PUSH1 0x1 PUSH1 0x1 PUSH1 0x40 SHL SUB DUP1 DUP3 GT ISZERO PUSH2 0x5549 JUMPI PUSH1 0x0 DUP1 REVERT JUMPDEST PUSH2 0x5555 DUP6 DUP4 DUP7 ADD PUSH2 0x5350 JUMP JUMPDEST PUSH1 0x80 DUP5 ADD MSTORE PUSH1 0xA0 DUP5 ADD CALLDATALOAD SWAP2 POP DUP1 DUP3 GT ISZERO PUSH2 0x556E JUMPI PUSH1 0x0 DUP1 REVERT JUMPDEST POP PUSH2 0x557B DUP5 DUP3 DUP6 ADD PUSH2 0x5350 JUMP JUMPDEST PUSH1 0xA0 DUP4 ADD MSTORE POP SWAP3 SWAP2 POP POP JUMP JUMPDEST PUSH1 0x0 DUP1 PUSH1 0x40 DUP4 DUP6 SUB SLT ISZERO PUSH2 0x559A JUMPI PUSH1 0x0 DUP1 REVERT JUMPDEST DUP3 CALLDATALOAD PUSH1 0x1 PUSH1 0x1 PUSH1 0x40 SHL SUB DUP1 DUP3 GT ISZERO PUSH2 0x55B1 JUMPI PUSH1 0x0 DUP1 REVERT JUMPDEST PUSH2 0x55BD DUP7 DUP4 DUP8 ADD PUSH2 0x544C JUMP JUMPDEST SWAP4 POP PUSH1 0x20 DUP6 ADD CALLDATALOAD SWAP2 POP DUP1 DUP3 GT ISZERO PUSH2 0x55D3 JUMPI PUSH1 0x0 DUP1 REVERT JUMPDEST POP PUSH2 0x55E0 DUP6 DUP3 DUP7 ADD PUSH2 0x54EA JUMP JUMPDEST SWAP2 POP POP SWAP3 POP SWAP3 SWAP1 POP JUMP JUMPDEST PUSH1 0x0 DUP1 PUSH1 0x0 DUP1 PUSH1 0x80 DUP6 DUP8 SUB SLT ISZERO PUSH2 0x5600 JUMPI PUSH1 0x0 DUP1 REVERT JUMPDEST DUP5 CALLDATALOAD PUSH1 0x1 PUSH1 0x1 PUSH1 0x40 SHL SUB DUP1 DUP3 GT ISZERO PUSH2 0x5617 JUMPI PUSH1 0x0 DUP1 REVERT JUMPDEST PUSH2 0x5623 DUP9 DUP4 DUP10 ADD PUSH2 0x544C JUMP JUMPDEST SWAP6 POP PUSH1 0x20 DUP8 ADD CALLDATALOAD SWAP2 POP DUP1 DUP3 GT ISZERO PUSH2 0x5639 JUMPI PUSH1 0x0 DUP1 REVERT JUMPDEST POP PUSH2 0x5646 DUP8 DUP3 DUP9 ADD PUSH2 0x54EA JUMP JUMPDEST SWAP4 POP POP PUSH1 0x40 DUP6 ADD CALLDATALOAD PUSH2 0x5657 DUP2 PUSH2 0x4FE6 JUMP JUMPDEST SWAP4 SWAP7 SWAP3 SWAP6 POP SWAP3 SWAP4 PUSH1 0x60 ADD CALLDATALOAD SWAP3 POP POP JUMP JUMPDEST PUSH1 0x0 DUP1 PUSH1 0x40 DUP4 DUP6 SUB SLT ISZERO PUSH2 0x567A JUMPI PUSH1 0x0 DUP1 REVERT JUMPDEST DUP3 CALLDATALOAD SWAP2 POP PUSH1 0x20 DUP4 ADD CALLDATALOAD PUSH1 0x1 PUSH1 0x1 PUSH1 0x40 SHL SUB DUP2 GT ISZERO PUSH2 0x5697 JUMPI PUSH1 0x0 DUP1 REVERT JUMPDEST PUSH2 0x55E0 DUP6 DUP3 DUP7 ADD PUSH2 0x5350 JUMP JUMPDEST PUSH1 0x0 DUP1 PUSH1 0x40 DUP4 DUP6 SUB SLT ISZERO PUSH2 0x56B6 JUMPI PUSH1 0x0 DUP1 REVERT JUMPDEST DUP3 CALLDATALOAD PUSH2 0x56C1 DUP2 PUSH2 0x4D65 JUMP JUMPDEST SWAP2 POP PUSH1 0x20 DUP4 ADD CALLDATALOAD PUSH2 0x56D1 DUP2 PUSH2 0x4D65 JUMP JUMPDEST DUP1 SWAP2 POP POP SWAP3 POP SWAP3 SWAP1 POP JUMP JUMPDEST PUSH1 0x0 DUP1 PUSH1 0x0 DUP1 PUSH1 0x0 PUSH1 0xA0 DUP7 DUP9 SUB SLT ISZERO PUSH2 0x56F4 JUMPI PUSH1 0x0 DUP1 REVERT JUMPDEST DUP6 CALLDATALOAD SWAP5 POP PUSH1 0x20 DUP7 ADD CALLDATALOAD SWAP4 POP PUSH1 0x40 DUP7 ADD CALLDATALOAD SWAP3 POP PUSH1 0x60 DUP7 ADD CALLDATALOAD SWAP2 POP PUSH1 0x80 DUP7 ADD CALLDATALOAD PUSH2 0x571B DUP2 PUSH2 0x4FE6 JUMP JUMPDEST DUP1 SWAP2 POP POP SWAP3 SWAP6 POP SWAP3 SWAP6 SWAP1 SWAP4 POP JUMP JUMPDEST PUSH1 0x1 DUP2 DUP2 SHR SWAP1 DUP3 AND DUP1 PUSH2 0x573D JUMPI PUSH1 0x7F DUP3 AND SWAP2 POP JUMPDEST PUSH1 0x20 DUP3 LT DUP2 SUB PUSH2 0x575D JUMPI PUSH4 0x4E487B71 PUSH1 0xE0 SHL PUSH1 0x0 MSTORE PUSH1 0x22 PUSH1 0x4 MSTORE PUSH1 0x24 PUSH1 0x0 REVERT JUMPDEST POP SWAP2 SWAP1 POP JUMP JUMPDEST PUSH4 0x4E487B71 PUSH1 0xE0 SHL PUSH1 0x0 MSTORE PUSH1 0x11 PUSH1 0x4 MSTORE PUSH1 0x24 PUSH1 0x0 REVERT JUMPDEST DUP1 DUP3 ADD DUP1 DUP3 GT ISZERO PUSH2 0xC82 JUMPI PUSH2 0xC82 PUSH2 0x5763 JUMP JUMPDEST DUP2 DUP2 SUB DUP2 DUP2 GT ISZERO PUSH2 0xC82 JUMPI PUSH2 0xC82 PUSH2 0x5763 JUMP JUMPDEST PUSH4 0x4E487B71 PUSH1 0xE0 SHL PUSH1 0x0 MSTORE PUSH1 0x32 PUSH1 0x4 MSTORE PUSH1 0x24 PUSH1 0x0 REVERT JUMPDEST DUP8 DUP2 MSTORE DUP7 PUSH1 0x20 DUP3 ADD MSTORE DUP6 PUSH1 0x40 DUP3 ADD MSTORE DUP5 PUSH1 0x60 DUP3 ADD MSTORE PUSH1 0xE0 PUSH1 0x80 DUP3 ADD MSTORE PUSH1 0x0 PUSH2 0x57E0 PUSH1 0xE0 DUP4 ADD DUP7 PUSH2 0x4D1F JUMP JUMPDEST DUP3 DUP2 SUB PUSH1 0xA0 DUP5 ADD MSTORE PUSH2 0x57F2 DUP2 DUP7 PUSH2 0x4D1F JUMP JUMPDEST SWAP1 POP DUP3 DUP2 SUB PUSH1 0xC0 DUP5 ADD MSTORE PUSH2 0x5806 DUP2 DUP6 PUSH2 0x4D1F JUMP JUMPDEST SWAP11 SWAP10 POP POP POP POP POP POP POP POP POP POP JUMP JUMPDEST PUSH1 0x40 DUP2 ADD PUSH2 0xC82 DUP3 DUP5 PUSH2 0x4F07 JUMP JUMPDEST PUSH1 0x0 PUSH1 0x20 DUP3 DUP5 SUB SLT ISZERO PUSH2 0x5834 JUMPI PUSH1 0x0 DUP1 REVERT JUMPDEST POP MLOAD SWAP2 SWAP1 POP JUMP JUMPDEST PUSH1 0x1 PUSH1 0x1 PUSH1 0xA0 SHL SUB SWAP3 SWAP1 SWAP3 AND DUP3 MSTORE PUSH1 0x20 DUP3 ADD MSTORE PUSH1 0x40 ADD SWAP1 JUMP JUMPDEST PUSH1 0x0 PUSH1 0x20 DUP3 DUP5 SUB SLT ISZERO PUSH2 0x5866 JUMPI PUSH1 0x0 DUP1 REVERT JUMPDEST DUP2 MLOAD PUSH2 0x4D5E DUP2 PUSH2 0x4FE6 JUMP JUMPDEST PUSH1 0x1 PUSH1 0x1 PUSH1 0xA0 SHL SUB SWAP4 DUP5 AND DUP2 MSTORE SWAP2 SWAP1 SWAP3 AND PUSH1 0x20 DUP3 ADD MSTORE PUSH1 0x40 DUP2 ADD SWAP2 SWAP1 SWAP2 MSTORE PUSH1 0x60 ADD SWAP1 JUMP JUMPDEST PUSH1 0x0 PUSH4 0xFFFFFFFF DUP3 AND DUP1 PUSH2 0x58AB JUMPI PUSH2 0x58AB PUSH2 0x5763 JUMP JUMPDEST PUSH1 0x0 NOT ADD SWAP3 SWAP2 POP POP JUMP JUMPDEST PUSH4 0x4E487B71 PUSH1 0xE0 SHL PUSH1 0x0 MSTORE PUSH1 0x12 PUSH1 0x4 MSTORE PUSH1 0x24 PUSH1 0x0 REVERT JUMPDEST PUSH1 0x0 DUP3 PUSH2 0x58DA JUMPI PUSH2 0x58DA PUSH2 0x58B5 JUMP JUMPDEST POP DIV SWAP1 JUMP JUMPDEST PUSH1 0x0 PUSH1 0x1 DUP3 ADD PUSH2 0x58F1 JUMPI PUSH2 0x58F1 PUSH2 0x5763 JUMP JUMPDEST POP PUSH1 0x1 ADD SWAP1 JUMP JUMPDEST DUP2 DUP2 SUB PUSH1 0x0 DUP4 SLT DUP1 ISZERO DUP4 DUP4 SGT AND DUP4 DUP4 SLT DUP3 AND OR ISZERO PUSH2 0x5918 JUMPI PUSH2 0x5918 PUSH2 0x5763 JUMP JUMPDEST POP SWAP3 SWAP2 POP POP JUMP JUMPDEST PUSH1 0x0 PUSH1 0x1 PUSH1 0xFF SHL DUP3 ADD PUSH2 0x5934 JUMPI PUSH2 0x5934 PUSH2 0x5763 JUMP JUMPDEST POP PUSH1 0x0 SUB SWAP1 JUMP JUMPDEST PUSH1 0x20 DUP2 MSTORE PUSH1 0x0 PUSH2 0x4D5E PUSH1 0x20 DUP4 ADD DUP5 PUSH2 0x4EA9 JUMP JUMPDEST PUSH1 0x0 DUP3 PUSH2 0x595D JUMPI PUSH2 0x595D PUSH2 0x58B5 JUMP JUMPDEST POP MOD SWAP1 JUMP JUMPDEST PUSH1 0x1F DUP3 GT ISZERO PUSH2 0x59AC JUMPI PUSH1 0x0 DUP2 DUP2 MSTORE PUSH1 0x20 DUP2 KECCAK256 PUSH1 0x1F DUP6 ADD PUSH1 0x5 SHR DUP2 ADD PUSH1 0x20 DUP7 LT ISZERO PUSH2 0x5989 JUMPI POP DUP1 JUMPDEST PUSH1 0x1F DUP6 ADD PUSH1 0x5 SHR DUP3 ADD SWAP2 POP JUMPDEST DUP2 DUP2 LT ISZERO PUSH2 0x59A8 JUMPI DUP3 DUP2 SSTORE PUSH1 0x1 ADD PUSH2 0x5995 JUMP JUMPDEST POP POP POP JUMPDEST POP POP POP JUMP JUMPDEST DUP2 MLOAD PUSH1 0x1 PUSH1 0x1 PUSH1 0x40 SHL SUB DUP2 GT ISZERO PUSH2 0x59CA JUMPI PUSH2 0x59CA PUSH2 0x5117 JUMP JUMPDEST PUSH2 0x59DE DUP2 PUSH2 0x59D8 DUP5 SLOAD PUSH2 0x5729 JUMP JUMPDEST DUP5 PUSH2 0x5962 JUMP JUMPDEST PUSH1 0x20 DUP1 PUSH1 0x1F DUP4 GT PUSH1 0x1 DUP2 EQ PUSH2 0x5A13 JUMPI PUSH1 0x0 DUP5 ISZERO PUSH2 0x59FB JUMPI POP DUP6 DUP4 ADD MLOAD JUMPDEST PUSH1 0x0 NOT PUSH1 0x3 DUP7 SWAP1 SHL SHR NOT AND PUSH1 0x1 DUP6 SWAP1 SHL OR DUP6 SSTORE PUSH2 0x59A8 JUMP JUMPDEST PUSH1 0x0 DUP6 DUP2 MSTORE PUSH1 0x20 DUP2 KECCAK256 PUSH1 0x1F NOT DUP7 AND SWAP2 JUMPDEST DUP3 DUP2 LT ISZERO PUSH2 0x5A42 JUMPI DUP9 DUP7 ADD MLOAD DUP3 SSTORE SWAP5 DUP5 ADD SWAP5 PUSH1 0x1 SWAP1 SWAP2 ADD SWAP1 DUP5 ADD PUSH2 0x5A23 JUMP JUMPDEST POP DUP6 DUP3 LT ISZERO PUSH2 0x5A60 JUMPI DUP8 DUP6 ADD MLOAD PUSH1 0x0 NOT PUSH1 0x3 DUP9 SWAP1 SHL PUSH1 0xF8 AND SHR NOT AND DUP2 SSTORE JUMPDEST POP POP POP POP POP PUSH1 0x1 SWAP1 DUP2 SHL ADD SWAP1 SSTORE POP JUMP JUMPDEST PUSH1 0x60 DUP2 MSTORE PUSH1 0x0 PUSH2 0x5A83 PUSH1 0x60 DUP4 ADD DUP7 PUSH2 0x4D1F JUMP JUMPDEST PUSH1 0x20 DUP4 ADD SWAP5 SWAP1 SWAP5 MSTORE POP PUSH1 0x40 ADD MSTORE SWAP2 SWAP1 POP JUMP JUMPDEST PUSH1 0x0 DUP3 PUSH1 0x1F DUP4 ADD SLT PUSH2 0x5AA6 JUMPI PUSH1 0x0 DUP1 REVERT JUMPDEST DUP2 MLOAD PUSH2 0x5AB4 PUSH2 0x51EB DUP3 PUSH2 0x5329 JUMP JUMPDEST DUP2 DUP2 MSTORE DUP5 PUSH1 0x20 DUP4 DUP7 ADD ADD GT ISZERO PUSH2 0x5AC9 JUMPI PUSH1 0x0 DUP1 REVERT JUMPDEST PUSH2 0x12A6 DUP3 PUSH1 0x20 DUP4 ADD PUSH1 0x20 DUP8 ADD PUSH2 0x4CFB JUMP JUMPDEST PUSH1 0x0 DUP1 PUSH1 0x40 DUP4 DUP6 SUB SLT ISZERO PUSH2 0x5AED JUMPI PUSH1 0x0 DUP1 REVERT JUMPDEST DUP3 MLOAD PUSH1 0x1 PUSH1 0x1 PUSH1 0x40 SHL SUB DUP2 GT ISZERO PUSH2 0x5B03 JUMPI PUSH1 0x0 DUP1 REVERT JUMPDEST PUSH2 0x5B0F DUP6 DUP3 DUP7 ADD PUSH2 0x5A95 JUMP JUMPDEST SWAP3 POP POP PUSH1 0x20 DUP4 ADD MLOAD PUSH2 0x56D1 DUP2 PUSH2 0x4D65 JUMP JUMPDEST PUSH1 0x0 DUP1 PUSH1 0x0 DUP1 PUSH1 0x0 DUP1 PUSH1 0x0 PUSH1 0xE0 DUP9 DUP11 SUB SLT ISZERO PUSH2 0x5B3B JUMPI PUSH1 0x0 DUP1 REVERT JUMPDEST DUP8 MLOAD SWAP7 POP PUSH1 0x20 DUP9 ADD MLOAD SWAP6 POP PUSH1 0x40 DUP9 ADD MLOAD SWAP5 POP PUSH1 0x60 DUP9 ADD MLOAD SWAP4 POP PUSH1 0x80 DUP9 ADD MLOAD PUSH1 0x1 PUSH1 0x1 PUSH1 0x40 SHL SUB DUP1 DUP3 GT ISZERO PUSH2 0x5B6E JUMPI PUSH1 0x0 DUP1 REVERT JUMPDEST PUSH2 0x5B7A DUP12 DUP4 DUP13 ADD PUSH2 0x5A95 JUMP JUMPDEST SWAP5 POP PUSH1 0xA0 DUP11 ADD MLOAD SWAP2 POP DUP1 DUP3 GT ISZERO PUSH2 0x5B90 JUMPI PUSH1 0x0 DUP1 REVERT JUMPDEST PUSH2 0x5B9C DUP12 DUP4 DUP13 ADD PUSH2 0x5A95 JUMP JUMPDEST SWAP4 POP PUSH1 0xC0 DUP11 ADD MLOAD SWAP2 POP DUP1 DUP3 GT ISZERO PUSH2 0x5BB2 JUMPI PUSH1 0x0 DUP1 REVERT JUMPDEST POP PUSH2 0x5BBF DUP11 DUP3 DUP12 ADD PUSH2 0x5A95 JUMP JUMPDEST SWAP2 POP POP SWAP3 SWAP6 SWAP9 SWAP2 SWAP5 SWAP8 POP SWAP3 SWAP6 POP JUMP JUMPDEST DUP3 DUP2 MSTORE PUSH1 0x40 PUSH1 0x20 DUP3 ADD MSTORE PUSH1 0x0 PUSH2 0x12A6 PUSH1 0x40 DUP4 ADD DUP5 PUSH2 0x4D1F JUMP JUMPDEST DUP1 DUP3 MUL DUP2 ISZERO DUP3 DUP3 DIV DUP5 EQ OR PUSH2 0xC82 JUMPI PUSH2 0xC82 PUSH2 0x5763 JUMP JUMPDEST PUSH1 0x0 DUP3 PUSH1 0x1F DUP4 ADD SLT PUSH2 0x5C0F JUMPI PUSH1 0x0 DUP1 REVERT JUMPDEST PUSH2 0x5C17 PUSH2 0x5155 JUMP JUMPDEST DUP1 PUSH1 0x40 DUP5 ADD DUP6 DUP2 GT ISZERO PUSH2 0x5C29 JUMPI PUSH1 0x0 DUP1 REVERT JUMPDEST DUP5 JUMPDEST DUP2 DUP2 LT ISZERO PUSH2 0x5441 JUMPI DUP1 MLOAD DUP5 MSTORE PUSH1 0x20 SWAP4 DUP5 ADD SWAP4 ADD PUSH2 0x5C2B JUMP JUMPDEST PUSH1 0x0 DUP1 PUSH1 0x0 PUSH2 0x100 DUP5 DUP7 SUB SLT ISZERO PUSH2 0x5C59 JUMPI PUSH1 0x0 DUP1 REVERT JUMPDEST PUSH2 0x5C63 DUP6 DUP6 PUSH2 0x5BFE JUMP JUMPDEST SWAP3 POP PUSH1 0x40 DUP6 PUSH1 0x5F DUP7 ADD SLT PUSH2 0x5C76 JUMPI PUSH1 0x0 DUP1 REVERT JUMPDEST PUSH2 0x5C7E PUSH2 0x5155 JUMP JUMPDEST DUP1 PUSH1 0xC0 DUP8 ADD DUP9 DUP2 GT ISZERO PUSH2 0x5C90 JUMPI PUSH1 0x0 DUP1 REVERT JUMPDEST DUP4 DUP9 ADD JUMPDEST DUP2 DUP2 LT ISZERO PUSH2 0x5CB5 JUMPI PUSH2 0x5CA6 DUP11 DUP3 PUSH2 0x5BFE JUMP JUMPDEST DUP5 MSTORE PUSH1 0x20 SWAP1 SWAP4 ADD SWAP3 DUP5 ADD PUSH2 0x5C94 JUMP JUMPDEST POP DUP2 SWAP6 POP PUSH2 0x5CC3 DUP10 DUP3 PUSH2 0x5BFE JUMP JUMPDEST SWAP5 POP POP POP POP POP SWAP3 POP SWAP3 POP SWAP3 JUMP JUMPDEST DUP1 PUSH1 0x0 JUMPDEST PUSH1 0x2 DUP2 LT ISZERO PUSH2 0x4F2A JUMPI PUSH2 0x5CE8 DUP5 DUP4 MLOAD PUSH2 0x4F07 JUMP JUMPDEST PUSH1 0x40 SWAP4 SWAP1 SWAP4 ADD SWAP3 PUSH1 0x20 SWAP2 SWAP1 SWAP2 ADD SWAP1 PUSH1 0x1 ADD PUSH2 0x5CD4 JUMP JUMPDEST PUSH2 0x200 DUP2 ADD PUSH2 0x5D0D DUP3 DUP8 PUSH2 0x4F07 JUMP JUMPDEST PUSH2 0x5D1A PUSH1 0x40 DUP4 ADD DUP7 PUSH2 0x5CD0 JUMP JUMPDEST PUSH2 0x5D27 PUSH1 0xC0 DUP4 ADD DUP6 PUSH2 0x4F07 JUMP JUMPDEST PUSH2 0x100 DUP3 ADD DUP4 PUSH1 0x0 JUMPDEST PUSH1 0x8 DUP2 LT ISZERO PUSH2 0x5D4F JUMPI DUP2 MLOAD DUP4 MSTORE PUSH1 0x20 SWAP3 DUP4 ADD SWAP3 SWAP1 SWAP2 ADD SWAP1 PUSH1 0x1 ADD PUSH2 0x5D30 JUMP JUMPDEST POP POP POP SWAP6 SWAP5 POP POP POP POP POP JUMP JUMPDEST PUSH2 0x3C0 DUP2 ADD PUSH2 0x5D6A DUP3 DUP8 PUSH2 0x4F07 JUMP JUMPDEST PUSH2 0x5D77 PUSH1 0x40 DUP4 ADD DUP7 PUSH2 0x5CD0 JUMP JUMPDEST PUSH2 0x5D84 PUSH1 0xC0 DUP4 ADD DUP6 PUSH2 0x4F07 JUMP JUMPDEST PUSH2 0x100 DUP3 ADD DUP4 PUSH1 0x0 JUMPDEST PUSH1 0x16 DUP2 LT ISZERO PUSH2 0x5D4F JUMPI DUP2 MLOAD DUP4 MSTORE PUSH1 0x20 SWAP3 DUP4 ADD SWAP3 SWAP1 SWAP2 ADD SWAP1 PUSH1 0x1 ADD PUSH2 0x5D8D JUMP JUMPDEST PUSH4 0xFFFFFFFF DUP3 DUP2 AND DUP3 DUP3 AND SUB SWAP1 DUP1 DUP3 GT ISZERO PUSH2 0x5918 JUMPI PUSH2 0x5918 PUSH2 0x5763 JUMP JUMPDEST DUP5 DUP2 MSTORE PUSH4 0xFFFFFFFF DUP5 AND PUSH1 0x20 DUP3 ADD MSTORE PUSH1 0x80 PUSH1 0x40 DUP3 ADD MSTORE PUSH1 0x0 PUSH2 0x5DEE PUSH1 0x80 DUP4 ADD DUP6 PUSH2 0x4D1F JUMP JUMPDEST SWAP1 POP DUP3 ISZERO ISZERO PUSH1 0x60 DUP4 ADD MSTORE SWAP6 SWAP5 POP POP POP POP POP JUMP JUMPDEST PUSH1 0x1 DUP2 DUP2 JUMPDEST DUP1 DUP6 GT ISZERO PUSH2 0x5E3E JUMPI DUP2 PUSH4 0xFFFFFFFF DIV DUP3 GT ISZERO PUSH2 0x5E24 JUMPI PUSH2 0x5E24 PUSH2 0x5763 JUMP JUMPDEST DUP1 DUP6 AND ISZERO PUSH2 0x5E31 JUMPI SWAP2 DUP2 MUL SWAP2 JUMPDEST SWAP4 DUP5 SHR SWAP4 SWAP1 DUP1 MUL SWAP1 PUSH2 0x5E06 JUMP JUMPDEST POP SWAP3 POP SWAP3 SWAP1 POP JUMP JUMPDEST PUSH1 0x0 DUP3 PUSH2 0x5E55 JUMPI POP PUSH1 0x1 PUSH2 0xC82 JUMP JUMPDEST DUP2 PUSH2 0x5E62 JUMPI POP PUSH1 0x0 PUSH2 0xC82 JUMP JUMPDEST DUP2 PUSH1 0x1 DUP2 EQ PUSH2 0x5E78 JUMPI PUSH1 0x2 DUP2 EQ PUSH2 0x5E82 JUMPI PUSH2 0x5EB3 JUMP JUMPDEST PUSH1 0x1 SWAP2 POP POP PUSH2 0xC82 JUMP JUMPDEST PUSH1 0xFF DUP5 GT ISZERO PUSH2 0x5E93 JUMPI PUSH2 0x5E93 PUSH2 0x5763 JUMP JUMPDEST PUSH1 0x1 DUP5 SHL SWAP2 POP PUSH4 0xFFFFFFFF DUP3 GT ISZERO PUSH2 0x5EAD JUMPI PUSH2 0x5EAD PUSH2 0x5763 JUMP JUMPDEST POP PUSH2 0xC82 JUMP JUMPDEST POP PUSH1 0x20 DUP4 LT PUSH2 0x133 DUP4 LT AND PUSH1 0x4E DUP5 LT PUSH1 0xB DUP5 LT AND OR ISZERO PUSH2 0x5EE5 JUMPI POP DUP2 DUP2 EXP PUSH4 0xFFFFFFFF DUP2 GT ISZERO PUSH2 0x46F0 JUMPI PUSH2 0x46F0 PUSH2 0x5763 JUMP JUMPDEST PUSH2 0x5EEF DUP4 DUP4 PUSH2 0x5E01 JUMP JUMPDEST DUP1 PUSH4 0xFFFFFFFF DIV DUP3 GT ISZERO PUSH2 0x5F05 JUMPI PUSH2 0x5F05 PUSH2 0x5763 JUMP JUMPDEST MUL SWAP4 SWAP3 POP POP POP JUMP JUMPDEST PUSH1 0x0 PUSH4 0xFFFFFFFF PUSH2 0x12A6 DUP2 DUP6 AND DUP3 DUP6 AND PUSH2 0x5E46 JUMP JUMPDEST PUSH1 0x0 PUSH4 0xFFFFFFFF DUP1 DUP5 AND DUP1 PUSH2 0x5F39 JUMPI PUSH2 0x5F39 PUSH2 0x58B5 JUMP JUMPDEST SWAP3 AND SWAP2 SWAP1 SWAP2 DIV SWAP3 SWAP2 POP POP JUMP JUMPDEST PUSH1 0x0 PUSH4 0xFFFFFFFF DUP1 DUP5 AND DUP1 PUSH2 0x5F5C JUMPI PUSH2 0x5F5C PUSH2 0x58B5 JUMP JUMPDEST SWAP3 AND SWAP2 SWAP1 SWAP2 MOD SWAP3 SWAP2 POP POP JUMP JUMPDEST PUSH1 0x0 PUSH4 0xFFFFFFFF DUP1 DUP4 AND DUP2 DUP2 SUB PUSH2 0x5F81 JUMPI PUSH2 0x5F81 PUSH2 0x5763 JUMP JUMPDEST PUSH1 0x1 ADD SWAP4 SWAP3 POP POP POP JUMP JUMPDEST PUSH4 0xFFFFFFFF DUP2 DUP2 AND DUP4 DUP3 AND ADD SWAP1 DUP1 DUP3 GT ISZERO PUSH2 0x5918 JUMPI PUSH2 0x5918 PUSH2 0x5763 JUMP INVALID ADDRESS PUSH5 0x4E72E131A0 0x29 0xB8 POP GASLIMIT 0xB6 DUP2 DUP2 PC 0x5D 0x28 CALLER 0xE8 BASEFEE PUSH26 0xB9709143E1F593F0000001A26469706673582212200075AD4C9D SWAP4 DUP6 PUSH23 0xA987AADF4A51016D04C09CAEE06D17947A718EA39DC6F2 PUSH7 0x64736F6C634300 ADDMOD GT STOP CALLER "},"methodIdentifiers":{"FIELD_SIZE()":"414a37ba","ROOT_HISTORY_SIZE()":"cd87a3b4","ZERO_VALUE()":"ec732959","addRewards(uint256,uint256,uint256,bool)":"8f84e27c","allowance(address,address)":"dd62ed3e","approve(address,uint256)":"095ea7b3","balanceOf(address)":"70a08231","calcInGivenOut(uint256,uint256,uint256,uint256)":"76a38e91","calcOutGivenIn(uint256,uint256,uint256,uint256)":"72ee6341","calcPoolOutGivenSingleIn(uint256,uint256,uint256)":"e0e6236e","calcSingleOutGivenIn(uint256,uint256,uint256,uint256,bool)":"ea2388d2","calcSpotPrice(uint256,uint256,uint256)":"436f9be4","chainID()":"adc879e9","chd()":"a8109c80","checkDrip()":"0b785fc6","controller()":"f77c4791","decimals()":"313ce567","depositToOtherChain((bytes,bytes32,uint256,uint256,bytes32[],bytes32[2]),(address,int256,uint256,uint256,bytes,bytes),bool,uint256)":"aad32641","dripRate()":"d3261592","fee()":"ddca3f43","finalize(uint256[],address[],uint256,uint256,address,address)":"9260df2a","getDepositCommitmentsById(uint256)":"4b4d4ae8","getDepositIdByCommitmentHash(bytes32)":"3c0540cf","getLastRoot()":"ba70f757","getOracleSubmission(uint256)":"15e1b702","getOracles()":"40884c52","getPartnerContracts()":"5bb25be3","getSpotPrice()":"dc76fabc","getZeros(uint256)":"67fb329b","hashLeftRight(bytes32,bytes32)":"38bf282e","hasher()":"ed33639f","isKnownRoot(bytes32)":"6d9833e3","isSpent(bytes32)":"e5285dcc","lastDrip()":"eadb8259","levels()":"4ecf518b","lpDeposit(uint256,uint256,uint256)":"d544c1d2","lpSingleCHD(uint256,uint256)":"73ee0ac5","lpWithdraw(uint256,uint256,uint256)":"6a01218e","name()":"06fdde03","oracleCHDFunds()":"1f639ee4","oracleDeposit(uint256,bytes)":"d2b12ad5","oracleTokenFunds()":"24e14a7a","recordBalance()":"34540e18","recordBalanceSynth()":"7d33bc73","singleCHDLPToDrip()":"bd4920e5","singleLockTime(address)":"840d205f","swap(bool,uint256,uint256,uint256)":"59542ca9","symbol()":"95d89b41","token()":"fc0c546a","totalSupply()":"18160ddd","transact((bytes,bytes32,uint256,uint256,bytes32[],bytes32[2]),(address,int256,uint256,uint256,bytes,bytes))":"9e7b1cd9","transfer(address,uint256)":"a9059cbb","transferFrom(address,address,uint256)":"23b872dd","userRewards()":"2d57121b","userRewardsCHD()":"1595497d","verifier16()":"2fc0355f","verifier2()":"522d0d70"}}}}}