{"contracts/FlatTellorBridge.sol":{"TellorBridge":{"abi":[{"inputs":[{"internalType":"address payable","name":"_tellor","type":"address"}],"stateMutability":"nonpayable","type":"constructor"},{"inputs":[],"name":"charon","outputs":[{"internalType":"address","name":"","type":"address"}],"stateMutability":"view","type":"function"},{"inputs":[],"name":"connectedChainId","outputs":[{"internalType":"uint256","name":"","type":"uint256"}],"stateMutability":"view","type":"function"},{"inputs":[{"internalType":"bytes","name":"_inputData","type":"bytes"}],"name":"getCommitment","outputs":[{"internalType":"bytes","name":"_value","type":"bytes"},{"internalType":"address","name":"_caller","type":"address"}],"stateMutability":"view","type":"function"},{"inputs":[{"internalType":"bytes32","name":"_queryId","type":"bytes32"},{"internalType":"uint256","name":"_timestamp","type":"uint256"}],"name":"getDataAfter","outputs":[{"internalType":"bytes","name":"_value","type":"bytes"},{"internalType":"uint256","name":"_timestampRetrieved","type":"uint256"}],"stateMutability":"view","type":"function"},{"inputs":[{"internalType":"bytes32","name":"_queryId","type":"bytes32"},{"internalType":"uint256","name":"_timestamp","type":"uint256"}],"name":"getDataBefore","outputs":[{"internalType":"bytes","name":"_value","type":"bytes"},{"internalType":"uint256","name":"_timestampRetrieved","type":"uint256"}],"stateMutability":"view","type":"function"},{"inputs":[{"internalType":"bytes32","name":"_queryId","type":"bytes32"},{"internalType":"uint256","name":"_timestamp","type":"uint256"}],"name":"getIndexForDataAfter","outputs":[{"internalType":"bool","name":"_found","type":"bool"},{"internalType":"uint256","name":"_index","type":"uint256"}],"stateMutability":"view","type":"function"},{"inputs":[{"internalType":"bytes32","name":"_queryId","type":"bytes32"},{"internalType":"uint256","name":"_timestamp","type":"uint256"}],"name":"getIndexForDataBefore","outputs":[{"internalType":"bool","name":"_found","type":"bool"},{"internalType":"uint256","name":"_index","type":"uint256"}],"stateMutability":"view","type":"function"},{"inputs":[{"internalType":"bytes32","name":"_queryId","type":"bytes32"},{"internalType":"uint256","name":"_timestamp","type":"uint256"},{"internalType":"uint256","name":"_maxAge","type":"uint256"},{"internalType":"uint256","name":"_maxCount","type":"uint256"}],"name":"getMultipleValuesBefore","outputs":[{"internalType":"bytes[]","name":"_values","type":"bytes[]"},{"internalType":"uint256[]","name":"_timestamps","type":"uint256[]"}],"stateMutability":"view","type":"function"},{"inputs":[{"internalType":"bytes32","name":"_queryId","type":"bytes32"}],"name":"getNewValueCountbyQueryId","outputs":[{"internalType":"uint256","name":"","type":"uint256"}],"stateMutability":"view","type":"function"},{"inputs":[{"internalType":"bytes32","name":"_queryId","type":"bytes32"},{"internalType":"uint256","name":"_timestamp","type":"uint256"}],"name":"getReporterByTimestamp","outputs":[{"internalType":"address","name":"","type":"address"}],"stateMutability":"view","type":"function"},{"inputs":[{"internalType":"uint256","name":"_timestamp","type":"uint256"},{"internalType":"uint256","name":"_chainID","type":"uint256"},{"internalType":"address","name":"_address","type":"address"}],"name":"getRootHashAndSupply","outputs":[{"internalType":"bytes","name":"_value","type":"bytes"}],"stateMutability":"view","type":"function"},{"inputs":[{"internalType":"bytes32","name":"_queryId","type":"bytes32"},{"internalType":"uint256","name":"_index","type":"uint256"}],"name":"getTimestampbyQueryIdandIndex","outputs":[{"internalType":"uint256","name":"","type":"uint256"}],"stateMutability":"view","type":"function"},{"inputs":[],"name":"idMappingContract","outputs":[{"internalType":"contract IMappingContract","name":"","type":"address"}],"stateMutability":"view","type":"function"},{"inputs":[{"internalType":"bytes32","name":"_queryId","type":"bytes32"},{"internalType":"uint256","name":"_timestamp","type":"uint256"}],"name":"isInDispute","outputs":[{"internalType":"bool","name":"","type":"bool"}],"stateMutability":"view","type":"function"},{"inputs":[{"internalType":"bytes32","name":"_queryId","type":"bytes32"},{"internalType":"uint256","name":"_timestamp","type":"uint256"}],"name":"retrieveData","outputs":[{"internalType":"bytes","name":"","type":"bytes"}],"stateMutability":"view","type":"function"},{"inputs":[{"internalType":"bytes","name":"_data","type":"bytes"}],"name":"sendCommitment","outputs":[],"stateMutability":"nonpayable","type":"function"},{"inputs":[{"internalType":"address","name":"_addy","type":"address"}],"name":"setIdMappingContract","outputs":[],"stateMutability":"nonpayable","type":"function"},{"inputs":[{"internalType":"address","name":"_charon","type":"address"},{"internalType":"uint256","name":"_connectedChainId","type":"uint256"}],"name":"setPartnerInfo","outputs":[],"stateMutability":"nonpayable","type":"function"},{"inputs":[],"name":"tellor","outputs":[{"internalType":"contract ITellor","name":"","type":"address"}],"stateMutability":"view","type":"function"},{"inputs":[{"internalType":"bytes32","name":"_id","type":"bytes32"}],"name":"valueFor","outputs":[{"internalType":"int256","name":"_value","type":"int256"},{"internalType":"uint256","name":"_timestamp","type":"uint256"},{"internalType":"uint256","name":"_statusCode","type":"uint256"}],"stateMutability":"view","type":"function"}],"evm":{"bytecode":{"linkReferences":{},"object":"608060405234801561001057600080fd5b506040516116fd3803806116fd83398101604081905261002f91610054565b600080546001600160a01b0319166001600160a01b0392909216919091179055610084565b60006020828403121561006657600080fd5b81516001600160a01b038116811461007d57600080fd5b9392505050565b61166a806100936000396000f3fe608060405234801561001057600080fd5b506004361061012c5760003560e01c806377b03e0d116100ad578063e07c548611610071578063e07c5486146102bf578063f66f49c3146102d2578063f78eea83146102e5578063fc571a5c14610313578063fcd4a5461461032657600080fd5b806377b03e0d14610253578063a792765f14610266578063b6f6869e14610279578063c5958af914610299578063ce5e11bf146102ac57600080fd5b806351e3aea9116100f457806351e3aea9146101d657806356bebf54146101e757806364ee3c6d146101fa5780636b2fd9051461021b57806376fa25901461023c57600080fd5b8063193b505b146101315780631959ad5b1461014657806329449085146101765780632af8aae0146101a057806344e87f91146101b3575b600080fd5b61014461013f366004610ff9565b610347565b005b600054610159906001600160a01b031681565b6040516001600160a01b0390911681526020015b60405180910390f35b61018961018436600461101d565b61037f565b60408051921515835260208301919091520161016d565b600154610159906001600160a01b031681565b6101c66101c136600461101d565b6103ff565b604051901515815260200161016d565b6101446101e43660046110ae565b50565b6101446101f536600461112e565b61047d565b61020d61020836600461101d565b6104b9565b60405161016d9291906111aa565b61022e6102293660046110ae565b610512565b60405161016d9291906111cc565b61024560035481565b60405190815260200161016d565b6102456102613660046111f6565b6106ff565b61020d61027436600461101d565b61076d565b61028c61028736600461120f565b6107f4565b60405161016d9190611248565b61028c6102a736600461101d565b6108b9565b6102456102ba36600461101d565b610932565b6101596102cd36600461101d565b6109a7565b6101896102e036600461101d565b610a1c565b6102f86102f33660046111f6565b610bd9565b6040805193845260208401929092529082015260600161016d565b600254610159906001600160a01b031681565b61033961033436600461125b565b610c9e565b60405161016d92919061128d565b6001546001600160a01b03161561035d57600080fd5b600180546001600160a01b0319166001600160a01b0392909216919091179055565b60008054604051632944908560e01b8152600481018590526024810184905282916001600160a01b0316906329449085906044016040805180830381865afa1580156103cf573d6000803e3d6000fd5b505050506040513d601f19601f820116820180604052508101906103f3919061133d565b915091505b9250929050565b600080546040516344e87f9160e01b815260048101859052602481018490526001600160a01b03909116906344e87f9190604401602060405180830381865afa158015610450573d6000803e3d6000fd5b505050506040513d601f19601f820116820180604052508101906104749190611369565b90505b92915050565b6002546001600160a01b03161561049357600080fd5b600280546001600160a01b0319166001600160a01b039390931692909217909155600355565b606060008060006104ca8686610a1c565b91509150816104f157600060405180602001604052806000815250909350935050506103f8565b6104fb8682610932565b925061050786846108b9565b935050509250929050565b6002546060906000906001600160a01b03166105755760405162461bcd60e51b815260206004820152601c60248201527f636861726f6e20616464726573732073686f756c64206265207365740000000060448201526064015b60405180910390fd5b6000808480602001905181019061058c9190611384565b905060007f15e1b702c3013cad746078c5fa0edabbf197cdb6d1ecd5f8eb1aac43ea318628826040516024016105c491815260200190565b60408051601f19818403018152918152602080830180516001600160e01b03166001600160e01b031990951694909417909352600354600254915192945060009361061d9391926001600160a01b03169186910161139d565b60408051601f198184030181529082905261063a916020016113d0565b6040516020818303038152906040528051906020012090506106648161a8c0426102749190611417565b8151919750945061067e9087016020908101908801611477565b5060005460405163703e2a4360e11b815260048101849052602481018790529197506001600160a01b03169063e07c548690604401602060405180830381865afa1580156106d0573d6000803e3d6000fd5b505050506040513d601f19601f820116820180604052508101906106f491906114be565b945050505050915091565b600080546040516377b03e0d60e01b8152600481018490526001600160a01b03909116906377b03e0d90602401602060405180830381865afa158015610749573d6000803e3d6000fd5b505050506040513d601f19601f820116820180604052508101906104779190611384565b6000805460405163a792765f60e01b81526004810185905260248101849052606092916001600160a01b03169063a792765f90604401600060405180830381865afa1580156107c0573d6000803e3d6000fd5b505050506040513d6000823e601f3d908101601f191682016040526107e891908101906114db565b90969095509350505050565b60408051602081018490526001600160a01b0383168183015260608082018690528251808303820181526080830190935291600091610836919060a001611532565b6040516020818303038152906040528051906020012090506108608161a8c0426102749190611417565b95509150846108b15760405162461bcd60e51b815260206004820152601960248201527f74696d657374616d70206d7573742062652070726573656e7400000000000000604482015260640161056c565b509392505050565b60005460405163c5958af960e01b815260048101849052602481018390526060916001600160a01b03169063c5958af990604401600060405180830381865afa15801561090a573d6000803e3d6000fd5b505050506040513d6000823e601f3d908101601f19168201604052610474919081019061156d565b6000805460405163ce5e11bf60e01b815260048101859052602481018490526001600160a01b039091169063ce5e11bf90604401602060405180830381865afa158015610983573d6000803e3d6000fd5b505050506040513d601f19601f820116820180604052508101906104749190611384565b6000805460405163703e2a4360e11b815260048101859052602481018490526001600160a01b039091169063e07c548690604401602060405180830381865afa1580156109f8573d6000803e3d6000fd5b505050506040513d601f19601f8201168201806040525081019061047491906114be565b6000806000610a2a856106ff565b905080600003610a415760008092509250506103f8565b80610a4b816115a2565b9150600190506000808381610a608a83610932565b9050888111610a7b57600080975097505050505050506103f8565b610a858a84610932565b905088811115610a9457600094505b8415610b44576002610aa684846115b9565b610ab091906115cc565b9350610abc8a85610932565b905088811115610afd576000610ad78b6102ba600188611417565b9050898111610ae95760009550610af7565b610af4600186611417565b92505b50610a94565b6000610b0e8b6102ba8760016115b9565b905089811115610b31576000955084610b26816115ee565b955050809150610af7565b610b3c8560016115b9565b935050610a94565b610b4e8a826103ff565b610b6457600184975097505050505050506103f8565b610b6e8a826103ff565b8015610b7957508584105b15610b9c5783610b88816115ee565b945050610b958a85610932565b9050610b64565b8584148015610bb05750610bb08a826103ff565b15610bc757600080975097505050505050506103f8565b600184975097505050505050506103f8565b6001546040516387a475fd60e01b8152600481018390526000918291829182916001600160a01b03909116906387a475fd90602401602060405180830381865afa158015610c2b573d6000803e3d6000fd5b505050506040513d601f19601f82011682018060405250810190610c4f9190611384565b90506060610c62826102744260016115b9565b945090506000849003610c82576000806101949450945094505050610c97565b6000610c8d82610f8d565b955060c893505050505b9193909250565b606080600080610cb2886102e0888a611417565b9150915081610d03576040805160008082526020820190925290610ce6565b6060815260200190600190039081610cd15790505b506040805160008152602081019091529094509250610f84915050565b6000610d0f898961037f565b909350905082610d62576040805160008082526020820190925290610d44565b6060815260200190600190039081610d2f5790505b506040805160008152602081019091529095509350610f8492505050565b60008060008867ffffffffffffffff811115610d8057610d8061103f565b604051908082528060200260200182016040528015610da9578160200160208202803683370190505b5090505b8883108015610dd057508482610dc48660016115b9565b610dce9190611417565b115b15610e34576000610de58d6102ba8588611417565b9050610df18d826103ff565b610e215780828581518110610e0857610e08611607565b602090810291909101015283610e1d816115ee565b9450505b82610e2b816115ee565b93505050610dad565b60008367ffffffffffffffff811115610e4f57610e4f61103f565b604051908082528060200260200182016040528015610e8257816020015b6060815260200190600190039081610e6d5790505b50905060008467ffffffffffffffff811115610ea057610ea061103f565b604051908082528060200260200182016040528015610ec9578160200160208202803683370190505b50905060005b85811015610f77578381610ee4600189611417565b610eee9190611417565b81518110610efe57610efe611607565b6020026020010151828281518110610f1857610f18611607565b602002602001018181525050610f478f838381518110610f3a57610f3a611607565b60200260200101516108b9565b838281518110610f5957610f59611607565b60200260200101819052508080610f6f906115ee565b915050610ecf565b5090985096505050505050505b94509492505050565b6000805b8251811015610fde57828181518110610fac57610fac611607565b016020015160f81c610fc08361010061161d565b610fca91906115b9565b915080610fd6816115ee565b915050610f91565b50919050565b6001600160a01b03811681146101e457600080fd5b60006020828403121561100b57600080fd5b813561101681610fe4565b9392505050565b6000806040838503121561103057600080fd5b50508035926020909101359150565b634e487b7160e01b600052604160045260246000fd5b604051601f8201601f1916810167ffffffffffffffff8111828210171561107e5761107e61103f565b604052919050565b600067ffffffffffffffff8211156110a0576110a061103f565b50601f01601f191660200190565b6000602082840312156110c057600080fd5b813567ffffffffffffffff8111156110d757600080fd5b8201601f810184136110e857600080fd5b80356110fb6110f682611086565b611055565b81815285602083850101111561111057600080fd5b81602084016020830137600091810160200191909152949350505050565b6000806040838503121561114157600080fd5b823561114c81610fe4565b946020939093013593505050565b60005b8381101561117557818101518382015260200161115d565b50506000910152565b6000815180845261119681602086016020860161115a565b601f01601f19169290920160200192915050565b6040815260006111bd604083018561117e565b90508260208301529392505050565b6040815260006111df604083018561117e565b905060018060a01b03831660208301529392505050565b60006020828403121561120857600080fd5b5035919050565b60008060006060848603121561122457600080fd5b8335925060208401359150604084013561123d81610fe4565b809150509250925092565b602081526000610474602083018461117e565b6000806000806080858703121561127157600080fd5b5050823594602084013594506040840135936060013592509050565b6000604082016040835280855180835260608501915060608160051b8601019250602080880160005b838110156112e457605f198887030185526112d286835161117e565b955093820193908201906001016112b6565b50508584038187015286518085528782019482019350915060005b8281101561131b578451845293810193928101926001016112ff565b5091979650505050505050565b8051801515811461133857600080fd5b919050565b6000806040838503121561135057600080fd5b61135983611328565b9150602083015190509250929050565b60006020828403121561137b57600080fd5b61047482611328565b60006020828403121561139657600080fd5b5051919050565b8381526001600160a01b03831660208201526060604082018190526000906113c79083018461117e565b95945050505050565b60408152600760408201526611559350d85b1b60ca1b6060820152608060208201526000610474608083018461117e565b634e487b7160e01b600052601160045260246000fd5b8181038181111561047757610477611401565b600082601f83011261143b57600080fd5b81516114496110f682611086565b81815284602083860101111561145e57600080fd5b61146f82602083016020870161115a565b949350505050565b6000806040838503121561148a57600080fd5b825167ffffffffffffffff8111156114a157600080fd5b6114ad8582860161142a565b925050602083015190509250929050565b6000602082840312156114d057600080fd5b815161101681610fe4565b6000806000606084860312156114f057600080fd5b6114f984611328565b9250602084015167ffffffffffffffff81111561151557600080fd5b6115218682870161142a565b925050604084015190509250925092565b60408152601160408201527043726f7373436861696e42616c616e636560781b6060820152608060208201526000610474608083018461117e565b60006020828403121561157f57600080fd5b815167ffffffffffffffff81111561159657600080fd5b61146f8482850161142a565b6000816115b1576115b1611401565b506000190190565b8082018082111561047757610477611401565b6000826115e957634e487b7160e01b600052601260045260246000fd5b500490565b60006001820161160057611600611401565b5060010190565b634e487b7160e01b600052603260045260246000fd5b80820281158282048414176104775761047761140156fea2646970667358221220e370747e65fbe872f3f8b6d02c255e866284e003e7e02009ad80f5095d9e5d7664736f6c63430008110033","opcodes":"PUSH1 0x80 PUSH1 0x40 MSTORE CALLVALUE DUP1 ISZERO PUSH2 0x10 JUMPI PUSH1 0x0 DUP1 REVERT JUMPDEST POP PUSH1 0x40 MLOAD PUSH2 0x16FD CODESIZE SUB DUP1 PUSH2 0x16FD DUP4 CODECOPY DUP2 ADD PUSH1 0x40 DUP2 SWAP1 MSTORE PUSH2 0x2F SWAP2 PUSH2 0x54 JUMP JUMPDEST PUSH1 0x0 DUP1 SLOAD PUSH1 0x1 PUSH1 0x1 PUSH1 0xA0 SHL SUB NOT AND PUSH1 0x1 PUSH1 0x1 PUSH1 0xA0 SHL SUB SWAP3 SWAP1 SWAP3 AND SWAP2 SWAP1 SWAP2 OR SWAP1 SSTORE PUSH2 0x84 JUMP JUMPDEST PUSH1 0x0 PUSH1 0x20 DUP3 DUP5 SUB SLT ISZERO PUSH2 0x66 JUMPI PUSH1 0x0 DUP1 REVERT JUMPDEST DUP2 MLOAD PUSH1 0x1 PUSH1 0x1 PUSH1 0xA0 SHL SUB DUP2 AND DUP2 EQ PUSH2 0x7D JUMPI PUSH1 0x0 DUP1 REVERT JUMPDEST SWAP4 SWAP3 POP POP POP JUMP JUMPDEST PUSH2 0x166A DUP1 PUSH2 0x93 PUSH1 0x0 CODECOPY PUSH1 0x0 RETURN INVALID PUSH1 0x80 PUSH1 0x40 MSTORE CALLVALUE DUP1 ISZERO PUSH2 0x10 JUMPI PUSH1 0x0 DUP1 REVERT JUMPDEST POP PUSH1 0x4 CALLDATASIZE LT PUSH2 0x12C JUMPI PUSH1 0x0 CALLDATALOAD PUSH1 0xE0 SHR DUP1 PUSH4 0x77B03E0D GT PUSH2 0xAD JUMPI DUP1 PUSH4 0xE07C5486 GT PUSH2 0x71 JUMPI DUP1 PUSH4 0xE07C5486 EQ PUSH2 0x2BF JUMPI DUP1 PUSH4 0xF66F49C3 EQ PUSH2 0x2D2 JUMPI DUP1 PUSH4 0xF78EEA83 EQ PUSH2 0x2E5 JUMPI DUP1 PUSH4 0xFC571A5C EQ PUSH2 0x313 JUMPI DUP1 PUSH4 0xFCD4A546 EQ PUSH2 0x326 JUMPI PUSH1 0x0 DUP1 REVERT JUMPDEST DUP1 PUSH4 0x77B03E0D EQ PUSH2 0x253 JUMPI DUP1 PUSH4 0xA792765F EQ PUSH2 0x266 JUMPI DUP1 PUSH4 0xB6F6869E EQ PUSH2 0x279 JUMPI DUP1 PUSH4 0xC5958AF9 EQ PUSH2 0x299 JUMPI DUP1 PUSH4 0xCE5E11BF EQ PUSH2 0x2AC JUMPI PUSH1 0x0 DUP1 REVERT JUMPDEST DUP1 PUSH4 0x51E3AEA9 GT PUSH2 0xF4 JUMPI DUP1 PUSH4 0x51E3AEA9 EQ PUSH2 0x1D6 JUMPI DUP1 PUSH4 0x56BEBF54 EQ PUSH2 0x1E7 JUMPI DUP1 PUSH4 0x64EE3C6D EQ PUSH2 0x1FA JUMPI DUP1 PUSH4 0x6B2FD905 EQ PUSH2 0x21B JUMPI DUP1 PUSH4 0x76FA2590 EQ PUSH2 0x23C JUMPI PUSH1 0x0 DUP1 REVERT JUMPDEST DUP1 PUSH4 0x193B505B EQ PUSH2 0x131 JUMPI DUP1 PUSH4 0x1959AD5B EQ PUSH2 0x146 JUMPI DUP1 PUSH4 0x29449085 EQ PUSH2 0x176 JUMPI DUP1 PUSH4 0x2AF8AAE0 EQ PUSH2 0x1A0 JUMPI DUP1 PUSH4 0x44E87F91 EQ PUSH2 0x1B3 JUMPI JUMPDEST PUSH1 0x0 DUP1 REVERT JUMPDEST PUSH2 0x144 PUSH2 0x13F CALLDATASIZE PUSH1 0x4 PUSH2 0xFF9 JUMP JUMPDEST PUSH2 0x347 JUMP JUMPDEST STOP JUMPDEST PUSH1 0x0 SLOAD PUSH2 0x159 SWAP1 PUSH1 0x1 PUSH1 0x1 PUSH1 0xA0 SHL SUB AND DUP2 JUMP JUMPDEST PUSH1 0x40 MLOAD PUSH1 0x1 PUSH1 0x1 PUSH1 0xA0 SHL SUB SWAP1 SWAP2 AND DUP2 MSTORE PUSH1 0x20 ADD JUMPDEST PUSH1 0x40 MLOAD DUP1 SWAP2 SUB SWAP1 RETURN JUMPDEST PUSH2 0x189 PUSH2 0x184 CALLDATASIZE PUSH1 0x4 PUSH2 0x101D JUMP JUMPDEST PUSH2 0x37F JUMP JUMPDEST PUSH1 0x40 DUP1 MLOAD SWAP3 ISZERO ISZERO DUP4 MSTORE PUSH1 0x20 DUP4 ADD SWAP2 SWAP1 SWAP2 MSTORE ADD PUSH2 0x16D JUMP JUMPDEST PUSH1 0x1 SLOAD PUSH2 0x159 SWAP1 PUSH1 0x1 PUSH1 0x1 PUSH1 0xA0 SHL SUB AND DUP2 JUMP JUMPDEST PUSH2 0x1C6 PUSH2 0x1C1 CALLDATASIZE PUSH1 0x4 PUSH2 0x101D JUMP JUMPDEST PUSH2 0x3FF JUMP JUMPDEST PUSH1 0x40 MLOAD SWAP1 ISZERO ISZERO DUP2 MSTORE PUSH1 0x20 ADD PUSH2 0x16D JUMP JUMPDEST PUSH2 0x144 PUSH2 0x1E4 CALLDATASIZE PUSH1 0x4 PUSH2 0x10AE JUMP JUMPDEST POP JUMP JUMPDEST PUSH2 0x144 PUSH2 0x1F5 CALLDATASIZE PUSH1 0x4 PUSH2 0x112E JUMP JUMPDEST PUSH2 0x47D JUMP JUMPDEST PUSH2 0x20D PUSH2 0x208 CALLDATASIZE PUSH1 0x4 PUSH2 0x101D JUMP JUMPDEST PUSH2 0x4B9 JUMP JUMPDEST PUSH1 0x40 MLOAD PUSH2 0x16D SWAP3 SWAP2 SWAP1 PUSH2 0x11AA JUMP JUMPDEST PUSH2 0x22E PUSH2 0x229 CALLDATASIZE PUSH1 0x4 PUSH2 0x10AE JUMP JUMPDEST PUSH2 0x512 JUMP JUMPDEST PUSH1 0x40 MLOAD PUSH2 0x16D SWAP3 SWAP2 SWAP1 PUSH2 0x11CC JUMP JUMPDEST PUSH2 0x245 PUSH1 0x3 SLOAD DUP2 JUMP JUMPDEST PUSH1 0x40 MLOAD SWAP1 DUP2 MSTORE PUSH1 0x20 ADD PUSH2 0x16D JUMP JUMPDEST PUSH2 0x245 PUSH2 0x261 CALLDATASIZE PUSH1 0x4 PUSH2 0x11F6 JUMP JUMPDEST PUSH2 0x6FF JUMP JUMPDEST PUSH2 0x20D PUSH2 0x274 CALLDATASIZE PUSH1 0x4 PUSH2 0x101D JUMP JUMPDEST PUSH2 0x76D JUMP JUMPDEST PUSH2 0x28C PUSH2 0x287 CALLDATASIZE PUSH1 0x4 PUSH2 0x120F JUMP JUMPDEST PUSH2 0x7F4 JUMP JUMPDEST PUSH1 0x40 MLOAD PUSH2 0x16D SWAP2 SWAP1 PUSH2 0x1248 JUMP JUMPDEST PUSH2 0x28C PUSH2 0x2A7 CALLDATASIZE PUSH1 0x4 PUSH2 0x101D JUMP JUMPDEST PUSH2 0x8B9 JUMP JUMPDEST PUSH2 0x245 PUSH2 0x2BA CALLDATASIZE PUSH1 0x4 PUSH2 0x101D JUMP JUMPDEST PUSH2 0x932 JUMP JUMPDEST PUSH2 0x159 PUSH2 0x2CD CALLDATASIZE PUSH1 0x4 PUSH2 0x101D JUMP JUMPDEST PUSH2 0x9A7 JUMP JUMPDEST PUSH2 0x189 PUSH2 0x2E0 CALLDATASIZE PUSH1 0x4 PUSH2 0x101D JUMP JUMPDEST PUSH2 0xA1C JUMP JUMPDEST PUSH2 0x2F8 PUSH2 0x2F3 CALLDATASIZE PUSH1 0x4 PUSH2 0x11F6 JUMP JUMPDEST PUSH2 0xBD9 JUMP JUMPDEST PUSH1 0x40 DUP1 MLOAD SWAP4 DUP5 MSTORE PUSH1 0x20 DUP5 ADD SWAP3 SWAP1 SWAP3 MSTORE SWAP1 DUP3 ADD MSTORE PUSH1 0x60 ADD PUSH2 0x16D JUMP JUMPDEST PUSH1 0x2 SLOAD PUSH2 0x159 SWAP1 PUSH1 0x1 PUSH1 0x1 PUSH1 0xA0 SHL SUB AND DUP2 JUMP JUMPDEST PUSH2 0x339 PUSH2 0x334 CALLDATASIZE PUSH1 0x4 PUSH2 0x125B JUMP JUMPDEST PUSH2 0xC9E JUMP JUMPDEST PUSH1 0x40 MLOAD PUSH2 0x16D SWAP3 SWAP2 SWAP1 PUSH2 0x128D JUMP JUMPDEST PUSH1 0x1 SLOAD PUSH1 0x1 PUSH1 0x1 PUSH1 0xA0 SHL SUB AND ISZERO PUSH2 0x35D JUMPI PUSH1 0x0 DUP1 REVERT JUMPDEST PUSH1 0x1 DUP1 SLOAD PUSH1 0x1 PUSH1 0x1 PUSH1 0xA0 SHL SUB NOT AND PUSH1 0x1 PUSH1 0x1 PUSH1 0xA0 SHL SUB SWAP3 SWAP1 SWAP3 AND SWAP2 SWAP1 SWAP2 OR SWAP1 SSTORE JUMP JUMPDEST PUSH1 0x0 DUP1 SLOAD PUSH1 0x40 MLOAD PUSH4 0x29449085 PUSH1 0xE0 SHL DUP2 MSTORE PUSH1 0x4 DUP2 ADD DUP6 SWAP1 MSTORE PUSH1 0x24 DUP2 ADD DUP5 SWAP1 MSTORE DUP3 SWAP2 PUSH1 0x1 PUSH1 0x1 PUSH1 0xA0 SHL SUB AND SWAP1 PUSH4 0x29449085 SWAP1 PUSH1 0x44 ADD PUSH1 0x40 DUP1 MLOAD DUP1 DUP4 SUB DUP2 DUP7 GAS STATICCALL ISZERO DUP1 ISZERO PUSH2 0x3CF JUMPI RETURNDATASIZE PUSH1 0x0 DUP1 RETURNDATACOPY RETURNDATASIZE PUSH1 0x0 REVERT JUMPDEST POP POP POP POP PUSH1 0x40 MLOAD RETURNDATASIZE PUSH1 0x1F NOT PUSH1 0x1F DUP3 ADD AND DUP3 ADD DUP1 PUSH1 0x40 MSTORE POP DUP2 ADD SWAP1 PUSH2 0x3F3 SWAP2 SWAP1 PUSH2 0x133D JUMP JUMPDEST SWAP2 POP SWAP2 POP JUMPDEST SWAP3 POP SWAP3 SWAP1 POP JUMP JUMPDEST PUSH1 0x0 DUP1 SLOAD PUSH1 0x40 MLOAD PUSH4 0x44E87F91 PUSH1 0xE0 SHL DUP2 MSTORE PUSH1 0x4 DUP2 ADD DUP6 SWAP1 MSTORE PUSH1 0x24 DUP2 ADD DUP5 SWAP1 MSTORE PUSH1 0x1 PUSH1 0x1 PUSH1 0xA0 SHL SUB SWAP1 SWAP2 AND SWAP1 PUSH4 0x44E87F91 SWAP1 PUSH1 0x44 ADD PUSH1 0x20 PUSH1 0x40 MLOAD DUP1 DUP4 SUB DUP2 DUP7 GAS STATICCALL ISZERO DUP1 ISZERO PUSH2 0x450 JUMPI RETURNDATASIZE PUSH1 0x0 DUP1 RETURNDATACOPY RETURNDATASIZE PUSH1 0x0 REVERT JUMPDEST POP POP POP POP PUSH1 0x40 MLOAD RETURNDATASIZE PUSH1 0x1F NOT PUSH1 0x1F DUP3 ADD AND DUP3 ADD DUP1 PUSH1 0x40 MSTORE POP DUP2 ADD SWAP1 PUSH2 0x474 SWAP2 SWAP1 PUSH2 0x1369 JUMP JUMPDEST SWAP1 POP JUMPDEST SWAP3 SWAP2 POP POP JUMP JUMPDEST PUSH1 0x2 SLOAD PUSH1 0x1 PUSH1 0x1 PUSH1 0xA0 SHL SUB AND ISZERO PUSH2 0x493 JUMPI PUSH1 0x0 DUP1 REVERT JUMPDEST PUSH1 0x2 DUP1 SLOAD PUSH1 0x1 PUSH1 0x1 PUSH1 0xA0 SHL SUB NOT AND PUSH1 0x1 PUSH1 0x1 PUSH1 0xA0 SHL SUB SWAP4 SWAP1 SWAP4 AND SWAP3 SWAP1 SWAP3 OR SWAP1 SWAP2 SSTORE PUSH1 0x3 SSTORE JUMP JUMPDEST PUSH1 0x60 PUSH1 0x0 DUP1 PUSH1 0x0 PUSH2 0x4CA DUP7 DUP7 PUSH2 0xA1C JUMP JUMPDEST SWAP2 POP SWAP2 POP DUP2 PUSH2 0x4F1 JUMPI PUSH1 0x0 PUSH1 0x40 MLOAD DUP1 PUSH1 0x20 ADD PUSH1 0x40 MSTORE DUP1 PUSH1 0x0 DUP2 MSTORE POP SWAP1 SWAP4 POP SWAP4 POP POP POP PUSH2 0x3F8 JUMP JUMPDEST PUSH2 0x4FB DUP7 DUP3 PUSH2 0x932 JUMP JUMPDEST SWAP3 POP PUSH2 0x507 DUP7 DUP5 PUSH2 0x8B9 JUMP JUMPDEST SWAP4 POP POP POP SWAP3 POP SWAP3 SWAP1 POP JUMP JUMPDEST PUSH1 0x2 SLOAD PUSH1 0x60 SWAP1 PUSH1 0x0 SWAP1 PUSH1 0x1 PUSH1 0x1 PUSH1 0xA0 SHL SUB AND PUSH2 0x575 JUMPI PUSH1 0x40 MLOAD PUSH3 0x461BCD PUSH1 0xE5 SHL DUP2 MSTORE PUSH1 0x20 PUSH1 0x4 DUP3 ADD MSTORE PUSH1 0x1C PUSH1 0x24 DUP3 ADD MSTORE PUSH32 0x636861726F6E20616464726573732073686F756C642062652073657400000000 PUSH1 0x44 DUP3 ADD MSTORE PUSH1 0x64 ADD JUMPDEST PUSH1 0x40 MLOAD DUP1 SWAP2 SUB SWAP1 REVERT JUMPDEST PUSH1 0x0 DUP1 DUP5 DUP1 PUSH1 0x20 ADD SWAP1 MLOAD DUP2 ADD SWAP1 PUSH2 0x58C SWAP2 SWAP1 PUSH2 0x1384 JUMP JUMPDEST SWAP1 POP PUSH1 0x0 PUSH32 0x15E1B702C3013CAD746078C5FA0EDABBF197CDB6D1ECD5F8EB1AAC43EA318628 DUP3 PUSH1 0x40 MLOAD PUSH1 0x24 ADD PUSH2 0x5C4 SWAP2 DUP2 MSTORE PUSH1 0x20 ADD SWAP1 JUMP JUMPDEST PUSH1 0x40 DUP1 MLOAD PUSH1 0x1F NOT DUP2 DUP5 SUB ADD DUP2 MSTORE SWAP2 DUP2 MSTORE PUSH1 0x20 DUP1 DUP4 ADD DUP1 MLOAD PUSH1 0x1 PUSH1 0x1 PUSH1 0xE0 SHL SUB AND PUSH1 0x1 PUSH1 0x1 PUSH1 0xE0 SHL SUB NOT SWAP1 SWAP6 AND SWAP5 SWAP1 SWAP5 OR SWAP1 SWAP4 MSTORE PUSH1 0x3 SLOAD PUSH1 0x2 SLOAD SWAP2 MLOAD SWAP3 SWAP5 POP PUSH1 0x0 SWAP4 PUSH2 0x61D SWAP4 SWAP2 SWAP3 PUSH1 0x1 PUSH1 0x1 PUSH1 0xA0 SHL SUB AND SWAP2 DUP7 SWAP2 ADD PUSH2 0x139D JUMP JUMPDEST PUSH1 0x40 DUP1 MLOAD PUSH1 0x1F NOT DUP2 DUP5 SUB ADD DUP2 MSTORE SWAP1 DUP3 SWAP1 MSTORE PUSH2 0x63A SWAP2 PUSH1 0x20 ADD PUSH2 0x13D0 JUMP JUMPDEST PUSH1 0x40 MLOAD PUSH1 0x20 DUP2 DUP4 SUB SUB DUP2 MSTORE SWAP1 PUSH1 0x40 MSTORE DUP1 MLOAD SWAP1 PUSH1 0x20 ADD KECCAK256 SWAP1 POP PUSH2 0x664 DUP2 PUSH2 0xA8C0 TIMESTAMP PUSH2 0x274 SWAP2 SWAP1 PUSH2 0x1417 JUMP JUMPDEST DUP2 MLOAD SWAP2 SWAP8 POP SWAP5 POP PUSH2 0x67E SWAP1 DUP8 ADD PUSH1 0x20 SWAP1 DUP2 ADD SWAP1 DUP9 ADD PUSH2 0x1477 JUMP JUMPDEST POP PUSH1 0x0 SLOAD PUSH1 0x40 MLOAD PUSH4 0x703E2A43 PUSH1 0xE1 SHL DUP2 MSTORE PUSH1 0x4 DUP2 ADD DUP5 SWAP1 MSTORE PUSH1 0x24 DUP2 ADD DUP8 SWAP1 MSTORE SWAP2 SWAP8 POP PUSH1 0x1 PUSH1 0x1 PUSH1 0xA0 SHL SUB AND SWAP1 PUSH4 0xE07C5486 SWAP1 PUSH1 0x44 ADD PUSH1 0x20 PUSH1 0x40 MLOAD DUP1 DUP4 SUB DUP2 DUP7 GAS STATICCALL ISZERO DUP1 ISZERO PUSH2 0x6D0 JUMPI RETURNDATASIZE PUSH1 0x0 DUP1 RETURNDATACOPY RETURNDATASIZE PUSH1 0x0 REVERT JUMPDEST POP POP POP POP PUSH1 0x40 MLOAD RETURNDATASIZE PUSH1 0x1F NOT PUSH1 0x1F DUP3 ADD AND DUP3 ADD DUP1 PUSH1 0x40 MSTORE POP DUP2 ADD SWAP1 PUSH2 0x6F4 SWAP2 SWAP1 PUSH2 0x14BE JUMP JUMPDEST SWAP5 POP POP POP POP POP SWAP2 POP SWAP2 JUMP JUMPDEST PUSH1 0x0 DUP1 SLOAD PUSH1 0x40 MLOAD PUSH4 0x77B03E0D PUSH1 0xE0 SHL DUP2 MSTORE PUSH1 0x4 DUP2 ADD DUP5 SWAP1 MSTORE PUSH1 0x1 PUSH1 0x1 PUSH1 0xA0 SHL SUB SWAP1 SWAP2 AND SWAP1 PUSH4 0x77B03E0D SWAP1 PUSH1 0x24 ADD PUSH1 0x20 PUSH1 0x40 MLOAD DUP1 DUP4 SUB DUP2 DUP7 GAS STATICCALL ISZERO DUP1 ISZERO PUSH2 0x749 JUMPI RETURNDATASIZE PUSH1 0x0 DUP1 RETURNDATACOPY RETURNDATASIZE PUSH1 0x0 REVERT JUMPDEST POP POP POP POP PUSH1 0x40 MLOAD RETURNDATASIZE PUSH1 0x1F NOT PUSH1 0x1F DUP3 ADD AND DUP3 ADD DUP1 PUSH1 0x40 MSTORE POP DUP2 ADD SWAP1 PUSH2 0x477 SWAP2 SWAP1 PUSH2 0x1384 JUMP JUMPDEST PUSH1 0x0 DUP1 SLOAD PUSH1 0x40 MLOAD PUSH4 0xA792765F PUSH1 0xE0 SHL DUP2 MSTORE PUSH1 0x4 DUP2 ADD DUP6 SWAP1 MSTORE PUSH1 0x24 DUP2 ADD DUP5 SWAP1 MSTORE PUSH1 0x60 SWAP3 SWAP2 PUSH1 0x1 PUSH1 0x1 PUSH1 0xA0 SHL SUB AND SWAP1 PUSH4 0xA792765F SWAP1 PUSH1 0x44 ADD PUSH1 0x0 PUSH1 0x40 MLOAD DUP1 DUP4 SUB DUP2 DUP7 GAS STATICCALL ISZERO DUP1 ISZERO PUSH2 0x7C0 JUMPI RETURNDATASIZE PUSH1 0x0 DUP1 RETURNDATACOPY RETURNDATASIZE PUSH1 0x0 REVERT JUMPDEST POP POP POP POP PUSH1 0x40 MLOAD RETURNDATASIZE PUSH1 0x0 DUP3 RETURNDATACOPY PUSH1 0x1F RETURNDATASIZE SWAP1 DUP2 ADD PUSH1 0x1F NOT AND DUP3 ADD PUSH1 0x40 MSTORE PUSH2 0x7E8 SWAP2 SWAP1 DUP2 ADD SWAP1 PUSH2 0x14DB JUMP JUMPDEST SWAP1 SWAP7 SWAP1 SWAP6 POP SWAP4 POP POP POP POP JUMP JUMPDEST PUSH1 0x40 DUP1 MLOAD PUSH1 0x20 DUP2 ADD DUP5 SWAP1 MSTORE PUSH1 0x1 PUSH1 0x1 PUSH1 0xA0 SHL SUB DUP4 AND DUP2 DUP4 ADD MSTORE PUSH1 0x60 DUP1 DUP3 ADD DUP7 SWAP1 MSTORE DUP3 MLOAD DUP1 DUP4 SUB DUP3 ADD DUP2 MSTORE PUSH1 0x80 DUP4 ADD SWAP1 SWAP4 MSTORE SWAP2 PUSH1 0x0 SWAP2 PUSH2 0x836 SWAP2 SWAP1 PUSH1 0xA0 ADD PUSH2 0x1532 JUMP JUMPDEST PUSH1 0x40 MLOAD PUSH1 0x20 DUP2 DUP4 SUB SUB DUP2 MSTORE SWAP1 PUSH1 0x40 MSTORE DUP1 MLOAD SWAP1 PUSH1 0x20 ADD KECCAK256 SWAP1 POP PUSH2 0x860 DUP2 PUSH2 0xA8C0 TIMESTAMP PUSH2 0x274 SWAP2 SWAP1 PUSH2 0x1417 JUMP JUMPDEST SWAP6 POP SWAP2 POP DUP5 PUSH2 0x8B1 JUMPI PUSH1 0x40 MLOAD PUSH3 0x461BCD PUSH1 0xE5 SHL DUP2 MSTORE PUSH1 0x20 PUSH1 0x4 DUP3 ADD MSTORE PUSH1 0x19 PUSH1 0x24 DUP3 ADD MSTORE PUSH32 0x74696D657374616D70206D7573742062652070726573656E7400000000000000 PUSH1 0x44 DUP3 ADD MSTORE PUSH1 0x64 ADD PUSH2 0x56C JUMP JUMPDEST POP SWAP4 SWAP3 POP POP POP JUMP JUMPDEST PUSH1 0x0 SLOAD PUSH1 0x40 MLOAD PUSH4 0xC5958AF9 PUSH1 0xE0 SHL DUP2 MSTORE PUSH1 0x4 DUP2 ADD DUP5 SWAP1 MSTORE PUSH1 0x24 DUP2 ADD DUP4 SWAP1 MSTORE PUSH1 0x60 SWAP2 PUSH1 0x1 PUSH1 0x1 PUSH1 0xA0 SHL SUB AND SWAP1 PUSH4 0xC5958AF9 SWAP1 PUSH1 0x44 ADD PUSH1 0x0 PUSH1 0x40 MLOAD DUP1 DUP4 SUB DUP2 DUP7 GAS STATICCALL ISZERO DUP1 ISZERO PUSH2 0x90A JUMPI RETURNDATASIZE PUSH1 0x0 DUP1 RETURNDATACOPY RETURNDATASIZE PUSH1 0x0 REVERT JUMPDEST POP POP POP POP PUSH1 0x40 MLOAD RETURNDATASIZE PUSH1 0x0 DUP3 RETURNDATACOPY PUSH1 0x1F RETURNDATASIZE SWAP1 DUP2 ADD PUSH1 0x1F NOT AND DUP3 ADD PUSH1 0x40 MSTORE PUSH2 0x474 SWAP2 SWAP1 DUP2 ADD SWAP1 PUSH2 0x156D JUMP JUMPDEST PUSH1 0x0 DUP1 SLOAD PUSH1 0x40 MLOAD PUSH4 0xCE5E11BF PUSH1 0xE0 SHL DUP2 MSTORE PUSH1 0x4 DUP2 ADD DUP6 SWAP1 MSTORE PUSH1 0x24 DUP2 ADD DUP5 SWAP1 MSTORE PUSH1 0x1 PUSH1 0x1 PUSH1 0xA0 SHL SUB SWAP1 SWAP2 AND SWAP1 PUSH4 0xCE5E11BF SWAP1 PUSH1 0x44 ADD PUSH1 0x20 PUSH1 0x40 MLOAD DUP1 DUP4 SUB DUP2 DUP7 GAS STATICCALL ISZERO DUP1 ISZERO PUSH2 0x983 JUMPI RETURNDATASIZE PUSH1 0x0 DUP1 RETURNDATACOPY RETURNDATASIZE PUSH1 0x0 REVERT JUMPDEST POP POP POP POP PUSH1 0x40 MLOAD RETURNDATASIZE PUSH1 0x1F NOT PUSH1 0x1F DUP3 ADD AND DUP3 ADD DUP1 PUSH1 0x40 MSTORE POP DUP2 ADD SWAP1 PUSH2 0x474 SWAP2 SWAP1 PUSH2 0x1384 JUMP JUMPDEST PUSH1 0x0 DUP1 SLOAD PUSH1 0x40 MLOAD PUSH4 0x703E2A43 PUSH1 0xE1 SHL DUP2 MSTORE PUSH1 0x4 DUP2 ADD DUP6 SWAP1 MSTORE PUSH1 0x24 DUP2 ADD DUP5 SWAP1 MSTORE PUSH1 0x1 PUSH1 0x1 PUSH1 0xA0 SHL SUB SWAP1 SWAP2 AND SWAP1 PUSH4 0xE07C5486 SWAP1 PUSH1 0x44 ADD PUSH1 0x20 PUSH1 0x40 MLOAD DUP1 DUP4 SUB DUP2 DUP7 GAS STATICCALL ISZERO DUP1 ISZERO PUSH2 0x9F8 JUMPI RETURNDATASIZE PUSH1 0x0 DUP1 RETURNDATACOPY RETURNDATASIZE PUSH1 0x0 REVERT JUMPDEST POP POP POP POP PUSH1 0x40 MLOAD RETURNDATASIZE PUSH1 0x1F NOT PUSH1 0x1F DUP3 ADD AND DUP3 ADD DUP1 PUSH1 0x40 MSTORE POP DUP2 ADD SWAP1 PUSH2 0x474 SWAP2 SWAP1 PUSH2 0x14BE JUMP JUMPDEST PUSH1 0x0 DUP1 PUSH1 0x0 PUSH2 0xA2A DUP6 PUSH2 0x6FF JUMP JUMPDEST SWAP1 POP DUP1 PUSH1 0x0 SUB PUSH2 0xA41 JUMPI PUSH1 0x0 DUP1 SWAP3 POP SWAP3 POP POP PUSH2 0x3F8 JUMP JUMPDEST DUP1 PUSH2 0xA4B DUP2 PUSH2 0x15A2 JUMP JUMPDEST SWAP2 POP PUSH1 0x1 SWAP1 POP PUSH1 0x0 DUP1 DUP4 DUP2 PUSH2 0xA60 DUP11 DUP4 PUSH2 0x932 JUMP JUMPDEST SWAP1 POP DUP9 DUP2 GT PUSH2 0xA7B JUMPI PUSH1 0x0 DUP1 SWAP8 POP SWAP8 POP POP POP POP POP POP POP PUSH2 0x3F8 JUMP JUMPDEST PUSH2 0xA85 DUP11 DUP5 PUSH2 0x932 JUMP JUMPDEST SWAP1 POP DUP9 DUP2 GT ISZERO PUSH2 0xA94 JUMPI PUSH1 0x0 SWAP5 POP JUMPDEST DUP5 ISZERO PUSH2 0xB44 JUMPI PUSH1 0x2 PUSH2 0xAA6 DUP5 DUP5 PUSH2 0x15B9 JUMP JUMPDEST PUSH2 0xAB0 SWAP2 SWAP1 PUSH2 0x15CC JUMP JUMPDEST SWAP4 POP PUSH2 0xABC DUP11 DUP6 PUSH2 0x932 JUMP JUMPDEST SWAP1 POP DUP9 DUP2 GT ISZERO PUSH2 0xAFD JUMPI PUSH1 0x0 PUSH2 0xAD7 DUP12 PUSH2 0x2BA PUSH1 0x1 DUP9 PUSH2 0x1417 JUMP JUMPDEST SWAP1 POP DUP10 DUP2 GT PUSH2 0xAE9 JUMPI PUSH1 0x0 SWAP6 POP PUSH2 0xAF7 JUMP JUMPDEST PUSH2 0xAF4 PUSH1 0x1 DUP7 PUSH2 0x1417 JUMP JUMPDEST SWAP3 POP JUMPDEST POP PUSH2 0xA94 JUMP JUMPDEST PUSH1 0x0 PUSH2 0xB0E DUP12 PUSH2 0x2BA DUP8 PUSH1 0x1 PUSH2 0x15B9 JUMP JUMPDEST SWAP1 POP DUP10 DUP2 GT ISZERO PUSH2 0xB31 JUMPI PUSH1 0x0 SWAP6 POP DUP5 PUSH2 0xB26 DUP2 PUSH2 0x15EE JUMP JUMPDEST SWAP6 POP POP DUP1 SWAP2 POP PUSH2 0xAF7 JUMP JUMPDEST PUSH2 0xB3C DUP6 PUSH1 0x1 PUSH2 0x15B9 JUMP JUMPDEST SWAP4 POP POP PUSH2 0xA94 JUMP JUMPDEST PUSH2 0xB4E DUP11 DUP3 PUSH2 0x3FF JUMP JUMPDEST PUSH2 0xB64 JUMPI PUSH1 0x1 DUP5 SWAP8 POP SWAP8 POP POP POP POP POP POP POP PUSH2 0x3F8 JUMP JUMPDEST PUSH2 0xB6E DUP11 DUP3 PUSH2 0x3FF JUMP JUMPDEST DUP1 ISZERO PUSH2 0xB79 JUMPI POP DUP6 DUP5 LT JUMPDEST ISZERO PUSH2 0xB9C JUMPI DUP4 PUSH2 0xB88 DUP2 PUSH2 0x15EE JUMP JUMPDEST SWAP5 POP POP PUSH2 0xB95 DUP11 DUP6 PUSH2 0x932 JUMP JUMPDEST SWAP1 POP PUSH2 0xB64 JUMP JUMPDEST DUP6 DUP5 EQ DUP1 ISZERO PUSH2 0xBB0 JUMPI POP PUSH2 0xBB0 DUP11 DUP3 PUSH2 0x3FF JUMP JUMPDEST ISZERO PUSH2 0xBC7 JUMPI PUSH1 0x0 DUP1 SWAP8 POP SWAP8 POP POP POP POP POP POP POP PUSH2 0x3F8 JUMP JUMPDEST PUSH1 0x1 DUP5 SWAP8 POP SWAP8 POP POP POP POP POP POP POP PUSH2 0x3F8 JUMP JUMPDEST PUSH1 0x1 SLOAD PUSH1 0x40 MLOAD PUSH4 0x87A475FD PUSH1 0xE0 SHL DUP2 MSTORE PUSH1 0x4 DUP2 ADD DUP4 SWAP1 MSTORE PUSH1 0x0 SWAP2 DUP3 SWAP2 DUP3 SWAP2 DUP3 SWAP2 PUSH1 0x1 PUSH1 0x1 PUSH1 0xA0 SHL SUB SWAP1 SWAP2 AND SWAP1 PUSH4 0x87A475FD SWAP1 PUSH1 0x24 ADD PUSH1 0x20 PUSH1 0x40 MLOAD DUP1 DUP4 SUB DUP2 DUP7 GAS STATICCALL ISZERO DUP1 ISZERO PUSH2 0xC2B JUMPI RETURNDATASIZE PUSH1 0x0 DUP1 RETURNDATACOPY RETURNDATASIZE PUSH1 0x0 REVERT JUMPDEST POP POP POP POP PUSH1 0x40 MLOAD RETURNDATASIZE PUSH1 0x1F NOT PUSH1 0x1F DUP3 ADD AND DUP3 ADD DUP1 PUSH1 0x40 MSTORE POP DUP2 ADD SWAP1 PUSH2 0xC4F SWAP2 SWAP1 PUSH2 0x1384 JUMP JUMPDEST SWAP1 POP PUSH1 0x60 PUSH2 0xC62 DUP3 PUSH2 0x274 TIMESTAMP PUSH1 0x1 PUSH2 0x15B9 JUMP JUMPDEST SWAP5 POP SWAP1 POP PUSH1 0x0 DUP5 SWAP1 SUB PUSH2 0xC82 JUMPI PUSH1 0x0 DUP1 PUSH2 0x194 SWAP5 POP SWAP5 POP SWAP5 POP POP POP PUSH2 0xC97 JUMP JUMPDEST PUSH1 0x0 PUSH2 0xC8D DUP3 PUSH2 0xF8D JUMP JUMPDEST SWAP6 POP PUSH1 0xC8 SWAP4 POP POP POP POP JUMPDEST SWAP2 SWAP4 SWAP1 SWAP3 POP JUMP JUMPDEST PUSH1 0x60 DUP1 PUSH1 0x0 DUP1 PUSH2 0xCB2 DUP9 PUSH2 0x2E0 DUP9 DUP11 PUSH2 0x1417 JUMP JUMPDEST SWAP2 POP SWAP2 POP DUP2 PUSH2 0xD03 JUMPI PUSH1 0x40 DUP1 MLOAD PUSH1 0x0 DUP1 DUP3 MSTORE PUSH1 0x20 DUP3 ADD SWAP1 SWAP3 MSTORE SWAP1 PUSH2 0xCE6 JUMP JUMPDEST PUSH1 0x60 DUP2 MSTORE PUSH1 0x20 ADD SWAP1 PUSH1 0x1 SWAP1 SUB SWAP1 DUP2 PUSH2 0xCD1 JUMPI SWAP1 POP JUMPDEST POP PUSH1 0x40 DUP1 MLOAD PUSH1 0x0 DUP2 MSTORE PUSH1 0x20 DUP2 ADD SWAP1 SWAP2 MSTORE SWAP1 SWAP5 POP SWAP3 POP PUSH2 0xF84 SWAP2 POP POP JUMP JUMPDEST PUSH1 0x0 PUSH2 0xD0F DUP10 DUP10 PUSH2 0x37F JUMP JUMPDEST SWAP1 SWAP4 POP SWAP1 POP DUP3 PUSH2 0xD62 JUMPI PUSH1 0x40 DUP1 MLOAD PUSH1 0x0 DUP1 DUP3 MSTORE PUSH1 0x20 DUP3 ADD SWAP1 SWAP3 MSTORE SWAP1 PUSH2 0xD44 JUMP JUMPDEST PUSH1 0x60 DUP2 MSTORE PUSH1 0x20 ADD SWAP1 PUSH1 0x1 SWAP1 SUB SWAP1 DUP2 PUSH2 0xD2F JUMPI SWAP1 POP JUMPDEST POP PUSH1 0x40 DUP1 MLOAD PUSH1 0x0 DUP2 MSTORE PUSH1 0x20 DUP2 ADD SWAP1 SWAP2 MSTORE SWAP1 SWAP6 POP SWAP4 POP PUSH2 0xF84 SWAP3 POP POP POP JUMP JUMPDEST PUSH1 0x0 DUP1 PUSH1 0x0 DUP9 PUSH8 0xFFFFFFFFFFFFFFFF DUP2 GT ISZERO PUSH2 0xD80 JUMPI PUSH2 0xD80 PUSH2 0x103F JUMP JUMPDEST PUSH1 0x40 MLOAD SWAP1 DUP1 DUP3 MSTORE DUP1 PUSH1 0x20 MUL PUSH1 0x20 ADD DUP3 ADD PUSH1 0x40 MSTORE DUP1 ISZERO PUSH2 0xDA9 JUMPI DUP2 PUSH1 0x20 ADD PUSH1 0x20 DUP3 MUL DUP1 CALLDATASIZE DUP4 CALLDATACOPY ADD SWAP1 POP JUMPDEST POP SWAP1 POP JUMPDEST DUP9 DUP4 LT DUP1 ISZERO PUSH2 0xDD0 JUMPI POP DUP5 DUP3 PUSH2 0xDC4 DUP7 PUSH1 0x1 PUSH2 0x15B9 JUMP JUMPDEST PUSH2 0xDCE SWAP2 SWAP1 PUSH2 0x1417 JUMP JUMPDEST GT JUMPDEST ISZERO PUSH2 0xE34 JUMPI PUSH1 0x0 PUSH2 0xDE5 DUP14 PUSH2 0x2BA DUP6 DUP9 PUSH2 0x1417 JUMP JUMPDEST SWAP1 POP PUSH2 0xDF1 DUP14 DUP3 PUSH2 0x3FF JUMP JUMPDEST PUSH2 0xE21 JUMPI DUP1 DUP3 DUP6 DUP2 MLOAD DUP2 LT PUSH2 0xE08 JUMPI PUSH2 0xE08 PUSH2 0x1607 JUMP JUMPDEST PUSH1 0x20 SWAP1 DUP2 MUL SWAP2 SWAP1 SWAP2 ADD ADD MSTORE DUP4 PUSH2 0xE1D DUP2 PUSH2 0x15EE JUMP JUMPDEST SWAP5 POP POP JUMPDEST DUP3 PUSH2 0xE2B DUP2 PUSH2 0x15EE JUMP JUMPDEST SWAP4 POP POP POP PUSH2 0xDAD JUMP JUMPDEST PUSH1 0x0 DUP4 PUSH8 0xFFFFFFFFFFFFFFFF DUP2 GT ISZERO PUSH2 0xE4F JUMPI PUSH2 0xE4F PUSH2 0x103F JUMP JUMPDEST PUSH1 0x40 MLOAD SWAP1 DUP1 DUP3 MSTORE DUP1 PUSH1 0x20 MUL PUSH1 0x20 ADD DUP3 ADD PUSH1 0x40 MSTORE DUP1 ISZERO PUSH2 0xE82 JUMPI DUP2 PUSH1 0x20 ADD JUMPDEST PUSH1 0x60 DUP2 MSTORE PUSH1 0x20 ADD SWAP1 PUSH1 0x1 SWAP1 SUB SWAP1 DUP2 PUSH2 0xE6D JUMPI SWAP1 POP JUMPDEST POP SWAP1 POP PUSH1 0x0 DUP5 PUSH8 0xFFFFFFFFFFFFFFFF DUP2 GT ISZERO PUSH2 0xEA0 JUMPI PUSH2 0xEA0 PUSH2 0x103F JUMP JUMPDEST PUSH1 0x40 MLOAD SWAP1 DUP1 DUP3 MSTORE DUP1 PUSH1 0x20 MUL PUSH1 0x20 ADD DUP3 ADD PUSH1 0x40 MSTORE DUP1 ISZERO PUSH2 0xEC9 JUMPI DUP2 PUSH1 0x20 ADD PUSH1 0x20 DUP3 MUL DUP1 CALLDATASIZE DUP4 CALLDATACOPY ADD SWAP1 POP JUMPDEST POP SWAP1 POP PUSH1 0x0 JUMPDEST DUP6 DUP2 LT ISZERO PUSH2 0xF77 JUMPI DUP4 DUP2 PUSH2 0xEE4 PUSH1 0x1 DUP10 PUSH2 0x1417 JUMP JUMPDEST PUSH2 0xEEE SWAP2 SWAP1 PUSH2 0x1417 JUMP JUMPDEST DUP2 MLOAD DUP2 LT PUSH2 0xEFE JUMPI PUSH2 0xEFE PUSH2 0x1607 JUMP JUMPDEST PUSH1 0x20 MUL PUSH1 0x20 ADD ADD MLOAD DUP3 DUP3 DUP2 MLOAD DUP2 LT PUSH2 0xF18 JUMPI PUSH2 0xF18 PUSH2 0x1607 JUMP JUMPDEST PUSH1 0x20 MUL PUSH1 0x20 ADD ADD DUP2 DUP2 MSTORE POP POP PUSH2 0xF47 DUP16 DUP4 DUP4 DUP2 MLOAD DUP2 LT PUSH2 0xF3A JUMPI PUSH2 0xF3A PUSH2 0x1607 JUMP JUMPDEST PUSH1 0x20 MUL PUSH1 0x20 ADD ADD MLOAD PUSH2 0x8B9 JUMP JUMPDEST DUP4 DUP3 DUP2 MLOAD DUP2 LT PUSH2 0xF59 JUMPI PUSH2 0xF59 PUSH2 0x1607 JUMP JUMPDEST PUSH1 0x20 MUL PUSH1 0x20 ADD ADD DUP2 SWAP1 MSTORE POP DUP1 DUP1 PUSH2 0xF6F SWAP1 PUSH2 0x15EE JUMP JUMPDEST SWAP2 POP POP PUSH2 0xECF JUMP JUMPDEST POP SWAP1 SWAP9 POP SWAP7 POP POP POP POP POP POP POP JUMPDEST SWAP5 POP SWAP5 SWAP3 POP POP POP JUMP JUMPDEST PUSH1 0x0 DUP1 JUMPDEST DUP3 MLOAD DUP2 LT ISZERO PUSH2 0xFDE JUMPI DUP3 DUP2 DUP2 MLOAD DUP2 LT PUSH2 0xFAC JUMPI PUSH2 0xFAC PUSH2 0x1607 JUMP JUMPDEST ADD PUSH1 0x20 ADD MLOAD PUSH1 0xF8 SHR PUSH2 0xFC0 DUP4 PUSH2 0x100 PUSH2 0x161D JUMP JUMPDEST PUSH2 0xFCA SWAP2 SWAP1 PUSH2 0x15B9 JUMP JUMPDEST SWAP2 POP DUP1 PUSH2 0xFD6 DUP2 PUSH2 0x15EE JUMP JUMPDEST SWAP2 POP POP PUSH2 0xF91 JUMP JUMPDEST POP SWAP2 SWAP1 POP JUMP JUMPDEST PUSH1 0x1 PUSH1 0x1 PUSH1 0xA0 SHL SUB DUP2 AND DUP2 EQ PUSH2 0x1E4 JUMPI PUSH1 0x0 DUP1 REVERT JUMPDEST PUSH1 0x0 PUSH1 0x20 DUP3 DUP5 SUB SLT ISZERO PUSH2 0x100B JUMPI PUSH1 0x0 DUP1 REVERT JUMPDEST DUP2 CALLDATALOAD PUSH2 0x1016 DUP2 PUSH2 0xFE4 JUMP JUMPDEST SWAP4 SWAP3 POP POP POP JUMP JUMPDEST PUSH1 0x0 DUP1 PUSH1 0x40 DUP4 DUP6 SUB SLT ISZERO PUSH2 0x1030 JUMPI PUSH1 0x0 DUP1 REVERT JUMPDEST POP POP DUP1 CALLDATALOAD SWAP3 PUSH1 0x20 SWAP1 SWAP2 ADD CALLDATALOAD SWAP2 POP JUMP JUMPDEST PUSH4 0x4E487B71 PUSH1 0xE0 SHL PUSH1 0x0 MSTORE PUSH1 0x41 PUSH1 0x4 MSTORE PUSH1 0x24 PUSH1 0x0 REVERT JUMPDEST PUSH1 0x40 MLOAD PUSH1 0x1F DUP3 ADD PUSH1 0x1F NOT AND DUP2 ADD PUSH8 0xFFFFFFFFFFFFFFFF DUP2 GT DUP3 DUP3 LT OR ISZERO PUSH2 0x107E JUMPI PUSH2 0x107E PUSH2 0x103F JUMP JUMPDEST PUSH1 0x40 MSTORE SWAP2 SWAP1 POP JUMP JUMPDEST PUSH1 0x0 PUSH8 0xFFFFFFFFFFFFFFFF DUP3 GT ISZERO PUSH2 0x10A0 JUMPI PUSH2 0x10A0 PUSH2 0x103F JUMP JUMPDEST POP PUSH1 0x1F ADD PUSH1 0x1F NOT AND PUSH1 0x20 ADD SWAP1 JUMP JUMPDEST PUSH1 0x0 PUSH1 0x20 DUP3 DUP5 SUB SLT ISZERO PUSH2 0x10C0 JUMPI PUSH1 0x0 DUP1 REVERT JUMPDEST DUP2 CALLDATALOAD PUSH8 0xFFFFFFFFFFFFFFFF DUP2 GT ISZERO PUSH2 0x10D7 JUMPI PUSH1 0x0 DUP1 REVERT JUMPDEST DUP3 ADD PUSH1 0x1F DUP2 ADD DUP5 SGT PUSH2 0x10E8 JUMPI PUSH1 0x0 DUP1 REVERT JUMPDEST DUP1 CALLDATALOAD PUSH2 0x10FB PUSH2 0x10F6 DUP3 PUSH2 0x1086 JUMP JUMPDEST PUSH2 0x1055 JUMP JUMPDEST DUP2 DUP2 MSTORE DUP6 PUSH1 0x20 DUP4 DUP6 ADD ADD GT ISZERO PUSH2 0x1110 JUMPI PUSH1 0x0 DUP1 REVERT JUMPDEST DUP2 PUSH1 0x20 DUP5 ADD PUSH1 0x20 DUP4 ADD CALLDATACOPY PUSH1 0x0 SWAP2 DUP2 ADD PUSH1 0x20 ADD SWAP2 SWAP1 SWAP2 MSTORE SWAP5 SWAP4 POP POP POP POP JUMP JUMPDEST PUSH1 0x0 DUP1 PUSH1 0x40 DUP4 DUP6 SUB SLT ISZERO PUSH2 0x1141 JUMPI PUSH1 0x0 DUP1 REVERT JUMPDEST DUP3 CALLDATALOAD PUSH2 0x114C DUP2 PUSH2 0xFE4 JUMP JUMPDEST SWAP5 PUSH1 0x20 SWAP4 SWAP1 SWAP4 ADD CALLDATALOAD SWAP4 POP POP POP JUMP JUMPDEST PUSH1 0x0 JUMPDEST DUP4 DUP2 LT ISZERO PUSH2 0x1175 JUMPI DUP2 DUP2 ADD MLOAD DUP4 DUP3 ADD MSTORE PUSH1 0x20 ADD PUSH2 0x115D JUMP JUMPDEST POP POP PUSH1 0x0 SWAP2 ADD MSTORE JUMP JUMPDEST PUSH1 0x0 DUP2 MLOAD DUP1 DUP5 MSTORE PUSH2 0x1196 DUP2 PUSH1 0x20 DUP7 ADD PUSH1 0x20 DUP7 ADD PUSH2 0x115A JUMP JUMPDEST PUSH1 0x1F ADD PUSH1 0x1F NOT AND SWAP3 SWAP1 SWAP3 ADD PUSH1 0x20 ADD SWAP3 SWAP2 POP POP JUMP JUMPDEST PUSH1 0x40 DUP2 MSTORE PUSH1 0x0 PUSH2 0x11BD PUSH1 0x40 DUP4 ADD DUP6 PUSH2 0x117E JUMP JUMPDEST SWAP1 POP DUP3 PUSH1 0x20 DUP4 ADD MSTORE SWAP4 SWAP3 POP POP POP JUMP JUMPDEST PUSH1 0x40 DUP2 MSTORE PUSH1 0x0 PUSH2 0x11DF PUSH1 0x40 DUP4 ADD DUP6 PUSH2 0x117E JUMP JUMPDEST SWAP1 POP PUSH1 0x1 DUP1 PUSH1 0xA0 SHL SUB DUP4 AND PUSH1 0x20 DUP4 ADD MSTORE SWAP4 SWAP3 POP POP POP JUMP JUMPDEST PUSH1 0x0 PUSH1 0x20 DUP3 DUP5 SUB SLT ISZERO PUSH2 0x1208 JUMPI PUSH1 0x0 DUP1 REVERT JUMPDEST POP CALLDATALOAD SWAP2 SWAP1 POP JUMP JUMPDEST PUSH1 0x0 DUP1 PUSH1 0x0 PUSH1 0x60 DUP5 DUP7 SUB SLT ISZERO PUSH2 0x1224 JUMPI PUSH1 0x0 DUP1 REVERT JUMPDEST DUP4 CALLDATALOAD SWAP3 POP PUSH1 0x20 DUP5 ADD CALLDATALOAD SWAP2 POP PUSH1 0x40 DUP5 ADD CALLDATALOAD PUSH2 0x123D DUP2 PUSH2 0xFE4 JUMP JUMPDEST DUP1 SWAP2 POP POP SWAP3 POP SWAP3 POP SWAP3 JUMP JUMPDEST PUSH1 0x20 DUP2 MSTORE PUSH1 0x0 PUSH2 0x474 PUSH1 0x20 DUP4 ADD DUP5 PUSH2 0x117E JUMP JUMPDEST PUSH1 0x0 DUP1 PUSH1 0x0 DUP1 PUSH1 0x80 DUP6 DUP8 SUB SLT ISZERO PUSH2 0x1271 JUMPI PUSH1 0x0 DUP1 REVERT JUMPDEST POP POP DUP3 CALLDATALOAD SWAP5 PUSH1 0x20 DUP5 ADD CALLDATALOAD SWAP5 POP PUSH1 0x40 DUP5 ADD CALLDATALOAD SWAP4 PUSH1 0x60 ADD CALLDATALOAD SWAP3 POP SWAP1 POP JUMP JUMPDEST PUSH1 0x0 PUSH1 0x40 DUP3 ADD PUSH1 0x40 DUP4 MSTORE DUP1 DUP6 MLOAD DUP1 DUP4 MSTORE PUSH1 0x60 DUP6 ADD SWAP2 POP PUSH1 0x60 DUP2 PUSH1 0x5 SHL DUP7 ADD ADD SWAP3 POP PUSH1 0x20 DUP1 DUP9 ADD PUSH1 0x0 JUMPDEST DUP4 DUP2 LT ISZERO PUSH2 0x12E4 JUMPI PUSH1 0x5F NOT DUP9 DUP8 SUB ADD DUP6 MSTORE PUSH2 0x12D2 DUP7 DUP4 MLOAD PUSH2 0x117E JUMP JUMPDEST SWAP6 POP SWAP4 DUP3 ADD SWAP4 SWAP1 DUP3 ADD SWAP1 PUSH1 0x1 ADD PUSH2 0x12B6 JUMP JUMPDEST POP POP DUP6 DUP5 SUB DUP2 DUP8 ADD MSTORE DUP7 MLOAD DUP1 DUP6 MSTORE DUP8 DUP3 ADD SWAP5 DUP3 ADD SWAP4 POP SWAP2 POP PUSH1 0x0 JUMPDEST DUP3 DUP2 LT ISZERO PUSH2 0x131B JUMPI DUP5 MLOAD DUP5 MSTORE SWAP4 DUP2 ADD SWAP4 SWAP3 DUP2 ADD SWAP3 PUSH1 0x1 ADD PUSH2 0x12FF JUMP JUMPDEST POP SWAP2 SWAP8 SWAP7 POP POP POP POP POP POP POP JUMP JUMPDEST DUP1 MLOAD DUP1 ISZERO ISZERO DUP2 EQ PUSH2 0x1338 JUMPI PUSH1 0x0 DUP1 REVERT JUMPDEST SWAP2 SWAP1 POP JUMP JUMPDEST PUSH1 0x0 DUP1 PUSH1 0x40 DUP4 DUP6 SUB SLT ISZERO PUSH2 0x1350 JUMPI PUSH1 0x0 DUP1 REVERT JUMPDEST PUSH2 0x1359 DUP4 PUSH2 0x1328 JUMP JUMPDEST SWAP2 POP PUSH1 0x20 DUP4 ADD MLOAD SWAP1 POP SWAP3 POP SWAP3 SWAP1 POP JUMP JUMPDEST PUSH1 0x0 PUSH1 0x20 DUP3 DUP5 SUB SLT ISZERO PUSH2 0x137B JUMPI PUSH1 0x0 DUP1 REVERT JUMPDEST PUSH2 0x474 DUP3 PUSH2 0x1328 JUMP JUMPDEST PUSH1 0x0 PUSH1 0x20 DUP3 DUP5 SUB SLT ISZERO PUSH2 0x1396 JUMPI PUSH1 0x0 DUP1 REVERT JUMPDEST POP MLOAD SWAP2 SWAP1 POP JUMP JUMPDEST DUP4 DUP2 MSTORE PUSH1 0x1 PUSH1 0x1 PUSH1 0xA0 SHL SUB DUP4 AND PUSH1 0x20 DUP3 ADD MSTORE PUSH1 0x60 PUSH1 0x40 DUP3 ADD DUP2 SWAP1 MSTORE PUSH1 0x0 SWAP1 PUSH2 0x13C7 SWAP1 DUP4 ADD DUP5 PUSH2 0x117E JUMP JUMPDEST SWAP6 SWAP5 POP POP POP POP POP JUMP JUMPDEST PUSH1 0x40 DUP2 MSTORE PUSH1 0x7 PUSH1 0x40 DUP3 ADD MSTORE PUSH7 0x11559350D85B1B PUSH1 0xCA SHL PUSH1 0x60 DUP3 ADD MSTORE PUSH1 0x80 PUSH1 0x20 DUP3 ADD MSTORE PUSH1 0x0 PUSH2 0x474 PUSH1 0x80 DUP4 ADD DUP5 PUSH2 0x117E JUMP JUMPDEST PUSH4 0x4E487B71 PUSH1 0xE0 SHL PUSH1 0x0 MSTORE PUSH1 0x11 PUSH1 0x4 MSTORE PUSH1 0x24 PUSH1 0x0 REVERT JUMPDEST DUP2 DUP2 SUB DUP2 DUP2 GT ISZERO PUSH2 0x477 JUMPI PUSH2 0x477 PUSH2 0x1401 JUMP JUMPDEST PUSH1 0x0 DUP3 PUSH1 0x1F DUP4 ADD SLT PUSH2 0x143B JUMPI PUSH1 0x0 DUP1 REVERT JUMPDEST DUP2 MLOAD PUSH2 0x1449 PUSH2 0x10F6 DUP3 PUSH2 0x1086 JUMP JUMPDEST DUP2 DUP2 MSTORE DUP5 PUSH1 0x20 DUP4 DUP7 ADD ADD GT ISZERO PUSH2 0x145E JUMPI PUSH1 0x0 DUP1 REVERT JUMPDEST PUSH2 0x146F DUP3 PUSH1 0x20 DUP4 ADD PUSH1 0x20 DUP8 ADD PUSH2 0x115A JUMP JUMPDEST SWAP5 SWAP4 POP POP POP POP JUMP JUMPDEST PUSH1 0x0 DUP1 PUSH1 0x40 DUP4 DUP6 SUB SLT ISZERO PUSH2 0x148A JUMPI PUSH1 0x0 DUP1 REVERT JUMPDEST DUP3 MLOAD PUSH8 0xFFFFFFFFFFFFFFFF DUP2 GT ISZERO PUSH2 0x14A1 JUMPI PUSH1 0x0 DUP1 REVERT JUMPDEST PUSH2 0x14AD DUP6 DUP3 DUP7 ADD PUSH2 0x142A JUMP JUMPDEST SWAP3 POP POP PUSH1 0x20 DUP4 ADD MLOAD SWAP1 POP SWAP3 POP SWAP3 SWAP1 POP JUMP JUMPDEST PUSH1 0x0 PUSH1 0x20 DUP3 DUP5 SUB SLT ISZERO PUSH2 0x14D0 JUMPI PUSH1 0x0 DUP1 REVERT JUMPDEST DUP2 MLOAD PUSH2 0x1016 DUP2 PUSH2 0xFE4 JUMP JUMPDEST PUSH1 0x0 DUP1 PUSH1 0x0 PUSH1 0x60 DUP5 DUP7 SUB SLT ISZERO PUSH2 0x14F0 JUMPI PUSH1 0x0 DUP1 REVERT JUMPDEST PUSH2 0x14F9 DUP5 PUSH2 0x1328 JUMP JUMPDEST SWAP3 POP PUSH1 0x20 DUP5 ADD MLOAD PUSH8 0xFFFFFFFFFFFFFFFF DUP2 GT ISZERO PUSH2 0x1515 JUMPI PUSH1 0x0 DUP1 REVERT JUMPDEST PUSH2 0x1521 DUP7 DUP3 DUP8 ADD PUSH2 0x142A JUMP JUMPDEST SWAP3 POP POP PUSH1 0x40 DUP5 ADD MLOAD SWAP1 POP SWAP3 POP SWAP3 POP SWAP3 JUMP JUMPDEST PUSH1 0x40 DUP2 MSTORE PUSH1 0x11 PUSH1 0x40 DUP3 ADD MSTORE PUSH17 0x43726F7373436861696E42616C616E6365 PUSH1 0x78 SHL PUSH1 0x60 DUP3 ADD MSTORE PUSH1 0x80 PUSH1 0x20 DUP3 ADD MSTORE PUSH1 0x0 PUSH2 0x474 PUSH1 0x80 DUP4 ADD DUP5 PUSH2 0x117E JUMP JUMPDEST PUSH1 0x0 PUSH1 0x20 DUP3 DUP5 SUB SLT ISZERO PUSH2 0x157F JUMPI PUSH1 0x0 DUP1 REVERT JUMPDEST DUP2 MLOAD PUSH8 0xFFFFFFFFFFFFFFFF DUP2 GT ISZERO PUSH2 0x1596 JUMPI PUSH1 0x0 DUP1 REVERT JUMPDEST PUSH2 0x146F DUP5 DUP3 DUP6 ADD PUSH2 0x142A JUMP JUMPDEST PUSH1 0x0 DUP2 PUSH2 0x15B1 JUMPI PUSH2 0x15B1 PUSH2 0x1401 JUMP JUMPDEST POP PUSH1 0x0 NOT ADD SWAP1 JUMP JUMPDEST DUP1 DUP3 ADD DUP1 DUP3 GT ISZERO PUSH2 0x477 JUMPI PUSH2 0x477 PUSH2 0x1401 JUMP JUMPDEST PUSH1 0x0 DUP3 PUSH2 0x15E9 JUMPI PUSH4 0x4E487B71 PUSH1 0xE0 SHL PUSH1 0x0 MSTORE PUSH1 0x12 PUSH1 0x4 MSTORE PUSH1 0x24 PUSH1 0x0 REVERT JUMPDEST POP DIV SWAP1 JUMP JUMPDEST PUSH1 0x0 PUSH1 0x1 DUP3 ADD PUSH2 0x1600 JUMPI PUSH2 0x1600 PUSH2 0x1401 JUMP JUMPDEST POP PUSH1 0x1 ADD SWAP1 JUMP JUMPDEST PUSH4 0x4E487B71 PUSH1 0xE0 SHL PUSH1 0x0 MSTORE PUSH1 0x32 PUSH1 0x4 MSTORE PUSH1 0x24 PUSH1 0x0 REVERT JUMPDEST DUP1 DUP3 MUL DUP2 ISZERO DUP3 DUP3 DIV DUP5 EQ OR PUSH2 0x477 JUMPI PUSH2 0x477 PUSH2 0x1401 JUMP INVALID LOG2 PUSH5 0x6970667358 0x22 SLT KECCAK256 0xE3 PUSH17 0x747E65FBE872F3F8B6D02C255E866284E0 SUB 0xE7 0xE0 KECCAK256 MULMOD 0xAD DUP1 CREATE2 MULMOD 0x5D SWAP15 0x5D PUSH23 0x64736F6C63430008110033000000000000000000000000 "},"methodIdentifiers":{"charon()":"fc571a5c","connectedChainId()":"76fa2590","getCommitment(bytes)":"6b2fd905","getDataAfter(bytes32,uint256)":"64ee3c6d","getDataBefore(bytes32,uint256)":"a792765f","getIndexForDataAfter(bytes32,uint256)":"f66f49c3","getIndexForDataBefore(bytes32,uint256)":"29449085","getMultipleValuesBefore(bytes32,uint256,uint256,uint256)":"fcd4a546","getNewValueCountbyQueryId(bytes32)":"77b03e0d","getReporterByTimestamp(bytes32,uint256)":"e07c5486","getRootHashAndSupply(uint256,uint256,address)":"b6f6869e","getTimestampbyQueryIdandIndex(bytes32,uint256)":"ce5e11bf","idMappingContract()":"2af8aae0","isInDispute(bytes32,uint256)":"44e87f91","retrieveData(bytes32,uint256)":"c5958af9","sendCommitment(bytes)":"51e3aea9","setIdMappingContract(address)":"193b505b","setPartnerInfo(address,uint256)":"56bebf54","tellor()":"1959ad5b","valueFor(bytes32)":"f78eea83"}}}}}