{"contracts/FlatCharon.sol":{"Math":{"abi":[{"inputs":[{"internalType":"uint256","name":"_tokenBalanceIn","type":"uint256"},{"internalType":"uint256","name":"_tokenBalanceOut","type":"uint256"},{"internalType":"uint256","name":"_tokenAmountOut","type":"uint256"},{"internalType":"uint256","name":"_swapFee","type":"uint256"}],"name":"calcInGivenOut","outputs":[{"internalType":"uint256","name":"_tokenAmountIn","type":"uint256"}],"stateMutability":"pure","type":"function"},{"inputs":[{"internalType":"uint256","name":"_tokenBalanceIn","type":"uint256"},{"internalType":"uint256","name":"_tokenBalanceOut","type":"uint256"},{"internalType":"uint256","name":"_tokenAmountIn","type":"uint256"},{"internalType":"uint256","name":"_swapFee","type":"uint256"}],"name":"calcOutGivenIn","outputs":[{"internalType":"uint256","name":"_tokenAmountOut","type":"uint256"}],"stateMutability":"pure","type":"function"},{"inputs":[{"internalType":"uint256","name":"_tokenBalanceIn","type":"uint256"},{"internalType":"uint256","name":"_poolSupply","type":"uint256"},{"internalType":"uint256","name":"_tokenAmountIn","type":"uint256"}],"name":"calcPoolOutGivenSingleIn","outputs":[{"internalType":"uint256","name":"_poolAmountOut","type":"uint256"}],"stateMutability":"pure","type":"function"},{"inputs":[{"internalType":"uint256","name":"_tokenBalanceOut","type":"uint256"},{"internalType":"uint256","name":"_inSupply","type":"uint256"},{"internalType":"uint256","name":"_amountIn","type":"uint256"},{"internalType":"uint256","name":"_swapFee","type":"uint256"},{"internalType":"bool","name":"_isPool","type":"bool"}],"name":"calcSingleOutGivenIn","outputs":[{"internalType":"uint256","name":"_tokenAmountOut","type":"uint256"}],"stateMutability":"pure","type":"function"},{"inputs":[{"internalType":"uint256","name":"_tokenBalanceIn","type":"uint256"},{"internalType":"uint256","name":"_tokenBalanceOut","type":"uint256"},{"internalType":"uint256","name":"_swapFee","type":"uint256"}],"name":"calcSpotPrice","outputs":[{"internalType":"uint256","name":"","type":"uint256"}],"stateMutability":"pure","type":"function"}],"evm":{"bytecode":{"linkReferences":{},"object":"608060405234801561001057600080fd5b506109b2806100206000396000f3fe608060405234801561001057600080fd5b50600436106100575760003560e01c8063436f9be41461005c57806372ee63411461008157806376a38e9114610094578063e0e6236e146100a7578063ea2388d2146100ba575b600080fd5b61006f61006a366004610822565b6100cd565b60405190815260200160405180910390f35b61006f61008f36600461084e565b61010f565b61006f6100a236600461084e565b610170565b61006f6100b5366004610822565b6101ca565b61006f6100c8366004610880565b610249565b6000806100da8585610399565b905060006100f9670de0b6b3a76400006100f486826108e8565b610399565b905061010582826104c0565b9695505050505050565b60008061012483670de0b6b3a76400006108e8565b905061013084826104c0565b90506000610142876100f484826108fb565b9050600061015882670de0b6b3a76400006108e8565b905061016487826104c0565b98975050505050505050565b60008061017d84866108e8565b9050600061018b8683610399565b905060006101a1670de0b6b3a7640000836108e8565b90506101b585670de0b6b3a76400006108e8565b93506101646101c489836104c0565b85610399565b6000806101df83670de0b6b3a76400006104c0565b905060006101ed82876108fb565b905060006101fb8288610399565b905060006102228261021d670de0b6b3a7640000671bc16d674ec80000610399565b61054b565b9050600061023082896104c0565b905061023c88826108e8565b9998505050505050505050565b600080821561031e5761026c670de0b6b3a7640000671bc16d674ec80000610399565b9050600061028286670de0b6b3a76400006104c0565b9050600061029082896108e8565b9050600061029e828a610399565b905060006102b88261021d670de0b6b3a764000088610399565b905060006102c6828d6104c0565b905060006102d4828e6108e8565b905060006102f36102ed89670de0b6b3a76400006108e8565b8c6104c0565b90506103108261030b83670de0b6b3a76400006108e8565b6104c0565b98505050505050505061038f565b600061033285670de0b6b3a76400006108e8565b905061033e86826104c0565b90506000610354670de0b6b3a764000089610399565b9050600061037361036d83670de0b6b3a76400006108e8565b8961054b565b905061037f8a826104c0565b610389908b6108e8565b94505050505b5095945050505050565b6000816000036103df5760405162461bcd60e51b815260206004820152600c60248201526b4552525f4449565f5a45524f60a01b60448201526064015b60405180910390fd5b60006103f384670de0b6b3a764000061090e565b90508315806104125750610407848261093b565b670de0b6b3a7640000145b6104515760405162461bcd60e51b815260206004820152601060248201526f11549497d1125597d25395115493905360821b60448201526064016103d6565b600061045e60028561093b565b61046890836108fb565b9050818110156104ad5760405162461bcd60e51b815260206004820152601060248201526f11549497d1125597d25395115493905360821b60448201526064016103d6565b6104b7848261093b565b95945050505050565b6000806104cd838561090e565b90508315806104e45750826104e2858361093b565b145b6105235760405162461bcd60e51b815260206004820152601060248201526f4552525f4d554c5f4f564552464c4f5760801b60448201526064016103d6565b6000610537826706f05b59d3b200006108fb565b90506104b7670de0b6b3a76400008261093b565b600060018310156105955760405162461bcd60e51b81526020600482015260146024820152734552525f504f575f424153455f544f4f5f4c4f5760601b60448201526064016103d6565b671bc16d674ec7ffff8311156105e55760405162461bcd60e51b815260206004820152601560248201527408aa4a4bea09eaebe8482a68abea89e9ebe90928e9605b1b60448201526064016103d6565b60006105f083610652565b905060006105fe82856108e8565b905060006106148661060f8561066f565b610683565b90508160000361062857925061064c915050565b600061063987846305f5e1006106f8565b905061064582826104c0565b9450505050505b92915050565b600061065d8261066f565b61064c90670de0b6b3a764000061090e565b600061064c670de0b6b3a76400008361093b565b600061069060028361094f565b6000036106a557670de0b6b3a76400006106a7565b825b90506106b460028361093b565b91505b811561064c576106c783846104c0565b92506106d460028361094f565b156106e6576106e381846104c0565b90505b6106f160028361093b565b91506106b7565b600082818061070f87670de0b6b3a76400006107eb565b670de0b6b3a76400009550909250905083600060015b8783106107de57600061074082670de0b6b3a764000061090e565b90506000806107608961075b670de0b6b3a7640000866108e8565b6107eb565b915091506107728661030b848b6104c0565b955061077e8684610399565b955085600003610790575050506107de565b861561079a579315935b80156107a4579315935b84156107bb576107b4868b6108e8565b99506107c8565b6107c5868b6108fb565b99505b50505080806107d690610963565b915050610725565b5050505050509392505050565b60008082841061080a576107ff83856108e8565b60009150915061081b565b61081484846108e8565b6001915091505b9250929050565b60008060006060848603121561083757600080fd5b505081359360208301359350604090920135919050565b6000806000806080858703121561086457600080fd5b5050823594602084013594506040840135936060013592509050565b600080600080600060a0868803121561089857600080fd5b85359450602086013593506040860135925060608601359150608086013580151581146108c457600080fd5b809150509295509295909350565b634e487b7160e01b600052601160045260246000fd5b8181038181111561064c5761064c6108d2565b8082018082111561064c5761064c6108d2565b808202811582820484141761064c5761064c6108d2565b634e487b7160e01b600052601260045260246000fd5b60008261094a5761094a610925565b500490565b60008261095e5761095e610925565b500690565b600060018201610975576109756108d2565b506001019056fea2646970667358221220b37ef3d6e066de5d110edcaeab808fc061946067f1e0b7b015f06cbcceb0fa5f64736f6c63430008110033","opcodes":"PUSH1 0x80 PUSH1 0x40 MSTORE CALLVALUE DUP1 ISZERO PUSH2 0x10 JUMPI PUSH1 0x0 DUP1 REVERT JUMPDEST POP PUSH2 0x9B2 DUP1 PUSH2 0x20 PUSH1 0x0 CODECOPY PUSH1 0x0 RETURN INVALID PUSH1 0x80 PUSH1 0x40 MSTORE CALLVALUE DUP1 ISZERO PUSH2 0x10 JUMPI PUSH1 0x0 DUP1 REVERT JUMPDEST POP PUSH1 0x4 CALLDATASIZE LT PUSH2 0x57 JUMPI PUSH1 0x0 CALLDATALOAD PUSH1 0xE0 SHR DUP1 PUSH4 0x436F9BE4 EQ PUSH2 0x5C JUMPI DUP1 PUSH4 0x72EE6341 EQ PUSH2 0x81 JUMPI DUP1 PUSH4 0x76A38E91 EQ PUSH2 0x94 JUMPI DUP1 PUSH4 0xE0E6236E EQ PUSH2 0xA7 JUMPI DUP1 PUSH4 0xEA2388D2 EQ PUSH2 0xBA JUMPI JUMPDEST PUSH1 0x0 DUP1 REVERT JUMPDEST PUSH2 0x6F PUSH2 0x6A CALLDATASIZE PUSH1 0x4 PUSH2 0x822 JUMP JUMPDEST PUSH2 0xCD JUMP JUMPDEST PUSH1 0x40 MLOAD SWAP1 DUP2 MSTORE PUSH1 0x20 ADD PUSH1 0x40 MLOAD DUP1 SWAP2 SUB SWAP1 RETURN JUMPDEST PUSH2 0x6F PUSH2 0x8F CALLDATASIZE PUSH1 0x4 PUSH2 0x84E JUMP JUMPDEST PUSH2 0x10F JUMP JUMPDEST PUSH2 0x6F PUSH2 0xA2 CALLDATASIZE PUSH1 0x4 PUSH2 0x84E JUMP JUMPDEST PUSH2 0x170 JUMP JUMPDEST PUSH2 0x6F PUSH2 0xB5 CALLDATASIZE PUSH1 0x4 PUSH2 0x822 JUMP JUMPDEST PUSH2 0x1CA JUMP JUMPDEST PUSH2 0x6F PUSH2 0xC8 CALLDATASIZE PUSH1 0x4 PUSH2 0x880 JUMP JUMPDEST PUSH2 0x249 JUMP JUMPDEST PUSH1 0x0 DUP1 PUSH2 0xDA DUP6 DUP6 PUSH2 0x399 JUMP JUMPDEST SWAP1 POP PUSH1 0x0 PUSH2 0xF9 PUSH8 0xDE0B6B3A7640000 PUSH2 0xF4 DUP7 DUP3 PUSH2 0x8E8 JUMP JUMPDEST PUSH2 0x399 JUMP JUMPDEST SWAP1 POP PUSH2 0x105 DUP3 DUP3 PUSH2 0x4C0 JUMP JUMPDEST SWAP7 SWAP6 POP POP POP POP POP POP JUMP JUMPDEST PUSH1 0x0 DUP1 PUSH2 0x124 DUP4 PUSH8 0xDE0B6B3A7640000 PUSH2 0x8E8 JUMP JUMPDEST SWAP1 POP PUSH2 0x130 DUP5 DUP3 PUSH2 0x4C0 JUMP JUMPDEST SWAP1 POP PUSH1 0x0 PUSH2 0x142 DUP8 PUSH2 0xF4 DUP5 DUP3 PUSH2 0x8FB JUMP JUMPDEST SWAP1 POP PUSH1 0x0 PUSH2 0x158 DUP3 PUSH8 0xDE0B6B3A7640000 PUSH2 0x8E8 JUMP JUMPDEST SWAP1 POP PUSH2 0x164 DUP8 DUP3 PUSH2 0x4C0 JUMP JUMPDEST SWAP9 SWAP8 POP POP POP POP POP POP POP POP JUMP JUMPDEST PUSH1 0x0 DUP1 PUSH2 0x17D DUP5 DUP7 PUSH2 0x8E8 JUMP JUMPDEST SWAP1 POP PUSH1 0x0 PUSH2 0x18B DUP7 DUP4 PUSH2 0x399 JUMP JUMPDEST SWAP1 POP PUSH1 0x0 PUSH2 0x1A1 PUSH8 0xDE0B6B3A7640000 DUP4 PUSH2 0x8E8 JUMP JUMPDEST SWAP1 POP PUSH2 0x1B5 DUP6 PUSH8 0xDE0B6B3A7640000 PUSH2 0x8E8 JUMP JUMPDEST SWAP4 POP PUSH2 0x164 PUSH2 0x1C4 DUP10 DUP4 PUSH2 0x4C0 JUMP JUMPDEST DUP6 PUSH2 0x399 JUMP JUMPDEST PUSH1 0x0 DUP1 PUSH2 0x1DF DUP4 PUSH8 0xDE0B6B3A7640000 PUSH2 0x4C0 JUMP JUMPDEST SWAP1 POP PUSH1 0x0 PUSH2 0x1ED DUP3 DUP8 PUSH2 0x8FB JUMP JUMPDEST SWAP1 POP PUSH1 0x0 PUSH2 0x1FB DUP3 DUP9 PUSH2 0x399 JUMP JUMPDEST SWAP1 POP PUSH1 0x0 PUSH2 0x222 DUP3 PUSH2 0x21D PUSH8 0xDE0B6B3A7640000 PUSH8 0x1BC16D674EC80000 PUSH2 0x399 JUMP JUMPDEST PUSH2 0x54B JUMP JUMPDEST SWAP1 POP PUSH1 0x0 PUSH2 0x230 DUP3 DUP10 PUSH2 0x4C0 JUMP JUMPDEST SWAP1 POP PUSH2 0x23C DUP9 DUP3 PUSH2 0x8E8 JUMP JUMPDEST SWAP10 SWAP9 POP POP POP POP POP POP POP POP POP JUMP JUMPDEST PUSH1 0x0 DUP1 DUP3 ISZERO PUSH2 0x31E JUMPI PUSH2 0x26C PUSH8 0xDE0B6B3A7640000 PUSH8 0x1BC16D674EC80000 PUSH2 0x399 JUMP JUMPDEST SWAP1 POP PUSH1 0x0 PUSH2 0x282 DUP7 PUSH8 0xDE0B6B3A7640000 PUSH2 0x4C0 JUMP JUMPDEST SWAP1 POP PUSH1 0x0 PUSH2 0x290 DUP3 DUP10 PUSH2 0x8E8 JUMP JUMPDEST SWAP1 POP PUSH1 0x0 PUSH2 0x29E DUP3 DUP11 PUSH2 0x399 JUMP JUMPDEST SWAP1 POP PUSH1 0x0 PUSH2 0x2B8 DUP3 PUSH2 0x21D PUSH8 0xDE0B6B3A7640000 DUP9 PUSH2 0x399 JUMP JUMPDEST SWAP1 POP PUSH1 0x0 PUSH2 0x2C6 DUP3 DUP14 PUSH2 0x4C0 JUMP JUMPDEST SWAP1 POP PUSH1 0x0 PUSH2 0x2D4 DUP3 DUP15 PUSH2 0x8E8 JUMP JUMPDEST SWAP1 POP PUSH1 0x0 PUSH2 0x2F3 PUSH2 0x2ED DUP10 PUSH8 0xDE0B6B3A7640000 PUSH2 0x8E8 JUMP JUMPDEST DUP13 PUSH2 0x4C0 JUMP JUMPDEST SWAP1 POP PUSH2 0x310 DUP3 PUSH2 0x30B DUP4 PUSH8 0xDE0B6B3A7640000 PUSH2 0x8E8 JUMP JUMPDEST PUSH2 0x4C0 JUMP JUMPDEST SWAP9 POP POP POP POP POP POP POP POP PUSH2 0x38F JUMP JUMPDEST PUSH1 0x0 PUSH2 0x332 DUP6 PUSH8 0xDE0B6B3A7640000 PUSH2 0x8E8 JUMP JUMPDEST SWAP1 POP PUSH2 0x33E DUP7 DUP3 PUSH2 0x4C0 JUMP JUMPDEST SWAP1 POP PUSH1 0x0 PUSH2 0x354 PUSH8 0xDE0B6B3A7640000 DUP10 PUSH2 0x399 JUMP JUMPDEST SWAP1 POP PUSH1 0x0 PUSH2 0x373 PUSH2 0x36D DUP4 PUSH8 0xDE0B6B3A7640000 PUSH2 0x8E8 JUMP JUMPDEST DUP10 PUSH2 0x54B JUMP JUMPDEST SWAP1 POP PUSH2 0x37F DUP11 DUP3 PUSH2 0x4C0 JUMP JUMPDEST PUSH2 0x389 SWAP1 DUP12 PUSH2 0x8E8 JUMP JUMPDEST SWAP5 POP POP POP POP JUMPDEST POP SWAP6 SWAP5 POP POP POP POP POP JUMP JUMPDEST PUSH1 0x0 DUP2 PUSH1 0x0 SUB PUSH2 0x3DF JUMPI PUSH1 0x40 MLOAD PUSH3 0x461BCD PUSH1 0xE5 SHL DUP2 MSTORE PUSH1 0x20 PUSH1 0x4 DUP3 ADD MSTORE PUSH1 0xC PUSH1 0x24 DUP3 ADD MSTORE PUSH12 0x4552525F4449565F5A45524F PUSH1 0xA0 SHL PUSH1 0x44 DUP3 ADD MSTORE PUSH1 0x64 ADD JUMPDEST PUSH1 0x40 MLOAD DUP1 SWAP2 SUB SWAP1 REVERT JUMPDEST PUSH1 0x0 PUSH2 0x3F3 DUP5 PUSH8 0xDE0B6B3A7640000 PUSH2 0x90E JUMP JUMPDEST SWAP1 POP DUP4 ISZERO DUP1 PUSH2 0x412 JUMPI POP PUSH2 0x407 DUP5 DUP3 PUSH2 0x93B JUMP JUMPDEST PUSH8 0xDE0B6B3A7640000 EQ JUMPDEST PUSH2 0x451 JUMPI PUSH1 0x40 MLOAD PUSH3 0x461BCD PUSH1 0xE5 SHL DUP2 MSTORE PUSH1 0x20 PUSH1 0x4 DUP3 ADD MSTORE PUSH1 0x10 PUSH1 0x24 DUP3 ADD MSTORE PUSH16 0x11549497D1125597D253951154939053 PUSH1 0x82 SHL PUSH1 0x44 DUP3 ADD MSTORE PUSH1 0x64 ADD PUSH2 0x3D6 JUMP JUMPDEST PUSH1 0x0 PUSH2 0x45E PUSH1 0x2 DUP6 PUSH2 0x93B JUMP JUMPDEST PUSH2 0x468 SWAP1 DUP4 PUSH2 0x8FB JUMP JUMPDEST SWAP1 POP DUP2 DUP2 LT ISZERO PUSH2 0x4AD JUMPI PUSH1 0x40 MLOAD PUSH3 0x461BCD PUSH1 0xE5 SHL DUP2 MSTORE PUSH1 0x20 PUSH1 0x4 DUP3 ADD MSTORE PUSH1 0x10 PUSH1 0x24 DUP3 ADD MSTORE PUSH16 0x11549497D1125597D253951154939053 PUSH1 0x82 SHL PUSH1 0x44 DUP3 ADD MSTORE PUSH1 0x64 ADD PUSH2 0x3D6 JUMP JUMPDEST PUSH2 0x4B7 DUP5 DUP3 PUSH2 0x93B JUMP JUMPDEST SWAP6 SWAP5 POP POP POP POP POP JUMP JUMPDEST PUSH1 0x0 DUP1 PUSH2 0x4CD DUP4 DUP6 PUSH2 0x90E JUMP JUMPDEST SWAP1 POP DUP4 ISZERO DUP1 PUSH2 0x4E4 JUMPI POP DUP3 PUSH2 0x4E2 DUP6 DUP4 PUSH2 0x93B JUMP JUMPDEST EQ JUMPDEST PUSH2 0x523 JUMPI PUSH1 0x40 MLOAD PUSH3 0x461BCD PUSH1 0xE5 SHL DUP2 MSTORE PUSH1 0x20 PUSH1 0x4 DUP3 ADD MSTORE PUSH1 0x10 PUSH1 0x24 DUP3 ADD MSTORE PUSH16 0x4552525F4D554C5F4F564552464C4F57 PUSH1 0x80 SHL PUSH1 0x44 DUP3 ADD MSTORE PUSH1 0x64 ADD PUSH2 0x3D6 JUMP JUMPDEST PUSH1 0x0 PUSH2 0x537 DUP3 PUSH8 0x6F05B59D3B20000 PUSH2 0x8FB JUMP JUMPDEST SWAP1 POP PUSH2 0x4B7 PUSH8 0xDE0B6B3A7640000 DUP3 PUSH2 0x93B JUMP JUMPDEST PUSH1 0x0 PUSH1 0x1 DUP4 LT ISZERO PUSH2 0x595 JUMPI PUSH1 0x40 MLOAD PUSH3 0x461BCD PUSH1 0xE5 SHL DUP2 MSTORE PUSH1 0x20 PUSH1 0x4 DUP3 ADD MSTORE PUSH1 0x14 PUSH1 0x24 DUP3 ADD MSTORE PUSH20 0x4552525F504F575F424153455F544F4F5F4C4F57 PUSH1 0x60 SHL PUSH1 0x44 DUP3 ADD MSTORE PUSH1 0x64 ADD PUSH2 0x3D6 JUMP JUMPDEST PUSH8 0x1BC16D674EC7FFFF DUP4 GT ISZERO PUSH2 0x5E5 JUMPI PUSH1 0x40 MLOAD PUSH3 0x461BCD PUSH1 0xE5 SHL DUP2 MSTORE PUSH1 0x20 PUSH1 0x4 DUP3 ADD MSTORE PUSH1 0x15 PUSH1 0x24 DUP3 ADD MSTORE PUSH21 0x8AA4A4BEA09EAEBE8482A68ABEA89E9EBE90928E9 PUSH1 0x5B SHL PUSH1 0x44 DUP3 ADD MSTORE PUSH1 0x64 ADD PUSH2 0x3D6 JUMP JUMPDEST PUSH1 0x0 PUSH2 0x5F0 DUP4 PUSH2 0x652 JUMP JUMPDEST SWAP1 POP PUSH1 0x0 PUSH2 0x5FE DUP3 DUP6 PUSH2 0x8E8 JUMP JUMPDEST SWAP1 POP PUSH1 0x0 PUSH2 0x614 DUP7 PUSH2 0x60F DUP6 PUSH2 0x66F JUMP JUMPDEST PUSH2 0x683 JUMP JUMPDEST SWAP1 POP DUP2 PUSH1 0x0 SUB PUSH2 0x628 JUMPI SWAP3 POP PUSH2 0x64C SWAP2 POP POP JUMP JUMPDEST PUSH1 0x0 PUSH2 0x639 DUP8 DUP5 PUSH4 0x5F5E100 PUSH2 0x6F8 JUMP JUMPDEST SWAP1 POP PUSH2 0x645 DUP3 DUP3 PUSH2 0x4C0 JUMP JUMPDEST SWAP5 POP POP POP POP POP JUMPDEST SWAP3 SWAP2 POP POP JUMP JUMPDEST PUSH1 0x0 PUSH2 0x65D DUP3 PUSH2 0x66F JUMP JUMPDEST PUSH2 0x64C SWAP1 PUSH8 0xDE0B6B3A7640000 PUSH2 0x90E JUMP JUMPDEST PUSH1 0x0 PUSH2 0x64C PUSH8 0xDE0B6B3A7640000 DUP4 PUSH2 0x93B JUMP JUMPDEST PUSH1 0x0 PUSH2 0x690 PUSH1 0x2 DUP4 PUSH2 0x94F JUMP JUMPDEST PUSH1 0x0 SUB PUSH2 0x6A5 JUMPI PUSH8 0xDE0B6B3A7640000 PUSH2 0x6A7 JUMP JUMPDEST DUP3 JUMPDEST SWAP1 POP PUSH2 0x6B4 PUSH1 0x2 DUP4 PUSH2 0x93B JUMP JUMPDEST SWAP2 POP JUMPDEST DUP2 ISZERO PUSH2 0x64C JUMPI PUSH2 0x6C7 DUP4 DUP5 PUSH2 0x4C0 JUMP JUMPDEST SWAP3 POP PUSH2 0x6D4 PUSH1 0x2 DUP4 PUSH2 0x94F JUMP JUMPDEST ISZERO PUSH2 0x6E6 JUMPI PUSH2 0x6E3 DUP2 DUP5 PUSH2 0x4C0 JUMP JUMPDEST SWAP1 POP JUMPDEST PUSH2 0x6F1 PUSH1 0x2 DUP4 PUSH2 0x93B JUMP JUMPDEST SWAP2 POP PUSH2 0x6B7 JUMP JUMPDEST PUSH1 0x0 DUP3 DUP2 DUP1 PUSH2 0x70F DUP8 PUSH8 0xDE0B6B3A7640000 PUSH2 0x7EB JUMP JUMPDEST PUSH8 0xDE0B6B3A7640000 SWAP6 POP SWAP1 SWAP3 POP SWAP1 POP DUP4 PUSH1 0x0 PUSH1 0x1 JUMPDEST DUP8 DUP4 LT PUSH2 0x7DE JUMPI PUSH1 0x0 PUSH2 0x740 DUP3 PUSH8 0xDE0B6B3A7640000 PUSH2 0x90E JUMP JUMPDEST SWAP1 POP PUSH1 0x0 DUP1 PUSH2 0x760 DUP10 PUSH2 0x75B PUSH8 0xDE0B6B3A7640000 DUP7 PUSH2 0x8E8 JUMP JUMPDEST PUSH2 0x7EB JUMP JUMPDEST SWAP2 POP SWAP2 POP PUSH2 0x772 DUP7 PUSH2 0x30B DUP5 DUP12 PUSH2 0x4C0 JUMP JUMPDEST SWAP6 POP PUSH2 0x77E DUP7 DUP5 PUSH2 0x399 JUMP JUMPDEST SWAP6 POP DUP6 PUSH1 0x0 SUB PUSH2 0x790 JUMPI POP POP POP PUSH2 0x7DE JUMP JUMPDEST DUP7 ISZERO PUSH2 0x79A JUMPI SWAP4 ISZERO SWAP4 JUMPDEST DUP1 ISZERO PUSH2 0x7A4 JUMPI SWAP4 ISZERO SWAP4 JUMPDEST DUP5 ISZERO PUSH2 0x7BB JUMPI PUSH2 0x7B4 DUP7 DUP12 PUSH2 0x8E8 JUMP JUMPDEST SWAP10 POP PUSH2 0x7C8 JUMP JUMPDEST PUSH2 0x7C5 DUP7 DUP12 PUSH2 0x8FB JUMP JUMPDEST SWAP10 POP JUMPDEST POP POP POP DUP1 DUP1 PUSH2 0x7D6 SWAP1 PUSH2 0x963 JUMP JUMPDEST SWAP2 POP POP PUSH2 0x725 JUMP JUMPDEST POP POP POP POP POP POP SWAP4 SWAP3 POP POP POP JUMP JUMPDEST PUSH1 0x0 DUP1 DUP3 DUP5 LT PUSH2 0x80A JUMPI PUSH2 0x7FF DUP4 DUP6 PUSH2 0x8E8 JUMP JUMPDEST PUSH1 0x0 SWAP2 POP SWAP2 POP PUSH2 0x81B JUMP JUMPDEST PUSH2 0x814 DUP5 DUP5 PUSH2 0x8E8 JUMP JUMPDEST PUSH1 0x1 SWAP2 POP SWAP2 POP JUMPDEST SWAP3 POP SWAP3 SWAP1 POP JUMP JUMPDEST PUSH1 0x0 DUP1 PUSH1 0x0 PUSH1 0x60 DUP5 DUP7 SUB SLT ISZERO PUSH2 0x837 JUMPI PUSH1 0x0 DUP1 REVERT JUMPDEST POP POP DUP2 CALLDATALOAD SWAP4 PUSH1 0x20 DUP4 ADD CALLDATALOAD SWAP4 POP PUSH1 0x40 SWAP1 SWAP3 ADD CALLDATALOAD SWAP2 SWAP1 POP JUMP JUMPDEST PUSH1 0x0 DUP1 PUSH1 0x0 DUP1 PUSH1 0x80 DUP6 DUP8 SUB SLT ISZERO PUSH2 0x864 JUMPI PUSH1 0x0 DUP1 REVERT JUMPDEST POP POP DUP3 CALLDATALOAD SWAP5 PUSH1 0x20 DUP5 ADD CALLDATALOAD SWAP5 POP PUSH1 0x40 DUP5 ADD CALLDATALOAD SWAP4 PUSH1 0x60 ADD CALLDATALOAD SWAP3 POP SWAP1 POP JUMP JUMPDEST PUSH1 0x0 DUP1 PUSH1 0x0 DUP1 PUSH1 0x0 PUSH1 0xA0 DUP7 DUP9 SUB SLT ISZERO PUSH2 0x898 JUMPI PUSH1 0x0 DUP1 REVERT JUMPDEST DUP6 CALLDATALOAD SWAP5 POP PUSH1 0x20 DUP7 ADD CALLDATALOAD SWAP4 POP PUSH1 0x40 DUP7 ADD CALLDATALOAD SWAP3 POP PUSH1 0x60 DUP7 ADD CALLDATALOAD SWAP2 POP PUSH1 0x80 DUP7 ADD CALLDATALOAD DUP1 ISZERO ISZERO DUP2 EQ PUSH2 0x8C4 JUMPI PUSH1 0x0 DUP1 REVERT JUMPDEST DUP1 SWAP2 POP POP SWAP3 SWAP6 POP SWAP3 SWAP6 SWAP1 SWAP4 POP JUMP JUMPDEST PUSH4 0x4E487B71 PUSH1 0xE0 SHL PUSH1 0x0 MSTORE PUSH1 0x11 PUSH1 0x4 MSTORE PUSH1 0x24 PUSH1 0x0 REVERT JUMPDEST DUP2 DUP2 SUB DUP2 DUP2 GT ISZERO PUSH2 0x64C JUMPI PUSH2 0x64C PUSH2 0x8D2 JUMP JUMPDEST DUP1 DUP3 ADD DUP1 DUP3 GT ISZERO PUSH2 0x64C JUMPI PUSH2 0x64C PUSH2 0x8D2 JUMP JUMPDEST DUP1 DUP3 MUL DUP2 ISZERO DUP3 DUP3 DIV DUP5 EQ OR PUSH2 0x64C JUMPI PUSH2 0x64C PUSH2 0x8D2 JUMP JUMPDEST PUSH4 0x4E487B71 PUSH1 0xE0 SHL PUSH1 0x0 MSTORE PUSH1 0x12 PUSH1 0x4 MSTORE PUSH1 0x24 PUSH1 0x0 REVERT JUMPDEST PUSH1 0x0 DUP3 PUSH2 0x94A JUMPI PUSH2 0x94A PUSH2 0x925 JUMP JUMPDEST POP DIV SWAP1 JUMP JUMPDEST PUSH1 0x0 DUP3 PUSH2 0x95E JUMPI PUSH2 0x95E PUSH2 0x925 JUMP JUMPDEST POP MOD SWAP1 JUMP JUMPDEST PUSH1 0x0 PUSH1 0x1 DUP3 ADD PUSH2 0x975 JUMPI PUSH2 0x975 PUSH2 0x8D2 JUMP JUMPDEST POP PUSH1 0x1 ADD SWAP1 JUMP INVALID LOG2 PUSH5 0x6970667358 0x22 SLT KECCAK256 0xB3 PUSH31 0xF3D6E066DE5D110EDCAEAB808FC061946067F1E0B7B015F06CBCCEB0FA5F64 PUSH20 0x6F6C634300081100330000000000000000000000 "},"methodIdentifiers":{"calcInGivenOut(uint256,uint256,uint256,uint256)":"76a38e91","calcOutGivenIn(uint256,uint256,uint256,uint256)":"72ee6341","calcPoolOutGivenSingleIn(uint256,uint256,uint256)":"e0e6236e","calcSingleOutGivenIn(uint256,uint256,uint256,uint256,bool)":"ea2388d2","calcSpotPrice(uint256,uint256,uint256)":"436f9be4"}}}}}