{"contracts/Verifier16.sol":{"Verifier16":{"abi":[{"inputs":[{"internalType":"uint256[2]","name":"a","type":"uint256[2]"},{"internalType":"uint256[2][2]","name":"b","type":"uint256[2][2]"},{"internalType":"uint256[2]","name":"c","type":"uint256[2]"},{"internalType":"uint256[22]","name":"input","type":"uint256[22]"}],"name":"verifyProof","outputs":[{"internalType":"bool","name":"r","type":"bool"}],"stateMutability":"view","type":"function"}],"evm":{"bytecode":{"linkReferences":{},"object":"608060405234801561001057600080fd5b506117ea806100206000396000f3fe608060405234801561001057600080fd5b506004361061002b5760003560e01c8063c5a0fc2614610030575b600080fd5b61012d60048036036103c081101561004757600080fd5b6040805180820182529183019291818301918390600290839083908082843760009201829052506040805180820190915293969594608081019493509150600290835b828210156100c8576040805180820182529080840286019060029083908390808284376000920191909152505050815260019091019060200161008a565b5050604080518082018252939695948181019493509150600290839083908082843760009201919091525050604080516102c0818101909252929594938181019392509060169083908390808284376000920191909152509194506101419350505050565b604080519115158252519081900360200190f35b600061014b611689565b604080518082018252875181526020808901518183015290835281516080810183528751518184019081528851830151606080840191909152908252835180850185528984018051518252518401518185015282840152848301919091528251808401845287518152878301518184015284840152825160168082526102e082019094529092909182016102c08036833701905050905060005b601681101561021e578481601681106101fa57fe5b602002015182828151811061020b57fe5b60209081029190910101526001016101e5565b506102298183610247565b6102385760019250505061023f565b6000925050505b949350505050565b60007f30644e72e131a029b85045b68181585d2833e84879b9709143e1f593f00000016102726116bb565b61027a610423565b90508060800151518551600101146102ce576040805162461bcd60e51b81526020600482015260126024820152711d995c9a599a595c8b5898590b5a5b9c1d5d60721b604482015290519081900360640190fd5b6102d6611702565b6040518060400160405280600081526020016000815250905060005b86518110156103ac578387828151811061030857fe5b602002602001015110610362576040805162461bcd60e51b815260206004820152601f60248201527f76657269666965722d6774652d736e61726b2d7363616c61722d6669656c6400604482015290519081900360640190fd5b6103a28261039d8560800151846001018151811061037c57fe5b60200260200101518a858151811061039057fe5b60200260200101516110e9565b61117e565b91506001016102f2565b506103cf8183608001516000815181106103c257fe5b602002602001015161117e565b90506104056103e1866000015161120f565b8660200151846000015185602001518587604001518b60400151896060015161129b565b610415576001935050505061041d565b600093505050505b92915050565b61042b6116bb565b6040805180820182527f2d4d9aa7e302d9df41749d5507949d05dbea33fbb16c643b22f599a2be6df2e281527f14bedd503c37ceb061d8ec60209fe345ce89830a19230301f076caff004d19266020808301919091529083528151608080820184527f0967032fcbf776d1afc985f88877f182d38480a653f2decaa9794cbc3bf3060c8285019081527f0e187847ad4c798374d0d6732bf501847dd68bc0e071241e0213bc7fc13db7ab606080850191909152908352845180860186527f304cfbd1e08a704a99f5e847d93f8c3caafddec46b7a0d379da69a4d112346a781527f1739c1b1a457a8c7313123d24d2f9192f896b7c63eea05a9d57f06547ad0cec8818601528385015285840192909252835180820185527f198e9393920d483a7260bfb731fb5d25f1aa493335a9e71297e485b7aef312c28186019081527f1800deef121f1e76426a00665e5c4479674322d4f75edadd46debd5cd992f6ed828501528152845180860186527f090689d0585ff075ec9e99ad690c3395bc4b313370b38ef355acdadcd122975b81527f12c85ea5db8c6deb4aab71808dcb408fe3d1e7690c43d37b4ce6cc0166fa7daa818601528185015285850152835190810184527f0f4f1cb048f135552963aebe0ed46a936c03d57a44808d5d4d925f8f409dab408185019081527f2fbf37bbed06409734c3d70c09a9d0877f280773d83e0085ba8471035823dc2b828401528152835180850185527f0a466d51e423785cdc8757e35b6fad6861c6ccd4344da91e3117c347d5b89dc081527f23cf78cf3db555b3d5aa24cba6a57e9cdadb634181bb8008735466d63f58172f818501528184015290840152815160178082526103008201909352919082015b6106af611702565b8152602001906001900390816106a757505060808201908152604080518082019091527f1ed14221a56a3be5e34a6dda44427b83e9c7cb23a18e795cfabb9bdd6b55b69081527f09ba26a7282ba1313ed16ef64cf704102352ad9e402b619fa17be0d7fbb4460d60208201529051805160009061072857fe5b602002602001018190525060405180604001604052807e37f4075a50088f5699c8f1abfd342edab83dee54824d2c86ddd17b97d46ff581526020017f18376305d3403b1b49de6232e61624bd22e4825df0f0fee38a471172c54b4d05815250816080015160018151811061079857fe5b602002602001018190525060405180604001604052807f15858e8e7c2324be28afc2c3580fee1156864a04a676fc9cc221737f3424583d81526020017f2e59e46aa91b5719328445873a1290dddd9e5fdb43681e84c4dccda11aee6ed2815250816080015160028151811061080957fe5b602002602001018190525060405180604001604052807f2d15f432c82a662605c99e1c0da0b3ef853c688a166a3bf3fa6742c94f38ae2e81526020017e824d08f95a3efcd7edf913476fd212f042f11a2984c1bdff8db6f2eeadaa06815250816080015160038151811061087957fe5b602002602001018190525060405180604001604052807f112763dd6f491d0ddaf59bcb16f93b5d974959412392622774fa30e160c41e6381526020017f2e3192e937f3fc468668c7a98a14f958795206019df77d28726f64c627dfe68e81525081608001516004815181106108ea57fe5b602002602001018190525060405180604001604052807f2f616a7fa452a9cc2a5b2fbece6ab362f81ed9446da03705421414948159b40081526020017f1ee0bdbd322397a4316e4d6baf949e3120b5aef743252234cc26971da0dd4db7815250816080015160058151811061095b57fe5b602002602001018190525060405180604001604052807f19ee06e656def8376ac699da775a37ad73aef40427927ba998d8ac345d0ef08b81526020017f08607cf00999060f270bdb4e998ffbb6bebbd52983a4039af879239c7385af4e81525081608001516006815181106109cc57fe5b602002602001018190525060405180604001604052807f0762e5ecfafb6bd6c4931a2e7c3f2dca3401efa014a1951cbe19ad9363f4df8181526020017f14bfce27ab612807c27b0bc2287e32d0143d8470ee9b47b93360a3e148f16c438152508160800151600781518110610a3d57fe5b602002602001018190525060405180604001604052807f2aec12f6993aa80c9df9e3c16170f8368a6c6c7fa3efd2883adaab2e8ac43d7b81526020017f268ed4076ca2c65a973fad1ad260c83139601bede94558a36a726bc40dc257b28152508160800151600881518110610aae57fe5b602002602001018190525060405180604001604052807f045eae55b4077388f42d417bf541a056fb3b79f36142bf4b7b11519b3986df1781526020017f06a4d45477f4408e286746f8d84a1f407cebbf294695fcb6acccc79ff91e77d98152508160800151600981518110610b1f57fe5b602002602001018190525060405180604001604052807f01304b49de0c4fa0bd5f928e1740ae3ba8e1f90d3ecbdb71d20723a96f9ec86881526020017f24ba17fa812a308cea05a94b1f4434c956e5c58ab43efad13afee24fff7552658152508160800151600a81518110610b9057fe5b602002602001018190525060405180604001604052807f1b77ffa1d47152228659f16adc91850e05df3e93300f8459b9878e3150a11b4b81526020017e86dd4fdd6ee5174edc58139c906eff402aa568e042dd22b3ada0dfed69d4198152508160800151600b81518110610c0057fe5b602002602001018190525060405180604001604052807f2889d24adffc608607dcd82335a44ed6c3490c10ce3cf5c78d2717204784ac8181526020017f2be164d161c5170c122d4b6b4c6a77fa64b4201dd9216e4982e15f6f5d293d938152508160800151600c81518110610c7157fe5b602002602001018190525060405180604001604052807f02f52ce7b06f9cc11ecd52ab3e8056718f8cd9b796c3f8b4e15bd96a62cca38081526020017f1014d411eeac9c94cdefa957fdbf4310127072f7d8d9eb3a803ab869eb2bf95c8152508160800151600d81518110610ce257fe5b602002602001018190525060405180604001604052807f1f8efa90dcce33f1e9917ddeac9e5696189ea5585f70bb01fa777f510c52808181526020017f303026d8a456d0592963d7be7b30337a5658f3723940daf7a530225afc3499598152508160800151600e81518110610d5357fe5b602002602001018190525060405180604001604052807f06c3fd1a8793dc3bbdb7696fd34c8cf4dc6044a518dc2f74e3dde9eb950f2c9d81526020017f0fc0be759fed31d4565ae9997cc2020a4e5b09beed7d1b25451b2372bfecb7c88152508160800151600f81518110610dc457fe5b602002602001018190525060405180604001604052807f04c76a21026846f6d6b1ae72ed3c82e9794a60c4492c767de8d4d1a4ccf6738e81526020017f0adbb9c8f85125b85f83456776f792037f791cfb3470c96125ce14715c60e3048152508160800151601081518110610e3557fe5b602002602001018190525060405180604001604052807f303c888cad66eb6851f5dddc64edfefec5fcfaf67567dd385520995ef485596c81526020017f1cb96c5fccc414f053c108cb19987cee4972bbee050eab1f338d50b033fc84868152508160800151601181518110610ea657fe5b602002602001018190525060405180604001604052807f294280c60fa9a6fea9c0bdcffc814307d8aaa9ec31724113f1eeedd161d5761681526020017f2bb8732c9903ae1de170d5362aa97a9309940405611d5f3094eeb18632b130668152508160800151601281518110610f1757fe5b602002602001018190525060405180604001604052807f1cb5b25c1010155e672597ae580ab949e3877a08d7dff621deb052397684201581526020017f18b21c726143598a7c24182e9515d4f19902562cf296f468cf182a8e1c3af5298152508160800151601381518110610f8857fe5b602002602001018190525060405180604001604052807f0d631f36b0e1d519907a212dcd2fa68415680e84788f74573b28390487d53cf981526020017f0aa55ae92c56a7dba7b9f315a214231f4a6aed3dcd35d9f0d2a4107aaa23f1768152508160800151601481518110610ff957fe5b602002602001018190525060405180604001604052807f1d1c550bf72d15f5e73413c1634930c4365eb78d7bc42f73949d3a200831780c81526020017f07b88dc81948d7bb64043c738a8383116a57d86316129eb4ee81f12fd83005d2815250816080015160158151811061106a57fe5b602002602001018190525060405180604001604052807f1304d601096f788e0981067f275814ce869e957ef1f3150574a542628aa271cf81526020017f2a8ee97ab74b1e604ad78d81fd468a3a6b0922676243dd675e8f5dc2177728ac81525081608001516016815181106110db57fe5b602002602001018190525090565b6110f1611702565b6110f961171c565b835181526020808501519082015260408101839052600060608360808460076107d05a03fa905080801561112c5761112e565bfe5b5080611176576040805162461bcd60e51b81526020600482015260126024820152711c185a5c9a5b99cb5b5d5b0b59985a5b195960721b604482015290519081900360640190fd5b505092915050565b611186611702565b61118e61173a565b8351815260208085015181830152835160408301528301516060808301919091526000908360c08460066107d05a03fa905080801561112c575080611176576040805162461bcd60e51b81526020600482015260126024820152711c185a5c9a5b99cb5859190b59985a5b195960721b604482015290519081900360640190fd5b611217611702565b81517f30644e72e131a029b85045b68181585d97816a916871ca8d3c208c16d87cfd479015801561124a57506020830151155b1561126a5750506040805180820190915260008082526020820152611296565b6040518060400160405280846000015181526020018285602001518161128c57fe5b0683038152509150505b919050565b60408051600480825260a0820190925260009160609190816020015b6112bf611702565b8152602001906001900390816112b757505060408051600480825260a0820190925291925060609190602082015b6112f5611758565b8152602001906001900390816112ed5790505090508a8260008151811061131857fe5b6020026020010181905250888260018151811061133157fe5b6020026020010181905250868260028151811061134a57fe5b6020026020010181905250848260038151811061136357fe5b6020026020010181905250898160008151811061137c57fe5b6020026020010181905250878160018151811061139557fe5b602002602001018190525085816002815181106113ae57fe5b602002602001018190525083816003815181106113c757fe5b60200260200101819052506113dc82826113eb565b9b9a5050505050505050505050565b6000815183511461143c576040805162461bcd60e51b81526020600482015260166024820152751c185a5c9a5b99cb5b195b99dd1a1ccb59985a5b195960521b604482015290519081900360640190fd5b8251600681026060816001600160401b038111801561145a57600080fd5b50604051908082528060200260200182016040528015611484578160200160208202803683370190505b50905060005b838110156116095786818151811061149e57fe5b6020026020010151600001518282600602600001815181106114bc57fe5b6020026020010181815250508681815181106114d457fe5b6020026020010151602001518282600602600101815181106114f257fe5b60200260200101818152505085818151811061150a57fe5b60209081029190910101515151825183906002600685020190811061152b57fe5b60200260200101818152505085818151811061154357fe5b6020908102919091010151516001602002015182826006026003018151811061156857fe5b60200260200101818152505085818151811061158057fe5b60200260200101516020015160006002811061159857fe5b60200201518282600602600401815181106115af57fe5b6020026020010181815250508581815181106115c757fe5b6020026020010151602001516001600281106115df57fe5b60200201518282600602600501815181106115f657fe5b602090810291909101015260010161148a565b50611612611778565b6000602082602086026020860160086107d05a03fa905080801561112c57508061167b576040805162461bcd60e51b81526020600482015260156024820152741c185a5c9a5b99cb5bdc18dbd9194b59985a5b1959605a1b604482015290519081900360640190fd5b505115159695505050505050565b604051806060016040528061169c611702565b81526020016116a9611758565b81526020016116b6611702565b905290565b6040518060a001604052806116ce611702565b81526020016116db611758565b81526020016116e8611758565b81526020016116f5611758565b8152602001606081525090565b604051806040016040528060008152602001600081525090565b60405180606001604052806003906020820280368337509192915050565b60405180608001604052806004906020820280368337509192915050565b604051806040016040528061176b611796565b81526020016116b6611796565b60405180602001604052806001906020820280368337509192915050565b6040518060400160405280600290602082028036833750919291505056fea2646970667358221220d612bc2e3e63ddca5ec62b07a63dd87966bb6ca46c68bd7078485cf254c8fc1164736f6c634300060c0033","opcodes":"PUSH1 0x80 PUSH1 0x40 MSTORE CALLVALUE DUP1 ISZERO PUSH2 0x10 JUMPI PUSH1 0x0 DUP1 REVERT JUMPDEST POP PUSH2 0x17EA DUP1 PUSH2 0x20 PUSH1 0x0 CODECOPY PUSH1 0x0 RETURN INVALID PUSH1 0x80 PUSH1 0x40 MSTORE CALLVALUE DUP1 ISZERO PUSH2 0x10 JUMPI PUSH1 0x0 DUP1 REVERT JUMPDEST POP PUSH1 0x4 CALLDATASIZE LT PUSH2 0x2B JUMPI PUSH1 0x0 CALLDATALOAD PUSH1 0xE0 SHR DUP1 PUSH4 0xC5A0FC26 EQ PUSH2 0x30 JUMPI JUMPDEST PUSH1 0x0 DUP1 REVERT JUMPDEST PUSH2 0x12D PUSH1 0x4 DUP1 CALLDATASIZE SUB PUSH2 0x3C0 DUP2 LT ISZERO PUSH2 0x47 JUMPI PUSH1 0x0 DUP1 REVERT JUMPDEST PUSH1 0x40 DUP1 MLOAD DUP1 DUP3 ADD DUP3 MSTORE SWAP2 DUP4 ADD SWAP3 SWAP2 DUP2 DUP4 ADD SWAP2 DUP4 SWAP1 PUSH1 0x2 SWAP1 DUP4 SWAP1 DUP4 SWAP1 DUP1 DUP3 DUP5 CALLDATACOPY PUSH1 0x0 SWAP3 ADD DUP3 SWAP1 MSTORE POP PUSH1 0x40 DUP1 MLOAD DUP1 DUP3 ADD SWAP1 SWAP2 MSTORE SWAP4 SWAP7 SWAP6 SWAP5 PUSH1 0x80 DUP2 ADD SWAP5 SWAP4 POP SWAP2 POP PUSH1 0x2 SWAP1 DUP4 JUMPDEST DUP3 DUP3 LT ISZERO PUSH2 0xC8 JUMPI PUSH1 0x40 DUP1 MLOAD DUP1 DUP3 ADD DUP3 MSTORE SWAP1 DUP1 DUP5 MUL DUP7 ADD SWAP1 PUSH1 0x2 SWAP1 DUP4 SWAP1 DUP4 SWAP1 DUP1 DUP3 DUP5 CALLDATACOPY PUSH1 0x0 SWAP3 ADD SWAP2 SWAP1 SWAP2 MSTORE POP POP POP DUP2 MSTORE PUSH1 0x1 SWAP1 SWAP2 ADD SWAP1 PUSH1 0x20 ADD PUSH2 0x8A JUMP JUMPDEST POP POP PUSH1 0x40 DUP1 MLOAD DUP1 DUP3 ADD DUP3 MSTORE SWAP4 SWAP7 SWAP6 SWAP5 DUP2 DUP2 ADD SWAP5 SWAP4 POP SWAP2 POP PUSH1 0x2 SWAP1 DUP4 SWAP1 DUP4 SWAP1 DUP1 DUP3 DUP5 CALLDATACOPY PUSH1 0x0 SWAP3 ADD SWAP2 SWAP1 SWAP2 MSTORE POP POP PUSH1 0x40 DUP1 MLOAD PUSH2 0x2C0 DUP2 DUP2 ADD SWAP1 SWAP3 MSTORE SWAP3 SWAP6 SWAP5 SWAP4 DUP2 DUP2 ADD SWAP4 SWAP3 POP SWAP1 PUSH1 0x16 SWAP1 DUP4 SWAP1 DUP4 SWAP1 DUP1 DUP3 DUP5 CALLDATACOPY PUSH1 0x0 SWAP3 ADD SWAP2 SWAP1 SWAP2 MSTORE POP SWAP2 SWAP5 POP PUSH2 0x141 SWAP4 POP POP POP POP JUMP JUMPDEST PUSH1 0x40 DUP1 MLOAD SWAP2 ISZERO ISZERO DUP3 MSTORE MLOAD SWAP1 DUP2 SWAP1 SUB PUSH1 0x20 ADD SWAP1 RETURN JUMPDEST PUSH1 0x0 PUSH2 0x14B PUSH2 0x1689 JUMP JUMPDEST PUSH1 0x40 DUP1 MLOAD DUP1 DUP3 ADD DUP3 MSTORE DUP8 MLOAD DUP2 MSTORE PUSH1 0x20 DUP1 DUP10 ADD MLOAD DUP2 DUP4 ADD MSTORE SWAP1 DUP4 MSTORE DUP2 MLOAD PUSH1 0x80 DUP2 ADD DUP4 MSTORE DUP8 MLOAD MLOAD DUP2 DUP5 ADD SWAP1 DUP2 MSTORE DUP9 MLOAD DUP4 ADD MLOAD PUSH1 0x60 DUP1 DUP5 ADD SWAP2 SWAP1 SWAP2 MSTORE SWAP1 DUP3 MSTORE DUP4 MLOAD DUP1 DUP6 ADD DUP6 MSTORE DUP10 DUP5 ADD DUP1 MLOAD MLOAD DUP3 MSTORE MLOAD DUP5 ADD MLOAD DUP2 DUP6 ADD MSTORE DUP3 DUP5 ADD MSTORE DUP5 DUP4 ADD SWAP2 SWAP1 SWAP2 MSTORE DUP3 MLOAD DUP1 DUP5 ADD DUP5 MSTORE DUP8 MLOAD DUP2 MSTORE DUP8 DUP4 ADD MLOAD DUP2 DUP5 ADD MSTORE DUP5 DUP5 ADD MSTORE DUP3 MLOAD PUSH1 0x16 DUP1 DUP3 MSTORE PUSH2 0x2E0 DUP3 ADD SWAP1 SWAP5 MSTORE SWAP1 SWAP3 SWAP1 SWAP2 DUP3 ADD PUSH2 0x2C0 DUP1 CALLDATASIZE DUP4 CALLDATACOPY ADD SWAP1 POP POP SWAP1 POP PUSH1 0x0 JUMPDEST PUSH1 0x16 DUP2 LT ISZERO PUSH2 0x21E JUMPI DUP5 DUP2 PUSH1 0x16 DUP2 LT PUSH2 0x1FA JUMPI INVALID JUMPDEST PUSH1 0x20 MUL ADD MLOAD DUP3 DUP3 DUP2 MLOAD DUP2 LT PUSH2 0x20B JUMPI INVALID JUMPDEST PUSH1 0x20 SWAP1 DUP2 MUL SWAP2 SWAP1 SWAP2 ADD ADD MSTORE PUSH1 0x1 ADD PUSH2 0x1E5 JUMP JUMPDEST POP PUSH2 0x229 DUP2 DUP4 PUSH2 0x247 JUMP JUMPDEST PUSH2 0x238 JUMPI PUSH1 0x1 SWAP3 POP POP POP PUSH2 0x23F JUMP JUMPDEST PUSH1 0x0 SWAP3 POP POP POP JUMPDEST SWAP5 SWAP4 POP POP POP POP JUMP JUMPDEST PUSH1 0x0 PUSH32 0x30644E72E131A029B85045B68181585D2833E84879B9709143E1F593F0000001 PUSH2 0x272 PUSH2 0x16BB JUMP JUMPDEST PUSH2 0x27A PUSH2 0x423 JUMP JUMPDEST SWAP1 POP DUP1 PUSH1 0x80 ADD MLOAD MLOAD DUP6 MLOAD PUSH1 0x1 ADD EQ PUSH2 0x2CE JUMPI PUSH1 0x40 DUP1 MLOAD PUSH3 0x461BCD PUSH1 0xE5 SHL DUP2 MSTORE PUSH1 0x20 PUSH1 0x4 DUP3 ADD MSTORE PUSH1 0x12 PUSH1 0x24 DUP3 ADD MSTORE PUSH18 0x1D995C9A599A595C8B5898590B5A5B9C1D5D PUSH1 0x72 SHL PUSH1 0x44 DUP3 ADD MSTORE SWAP1 MLOAD SWAP1 DUP2 SWAP1 SUB PUSH1 0x64 ADD SWAP1 REVERT JUMPDEST PUSH2 0x2D6 PUSH2 0x1702 JUMP JUMPDEST PUSH1 0x40 MLOAD DUP1 PUSH1 0x40 ADD PUSH1 0x40 MSTORE DUP1 PUSH1 0x0 DUP2 MSTORE PUSH1 0x20 ADD PUSH1 0x0 DUP2 MSTORE POP SWAP1 POP PUSH1 0x0 JUMPDEST DUP7 MLOAD DUP2 LT ISZERO PUSH2 0x3AC JUMPI DUP4 DUP8 DUP3 DUP2 MLOAD DUP2 LT PUSH2 0x308 JUMPI INVALID JUMPDEST PUSH1 0x20 MUL PUSH1 0x20 ADD ADD MLOAD LT PUSH2 0x362 JUMPI PUSH1 0x40 DUP1 MLOAD PUSH3 0x461BCD PUSH1 0xE5 SHL DUP2 MSTORE PUSH1 0x20 PUSH1 0x4 DUP3 ADD MSTORE PUSH1 0x1F PUSH1 0x24 DUP3 ADD MSTORE PUSH32 0x76657269666965722D6774652D736E61726B2D7363616C61722D6669656C6400 PUSH1 0x44 DUP3 ADD MSTORE SWAP1 MLOAD SWAP1 DUP2 SWAP1 SUB PUSH1 0x64 ADD SWAP1 REVERT JUMPDEST PUSH2 0x3A2 DUP3 PUSH2 0x39D DUP6 PUSH1 0x80 ADD MLOAD DUP5 PUSH1 0x1 ADD DUP2 MLOAD DUP2 LT PUSH2 0x37C JUMPI INVALID JUMPDEST PUSH1 0x20 MUL PUSH1 0x20 ADD ADD MLOAD DUP11 DUP6 DUP2 MLOAD DUP2 LT PUSH2 0x390 JUMPI INVALID JUMPDEST PUSH1 0x20 MUL PUSH1 0x20 ADD ADD MLOAD PUSH2 0x10E9 JUMP JUMPDEST PUSH2 0x117E JUMP JUMPDEST SWAP2 POP PUSH1 0x1 ADD PUSH2 0x2F2 JUMP JUMPDEST POP PUSH2 0x3CF DUP2 DUP4 PUSH1 0x80 ADD MLOAD PUSH1 0x0 DUP2 MLOAD DUP2 LT PUSH2 0x3C2 JUMPI INVALID JUMPDEST PUSH1 0x20 MUL PUSH1 0x20 ADD ADD MLOAD PUSH2 0x117E JUMP JUMPDEST SWAP1 POP PUSH2 0x405 PUSH2 0x3E1 DUP7 PUSH1 0x0 ADD MLOAD PUSH2 0x120F JUMP JUMPDEST DUP7 PUSH1 0x20 ADD MLOAD DUP5 PUSH1 0x0 ADD MLOAD DUP6 PUSH1 0x20 ADD MLOAD DUP6 DUP8 PUSH1 0x40 ADD MLOAD DUP12 PUSH1 0x40 ADD MLOAD DUP10 PUSH1 0x60 ADD MLOAD PUSH2 0x129B JUMP JUMPDEST PUSH2 0x415 JUMPI PUSH1 0x1 SWAP4 POP POP POP POP PUSH2 0x41D JUMP JUMPDEST PUSH1 0x0 SWAP4 POP POP POP POP JUMPDEST SWAP3 SWAP2 POP POP JUMP JUMPDEST PUSH2 0x42B PUSH2 0x16BB JUMP JUMPDEST PUSH1 0x40 DUP1 MLOAD DUP1 DUP3 ADD DUP3 MSTORE PUSH32 0x2D4D9AA7E302D9DF41749D5507949D05DBEA33FBB16C643B22F599A2BE6DF2E2 DUP2 MSTORE PUSH32 0x14BEDD503C37CEB061D8EC60209FE345CE89830A19230301F076CAFF004D1926 PUSH1 0x20 DUP1 DUP4 ADD SWAP2 SWAP1 SWAP2 MSTORE SWAP1 DUP4 MSTORE DUP2 MLOAD PUSH1 0x80 DUP1 DUP3 ADD DUP5 MSTORE PUSH32 0x967032FCBF776D1AFC985F88877F182D38480A653F2DECAA9794CBC3BF3060C DUP3 DUP6 ADD SWAP1 DUP2 MSTORE PUSH32 0xE187847AD4C798374D0D6732BF501847DD68BC0E071241E0213BC7FC13DB7AB PUSH1 0x60 DUP1 DUP6 ADD SWAP2 SWAP1 SWAP2 MSTORE SWAP1 DUP4 MSTORE DUP5 MLOAD DUP1 DUP7 ADD DUP7 MSTORE PUSH32 0x304CFBD1E08A704A99F5E847D93F8C3CAAFDDEC46B7A0D379DA69A4D112346A7 DUP2 MSTORE PUSH32 0x1739C1B1A457A8C7313123D24D2F9192F896B7C63EEA05A9D57F06547AD0CEC8 DUP2 DUP7 ADD MSTORE DUP4 DUP6 ADD MSTORE DUP6 DUP5 ADD SWAP3 SWAP1 SWAP3 MSTORE DUP4 MLOAD DUP1 DUP3 ADD DUP6 MSTORE PUSH32 0x198E9393920D483A7260BFB731FB5D25F1AA493335A9E71297E485B7AEF312C2 DUP2 DUP7 ADD SWAP1 DUP2 MSTORE PUSH32 0x1800DEEF121F1E76426A00665E5C4479674322D4F75EDADD46DEBD5CD992F6ED DUP3 DUP6 ADD MSTORE DUP2 MSTORE DUP5 MLOAD DUP1 DUP7 ADD DUP7 MSTORE PUSH32 0x90689D0585FF075EC9E99AD690C3395BC4B313370B38EF355ACDADCD122975B DUP2 MSTORE PUSH32 0x12C85EA5DB8C6DEB4AAB71808DCB408FE3D1E7690C43D37B4CE6CC0166FA7DAA DUP2 DUP7 ADD MSTORE DUP2 DUP6 ADD MSTORE DUP6 DUP6 ADD MSTORE DUP4 MLOAD SWAP1 DUP2 ADD DUP5 MSTORE PUSH32 0xF4F1CB048F135552963AEBE0ED46A936C03D57A44808D5D4D925F8F409DAB40 DUP2 DUP6 ADD SWAP1 DUP2 MSTORE PUSH32 0x2FBF37BBED06409734C3D70C09A9D0877F280773D83E0085BA8471035823DC2B DUP3 DUP5 ADD MSTORE DUP2 MSTORE DUP4 MLOAD DUP1 DUP6 ADD DUP6 MSTORE PUSH32 0xA466D51E423785CDC8757E35B6FAD6861C6CCD4344DA91E3117C347D5B89DC0 DUP2 MSTORE PUSH32 0x23CF78CF3DB555B3D5AA24CBA6A57E9CDADB634181BB8008735466D63F58172F DUP2 DUP6 ADD MSTORE DUP2 DUP5 ADD MSTORE SWAP1 DUP5 ADD MSTORE DUP2 MLOAD PUSH1 0x17 DUP1 DUP3 MSTORE PUSH2 0x300 DUP3 ADD SWAP1 SWAP4 MSTORE SWAP2 SWAP1 DUP3 ADD JUMPDEST PUSH2 0x6AF PUSH2 0x1702 JUMP JUMPDEST DUP2 MSTORE PUSH1 0x20 ADD SWAP1 PUSH1 0x1 SWAP1 SUB SWAP1 DUP2 PUSH2 0x6A7 JUMPI POP POP PUSH1 0x80 DUP3 ADD SWAP1 DUP2 MSTORE PUSH1 0x40 DUP1 MLOAD DUP1 DUP3 ADD SWAP1 SWAP2 MSTORE PUSH32 0x1ED14221A56A3BE5E34A6DDA44427B83E9C7CB23A18E795CFABB9BDD6B55B690 DUP2 MSTORE PUSH32 0x9BA26A7282BA1313ED16EF64CF704102352AD9E402B619FA17BE0D7FBB4460D PUSH1 0x20 DUP3 ADD MSTORE SWAP1 MLOAD DUP1 MLOAD PUSH1 0x0 SWAP1 PUSH2 0x728 JUMPI INVALID JUMPDEST PUSH1 0x20 MUL PUSH1 0x20 ADD ADD DUP2 SWAP1 MSTORE POP PUSH1 0x40 MLOAD DUP1 PUSH1 0x40 ADD PUSH1 0x40 MSTORE DUP1 PUSH31 0x37F4075A50088F5699C8F1ABFD342EDAB83DEE54824D2C86DDD17B97D46FF5 DUP2 MSTORE PUSH1 0x20 ADD PUSH32 0x18376305D3403B1B49DE6232E61624BD22E4825DF0F0FEE38A471172C54B4D05 DUP2 MSTORE POP DUP2 PUSH1 0x80 ADD MLOAD PUSH1 0x1 DUP2 MLOAD DUP2 LT PUSH2 0x798 JUMPI INVALID JUMPDEST PUSH1 0x20 MUL PUSH1 0x20 ADD ADD DUP2 SWAP1 MSTORE POP PUSH1 0x40 MLOAD DUP1 PUSH1 0x40 ADD PUSH1 0x40 MSTORE DUP1 PUSH32 0x15858E8E7C2324BE28AFC2C3580FEE1156864A04A676FC9CC221737F3424583D DUP2 MSTORE PUSH1 0x20 ADD PUSH32 0x2E59E46AA91B5719328445873A1290DDDD9E5FDB43681E84C4DCCDA11AEE6ED2 DUP2 MSTORE POP DUP2 PUSH1 0x80 ADD MLOAD PUSH1 0x2 DUP2 MLOAD DUP2 LT PUSH2 0x809 JUMPI INVALID JUMPDEST PUSH1 0x20 MUL PUSH1 0x20 ADD ADD DUP2 SWAP1 MSTORE POP PUSH1 0x40 MLOAD DUP1 PUSH1 0x40 ADD PUSH1 0x40 MSTORE DUP1 PUSH32 0x2D15F432C82A662605C99E1C0DA0B3EF853C688A166A3BF3FA6742C94F38AE2E DUP2 MSTORE PUSH1 0x20 ADD PUSH31 0x824D08F95A3EFCD7EDF913476FD212F042F11A2984C1BDFF8DB6F2EEADAA06 DUP2 MSTORE POP DUP2 PUSH1 0x80 ADD MLOAD PUSH1 0x3 DUP2 MLOAD DUP2 LT PUSH2 0x879 JUMPI INVALID JUMPDEST PUSH1 0x20 MUL PUSH1 0x20 ADD ADD DUP2 SWAP1 MSTORE POP PUSH1 0x40 MLOAD DUP1 PUSH1 0x40 ADD PUSH1 0x40 MSTORE DUP1 PUSH32 0x112763DD6F491D0DDAF59BCB16F93B5D974959412392622774FA30E160C41E63 DUP2 MSTORE PUSH1 0x20 ADD PUSH32 0x2E3192E937F3FC468668C7A98A14F958795206019DF77D28726F64C627DFE68E DUP2 MSTORE POP DUP2 PUSH1 0x80 ADD MLOAD PUSH1 0x4 DUP2 MLOAD DUP2 LT PUSH2 0x8EA JUMPI INVALID JUMPDEST PUSH1 0x20 MUL PUSH1 0x20 ADD ADD DUP2 SWAP1 MSTORE POP PUSH1 0x40 MLOAD DUP1 PUSH1 0x40 ADD PUSH1 0x40 MSTORE DUP1 PUSH32 0x2F616A7FA452A9CC2A5B2FBECE6AB362F81ED9446DA03705421414948159B400 DUP2 MSTORE PUSH1 0x20 ADD PUSH32 0x1EE0BDBD322397A4316E4D6BAF949E3120B5AEF743252234CC26971DA0DD4DB7 DUP2 MSTORE POP DUP2 PUSH1 0x80 ADD MLOAD PUSH1 0x5 DUP2 MLOAD DUP2 LT PUSH2 0x95B JUMPI INVALID JUMPDEST PUSH1 0x20 MUL PUSH1 0x20 ADD ADD DUP2 SWAP1 MSTORE POP PUSH1 0x40 MLOAD DUP1 PUSH1 0x40 ADD PUSH1 0x40 MSTORE DUP1 PUSH32 0x19EE06E656DEF8376AC699DA775A37AD73AEF40427927BA998D8AC345D0EF08B DUP2 MSTORE PUSH1 0x20 ADD PUSH32 0x8607CF00999060F270BDB4E998FFBB6BEBBD52983A4039AF879239C7385AF4E DUP2 MSTORE POP DUP2 PUSH1 0x80 ADD MLOAD PUSH1 0x6 DUP2 MLOAD DUP2 LT PUSH2 0x9CC JUMPI INVALID JUMPDEST PUSH1 0x20 MUL PUSH1 0x20 ADD ADD DUP2 SWAP1 MSTORE POP PUSH1 0x40 MLOAD DUP1 PUSH1 0x40 ADD PUSH1 0x40 MSTORE DUP1 PUSH32 0x762E5ECFAFB6BD6C4931A2E7C3F2DCA3401EFA014A1951CBE19AD9363F4DF81 DUP2 MSTORE PUSH1 0x20 ADD PUSH32 0x14BFCE27AB612807C27B0BC2287E32D0143D8470EE9B47B93360A3E148F16C43 DUP2 MSTORE POP DUP2 PUSH1 0x80 ADD MLOAD PUSH1 0x7 DUP2 MLOAD DUP2 LT PUSH2 0xA3D JUMPI INVALID JUMPDEST PUSH1 0x20 MUL PUSH1 0x20 ADD ADD DUP2 SWAP1 MSTORE POP PUSH1 0x40 MLOAD DUP1 PUSH1 0x40 ADD PUSH1 0x40 MSTORE DUP1 PUSH32 0x2AEC12F6993AA80C9DF9E3C16170F8368A6C6C7FA3EFD2883ADAAB2E8AC43D7B DUP2 MSTORE PUSH1 0x20 ADD PUSH32 0x268ED4076CA2C65A973FAD1AD260C83139601BEDE94558A36A726BC40DC257B2 DUP2 MSTORE POP DUP2 PUSH1 0x80 ADD MLOAD PUSH1 0x8 DUP2 MLOAD DUP2 LT PUSH2 0xAAE JUMPI INVALID JUMPDEST PUSH1 0x20 MUL PUSH1 0x20 ADD ADD DUP2 SWAP1 MSTORE POP PUSH1 0x40 MLOAD DUP1 PUSH1 0x40 ADD PUSH1 0x40 MSTORE DUP1 PUSH32 0x45EAE55B4077388F42D417BF541A056FB3B79F36142BF4B7B11519B3986DF17 DUP2 MSTORE PUSH1 0x20 ADD PUSH32 0x6A4D45477F4408E286746F8D84A1F407CEBBF294695FCB6ACCCC79FF91E77D9 DUP2 MSTORE POP DUP2 PUSH1 0x80 ADD MLOAD PUSH1 0x9 DUP2 MLOAD DUP2 LT PUSH2 0xB1F JUMPI INVALID JUMPDEST PUSH1 0x20 MUL PUSH1 0x20 ADD ADD DUP2 SWAP1 MSTORE POP PUSH1 0x40 MLOAD DUP1 PUSH1 0x40 ADD PUSH1 0x40 MSTORE DUP1 PUSH32 0x1304B49DE0C4FA0BD5F928E1740AE3BA8E1F90D3ECBDB71D20723A96F9EC868 DUP2 MSTORE PUSH1 0x20 ADD PUSH32 0x24BA17FA812A308CEA05A94B1F4434C956E5C58AB43EFAD13AFEE24FFF755265 DUP2 MSTORE POP DUP2 PUSH1 0x80 ADD MLOAD PUSH1 0xA DUP2 MLOAD DUP2 LT PUSH2 0xB90 JUMPI INVALID JUMPDEST PUSH1 0x20 MUL PUSH1 0x20 ADD ADD DUP2 SWAP1 MSTORE POP PUSH1 0x40 MLOAD DUP1 PUSH1 0x40 ADD PUSH1 0x40 MSTORE DUP1 PUSH32 0x1B77FFA1D47152228659F16ADC91850E05DF3E93300F8459B9878E3150A11B4B DUP2 MSTORE PUSH1 0x20 ADD PUSH31 0x86DD4FDD6EE5174EDC58139C906EFF402AA568E042DD22B3ADA0DFED69D419 DUP2 MSTORE POP DUP2 PUSH1 0x80 ADD MLOAD PUSH1 0xB DUP2 MLOAD DUP2 LT PUSH2 0xC00 JUMPI INVALID JUMPDEST PUSH1 0x20 MUL PUSH1 0x20 ADD ADD DUP2 SWAP1 MSTORE POP PUSH1 0x40 MLOAD DUP1 PUSH1 0x40 ADD PUSH1 0x40 MSTORE DUP1 PUSH32 0x2889D24ADFFC608607DCD82335A44ED6C3490C10CE3CF5C78D2717204784AC81 DUP2 MSTORE PUSH1 0x20 ADD PUSH32 0x2BE164D161C5170C122D4B6B4C6A77FA64B4201DD9216E4982E15F6F5D293D93 DUP2 MSTORE POP DUP2 PUSH1 0x80 ADD MLOAD PUSH1 0xC DUP2 MLOAD DUP2 LT PUSH2 0xC71 JUMPI INVALID JUMPDEST PUSH1 0x20 MUL PUSH1 0x20 ADD ADD DUP2 SWAP1 MSTORE POP PUSH1 0x40 MLOAD DUP1 PUSH1 0x40 ADD PUSH1 0x40 MSTORE DUP1 PUSH32 0x2F52CE7B06F9CC11ECD52AB3E8056718F8CD9B796C3F8B4E15BD96A62CCA380 DUP2 MSTORE PUSH1 0x20 ADD PUSH32 0x1014D411EEAC9C94CDEFA957FDBF4310127072F7D8D9EB3A803AB869EB2BF95C DUP2 MSTORE POP DUP2 PUSH1 0x80 ADD MLOAD PUSH1 0xD DUP2 MLOAD DUP2 LT PUSH2 0xCE2 JUMPI INVALID JUMPDEST PUSH1 0x20 MUL PUSH1 0x20 ADD ADD DUP2 SWAP1 MSTORE POP PUSH1 0x40 MLOAD DUP1 PUSH1 0x40 ADD PUSH1 0x40 MSTORE DUP1 PUSH32 0x1F8EFA90DCCE33F1E9917DDEAC9E5696189EA5585F70BB01FA777F510C528081 DUP2 MSTORE PUSH1 0x20 ADD PUSH32 0x303026D8A456D0592963D7BE7B30337A5658F3723940DAF7A530225AFC349959 DUP2 MSTORE POP DUP2 PUSH1 0x80 ADD MLOAD PUSH1 0xE DUP2 MLOAD DUP2 LT PUSH2 0xD53 JUMPI INVALID JUMPDEST PUSH1 0x20 MUL PUSH1 0x20 ADD ADD DUP2 SWAP1 MSTORE POP PUSH1 0x40 MLOAD DUP1 PUSH1 0x40 ADD PUSH1 0x40 MSTORE DUP1 PUSH32 0x6C3FD1A8793DC3BBDB7696FD34C8CF4DC6044A518DC2F74E3DDE9EB950F2C9D DUP2 MSTORE PUSH1 0x20 ADD PUSH32 0xFC0BE759FED31D4565AE9997CC2020A4E5B09BEED7D1B25451B2372BFECB7C8 DUP2 MSTORE POP DUP2 PUSH1 0x80 ADD MLOAD PUSH1 0xF DUP2 MLOAD DUP2 LT PUSH2 0xDC4 JUMPI INVALID JUMPDEST PUSH1 0x20 MUL PUSH1 0x20 ADD ADD DUP2 SWAP1 MSTORE POP PUSH1 0x40 MLOAD DUP1 PUSH1 0x40 ADD PUSH1 0x40 MSTORE DUP1 PUSH32 0x4C76A21026846F6D6B1AE72ED3C82E9794A60C4492C767DE8D4D1A4CCF6738E DUP2 MSTORE PUSH1 0x20 ADD PUSH32 0xADBB9C8F85125B85F83456776F792037F791CFB3470C96125CE14715C60E304 DUP2 MSTORE POP DUP2 PUSH1 0x80 ADD MLOAD PUSH1 0x10 DUP2 MLOAD DUP2 LT PUSH2 0xE35 JUMPI INVALID JUMPDEST PUSH1 0x20 MUL PUSH1 0x20 ADD ADD DUP2 SWAP1 MSTORE POP PUSH1 0x40 MLOAD DUP1 PUSH1 0x40 ADD PUSH1 0x40 MSTORE DUP1 PUSH32 0x303C888CAD66EB6851F5DDDC64EDFEFEC5FCFAF67567DD385520995EF485596C DUP2 MSTORE PUSH1 0x20 ADD PUSH32 0x1CB96C5FCCC414F053C108CB19987CEE4972BBEE050EAB1F338D50B033FC8486 DUP2 MSTORE POP DUP2 PUSH1 0x80 ADD MLOAD PUSH1 0x11 DUP2 MLOAD DUP2 LT PUSH2 0xEA6 JUMPI INVALID JUMPDEST PUSH1 0x20 MUL PUSH1 0x20 ADD ADD DUP2 SWAP1 MSTORE POP PUSH1 0x40 MLOAD DUP1 PUSH1 0x40 ADD PUSH1 0x40 MSTORE DUP1 PUSH32 0x294280C60FA9A6FEA9C0BDCFFC814307D8AAA9EC31724113F1EEEDD161D57616 DUP2 MSTORE PUSH1 0x20 ADD PUSH32 0x2BB8732C9903AE1DE170D5362AA97A9309940405611D5F3094EEB18632B13066 DUP2 MSTORE POP DUP2 PUSH1 0x80 ADD MLOAD PUSH1 0x12 DUP2 MLOAD DUP2 LT PUSH2 0xF17 JUMPI INVALID JUMPDEST PUSH1 0x20 MUL PUSH1 0x20 ADD ADD DUP2 SWAP1 MSTORE POP PUSH1 0x40 MLOAD DUP1 PUSH1 0x40 ADD PUSH1 0x40 MSTORE DUP1 PUSH32 0x1CB5B25C1010155E672597AE580AB949E3877A08D7DFF621DEB0523976842015 DUP2 MSTORE PUSH1 0x20 ADD PUSH32 0x18B21C726143598A7C24182E9515D4F19902562CF296F468CF182A8E1C3AF529 DUP2 MSTORE POP DUP2 PUSH1 0x80 ADD MLOAD PUSH1 0x13 DUP2 MLOAD DUP2 LT PUSH2 0xF88 JUMPI INVALID JUMPDEST PUSH1 0x20 MUL PUSH1 0x20 ADD ADD DUP2 SWAP1 MSTORE POP PUSH1 0x40 MLOAD DUP1 PUSH1 0x40 ADD PUSH1 0x40 MSTORE DUP1 PUSH32 0xD631F36B0E1D519907A212DCD2FA68415680E84788F74573B28390487D53CF9 DUP2 MSTORE PUSH1 0x20 ADD PUSH32 0xAA55AE92C56A7DBA7B9F315A214231F4A6AED3DCD35D9F0D2A4107AAA23F176 DUP2 MSTORE POP DUP2 PUSH1 0x80 ADD MLOAD PUSH1 0x14 DUP2 MLOAD DUP2 LT PUSH2 0xFF9 JUMPI INVALID JUMPDEST PUSH1 0x20 MUL PUSH1 0x20 ADD ADD DUP2 SWAP1 MSTORE POP PUSH1 0x40 MLOAD DUP1 PUSH1 0x40 ADD PUSH1 0x40 MSTORE DUP1 PUSH32 0x1D1C550BF72D15F5E73413C1634930C4365EB78D7BC42F73949D3A200831780C DUP2 MSTORE PUSH1 0x20 ADD PUSH32 0x7B88DC81948D7BB64043C738A8383116A57D86316129EB4EE81F12FD83005D2 DUP2 MSTORE POP DUP2 PUSH1 0x80 ADD MLOAD PUSH1 0x15 DUP2 MLOAD DUP2 LT PUSH2 0x106A JUMPI INVALID JUMPDEST PUSH1 0x20 MUL PUSH1 0x20 ADD ADD DUP2 SWAP1 MSTORE POP PUSH1 0x40 MLOAD DUP1 PUSH1 0x40 ADD PUSH1 0x40 MSTORE DUP1 PUSH32 0x1304D601096F788E0981067F275814CE869E957EF1F3150574A542628AA271CF DUP2 MSTORE PUSH1 0x20 ADD PUSH32 0x2A8EE97AB74B1E604AD78D81FD468A3A6B0922676243DD675E8F5DC2177728AC DUP2 MSTORE POP DUP2 PUSH1 0x80 ADD MLOAD PUSH1 0x16 DUP2 MLOAD DUP2 LT PUSH2 0x10DB JUMPI INVALID JUMPDEST PUSH1 0x20 MUL PUSH1 0x20 ADD ADD DUP2 SWAP1 MSTORE POP SWAP1 JUMP JUMPDEST PUSH2 0x10F1 PUSH2 0x1702 JUMP JUMPDEST PUSH2 0x10F9 PUSH2 0x171C JUMP JUMPDEST DUP4 MLOAD DUP2 MSTORE PUSH1 0x20 DUP1 DUP6 ADD MLOAD SWAP1 DUP3 ADD MSTORE PUSH1 0x40 DUP2 ADD DUP4 SWAP1 MSTORE PUSH1 0x0 PUSH1 0x60 DUP4 PUSH1 0x80 DUP5 PUSH1 0x7 PUSH2 0x7D0 GAS SUB STATICCALL SWAP1 POP DUP1 DUP1 ISZERO PUSH2 0x112C JUMPI PUSH2 0x112E JUMP JUMPDEST INVALID JUMPDEST POP DUP1 PUSH2 0x1176 JUMPI PUSH1 0x40 DUP1 MLOAD PUSH3 0x461BCD PUSH1 0xE5 SHL DUP2 MSTORE PUSH1 0x20 PUSH1 0x4 DUP3 ADD MSTORE PUSH1 0x12 PUSH1 0x24 DUP3 ADD MSTORE PUSH18 0x1C185A5C9A5B99CB5B5D5B0B59985A5B1959 PUSH1 0x72 SHL PUSH1 0x44 DUP3 ADD MSTORE SWAP1 MLOAD SWAP1 DUP2 SWAP1 SUB PUSH1 0x64 ADD SWAP1 REVERT JUMPDEST POP POP SWAP3 SWAP2 POP POP JUMP JUMPDEST PUSH2 0x1186 PUSH2 0x1702 JUMP JUMPDEST PUSH2 0x118E PUSH2 0x173A JUMP JUMPDEST DUP4 MLOAD DUP2 MSTORE PUSH1 0x20 DUP1 DUP6 ADD MLOAD DUP2 DUP4 ADD MSTORE DUP4 MLOAD PUSH1 0x40 DUP4 ADD MSTORE DUP4 ADD MLOAD PUSH1 0x60 DUP1 DUP4 ADD SWAP2 SWAP1 SWAP2 MSTORE PUSH1 0x0 SWAP1 DUP4 PUSH1 0xC0 DUP5 PUSH1 0x6 PUSH2 0x7D0 GAS SUB STATICCALL SWAP1 POP DUP1 DUP1 ISZERO PUSH2 0x112C JUMPI POP DUP1 PUSH2 0x1176 JUMPI PUSH1 0x40 DUP1 MLOAD PUSH3 0x461BCD PUSH1 0xE5 SHL DUP2 MSTORE PUSH1 0x20 PUSH1 0x4 DUP3 ADD MSTORE PUSH1 0x12 PUSH1 0x24 DUP3 ADD MSTORE PUSH18 0x1C185A5C9A5B99CB5859190B59985A5B1959 PUSH1 0x72 SHL PUSH1 0x44 DUP3 ADD MSTORE SWAP1 MLOAD SWAP1 DUP2 SWAP1 SUB PUSH1 0x64 ADD SWAP1 REVERT JUMPDEST PUSH2 0x1217 PUSH2 0x1702 JUMP JUMPDEST DUP2 MLOAD PUSH32 0x30644E72E131A029B85045B68181585D97816A916871CA8D3C208C16D87CFD47 SWAP1 ISZERO DUP1 ISZERO PUSH2 0x124A JUMPI POP PUSH1 0x20 DUP4 ADD MLOAD ISZERO JUMPDEST ISZERO PUSH2 0x126A JUMPI POP POP PUSH1 0x40 DUP1 MLOAD DUP1 DUP3 ADD SWAP1 SWAP2 MSTORE PUSH1 0x0 DUP1 DUP3 MSTORE PUSH1 0x20 DUP3 ADD MSTORE PUSH2 0x1296 JUMP JUMPDEST PUSH1 0x40 MLOAD DUP1 PUSH1 0x40 ADD PUSH1 0x40 MSTORE DUP1 DUP5 PUSH1 0x0 ADD MLOAD DUP2 MSTORE PUSH1 0x20 ADD DUP3 DUP6 PUSH1 0x20 ADD MLOAD DUP2 PUSH2 0x128C JUMPI INVALID JUMPDEST MOD DUP4 SUB DUP2 MSTORE POP SWAP2 POP POP JUMPDEST SWAP2 SWAP1 POP JUMP JUMPDEST PUSH1 0x40 DUP1 MLOAD PUSH1 0x4 DUP1 DUP3 MSTORE PUSH1 0xA0 DUP3 ADD SWAP1 SWAP3 MSTORE PUSH1 0x0 SWAP2 PUSH1 0x60 SWAP2 SWAP1 DUP2 PUSH1 0x20 ADD JUMPDEST PUSH2 0x12BF PUSH2 0x1702 JUMP JUMPDEST DUP2 MSTORE PUSH1 0x20 ADD SWAP1 PUSH1 0x1 SWAP1 SUB SWAP1 DUP2 PUSH2 0x12B7 JUMPI POP POP PUSH1 0x40 DUP1 MLOAD PUSH1 0x4 DUP1 DUP3 MSTORE PUSH1 0xA0 DUP3 ADD SWAP1 SWAP3 MSTORE SWAP2 SWAP3 POP PUSH1 0x60 SWAP2 SWAP1 PUSH1 0x20 DUP3 ADD JUMPDEST PUSH2 0x12F5 PUSH2 0x1758 JUMP JUMPDEST DUP2 MSTORE PUSH1 0x20 ADD SWAP1 PUSH1 0x1 SWAP1 SUB SWAP1 DUP2 PUSH2 0x12ED JUMPI SWAP1 POP POP SWAP1 POP DUP11 DUP3 PUSH1 0x0 DUP2 MLOAD DUP2 LT PUSH2 0x1318 JUMPI INVALID JUMPDEST PUSH1 0x20 MUL PUSH1 0x20 ADD ADD DUP2 SWAP1 MSTORE POP DUP9 DUP3 PUSH1 0x1 DUP2 MLOAD DUP2 LT PUSH2 0x1331 JUMPI INVALID JUMPDEST PUSH1 0x20 MUL PUSH1 0x20 ADD ADD DUP2 SWAP1 MSTORE POP DUP7 DUP3 PUSH1 0x2 DUP2 MLOAD DUP2 LT PUSH2 0x134A JUMPI INVALID JUMPDEST PUSH1 0x20 MUL PUSH1 0x20 ADD ADD DUP2 SWAP1 MSTORE POP DUP5 DUP3 PUSH1 0x3 DUP2 MLOAD DUP2 LT PUSH2 0x1363 JUMPI INVALID JUMPDEST PUSH1 0x20 MUL PUSH1 0x20 ADD ADD DUP2 SWAP1 MSTORE POP DUP10 DUP2 PUSH1 0x0 DUP2 MLOAD DUP2 LT PUSH2 0x137C JUMPI INVALID JUMPDEST PUSH1 0x20 MUL PUSH1 0x20 ADD ADD DUP2 SWAP1 MSTORE POP DUP8 DUP2 PUSH1 0x1 DUP2 MLOAD DUP2 LT PUSH2 0x1395 JUMPI INVALID JUMPDEST PUSH1 0x20 MUL PUSH1 0x20 ADD ADD DUP2 SWAP1 MSTORE POP DUP6 DUP2 PUSH1 0x2 DUP2 MLOAD DUP2 LT PUSH2 0x13AE JUMPI INVALID JUMPDEST PUSH1 0x20 MUL PUSH1 0x20 ADD ADD DUP2 SWAP1 MSTORE POP DUP4 DUP2 PUSH1 0x3 DUP2 MLOAD DUP2 LT PUSH2 0x13C7 JUMPI INVALID JUMPDEST PUSH1 0x20 MUL PUSH1 0x20 ADD ADD DUP2 SWAP1 MSTORE POP PUSH2 0x13DC DUP3 DUP3 PUSH2 0x13EB JUMP JUMPDEST SWAP12 SWAP11 POP POP POP POP POP POP POP POP POP POP POP JUMP JUMPDEST PUSH1 0x0 DUP2 MLOAD DUP4 MLOAD EQ PUSH2 0x143C JUMPI PUSH1 0x40 DUP1 MLOAD PUSH3 0x461BCD PUSH1 0xE5 SHL DUP2 MSTORE PUSH1 0x20 PUSH1 0x4 DUP3 ADD MSTORE PUSH1 0x16 PUSH1 0x24 DUP3 ADD MSTORE PUSH22 0x1C185A5C9A5B99CB5B195B99DD1A1CCB59985A5B1959 PUSH1 0x52 SHL PUSH1 0x44 DUP3 ADD MSTORE SWAP1 MLOAD SWAP1 DUP2 SWAP1 SUB PUSH1 0x64 ADD SWAP1 REVERT JUMPDEST DUP3 MLOAD PUSH1 0x6 DUP2 MUL PUSH1 0x60 DUP2 PUSH1 0x1 PUSH1 0x1 PUSH1 0x40 SHL SUB DUP2 GT DUP1 ISZERO PUSH2 0x145A JUMPI PUSH1 0x0 DUP1 REVERT JUMPDEST POP PUSH1 0x40 MLOAD SWAP1 DUP1 DUP3 MSTORE DUP1 PUSH1 0x20 MUL PUSH1 0x20 ADD DUP3 ADD PUSH1 0x40 MSTORE DUP1 ISZERO PUSH2 0x1484 JUMPI DUP2 PUSH1 0x20 ADD PUSH1 0x20 DUP3 MUL DUP1 CALLDATASIZE DUP4 CALLDATACOPY ADD SWAP1 POP JUMPDEST POP SWAP1 POP PUSH1 0x0 JUMPDEST DUP4 DUP2 LT ISZERO PUSH2 0x1609 JUMPI DUP7 DUP2 DUP2 MLOAD DUP2 LT PUSH2 0x149E JUMPI INVALID JUMPDEST PUSH1 0x20 MUL PUSH1 0x20 ADD ADD MLOAD PUSH1 0x0 ADD MLOAD DUP3 DUP3 PUSH1 0x6 MUL PUSH1 0x0 ADD DUP2 MLOAD DUP2 LT PUSH2 0x14BC JUMPI INVALID JUMPDEST PUSH1 0x20 MUL PUSH1 0x20 ADD ADD DUP2 DUP2 MSTORE POP POP DUP7 DUP2 DUP2 MLOAD DUP2 LT PUSH2 0x14D4 JUMPI INVALID JUMPDEST PUSH1 0x20 MUL PUSH1 0x20 ADD ADD MLOAD PUSH1 0x20 ADD MLOAD DUP3 DUP3 PUSH1 0x6 MUL PUSH1 0x1 ADD DUP2 MLOAD DUP2 LT PUSH2 0x14F2 JUMPI INVALID JUMPDEST PUSH1 0x20 MUL PUSH1 0x20 ADD ADD DUP2 DUP2 MSTORE POP POP DUP6 DUP2 DUP2 MLOAD DUP2 LT PUSH2 0x150A JUMPI INVALID JUMPDEST PUSH1 0x20 SWAP1 DUP2 MUL SWAP2 SWAP1 SWAP2 ADD ADD MLOAD MLOAD MLOAD DUP3 MLOAD DUP4 SWAP1 PUSH1 0x2 PUSH1 0x6 DUP6 MUL ADD SWAP1 DUP2 LT PUSH2 0x152B JUMPI INVALID JUMPDEST PUSH1 0x20 MUL PUSH1 0x20 ADD ADD DUP2 DUP2 MSTORE POP POP DUP6 DUP2 DUP2 MLOAD DUP2 LT PUSH2 0x1543 JUMPI INVALID JUMPDEST PUSH1 0x20 SWAP1 DUP2 MUL SWAP2 SWAP1 SWAP2 ADD ADD MLOAD MLOAD PUSH1 0x1 PUSH1 0x20 MUL ADD MLOAD DUP3 DUP3 PUSH1 0x6 MUL PUSH1 0x3 ADD DUP2 MLOAD DUP2 LT PUSH2 0x1568 JUMPI INVALID JUMPDEST PUSH1 0x20 MUL PUSH1 0x20 ADD ADD DUP2 DUP2 MSTORE POP POP DUP6 DUP2 DUP2 MLOAD DUP2 LT PUSH2 0x1580 JUMPI INVALID JUMPDEST PUSH1 0x20 MUL PUSH1 0x20 ADD ADD MLOAD PUSH1 0x20 ADD MLOAD PUSH1 0x0 PUSH1 0x2 DUP2 LT PUSH2 0x1598 JUMPI INVALID JUMPDEST PUSH1 0x20 MUL ADD MLOAD DUP3 DUP3 PUSH1 0x6 MUL PUSH1 0x4 ADD DUP2 MLOAD DUP2 LT PUSH2 0x15AF JUMPI INVALID JUMPDEST PUSH1 0x20 MUL PUSH1 0x20 ADD ADD DUP2 DUP2 MSTORE POP POP DUP6 DUP2 DUP2 MLOAD DUP2 LT PUSH2 0x15C7 JUMPI INVALID JUMPDEST PUSH1 0x20 MUL PUSH1 0x20 ADD ADD MLOAD PUSH1 0x20 ADD MLOAD PUSH1 0x1 PUSH1 0x2 DUP2 LT PUSH2 0x15DF JUMPI INVALID JUMPDEST PUSH1 0x20 MUL ADD MLOAD DUP3 DUP3 PUSH1 0x6 MUL PUSH1 0x5 ADD DUP2 MLOAD DUP2 LT PUSH2 0x15F6 JUMPI INVALID JUMPDEST PUSH1 0x20 SWAP1 DUP2 MUL SWAP2 SWAP1 SWAP2 ADD ADD MSTORE PUSH1 0x1 ADD PUSH2 0x148A JUMP JUMPDEST POP PUSH2 0x1612 PUSH2 0x1778 JUMP JUMPDEST PUSH1 0x0 PUSH1 0x20 DUP3 PUSH1 0x20 DUP7 MUL PUSH1 0x20 DUP7 ADD PUSH1 0x8 PUSH2 0x7D0 GAS SUB STATICCALL SWAP1 POP DUP1 DUP1 ISZERO PUSH2 0x112C JUMPI POP DUP1 PUSH2 0x167B JUMPI PUSH1 0x40 DUP1 MLOAD PUSH3 0x461BCD PUSH1 0xE5 SHL DUP2 MSTORE PUSH1 0x20 PUSH1 0x4 DUP3 ADD MSTORE PUSH1 0x15 PUSH1 0x24 DUP3 ADD MSTORE PUSH21 0x1C185A5C9A5B99CB5BDC18DBD9194B59985A5B1959 PUSH1 0x5A SHL PUSH1 0x44 DUP3 ADD MSTORE SWAP1 MLOAD SWAP1 DUP2 SWAP1 SUB PUSH1 0x64 ADD SWAP1 REVERT JUMPDEST POP MLOAD ISZERO ISZERO SWAP7 SWAP6 POP POP POP POP POP POP JUMP JUMPDEST PUSH1 0x40 MLOAD DUP1 PUSH1 0x60 ADD PUSH1 0x40 MSTORE DUP1 PUSH2 0x169C PUSH2 0x1702 JUMP JUMPDEST DUP2 MSTORE PUSH1 0x20 ADD PUSH2 0x16A9 PUSH2 0x1758 JUMP JUMPDEST DUP2 MSTORE PUSH1 0x20 ADD PUSH2 0x16B6 PUSH2 0x1702 JUMP JUMPDEST SWAP1 MSTORE SWAP1 JUMP JUMPDEST PUSH1 0x40 MLOAD DUP1 PUSH1 0xA0 ADD PUSH1 0x40 MSTORE DUP1 PUSH2 0x16CE PUSH2 0x1702 JUMP JUMPDEST DUP2 MSTORE PUSH1 0x20 ADD PUSH2 0x16DB PUSH2 0x1758 JUMP JUMPDEST DUP2 MSTORE PUSH1 0x20 ADD PUSH2 0x16E8 PUSH2 0x1758 JUMP JUMPDEST DUP2 MSTORE PUSH1 0x20 ADD PUSH2 0x16F5 PUSH2 0x1758 JUMP JUMPDEST DUP2 MSTORE PUSH1 0x20 ADD PUSH1 0x60 DUP2 MSTORE POP SWAP1 JUMP JUMPDEST PUSH1 0x40 MLOAD DUP1 PUSH1 0x40 ADD PUSH1 0x40 MSTORE DUP1 PUSH1 0x0 DUP2 MSTORE PUSH1 0x20 ADD PUSH1 0x0 DUP2 MSTORE POP SWAP1 JUMP JUMPDEST PUSH1 0x40 MLOAD DUP1 PUSH1 0x60 ADD PUSH1 0x40 MSTORE DUP1 PUSH1 0x3 SWAP1 PUSH1 0x20 DUP3 MUL DUP1 CALLDATASIZE DUP4 CALLDATACOPY POP SWAP2 SWAP3 SWAP2 POP POP JUMP JUMPDEST PUSH1 0x40 MLOAD DUP1 PUSH1 0x80 ADD PUSH1 0x40 MSTORE DUP1 PUSH1 0x4 SWAP1 PUSH1 0x20 DUP3 MUL DUP1 CALLDATASIZE DUP4 CALLDATACOPY POP SWAP2 SWAP3 SWAP2 POP POP JUMP JUMPDEST PUSH1 0x40 MLOAD DUP1 PUSH1 0x40 ADD PUSH1 0x40 MSTORE DUP1 PUSH2 0x176B PUSH2 0x1796 JUMP JUMPDEST DUP2 MSTORE PUSH1 0x20 ADD PUSH2 0x16B6 PUSH2 0x1796 JUMP JUMPDEST PUSH1 0x40 MLOAD DUP1 PUSH1 0x20 ADD PUSH1 0x40 MSTORE DUP1 PUSH1 0x1 SWAP1 PUSH1 0x20 DUP3 MUL DUP1 CALLDATASIZE DUP4 CALLDATACOPY POP SWAP2 SWAP3 SWAP2 POP POP JUMP JUMPDEST PUSH1 0x40 MLOAD DUP1 PUSH1 0x40 ADD PUSH1 0x40 MSTORE DUP1 PUSH1 0x2 SWAP1 PUSH1 0x20 DUP3 MUL DUP1 CALLDATASIZE DUP4 CALLDATACOPY POP SWAP2 SWAP3 SWAP2 POP POP JUMP INVALID LOG2 PUSH5 0x6970667358 0x22 SLT KECCAK256 0xD6 SLT 0xBC 0x2E RETURNDATACOPY PUSH4 0xDDCA5EC6 0x2B SMOD 0xA6 RETURNDATASIZE 0xD8 PUSH26 0x66BB6CA46C68BD7078485CF254C8FC1164736F6C634300060C00 CALLER "},"methodIdentifiers":{"verifyProof(uint256[2],uint256[2][2],uint256[2],uint256[22])":"c5a0fc26"}}}}}