{"contracts/FlatCharon.sol":{"Charon":{"abi":[{"inputs":[{"internalType":"address","name":"_verifier2","type":"address"},{"internalType":"address","name":"_verifier16","type":"address"},{"internalType":"address","name":"_hasher","type":"address"},{"internalType":"address","name":"_token","type":"address"},{"internalType":"uint256","name":"_fee","type":"uint256"},{"internalType":"address[]","name":"_oracles","type":"address[]"},{"internalType":"uint32","name":"_merkleTreeHeight","type":"uint32"},{"internalType":"uint256","name":"_chainID","type":"uint256"},{"internalType":"string","name":"_name","type":"string"},{"internalType":"string","name":"_symbol","type":"string"}],"stateMutability":"nonpayable","type":"constructor"},{"anonymous":false,"inputs":[{"indexed":true,"internalType":"address","name":"_src","type":"address"},{"indexed":true,"internalType":"address","name":"_dst","type":"address"},{"indexed":false,"internalType":"uint256","name":"_amt","type":"uint256"}],"name":"Approval","type":"event"},{"anonymous":false,"inputs":[{"indexed":false,"internalType":"bool","name":"_isCHD","type":"bool"},{"indexed":false,"internalType":"address","name":"_sender","type":"address"},{"indexed":false,"internalType":"uint256","name":"_depositId","type":"uint256"},{"indexed":false,"internalType":"int256","name":"_amount","type":"int256"}],"name":"DepositToOtherChain","type":"event"},{"anonymous":false,"inputs":[{"indexed":false,"internalType":"address","name":"_lp","type":"address"},{"indexed":false,"internalType":"uint256","name":"_poolAmountOut","type":"uint256"}],"name":"LPDeposit","type":"event"},{"anonymous":false,"inputs":[{"indexed":false,"internalType":"address","name":"_lp","type":"address"},{"indexed":false,"internalType":"uint256","name":"_poolAmountIn","type":"uint256"}],"name":"LPWithdrawal","type":"event"},{"anonymous":false,"inputs":[{"indexed":false,"internalType":"bytes32","name":"_commitment","type":"bytes32"},{"indexed":false,"internalType":"uint256","name":"_index","type":"uint256"},{"indexed":false,"internalType":"bytes","name":"_encryptedOutput","type":"bytes"},{"indexed":false,"internalType":"bool","name":"_isDeposit","type":"bool"}],"name":"NewCommitment","type":"event"},{"anonymous":false,"inputs":[{"indexed":false,"internalType":"bytes32","name":"_nullifier","type":"bytes32"}],"name":"NewNullifier","type":"event"},{"anonymous":false,"inputs":[{"indexed":false,"internalType":"uint256","name":"_oracleIndex","type":"uint256"},{"indexed":false,"internalType":"bytes","name":"_inputData","type":"bytes"}],"name":"OracleDeposit","type":"event"},{"anonymous":false,"inputs":[{"indexed":false,"internalType":"uint256","name":"_amount","type":"uint256"},{"indexed":false,"internalType":"bool","name":"_isCHD","type":"bool"}],"name":"RewardAdded","type":"event"},{"anonymous":false,"inputs":[{"indexed":false,"internalType":"address","name":"_user","type":"address"},{"indexed":false,"internalType":"bool","name":"_inIsCHD","type":"bool"},{"indexed":false,"internalType":"uint256","name":"_tokenAmountIn","type":"uint256"},{"indexed":false,"internalType":"uint256","name":"_tokenAmountOut","type":"uint256"}],"name":"Swap","type":"event"},{"anonymous":false,"inputs":[{"indexed":true,"internalType":"address","name":"_src","type":"address"},{"indexed":true,"internalType":"address","name":"_dst","type":"address"},{"indexed":false,"internalType":"uint256","name":"_amt","type":"uint256"}],"name":"Transfer","type":"event"},{"inputs":[],"name":"BONE","outputs":[{"internalType":"uint256","name":"","type":"uint256"}],"stateMutability":"view","type":"function"},{"inputs":[],"name":"FIELD_SIZE","outputs":[{"internalType":"uint256","name":"","type":"uint256"}],"stateMutability":"view","type":"function"},{"inputs":[],"name":"MAX_IN_RATIO","outputs":[{"internalType":"uint256","name":"","type":"uint256"}],"stateMutability":"view","type":"function"},{"inputs":[],"name":"MAX_OUT_RATIO","outputs":[{"internalType":"uint256","name":"","type":"uint256"}],"stateMutability":"view","type":"function"},{"inputs":[],"name":"ROOT_HISTORY_SIZE","outputs":[{"internalType":"uint32","name":"","type":"uint32"}],"stateMutability":"view","type":"function"},{"inputs":[],"name":"ZERO_VALUE","outputs":[{"internalType":"uint256","name":"","type":"uint256"}],"stateMutability":"view","type":"function"},{"inputs":[{"internalType":"uint256","name":"_toUsers","type":"uint256"},{"internalType":"uint256","name":"_toLPs","type":"uint256"},{"internalType":"uint256","name":"_toOracle","type":"uint256"},{"internalType":"bool","name":"_isCHD","type":"bool"}],"name":"addRewards","outputs":[],"stateMutability":"nonpayable","type":"function"},{"inputs":[{"internalType":"address","name":"_src","type":"address"},{"internalType":"address","name":"_dst","type":"address"}],"name":"allowance","outputs":[{"internalType":"uint256","name":"","type":"uint256"}],"stateMutability":"view","type":"function"},{"inputs":[{"internalType":"address","name":"_spender","type":"address"},{"internalType":"uint256","name":"_amount","type":"uint256"}],"name":"approve","outputs":[{"internalType":"bool","name":"","type":"bool"}],"stateMutability":"nonpayable","type":"function"},{"inputs":[{"internalType":"address","name":"_user","type":"address"}],"name":"balanceOf","outputs":[{"internalType":"uint256","name":"","type":"uint256"}],"stateMutability":"view","type":"function"},{"inputs":[{"internalType":"uint256","name":"_tokenBalanceIn","type":"uint256"},{"internalType":"uint256","name":"_tokenBalanceOut","type":"uint256"},{"internalType":"uint256","name":"_tokenAmountOut","type":"uint256"},{"internalType":"uint256","name":"_swapFee","type":"uint256"}],"name":"calcInGivenOut","outputs":[{"internalType":"uint256","name":"_tokenAmountIn","type":"uint256"}],"stateMutability":"pure","type":"function"},{"inputs":[{"internalType":"uint256","name":"_tokenBalanceIn","type":"uint256"},{"internalType":"uint256","name":"_tokenBalanceOut","type":"uint256"},{"internalType":"uint256","name":"_tokenAmountIn","type":"uint256"},{"internalType":"uint256","name":"_swapFee","type":"uint256"}],"name":"calcOutGivenIn","outputs":[{"internalType":"uint256","name":"_tokenAmountOut","type":"uint256"}],"stateMutability":"pure","type":"function"},{"inputs":[{"internalType":"uint256","name":"_tokenBalanceIn","type":"uint256"},{"internalType":"uint256","name":"_poolSupply","type":"uint256"},{"internalType":"uint256","name":"_tokenAmountIn","type":"uint256"}],"name":"calcPoolOutGivenSingleIn","outputs":[{"internalType":"uint256","name":"_poolAmountOut","type":"uint256"}],"stateMutability":"pure","type":"function"},{"inputs":[{"internalType":"uint256","name":"_tokenBalanceOut","type":"uint256"},{"internalType":"uint256","name":"_inSupply","type":"uint256"},{"internalType":"uint256","name":"_amountIn","type":"uint256"},{"internalType":"uint256","name":"_swapFee","type":"uint256"},{"internalType":"bool","name":"_isPool","type":"bool"}],"name":"calcSingleOutGivenIn","outputs":[{"internalType":"uint256","name":"_tokenAmountOut","type":"uint256"}],"stateMutability":"pure","type":"function"},{"inputs":[{"internalType":"uint256","name":"_tokenBalanceIn","type":"uint256"},{"internalType":"uint256","name":"_tokenBalanceOut","type":"uint256"},{"internalType":"uint256","name":"_swapFee","type":"uint256"}],"name":"calcSpotPrice","outputs":[{"internalType":"uint256","name":"","type":"uint256"}],"stateMutability":"pure","type":"function"},{"inputs":[],"name":"chainID","outputs":[{"internalType":"uint256","name":"","type":"uint256"}],"stateMutability":"view","type":"function"},{"inputs":[],"name":"chd","outputs":[{"internalType":"contract CHD","name":"","type":"address"}],"stateMutability":"view","type":"function"},{"inputs":[],"name":"checkDrip","outputs":[],"stateMutability":"nonpayable","type":"function"},{"inputs":[],"name":"controller","outputs":[{"internalType":"address","name":"","type":"address"}],"stateMutability":"view","type":"function"},{"inputs":[],"name":"decimals","outputs":[{"internalType":"uint8","name":"","type":"uint8"}],"stateMutability":"pure","type":"function"},{"inputs":[{"components":[{"internalType":"bytes","name":"proof","type":"bytes"},{"internalType":"bytes32","name":"root","type":"bytes32"},{"internalType":"uint256","name":"extDataHash","type":"uint256"},{"internalType":"uint256","name":"publicAmount","type":"uint256"},{"internalType":"bytes32[]","name":"inputNullifiers","type":"bytes32[]"},{"internalType":"bytes32[2]","name":"outputCommitments","type":"bytes32[2]"}],"internalType":"struct Charon.Proof","name":"_proofArgs","type":"tuple"},{"components":[{"internalType":"address","name":"recipient","type":"address"},{"internalType":"int256","name":"extAmount","type":"int256"},{"internalType":"uint256","name":"fee","type":"uint256"},{"internalType":"uint256","name":"rebate","type":"uint256"},{"internalType":"bytes","name":"encryptedOutput1","type":"bytes"},{"internalType":"bytes","name":"encryptedOutput2","type":"bytes"}],"internalType":"struct Charon.ExtData","name":"_extData","type":"tuple"},{"internalType":"bool","name":"_isCHD","type":"bool"},{"internalType":"uint256","name":"_maxOut","type":"uint256"}],"name":"depositToOtherChain","outputs":[{"internalType":"uint256","name":"_depositId","type":"uint256"}],"stateMutability":"nonpayable","type":"function"},{"inputs":[],"name":"dripRate","outputs":[{"internalType":"uint256","name":"","type":"uint256"}],"stateMutability":"view","type":"function"},{"inputs":[],"name":"fee","outputs":[{"internalType":"uint256","name":"","type":"uint256"}],"stateMutability":"view","type":"function"},{"inputs":[{"internalType":"uint256[]","name":"_partnerChains","type":"uint256[]"},{"internalType":"address[]","name":"_partnerAddys","type":"address[]"},{"internalType":"uint256","name":"_balance","type":"uint256"},{"internalType":"uint256","name":"_synthBalance","type":"uint256"},{"internalType":"address","name":"_chd","type":"address"},{"internalType":"address","name":"_cfc","type":"address"}],"name":"finalize","outputs":[],"stateMutability":"nonpayable","type":"function"},{"inputs":[{"internalType":"uint256","name":"_id","type":"uint256"}],"name":"getDepositCommitmentsById","outputs":[{"components":[{"components":[{"internalType":"address","name":"recipient","type":"address"},{"internalType":"int256","name":"extAmount","type":"int256"},{"internalType":"uint256","name":"fee","type":"uint256"},{"internalType":"uint256","name":"rebate","type":"uint256"},{"internalType":"bytes","name":"encryptedOutput1","type":"bytes"},{"internalType":"bytes","name":"encryptedOutput2","type":"bytes"}],"internalType":"struct Charon.ExtData","name":"extData","type":"tuple"},{"components":[{"internalType":"bytes","name":"proof","type":"bytes"},{"internalType":"bytes32","name":"root","type":"bytes32"},{"internalType":"uint256","name":"extDataHash","type":"uint256"},{"internalType":"uint256","name":"publicAmount","type":"uint256"},{"internalType":"bytes32[]","name":"inputNullifiers","type":"bytes32[]"},{"internalType":"bytes32[2]","name":"outputCommitments","type":"bytes32[2]"}],"internalType":"struct Charon.Proof","name":"proof","type":"tuple"}],"internalType":"struct Charon.Commitment","name":"","type":"tuple"}],"stateMutability":"view","type":"function"},{"inputs":[{"internalType":"bytes32","name":"_commitment","type":"bytes32"}],"name":"getDepositIdByCommitmentHash","outputs":[{"internalType":"uint256","name":"","type":"uint256"}],"stateMutability":"view","type":"function"},{"inputs":[],"name":"getLastRoot","outputs":[{"internalType":"bytes32","name":"","type":"bytes32"}],"stateMutability":"view","type":"function"},{"inputs":[{"internalType":"uint256","name":"_depositId","type":"uint256"}],"name":"getOracleSubmission","outputs":[{"internalType":"bytes","name":"","type":"bytes"}],"stateMutability":"view","type":"function"},{"inputs":[],"name":"getOracles","outputs":[{"internalType":"address[]","name":"","type":"address[]"}],"stateMutability":"view","type":"function"},{"inputs":[],"name":"getPartnerContracts","outputs":[{"components":[{"internalType":"uint256","name":"chainID","type":"uint256"},{"internalType":"address","name":"contractAddress","type":"address"}],"internalType":"struct Charon.PartnerContract[]","name":"","type":"tuple[]"}],"stateMutability":"view","type":"function"},{"inputs":[],"name":"getSpotPrice","outputs":[{"internalType":"uint256","name":"","type":"uint256"}],"stateMutability":"view","type":"function"},{"inputs":[{"internalType":"uint256","name":"_i","type":"uint256"}],"name":"getZeros","outputs":[{"internalType":"bytes32","name":"","type":"bytes32"}],"stateMutability":"view","type":"function"},{"inputs":[{"internalType":"bytes32","name":"_left","type":"bytes32"},{"internalType":"bytes32","name":"_right","type":"bytes32"}],"name":"hashLeftRight","outputs":[{"internalType":"bytes32","name":"","type":"bytes32"}],"stateMutability":"view","type":"function"},{"inputs":[],"name":"hasher","outputs":[{"internalType":"contract IHasher","name":"","type":"address"}],"stateMutability":"view","type":"function"},{"inputs":[{"internalType":"bytes32","name":"_root","type":"bytes32"}],"name":"isKnownRoot","outputs":[{"internalType":"bool","name":"","type":"bool"}],"stateMutability":"view","type":"function"},{"inputs":[{"internalType":"bytes32","name":"_nullifierHash","type":"bytes32"}],"name":"isSpent","outputs":[{"internalType":"bool","name":"","type":"bool"}],"stateMutability":"view","type":"function"},{"inputs":[],"name":"lastDrip","outputs":[{"internalType":"uint256","name":"","type":"uint256"}],"stateMutability":"view","type":"function"},{"inputs":[],"name":"levels","outputs":[{"internalType":"uint32","name":"","type":"uint32"}],"stateMutability":"view","type":"function"},{"inputs":[{"internalType":"uint256","name":"_poolAmountOut","type":"uint256"},{"internalType":"uint256","name":"_maxCHDIn","type":"uint256"},{"internalType":"uint256","name":"_maxBaseAssetIn","type":"uint256"}],"name":"lpDeposit","outputs":[],"stateMutability":"nonpayable","type":"function"},{"inputs":[{"internalType":"uint256","name":"_tokenAmountIn","type":"uint256"},{"internalType":"uint256","name":"_minPoolAmountOut","type":"uint256"}],"name":"lpSingleCHD","outputs":[],"stateMutability":"nonpayable","type":"function"},{"inputs":[{"internalType":"uint256","name":"_poolAmountIn","type":"uint256"},{"internalType":"uint256","name":"_minCHDOut","type":"uint256"},{"internalType":"uint256","name":"_minBaseAssetOut","type":"uint256"}],"name":"lpWithdraw","outputs":[{"internalType":"uint256","name":"_tokenAmountOut","type":"uint256"}],"stateMutability":"nonpayable","type":"function"},{"inputs":[],"name":"name","outputs":[{"internalType":"string","name":"","type":"string"}],"stateMutability":"view","type":"function"},{"inputs":[],"name":"oracleCHDFunds","outputs":[{"internalType":"uint256","name":"","type":"uint256"}],"stateMutability":"view","type":"function"},{"inputs":[{"internalType":"uint256","name":"_oracleIndex","type":"uint256"},{"internalType":"bytes","name":"_inputData","type":"bytes"}],"name":"oracleDeposit","outputs":[],"stateMutability":"nonpayable","type":"function"},{"inputs":[],"name":"oracleTokenFunds","outputs":[{"internalType":"uint256","name":"","type":"uint256"}],"stateMutability":"view","type":"function"},{"inputs":[],"name":"recordBalance","outputs":[{"internalType":"uint256","name":"","type":"uint256"}],"stateMutability":"view","type":"function"},{"inputs":[],"name":"recordBalanceSynth","outputs":[{"internalType":"uint256","name":"","type":"uint256"}],"stateMutability":"view","type":"function"},{"inputs":[],"name":"singleCHDLPToDrip","outputs":[{"internalType":"uint256","name":"","type":"uint256"}],"stateMutability":"view","type":"function"},{"inputs":[{"internalType":"address","name":"","type":"address"}],"name":"singleLockTime","outputs":[{"internalType":"uint256","name":"","type":"uint256"}],"stateMutability":"view","type":"function"},{"inputs":[{"internalType":"bool","name":"_inIsCHD","type":"bool"},{"internalType":"uint256","name":"_tokenAmountIn","type":"uint256"},{"internalType":"uint256","name":"_minAmountOut","type":"uint256"},{"internalType":"uint256","name":"_maxPrice","type":"uint256"}],"name":"swap","outputs":[{"internalType":"uint256","name":"_tokenAmountOut","type":"uint256"},{"internalType":"uint256","name":"_spotPriceAfter","type":"uint256"}],"stateMutability":"nonpayable","type":"function"},{"inputs":[],"name":"symbol","outputs":[{"internalType":"string","name":"","type":"string"}],"stateMutability":"view","type":"function"},{"inputs":[],"name":"token","outputs":[{"internalType":"contract IERC20","name":"","type":"address"}],"stateMutability":"view","type":"function"},{"inputs":[],"name":"totalSupply","outputs":[{"internalType":"uint256","name":"","type":"uint256"}],"stateMutability":"view","type":"function"},{"inputs":[{"components":[{"internalType":"bytes","name":"proof","type":"bytes"},{"internalType":"bytes32","name":"root","type":"bytes32"},{"internalType":"uint256","name":"extDataHash","type":"uint256"},{"internalType":"uint256","name":"publicAmount","type":"uint256"},{"internalType":"bytes32[]","name":"inputNullifiers","type":"bytes32[]"},{"internalType":"bytes32[2]","name":"outputCommitments","type":"bytes32[2]"}],"internalType":"struct Charon.Proof","name":"_args","type":"tuple"},{"components":[{"internalType":"address","name":"recipient","type":"address"},{"internalType":"int256","name":"extAmount","type":"int256"},{"internalType":"uint256","name":"fee","type":"uint256"},{"internalType":"uint256","name":"rebate","type":"uint256"},{"internalType":"bytes","name":"encryptedOutput1","type":"bytes"},{"internalType":"bytes","name":"encryptedOutput2","type":"bytes"}],"internalType":"struct Charon.ExtData","name":"_extData","type":"tuple"}],"name":"transact","outputs":[],"stateMutability":"payable","type":"function"},{"inputs":[{"internalType":"address","name":"_to","type":"address"},{"internalType":"uint256","name":"_amount","type":"uint256"}],"name":"transfer","outputs":[{"internalType":"bool","name":"","type":"bool"}],"stateMutability":"nonpayable","type":"function"},{"inputs":[{"internalType":"address","name":"_from","type":"address"},{"internalType":"address","name":"_to","type":"address"},{"internalType":"uint256","name":"_amount","type":"uint256"}],"name":"transferFrom","outputs":[{"internalType":"bool","name":"","type":"bool"}],"stateMutability":"nonpayable","type":"function"},{"inputs":[],"name":"userRewards","outputs":[{"internalType":"uint256","name":"","type":"uint256"}],"stateMutability":"view","type":"function"},{"inputs":[],"name":"userRewardsCHD","outputs":[{"internalType":"uint256","name":"","type":"uint256"}],"stateMutability":"view","type":"function"},{"inputs":[],"name":"verifier16","outputs":[{"internalType":"contract IVerifier","name":"","type":"address"}],"stateMutability":"view","type":"function"},{"inputs":[],"name":"verifier2","outputs":[{"internalType":"contract IVerifier","name":"","type":"address"}],"stateMutability":"view","type":"function"}],"evm":{"bytecode":{"linkReferences":{},"object":"610160604052600380546001600160401b03191690553480156200002257600080fd5b50604051620068283803806200682883398101604081905262000045916200050e565b8181858a60008263ffffffff16116200005d57600080fd5b60208263ffffffff16106200007157600080fd5b63ffffffff821660a0526001600160a01b0381166080526000805260026020527f2fe54c60d3acabf3343a35b6eba15db4821b340f76e741e2249685ed4899af6c7fac33ff75c19e70fe83507db0d683fd3465c996598dc972688b7ace676c89077b5560015b60208163ffffffff1611620001e557816001600160a01b031663299e566060405180604001604052806002600060018762000113919062000629565b63ffffffff1681526020019081526020016000205481526020016002600060018762000140919062000629565b63ffffffff168152602001908152602001600020548152506040518263ffffffff1660e01b815260040162000176919062000650565b602060405180830381865afa15801562000194573d6000803e3d6000fd5b505050506040513d601f19601f82011682018060405250810190620001ba919062000683565b63ffffffff821660009081526002602052604090205580620001dc816200069d565b915050620000d7565b5060005b8263ffffffff168163ffffffff161015620002345763ffffffff81166000908152600260209081526040808320549183905290912055806200022b816200069d565b915050620001e9565b505063ffffffff166000908152600260209081526040822054918052600190527fa6eef7e35abe7026729641147f7915573c7e97b47efa546f5f6e3230263bcb4955600462000284838262000752565b50600562000293828262000752565b5050506001600160a01b03808b1660e05289811661010052871660c052610140869052600c80546001600160a01b031916331790556101208390528451620002e390600d906020880190620002f4565b50505050505050505050506200081e565b8280548282559060005260206000209081019282156200034c579160200282015b828111156200034c57825182546001600160a01b0319166001600160a01b0390911617825560209092019160019091019062000315565b506200035a9291506200035e565b5090565b5b808211156200035a57600081556001016200035f565b80516001600160a01b03811681146200038d57600080fd5b919050565b634e487b7160e01b600052604160045260246000fd5b604051601f8201601f191681016001600160401b0381118282101715620003d357620003d362000392565b604052919050565b600082601f830112620003ed57600080fd5b815160206001600160401b038211156200040b576200040b62000392565b8160051b6200041c828201620003a8565b92835284810182019282810190878511156200043757600080fd5b83870192505b848310156200046157620004518362000375565b825291830191908301906200043d565b979650505050505050565b805163ffffffff811681146200038d57600080fd5b600082601f8301126200049357600080fd5b81516001600160401b03811115620004af57620004af62000392565b6020620004c5601f8301601f19168201620003a8565b8281528582848701011115620004da57600080fd5b60005b83811015620004fa578581018301518282018401528201620004dd565b506000928101909101919091529392505050565b6000806000806000806000806000806101408b8d0312156200052f57600080fd5b6200053a8b62000375565b99506200054a60208c0162000375565b98506200055a60408c0162000375565b97506200056a60608c0162000375565b60808c015160a08d015191985096506001600160401b03808211156200058f57600080fd5b6200059d8e838f01620003db565b9650620005ad60c08e016200046c565b955060e08d015194506101008d0151915080821115620005cc57600080fd5b620005da8e838f0162000481565b93506101208d0151915080821115620005f257600080fd5b50620006018d828e0162000481565b9150509295989b9194979a5092959850565b634e487b7160e01b600052601160045260246000fd5b63ffffffff82811682821603908082111562000649576200064962000613565b5092915050565b60408101818360005b60028110156200067a57815183526020928301929091019060010162000659565b50505092915050565b6000602082840312156200069657600080fd5b5051919050565b600063ffffffff808316818103620006b957620006b962000613565b6001019392505050565b600181811c90821680620006d857607f821691505b602082108103620006f957634e487b7160e01b600052602260045260246000fd5b50919050565b601f8211156200074d57600081815260208120601f850160051c81016020861015620007285750805b601f850160051c820191505b81811015620007495782815560010162000734565b5050505b505050565b81516001600160401b038111156200076e576200076e62000392565b62000786816200077f8454620006c3565b84620006ff565b602080601f831160018114620007be5760008415620007a55750858301515b600019600386901b1c1916600185901b17855562000749565b600085815260208120601f198616915b82811015620007ef57888601518255948401946001909101908401620007ce565b50858210156200080e5787850151600019600388901b60f8161c191681555b5050505050600190811b01905550565b60805160a05160c05160e051610100516101205161014051615f156200091360003960008181610987015281816115c401528181611a0e0152611c8d01526000818161083101528181613e4f0152613fd60152600081816103eb0152613f810152600081816105900152613dfa015260008181610ade01528181611736015281816118e101528181611a4c01528181611d6901528181611f1301528181612445015281816125f601528181612e5e01528181612f3b015281816134ec0152818161357f01526137540152600081816105470152818161466e01526146d0015260008181610a8a015261117b0152615f156000f3fe6080604052600436106102a75760003560e01c806306fdde03146102ac578063095ea7b3146102d75780630b785fc6146103075780631595497d1461031e57806315e1b7021461034257806318160ddd146103625780631f639ee41461037757806323b872dd1461038d57806324e14a7a146103ad5780632d57121b146103c35780632fc0355f146103d9578063313ce5671461042557806334540e181461044157806338bf282e146104575780633c0540cf1461047757806340884c52146104a4578063414a37ba146104c6578063436f9be4146104e85780634b4d4ae8146105085780634ecf518b14610535578063522d0d701461057e57806359542ca9146105b25780635bb25be3146105e757806367fb329b146106095780636a01218e146106295780636d9833e31461064957806370a082311461066957806372ee63411461069f57806373ee0ac5146106bf57806376a38e91146106df5780637d33bc73146106ff578063840d205f146107155780638f84e27c146107425780639260df2a1461076257806395d89b4114610782578063992e2a92146107975780639e7b1cd9146107ac578063a8109c80146107bf578063a9059cbb146107df578063aad32641146107ff578063adc879e91461081f578063ba70f75714610853578063bd4920e51461087d578063c36596a614610893578063cd87a3b4146108af578063d2b12ad5146108c4578063d3261592146108e4578063d544c1d2146108fa578063dc76fabc1461091a578063dd62ed3e1461092f578063ddca3f4314610975578063e0e6236e146109a9578063e5285dcc146109c9578063ea2388d2146109f9578063eadb825914610a19578063ec09302114610a2f578063ec73295914610a44578063ed33639f14610a78578063f77c479114610aac578063fc0c546a14610acc575b600080fd5b3480156102b857600080fd5b506102c1610b00565b6040516102ce9190614ba6565b60405180910390f35b3480156102e357600080fd5b506102f76102f2366004614be3565b610b92565b60405190151581526020016102ce565b34801561031357600080fd5b5061031c610bed565b005b34801561032a57600080fd5b5061033460145481565b6040519081526020016102ce565b34801561034e57600080fd5b506102c161035d366004614c0f565b610c4f565b34801561036e57600080fd5b50600654610334565b34801561038357600080fd5b5061033460105481565b34801561039957600080fd5b506102f76103a8366004614c28565b61100b565b3480156103b957600080fd5b50610334600f5481565b3480156103cf57600080fd5b5061033460135481565b3480156103e557600080fd5b5061040d7f000000000000000000000000000000000000000000000000000000000000000081565b6040516001600160a01b0390911681526020016102ce565b34801561043157600080fd5b50604051601281526020016102ce565b34801561044d57600080fd5b5061033460115481565b34801561046357600080fd5b50610334610472366004614c69565b611124565b34801561048357600080fd5b50610334610492366004614c0f565b6000908152601a602052604090205490565b3480156104b057600080fd5b506104b9611201565b6040516102ce9190614c8b565b3480156104d257600080fd5b50610334600080516020615e8083398151915281565b3480156104f457600080fd5b50610334610503366004614cd8565b611262565b34801561051457600080fd5b50610528610523366004614c0f565b6112a4565b6040516102ce9190614d8b565b34801561054157600080fd5b506105697f000000000000000000000000000000000000000000000000000000000000000081565b60405163ffffffff90911681526020016102ce565b34801561058a57600080fd5b5061040d7f000000000000000000000000000000000000000000000000000000000000000081565b3480156105be57600080fd5b506105d26105cd366004614e4f565b6115a4565b604080519283526020830191909152016102ce565b3480156105f357600080fd5b506105fc611bb8565b6040516102ce9190614e8a565b34801561061557600080fd5b50610334610624366004614c0f565b611c2d565b34801561063557600080fd5b50610334610644366004614cd8565b611c4f565b34801561065557600080fd5b506102f7610664366004614c0f565b6120e3565b34801561067557600080fd5b50610334610684366004614ee2565b6001600160a01b031660009081526007602052604090205490565b3480156106ab57600080fd5b506103346106ba366004614eff565b612161565b3480156106cb57600080fd5b5061031c6106da366004614c69565b6121c2565b3480156106eb57600080fd5b506103346106fa366004614eff565b6122ea565b34801561070b57600080fd5b5061033460125481565b34801561072157600080fd5b50610334610730366004614ee2565b60186020526000908152604090205481565b34801561074e57600080fd5b5061031c61075d366004614f31565b612344565b34801561076e57600080fd5b5061031c61077d366004615099565b612590565b34801561078e57600080fd5b506102c16127c9565b3480156107a357600080fd5b506103346127d8565b61031c6107ba3660046153e2565b6127f9565b3480156107cb57600080fd5b5060095461040d906001600160a01b031681565b3480156107eb57600080fd5b506102f76107fa366004614be3565b612b7e565b34801561080b57600080fd5b5061033461081a366004615445565b612b94565b34801561082b57600080fd5b506103347f000000000000000000000000000000000000000000000000000000000000000081565b34801561085f57600080fd5b5060035463ffffffff16600090815260016020526040902054610334565b34801561088957600080fd5b5061033460155481565b34801561089f57600080fd5b50610334670de0b6b3a764000081565b3480156108bb57600080fd5b50610569606481565b3480156108d057600080fd5b5061031c6108df3660046154c2565b6131ac565b3480156108f057600080fd5b5061033460175481565b34801561090657600080fd5b5061031c610915366004614cd8565b61363d565b34801561092657600080fd5b50610334613888565b34801561093b57600080fd5b5061033461094a3660046154fe565b6001600160a01b03918216600090815260086020908152604080832093909416825291909152205490565b34801561098157600080fd5b506103347f000000000000000000000000000000000000000000000000000000000000000081565b3480156109b557600080fd5b506103346109c4366004614cd8565b61389f565b3480156109d557600080fd5b506102f76109e4366004614c0f565b60009081526019602052604090205460ff1690565b348015610a0557600080fd5b50610334610a14366004615537565b61391e565b348015610a2557600080fd5b5061033460165481565b348015610a3b57600080fd5b50610334613a69565b348015610a5057600080fd5b506103347f2fe54c60d3acabf3343a35b6eba15db4821b340f76e741e2249685ed4899af6c81565b348015610a8457600080fd5b5061040d7f000000000000000000000000000000000000000000000000000000000000000081565b348015610ab857600080fd5b50600c5461040d906001600160a01b031681565b348015610ad857600080fd5b5061040d7f000000000000000000000000000000000000000000000000000000000000000081565b606060048054610b0f90615584565b80601f0160208091040260200160405190810160405280929190818152602001828054610b3b90615584565b8015610b885780601f10610b5d57610100808354040283529160200191610b88565b820191906000526020600020905b815481529060010190602001808311610b6b57829003601f168201915b5050505050905090565b3360008181526008602090815260408083206001600160a01b03871680855292528083208590555191929091600080516020615ec083398151915290610bdb9086815260200190565b60405180910390a35060015b92915050565b60165442118015610c0057506000601554115b15610c4d5742601655601754601554811115610c1b57506015545b8060126000828254610c2d91906155d4565b925050819055508060156000828254610c4691906155e7565b9091555050505b565b60606000600a610c606001856155e7565b81548110610c7057610c706155fa565b600091825260209091206040805161010081018252600d90930290910180546001600160a01b03169183019182526001810154606084015260028101546080840152600381015460a0840152600481018054919284929091849160c085019190610cd990615584565b80601f0160208091040260200160405190810160405280929190818152602001828054610d0590615584565b8015610d525780601f10610d2757610100808354040283529160200191610d52565b820191906000526020600020905b815481529060010190602001808311610d3557829003601f168201915b50505050508152602001600582018054610d6b90615584565b80601f0160208091040260200160405190810160405280929190818152602001828054610d9790615584565b8015610de45780601f10610db957610100808354040283529160200191610de4565b820191906000526020600020905b815481529060010190602001808311610dc757829003601f168201915b5050505050815250508152602001600682016040518060c0016040529081600082018054610e1190615584565b80601f0160208091040260200160405190810160405280929190818152602001828054610e3d90615584565b8015610e8a5780601f10610e5f57610100808354040283529160200191610e8a565b820191906000526020600020905b815481529060010190602001808311610e6d57829003601f168201915b5050505050815260200160018201548152602001600282015481526020016003820154815260200160048201805480602002602001604051908101604052809291908181526020018280548015610f0057602002820191906000526020600020905b815481526020019060010190808311610eec575b5050509183525050604080518082019182905260209092019190600584019060029082845b815481526020019060010190808311610f2557505050505081525050815250509050806020015160800151600081518110610f6257610f626155fa565b6020026020010151816020015160800151600181518110610f8557610f856155fa565b6020026020010151826020015160a00151600060028110610fa857610fa86155fa565b6020020151836020015160a00151600160028110610fc857610fc86155fa565b6020908102919091015185820151518651608081015160a090910151604051610ff49897969501615610565b604051602081830303815290604052915050919050565b6000336001600160a01b038516148061104757506001600160a01b03841660009081526008602090815260408083203384529091529020548211155b6110875760405162461bcd60e51b815260206004820152600c60248201526b1b9bdd08185c1c1c9bdd995960a21b60448201526064015b60405180910390fd5b611092848484613a7c565b336001600160a01b0385161461111a576001600160a01b03841660009081526008602090815260408083203384529091529020546110d19083906155e7565b6001600160a01b03851660008181526008602090815260408083203380855290835292819020859055519384529092600080516020615ec0833981519152910160405180910390a35b5060019392505050565b6000600080516020615e80833981519152831061114057600080fd5b600080516020615e80833981519152821061115a57600080fd5b6111626149e5565b8381526020810183905260405163014cf2b360e51b81527f00000000000000000000000000000000000000000000000000000000000000006001600160a01b03169063299e5660906111b890849060040161566f565b602060405180830381865afa1580156111d5573d6000803e3d6000fd5b505050506040513d601f19601f820116820180604052508101906111f9919061567d565b949350505050565b6060600d805480602002602001604051908101604052809291908181526020018280548015610b8857602002820191906000526020600020905b81546001600160a01b0316815260019091019060200180831161123b575050505050905090565b60008061126f8585613b43565b9050600061128e670de0b6b3a764000061128986826155e7565b613b43565b905061129a8282613c1f565b9695505050505050565b6112ac614a03565b600a6112b96001846155e7565b815481106112c9576112c96155fa565b600091825260209091206040805161010081018252600d90930290910180546001600160a01b03169183019182526001810154606084015260028101546080840152600381015460a0840152600481018054919284929091849160c08501919061133290615584565b80601f016020809104026020016040519081016040528092919081815260200182805461135e90615584565b80156113ab5780601f10611380576101008083540402835291602001916113ab565b820191906000526020600020905b81548152906001019060200180831161138e57829003601f168201915b505050505081526020016005820180546113c490615584565b80601f01602080910402602001604051908101604052809291908181526020018280546113f090615584565b801561143d5780601f106114125761010080835404028352916020019161143d565b820191906000526020600020905b81548152906001019060200180831161142057829003601f168201915b5050505050815250508152602001600682016040518060c001604052908160008201805461146a90615584565b80601f016020809104026020016040519081016040528092919081815260200182805461149690615584565b80156114e35780601f106114b8576101008083540402835291602001916114e3565b820191906000526020600020905b8154815290600101906020018083116114c657829003601f168201915b505050505081526020016001820154815260200160028201548152602001600382015481526020016004820180548060200260200160405190810160405280929190818152602001828054801561155957602002820191906000526020600020905b815481526020019060010190808311611545575b5050509183525050604080518082019182905260209092019190600584019060029082845b81548152602001906001019080831161157e575050509190925250505090525092915050565b600e54600090819060ff16156115b957600080fd5b60008060006115e8887f0000000000000000000000000000000000000000000000000000000000000000613c1f565b905060006115f6828a6155e7565b9050891561160d5760125493506011549250611618565b601154935060125492505b6116348461162f6002670de0b6b3a76400006156ac565b613c1f565b89111561164057600080fd5b600061164e85856000611262565b90508781111561165d57600080fd5b8a156116785761167184868460008061391e565b9650611688565b6116858585846000612161565b96505b8887101561169557600080fd5b61169f8288613b43565b8111156116ab57600080fd5b6116b587856155e7565b93508a156118bd57600954604051630a6c1a4f60e11b81526001600160a01b03909116906314d8349e906116ef90339086906004016156c0565b600060405180830381600087803b15801561170957600080fd5b505af115801561171d573d6000803e3d6000fd5b505060405163a9059cbb60e01b81526001600160a01b037f000000000000000000000000000000000000000000000000000000000000000016925063a9059cbb915061176f9033908b906004016156c0565b6020604051808303816000875af115801561178e573d6000803e3d6000fd5b505050506040513d601f19601f820116820180604052508101906117b291906156d9565b6117bb57600080fd5b86601160008282546117cd91906155e7565b909155505082156118b857600954600c5460405163095ea7b360e01b81526001600160a01b039283169263095ea7b39261180e9291169087906004016156c0565b6020604051808303816000875af115801561182d573d6000803e3d6000fd5b505050506040513d601f19601f8201168201806040525081019061185191906156d9565b50600c5460405163214cabe560e11b81526001600160a01b039091169063429957ca906118859086906001906004016156f6565b600060405180830381600087803b15801561189f57600080fd5b505af11580156118b3573d6000803e3d6000fd5b505050505b611b31565b6118c782866155d4565b6040516323b872dd60e01b81529095506001600160a01b037f000000000000000000000000000000000000000000000000000000000000000016906323b872dd9061191a90339030908f90600401615706565b6020604051808303816000875af1158015611939573d6000803e3d6000fd5b505050506040513d601f19601f8201168201806040525081019061195d91906156d9565b61196657600080fd5b60095460405163a9059cbb60e01b81526001600160a01b039091169063a9059cbb906119989033908b906004016156c0565b6020604051808303816000875af11580156119b7573d6000803e3d6000fd5b505050506040513d601f19601f820116820180604052508101906119db91906156d9565b5081601160008282546119ee91906155d4565b925050819055508660126000828254611a0791906155e7565b90915550507f000000000000000000000000000000000000000000000000000000000000000015611b3157600c5460405163095ea7b360e01b81526001600160a01b037f000000000000000000000000000000000000000000000000000000000000000081169263095ea7b392611a8792919091169087906004016156c0565b6020604051808303816000875af1158015611aa6573d6000803e3d6000fd5b505050506040513d601f19601f82011682018060405250810190611aca91906156d9565b50600c5460405163214cabe560e11b81526001600160a01b039091169063429957ca90611afe9086906000906004016156f6565b600060405180830381600087803b158015611b1857600080fd5b505af1158015611b2c573d6000803e3d6000fd5b505050505b611b3d85856000611262565b955080861015611b4c57600080fd5b87861115611b5957600080fd5b611b61610bed565b604080513381528c151560208201529081018b9052606081018890527fbfd50a04f1e6e4aee344f5d0e7f15d74d0dbb58cd1f711daa6463094ca9508cd9060800160405180910390a1505050505094509492505050565b6060600b805480602002602001604051908101604052809291908181526020016000905b82821015611c245760008481526020908190206040805180820190915260028502909101805482526001908101546001600160a01b0316828401529083529092019101611bdc565b50505050905090565b6000602082116102a7575060009081526002602052604090205490565b919050565b600e5460009060ff1615611c6257600080fd5b336000908152601860205260409020544211611c7d57600080fd5b611c85610bed565b6000611cb1857f0000000000000000000000000000000000000000000000000000000000000000613c1f565b90506000611cbf82876155e7565b90506000611ccf82600654613b43565b9050611cdb3383613cb5565b611ce781601154613c1f565b935083600003611cf657600080fd5b84841015611d0357600080fd5b83601154611d1191906155e7565b6011819055506000611d2582601254613c1f565b905080600003611d3457600080fd5b86811015611d4157600080fd5b80601254611d4f91906155e7565b60125560405163a9059cbb60e01b81526001600160a01b037f0000000000000000000000000000000000000000000000000000000000000000169063a9059cbb90611da090339089906004016156c0565b6020604051808303816000875af1158015611dbf573d6000803e3d6000fd5b505050506040513d601f19601f82011682018060405250810190611de391906156d9565b611dec57600080fd5b60095460405163a9059cbb60e01b81526001600160a01b039091169063a9059cbb90611e1e90339085906004016156c0565b6020604051808303816000875af1158015611e3d573d6000803e3d6000fd5b505050506040513d601f19601f82011682018060405250810190611e6191906156d9565b507f63408840c9001c8bb7d2941b1ded0ced9ea308da1addf18e9eab93675613b2583389604051611e939291906156c0565b60405180910390a183156120d857611ead84600654613b43565b9150611eb93385613cb5565b611ec582601154613c1f565b945084601154611ed591906155e7565b601155601254611ee6908390613c1f565b905080601254611ef691906155e7565b601255600c5460405163095ea7b360e01b81526001600160a01b037f000000000000000000000000000000000000000000000000000000000000000081169263095ea7b392611f4e92919091169089906004016156c0565b6020604051808303816000875af1158015611f6d573d6000803e3d6000fd5b505050506040513d601f19601f82011682018060405250810190611f9191906156d9565b50600c5460405163214cabe560e11b81526001600160a01b039091169063429957ca90611fc59088906000906004016156f6565b600060405180830381600087803b158015611fdf57600080fd5b505af1158015611ff3573d6000803e3d6000fd5b5050600954600c5460405163095ea7b360e01b81526001600160a01b03928316945063095ea7b3935061202e929091169085906004016156c0565b6020604051808303816000875af115801561204d573d6000803e3d6000fd5b505050506040513d601f19601f8201168201806040525081019061207191906156d9565b50600c5460405163214cabe560e11b81526001600160a01b039091169063429957ca906120a59084906001906004016156f6565b600060405180830381600087803b1580156120bf57600080fd5b505af11580156120d3573d6000803e3d6000fd5b505050505b505050509392505050565b60008181036120f457506000919050565b60035463ffffffff16805b63ffffffff81166000908152600160205260409020548403612125575060019392505050565b8063ffffffff16600003612137575060645b806121418161572a565b9150508163ffffffff168163ffffffff16036120ff575060009392505050565b60008061217683670de0b6b3a76400006155e7565b90506121828482613c1f565b905060006121948761128984826155d4565b905060006121aa82670de0b6b3a76400006155e7565b90506121b68782613c1f565b98975050505050505050565b600e5460ff16156121d257600080fd5b60006121e36012546006548561389f565b905082601560008282546121f791906155d4565b909155505060155461220c906103e8906156ac565b6017558181101561221c57600080fd5b6122263382613d37565b6009546040516323b872dd60e01b81526001600160a01b03909116906323b872dd9061225a90339030908890600401615706565b6020604051808303816000875af1158015612279573d6000803e3d6000fd5b505050506040513d601f19601f8201168201806040525081019061229d91906156d9565b506122ab42620151806155d4565b3360008181526018602052604090819020929092559051600080516020615e40833981519152916122dd9184906156c0565b60405180910390a1505050565b6000806122f784866155e7565b905060006123058683613b43565b9050600061231b670de0b6b3a7640000836155e7565b905061232f85670de0b6b3a76400006155e7565b93506121b661233e8983613c1f565b85613b43565b600e5460ff161561235457600080fd5b801561243b576009546001600160a01b03166323b872dd333085612378888a6155d4565b61238291906155d4565b6040518463ffffffff1660e01b81526004016123a093929190615706565b6020604051808303816000875af11580156123bf573d6000803e3d6000fd5b505050506040513d601f19601f820116820180604052508101906123e391906156d9565b6123ec57600080fd5b82601260008282546123fe91906155d4565b92505081905550816010600082825461241791906155d4565b92505081905550836014600082825461243091906155d4565b909155506125359050565b6001600160a01b037f0000000000000000000000000000000000000000000000000000000000000000166323b872dd333085612477888a6155d4565b61248191906155d4565b6040518463ffffffff1660e01b815260040161249f93929190615706565b6020604051808303816000875af11580156124be573d6000803e3d6000fd5b505050506040513d601f19601f820116820180604052508101906124e291906156d9565b6124eb57600080fd5b82601160008282546124fd91906155d4565b9250508190555081600f600082825461251691906155d4565b92505081905550836013600082825461252f91906155d4565b90915550505b61253d610bed565b7f46296264cd106b25aaa6bd852f4cf76bbd7d70550bbe6352bc3a47e35c6f1b2f8261256985876155d4565b61257391906155d4565b826040516125829291906156f6565b60405180910390a150505050565b600c546001600160a01b031633146125a757600080fd5b6009546001600160a01b0316156125bd57600080fd5b60118490556012839055600980546001600160a01b0319166001600160a01b03848116919091179091556040516323b872dd60e01b81527f0000000000000000000000000000000000000000000000000000000000000000909116906323b872dd9061263190339030908990600401615706565b6020604051808303816000875af1158015612650573d6000803e3d6000fd5b505050506040513d601f19601f8201168201806040525081019061267491906156d9565b61267d57600080fd5b60095460405163d4beb4fd60e01b81526001600160a01b039091169063d4beb4fd906126af90309087906004016156c0565b600060405180830381600087803b1580156126c957600080fd5b505af11580156126dd573d6000803e3d6000fd5b505050506126f43368056bc75e2d63100000613d37565b60005b85518110156127a157600b604051806040016040528089848151811061271f5761271f6155fa565b6020026020010151815260200188848151811061273e5761273e6155fa565b6020908102919091018101516001600160a01b0390811690925283546001808201865560009586529482902084516002909202019081559201519190920180546001600160a01b03191691909216179055806127998161574a565b9150506126f7565b50600c80546001600160a01b0319166001600160a01b03929092169190911790555050505050565b606060058054610b0f90615584565b6127eb6003670de0b6b3a76400006156ac565b6127f69060016155d4565b81565b600e5460ff161561280957600080fd5b600e805460ff191660011790556040810151602082015160009161282c91615763565b9050600081121561285b576128408161578a565b61285890600080516020615e808339815191526155e7565b90505b8083606001511461286b57600080fd5b61287883602001516120e3565b6128b35760405162461bcd60e51b815260206004820152600c60248201526b1a5b9d985b1a59081c9bdbdd60a21b604482015260640161107e565b6128bc83613db1565b6128f85760405162461bcd60e51b815260206004820152600d60248201526c34b73b30b634b210383937b7b360991b604482015260640161107e565b600080516020615e808339815191528260405160200161291891906157a6565b6040516020818303038152906040528051906020012060001c61293b91906157b9565b8360400151146129815760405162461bcd60e51b81526020600482015260116024820152700d2dcc6dee4e4cac6e840cac840d0c2e6d607b1b604482015260640161107e565b600082602001511215612a0457600954825160208401516001600160a01b039092169163d4beb4fd91906129b49061578a565b6040518363ffffffff1660e01b81526004016129d19291906156c0565b600060405180830381600087803b1580156129eb57600080fd5b505af11580156129ff573d6000803e3d6000fd5b505050505b612a1083836000614314565b604082015160009015612b2957600954604080850151905163d4beb4fd60e01b81526001600160a01b039092169163d4beb4fd91612a53913391906004016156c0565b600060405180830381600087803b158015612a6d57600080fd5b505af1158015612a81573d6000803e3d6000fd5b50505050606083015115612b2957612aa460125460115485606001516000612161565b90508260600151836040015111612aee5760405162461bcd60e51b815260206004820152600e60248201526d72656261746520746f6f2062696760901b604482015260640161107e565b82516040516001600160a01b039091169082156108fc029083906000818181858888f19350505050158015612b27573d6000803e3d6000fd5b505b803414612b6e5760405162461bcd60e51b81526020600482015260136024820152726d73672076616c756520213d2072656261746560681b604482015260640161107e565b5050600e805460ff191690555050565b6000612b8b338484613a7c565b50600192915050565b600080846020015113612ba657600080fd5b600e5460ff1615612bb657600080fd5b6040805180820182528581526020808201889052600a8054600181018255600091909152825180517fc65a7bb8d6351c1cf70c95a316cc6a92839c986682d98bc35f958f4883f9d2a8600d90930292830180546001600160a01b0319166001600160a01b03909216919091178155928101517fc65a7bb8d6351c1cf70c95a316cc6a92839c986682d98bc35f958f4883f9d2a9830155938401517fc65a7bb8d6351c1cf70c95a316cc6a92839c986682d98bc35f958f4883f9d2aa82015560608401517fc65a7bb8d6351c1cf70c95a316cc6a92839c986682d98bc35f958f4883f9d2ab82015560808401519293919283917fc65a7bb8d6351c1cf70c95a316cc6a92839c986682d98bc35f958f4883f9d2ac0190612cd5908261581c565b5060a08201516005820190612cea908261581c565b5050506020820151805160068301908190612d05908261581c565b506020828101516001830155604083015160028301556060830151600383015560808301518051612d3c9260048501920190614a28565b5060a0820151612d529060058301906002614a6f565b5050600a54885160608a01516020808c015160405194985060009750612d7e96509294509092016158db565b60405160208183030381529060405280519060200120905081601a6000838152602001908152602001600020819055506000612dc5601154601254886020015160006122ea565b90508415612e3a576009546020870151604051630a6c1a4f60e11b81526001600160a01b03909216916314d8349e91612e03913391906004016156c0565b600060405180830381600087803b158015612e1d57600080fd5b505af1158015612e31573d6000803e3d6000fd5b50505050612efb565b83811115612e4757600080fd5b6040516323b872dd60e01b81526001600160a01b037f000000000000000000000000000000000000000000000000000000000000000016906323b872dd90612e9790339030908690600401615706565b6020604051808303816000875af1158015612eb6573d6000803e3d6000fd5b505050506040513d601f19601f82011682018060405250810190612eda91906156d9565b612ee357600080fd5b8060116000828254612ef591906155d4565b90915550505b60006103e8601354612f0d91906156ac565b9050818111158015612f1f5750600081115b15612fd65760405163a9059cbb60e01b81526001600160a01b037f0000000000000000000000000000000000000000000000000000000000000000169063a9059cbb90612f7290339085906004016156c0565b6020604051808303816000875af1158015612f91573d6000803e3d6000fd5b505050506040513d601f19601f82011682018060405250810190612fb591906156d9565b612fbe57600080fd5b8060136000828254612fd091906155e7565b90915550505b6103e8601454612fe691906156ac565b9050612ff58760200151614510565b81111580156130045750600081115b156130975760095460405163a9059cbb60e01b81526001600160a01b039091169063a9059cbb9061303b90339085906004016156c0565b6020604051808303816000875af115801561305a573d6000803e3d6000fd5b505050506040513d601f19601f8201168201806040525081019061307e91906156d9565b50806014600082825461309191906155e7565b90915550505b60005b600d546130a9906001906155e7565b811161314657600d81815481106130c2576130c26155fa565b6000918252602090912001546001600160a01b03166351e3aea96130e587610c4f565b6040518263ffffffff1660e01b81526004016131019190614ba6565b600060405180830381600087803b15801561311b57600080fd5b505af115801561312f573d6000803e3d6000fd5b50505050808061313e9061574a565b91505061309a565b5061315388886001614314565b6020808801516040805189151581523393810193909352820186905260608201527f0a690c60dfc5e43723ca5640f57a04e22055c1e98fe144bb95da52ce24ae4b9b9060800160405180910390a1505050949350505050565b600e5460ff16156131bc57600080fd5b6131c4614a9c565b6131cc614ad5565b60606000600d86815481106131e3576131e36155fa565b600091825260209091200154604051636b2fd90560e01b81526001600160a01b0390911690636b2fd9059061321c908890600401614ba6565b6000604051808303816000875af115801561323b573d6000803e3d6000fd5b505050506040513d6000823e601f3d908101601f191682016040526132639190810190615945565b60408051600280825260608201909252929450909250816020016020820280368337505050608085015281516132a2906020908401810190840161598b565b8a608001516000815181106132b9576132b96155fa565b602002602001018b608001516001815181106132d7576132d76155fa565b602002602001018c60a001516000600281106132f5576132f56155fa565b602002018d60a00151600160028110613310576133106155fa565b60a08f019590955260808e0195909552948d52602090920290920193909352929052919091525261334384846001614314565b60006107d06010541115613483576103e860105461336191906156ac565b9050806010600082825461337591906155e7565b90915550506001600160a01b0382161561340c576133946002826156ac565b60095460405163a9059cbb60e01b81529192506001600160a01b03169063a9059cbb906133c790859085906004016156c0565b6020604051808303816000875af11580156133e6573d6000803e3d6000fd5b505050506040513d601f19601f8201168201806040525081019061340a91906156d9565b505b60095460405163a9059cbb60e01b81526001600160a01b039091169063a9059cbb9061343e90339085906004016156c0565b6020604051808303816000875af115801561345d573d6000803e3d6000fd5b505050506040513d601f19601f8201168201806040525081019061348191906156d9565b505b6107d0600f5411156135fb576103e8600f5461349f91906156ac565b905080600f60008282546134b391906155e7565b90915550506001600160a01b03821615613568576134d26002826156ac565b60405163a9059cbb60e01b81529091506001600160a01b037f0000000000000000000000000000000000000000000000000000000000000000169063a9059cbb9061352390859085906004016156c0565b6020604051808303816000875af1158015613542573d6000803e3d6000fd5b505050506040513d601f19601f8201168201806040525081019061356691906156d9565b505b60405163a9059cbb60e01b81526001600160a01b037f0000000000000000000000000000000000000000000000000000000000000000169063a9059cbb906135b690339085906004016156c0565b6020604051808303816000875af11580156135d5573d6000803e3d6000fd5b505050506040513d601f19601f820116820180604052508101906135f991906156d9565b505b7f7f293aa0b9ae407a05fb89bef36529d7b5a7b5912e5cfa7a0ee9e251e70c6b0e878760405161362c929190615a3b565b60405180910390a150505050505050565b600e5460ff161561364d57600080fd5b600061365b84600654613b43565b90506000811161366a57600080fd5b600061367882601154613c1f565b9050828111156136bf5760405162461bcd60e51b81526020600482015260126024820152711b585e10985cd9505cdcd95d125b881a1a5d60721b604482015260640161107e565b806011546136cd91906155d4565b60118190555060006136e183601254613c1f565b9050848111156137225760405162461bcd60e51b815260206004820152600c60248201526b1b585e10d211125b881a1a5d60a21b604482015260640161107e565b8060125461373091906155d4565b60125561373d3387613d37565b6040516323b872dd60e01b81526001600160a01b037f000000000000000000000000000000000000000000000000000000000000000016906323b872dd9061378d90339030908790600401615706565b6020604051808303816000875af11580156137ac573d6000803e3d6000fd5b505050506040513d601f19601f820116820180604052508101906137d091906156d9565b6137d957600080fd5b6009546040516323b872dd60e01b81526001600160a01b03909116906323b872dd9061380d90339030908690600401615706565b6020604051808303816000875af115801561382c573d6000803e3d6000fd5b505050506040513d601f19601f8201168201806040525081019061385091906156d9565b50613859610bed565b600080516020615e4083398151915233876040516138789291906156c0565b60405180910390a1505050505050565b600061389a6012546011546000611262565b905090565b6000806138b483670de0b6b3a7640000613c1f565b905060006138c282876155d4565b905060006138d08288613b43565b905060006138f7826138f2670de0b6b3a7640000671bc16d674ec80000613b43565b61452c565b905060006139058289613c1f565b905061391188826155e7565b9998505050505050505050565b60008082156139ee57613941670de0b6b3a7640000671bc16d674ec80000613b43565b9050600061395786670de0b6b3a7640000613c1f565b9050600061396582896155e7565b90506000613973828a613b43565b9050600061398d826138f2670de0b6b3a764000088613b43565b9050600061399b828d613c1f565b905060006139a9828e6155e7565b905060006139c86139c289670de0b6b3a76400006155e7565b8c613c1f565b90506139e08261162f83670de0b6b3a76400006155e7565b985050505050505050613a5f565b6000613a0285670de0b6b3a76400006155e7565b9050613a0e8682613c1f565b90506000613a24670de0b6b3a764000089613b43565b90506000613a43613a3d83670de0b6b3a76400006155e7565b8961452c565b9050613a4f8a82613c1f565b613a59908b6155e7565b94505050505b5095945050505050565b6127f66002670de0b6b3a76400006156ac565b6001600160a01b0383166000908152601860205260409020544211613aa057600080fd5b6001600160a01b038316600090815260076020526040902054613ac49082906155e7565b6001600160a01b038085166000908152600760205260408082209390935590841681522054613af49082906155d4565b6001600160a01b038084166000818152600760205260409081902093909355915190851690600080516020615ea083398151915290613b369085815260200190565b60405180910390a3505050565b600081600003613b845760405162461bcd60e51b815260206004820152600c60248201526b4552525f4449565f5a45524f60a01b604482015260640161107e565b6000613b98670de0b6b3a764000085615a54565b9050831580613bb75750670de0b6b3a7640000613bb585836156ac565b145b613bd35760405162461bcd60e51b815260040161107e90615a6b565b6000613be06002856156ac565b613bea90836155d4565b905081811015613c0c5760405162461bcd60e51b815260040161107e90615a6b565b613c1684826156ac565b95945050505050565b600080613c2c8385615a54565b9050831580613c43575082613c4185836156ac565b145b613c825760405162461bcd60e51b815260206004820152601060248201526f4552525f4d554c5f4f564552464c4f5760801b604482015260640161107e565b6000613c976002670de0b6b3a76400006156ac565b613ca190836155d4565b9050613c16670de0b6b3a7640000826156ac565b6001600160a01b038216600090815260076020526040902054613cd99082906155e7565b6001600160a01b038316600090815260076020526040902055600654613d009082906155e7565b6006556040518181526000906001600160a01b03841690600080516020615ea0833981519152906020015b60405180910390a35050565b6001600160a01b038216600090815260076020526040902054613d5b9082906155d4565b6001600160a01b038316600090815260076020526040902055600654613d829082906155d4565b6006556040518181526001600160a01b03831690600090600080516020615ea083398151915290602001613d2b565b6000613dbb6149e5565b613dc3614b14565b613dcb6149e5565b8460000151806020019051810190613de39190615ada565b6080880151519295509093509150600203613f72577f00000000000000000000000000000000000000000000000000000000000000006001600160a01b031663c9219a7a8484846040518061010001604052808b6020015160001c81526020018b6060015181526020017f000000000000000000000000000000000000000000000000000000000000000081526020018b6040015181526020018b60800151600081518110613e9457613e946155fa565b602002602001015160001c81526020018b60800151600181518110613ebb57613ebb6155fa565b602002602001015160001c81526020018b60a00151600060028110613ee257613ee26155fa565b602002015160001c81526020018b60a00151600160028110613f0657613f066155fa565b602002015190526040516001600160e01b031960e087901b168152613f319493929190600401615b95565b602060405180830381865afa158015613f4e573d6000803e3d6000fd5b505050506040513d601f19601f82011682018060405250810190613c1691906156d9565b8460800151516010036142da577f00000000000000000000000000000000000000000000000000000000000000006001600160a01b031663c5a0fc26848484604051806102c001604052808b6020015160001c81526020018b6060015181526020017f000000000000000000000000000000000000000000000000000000000000000081526020018b6040015181526020018b6080015160008151811061401b5761401b6155fa565b602002602001015160001c81526020018b60800151600181518110614042576140426155fa565b602002602001015160001c81526020018b60800151600281518110614069576140696155fa565b602002602001015160001c81526020018b60800151600381518110614090576140906155fa565b602002602001015160001c81526020018b608001516004815181106140b7576140b76155fa565b602002602001015160001c81526020018b608001516005815181106140de576140de6155fa565b602002602001015160001c81526020018b60800151600681518110614105576141056155fa565b602002602001015160001c81526020018b6080015160078151811061412c5761412c6155fa565b602002602001015160001c81526020018b60800151600881518110614153576141536155fa565b602002602001015160001c81526020018b6080015160098151811061417a5761417a6155fa565b602002602001015160001c81526020018b60800151600a815181106141a1576141a16155fa565b602002602001015160001c81526020018b60800151600b815181106141c8576141c86155fa565b602002602001015160001c81526020018b60800151600c815181106141ef576141ef6155fa565b602002602001015160001c81526020018b60800151600d81518110614216576142166155fa565b602002602001015160001c81526020018b60800151600e8151811061423d5761423d6155fa565b602002602001015160001c81526020018b60800151600f81518110614264576142646155fa565b602002602001015160001c81526020018b60a0015160006002811061428b5761428b6155fa565b602002015160001c81526020018b60a001516001600281106142af576142af6155fa565b602002015190526040516001600160e01b031960e087901b168152613f319493929190600401615bf2565b60405162461bcd60e51b815260206004820152600f60248201526e189859081a5b9c1d5d0818dbdd5b9d608a1b604482015260640161107e565b60005b83608001515181101561445057601960008560800151838151811061433e5761433e6155fa565b60209081029190910181015182528101919091526040016000205460ff161561439f5760405162461bcd60e51b8152602060048201526013602482015272125b9c1d5d08185b1c9958591e481cdc195b9d606a1b604482015260640161107e565b600160196000866080015184815181106143bb576143bb6155fa565b6020026020010151815260200190815260200160002060006101000a81548160ff0219169083151502179055507f5e58f77bbf94b46d8d896e29753e4458c6e59b48581e20ed58c9558e96f297ce8460800151828151811061441f5761441f6155fa565b602002602001015160405161443691815260200190565b60405180910390a1806144488161574a565b915050614317565b5060a083015180516020909101516144689190614659565b50614471610bed565b60a083015151600354600080516020615e6083398151915291906144a490600290600160201b900463ffffffff16615c43565b8460800151846040516144ba9493929190615c60565b60405180910390a160a0830151600080516020615e6083398151915290600160200201516003546144fa90600190600160201b900463ffffffff16615c43565b8460a00151846040516122dd9493929190615c60565b600080821215614528576145238261578a565b610be7565b5090565b600060018310156145765760405162461bcd60e51b81526020600482015260146024820152734552525f504f575f424153455f544f4f5f4c4f5760601b604482015260640161107e565b600161458b670de0b6b3a76400006002615a54565b61459591906155e7565b8311156145dc5760405162461bcd60e51b815260206004820152601560248201527408aa4a4bea09eaebe8482a68abea89e9ebe90928e9605b1b604482015260640161107e565b60006145e783614814565b905060006145f582856155e7565b9050600061460b8661460685614832565b614846565b90508160000361461f579250610be7915050565b6000614642878461463d6402540be400670de0b6b3a76400006156ac565b6148bb565b905061464e8282613c1f565b979650505050505050565b600354600160201b900463ffffffff166146947f00000000000000000000000000000000000000000000000000000000000000006002615da4565b63ffffffff168163ffffffff16036146ab57600080fd5b60006146b8600283615db9565b905060006146c68585611124565b905060008060015b7f000000000000000000000000000000000000000000000000000000000000000063ffffffff168163ffffffff16101561478e5761470d600286615ddc565b63ffffffff166000036147475763ffffffff8116600090815260026020908152604080832054918390529091208590558493509150614763565b63ffffffff811660009081526020819052604090205492508391505b61476d8383611124565b935061477a600286615db9565b94508061478681615dff565b9150506146ce565b506003546000906064906147a99063ffffffff166001615e22565b6147b39190615ddc565b6003805463ffffffff191663ffffffff8316908117909155600090815260016020526040902085905590506147e9866002615e22565b600360046101000a81548163ffffffff021916908363ffffffff160217905550505050505092915050565b6000670de0b6b3a764000061482883614832565b610be79190615a54565b6000610be7670de0b6b3a7640000836156ac565b60006148536002836157b9565b60000361486857670de0b6b3a764000061486a565b825b90506148776002836156ac565b91505b8115610be75761488a8384613c1f565b92506148976002836157b9565b156148a9576148a68184613c1f565b90505b6148b46002836156ac565b915061487a565b60008281806148d287670de0b6b3a76400006149ae565b670de0b6b3a76400009550909250905083600060015b8783106149a1576000614903670de0b6b3a764000083615a54565b90506000806149238961491e670de0b6b3a7640000866155e7565b6149ae565b915091506149358661162f848b613c1f565b95506149418684613b43565b955085600003614953575050506149a1565b861561495d579315935b8015614967579315935b841561497e57614977868b6155e7565b995061498b565b614988868b6155d4565b99505b50505080806149999061574a565b9150506148e8565b5050505050509392505050565b6000808284106149cd576149c283856155e7565b6000915091506149de565b6149d784846155e7565b6001915091505b9250929050565b60405180604001604052806002906020820280368337509192915050565b6040518060400160405280614a16614ad5565b8152602001614a23614a9c565b905290565b828054828255906000526020600020908101928215614a63579160200282015b82811115614a63578251825591602001919060010190614a48565b50614528929150614b41565b8260028101928215614a635791602002820182811115614a63578251825591602001919060010190614a48565b6040518060c001604052806060815260200160008019168152602001600081526020016000815260200160608152602001614a236149e5565b6040518060c0016040528060006001600160a01b0316815260200160008152602001600081526020016000815260200160608152602001606081525090565b60405180604001604052806002905b614b2b6149e5565b815260200190600190039081614b235790505090565b5b808211156145285760008155600101614b42565b60005b83811015614b71578181015183820152602001614b59565b50506000910152565b60008151808452614b92816020860160208601614b56565b601f01601f19169290920160200192915050565b602081526000614bb96020830184614b7a565b9392505050565b6001600160a01b0381168114614bd557600080fd5b50565b8035611c4a81614bc0565b60008060408385031215614bf657600080fd5b8235614c0181614bc0565b946020939093013593505050565b600060208284031215614c2157600080fd5b5035919050565b600080600060608486031215614c3d57600080fd5b8335614c4881614bc0565b92506020840135614c5881614bc0565b929592945050506040919091013590565b60008060408385031215614c7c57600080fd5b50508035926020909101359150565b6020808252825182820181905260009190848201906040850190845b81811015614ccc5783516001600160a01b031683529284019291840191600101614ca7565b50909695505050505050565b600080600060608486031215614ced57600080fd5b505081359360208301359350604090920135919050565b60018060a01b0381511682526020810151602083015260408101516040830152606081015160608301526000608082015160c06080850152614d4960c0850182614b7a565b905060a083015184820360a0860152613c168282614b7a565b8060005b6002811015614d85578151845260209384019390910190600101614d66565b50505050565b600060208083528351604082850152614da76060850182614d04565b905081850151601f19858303016040860152805160e08352614dcc60e0840182614b7a565b9050838201518484015260408201516040840152606082015160608401526080820151838203608085015281815180845286840191508683019350600092505b80831015614e2c5783518252928601926001929092019190860190614e0c565b5060a084015195506121b660a0860187614d62565b8015158114614bd557600080fd5b60008060008060808587031215614e6557600080fd5b8435614e7081614e41565b966020860135965060408601359560600135945092505050565b602080825282518282018190526000919060409081850190868401855b82811015614ed5578151805185528601516001600160a01b0316868501529284019290850190600101614ea7565b5091979650505050505050565b600060208284031215614ef457600080fd5b8135614bb981614bc0565b60008060008060808587031215614f1557600080fd5b5050823594602084013594506040840135936060013592509050565b60008060008060808587031215614f4757600080fd5b8435935060208501359250604085013591506060850135614f6781614e41565b939692955090935050565b634e487b7160e01b600052604160045260246000fd5b60405160c081016001600160401b0381118282101715614faa57614faa614f72565b60405290565b604080519081016001600160401b0381118282101715614faa57614faa614f72565b604051601f8201601f191681016001600160401b0381118282101715614ffa57614ffa614f72565b604052919050565b60006001600160401b0382111561501b5761501b614f72565b5060051b60200190565b600082601f83011261503657600080fd5b8135602061504b61504683615002565b614fd2565b82815260059290921b8401810191818101908684111561506a57600080fd5b8286015b8481101561508e57803561508181614bc0565b835291830191830161506e565b509695505050505050565b60008060008060008060c087890312156150b257600080fd5b86356001600160401b03808211156150c957600080fd5b818901915089601f8301126150dd57600080fd5b813560206150ed61504683615002565b82815260059290921b8401810191818101908d84111561510c57600080fd5b948201945b8386101561512a57853582529482019490820190615111565b9a50508a01359250508082111561514057600080fd5b5061514d89828a01615025565b955050604087013593506060870135925061516a60808801614bd8565b915061517860a08801614bd8565b90509295509295509295565b60006001600160401b0382111561519d5761519d614f72565b50601f01601f191660200190565b600082601f8301126151bc57600080fd5b81356151ca61504682615184565b8181528460208386010111156151df57600080fd5b816020850160208301376000918101602001919091529392505050565b600082601f83011261520d57600080fd5b8135602061521d61504683615002565b82815260059290921b8401810191818101908684111561523c57600080fd5b8286015b8481101561508e5780358352918301918301615240565b600082601f83011261526857600080fd5b615270614fb0565b80604084018581111561528257600080fd5b845b8181101561529c578035845260209384019301615284565b509095945050505050565b600060e082840312156152b957600080fd5b6152c1614f88565b905081356001600160401b03808211156152da57600080fd5b6152e6858386016151ab565b8352602084013560208401526040840135604084015260608401356060840152608084013591508082111561531a57600080fd5b50615327848285016151fc565b60808301525061533a8360a08401615257565b60a082015292915050565b600060c0828403121561535757600080fd5b61535f614f88565b905061536a82614bd8565b815260208281013590820152604080830135908201526060808301359082015260808201356001600160401b03808211156153a457600080fd5b6153b0858386016151ab565b608084015260a08401359150808211156153c957600080fd5b506153d6848285016151ab565b60a08301525092915050565b600080604083850312156153f557600080fd5b82356001600160401b038082111561540c57600080fd5b615418868387016152a7565b9350602085013591508082111561542e57600080fd5b5061543b85828601615345565b9150509250929050565b6000806000806080858703121561545b57600080fd5b84356001600160401b038082111561547257600080fd5b61547e888389016152a7565b9550602087013591508082111561549457600080fd5b506154a187828801615345565b93505060408501356154b281614e41565b9396929550929360600135925050565b600080604083850312156154d557600080fd5b8235915060208301356001600160401b038111156154f257600080fd5b61543b858286016151ab565b6000806040838503121561551157600080fd5b823561551c81614bc0565b9150602083013561552c81614bc0565b809150509250929050565b600080600080600060a0868803121561554f57600080fd5b85359450602086013593506040860135925060608601359150608086013561557681614e41565b809150509295509295909350565b600181811c9082168061559857607f821691505b6020821081036155b857634e487b7160e01b600052602260045260246000fd5b50919050565b634e487b7160e01b600052601160045260246000fd5b80820180821115610be757610be76155be565b81810381811115610be757610be76155be565b634e487b7160e01b600052603260045260246000fd5b87815286602082015285604082015284606082015260e06080820152600061563b60e0830186614b7a565b82810360a084015261564d8186614b7a565b905082810360c08401526156618185614b7a565b9a9950505050505050505050565b60408101610be78284614d62565b60006020828403121561568f57600080fd5b5051919050565b634e487b7160e01b600052601260045260246000fd5b6000826156bb576156bb615696565b500490565b6001600160a01b03929092168252602082015260400190565b6000602082840312156156eb57600080fd5b8151614bb981614e41565b9182521515602082015260400190565b6001600160a01b039384168152919092166020820152604081019190915260600190565b600063ffffffff821680615740576157406155be565b6000190192915050565b60006001820161575c5761575c6155be565b5060010190565b8181036000831280158383131683831282161715615783576157836155be565b5092915050565b6000600160ff1b820161579f5761579f6155be565b5060000390565b602081526000614bb96020830184614d04565b6000826157c8576157c8615696565b500690565b601f82111561581757600081815260208120601f850160051c810160208610156157f45750805b601f850160051c820191505b8181101561581357828155600101615800565b5050505b505050565b81516001600160401b0381111561583557615835614f72565b615849816158438454615584565b846157cd565b602080601f83116001811461587e57600084156158665750858301515b600019600386901b1c1916600185901b178555615813565b600085815260208120601f198616915b828110156158ad5788860151825594840194600190910190840161588e565b50858210156158cb5787850151600019600388901b60f8161c191681555b5050505050600190811b01905550565b6060815260006158ee6060830186614b7a565b60208301949094525060400152919050565b600082601f83011261591157600080fd5b815161591f61504682615184565b81815284602083860101111561593457600080fd5b6111f9826020830160208701614b56565b6000806040838503121561595857600080fd5b82516001600160401b0381111561596e57600080fd5b61597a85828601615900565b925050602083015161552c81614bc0565b600080600080600080600060e0888a0312156159a657600080fd5b8751602089015160408a015160608b015160808c0151939a50919850965094506001600160401b03808211156159db57600080fd5b6159e78b838c01615900565b945060a08a01519150808211156159fd57600080fd5b615a098b838c01615900565b935060c08a0151915080821115615a1f57600080fd5b50615a2c8a828b01615900565b91505092959891949750929550565b8281526040602082015260006111f96040830184614b7a565b8082028115828204841417610be757610be76155be565b60208082526010908201526f11549497d1125597d25395115493905360821b604082015260600190565b600082601f830112615aa657600080fd5b615aae614fb0565b806040840185811115615ac057600080fd5b845b8181101561529c578051845260209384019301615ac2565b60008060006101008486031215615af057600080fd5b615afa8585615a95565b9250604085605f860112615b0d57600080fd5b615b15614fb0565b8060c0870188811115615b2757600080fd5b8388015b81811015615b4c57615b3d8a82615a95565b84526020909301928401615b2b565b50819550615b5a8982615a95565b9450505050509250925092565b8060005b6002811015614d8557615b7f848351614d62565b6040939093019260209190910190600101615b6b565b6102008101615ba48287614d62565b615bb16040830186615b67565b615bbe60c0830185614d62565b61010082018360005b6008811015615be6578151835260209283019290910190600101615bc7565b50505095945050505050565b6103c08101615c018287614d62565b615c0e6040830186615b67565b615c1b60c0830185614d62565b61010082018360005b6016811015615be6578151835260209283019290910190600101615c24565b63ffffffff828116828216039080821115615783576157836155be565b84815263ffffffff84166020820152608060408201526000615c856080830185614b7a565b9050821515606083015295945050505050565b600181815b80851115615cd5578163ffffffff04821115615cbb57615cbb6155be565b80851615615cc857918102915b93841c9390800290615c9d565b509250929050565b600082615cec57506001610be7565b81615cf957506000610be7565b8160018114615d0f5760028114615d1957615d4a565b6001915050610be7565b60ff841115615d2a57615d2a6155be565b6001841b915063ffffffff821115615d4457615d446155be565b50610be7565b5060208310610133831016604e8410600b8410161715615d7c575081810a63ffffffff811115614523576145236155be565b615d868383615c98565b8063ffffffff04821115615d9c57615d9c6155be565b029392505050565b600063ffffffff6111f9818516828516615cdd565b600063ffffffff80841680615dd057615dd0615696565b92169190910492915050565b600063ffffffff80841680615df357615df3615696565b92169190910692915050565b600063ffffffff808316818103615e1857615e186155be565b6001019392505050565b63ffffffff818116838216019080821115615783576157836155be56fef16ede70e2cc42ecf32f5e0d9505c5e24fafa0ea54a44ca42089b4170f9af88c2521e31ea1559c6ff96bf5bd8f8332b81f1a00fce5f2f35430bd450a657c2a7630644e72e131a029b85045b68181585d2833e84879b9709143e1f593f0000001ddf252ad1be2c89b69c2b068fc378daa952ba7f163c4a11628f55a4df523b3ef8c5be1e5ebec7d5bd14f71427d1e84f3dd0314c0f7b2291e5b200ac8c7c3b925a26469706673582212206468ca678d38a15b2bd38129ea5f91be5957654f013d3bc79515a809b2fec2ef64736f6c63430008110033","opcodes":"PUSH2 0x160 PUSH1 0x40 MSTORE PUSH1 0x3 DUP1 SLOAD PUSH1 0x1 PUSH1 0x1 PUSH1 0x40 SHL SUB NOT AND SWAP1 SSTORE CALLVALUE DUP1 ISZERO PUSH3 0x22 JUMPI PUSH1 0x0 DUP1 REVERT JUMPDEST POP PUSH1 0x40 MLOAD PUSH3 0x6828 CODESIZE SUB DUP1 PUSH3 0x6828 DUP4 CODECOPY DUP2 ADD PUSH1 0x40 DUP2 SWAP1 MSTORE PUSH3 0x45 SWAP2 PUSH3 0x50E JUMP JUMPDEST DUP2 DUP2 DUP6 DUP11 PUSH1 0x0 DUP3 PUSH4 0xFFFFFFFF AND GT PUSH3 0x5D JUMPI PUSH1 0x0 DUP1 REVERT JUMPDEST PUSH1 0x20 DUP3 PUSH4 0xFFFFFFFF AND LT PUSH3 0x71 JUMPI PUSH1 0x0 DUP1 REVERT JUMPDEST PUSH4 0xFFFFFFFF DUP3 AND PUSH1 0xA0 MSTORE PUSH1 0x1 PUSH1 0x1 PUSH1 0xA0 SHL SUB DUP2 AND PUSH1 0x80 MSTORE PUSH1 0x0 DUP1 MSTORE PUSH1 0x2 PUSH1 0x20 MSTORE PUSH32 0x2FE54C60D3ACABF3343A35B6EBA15DB4821B340F76E741E2249685ED4899AF6C PUSH32 0xAC33FF75C19E70FE83507DB0D683FD3465C996598DC972688B7ACE676C89077B SSTORE PUSH1 0x1 JUMPDEST PUSH1 0x20 DUP2 PUSH4 0xFFFFFFFF AND GT PUSH3 0x1E5 JUMPI DUP2 PUSH1 0x1 PUSH1 0x1 PUSH1 0xA0 SHL SUB AND PUSH4 0x299E5660 PUSH1 0x40 MLOAD DUP1 PUSH1 0x40 ADD PUSH1 0x40 MSTORE DUP1 PUSH1 0x2 PUSH1 0x0 PUSH1 0x1 DUP8 PUSH3 0x113 SWAP2 SWAP1 PUSH3 0x629 JUMP JUMPDEST PUSH4 0xFFFFFFFF AND DUP2 MSTORE PUSH1 0x20 ADD SWAP1 DUP2 MSTORE PUSH1 0x20 ADD PUSH1 0x0 KECCAK256 SLOAD DUP2 MSTORE PUSH1 0x20 ADD PUSH1 0x2 PUSH1 0x0 PUSH1 0x1 DUP8 PUSH3 0x140 SWAP2 SWAP1 PUSH3 0x629 JUMP JUMPDEST PUSH4 0xFFFFFFFF AND DUP2 MSTORE PUSH1 0x20 ADD SWAP1 DUP2 MSTORE PUSH1 0x20 ADD PUSH1 0x0 KECCAK256 SLOAD DUP2 MSTORE POP PUSH1 0x40 MLOAD DUP3 PUSH4 0xFFFFFFFF AND PUSH1 0xE0 SHL DUP2 MSTORE PUSH1 0x4 ADD PUSH3 0x176 SWAP2 SWAP1 PUSH3 0x650 JUMP JUMPDEST PUSH1 0x20 PUSH1 0x40 MLOAD DUP1 DUP4 SUB DUP2 DUP7 GAS STATICCALL ISZERO DUP1 ISZERO PUSH3 0x194 JUMPI RETURNDATASIZE PUSH1 0x0 DUP1 RETURNDATACOPY RETURNDATASIZE PUSH1 0x0 REVERT JUMPDEST POP POP POP POP PUSH1 0x40 MLOAD RETURNDATASIZE PUSH1 0x1F NOT PUSH1 0x1F DUP3 ADD AND DUP3 ADD DUP1 PUSH1 0x40 MSTORE POP DUP2 ADD SWAP1 PUSH3 0x1BA SWAP2 SWAP1 PUSH3 0x683 JUMP JUMPDEST PUSH4 0xFFFFFFFF DUP3 AND PUSH1 0x0 SWAP1 DUP2 MSTORE PUSH1 0x2 PUSH1 0x20 MSTORE PUSH1 0x40 SWAP1 KECCAK256 SSTORE DUP1 PUSH3 0x1DC DUP2 PUSH3 0x69D JUMP JUMPDEST SWAP2 POP POP PUSH3 0xD7 JUMP JUMPDEST POP PUSH1 0x0 JUMPDEST DUP3 PUSH4 0xFFFFFFFF AND DUP2 PUSH4 0xFFFFFFFF AND LT ISZERO PUSH3 0x234 JUMPI PUSH4 0xFFFFFFFF DUP2 AND PUSH1 0x0 SWAP1 DUP2 MSTORE PUSH1 0x2 PUSH1 0x20 SWAP1 DUP2 MSTORE PUSH1 0x40 DUP1 DUP4 KECCAK256 SLOAD SWAP2 DUP4 SWAP1 MSTORE SWAP1 SWAP2 KECCAK256 SSTORE DUP1 PUSH3 0x22B DUP2 PUSH3 0x69D JUMP JUMPDEST SWAP2 POP POP PUSH3 0x1E9 JUMP JUMPDEST POP POP PUSH4 0xFFFFFFFF AND PUSH1 0x0 SWAP1 DUP2 MSTORE PUSH1 0x2 PUSH1 0x20 SWAP1 DUP2 MSTORE PUSH1 0x40 DUP3 KECCAK256 SLOAD SWAP2 DUP1 MSTORE PUSH1 0x1 SWAP1 MSTORE PUSH32 0xA6EEF7E35ABE7026729641147F7915573C7E97B47EFA546F5F6E3230263BCB49 SSTORE PUSH1 0x4 PUSH3 0x284 DUP4 DUP3 PUSH3 0x752 JUMP JUMPDEST POP PUSH1 0x5 PUSH3 0x293 DUP3 DUP3 PUSH3 0x752 JUMP JUMPDEST POP POP POP PUSH1 0x1 PUSH1 0x1 PUSH1 0xA0 SHL SUB DUP1 DUP12 AND PUSH1 0xE0 MSTORE DUP10 DUP2 AND PUSH2 0x100 MSTORE DUP8 AND PUSH1 0xC0 MSTORE PUSH2 0x140 DUP7 SWAP1 MSTORE PUSH1 0xC DUP1 SLOAD PUSH1 0x1 PUSH1 0x1 PUSH1 0xA0 SHL SUB NOT AND CALLER OR SWAP1 SSTORE PUSH2 0x120 DUP4 SWAP1 MSTORE DUP5 MLOAD PUSH3 0x2E3 SWAP1 PUSH1 0xD SWAP1 PUSH1 0x20 DUP9 ADD SWAP1 PUSH3 0x2F4 JUMP JUMPDEST POP POP POP POP POP POP POP POP POP POP POP PUSH3 0x81E JUMP JUMPDEST DUP3 DUP1 SLOAD DUP3 DUP3 SSTORE SWAP1 PUSH1 0x0 MSTORE PUSH1 0x20 PUSH1 0x0 KECCAK256 SWAP1 DUP2 ADD SWAP3 DUP3 ISZERO PUSH3 0x34C JUMPI SWAP2 PUSH1 0x20 MUL DUP3 ADD JUMPDEST DUP3 DUP2 GT ISZERO PUSH3 0x34C JUMPI DUP3 MLOAD DUP3 SLOAD PUSH1 0x1 PUSH1 0x1 PUSH1 0xA0 SHL SUB NOT AND PUSH1 0x1 PUSH1 0x1 PUSH1 0xA0 SHL SUB SWAP1 SWAP2 AND OR DUP3 SSTORE PUSH1 0x20 SWAP1 SWAP3 ADD SWAP2 PUSH1 0x1 SWAP1 SWAP2 ADD SWAP1 PUSH3 0x315 JUMP JUMPDEST POP PUSH3 0x35A SWAP3 SWAP2 POP PUSH3 0x35E JUMP JUMPDEST POP SWAP1 JUMP JUMPDEST JUMPDEST DUP1 DUP3 GT ISZERO PUSH3 0x35A JUMPI PUSH1 0x0 DUP2 SSTORE PUSH1 0x1 ADD PUSH3 0x35F JUMP JUMPDEST DUP1 MLOAD PUSH1 0x1 PUSH1 0x1 PUSH1 0xA0 SHL SUB DUP2 AND DUP2 EQ PUSH3 0x38D JUMPI PUSH1 0x0 DUP1 REVERT JUMPDEST SWAP2 SWAP1 POP JUMP JUMPDEST PUSH4 0x4E487B71 PUSH1 0xE0 SHL PUSH1 0x0 MSTORE PUSH1 0x41 PUSH1 0x4 MSTORE PUSH1 0x24 PUSH1 0x0 REVERT JUMPDEST PUSH1 0x40 MLOAD PUSH1 0x1F DUP3 ADD PUSH1 0x1F NOT AND DUP2 ADD PUSH1 0x1 PUSH1 0x1 PUSH1 0x40 SHL SUB DUP2 GT DUP3 DUP3 LT OR ISZERO PUSH3 0x3D3 JUMPI PUSH3 0x3D3 PUSH3 0x392 JUMP JUMPDEST PUSH1 0x40 MSTORE SWAP2 SWAP1 POP JUMP JUMPDEST PUSH1 0x0 DUP3 PUSH1 0x1F DUP4 ADD SLT PUSH3 0x3ED JUMPI PUSH1 0x0 DUP1 REVERT JUMPDEST DUP2 MLOAD PUSH1 0x20 PUSH1 0x1 PUSH1 0x1 PUSH1 0x40 SHL SUB DUP3 GT ISZERO PUSH3 0x40B JUMPI PUSH3 0x40B PUSH3 0x392 JUMP JUMPDEST DUP2 PUSH1 0x5 SHL PUSH3 0x41C DUP3 DUP3 ADD PUSH3 0x3A8 JUMP JUMPDEST SWAP3 DUP4 MSTORE DUP5 DUP2 ADD DUP3 ADD SWAP3 DUP3 DUP2 ADD SWAP1 DUP8 DUP6 GT ISZERO PUSH3 0x437 JUMPI PUSH1 0x0 DUP1 REVERT JUMPDEST DUP4 DUP8 ADD SWAP3 POP JUMPDEST DUP5 DUP4 LT ISZERO PUSH3 0x461 JUMPI PUSH3 0x451 DUP4 PUSH3 0x375 JUMP JUMPDEST DUP3 MSTORE SWAP2 DUP4 ADD SWAP2 SWAP1 DUP4 ADD SWAP1 PUSH3 0x43D JUMP JUMPDEST SWAP8 SWAP7 POP POP POP POP POP POP POP JUMP JUMPDEST DUP1 MLOAD PUSH4 0xFFFFFFFF DUP2 AND DUP2 EQ PUSH3 0x38D JUMPI PUSH1 0x0 DUP1 REVERT JUMPDEST PUSH1 0x0 DUP3 PUSH1 0x1F DUP4 ADD SLT PUSH3 0x493 JUMPI PUSH1 0x0 DUP1 REVERT JUMPDEST DUP2 MLOAD PUSH1 0x1 PUSH1 0x1 PUSH1 0x40 SHL SUB DUP2 GT ISZERO PUSH3 0x4AF JUMPI PUSH3 0x4AF PUSH3 0x392 JUMP JUMPDEST PUSH1 0x20 PUSH3 0x4C5 PUSH1 0x1F DUP4 ADD PUSH1 0x1F NOT AND DUP3 ADD PUSH3 0x3A8 JUMP JUMPDEST DUP3 DUP2 MSTORE DUP6 DUP3 DUP5 DUP8 ADD ADD GT ISZERO PUSH3 0x4DA JUMPI PUSH1 0x0 DUP1 REVERT JUMPDEST PUSH1 0x0 JUMPDEST DUP4 DUP2 LT ISZERO PUSH3 0x4FA JUMPI DUP6 DUP2 ADD DUP4 ADD MLOAD DUP3 DUP3 ADD DUP5 ADD MSTORE DUP3 ADD PUSH3 0x4DD JUMP JUMPDEST POP PUSH1 0x0 SWAP3 DUP2 ADD SWAP1 SWAP2 ADD SWAP2 SWAP1 SWAP2 MSTORE SWAP4 SWAP3 POP POP POP JUMP JUMPDEST PUSH1 0x0 DUP1 PUSH1 0x0 DUP1 PUSH1 0x0 DUP1 PUSH1 0x0 DUP1 PUSH1 0x0 DUP1 PUSH2 0x140 DUP12 DUP14 SUB SLT ISZERO PUSH3 0x52F JUMPI PUSH1 0x0 DUP1 REVERT JUMPDEST PUSH3 0x53A DUP12 PUSH3 0x375 JUMP JUMPDEST SWAP10 POP PUSH3 0x54A PUSH1 0x20 DUP13 ADD PUSH3 0x375 JUMP JUMPDEST SWAP9 POP PUSH3 0x55A PUSH1 0x40 DUP13 ADD PUSH3 0x375 JUMP JUMPDEST SWAP8 POP PUSH3 0x56A PUSH1 0x60 DUP13 ADD PUSH3 0x375 JUMP JUMPDEST PUSH1 0x80 DUP13 ADD MLOAD PUSH1 0xA0 DUP14 ADD MLOAD SWAP2 SWAP9 POP SWAP7 POP PUSH1 0x1 PUSH1 0x1 PUSH1 0x40 SHL SUB DUP1 DUP3 GT ISZERO PUSH3 0x58F JUMPI PUSH1 0x0 DUP1 REVERT JUMPDEST PUSH3 0x59D DUP15 DUP4 DUP16 ADD PUSH3 0x3DB JUMP JUMPDEST SWAP7 POP PUSH3 0x5AD PUSH1 0xC0 DUP15 ADD PUSH3 0x46C JUMP JUMPDEST SWAP6 POP PUSH1 0xE0 DUP14 ADD MLOAD SWAP5 POP PUSH2 0x100 DUP14 ADD MLOAD SWAP2 POP DUP1 DUP3 GT ISZERO PUSH3 0x5CC JUMPI PUSH1 0x0 DUP1 REVERT JUMPDEST PUSH3 0x5DA DUP15 DUP4 DUP16 ADD PUSH3 0x481 JUMP JUMPDEST SWAP4 POP PUSH2 0x120 DUP14 ADD MLOAD SWAP2 POP DUP1 DUP3 GT ISZERO PUSH3 0x5F2 JUMPI PUSH1 0x0 DUP1 REVERT JUMPDEST POP PUSH3 0x601 DUP14 DUP3 DUP15 ADD PUSH3 0x481 JUMP JUMPDEST SWAP2 POP POP SWAP3 SWAP6 SWAP9 SWAP12 SWAP2 SWAP5 SWAP8 SWAP11 POP SWAP3 SWAP6 SWAP9 POP JUMP JUMPDEST PUSH4 0x4E487B71 PUSH1 0xE0 SHL PUSH1 0x0 MSTORE PUSH1 0x11 PUSH1 0x4 MSTORE PUSH1 0x24 PUSH1 0x0 REVERT JUMPDEST PUSH4 0xFFFFFFFF DUP3 DUP2 AND DUP3 DUP3 AND SUB SWAP1 DUP1 DUP3 GT ISZERO PUSH3 0x649 JUMPI PUSH3 0x649 PUSH3 0x613 JUMP JUMPDEST POP SWAP3 SWAP2 POP POP JUMP JUMPDEST PUSH1 0x40 DUP2 ADD DUP2 DUP4 PUSH1 0x0 JUMPDEST PUSH1 0x2 DUP2 LT ISZERO PUSH3 0x67A JUMPI DUP2 MLOAD DUP4 MSTORE PUSH1 0x20 SWAP3 DUP4 ADD SWAP3 SWAP1 SWAP2 ADD SWAP1 PUSH1 0x1 ADD PUSH3 0x659 JUMP JUMPDEST POP POP POP SWAP3 SWAP2 POP POP JUMP JUMPDEST PUSH1 0x0 PUSH1 0x20 DUP3 DUP5 SUB SLT ISZERO PUSH3 0x696 JUMPI PUSH1 0x0 DUP1 REVERT JUMPDEST POP MLOAD SWAP2 SWAP1 POP JUMP JUMPDEST PUSH1 0x0 PUSH4 0xFFFFFFFF DUP1 DUP4 AND DUP2 DUP2 SUB PUSH3 0x6B9 JUMPI PUSH3 0x6B9 PUSH3 0x613 JUMP JUMPDEST PUSH1 0x1 ADD SWAP4 SWAP3 POP POP POP JUMP JUMPDEST PUSH1 0x1 DUP2 DUP2 SHR SWAP1 DUP3 AND DUP1 PUSH3 0x6D8 JUMPI PUSH1 0x7F DUP3 AND SWAP2 POP JUMPDEST PUSH1 0x20 DUP3 LT DUP2 SUB PUSH3 0x6F9 JUMPI PUSH4 0x4E487B71 PUSH1 0xE0 SHL PUSH1 0x0 MSTORE PUSH1 0x22 PUSH1 0x4 MSTORE PUSH1 0x24 PUSH1 0x0 REVERT JUMPDEST POP SWAP2 SWAP1 POP JUMP JUMPDEST PUSH1 0x1F DUP3 GT ISZERO PUSH3 0x74D JUMPI PUSH1 0x0 DUP2 DUP2 MSTORE PUSH1 0x20 DUP2 KECCAK256 PUSH1 0x1F DUP6 ADD PUSH1 0x5 SHR DUP2 ADD PUSH1 0x20 DUP7 LT ISZERO PUSH3 0x728 JUMPI POP DUP1 JUMPDEST PUSH1 0x1F DUP6 ADD PUSH1 0x5 SHR DUP3 ADD SWAP2 POP JUMPDEST DUP2 DUP2 LT ISZERO PUSH3 0x749 JUMPI DUP3 DUP2 SSTORE PUSH1 0x1 ADD PUSH3 0x734 JUMP JUMPDEST POP POP POP JUMPDEST POP POP POP JUMP JUMPDEST DUP2 MLOAD PUSH1 0x1 PUSH1 0x1 PUSH1 0x40 SHL SUB DUP2 GT ISZERO PUSH3 0x76E JUMPI PUSH3 0x76E PUSH3 0x392 JUMP JUMPDEST PUSH3 0x786 DUP2 PUSH3 0x77F DUP5 SLOAD PUSH3 0x6C3 JUMP JUMPDEST DUP5 PUSH3 0x6FF JUMP JUMPDEST PUSH1 0x20 DUP1 PUSH1 0x1F DUP4 GT PUSH1 0x1 DUP2 EQ PUSH3 0x7BE JUMPI PUSH1 0x0 DUP5 ISZERO PUSH3 0x7A5 JUMPI POP DUP6 DUP4 ADD MLOAD JUMPDEST PUSH1 0x0 NOT PUSH1 0x3 DUP7 SWAP1 SHL SHR NOT AND PUSH1 0x1 DUP6 SWAP1 SHL OR DUP6 SSTORE PUSH3 0x749 JUMP JUMPDEST PUSH1 0x0 DUP6 DUP2 MSTORE PUSH1 0x20 DUP2 KECCAK256 PUSH1 0x1F NOT DUP7 AND SWAP2 JUMPDEST DUP3 DUP2 LT ISZERO PUSH3 0x7EF JUMPI DUP9 DUP7 ADD MLOAD DUP3 SSTORE SWAP5 DUP5 ADD SWAP5 PUSH1 0x1 SWAP1 SWAP2 ADD SWAP1 DUP5 ADD PUSH3 0x7CE JUMP JUMPDEST POP DUP6 DUP3 LT ISZERO PUSH3 0x80E JUMPI DUP8 DUP6 ADD MLOAD PUSH1 0x0 NOT PUSH1 0x3 DUP9 SWAP1 SHL PUSH1 0xF8 AND SHR NOT AND DUP2 SSTORE JUMPDEST POP POP POP POP POP PUSH1 0x1 SWAP1 DUP2 SHL ADD SWAP1 SSTORE POP JUMP JUMPDEST PUSH1 0x80 MLOAD PUSH1 0xA0 MLOAD PUSH1 0xC0 MLOAD PUSH1 0xE0 MLOAD PUSH2 0x100 MLOAD PUSH2 0x120 MLOAD PUSH2 0x140 MLOAD PUSH2 0x5F15 PUSH3 0x913 PUSH1 0x0 CODECOPY PUSH1 0x0 DUP2 DUP2 PUSH2 0x987 ADD MSTORE DUP2 DUP2 PUSH2 0x15C4 ADD MSTORE DUP2 DUP2 PUSH2 0x1A0E ADD MSTORE PUSH2 0x1C8D ADD MSTORE PUSH1 0x0 DUP2 DUP2 PUSH2 0x831 ADD MSTORE DUP2 DUP2 PUSH2 0x3E4F ADD MSTORE PUSH2 0x3FD6 ADD MSTORE PUSH1 0x0 DUP2 DUP2 PUSH2 0x3EB ADD MSTORE PUSH2 0x3F81 ADD MSTORE PUSH1 0x0 DUP2 DUP2 PUSH2 0x590 ADD MSTORE PUSH2 0x3DFA ADD MSTORE PUSH1 0x0 DUP2 DUP2 PUSH2 0xADE ADD MSTORE DUP2 DUP2 PUSH2 0x1736 ADD MSTORE DUP2 DUP2 PUSH2 0x18E1 ADD MSTORE DUP2 DUP2 PUSH2 0x1A4C ADD MSTORE DUP2 DUP2 PUSH2 0x1D69 ADD MSTORE DUP2 DUP2 PUSH2 0x1F13 ADD MSTORE DUP2 DUP2 PUSH2 0x2445 ADD MSTORE DUP2 DUP2 PUSH2 0x25F6 ADD MSTORE DUP2 DUP2 PUSH2 0x2E5E ADD MSTORE DUP2 DUP2 PUSH2 0x2F3B ADD MSTORE DUP2 DUP2 PUSH2 0x34EC ADD MSTORE DUP2 DUP2 PUSH2 0x357F ADD MSTORE PUSH2 0x3754 ADD MSTORE PUSH1 0x0 DUP2 DUP2 PUSH2 0x547 ADD MSTORE DUP2 DUP2 PUSH2 0x466E ADD MSTORE PUSH2 0x46D0 ADD MSTORE PUSH1 0x0 DUP2 DUP2 PUSH2 0xA8A ADD MSTORE PUSH2 0x117B ADD MSTORE PUSH2 0x5F15 PUSH1 0x0 RETURN INVALID PUSH1 0x80 PUSH1 0x40 MSTORE PUSH1 0x4 CALLDATASIZE LT PUSH2 0x2A7 JUMPI PUSH1 0x0 CALLDATALOAD PUSH1 0xE0 SHR DUP1 PUSH4 0x6FDDE03 EQ PUSH2 0x2AC JUMPI DUP1 PUSH4 0x95EA7B3 EQ PUSH2 0x2D7 JUMPI DUP1 PUSH4 0xB785FC6 EQ PUSH2 0x307 JUMPI DUP1 PUSH4 0x1595497D EQ PUSH2 0x31E JUMPI DUP1 PUSH4 0x15E1B702 EQ PUSH2 0x342 JUMPI DUP1 PUSH4 0x18160DDD EQ PUSH2 0x362 JUMPI DUP1 PUSH4 0x1F639EE4 EQ PUSH2 0x377 JUMPI DUP1 PUSH4 0x23B872DD EQ PUSH2 0x38D JUMPI DUP1 PUSH4 0x24E14A7A EQ PUSH2 0x3AD JUMPI DUP1 PUSH4 0x2D57121B EQ PUSH2 0x3C3 JUMPI DUP1 PUSH4 0x2FC0355F EQ PUSH2 0x3D9 JUMPI DUP1 PUSH4 0x313CE567 EQ PUSH2 0x425 JUMPI DUP1 PUSH4 0x34540E18 EQ PUSH2 0x441 JUMPI DUP1 PUSH4 0x38BF282E EQ PUSH2 0x457 JUMPI DUP1 PUSH4 0x3C0540CF EQ PUSH2 0x477 JUMPI DUP1 PUSH4 0x40884C52 EQ PUSH2 0x4A4 JUMPI DUP1 PUSH4 0x414A37BA EQ PUSH2 0x4C6 JUMPI DUP1 PUSH4 0x436F9BE4 EQ PUSH2 0x4E8 JUMPI DUP1 PUSH4 0x4B4D4AE8 EQ PUSH2 0x508 JUMPI DUP1 PUSH4 0x4ECF518B EQ PUSH2 0x535 JUMPI DUP1 PUSH4 0x522D0D70 EQ PUSH2 0x57E JUMPI DUP1 PUSH4 0x59542CA9 EQ PUSH2 0x5B2 JUMPI DUP1 PUSH4 0x5BB25BE3 EQ PUSH2 0x5E7 JUMPI DUP1 PUSH4 0x67FB329B EQ PUSH2 0x609 JUMPI DUP1 PUSH4 0x6A01218E EQ PUSH2 0x629 JUMPI DUP1 PUSH4 0x6D9833E3 EQ PUSH2 0x649 JUMPI DUP1 PUSH4 0x70A08231 EQ PUSH2 0x669 JUMPI DUP1 PUSH4 0x72EE6341 EQ PUSH2 0x69F JUMPI DUP1 PUSH4 0x73EE0AC5 EQ PUSH2 0x6BF JUMPI DUP1 PUSH4 0x76A38E91 EQ PUSH2 0x6DF JUMPI DUP1 PUSH4 0x7D33BC73 EQ PUSH2 0x6FF JUMPI DUP1 PUSH4 0x840D205F EQ PUSH2 0x715 JUMPI DUP1 PUSH4 0x8F84E27C EQ PUSH2 0x742 JUMPI DUP1 PUSH4 0x9260DF2A EQ PUSH2 0x762 JUMPI DUP1 PUSH4 0x95D89B41 EQ PUSH2 0x782 JUMPI DUP1 PUSH4 0x992E2A92 EQ PUSH2 0x797 JUMPI DUP1 PUSH4 0x9E7B1CD9 EQ PUSH2 0x7AC JUMPI DUP1 PUSH4 0xA8109C80 EQ PUSH2 0x7BF JUMPI DUP1 PUSH4 0xA9059CBB EQ PUSH2 0x7DF JUMPI DUP1 PUSH4 0xAAD32641 EQ PUSH2 0x7FF JUMPI DUP1 PUSH4 0xADC879E9 EQ PUSH2 0x81F JUMPI DUP1 PUSH4 0xBA70F757 EQ PUSH2 0x853 JUMPI DUP1 PUSH4 0xBD4920E5 EQ PUSH2 0x87D JUMPI DUP1 PUSH4 0xC36596A6 EQ PUSH2 0x893 JUMPI DUP1 PUSH4 0xCD87A3B4 EQ PUSH2 0x8AF JUMPI DUP1 PUSH4 0xD2B12AD5 EQ PUSH2 0x8C4 JUMPI DUP1 PUSH4 0xD3261592 EQ PUSH2 0x8E4 JUMPI DUP1 PUSH4 0xD544C1D2 EQ PUSH2 0x8FA JUMPI DUP1 PUSH4 0xDC76FABC EQ PUSH2 0x91A JUMPI DUP1 PUSH4 0xDD62ED3E EQ PUSH2 0x92F JUMPI DUP1 PUSH4 0xDDCA3F43 EQ PUSH2 0x975 JUMPI DUP1 PUSH4 0xE0E6236E EQ PUSH2 0x9A9 JUMPI DUP1 PUSH4 0xE5285DCC EQ PUSH2 0x9C9 JUMPI DUP1 PUSH4 0xEA2388D2 EQ PUSH2 0x9F9 JUMPI DUP1 PUSH4 0xEADB8259 EQ PUSH2 0xA19 JUMPI DUP1 PUSH4 0xEC093021 EQ PUSH2 0xA2F JUMPI DUP1 PUSH4 0xEC732959 EQ PUSH2 0xA44 JUMPI DUP1 PUSH4 0xED33639F EQ PUSH2 0xA78 JUMPI DUP1 PUSH4 0xF77C4791 EQ PUSH2 0xAAC JUMPI DUP1 PUSH4 0xFC0C546A EQ PUSH2 0xACC JUMPI JUMPDEST PUSH1 0x0 DUP1 REVERT JUMPDEST CALLVALUE DUP1 ISZERO PUSH2 0x2B8 JUMPI PUSH1 0x0 DUP1 REVERT JUMPDEST POP PUSH2 0x2C1 PUSH2 0xB00 JUMP JUMPDEST PUSH1 0x40 MLOAD PUSH2 0x2CE SWAP2 SWAP1 PUSH2 0x4BA6 JUMP JUMPDEST PUSH1 0x40 MLOAD DUP1 SWAP2 SUB SWAP1 RETURN JUMPDEST CALLVALUE DUP1 ISZERO PUSH2 0x2E3 JUMPI PUSH1 0x0 DUP1 REVERT JUMPDEST POP PUSH2 0x2F7 PUSH2 0x2F2 CALLDATASIZE PUSH1 0x4 PUSH2 0x4BE3 JUMP JUMPDEST PUSH2 0xB92 JUMP JUMPDEST PUSH1 0x40 MLOAD SWAP1 ISZERO ISZERO DUP2 MSTORE PUSH1 0x20 ADD PUSH2 0x2CE JUMP JUMPDEST CALLVALUE DUP1 ISZERO PUSH2 0x313 JUMPI PUSH1 0x0 DUP1 REVERT JUMPDEST POP PUSH2 0x31C PUSH2 0xBED JUMP JUMPDEST STOP JUMPDEST CALLVALUE DUP1 ISZERO PUSH2 0x32A JUMPI PUSH1 0x0 DUP1 REVERT JUMPDEST POP PUSH2 0x334 PUSH1 0x14 SLOAD DUP2 JUMP JUMPDEST PUSH1 0x40 MLOAD SWAP1 DUP2 MSTORE PUSH1 0x20 ADD PUSH2 0x2CE JUMP JUMPDEST CALLVALUE DUP1 ISZERO PUSH2 0x34E JUMPI PUSH1 0x0 DUP1 REVERT JUMPDEST POP PUSH2 0x2C1 PUSH2 0x35D CALLDATASIZE PUSH1 0x4 PUSH2 0x4C0F JUMP JUMPDEST PUSH2 0xC4F JUMP JUMPDEST CALLVALUE DUP1 ISZERO PUSH2 0x36E JUMPI PUSH1 0x0 DUP1 REVERT JUMPDEST POP PUSH1 0x6 SLOAD PUSH2 0x334 JUMP JUMPDEST CALLVALUE DUP1 ISZERO PUSH2 0x383 JUMPI PUSH1 0x0 DUP1 REVERT JUMPDEST POP PUSH2 0x334 PUSH1 0x10 SLOAD DUP2 JUMP JUMPDEST CALLVALUE DUP1 ISZERO PUSH2 0x399 JUMPI PUSH1 0x0 DUP1 REVERT JUMPDEST POP PUSH2 0x2F7 PUSH2 0x3A8 CALLDATASIZE PUSH1 0x4 PUSH2 0x4C28 JUMP JUMPDEST PUSH2 0x100B JUMP JUMPDEST CALLVALUE DUP1 ISZERO PUSH2 0x3B9 JUMPI PUSH1 0x0 DUP1 REVERT JUMPDEST POP PUSH2 0x334 PUSH1 0xF SLOAD DUP2 JUMP JUMPDEST CALLVALUE DUP1 ISZERO PUSH2 0x3CF JUMPI PUSH1 0x0 DUP1 REVERT JUMPDEST POP PUSH2 0x334 PUSH1 0x13 SLOAD DUP2 JUMP JUMPDEST CALLVALUE DUP1 ISZERO PUSH2 0x3E5 JUMPI PUSH1 0x0 DUP1 REVERT JUMPDEST POP PUSH2 0x40D PUSH32 0x0 DUP2 JUMP JUMPDEST PUSH1 0x40 MLOAD PUSH1 0x1 PUSH1 0x1 PUSH1 0xA0 SHL SUB SWAP1 SWAP2 AND DUP2 MSTORE PUSH1 0x20 ADD PUSH2 0x2CE JUMP JUMPDEST CALLVALUE DUP1 ISZERO PUSH2 0x431 JUMPI PUSH1 0x0 DUP1 REVERT JUMPDEST POP PUSH1 0x40 MLOAD PUSH1 0x12 DUP2 MSTORE PUSH1 0x20 ADD PUSH2 0x2CE JUMP JUMPDEST CALLVALUE DUP1 ISZERO PUSH2 0x44D JUMPI PUSH1 0x0 DUP1 REVERT JUMPDEST POP PUSH2 0x334 PUSH1 0x11 SLOAD DUP2 JUMP JUMPDEST CALLVALUE DUP1 ISZERO PUSH2 0x463 JUMPI PUSH1 0x0 DUP1 REVERT JUMPDEST POP PUSH2 0x334 PUSH2 0x472 CALLDATASIZE PUSH1 0x4 PUSH2 0x4C69 JUMP JUMPDEST PUSH2 0x1124 JUMP JUMPDEST CALLVALUE DUP1 ISZERO PUSH2 0x483 JUMPI PUSH1 0x0 DUP1 REVERT JUMPDEST POP PUSH2 0x334 PUSH2 0x492 CALLDATASIZE PUSH1 0x4 PUSH2 0x4C0F JUMP JUMPDEST PUSH1 0x0 SWAP1 DUP2 MSTORE PUSH1 0x1A PUSH1 0x20 MSTORE PUSH1 0x40 SWAP1 KECCAK256 SLOAD SWAP1 JUMP JUMPDEST CALLVALUE DUP1 ISZERO PUSH2 0x4B0 JUMPI PUSH1 0x0 DUP1 REVERT JUMPDEST POP PUSH2 0x4B9 PUSH2 0x1201 JUMP JUMPDEST PUSH1 0x40 MLOAD PUSH2 0x2CE SWAP2 SWAP1 PUSH2 0x4C8B JUMP JUMPDEST CALLVALUE DUP1 ISZERO PUSH2 0x4D2 JUMPI PUSH1 0x0 DUP1 REVERT JUMPDEST POP PUSH2 0x334 PUSH1 0x0 DUP1 MLOAD PUSH1 0x20 PUSH2 0x5E80 DUP4 CODECOPY DUP2 MLOAD SWAP2 MSTORE DUP2 JUMP JUMPDEST CALLVALUE DUP1 ISZERO PUSH2 0x4F4 JUMPI PUSH1 0x0 DUP1 REVERT JUMPDEST POP PUSH2 0x334 PUSH2 0x503 CALLDATASIZE PUSH1 0x4 PUSH2 0x4CD8 JUMP JUMPDEST PUSH2 0x1262 JUMP JUMPDEST CALLVALUE DUP1 ISZERO PUSH2 0x514 JUMPI PUSH1 0x0 DUP1 REVERT JUMPDEST POP PUSH2 0x528 PUSH2 0x523 CALLDATASIZE PUSH1 0x4 PUSH2 0x4C0F JUMP JUMPDEST PUSH2 0x12A4 JUMP JUMPDEST PUSH1 0x40 MLOAD PUSH2 0x2CE SWAP2 SWAP1 PUSH2 0x4D8B JUMP JUMPDEST CALLVALUE DUP1 ISZERO PUSH2 0x541 JUMPI PUSH1 0x0 DUP1 REVERT JUMPDEST POP PUSH2 0x569 PUSH32 0x0 DUP2 JUMP JUMPDEST PUSH1 0x40 MLOAD PUSH4 0xFFFFFFFF SWAP1 SWAP2 AND DUP2 MSTORE PUSH1 0x20 ADD PUSH2 0x2CE JUMP JUMPDEST CALLVALUE DUP1 ISZERO PUSH2 0x58A JUMPI PUSH1 0x0 DUP1 REVERT JUMPDEST POP PUSH2 0x40D PUSH32 0x0 DUP2 JUMP JUMPDEST CALLVALUE DUP1 ISZERO PUSH2 0x5BE JUMPI PUSH1 0x0 DUP1 REVERT JUMPDEST POP PUSH2 0x5D2 PUSH2 0x5CD CALLDATASIZE PUSH1 0x4 PUSH2 0x4E4F JUMP JUMPDEST PUSH2 0x15A4 JUMP JUMPDEST PUSH1 0x40 DUP1 MLOAD SWAP3 DUP4 MSTORE PUSH1 0x20 DUP4 ADD SWAP2 SWAP1 SWAP2 MSTORE ADD PUSH2 0x2CE JUMP JUMPDEST CALLVALUE DUP1 ISZERO PUSH2 0x5F3 JUMPI PUSH1 0x0 DUP1 REVERT JUMPDEST POP PUSH2 0x5FC PUSH2 0x1BB8 JUMP JUMPDEST PUSH1 0x40 MLOAD PUSH2 0x2CE SWAP2 SWAP1 PUSH2 0x4E8A JUMP JUMPDEST CALLVALUE DUP1 ISZERO PUSH2 0x615 JUMPI PUSH1 0x0 DUP1 REVERT JUMPDEST POP PUSH2 0x334 PUSH2 0x624 CALLDATASIZE PUSH1 0x4 PUSH2 0x4C0F JUMP JUMPDEST PUSH2 0x1C2D JUMP JUMPDEST CALLVALUE DUP1 ISZERO PUSH2 0x635 JUMPI PUSH1 0x0 DUP1 REVERT JUMPDEST POP PUSH2 0x334 PUSH2 0x644 CALLDATASIZE PUSH1 0x4 PUSH2 0x4CD8 JUMP JUMPDEST PUSH2 0x1C4F JUMP JUMPDEST CALLVALUE DUP1 ISZERO PUSH2 0x655 JUMPI PUSH1 0x0 DUP1 REVERT JUMPDEST POP PUSH2 0x2F7 PUSH2 0x664 CALLDATASIZE PUSH1 0x4 PUSH2 0x4C0F JUMP JUMPDEST PUSH2 0x20E3 JUMP JUMPDEST CALLVALUE DUP1 ISZERO PUSH2 0x675 JUMPI PUSH1 0x0 DUP1 REVERT JUMPDEST POP PUSH2 0x334 PUSH2 0x684 CALLDATASIZE PUSH1 0x4 PUSH2 0x4EE2 JUMP JUMPDEST PUSH1 0x1 PUSH1 0x1 PUSH1 0xA0 SHL SUB AND PUSH1 0x0 SWAP1 DUP2 MSTORE PUSH1 0x7 PUSH1 0x20 MSTORE PUSH1 0x40 SWAP1 KECCAK256 SLOAD SWAP1 JUMP JUMPDEST CALLVALUE DUP1 ISZERO PUSH2 0x6AB JUMPI PUSH1 0x0 DUP1 REVERT JUMPDEST POP PUSH2 0x334 PUSH2 0x6BA CALLDATASIZE PUSH1 0x4 PUSH2 0x4EFF JUMP JUMPDEST PUSH2 0x2161 JUMP JUMPDEST CALLVALUE DUP1 ISZERO PUSH2 0x6CB JUMPI PUSH1 0x0 DUP1 REVERT JUMPDEST POP PUSH2 0x31C PUSH2 0x6DA CALLDATASIZE PUSH1 0x4 PUSH2 0x4C69 JUMP JUMPDEST PUSH2 0x21C2 JUMP JUMPDEST CALLVALUE DUP1 ISZERO PUSH2 0x6EB JUMPI PUSH1 0x0 DUP1 REVERT JUMPDEST POP PUSH2 0x334 PUSH2 0x6FA CALLDATASIZE PUSH1 0x4 PUSH2 0x4EFF JUMP JUMPDEST PUSH2 0x22EA JUMP JUMPDEST CALLVALUE DUP1 ISZERO PUSH2 0x70B JUMPI PUSH1 0x0 DUP1 REVERT JUMPDEST POP PUSH2 0x334 PUSH1 0x12 SLOAD DUP2 JUMP JUMPDEST CALLVALUE DUP1 ISZERO PUSH2 0x721 JUMPI PUSH1 0x0 DUP1 REVERT JUMPDEST POP PUSH2 0x334 PUSH2 0x730 CALLDATASIZE PUSH1 0x4 PUSH2 0x4EE2 JUMP JUMPDEST PUSH1 0x18 PUSH1 0x20 MSTORE PUSH1 0x0 SWAP1 DUP2 MSTORE PUSH1 0x40 SWAP1 KECCAK256 SLOAD DUP2 JUMP JUMPDEST CALLVALUE DUP1 ISZERO PUSH2 0x74E JUMPI PUSH1 0x0 DUP1 REVERT JUMPDEST POP PUSH2 0x31C PUSH2 0x75D CALLDATASIZE PUSH1 0x4 PUSH2 0x4F31 JUMP JUMPDEST PUSH2 0x2344 JUMP JUMPDEST CALLVALUE DUP1 ISZERO PUSH2 0x76E JUMPI PUSH1 0x0 DUP1 REVERT JUMPDEST POP PUSH2 0x31C PUSH2 0x77D CALLDATASIZE PUSH1 0x4 PUSH2 0x5099 JUMP JUMPDEST PUSH2 0x2590 JUMP JUMPDEST CALLVALUE DUP1 ISZERO PUSH2 0x78E JUMPI PUSH1 0x0 DUP1 REVERT JUMPDEST POP PUSH2 0x2C1 PUSH2 0x27C9 JUMP JUMPDEST CALLVALUE DUP1 ISZERO PUSH2 0x7A3 JUMPI PUSH1 0x0 DUP1 REVERT JUMPDEST POP PUSH2 0x334 PUSH2 0x27D8 JUMP JUMPDEST PUSH2 0x31C PUSH2 0x7BA CALLDATASIZE PUSH1 0x4 PUSH2 0x53E2 JUMP JUMPDEST PUSH2 0x27F9 JUMP JUMPDEST CALLVALUE DUP1 ISZERO PUSH2 0x7CB JUMPI PUSH1 0x0 DUP1 REVERT JUMPDEST POP PUSH1 0x9 SLOAD PUSH2 0x40D SWAP1 PUSH1 0x1 PUSH1 0x1 PUSH1 0xA0 SHL SUB AND DUP2 JUMP JUMPDEST CALLVALUE DUP1 ISZERO PUSH2 0x7EB JUMPI PUSH1 0x0 DUP1 REVERT JUMPDEST POP PUSH2 0x2F7 PUSH2 0x7FA CALLDATASIZE PUSH1 0x4 PUSH2 0x4BE3 JUMP JUMPDEST PUSH2 0x2B7E JUMP JUMPDEST CALLVALUE DUP1 ISZERO PUSH2 0x80B JUMPI PUSH1 0x0 DUP1 REVERT JUMPDEST POP PUSH2 0x334 PUSH2 0x81A CALLDATASIZE PUSH1 0x4 PUSH2 0x5445 JUMP JUMPDEST PUSH2 0x2B94 JUMP JUMPDEST CALLVALUE DUP1 ISZERO PUSH2 0x82B JUMPI PUSH1 0x0 DUP1 REVERT JUMPDEST POP PUSH2 0x334 PUSH32 0x0 DUP2 JUMP JUMPDEST CALLVALUE DUP1 ISZERO PUSH2 0x85F JUMPI PUSH1 0x0 DUP1 REVERT JUMPDEST POP PUSH1 0x3 SLOAD PUSH4 0xFFFFFFFF AND PUSH1 0x0 SWAP1 DUP2 MSTORE PUSH1 0x1 PUSH1 0x20 MSTORE PUSH1 0x40 SWAP1 KECCAK256 SLOAD PUSH2 0x334 JUMP JUMPDEST CALLVALUE DUP1 ISZERO PUSH2 0x889 JUMPI PUSH1 0x0 DUP1 REVERT JUMPDEST POP PUSH2 0x334 PUSH1 0x15 SLOAD DUP2 JUMP JUMPDEST CALLVALUE DUP1 ISZERO PUSH2 0x89F JUMPI PUSH1 0x0 DUP1 REVERT JUMPDEST POP PUSH2 0x334 PUSH8 0xDE0B6B3A7640000 DUP2 JUMP JUMPDEST CALLVALUE DUP1 ISZERO PUSH2 0x8BB JUMPI PUSH1 0x0 DUP1 REVERT JUMPDEST POP PUSH2 0x569 PUSH1 0x64 DUP2 JUMP JUMPDEST CALLVALUE DUP1 ISZERO PUSH2 0x8D0 JUMPI PUSH1 0x0 DUP1 REVERT JUMPDEST POP PUSH2 0x31C PUSH2 0x8DF CALLDATASIZE PUSH1 0x4 PUSH2 0x54C2 JUMP JUMPDEST PUSH2 0x31AC JUMP JUMPDEST CALLVALUE DUP1 ISZERO PUSH2 0x8F0 JUMPI PUSH1 0x0 DUP1 REVERT JUMPDEST POP PUSH2 0x334 PUSH1 0x17 SLOAD DUP2 JUMP JUMPDEST CALLVALUE DUP1 ISZERO PUSH2 0x906 JUMPI PUSH1 0x0 DUP1 REVERT JUMPDEST POP PUSH2 0x31C PUSH2 0x915 CALLDATASIZE PUSH1 0x4 PUSH2 0x4CD8 JUMP JUMPDEST PUSH2 0x363D JUMP JUMPDEST CALLVALUE DUP1 ISZERO PUSH2 0x926 JUMPI PUSH1 0x0 DUP1 REVERT JUMPDEST POP PUSH2 0x334 PUSH2 0x3888 JUMP JUMPDEST CALLVALUE DUP1 ISZERO PUSH2 0x93B JUMPI PUSH1 0x0 DUP1 REVERT JUMPDEST POP PUSH2 0x334 PUSH2 0x94A CALLDATASIZE PUSH1 0x4 PUSH2 0x54FE JUMP JUMPDEST PUSH1 0x1 PUSH1 0x1 PUSH1 0xA0 SHL SUB SWAP2 DUP3 AND PUSH1 0x0 SWAP1 DUP2 MSTORE PUSH1 0x8 PUSH1 0x20 SWAP1 DUP2 MSTORE PUSH1 0x40 DUP1 DUP4 KECCAK256 SWAP4 SWAP1 SWAP5 AND DUP3 MSTORE SWAP2 SWAP1 SWAP2 MSTORE KECCAK256 SLOAD SWAP1 JUMP JUMPDEST CALLVALUE DUP1 ISZERO PUSH2 0x981 JUMPI PUSH1 0x0 DUP1 REVERT JUMPDEST POP PUSH2 0x334 PUSH32 0x0 DUP2 JUMP JUMPDEST CALLVALUE DUP1 ISZERO PUSH2 0x9B5 JUMPI PUSH1 0x0 DUP1 REVERT JUMPDEST POP PUSH2 0x334 PUSH2 0x9C4 CALLDATASIZE PUSH1 0x4 PUSH2 0x4CD8 JUMP JUMPDEST PUSH2 0x389F JUMP JUMPDEST CALLVALUE DUP1 ISZERO PUSH2 0x9D5 JUMPI PUSH1 0x0 DUP1 REVERT JUMPDEST POP PUSH2 0x2F7 PUSH2 0x9E4 CALLDATASIZE PUSH1 0x4 PUSH2 0x4C0F JUMP JUMPDEST PUSH1 0x0 SWAP1 DUP2 MSTORE PUSH1 0x19 PUSH1 0x20 MSTORE PUSH1 0x40 SWAP1 KECCAK256 SLOAD PUSH1 0xFF AND SWAP1 JUMP JUMPDEST CALLVALUE DUP1 ISZERO PUSH2 0xA05 JUMPI PUSH1 0x0 DUP1 REVERT JUMPDEST POP PUSH2 0x334 PUSH2 0xA14 CALLDATASIZE PUSH1 0x4 PUSH2 0x5537 JUMP JUMPDEST PUSH2 0x391E JUMP JUMPDEST CALLVALUE DUP1 ISZERO PUSH2 0xA25 JUMPI PUSH1 0x0 DUP1 REVERT JUMPDEST POP PUSH2 0x334 PUSH1 0x16 SLOAD DUP2 JUMP JUMPDEST CALLVALUE DUP1 ISZERO PUSH2 0xA3B JUMPI PUSH1 0x0 DUP1 REVERT JUMPDEST POP PUSH2 0x334 PUSH2 0x3A69 JUMP JUMPDEST CALLVALUE DUP1 ISZERO PUSH2 0xA50 JUMPI PUSH1 0x0 DUP1 REVERT JUMPDEST POP PUSH2 0x334 PUSH32 0x2FE54C60D3ACABF3343A35B6EBA15DB4821B340F76E741E2249685ED4899AF6C DUP2 JUMP JUMPDEST CALLVALUE DUP1 ISZERO PUSH2 0xA84 JUMPI PUSH1 0x0 DUP1 REVERT JUMPDEST POP PUSH2 0x40D PUSH32 0x0 DUP2 JUMP JUMPDEST CALLVALUE DUP1 ISZERO PUSH2 0xAB8 JUMPI PUSH1 0x0 DUP1 REVERT JUMPDEST POP PUSH1 0xC SLOAD PUSH2 0x40D SWAP1 PUSH1 0x1 PUSH1 0x1 PUSH1 0xA0 SHL SUB AND DUP2 JUMP JUMPDEST CALLVALUE DUP1 ISZERO PUSH2 0xAD8 JUMPI PUSH1 0x0 DUP1 REVERT JUMPDEST POP PUSH2 0x40D PUSH32 0x0 DUP2 JUMP JUMPDEST PUSH1 0x60 PUSH1 0x4 DUP1 SLOAD PUSH2 0xB0F SWAP1 PUSH2 0x5584 JUMP JUMPDEST DUP1 PUSH1 0x1F ADD PUSH1 0x20 DUP1 SWAP2 DIV MUL PUSH1 0x20 ADD PUSH1 0x40 MLOAD SWAP1 DUP2 ADD PUSH1 0x40 MSTORE DUP1 SWAP3 SWAP2 SWAP1 DUP2 DUP2 MSTORE PUSH1 0x20 ADD DUP3 DUP1 SLOAD PUSH2 0xB3B SWAP1 PUSH2 0x5584 JUMP JUMPDEST DUP1 ISZERO PUSH2 0xB88 JUMPI DUP1 PUSH1 0x1F LT PUSH2 0xB5D JUMPI PUSH2 0x100 DUP1 DUP4 SLOAD DIV MUL DUP4 MSTORE SWAP2 PUSH1 0x20 ADD SWAP2 PUSH2 0xB88 JUMP JUMPDEST DUP3 ADD SWAP2 SWAP1 PUSH1 0x0 MSTORE PUSH1 0x20 PUSH1 0x0 KECCAK256 SWAP1 JUMPDEST DUP2 SLOAD DUP2 MSTORE SWAP1 PUSH1 0x1 ADD SWAP1 PUSH1 0x20 ADD DUP1 DUP4 GT PUSH2 0xB6B JUMPI DUP3 SWAP1 SUB PUSH1 0x1F AND DUP3 ADD SWAP2 JUMPDEST POP POP POP POP POP SWAP1 POP SWAP1 JUMP JUMPDEST CALLER PUSH1 0x0 DUP2 DUP2 MSTORE PUSH1 0x8 PUSH1 0x20 SWAP1 DUP2 MSTORE PUSH1 0x40 DUP1 DUP4 KECCAK256 PUSH1 0x1 PUSH1 0x1 PUSH1 0xA0 SHL SUB DUP8 AND DUP1 DUP6 MSTORE SWAP3 MSTORE DUP1 DUP4 KECCAK256 DUP6 SWAP1 SSTORE MLOAD SWAP2 SWAP3 SWAP1 SWAP2 PUSH1 0x0 DUP1 MLOAD PUSH1 0x20 PUSH2 0x5EC0 DUP4 CODECOPY DUP2 MLOAD SWAP2 MSTORE SWAP1 PUSH2 0xBDB SWAP1 DUP7 DUP2 MSTORE PUSH1 0x20 ADD SWAP1 JUMP JUMPDEST PUSH1 0x40 MLOAD DUP1 SWAP2 SUB SWAP1 LOG3 POP PUSH1 0x1 JUMPDEST SWAP3 SWAP2 POP POP JUMP JUMPDEST PUSH1 0x16 SLOAD TIMESTAMP GT DUP1 ISZERO PUSH2 0xC00 JUMPI POP PUSH1 0x0 PUSH1 0x15 SLOAD GT JUMPDEST ISZERO PUSH2 0xC4D JUMPI TIMESTAMP PUSH1 0x16 SSTORE PUSH1 0x17 SLOAD PUSH1 0x15 SLOAD DUP2 GT ISZERO PUSH2 0xC1B JUMPI POP PUSH1 0x15 SLOAD JUMPDEST DUP1 PUSH1 0x12 PUSH1 0x0 DUP3 DUP3 SLOAD PUSH2 0xC2D SWAP2 SWAP1 PUSH2 0x55D4 JUMP JUMPDEST SWAP3 POP POP DUP2 SWAP1 SSTORE POP DUP1 PUSH1 0x15 PUSH1 0x0 DUP3 DUP3 SLOAD PUSH2 0xC46 SWAP2 SWAP1 PUSH2 0x55E7 JUMP JUMPDEST SWAP1 SWAP2 SSTORE POP POP POP JUMPDEST JUMP JUMPDEST PUSH1 0x60 PUSH1 0x0 PUSH1 0xA PUSH2 0xC60 PUSH1 0x1 DUP6 PUSH2 0x55E7 JUMP JUMPDEST DUP2 SLOAD DUP2 LT PUSH2 0xC70 JUMPI PUSH2 0xC70 PUSH2 0x55FA JUMP JUMPDEST PUSH1 0x0 SWAP2 DUP3 MSTORE PUSH1 0x20 SWAP1 SWAP2 KECCAK256 PUSH1 0x40 DUP1 MLOAD PUSH2 0x100 DUP2 ADD DUP3 MSTORE PUSH1 0xD SWAP1 SWAP4 MUL SWAP1 SWAP2 ADD DUP1 SLOAD PUSH1 0x1 PUSH1 0x1 PUSH1 0xA0 SHL SUB AND SWAP2 DUP4 ADD SWAP2 DUP3 MSTORE PUSH1 0x1 DUP2 ADD SLOAD PUSH1 0x60 DUP5 ADD MSTORE PUSH1 0x2 DUP2 ADD SLOAD PUSH1 0x80 DUP5 ADD MSTORE PUSH1 0x3 DUP2 ADD SLOAD PUSH1 0xA0 DUP5 ADD MSTORE PUSH1 0x4 DUP2 ADD DUP1 SLOAD SWAP2 SWAP3 DUP5 SWAP3 SWAP1 SWAP2 DUP5 SWAP2 PUSH1 0xC0 DUP6 ADD SWAP2 SWAP1 PUSH2 0xCD9 SWAP1 PUSH2 0x5584 JUMP JUMPDEST DUP1 PUSH1 0x1F ADD PUSH1 0x20 DUP1 SWAP2 DIV MUL PUSH1 0x20 ADD PUSH1 0x40 MLOAD SWAP1 DUP2 ADD PUSH1 0x40 MSTORE DUP1 SWAP3 SWAP2 SWAP1 DUP2 DUP2 MSTORE PUSH1 0x20 ADD DUP3 DUP1 SLOAD PUSH2 0xD05 SWAP1 PUSH2 0x5584 JUMP JUMPDEST DUP1 ISZERO PUSH2 0xD52 JUMPI DUP1 PUSH1 0x1F LT PUSH2 0xD27 JUMPI PUSH2 0x100 DUP1 DUP4 SLOAD DIV MUL DUP4 MSTORE SWAP2 PUSH1 0x20 ADD SWAP2 PUSH2 0xD52 JUMP JUMPDEST DUP3 ADD SWAP2 SWAP1 PUSH1 0x0 MSTORE PUSH1 0x20 PUSH1 0x0 KECCAK256 SWAP1 JUMPDEST DUP2 SLOAD DUP2 MSTORE SWAP1 PUSH1 0x1 ADD SWAP1 PUSH1 0x20 ADD DUP1 DUP4 GT PUSH2 0xD35 JUMPI DUP3 SWAP1 SUB PUSH1 0x1F AND DUP3 ADD SWAP2 JUMPDEST POP POP POP POP POP DUP2 MSTORE PUSH1 0x20 ADD PUSH1 0x5 DUP3 ADD DUP1 SLOAD PUSH2 0xD6B SWAP1 PUSH2 0x5584 JUMP JUMPDEST DUP1 PUSH1 0x1F ADD PUSH1 0x20 DUP1 SWAP2 DIV MUL PUSH1 0x20 ADD PUSH1 0x40 MLOAD SWAP1 DUP2 ADD PUSH1 0x40 MSTORE DUP1 SWAP3 SWAP2 SWAP1 DUP2 DUP2 MSTORE PUSH1 0x20 ADD DUP3 DUP1 SLOAD PUSH2 0xD97 SWAP1 PUSH2 0x5584 JUMP JUMPDEST DUP1 ISZERO PUSH2 0xDE4 JUMPI DUP1 PUSH1 0x1F LT PUSH2 0xDB9 JUMPI PUSH2 0x100 DUP1 DUP4 SLOAD DIV MUL DUP4 MSTORE SWAP2 PUSH1 0x20 ADD SWAP2 PUSH2 0xDE4 JUMP JUMPDEST DUP3 ADD SWAP2 SWAP1 PUSH1 0x0 MSTORE PUSH1 0x20 PUSH1 0x0 KECCAK256 SWAP1 JUMPDEST DUP2 SLOAD DUP2 MSTORE SWAP1 PUSH1 0x1 ADD SWAP1 PUSH1 0x20 ADD DUP1 DUP4 GT PUSH2 0xDC7 JUMPI DUP3 SWAP1 SUB PUSH1 0x1F AND DUP3 ADD SWAP2 JUMPDEST POP POP POP POP POP DUP2 MSTORE POP POP DUP2 MSTORE PUSH1 0x20 ADD PUSH1 0x6 DUP3 ADD PUSH1 0x40 MLOAD DUP1 PUSH1 0xC0 ADD PUSH1 0x40 MSTORE SWAP1 DUP2 PUSH1 0x0 DUP3 ADD DUP1 SLOAD PUSH2 0xE11 SWAP1 PUSH2 0x5584 JUMP JUMPDEST DUP1 PUSH1 0x1F ADD PUSH1 0x20 DUP1 SWAP2 DIV MUL PUSH1 0x20 ADD PUSH1 0x40 MLOAD SWAP1 DUP2 ADD PUSH1 0x40 MSTORE DUP1 SWAP3 SWAP2 SWAP1 DUP2 DUP2 MSTORE PUSH1 0x20 ADD DUP3 DUP1 SLOAD PUSH2 0xE3D SWAP1 PUSH2 0x5584 JUMP JUMPDEST DUP1 ISZERO PUSH2 0xE8A JUMPI DUP1 PUSH1 0x1F LT PUSH2 0xE5F JUMPI PUSH2 0x100 DUP1 DUP4 SLOAD DIV MUL DUP4 MSTORE SWAP2 PUSH1 0x20 ADD SWAP2 PUSH2 0xE8A JUMP JUMPDEST DUP3 ADD SWAP2 SWAP1 PUSH1 0x0 MSTORE PUSH1 0x20 PUSH1 0x0 KECCAK256 SWAP1 JUMPDEST DUP2 SLOAD DUP2 MSTORE SWAP1 PUSH1 0x1 ADD SWAP1 PUSH1 0x20 ADD DUP1 DUP4 GT PUSH2 0xE6D JUMPI DUP3 SWAP1 SUB PUSH1 0x1F AND DUP3 ADD SWAP2 JUMPDEST POP POP POP POP POP DUP2 MSTORE PUSH1 0x20 ADD PUSH1 0x1 DUP3 ADD SLOAD DUP2 MSTORE PUSH1 0x20 ADD PUSH1 0x2 DUP3 ADD SLOAD DUP2 MSTORE PUSH1 0x20 ADD PUSH1 0x3 DUP3 ADD SLOAD DUP2 MSTORE PUSH1 0x20 ADD PUSH1 0x4 DUP3 ADD DUP1 SLOAD DUP1 PUSH1 0x20 MUL PUSH1 0x20 ADD PUSH1 0x40 MLOAD SWAP1 DUP2 ADD PUSH1 0x40 MSTORE DUP1 SWAP3 SWAP2 SWAP1 DUP2 DUP2 MSTORE PUSH1 0x20 ADD DUP3 DUP1 SLOAD DUP1 ISZERO PUSH2 0xF00 JUMPI PUSH1 0x20 MUL DUP3 ADD SWAP2 SWAP1 PUSH1 0x0 MSTORE PUSH1 0x20 PUSH1 0x0 KECCAK256 SWAP1 JUMPDEST DUP2 SLOAD DUP2 MSTORE PUSH1 0x20 ADD SWAP1 PUSH1 0x1 ADD SWAP1 DUP1 DUP4 GT PUSH2 0xEEC JUMPI JUMPDEST POP POP POP SWAP2 DUP4 MSTORE POP POP PUSH1 0x40 DUP1 MLOAD DUP1 DUP3 ADD SWAP2 DUP3 SWAP1 MSTORE PUSH1 0x20 SWAP1 SWAP3 ADD SWAP2 SWAP1 PUSH1 0x5 DUP5 ADD SWAP1 PUSH1 0x2 SWAP1 DUP3 DUP5 JUMPDEST DUP2 SLOAD DUP2 MSTORE PUSH1 0x20 ADD SWAP1 PUSH1 0x1 ADD SWAP1 DUP1 DUP4 GT PUSH2 0xF25 JUMPI POP POP POP POP POP DUP2 MSTORE POP POP DUP2 MSTORE POP POP SWAP1 POP DUP1 PUSH1 0x20 ADD MLOAD PUSH1 0x80 ADD MLOAD PUSH1 0x0 DUP2 MLOAD DUP2 LT PUSH2 0xF62 JUMPI PUSH2 0xF62 PUSH2 0x55FA JUMP JUMPDEST PUSH1 0x20 MUL PUSH1 0x20 ADD ADD MLOAD DUP2 PUSH1 0x20 ADD MLOAD PUSH1 0x80 ADD MLOAD PUSH1 0x1 DUP2 MLOAD DUP2 LT PUSH2 0xF85 JUMPI PUSH2 0xF85 PUSH2 0x55FA JUMP JUMPDEST PUSH1 0x20 MUL PUSH1 0x20 ADD ADD MLOAD DUP3 PUSH1 0x20 ADD MLOAD PUSH1 0xA0 ADD MLOAD PUSH1 0x0 PUSH1 0x2 DUP2 LT PUSH2 0xFA8 JUMPI PUSH2 0xFA8 PUSH2 0x55FA JUMP JUMPDEST PUSH1 0x20 MUL ADD MLOAD DUP4 PUSH1 0x20 ADD MLOAD PUSH1 0xA0 ADD MLOAD PUSH1 0x1 PUSH1 0x2 DUP2 LT PUSH2 0xFC8 JUMPI PUSH2 0xFC8 PUSH2 0x55FA JUMP JUMPDEST PUSH1 0x20 SWAP1 DUP2 MUL SWAP2 SWAP1 SWAP2 ADD MLOAD DUP6 DUP3 ADD MLOAD MLOAD DUP7 MLOAD PUSH1 0x80 DUP2 ADD MLOAD PUSH1 0xA0 SWAP1 SWAP2 ADD MLOAD PUSH1 0x40 MLOAD PUSH2 0xFF4 SWAP9 SWAP8 SWAP7 SWAP6 ADD PUSH2 0x5610 JUMP JUMPDEST PUSH1 0x40 MLOAD PUSH1 0x20 DUP2 DUP4 SUB SUB DUP2 MSTORE SWAP1 PUSH1 0x40 MSTORE SWAP2 POP POP SWAP2 SWAP1 POP JUMP JUMPDEST PUSH1 0x0 CALLER PUSH1 0x1 PUSH1 0x1 PUSH1 0xA0 SHL SUB DUP6 AND EQ DUP1 PUSH2 0x1047 JUMPI POP PUSH1 0x1 PUSH1 0x1 PUSH1 0xA0 SHL SUB DUP5 AND PUSH1 0x0 SWAP1 DUP2 MSTORE PUSH1 0x8 PUSH1 0x20 SWAP1 DUP2 MSTORE PUSH1 0x40 DUP1 DUP4 KECCAK256 CALLER DUP5 MSTORE SWAP1 SWAP2 MSTORE SWAP1 KECCAK256 SLOAD DUP3 GT ISZERO JUMPDEST PUSH2 0x1087 JUMPI PUSH1 0x40 MLOAD PUSH3 0x461BCD PUSH1 0xE5 SHL DUP2 MSTORE PUSH1 0x20 PUSH1 0x4 DUP3 ADD MSTORE PUSH1 0xC PUSH1 0x24 DUP3 ADD MSTORE PUSH12 0x1B9BDD08185C1C1C9BDD9959 PUSH1 0xA2 SHL PUSH1 0x44 DUP3 ADD MSTORE PUSH1 0x64 ADD JUMPDEST PUSH1 0x40 MLOAD DUP1 SWAP2 SUB SWAP1 REVERT JUMPDEST PUSH2 0x1092 DUP5 DUP5 DUP5 PUSH2 0x3A7C JUMP JUMPDEST CALLER PUSH1 0x1 PUSH1 0x1 PUSH1 0xA0 SHL SUB DUP6 AND EQ PUSH2 0x111A JUMPI PUSH1 0x1 PUSH1 0x1 PUSH1 0xA0 SHL SUB DUP5 AND PUSH1 0x0 SWAP1 DUP2 MSTORE PUSH1 0x8 PUSH1 0x20 SWAP1 DUP2 MSTORE PUSH1 0x40 DUP1 DUP4 KECCAK256 CALLER DUP5 MSTORE SWAP1 SWAP2 MSTORE SWAP1 KECCAK256 SLOAD PUSH2 0x10D1 SWAP1 DUP4 SWAP1 PUSH2 0x55E7 JUMP JUMPDEST PUSH1 0x1 PUSH1 0x1 PUSH1 0xA0 SHL SUB DUP6 AND PUSH1 0x0 DUP2 DUP2 MSTORE PUSH1 0x8 PUSH1 0x20 SWAP1 DUP2 MSTORE PUSH1 0x40 DUP1 DUP4 KECCAK256 CALLER DUP1 DUP6 MSTORE SWAP1 DUP4 MSTORE SWAP3 DUP2 SWAP1 KECCAK256 DUP6 SWAP1 SSTORE MLOAD SWAP4 DUP5 MSTORE SWAP1 SWAP3 PUSH1 0x0 DUP1 MLOAD PUSH1 0x20 PUSH2 0x5EC0 DUP4 CODECOPY DUP2 MLOAD SWAP2 MSTORE SWAP2 ADD PUSH1 0x40 MLOAD DUP1 SWAP2 SUB SWAP1 LOG3 JUMPDEST POP PUSH1 0x1 SWAP4 SWAP3 POP POP POP JUMP JUMPDEST PUSH1 0x0 PUSH1 0x0 DUP1 MLOAD PUSH1 0x20 PUSH2 0x5E80 DUP4 CODECOPY DUP2 MLOAD SWAP2 MSTORE DUP4 LT PUSH2 0x1140 JUMPI PUSH1 0x0 DUP1 REVERT JUMPDEST PUSH1 0x0 DUP1 MLOAD PUSH1 0x20 PUSH2 0x5E80 DUP4 CODECOPY DUP2 MLOAD SWAP2 MSTORE DUP3 LT PUSH2 0x115A JUMPI PUSH1 0x0 DUP1 REVERT JUMPDEST PUSH2 0x1162 PUSH2 0x49E5 JUMP JUMPDEST DUP4 DUP2 MSTORE PUSH1 0x20 DUP2 ADD DUP4 SWAP1 MSTORE PUSH1 0x40 MLOAD PUSH4 0x14CF2B3 PUSH1 0xE5 SHL DUP2 MSTORE PUSH32 0x0 PUSH1 0x1 PUSH1 0x1 PUSH1 0xA0 SHL SUB AND SWAP1 PUSH4 0x299E5660 SWAP1 PUSH2 0x11B8 SWAP1 DUP5 SWAP1 PUSH1 0x4 ADD PUSH2 0x566F JUMP JUMPDEST PUSH1 0x20 PUSH1 0x40 MLOAD DUP1 DUP4 SUB DUP2 DUP7 GAS STATICCALL ISZERO DUP1 ISZERO PUSH2 0x11D5 JUMPI RETURNDATASIZE PUSH1 0x0 DUP1 RETURNDATACOPY RETURNDATASIZE PUSH1 0x0 REVERT JUMPDEST POP POP POP POP PUSH1 0x40 MLOAD RETURNDATASIZE PUSH1 0x1F NOT PUSH1 0x1F DUP3 ADD AND DUP3 ADD DUP1 PUSH1 0x40 MSTORE POP DUP2 ADD SWAP1 PUSH2 0x11F9 SWAP2 SWAP1 PUSH2 0x567D JUMP JUMPDEST SWAP5 SWAP4 POP POP POP POP JUMP JUMPDEST PUSH1 0x60 PUSH1 0xD DUP1 SLOAD DUP1 PUSH1 0x20 MUL PUSH1 0x20 ADD PUSH1 0x40 MLOAD SWAP1 DUP2 ADD PUSH1 0x40 MSTORE DUP1 SWAP3 SWAP2 SWAP1 DUP2 DUP2 MSTORE PUSH1 0x20 ADD DUP3 DUP1 SLOAD DUP1 ISZERO PUSH2 0xB88 JUMPI PUSH1 0x20 MUL DUP3 ADD SWAP2 SWAP1 PUSH1 0x0 MSTORE PUSH1 0x20 PUSH1 0x0 KECCAK256 SWAP1 JUMPDEST DUP2 SLOAD PUSH1 0x1 PUSH1 0x1 PUSH1 0xA0 SHL SUB AND DUP2 MSTORE PUSH1 0x1 SWAP1 SWAP2 ADD SWAP1 PUSH1 0x20 ADD DUP1 DUP4 GT PUSH2 0x123B JUMPI POP POP POP POP POP SWAP1 POP SWAP1 JUMP JUMPDEST PUSH1 0x0 DUP1 PUSH2 0x126F DUP6 DUP6 PUSH2 0x3B43 JUMP JUMPDEST SWAP1 POP PUSH1 0x0 PUSH2 0x128E PUSH8 0xDE0B6B3A7640000 PUSH2 0x1289 DUP7 DUP3 PUSH2 0x55E7 JUMP JUMPDEST PUSH2 0x3B43 JUMP JUMPDEST SWAP1 POP PUSH2 0x129A DUP3 DUP3 PUSH2 0x3C1F JUMP JUMPDEST SWAP7 SWAP6 POP POP POP POP POP POP JUMP JUMPDEST PUSH2 0x12AC PUSH2 0x4A03 JUMP JUMPDEST PUSH1 0xA PUSH2 0x12B9 PUSH1 0x1 DUP5 PUSH2 0x55E7 JUMP JUMPDEST DUP2 SLOAD DUP2 LT PUSH2 0x12C9 JUMPI PUSH2 0x12C9 PUSH2 0x55FA JUMP JUMPDEST PUSH1 0x0 SWAP2 DUP3 MSTORE PUSH1 0x20 SWAP1 SWAP2 KECCAK256 PUSH1 0x40 DUP1 MLOAD PUSH2 0x100 DUP2 ADD DUP3 MSTORE PUSH1 0xD SWAP1 SWAP4 MUL SWAP1 SWAP2 ADD DUP1 SLOAD PUSH1 0x1 PUSH1 0x1 PUSH1 0xA0 SHL SUB AND SWAP2 DUP4 ADD SWAP2 DUP3 MSTORE PUSH1 0x1 DUP2 ADD SLOAD PUSH1 0x60 DUP5 ADD MSTORE PUSH1 0x2 DUP2 ADD SLOAD PUSH1 0x80 DUP5 ADD MSTORE PUSH1 0x3 DUP2 ADD SLOAD PUSH1 0xA0 DUP5 ADD MSTORE PUSH1 0x4 DUP2 ADD DUP1 SLOAD SWAP2 SWAP3 DUP5 SWAP3 SWAP1 SWAP2 DUP5 SWAP2 PUSH1 0xC0 DUP6 ADD SWAP2 SWAP1 PUSH2 0x1332 SWAP1 PUSH2 0x5584 JUMP JUMPDEST DUP1 PUSH1 0x1F ADD PUSH1 0x20 DUP1 SWAP2 DIV MUL PUSH1 0x20 ADD PUSH1 0x40 MLOAD SWAP1 DUP2 ADD PUSH1 0x40 MSTORE DUP1 SWAP3 SWAP2 SWAP1 DUP2 DUP2 MSTORE PUSH1 0x20 ADD DUP3 DUP1 SLOAD PUSH2 0x135E SWAP1 PUSH2 0x5584 JUMP JUMPDEST DUP1 ISZERO PUSH2 0x13AB JUMPI DUP1 PUSH1 0x1F LT PUSH2 0x1380 JUMPI PUSH2 0x100 DUP1 DUP4 SLOAD DIV MUL DUP4 MSTORE SWAP2 PUSH1 0x20 ADD SWAP2 PUSH2 0x13AB JUMP JUMPDEST DUP3 ADD SWAP2 SWAP1 PUSH1 0x0 MSTORE PUSH1 0x20 PUSH1 0x0 KECCAK256 SWAP1 JUMPDEST DUP2 SLOAD DUP2 MSTORE SWAP1 PUSH1 0x1 ADD SWAP1 PUSH1 0x20 ADD DUP1 DUP4 GT PUSH2 0x138E JUMPI DUP3 SWAP1 SUB PUSH1 0x1F AND DUP3 ADD SWAP2 JUMPDEST POP POP POP POP POP DUP2 MSTORE PUSH1 0x20 ADD PUSH1 0x5 DUP3 ADD DUP1 SLOAD PUSH2 0x13C4 SWAP1 PUSH2 0x5584 JUMP JUMPDEST DUP1 PUSH1 0x1F ADD PUSH1 0x20 DUP1 SWAP2 DIV MUL PUSH1 0x20 ADD PUSH1 0x40 MLOAD SWAP1 DUP2 ADD PUSH1 0x40 MSTORE DUP1 SWAP3 SWAP2 SWAP1 DUP2 DUP2 MSTORE PUSH1 0x20 ADD DUP3 DUP1 SLOAD PUSH2 0x13F0 SWAP1 PUSH2 0x5584 JUMP JUMPDEST DUP1 ISZERO PUSH2 0x143D JUMPI DUP1 PUSH1 0x1F LT PUSH2 0x1412 JUMPI PUSH2 0x100 DUP1 DUP4 SLOAD DIV MUL DUP4 MSTORE SWAP2 PUSH1 0x20 ADD SWAP2 PUSH2 0x143D JUMP JUMPDEST DUP3 ADD SWAP2 SWAP1 PUSH1 0x0 MSTORE PUSH1 0x20 PUSH1 0x0 KECCAK256 SWAP1 JUMPDEST DUP2 SLOAD DUP2 MSTORE SWAP1 PUSH1 0x1 ADD SWAP1 PUSH1 0x20 ADD DUP1 DUP4 GT PUSH2 0x1420 JUMPI DUP3 SWAP1 SUB PUSH1 0x1F AND DUP3 ADD SWAP2 JUMPDEST POP POP POP POP POP DUP2 MSTORE POP POP DUP2 MSTORE PUSH1 0x20 ADD PUSH1 0x6 DUP3 ADD PUSH1 0x40 MLOAD DUP1 PUSH1 0xC0 ADD PUSH1 0x40 MSTORE SWAP1 DUP2 PUSH1 0x0 DUP3 ADD DUP1 SLOAD PUSH2 0x146A SWAP1 PUSH2 0x5584 JUMP JUMPDEST DUP1 PUSH1 0x1F ADD PUSH1 0x20 DUP1 SWAP2 DIV MUL PUSH1 0x20 ADD PUSH1 0x40 MLOAD SWAP1 DUP2 ADD PUSH1 0x40 MSTORE DUP1 SWAP3 SWAP2 SWAP1 DUP2 DUP2 MSTORE PUSH1 0x20 ADD DUP3 DUP1 SLOAD PUSH2 0x1496 SWAP1 PUSH2 0x5584 JUMP JUMPDEST DUP1 ISZERO PUSH2 0x14E3 JUMPI DUP1 PUSH1 0x1F LT PUSH2 0x14B8 JUMPI PUSH2 0x100 DUP1 DUP4 SLOAD DIV MUL DUP4 MSTORE SWAP2 PUSH1 0x20 ADD SWAP2 PUSH2 0x14E3 JUMP JUMPDEST DUP3 ADD SWAP2 SWAP1 PUSH1 0x0 MSTORE PUSH1 0x20 PUSH1 0x0 KECCAK256 SWAP1 JUMPDEST DUP2 SLOAD DUP2 MSTORE SWAP1 PUSH1 0x1 ADD SWAP1 PUSH1 0x20 ADD DUP1 DUP4 GT PUSH2 0x14C6 JUMPI DUP3 SWAP1 SUB PUSH1 0x1F AND DUP3 ADD SWAP2 JUMPDEST POP POP POP POP POP DUP2 MSTORE PUSH1 0x20 ADD PUSH1 0x1 DUP3 ADD SLOAD DUP2 MSTORE PUSH1 0x20 ADD PUSH1 0x2 DUP3 ADD SLOAD DUP2 MSTORE PUSH1 0x20 ADD PUSH1 0x3 DUP3 ADD SLOAD DUP2 MSTORE PUSH1 0x20 ADD PUSH1 0x4 DUP3 ADD DUP1 SLOAD DUP1 PUSH1 0x20 MUL PUSH1 0x20 ADD PUSH1 0x40 MLOAD SWAP1 DUP2 ADD PUSH1 0x40 MSTORE DUP1 SWAP3 SWAP2 SWAP1 DUP2 DUP2 MSTORE PUSH1 0x20 ADD DUP3 DUP1 SLOAD DUP1 ISZERO PUSH2 0x1559 JUMPI PUSH1 0x20 MUL DUP3 ADD SWAP2 SWAP1 PUSH1 0x0 MSTORE PUSH1 0x20 PUSH1 0x0 KECCAK256 SWAP1 JUMPDEST DUP2 SLOAD DUP2 MSTORE PUSH1 0x20 ADD SWAP1 PUSH1 0x1 ADD SWAP1 DUP1 DUP4 GT PUSH2 0x1545 JUMPI JUMPDEST POP POP POP SWAP2 DUP4 MSTORE POP POP PUSH1 0x40 DUP1 MLOAD DUP1 DUP3 ADD SWAP2 DUP3 SWAP1 MSTORE PUSH1 0x20 SWAP1 SWAP3 ADD SWAP2 SWAP1 PUSH1 0x5 DUP5 ADD SWAP1 PUSH1 0x2 SWAP1 DUP3 DUP5 JUMPDEST DUP2 SLOAD DUP2 MSTORE PUSH1 0x20 ADD SWAP1 PUSH1 0x1 ADD SWAP1 DUP1 DUP4 GT PUSH2 0x157E JUMPI POP POP POP SWAP2 SWAP1 SWAP3 MSTORE POP POP POP SWAP1 MSTORE POP SWAP3 SWAP2 POP POP JUMP JUMPDEST PUSH1 0xE SLOAD PUSH1 0x0 SWAP1 DUP2 SWAP1 PUSH1 0xFF AND ISZERO PUSH2 0x15B9 JUMPI PUSH1 0x0 DUP1 REVERT JUMPDEST PUSH1 0x0 DUP1 PUSH1 0x0 PUSH2 0x15E8 DUP9 PUSH32 0x0 PUSH2 0x3C1F JUMP JUMPDEST SWAP1 POP PUSH1 0x0 PUSH2 0x15F6 DUP3 DUP11 PUSH2 0x55E7 JUMP JUMPDEST SWAP1 POP DUP10 ISZERO PUSH2 0x160D JUMPI PUSH1 0x12 SLOAD SWAP4 POP PUSH1 0x11 SLOAD SWAP3 POP PUSH2 0x1618 JUMP JUMPDEST PUSH1 0x11 SLOAD SWAP4 POP PUSH1 0x12 SLOAD SWAP3 POP JUMPDEST PUSH2 0x1634 DUP5 PUSH2 0x162F PUSH1 0x2 PUSH8 0xDE0B6B3A7640000 PUSH2 0x56AC JUMP JUMPDEST PUSH2 0x3C1F JUMP JUMPDEST DUP10 GT ISZERO PUSH2 0x1640 JUMPI PUSH1 0x0 DUP1 REVERT JUMPDEST PUSH1 0x0 PUSH2 0x164E DUP6 DUP6 PUSH1 0x0 PUSH2 0x1262 JUMP JUMPDEST SWAP1 POP DUP8 DUP2 GT ISZERO PUSH2 0x165D JUMPI PUSH1 0x0 DUP1 REVERT JUMPDEST DUP11 ISZERO PUSH2 0x1678 JUMPI PUSH2 0x1671 DUP5 DUP7 DUP5 PUSH1 0x0 DUP1 PUSH2 0x391E JUMP JUMPDEST SWAP7 POP PUSH2 0x1688 JUMP JUMPDEST PUSH2 0x1685 DUP6 DUP6 DUP5 PUSH1 0x0 PUSH2 0x2161 JUMP JUMPDEST SWAP7 POP JUMPDEST DUP9 DUP8 LT ISZERO PUSH2 0x1695 JUMPI PUSH1 0x0 DUP1 REVERT JUMPDEST PUSH2 0x169F DUP3 DUP9 PUSH2 0x3B43 JUMP JUMPDEST DUP2 GT ISZERO PUSH2 0x16AB JUMPI PUSH1 0x0 DUP1 REVERT JUMPDEST PUSH2 0x16B5 DUP8 DUP6 PUSH2 0x55E7 JUMP JUMPDEST SWAP4 POP DUP11 ISZERO PUSH2 0x18BD JUMPI PUSH1 0x9 SLOAD PUSH1 0x40 MLOAD PUSH4 0xA6C1A4F PUSH1 0xE1 SHL DUP2 MSTORE PUSH1 0x1 PUSH1 0x1 PUSH1 0xA0 SHL SUB SWAP1 SWAP2 AND SWAP1 PUSH4 0x14D8349E SWAP1 PUSH2 0x16EF SWAP1 CALLER SWAP1 DUP7 SWAP1 PUSH1 0x4 ADD PUSH2 0x56C0 JUMP JUMPDEST PUSH1 0x0 PUSH1 0x40 MLOAD DUP1 DUP4 SUB DUP2 PUSH1 0x0 DUP8 DUP1 EXTCODESIZE ISZERO DUP1 ISZERO PUSH2 0x1709 JUMPI PUSH1 0x0 DUP1 REVERT JUMPDEST POP GAS CALL ISZERO DUP1 ISZERO PUSH2 0x171D JUMPI RETURNDATASIZE PUSH1 0x0 DUP1 RETURNDATACOPY RETURNDATASIZE PUSH1 0x0 REVERT JUMPDEST POP POP PUSH1 0x40 MLOAD PUSH4 0xA9059CBB PUSH1 0xE0 SHL DUP2 MSTORE PUSH1 0x1 PUSH1 0x1 PUSH1 0xA0 SHL SUB PUSH32 0x0 AND SWAP3 POP PUSH4 0xA9059CBB SWAP2 POP PUSH2 0x176F SWAP1 CALLER SWAP1 DUP12 SWAP1 PUSH1 0x4 ADD PUSH2 0x56C0 JUMP JUMPDEST PUSH1 0x20 PUSH1 0x40 MLOAD DUP1 DUP4 SUB DUP2 PUSH1 0x0 DUP8 GAS CALL ISZERO DUP1 ISZERO PUSH2 0x178E JUMPI RETURNDATASIZE PUSH1 0x0 DUP1 RETURNDATACOPY RETURNDATASIZE PUSH1 0x0 REVERT JUMPDEST POP POP POP POP PUSH1 0x40 MLOAD RETURNDATASIZE PUSH1 0x1F NOT PUSH1 0x1F DUP3 ADD AND DUP3 ADD DUP1 PUSH1 0x40 MSTORE POP DUP2 ADD SWAP1 PUSH2 0x17B2 SWAP2 SWAP1 PUSH2 0x56D9 JUMP JUMPDEST PUSH2 0x17BB JUMPI PUSH1 0x0 DUP1 REVERT JUMPDEST DUP7 PUSH1 0x11 PUSH1 0x0 DUP3 DUP3 SLOAD PUSH2 0x17CD SWAP2 SWAP1 PUSH2 0x55E7 JUMP JUMPDEST SWAP1 SWAP2 SSTORE POP POP DUP3 ISZERO PUSH2 0x18B8 JUMPI PUSH1 0x9 SLOAD PUSH1 0xC SLOAD PUSH1 0x40 MLOAD PUSH4 0x95EA7B3 PUSH1 0xE0 SHL DUP2 MSTORE PUSH1 0x1 PUSH1 0x1 PUSH1 0xA0 SHL SUB SWAP3 DUP4 AND SWAP3 PUSH4 0x95EA7B3 SWAP3 PUSH2 0x180E SWAP3 SWAP2 AND SWAP1 DUP8 SWAP1 PUSH1 0x4 ADD PUSH2 0x56C0 JUMP JUMPDEST PUSH1 0x20 PUSH1 0x40 MLOAD DUP1 DUP4 SUB DUP2 PUSH1 0x0 DUP8 GAS CALL ISZERO DUP1 ISZERO PUSH2 0x182D JUMPI RETURNDATASIZE PUSH1 0x0 DUP1 RETURNDATACOPY RETURNDATASIZE PUSH1 0x0 REVERT JUMPDEST POP POP POP POP PUSH1 0x40 MLOAD RETURNDATASIZE PUSH1 0x1F NOT PUSH1 0x1F DUP3 ADD AND DUP3 ADD DUP1 PUSH1 0x40 MSTORE POP DUP2 ADD SWAP1 PUSH2 0x1851 SWAP2 SWAP1 PUSH2 0x56D9 JUMP JUMPDEST POP PUSH1 0xC SLOAD PUSH1 0x40 MLOAD PUSH4 0x214CABE5 PUSH1 0xE1 SHL DUP2 MSTORE PUSH1 0x1 PUSH1 0x1 PUSH1 0xA0 SHL SUB SWAP1 SWAP2 AND SWAP1 PUSH4 0x429957CA SWAP1 PUSH2 0x1885 SWAP1 DUP7 SWAP1 PUSH1 0x1 SWAP1 PUSH1 0x4 ADD PUSH2 0x56F6 JUMP JUMPDEST PUSH1 0x0 PUSH1 0x40 MLOAD DUP1 DUP4 SUB DUP2 PUSH1 0x0 DUP8 DUP1 EXTCODESIZE ISZERO DUP1 ISZERO PUSH2 0x189F JUMPI PUSH1 0x0 DUP1 REVERT JUMPDEST POP GAS CALL ISZERO DUP1 ISZERO PUSH2 0x18B3 JUMPI RETURNDATASIZE PUSH1 0x0 DUP1 RETURNDATACOPY RETURNDATASIZE PUSH1 0x0 REVERT JUMPDEST POP POP POP POP JUMPDEST PUSH2 0x1B31 JUMP JUMPDEST PUSH2 0x18C7 DUP3 DUP7 PUSH2 0x55D4 JUMP JUMPDEST PUSH1 0x40 MLOAD PUSH4 0x23B872DD PUSH1 0xE0 SHL DUP2 MSTORE SWAP1 SWAP6 POP PUSH1 0x1 PUSH1 0x1 PUSH1 0xA0 SHL SUB PUSH32 0x0 AND SWAP1 PUSH4 0x23B872DD SWAP1 PUSH2 0x191A SWAP1 CALLER SWAP1 ADDRESS SWAP1 DUP16 SWAP1 PUSH1 0x4 ADD PUSH2 0x5706 JUMP JUMPDEST PUSH1 0x20 PUSH1 0x40 MLOAD DUP1 DUP4 SUB DUP2 PUSH1 0x0 DUP8 GAS CALL ISZERO DUP1 ISZERO PUSH2 0x1939 JUMPI RETURNDATASIZE PUSH1 0x0 DUP1 RETURNDATACOPY RETURNDATASIZE PUSH1 0x0 REVERT JUMPDEST POP POP POP POP PUSH1 0x40 MLOAD RETURNDATASIZE PUSH1 0x1F NOT PUSH1 0x1F DUP3 ADD AND DUP3 ADD DUP1 PUSH1 0x40 MSTORE POP DUP2 ADD SWAP1 PUSH2 0x195D SWAP2 SWAP1 PUSH2 0x56D9 JUMP JUMPDEST PUSH2 0x1966 JUMPI PUSH1 0x0 DUP1 REVERT JUMPDEST PUSH1 0x9 SLOAD PUSH1 0x40 MLOAD PUSH4 0xA9059CBB PUSH1 0xE0 SHL DUP2 MSTORE PUSH1 0x1 PUSH1 0x1 PUSH1 0xA0 SHL SUB SWAP1 SWAP2 AND SWAP1 PUSH4 0xA9059CBB SWAP1 PUSH2 0x1998 SWAP1 CALLER SWAP1 DUP12 SWAP1 PUSH1 0x4 ADD PUSH2 0x56C0 JUMP JUMPDEST PUSH1 0x20 PUSH1 0x40 MLOAD DUP1 DUP4 SUB DUP2 PUSH1 0x0 DUP8 GAS CALL ISZERO DUP1 ISZERO PUSH2 0x19B7 JUMPI RETURNDATASIZE PUSH1 0x0 DUP1 RETURNDATACOPY RETURNDATASIZE PUSH1 0x0 REVERT JUMPDEST POP POP POP POP PUSH1 0x40 MLOAD RETURNDATASIZE PUSH1 0x1F NOT PUSH1 0x1F DUP3 ADD AND DUP3 ADD DUP1 PUSH1 0x40 MSTORE POP DUP2 ADD SWAP1 PUSH2 0x19DB SWAP2 SWAP1 PUSH2 0x56D9 JUMP JUMPDEST POP DUP2 PUSH1 0x11 PUSH1 0x0 DUP3 DUP3 SLOAD PUSH2 0x19EE SWAP2 SWAP1 PUSH2 0x55D4 JUMP JUMPDEST SWAP3 POP POP DUP2 SWAP1 SSTORE POP DUP7 PUSH1 0x12 PUSH1 0x0 DUP3 DUP3 SLOAD PUSH2 0x1A07 SWAP2 SWAP1 PUSH2 0x55E7 JUMP JUMPDEST SWAP1 SWAP2 SSTORE POP POP PUSH32 0x0 ISZERO PUSH2 0x1B31 JUMPI PUSH1 0xC SLOAD PUSH1 0x40 MLOAD PUSH4 0x95EA7B3 PUSH1 0xE0 SHL DUP2 MSTORE PUSH1 0x1 PUSH1 0x1 PUSH1 0xA0 SHL SUB PUSH32 0x0 DUP2 AND SWAP3 PUSH4 0x95EA7B3 SWAP3 PUSH2 0x1A87 SWAP3 SWAP2 SWAP1 SWAP2 AND SWAP1 DUP8 SWAP1 PUSH1 0x4 ADD PUSH2 0x56C0 JUMP JUMPDEST PUSH1 0x20 PUSH1 0x40 MLOAD DUP1 DUP4 SUB DUP2 PUSH1 0x0 DUP8 GAS CALL ISZERO DUP1 ISZERO PUSH2 0x1AA6 JUMPI RETURNDATASIZE PUSH1 0x0 DUP1 RETURNDATACOPY RETURNDATASIZE PUSH1 0x0 REVERT JUMPDEST POP POP POP POP PUSH1 0x40 MLOAD RETURNDATASIZE PUSH1 0x1F NOT PUSH1 0x1F DUP3 ADD AND DUP3 ADD DUP1 PUSH1 0x40 MSTORE POP DUP2 ADD SWAP1 PUSH2 0x1ACA SWAP2 SWAP1 PUSH2 0x56D9 JUMP JUMPDEST POP PUSH1 0xC SLOAD PUSH1 0x40 MLOAD PUSH4 0x214CABE5 PUSH1 0xE1 SHL DUP2 MSTORE PUSH1 0x1 PUSH1 0x1 PUSH1 0xA0 SHL SUB SWAP1 SWAP2 AND SWAP1 PUSH4 0x429957CA SWAP1 PUSH2 0x1AFE SWAP1 DUP7 SWAP1 PUSH1 0x0 SWAP1 PUSH1 0x4 ADD PUSH2 0x56F6 JUMP JUMPDEST PUSH1 0x0 PUSH1 0x40 MLOAD DUP1 DUP4 SUB DUP2 PUSH1 0x0 DUP8 DUP1 EXTCODESIZE ISZERO DUP1 ISZERO PUSH2 0x1B18 JUMPI PUSH1 0x0 DUP1 REVERT JUMPDEST POP GAS CALL ISZERO DUP1 ISZERO PUSH2 0x1B2C JUMPI RETURNDATASIZE PUSH1 0x0 DUP1 RETURNDATACOPY RETURNDATASIZE PUSH1 0x0 REVERT JUMPDEST POP POP POP POP JUMPDEST PUSH2 0x1B3D DUP6 DUP6 PUSH1 0x0 PUSH2 0x1262 JUMP JUMPDEST SWAP6 POP DUP1 DUP7 LT ISZERO PUSH2 0x1B4C JUMPI PUSH1 0x0 DUP1 REVERT JUMPDEST DUP8 DUP7 GT ISZERO PUSH2 0x1B59 JUMPI PUSH1 0x0 DUP1 REVERT JUMPDEST PUSH2 0x1B61 PUSH2 0xBED JUMP JUMPDEST PUSH1 0x40 DUP1 MLOAD CALLER DUP2 MSTORE DUP13 ISZERO ISZERO PUSH1 0x20 DUP3 ADD MSTORE SWAP1 DUP2 ADD DUP12 SWAP1 MSTORE PUSH1 0x60 DUP2 ADD DUP9 SWAP1 MSTORE PUSH32 0xBFD50A04F1E6E4AEE344F5D0E7F15D74D0DBB58CD1F711DAA6463094CA9508CD SWAP1 PUSH1 0x80 ADD PUSH1 0x40 MLOAD DUP1 SWAP2 SUB SWAP1 LOG1 POP POP POP POP POP SWAP5 POP SWAP5 SWAP3 POP POP POP JUMP JUMPDEST PUSH1 0x60 PUSH1 0xB DUP1 SLOAD DUP1 PUSH1 0x20 MUL PUSH1 0x20 ADD PUSH1 0x40 MLOAD SWAP1 DUP2 ADD PUSH1 0x40 MSTORE DUP1 SWAP3 SWAP2 SWAP1 DUP2 DUP2 MSTORE PUSH1 0x20 ADD PUSH1 0x0 SWAP1 JUMPDEST DUP3 DUP3 LT ISZERO PUSH2 0x1C24 JUMPI PUSH1 0x0 DUP5 DUP2 MSTORE PUSH1 0x20 SWAP1 DUP2 SWAP1 KECCAK256 PUSH1 0x40 DUP1 MLOAD DUP1 DUP3 ADD SWAP1 SWAP2 MSTORE PUSH1 0x2 DUP6 MUL SWAP1 SWAP2 ADD DUP1 SLOAD DUP3 MSTORE PUSH1 0x1 SWAP1 DUP2 ADD SLOAD PUSH1 0x1 PUSH1 0x1 PUSH1 0xA0 SHL SUB AND DUP3 DUP5 ADD MSTORE SWAP1 DUP4 MSTORE SWAP1 SWAP3 ADD SWAP2 ADD PUSH2 0x1BDC JUMP JUMPDEST POP POP POP POP SWAP1 POP SWAP1 JUMP JUMPDEST PUSH1 0x0 PUSH1 0x20 DUP3 GT PUSH2 0x2A7 JUMPI POP PUSH1 0x0 SWAP1 DUP2 MSTORE PUSH1 0x2 PUSH1 0x20 MSTORE PUSH1 0x40 SWAP1 KECCAK256 SLOAD SWAP1 JUMP JUMPDEST SWAP2 SWAP1 POP JUMP JUMPDEST PUSH1 0xE SLOAD PUSH1 0x0 SWAP1 PUSH1 0xFF AND ISZERO PUSH2 0x1C62 JUMPI PUSH1 0x0 DUP1 REVERT JUMPDEST CALLER PUSH1 0x0 SWAP1 DUP2 MSTORE PUSH1 0x18 PUSH1 0x20 MSTORE PUSH1 0x40 SWAP1 KECCAK256 SLOAD TIMESTAMP GT PUSH2 0x1C7D JUMPI PUSH1 0x0 DUP1 REVERT JUMPDEST PUSH2 0x1C85 PUSH2 0xBED JUMP JUMPDEST PUSH1 0x0 PUSH2 0x1CB1 DUP6 PUSH32 0x0 PUSH2 0x3C1F JUMP JUMPDEST SWAP1 POP PUSH1 0x0 PUSH2 0x1CBF DUP3 DUP8 PUSH2 0x55E7 JUMP JUMPDEST SWAP1 POP PUSH1 0x0 PUSH2 0x1CCF DUP3 PUSH1 0x6 SLOAD PUSH2 0x3B43 JUMP JUMPDEST SWAP1 POP PUSH2 0x1CDB CALLER DUP4 PUSH2 0x3CB5 JUMP JUMPDEST PUSH2 0x1CE7 DUP2 PUSH1 0x11 SLOAD PUSH2 0x3C1F JUMP JUMPDEST SWAP4 POP DUP4 PUSH1 0x0 SUB PUSH2 0x1CF6 JUMPI PUSH1 0x0 DUP1 REVERT JUMPDEST DUP5 DUP5 LT ISZERO PUSH2 0x1D03 JUMPI PUSH1 0x0 DUP1 REVERT JUMPDEST DUP4 PUSH1 0x11 SLOAD PUSH2 0x1D11 SWAP2 SWAP1 PUSH2 0x55E7 JUMP JUMPDEST PUSH1 0x11 DUP2 SWAP1 SSTORE POP PUSH1 0x0 PUSH2 0x1D25 DUP3 PUSH1 0x12 SLOAD PUSH2 0x3C1F JUMP JUMPDEST SWAP1 POP DUP1 PUSH1 0x0 SUB PUSH2 0x1D34 JUMPI PUSH1 0x0 DUP1 REVERT JUMPDEST DUP7 DUP2 LT ISZERO PUSH2 0x1D41 JUMPI PUSH1 0x0 DUP1 REVERT JUMPDEST DUP1 PUSH1 0x12 SLOAD PUSH2 0x1D4F SWAP2 SWAP1 PUSH2 0x55E7 JUMP JUMPDEST PUSH1 0x12 SSTORE PUSH1 0x40 MLOAD PUSH4 0xA9059CBB PUSH1 0xE0 SHL DUP2 MSTORE PUSH1 0x1 PUSH1 0x1 PUSH1 0xA0 SHL SUB PUSH32 0x0 AND SWAP1 PUSH4 0xA9059CBB SWAP1 PUSH2 0x1DA0 SWAP1 CALLER SWAP1 DUP10 SWAP1 PUSH1 0x4 ADD PUSH2 0x56C0 JUMP JUMPDEST PUSH1 0x20 PUSH1 0x40 MLOAD DUP1 DUP4 SUB DUP2 PUSH1 0x0 DUP8 GAS CALL ISZERO DUP1 ISZERO PUSH2 0x1DBF JUMPI RETURNDATASIZE PUSH1 0x0 DUP1 RETURNDATACOPY RETURNDATASIZE PUSH1 0x0 REVERT JUMPDEST POP POP POP POP PUSH1 0x40 MLOAD RETURNDATASIZE PUSH1 0x1F NOT PUSH1 0x1F DUP3 ADD AND DUP3 ADD DUP1 PUSH1 0x40 MSTORE POP DUP2 ADD SWAP1 PUSH2 0x1DE3 SWAP2 SWAP1 PUSH2 0x56D9 JUMP JUMPDEST PUSH2 0x1DEC JUMPI PUSH1 0x0 DUP1 REVERT JUMPDEST PUSH1 0x9 SLOAD PUSH1 0x40 MLOAD PUSH4 0xA9059CBB PUSH1 0xE0 SHL DUP2 MSTORE PUSH1 0x1 PUSH1 0x1 PUSH1 0xA0 SHL SUB SWAP1 SWAP2 AND SWAP1 PUSH4 0xA9059CBB SWAP1 PUSH2 0x1E1E SWAP1 CALLER SWAP1 DUP6 SWAP1 PUSH1 0x4 ADD PUSH2 0x56C0 JUMP JUMPDEST PUSH1 0x20 PUSH1 0x40 MLOAD DUP1 DUP4 SUB DUP2 PUSH1 0x0 DUP8 GAS CALL ISZERO DUP1 ISZERO PUSH2 0x1E3D JUMPI RETURNDATASIZE PUSH1 0x0 DUP1 RETURNDATACOPY RETURNDATASIZE PUSH1 0x0 REVERT JUMPDEST POP POP POP POP PUSH1 0x40 MLOAD RETURNDATASIZE PUSH1 0x1F NOT PUSH1 0x1F DUP3 ADD AND DUP3 ADD DUP1 PUSH1 0x40 MSTORE POP DUP2 ADD SWAP1 PUSH2 0x1E61 SWAP2 SWAP1 PUSH2 0x56D9 JUMP JUMPDEST POP PUSH32 0x63408840C9001C8BB7D2941B1DED0CED9EA308DA1ADDF18E9EAB93675613B258 CALLER DUP10 PUSH1 0x40 MLOAD PUSH2 0x1E93 SWAP3 SWAP2 SWAP1 PUSH2 0x56C0 JUMP JUMPDEST PUSH1 0x40 MLOAD DUP1 SWAP2 SUB SWAP1 LOG1 DUP4 ISZERO PUSH2 0x20D8 JUMPI PUSH2 0x1EAD DUP5 PUSH1 0x6 SLOAD PUSH2 0x3B43 JUMP JUMPDEST SWAP2 POP PUSH2 0x1EB9 CALLER DUP6 PUSH2 0x3CB5 JUMP JUMPDEST PUSH2 0x1EC5 DUP3 PUSH1 0x11 SLOAD PUSH2 0x3C1F JUMP JUMPDEST SWAP5 POP DUP5 PUSH1 0x11 SLOAD PUSH2 0x1ED5 SWAP2 SWAP1 PUSH2 0x55E7 JUMP JUMPDEST PUSH1 0x11 SSTORE PUSH1 0x12 SLOAD PUSH2 0x1EE6 SWAP1 DUP4 SWAP1 PUSH2 0x3C1F JUMP JUMPDEST SWAP1 POP DUP1 PUSH1 0x12 SLOAD PUSH2 0x1EF6 SWAP2 SWAP1 PUSH2 0x55E7 JUMP JUMPDEST PUSH1 0x12 SSTORE PUSH1 0xC SLOAD PUSH1 0x40 MLOAD PUSH4 0x95EA7B3 PUSH1 0xE0 SHL DUP2 MSTORE PUSH1 0x1 PUSH1 0x1 PUSH1 0xA0 SHL SUB PUSH32 0x0 DUP2 AND SWAP3 PUSH4 0x95EA7B3 SWAP3 PUSH2 0x1F4E SWAP3 SWAP2 SWAP1 SWAP2 AND SWAP1 DUP10 SWAP1 PUSH1 0x4 ADD PUSH2 0x56C0 JUMP JUMPDEST PUSH1 0x20 PUSH1 0x40 MLOAD DUP1 DUP4 SUB DUP2 PUSH1 0x0 DUP8 GAS CALL ISZERO DUP1 ISZERO PUSH2 0x1F6D JUMPI RETURNDATASIZE PUSH1 0x0 DUP1 RETURNDATACOPY RETURNDATASIZE PUSH1 0x0 REVERT JUMPDEST POP POP POP POP PUSH1 0x40 MLOAD RETURNDATASIZE PUSH1 0x1F NOT PUSH1 0x1F DUP3 ADD AND DUP3 ADD DUP1 PUSH1 0x40 MSTORE POP DUP2 ADD SWAP1 PUSH2 0x1F91 SWAP2 SWAP1 PUSH2 0x56D9 JUMP JUMPDEST POP PUSH1 0xC SLOAD PUSH1 0x40 MLOAD PUSH4 0x214CABE5 PUSH1 0xE1 SHL DUP2 MSTORE PUSH1 0x1 PUSH1 0x1 PUSH1 0xA0 SHL SUB SWAP1 SWAP2 AND SWAP1 PUSH4 0x429957CA SWAP1 PUSH2 0x1FC5 SWAP1 DUP9 SWAP1 PUSH1 0x0 SWAP1 PUSH1 0x4 ADD PUSH2 0x56F6 JUMP JUMPDEST PUSH1 0x0 PUSH1 0x40 MLOAD DUP1 DUP4 SUB DUP2 PUSH1 0x0 DUP8 DUP1 EXTCODESIZE ISZERO DUP1 ISZERO PUSH2 0x1FDF JUMPI PUSH1 0x0 DUP1 REVERT JUMPDEST POP GAS CALL ISZERO DUP1 ISZERO PUSH2 0x1FF3 JUMPI RETURNDATASIZE PUSH1 0x0 DUP1 RETURNDATACOPY RETURNDATASIZE PUSH1 0x0 REVERT JUMPDEST POP POP PUSH1 0x9 SLOAD PUSH1 0xC SLOAD PUSH1 0x40 MLOAD PUSH4 0x95EA7B3 PUSH1 0xE0 SHL DUP2 MSTORE PUSH1 0x1 PUSH1 0x1 PUSH1 0xA0 SHL SUB SWAP3 DUP4 AND SWAP5 POP PUSH4 0x95EA7B3 SWAP4 POP PUSH2 0x202E SWAP3 SWAP1 SWAP2 AND SWAP1 DUP6 SWAP1 PUSH1 0x4 ADD PUSH2 0x56C0 JUMP JUMPDEST PUSH1 0x20 PUSH1 0x40 MLOAD DUP1 DUP4 SUB DUP2 PUSH1 0x0 DUP8 GAS CALL ISZERO DUP1 ISZERO PUSH2 0x204D JUMPI RETURNDATASIZE PUSH1 0x0 DUP1 RETURNDATACOPY RETURNDATASIZE PUSH1 0x0 REVERT JUMPDEST POP POP POP POP PUSH1 0x40 MLOAD RETURNDATASIZE PUSH1 0x1F NOT PUSH1 0x1F DUP3 ADD AND DUP3 ADD DUP1 PUSH1 0x40 MSTORE POP DUP2 ADD SWAP1 PUSH2 0x2071 SWAP2 SWAP1 PUSH2 0x56D9 JUMP JUMPDEST POP PUSH1 0xC SLOAD PUSH1 0x40 MLOAD PUSH4 0x214CABE5 PUSH1 0xE1 SHL DUP2 MSTORE PUSH1 0x1 PUSH1 0x1 PUSH1 0xA0 SHL SUB SWAP1 SWAP2 AND SWAP1 PUSH4 0x429957CA SWAP1 PUSH2 0x20A5 SWAP1 DUP5 SWAP1 PUSH1 0x1 SWAP1 PUSH1 0x4 ADD PUSH2 0x56F6 JUMP JUMPDEST PUSH1 0x0 PUSH1 0x40 MLOAD DUP1 DUP4 SUB DUP2 PUSH1 0x0 DUP8 DUP1 EXTCODESIZE ISZERO DUP1 ISZERO PUSH2 0x20BF JUMPI PUSH1 0x0 DUP1 REVERT JUMPDEST POP GAS CALL ISZERO DUP1 ISZERO PUSH2 0x20D3 JUMPI RETURNDATASIZE PUSH1 0x0 DUP1 RETURNDATACOPY RETURNDATASIZE PUSH1 0x0 REVERT JUMPDEST POP POP POP POP JUMPDEST POP POP POP POP SWAP4 SWAP3 POP POP POP JUMP JUMPDEST PUSH1 0x0 DUP2 DUP2 SUB PUSH2 0x20F4 JUMPI POP PUSH1 0x0 SWAP2 SWAP1 POP JUMP JUMPDEST PUSH1 0x3 SLOAD PUSH4 0xFFFFFFFF AND DUP1 JUMPDEST PUSH4 0xFFFFFFFF DUP2 AND PUSH1 0x0 SWAP1 DUP2 MSTORE PUSH1 0x1 PUSH1 0x20 MSTORE PUSH1 0x40 SWAP1 KECCAK256 SLOAD DUP5 SUB PUSH2 0x2125 JUMPI POP PUSH1 0x1 SWAP4 SWAP3 POP POP POP JUMP JUMPDEST DUP1 PUSH4 0xFFFFFFFF AND PUSH1 0x0 SUB PUSH2 0x2137 JUMPI POP PUSH1 0x64 JUMPDEST DUP1 PUSH2 0x2141 DUP2 PUSH2 0x572A JUMP JUMPDEST SWAP2 POP POP DUP2 PUSH4 0xFFFFFFFF AND DUP2 PUSH4 0xFFFFFFFF AND SUB PUSH2 0x20FF JUMPI POP PUSH1 0x0 SWAP4 SWAP3 POP POP POP JUMP JUMPDEST PUSH1 0x0 DUP1 PUSH2 0x2176 DUP4 PUSH8 0xDE0B6B3A7640000 PUSH2 0x55E7 JUMP JUMPDEST SWAP1 POP PUSH2 0x2182 DUP5 DUP3 PUSH2 0x3C1F JUMP JUMPDEST SWAP1 POP PUSH1 0x0 PUSH2 0x2194 DUP8 PUSH2 0x1289 DUP5 DUP3 PUSH2 0x55D4 JUMP JUMPDEST SWAP1 POP PUSH1 0x0 PUSH2 0x21AA DUP3 PUSH8 0xDE0B6B3A7640000 PUSH2 0x55E7 JUMP JUMPDEST SWAP1 POP PUSH2 0x21B6 DUP8 DUP3 PUSH2 0x3C1F JUMP JUMPDEST SWAP9 SWAP8 POP POP POP POP POP POP POP POP JUMP JUMPDEST PUSH1 0xE SLOAD PUSH1 0xFF AND ISZERO PUSH2 0x21D2 JUMPI PUSH1 0x0 DUP1 REVERT JUMPDEST PUSH1 0x0 PUSH2 0x21E3 PUSH1 0x12 SLOAD PUSH1 0x6 SLOAD DUP6 PUSH2 0x389F JUMP JUMPDEST SWAP1 POP DUP3 PUSH1 0x15 PUSH1 0x0 DUP3 DUP3 SLOAD PUSH2 0x21F7 SWAP2 SWAP1 PUSH2 0x55D4 JUMP JUMPDEST SWAP1 SWAP2 SSTORE POP POP PUSH1 0x15 SLOAD PUSH2 0x220C SWAP1 PUSH2 0x3E8 SWAP1 PUSH2 0x56AC JUMP JUMPDEST PUSH1 0x17 SSTORE DUP2 DUP2 LT ISZERO PUSH2 0x221C JUMPI PUSH1 0x0 DUP1 REVERT JUMPDEST PUSH2 0x2226 CALLER DUP3 PUSH2 0x3D37 JUMP JUMPDEST PUSH1 0x9 SLOAD PUSH1 0x40 MLOAD PUSH4 0x23B872DD PUSH1 0xE0 SHL DUP2 MSTORE PUSH1 0x1 PUSH1 0x1 PUSH1 0xA0 SHL SUB SWAP1 SWAP2 AND SWAP1 PUSH4 0x23B872DD SWAP1 PUSH2 0x225A SWAP1 CALLER SWAP1 ADDRESS SWAP1 DUP9 SWAP1 PUSH1 0x4 ADD PUSH2 0x5706 JUMP JUMPDEST PUSH1 0x20 PUSH1 0x40 MLOAD DUP1 DUP4 SUB DUP2 PUSH1 0x0 DUP8 GAS CALL ISZERO DUP1 ISZERO PUSH2 0x2279 JUMPI RETURNDATASIZE PUSH1 0x0 DUP1 RETURNDATACOPY RETURNDATASIZE PUSH1 0x0 REVERT JUMPDEST POP POP POP POP PUSH1 0x40 MLOAD RETURNDATASIZE PUSH1 0x1F NOT PUSH1 0x1F DUP3 ADD AND DUP3 ADD DUP1 PUSH1 0x40 MSTORE POP DUP2 ADD SWAP1 PUSH2 0x229D SWAP2 SWAP1 PUSH2 0x56D9 JUMP JUMPDEST POP PUSH2 0x22AB TIMESTAMP PUSH3 0x15180 PUSH2 0x55D4 JUMP JUMPDEST CALLER PUSH1 0x0 DUP2 DUP2 MSTORE PUSH1 0x18 PUSH1 0x20 MSTORE PUSH1 0x40 SWAP1 DUP2 SWAP1 KECCAK256 SWAP3 SWAP1 SWAP3 SSTORE SWAP1 MLOAD PUSH1 0x0 DUP1 MLOAD PUSH1 0x20 PUSH2 0x5E40 DUP4 CODECOPY DUP2 MLOAD SWAP2 MSTORE SWAP2 PUSH2 0x22DD SWAP2 DUP5 SWAP1 PUSH2 0x56C0 JUMP JUMPDEST PUSH1 0x40 MLOAD DUP1 SWAP2 SUB SWAP1 LOG1 POP POP POP JUMP JUMPDEST PUSH1 0x0 DUP1 PUSH2 0x22F7 DUP5 DUP7 PUSH2 0x55E7 JUMP JUMPDEST SWAP1 POP PUSH1 0x0 PUSH2 0x2305 DUP7 DUP4 PUSH2 0x3B43 JUMP JUMPDEST SWAP1 POP PUSH1 0x0 PUSH2 0x231B PUSH8 0xDE0B6B3A7640000 DUP4 PUSH2 0x55E7 JUMP JUMPDEST SWAP1 POP PUSH2 0x232F DUP6 PUSH8 0xDE0B6B3A7640000 PUSH2 0x55E7 JUMP JUMPDEST SWAP4 POP PUSH2 0x21B6 PUSH2 0x233E DUP10 DUP4 PUSH2 0x3C1F JUMP JUMPDEST DUP6 PUSH2 0x3B43 JUMP JUMPDEST PUSH1 0xE SLOAD PUSH1 0xFF AND ISZERO PUSH2 0x2354 JUMPI PUSH1 0x0 DUP1 REVERT JUMPDEST DUP1 ISZERO PUSH2 0x243B JUMPI PUSH1 0x9 SLOAD PUSH1 0x1 PUSH1 0x1 PUSH1 0xA0 SHL SUB AND PUSH4 0x23B872DD CALLER ADDRESS DUP6 PUSH2 0x2378 DUP9 DUP11 PUSH2 0x55D4 JUMP JUMPDEST PUSH2 0x2382 SWAP2 SWAP1 PUSH2 0x55D4 JUMP JUMPDEST PUSH1 0x40 MLOAD DUP5 PUSH4 0xFFFFFFFF AND PUSH1 0xE0 SHL DUP2 MSTORE PUSH1 0x4 ADD PUSH2 0x23A0 SWAP4 SWAP3 SWAP2 SWAP1 PUSH2 0x5706 JUMP JUMPDEST PUSH1 0x20 PUSH1 0x40 MLOAD DUP1 DUP4 SUB DUP2 PUSH1 0x0 DUP8 GAS CALL ISZERO DUP1 ISZERO PUSH2 0x23BF JUMPI RETURNDATASIZE PUSH1 0x0 DUP1 RETURNDATACOPY RETURNDATASIZE PUSH1 0x0 REVERT JUMPDEST POP POP POP POP PUSH1 0x40 MLOAD RETURNDATASIZE PUSH1 0x1F NOT PUSH1 0x1F DUP3 ADD AND DUP3 ADD DUP1 PUSH1 0x40 MSTORE POP DUP2 ADD SWAP1 PUSH2 0x23E3 SWAP2 SWAP1 PUSH2 0x56D9 JUMP JUMPDEST PUSH2 0x23EC JUMPI PUSH1 0x0 DUP1 REVERT JUMPDEST DUP3 PUSH1 0x12 PUSH1 0x0 DUP3 DUP3 SLOAD PUSH2 0x23FE SWAP2 SWAP1 PUSH2 0x55D4 JUMP JUMPDEST SWAP3 POP POP DUP2 SWAP1 SSTORE POP DUP2 PUSH1 0x10 PUSH1 0x0 DUP3 DUP3 SLOAD PUSH2 0x2417 SWAP2 SWAP1 PUSH2 0x55D4 JUMP JUMPDEST SWAP3 POP POP DUP2 SWAP1 SSTORE POP DUP4 PUSH1 0x14 PUSH1 0x0 DUP3 DUP3 SLOAD PUSH2 0x2430 SWAP2 SWAP1 PUSH2 0x55D4 JUMP JUMPDEST SWAP1 SWAP2 SSTORE POP PUSH2 0x2535 SWAP1 POP JUMP JUMPDEST PUSH1 0x1 PUSH1 0x1 PUSH1 0xA0 SHL SUB PUSH32 0x0 AND PUSH4 0x23B872DD CALLER ADDRESS DUP6 PUSH2 0x2477 DUP9 DUP11 PUSH2 0x55D4 JUMP JUMPDEST PUSH2 0x2481 SWAP2 SWAP1 PUSH2 0x55D4 JUMP JUMPDEST PUSH1 0x40 MLOAD DUP5 PUSH4 0xFFFFFFFF AND PUSH1 0xE0 SHL DUP2 MSTORE PUSH1 0x4 ADD PUSH2 0x249F SWAP4 SWAP3 SWAP2 SWAP1 PUSH2 0x5706 JUMP JUMPDEST PUSH1 0x20 PUSH1 0x40 MLOAD DUP1 DUP4 SUB DUP2 PUSH1 0x0 DUP8 GAS CALL ISZERO DUP1 ISZERO PUSH2 0x24BE JUMPI RETURNDATASIZE PUSH1 0x0 DUP1 RETURNDATACOPY RETURNDATASIZE PUSH1 0x0 REVERT JUMPDEST POP POP POP POP PUSH1 0x40 MLOAD RETURNDATASIZE PUSH1 0x1F NOT PUSH1 0x1F DUP3 ADD AND DUP3 ADD DUP1 PUSH1 0x40 MSTORE POP DUP2 ADD SWAP1 PUSH2 0x24E2 SWAP2 SWAP1 PUSH2 0x56D9 JUMP JUMPDEST PUSH2 0x24EB JUMPI PUSH1 0x0 DUP1 REVERT JUMPDEST DUP3 PUSH1 0x11 PUSH1 0x0 DUP3 DUP3 SLOAD PUSH2 0x24FD SWAP2 SWAP1 PUSH2 0x55D4 JUMP JUMPDEST SWAP3 POP POP DUP2 SWAP1 SSTORE POP DUP2 PUSH1 0xF PUSH1 0x0 DUP3 DUP3 SLOAD PUSH2 0x2516 SWAP2 SWAP1 PUSH2 0x55D4 JUMP JUMPDEST SWAP3 POP POP DUP2 SWAP1 SSTORE POP DUP4 PUSH1 0x13 PUSH1 0x0 DUP3 DUP3 SLOAD PUSH2 0x252F SWAP2 SWAP1 PUSH2 0x55D4 JUMP JUMPDEST SWAP1 SWAP2 SSTORE POP POP JUMPDEST PUSH2 0x253D PUSH2 0xBED JUMP JUMPDEST PUSH32 0x46296264CD106B25AAA6BD852F4CF76BBD7D70550BBE6352BC3A47E35C6F1B2F DUP3 PUSH2 0x2569 DUP6 DUP8 PUSH2 0x55D4 JUMP JUMPDEST PUSH2 0x2573 SWAP2 SWAP1 PUSH2 0x55D4 JUMP JUMPDEST DUP3 PUSH1 0x40 MLOAD PUSH2 0x2582 SWAP3 SWAP2 SWAP1 PUSH2 0x56F6 JUMP JUMPDEST PUSH1 0x40 MLOAD DUP1 SWAP2 SUB SWAP1 LOG1 POP POP POP POP JUMP JUMPDEST PUSH1 0xC SLOAD PUSH1 0x1 PUSH1 0x1 PUSH1 0xA0 SHL SUB AND CALLER EQ PUSH2 0x25A7 JUMPI PUSH1 0x0 DUP1 REVERT JUMPDEST PUSH1 0x9 SLOAD PUSH1 0x1 PUSH1 0x1 PUSH1 0xA0 SHL SUB AND ISZERO PUSH2 0x25BD JUMPI PUSH1 0x0 DUP1 REVERT JUMPDEST PUSH1 0x11 DUP5 SWAP1 SSTORE PUSH1 0x12 DUP4 SWAP1 SSTORE PUSH1 0x9 DUP1 SLOAD PUSH1 0x1 PUSH1 0x1 PUSH1 0xA0 SHL SUB NOT AND PUSH1 0x1 PUSH1 0x1 PUSH1 0xA0 SHL SUB DUP5 DUP2 AND SWAP2 SWAP1 SWAP2 OR SWAP1 SWAP2 SSTORE PUSH1 0x40 MLOAD PUSH4 0x23B872DD PUSH1 0xE0 SHL DUP2 MSTORE PUSH32 0x0 SWAP1 SWAP2 AND SWAP1 PUSH4 0x23B872DD SWAP1 PUSH2 0x2631 SWAP1 CALLER SWAP1 ADDRESS SWAP1 DUP10 SWAP1 PUSH1 0x4 ADD PUSH2 0x5706 JUMP JUMPDEST PUSH1 0x20 PUSH1 0x40 MLOAD DUP1 DUP4 SUB DUP2 PUSH1 0x0 DUP8 GAS CALL ISZERO DUP1 ISZERO PUSH2 0x2650 JUMPI RETURNDATASIZE PUSH1 0x0 DUP1 RETURNDATACOPY RETURNDATASIZE PUSH1 0x0 REVERT JUMPDEST POP POP POP POP PUSH1 0x40 MLOAD RETURNDATASIZE PUSH1 0x1F NOT PUSH1 0x1F DUP3 ADD AND DUP3 ADD DUP1 PUSH1 0x40 MSTORE POP DUP2 ADD SWAP1 PUSH2 0x2674 SWAP2 SWAP1 PUSH2 0x56D9 JUMP JUMPDEST PUSH2 0x267D JUMPI PUSH1 0x0 DUP1 REVERT JUMPDEST PUSH1 0x9 SLOAD PUSH1 0x40 MLOAD PUSH4 0xD4BEB4FD PUSH1 0xE0 SHL DUP2 MSTORE PUSH1 0x1 PUSH1 0x1 PUSH1 0xA0 SHL SUB SWAP1 SWAP2 AND SWAP1 PUSH4 0xD4BEB4FD SWAP1 PUSH2 0x26AF SWAP1 ADDRESS SWAP1 DUP8 SWAP1 PUSH1 0x4 ADD PUSH2 0x56C0 JUMP JUMPDEST PUSH1 0x0 PUSH1 0x40 MLOAD DUP1 DUP4 SUB DUP2 PUSH1 0x0 DUP8 DUP1 EXTCODESIZE ISZERO DUP1 ISZERO PUSH2 0x26C9 JUMPI PUSH1 0x0 DUP1 REVERT JUMPDEST POP GAS CALL ISZERO DUP1 ISZERO PUSH2 0x26DD JUMPI RETURNDATASIZE PUSH1 0x0 DUP1 RETURNDATACOPY RETURNDATASIZE PUSH1 0x0 REVERT JUMPDEST POP POP POP POP PUSH2 0x26F4 CALLER PUSH9 0x56BC75E2D63100000 PUSH2 0x3D37 JUMP JUMPDEST PUSH1 0x0 JUMPDEST DUP6 MLOAD DUP2 LT ISZERO PUSH2 0x27A1 JUMPI PUSH1 0xB PUSH1 0x40 MLOAD DUP1 PUSH1 0x40 ADD PUSH1 0x40 MSTORE DUP1 DUP10 DUP5 DUP2 MLOAD DUP2 LT PUSH2 0x271F JUMPI PUSH2 0x271F PUSH2 0x55FA JUMP JUMPDEST PUSH1 0x20 MUL PUSH1 0x20 ADD ADD MLOAD DUP2 MSTORE PUSH1 0x20 ADD DUP9 DUP5 DUP2 MLOAD DUP2 LT PUSH2 0x273E JUMPI PUSH2 0x273E PUSH2 0x55FA JUMP JUMPDEST PUSH1 0x20 SWAP1 DUP2 MUL SWAP2 SWAP1 SWAP2 ADD DUP2 ADD MLOAD PUSH1 0x1 PUSH1 0x1 PUSH1 0xA0 SHL SUB SWAP1 DUP2 AND SWAP1 SWAP3 MSTORE DUP4 SLOAD PUSH1 0x1 DUP1 DUP3 ADD DUP7 SSTORE PUSH1 0x0 SWAP6 DUP7 MSTORE SWAP5 DUP3 SWAP1 KECCAK256 DUP5 MLOAD PUSH1 0x2 SWAP1 SWAP3 MUL ADD SWAP1 DUP2 SSTORE SWAP3 ADD MLOAD SWAP2 SWAP1 SWAP3 ADD DUP1 SLOAD PUSH1 0x1 PUSH1 0x1 PUSH1 0xA0 SHL SUB NOT AND SWAP2 SWAP1 SWAP3 AND OR SWAP1 SSTORE DUP1 PUSH2 0x2799 DUP2 PUSH2 0x574A JUMP JUMPDEST SWAP2 POP POP PUSH2 0x26F7 JUMP JUMPDEST POP PUSH1 0xC DUP1 SLOAD PUSH1 0x1 PUSH1 0x1 PUSH1 0xA0 SHL SUB NOT AND PUSH1 0x1 PUSH1 0x1 PUSH1 0xA0 SHL SUB SWAP3 SWAP1 SWAP3 AND SWAP2 SWAP1 SWAP2 OR SWAP1 SSTORE POP POP POP POP POP JUMP JUMPDEST PUSH1 0x60 PUSH1 0x5 DUP1 SLOAD PUSH2 0xB0F SWAP1 PUSH2 0x5584 JUMP JUMPDEST PUSH2 0x27EB PUSH1 0x3 PUSH8 0xDE0B6B3A7640000 PUSH2 0x56AC JUMP JUMPDEST PUSH2 0x27F6 SWAP1 PUSH1 0x1 PUSH2 0x55D4 JUMP JUMPDEST DUP2 JUMP JUMPDEST PUSH1 0xE SLOAD PUSH1 0xFF AND ISZERO PUSH2 0x2809 JUMPI PUSH1 0x0 DUP1 REVERT JUMPDEST PUSH1 0xE DUP1 SLOAD PUSH1 0xFF NOT AND PUSH1 0x1 OR SWAP1 SSTORE PUSH1 0x40 DUP2 ADD MLOAD PUSH1 0x20 DUP3 ADD MLOAD PUSH1 0x0 SWAP2 PUSH2 0x282C SWAP2 PUSH2 0x5763 JUMP JUMPDEST SWAP1 POP PUSH1 0x0 DUP2 SLT ISZERO PUSH2 0x285B JUMPI PUSH2 0x2840 DUP2 PUSH2 0x578A JUMP JUMPDEST PUSH2 0x2858 SWAP1 PUSH1 0x0 DUP1 MLOAD PUSH1 0x20 PUSH2 0x5E80 DUP4 CODECOPY DUP2 MLOAD SWAP2 MSTORE PUSH2 0x55E7 JUMP JUMPDEST SWAP1 POP JUMPDEST DUP1 DUP4 PUSH1 0x60 ADD MLOAD EQ PUSH2 0x286B JUMPI PUSH1 0x0 DUP1 REVERT JUMPDEST PUSH2 0x2878 DUP4 PUSH1 0x20 ADD MLOAD PUSH2 0x20E3 JUMP JUMPDEST PUSH2 0x28B3 JUMPI PUSH1 0x40 MLOAD PUSH3 0x461BCD PUSH1 0xE5 SHL DUP2 MSTORE PUSH1 0x20 PUSH1 0x4 DUP3 ADD MSTORE PUSH1 0xC PUSH1 0x24 DUP3 ADD MSTORE PUSH12 0x1A5B9D985B1A59081C9BDBDD PUSH1 0xA2 SHL PUSH1 0x44 DUP3 ADD MSTORE PUSH1 0x64 ADD PUSH2 0x107E JUMP JUMPDEST PUSH2 0x28BC DUP4 PUSH2 0x3DB1 JUMP JUMPDEST PUSH2 0x28F8 JUMPI PUSH1 0x40 MLOAD PUSH3 0x461BCD PUSH1 0xE5 SHL DUP2 MSTORE PUSH1 0x20 PUSH1 0x4 DUP3 ADD MSTORE PUSH1 0xD PUSH1 0x24 DUP3 ADD MSTORE PUSH13 0x34B73B30B634B210383937B7B3 PUSH1 0x99 SHL PUSH1 0x44 DUP3 ADD MSTORE PUSH1 0x64 ADD PUSH2 0x107E JUMP JUMPDEST PUSH1 0x0 DUP1 MLOAD PUSH1 0x20 PUSH2 0x5E80 DUP4 CODECOPY DUP2 MLOAD SWAP2 MSTORE DUP3 PUSH1 0x40 MLOAD PUSH1 0x20 ADD PUSH2 0x2918 SWAP2 SWAP1 PUSH2 0x57A6 JUMP JUMPDEST PUSH1 0x40 MLOAD PUSH1 0x20 DUP2 DUP4 SUB SUB DUP2 MSTORE SWAP1 PUSH1 0x40 MSTORE DUP1 MLOAD SWAP1 PUSH1 0x20 ADD KECCAK256 PUSH1 0x0 SHR PUSH2 0x293B SWAP2 SWAP1 PUSH2 0x57B9 JUMP JUMPDEST DUP4 PUSH1 0x40 ADD MLOAD EQ PUSH2 0x2981 JUMPI PUSH1 0x40 MLOAD PUSH3 0x461BCD PUSH1 0xE5 SHL DUP2 MSTORE PUSH1 0x20 PUSH1 0x4 DUP3 ADD MSTORE PUSH1 0x11 PUSH1 0x24 DUP3 ADD MSTORE PUSH17 0xD2DCC6DEE4E4CAC6E840CAC840D0C2E6D PUSH1 0x7B SHL PUSH1 0x44 DUP3 ADD MSTORE PUSH1 0x64 ADD PUSH2 0x107E JUMP JUMPDEST PUSH1 0x0 DUP3 PUSH1 0x20 ADD MLOAD SLT ISZERO PUSH2 0x2A04 JUMPI PUSH1 0x9 SLOAD DUP3 MLOAD PUSH1 0x20 DUP5 ADD MLOAD PUSH1 0x1 PUSH1 0x1 PUSH1 0xA0 SHL SUB SWAP1 SWAP3 AND SWAP2 PUSH4 0xD4BEB4FD SWAP2 SWAP1 PUSH2 0x29B4 SWAP1 PUSH2 0x578A JUMP JUMPDEST PUSH1 0x40 MLOAD DUP4 PUSH4 0xFFFFFFFF AND PUSH1 0xE0 SHL DUP2 MSTORE PUSH1 0x4 ADD PUSH2 0x29D1 SWAP3 SWAP2 SWAP1 PUSH2 0x56C0 JUMP JUMPDEST PUSH1 0x0 PUSH1 0x40 MLOAD DUP1 DUP4 SUB DUP2 PUSH1 0x0 DUP8 DUP1 EXTCODESIZE ISZERO DUP1 ISZERO PUSH2 0x29EB JUMPI PUSH1 0x0 DUP1 REVERT JUMPDEST POP GAS CALL ISZERO DUP1 ISZERO PUSH2 0x29FF JUMPI RETURNDATASIZE PUSH1 0x0 DUP1 RETURNDATACOPY RETURNDATASIZE PUSH1 0x0 REVERT JUMPDEST POP POP POP POP JUMPDEST PUSH2 0x2A10 DUP4 DUP4 PUSH1 0x0 PUSH2 0x4314 JUMP JUMPDEST PUSH1 0x40 DUP3 ADD MLOAD PUSH1 0x0 SWAP1 ISZERO PUSH2 0x2B29 JUMPI PUSH1 0x9 SLOAD PUSH1 0x40 DUP1 DUP6 ADD MLOAD SWAP1 MLOAD PUSH4 0xD4BEB4FD PUSH1 0xE0 SHL DUP2 MSTORE PUSH1 0x1 PUSH1 0x1 PUSH1 0xA0 SHL SUB SWAP1 SWAP3 AND SWAP2 PUSH4 0xD4BEB4FD SWAP2 PUSH2 0x2A53 SWAP2 CALLER SWAP2 SWAP1 PUSH1 0x4 ADD PUSH2 0x56C0 JUMP JUMPDEST PUSH1 0x0 PUSH1 0x40 MLOAD DUP1 DUP4 SUB DUP2 PUSH1 0x0 DUP8 DUP1 EXTCODESIZE ISZERO DUP1 ISZERO PUSH2 0x2A6D JUMPI PUSH1 0x0 DUP1 REVERT JUMPDEST POP GAS CALL ISZERO DUP1 ISZERO PUSH2 0x2A81 JUMPI RETURNDATASIZE PUSH1 0x0 DUP1 RETURNDATACOPY RETURNDATASIZE PUSH1 0x0 REVERT JUMPDEST POP POP POP POP PUSH1 0x60 DUP4 ADD MLOAD ISZERO PUSH2 0x2B29 JUMPI PUSH2 0x2AA4 PUSH1 0x12 SLOAD PUSH1 0x11 SLOAD DUP6 PUSH1 0x60 ADD MLOAD PUSH1 0x0 PUSH2 0x2161 JUMP JUMPDEST SWAP1 POP DUP3 PUSH1 0x60 ADD MLOAD DUP4 PUSH1 0x40 ADD MLOAD GT PUSH2 0x2AEE JUMPI PUSH1 0x40 MLOAD PUSH3 0x461BCD PUSH1 0xE5 SHL DUP2 MSTORE PUSH1 0x20 PUSH1 0x4 DUP3 ADD MSTORE PUSH1 0xE PUSH1 0x24 DUP3 ADD MSTORE PUSH14 0x72656261746520746F6F20626967 PUSH1 0x90 SHL PUSH1 0x44 DUP3 ADD MSTORE PUSH1 0x64 ADD PUSH2 0x107E JUMP JUMPDEST DUP3 MLOAD PUSH1 0x40 MLOAD PUSH1 0x1 PUSH1 0x1 PUSH1 0xA0 SHL SUB SWAP1 SWAP2 AND SWAP1 DUP3 ISZERO PUSH2 0x8FC MUL SWAP1 DUP4 SWAP1 PUSH1 0x0 DUP2 DUP2 DUP2 DUP6 DUP9 DUP9 CALL SWAP4 POP POP POP POP ISZERO DUP1 ISZERO PUSH2 0x2B27 JUMPI RETURNDATASIZE PUSH1 0x0 DUP1 RETURNDATACOPY RETURNDATASIZE PUSH1 0x0 REVERT JUMPDEST POP JUMPDEST DUP1 CALLVALUE EQ PUSH2 0x2B6E JUMPI PUSH1 0x40 MLOAD PUSH3 0x461BCD PUSH1 0xE5 SHL DUP2 MSTORE PUSH1 0x20 PUSH1 0x4 DUP3 ADD MSTORE PUSH1 0x13 PUSH1 0x24 DUP3 ADD MSTORE PUSH19 0x6D73672076616C756520213D20726562617465 PUSH1 0x68 SHL PUSH1 0x44 DUP3 ADD MSTORE PUSH1 0x64 ADD PUSH2 0x107E JUMP JUMPDEST POP POP PUSH1 0xE DUP1 SLOAD PUSH1 0xFF NOT AND SWAP1 SSTORE POP POP JUMP JUMPDEST PUSH1 0x0 PUSH2 0x2B8B CALLER DUP5 DUP5 PUSH2 0x3A7C JUMP JUMPDEST POP PUSH1 0x1 SWAP3 SWAP2 POP POP JUMP JUMPDEST PUSH1 0x0 DUP1 DUP5 PUSH1 0x20 ADD MLOAD SGT PUSH2 0x2BA6 JUMPI PUSH1 0x0 DUP1 REVERT JUMPDEST PUSH1 0xE SLOAD PUSH1 0xFF AND ISZERO PUSH2 0x2BB6 JUMPI PUSH1 0x0 DUP1 REVERT JUMPDEST PUSH1 0x40 DUP1 MLOAD DUP1 DUP3 ADD DUP3 MSTORE DUP6 DUP2 MSTORE PUSH1 0x20 DUP1 DUP3 ADD DUP9 SWAP1 MSTORE PUSH1 0xA DUP1 SLOAD PUSH1 0x1 DUP2 ADD DUP3 SSTORE PUSH1 0x0 SWAP2 SWAP1 SWAP2 MSTORE DUP3 MLOAD DUP1 MLOAD PUSH32 0xC65A7BB8D6351C1CF70C95A316CC6A92839C986682D98BC35F958F4883F9D2A8 PUSH1 0xD SWAP1 SWAP4 MUL SWAP3 DUP4 ADD DUP1 SLOAD PUSH1 0x1 PUSH1 0x1 PUSH1 0xA0 SHL SUB NOT AND PUSH1 0x1 PUSH1 0x1 PUSH1 0xA0 SHL SUB SWAP1 SWAP3 AND SWAP2 SWAP1 SWAP2 OR DUP2 SSTORE SWAP3 DUP2 ADD MLOAD PUSH32 0xC65A7BB8D6351C1CF70C95A316CC6A92839C986682D98BC35F958F4883F9D2A9 DUP4 ADD SSTORE SWAP4 DUP5 ADD MLOAD PUSH32 0xC65A7BB8D6351C1CF70C95A316CC6A92839C986682D98BC35F958F4883F9D2AA DUP3 ADD SSTORE PUSH1 0x60 DUP5 ADD MLOAD PUSH32 0xC65A7BB8D6351C1CF70C95A316CC6A92839C986682D98BC35F958F4883F9D2AB DUP3 ADD SSTORE PUSH1 0x80 DUP5 ADD MLOAD SWAP3 SWAP4 SWAP2 SWAP3 DUP4 SWAP2 PUSH32 0xC65A7BB8D6351C1CF70C95A316CC6A92839C986682D98BC35F958F4883F9D2AC ADD SWAP1 PUSH2 0x2CD5 SWAP1 DUP3 PUSH2 0x581C JUMP JUMPDEST POP PUSH1 0xA0 DUP3 ADD MLOAD PUSH1 0x5 DUP3 ADD SWAP1 PUSH2 0x2CEA SWAP1 DUP3 PUSH2 0x581C JUMP JUMPDEST POP POP POP PUSH1 0x20 DUP3 ADD MLOAD DUP1 MLOAD PUSH1 0x6 DUP4 ADD SWAP1 DUP2 SWAP1 PUSH2 0x2D05 SWAP1 DUP3 PUSH2 0x581C JUMP JUMPDEST POP PUSH1 0x20 DUP3 DUP2 ADD MLOAD PUSH1 0x1 DUP4 ADD SSTORE PUSH1 0x40 DUP4 ADD MLOAD PUSH1 0x2 DUP4 ADD SSTORE PUSH1 0x60 DUP4 ADD MLOAD PUSH1 0x3 DUP4 ADD SSTORE PUSH1 0x80 DUP4 ADD MLOAD DUP1 MLOAD PUSH2 0x2D3C SWAP3 PUSH1 0x4 DUP6 ADD SWAP3 ADD SWAP1 PUSH2 0x4A28 JUMP JUMPDEST POP PUSH1 0xA0 DUP3 ADD MLOAD PUSH2 0x2D52 SWAP1 PUSH1 0x5 DUP4 ADD SWAP1 PUSH1 0x2 PUSH2 0x4A6F JUMP JUMPDEST POP POP PUSH1 0xA SLOAD DUP9 MLOAD PUSH1 0x60 DUP11 ADD MLOAD PUSH1 0x20 DUP1 DUP13 ADD MLOAD PUSH1 0x40 MLOAD SWAP5 SWAP9 POP PUSH1 0x0 SWAP8 POP PUSH2 0x2D7E SWAP7 POP SWAP3 SWAP5 POP SWAP1 SWAP3 ADD PUSH2 0x58DB JUMP JUMPDEST PUSH1 0x40 MLOAD PUSH1 0x20 DUP2 DUP4 SUB SUB DUP2 MSTORE SWAP1 PUSH1 0x40 MSTORE DUP1 MLOAD SWAP1 PUSH1 0x20 ADD KECCAK256 SWAP1 POP DUP2 PUSH1 0x1A PUSH1 0x0 DUP4 DUP2 MSTORE PUSH1 0x20 ADD SWAP1 DUP2 MSTORE PUSH1 0x20 ADD PUSH1 0x0 KECCAK256 DUP2 SWAP1 SSTORE POP PUSH1 0x0 PUSH2 0x2DC5 PUSH1 0x11 SLOAD PUSH1 0x12 SLOAD DUP9 PUSH1 0x20 ADD MLOAD PUSH1 0x0 PUSH2 0x22EA JUMP JUMPDEST SWAP1 POP DUP5 ISZERO PUSH2 0x2E3A JUMPI PUSH1 0x9 SLOAD PUSH1 0x20 DUP8 ADD MLOAD PUSH1 0x40 MLOAD PUSH4 0xA6C1A4F PUSH1 0xE1 SHL DUP2 MSTORE PUSH1 0x1 PUSH1 0x1 PUSH1 0xA0 SHL SUB SWAP1 SWAP3 AND SWAP2 PUSH4 0x14D8349E SWAP2 PUSH2 0x2E03 SWAP2 CALLER SWAP2 SWAP1 PUSH1 0x4 ADD PUSH2 0x56C0 JUMP JUMPDEST PUSH1 0x0 PUSH1 0x40 MLOAD DUP1 DUP4 SUB DUP2 PUSH1 0x0 DUP8 DUP1 EXTCODESIZE ISZERO DUP1 ISZERO PUSH2 0x2E1D JUMPI PUSH1 0x0 DUP1 REVERT JUMPDEST POP GAS CALL ISZERO DUP1 ISZERO PUSH2 0x2E31 JUMPI RETURNDATASIZE PUSH1 0x0 DUP1 RETURNDATACOPY RETURNDATASIZE PUSH1 0x0 REVERT JUMPDEST POP POP POP POP PUSH2 0x2EFB JUMP JUMPDEST DUP4 DUP2 GT ISZERO PUSH2 0x2E47 JUMPI PUSH1 0x0 DUP1 REVERT JUMPDEST PUSH1 0x40 MLOAD PUSH4 0x23B872DD PUSH1 0xE0 SHL DUP2 MSTORE PUSH1 0x1 PUSH1 0x1 PUSH1 0xA0 SHL SUB PUSH32 0x0 AND SWAP1 PUSH4 0x23B872DD SWAP1 PUSH2 0x2E97 SWAP1 CALLER SWAP1 ADDRESS SWAP1 DUP7 SWAP1 PUSH1 0x4 ADD PUSH2 0x5706 JUMP JUMPDEST PUSH1 0x20 PUSH1 0x40 MLOAD DUP1 DUP4 SUB DUP2 PUSH1 0x0 DUP8 GAS CALL ISZERO DUP1 ISZERO PUSH2 0x2EB6 JUMPI RETURNDATASIZE PUSH1 0x0 DUP1 RETURNDATACOPY RETURNDATASIZE PUSH1 0x0 REVERT JUMPDEST POP POP POP POP PUSH1 0x40 MLOAD RETURNDATASIZE PUSH1 0x1F NOT PUSH1 0x1F DUP3 ADD AND DUP3 ADD DUP1 PUSH1 0x40 MSTORE POP DUP2 ADD SWAP1 PUSH2 0x2EDA SWAP2 SWAP1 PUSH2 0x56D9 JUMP JUMPDEST PUSH2 0x2EE3 JUMPI PUSH1 0x0 DUP1 REVERT JUMPDEST DUP1 PUSH1 0x11 PUSH1 0x0 DUP3 DUP3 SLOAD PUSH2 0x2EF5 SWAP2 SWAP1 PUSH2 0x55D4 JUMP JUMPDEST SWAP1 SWAP2 SSTORE POP POP JUMPDEST PUSH1 0x0 PUSH2 0x3E8 PUSH1 0x13 SLOAD PUSH2 0x2F0D SWAP2 SWAP1 PUSH2 0x56AC JUMP JUMPDEST SWAP1 POP DUP2 DUP2 GT ISZERO DUP1 ISZERO PUSH2 0x2F1F JUMPI POP PUSH1 0x0 DUP2 GT JUMPDEST ISZERO PUSH2 0x2FD6 JUMPI PUSH1 0x40 MLOAD PUSH4 0xA9059CBB PUSH1 0xE0 SHL DUP2 MSTORE PUSH1 0x1 PUSH1 0x1 PUSH1 0xA0 SHL SUB PUSH32 0x0 AND SWAP1 PUSH4 0xA9059CBB SWAP1 PUSH2 0x2F72 SWAP1 CALLER SWAP1 DUP6 SWAP1 PUSH1 0x4 ADD PUSH2 0x56C0 JUMP JUMPDEST PUSH1 0x20 PUSH1 0x40 MLOAD DUP1 DUP4 SUB DUP2 PUSH1 0x0 DUP8 GAS CALL ISZERO DUP1 ISZERO PUSH2 0x2F91 JUMPI RETURNDATASIZE PUSH1 0x0 DUP1 RETURNDATACOPY RETURNDATASIZE PUSH1 0x0 REVERT JUMPDEST POP POP POP POP PUSH1 0x40 MLOAD RETURNDATASIZE PUSH1 0x1F NOT PUSH1 0x1F DUP3 ADD AND DUP3 ADD DUP1 PUSH1 0x40 MSTORE POP DUP2 ADD SWAP1 PUSH2 0x2FB5 SWAP2 SWAP1 PUSH2 0x56D9 JUMP JUMPDEST PUSH2 0x2FBE JUMPI PUSH1 0x0 DUP1 REVERT JUMPDEST DUP1 PUSH1 0x13 PUSH1 0x0 DUP3 DUP3 SLOAD PUSH2 0x2FD0 SWAP2 SWAP1 PUSH2 0x55E7 JUMP JUMPDEST SWAP1 SWAP2 SSTORE POP POP JUMPDEST PUSH2 0x3E8 PUSH1 0x14 SLOAD PUSH2 0x2FE6 SWAP2 SWAP1 PUSH2 0x56AC JUMP JUMPDEST SWAP1 POP PUSH2 0x2FF5 DUP8 PUSH1 0x20 ADD MLOAD PUSH2 0x4510 JUMP JUMPDEST DUP2 GT ISZERO DUP1 ISZERO PUSH2 0x3004 JUMPI POP PUSH1 0x0 DUP2 GT JUMPDEST ISZERO PUSH2 0x3097 JUMPI PUSH1 0x9 SLOAD PUSH1 0x40 MLOAD PUSH4 0xA9059CBB PUSH1 0xE0 SHL DUP2 MSTORE PUSH1 0x1 PUSH1 0x1 PUSH1 0xA0 SHL SUB SWAP1 SWAP2 AND SWAP1 PUSH4 0xA9059CBB SWAP1 PUSH2 0x303B SWAP1 CALLER SWAP1 DUP6 SWAP1 PUSH1 0x4 ADD PUSH2 0x56C0 JUMP JUMPDEST PUSH1 0x20 PUSH1 0x40 MLOAD DUP1 DUP4 SUB DUP2 PUSH1 0x0 DUP8 GAS CALL ISZERO DUP1 ISZERO PUSH2 0x305A JUMPI RETURNDATASIZE PUSH1 0x0 DUP1 RETURNDATACOPY RETURNDATASIZE PUSH1 0x0 REVERT JUMPDEST POP POP POP POP PUSH1 0x40 MLOAD RETURNDATASIZE PUSH1 0x1F NOT PUSH1 0x1F DUP3 ADD AND DUP3 ADD DUP1 PUSH1 0x40 MSTORE POP DUP2 ADD SWAP1 PUSH2 0x307E SWAP2 SWAP1 PUSH2 0x56D9 JUMP JUMPDEST POP DUP1 PUSH1 0x14 PUSH1 0x0 DUP3 DUP3 SLOAD PUSH2 0x3091 SWAP2 SWAP1 PUSH2 0x55E7 JUMP JUMPDEST SWAP1 SWAP2 SSTORE POP POP JUMPDEST PUSH1 0x0 JUMPDEST PUSH1 0xD SLOAD PUSH2 0x30A9 SWAP1 PUSH1 0x1 SWAP1 PUSH2 0x55E7 JUMP JUMPDEST DUP2 GT PUSH2 0x3146 JUMPI PUSH1 0xD DUP2 DUP2 SLOAD DUP2 LT PUSH2 0x30C2 JUMPI PUSH2 0x30C2 PUSH2 0x55FA JUMP JUMPDEST PUSH1 0x0 SWAP2 DUP3 MSTORE PUSH1 0x20 SWAP1 SWAP2 KECCAK256 ADD SLOAD PUSH1 0x1 PUSH1 0x1 PUSH1 0xA0 SHL SUB AND PUSH4 0x51E3AEA9 PUSH2 0x30E5 DUP8 PUSH2 0xC4F JUMP JUMPDEST PUSH1 0x40 MLOAD DUP3 PUSH4 0xFFFFFFFF AND PUSH1 0xE0 SHL DUP2 MSTORE PUSH1 0x4 ADD PUSH2 0x3101 SWAP2 SWAP1 PUSH2 0x4BA6 JUMP JUMPDEST PUSH1 0x0 PUSH1 0x40 MLOAD DUP1 DUP4 SUB DUP2 PUSH1 0x0 DUP8 DUP1 EXTCODESIZE ISZERO DUP1 ISZERO PUSH2 0x311B JUMPI PUSH1 0x0 DUP1 REVERT JUMPDEST POP GAS CALL ISZERO DUP1 ISZERO PUSH2 0x312F JUMPI RETURNDATASIZE PUSH1 0x0 DUP1 RETURNDATACOPY RETURNDATASIZE PUSH1 0x0 REVERT JUMPDEST POP POP POP POP DUP1 DUP1 PUSH2 0x313E SWAP1 PUSH2 0x574A JUMP JUMPDEST SWAP2 POP POP PUSH2 0x309A JUMP JUMPDEST POP PUSH2 0x3153 DUP9 DUP9 PUSH1 0x1 PUSH2 0x4314 JUMP JUMPDEST PUSH1 0x20 DUP1 DUP9 ADD MLOAD PUSH1 0x40 DUP1 MLOAD DUP10 ISZERO ISZERO DUP2 MSTORE CALLER SWAP4 DUP2 ADD SWAP4 SWAP1 SWAP4 MSTORE DUP3 ADD DUP7 SWAP1 MSTORE PUSH1 0x60 DUP3 ADD MSTORE PUSH32 0xA690C60DFC5E43723CA5640F57A04E22055C1E98FE144BB95DA52CE24AE4B9B SWAP1 PUSH1 0x80 ADD PUSH1 0x40 MLOAD DUP1 SWAP2 SUB SWAP1 LOG1 POP POP POP SWAP5 SWAP4 POP POP POP POP JUMP JUMPDEST PUSH1 0xE SLOAD PUSH1 0xFF AND ISZERO PUSH2 0x31BC JUMPI PUSH1 0x0 DUP1 REVERT JUMPDEST PUSH2 0x31C4 PUSH2 0x4A9C JUMP JUMPDEST PUSH2 0x31CC PUSH2 0x4AD5 JUMP JUMPDEST PUSH1 0x60 PUSH1 0x0 PUSH1 0xD DUP7 DUP2 SLOAD DUP2 LT PUSH2 0x31E3 JUMPI PUSH2 0x31E3 PUSH2 0x55FA JUMP JUMPDEST PUSH1 0x0 SWAP2 DUP3 MSTORE PUSH1 0x20 SWAP1 SWAP2 KECCAK256 ADD SLOAD PUSH1 0x40 MLOAD PUSH4 0x6B2FD905 PUSH1 0xE0 SHL DUP2 MSTORE PUSH1 0x1 PUSH1 0x1 PUSH1 0xA0 SHL SUB SWAP1 SWAP2 AND SWAP1 PUSH4 0x6B2FD905 SWAP1 PUSH2 0x321C SWAP1 DUP9 SWAP1 PUSH1 0x4 ADD PUSH2 0x4BA6 JUMP JUMPDEST PUSH1 0x0 PUSH1 0x40 MLOAD DUP1 DUP4 SUB DUP2 PUSH1 0x0 DUP8 GAS CALL ISZERO DUP1 ISZERO PUSH2 0x323B JUMPI RETURNDATASIZE PUSH1 0x0 DUP1 RETURNDATACOPY RETURNDATASIZE PUSH1 0x0 REVERT JUMPDEST POP POP POP POP PUSH1 0x40 MLOAD RETURNDATASIZE PUSH1 0x0 DUP3 RETURNDATACOPY PUSH1 0x1F RETURNDATASIZE SWAP1 DUP2 ADD PUSH1 0x1F NOT AND DUP3 ADD PUSH1 0x40 MSTORE PUSH2 0x3263 SWAP2 SWAP1 DUP2 ADD SWAP1 PUSH2 0x5945 JUMP JUMPDEST PUSH1 0x40 DUP1 MLOAD PUSH1 0x2 DUP1 DUP3 MSTORE PUSH1 0x60 DUP3 ADD SWAP1 SWAP3 MSTORE SWAP3 SWAP5 POP SWAP1 SWAP3 POP DUP2 PUSH1 0x20 ADD PUSH1 0x20 DUP3 MUL DUP1 CALLDATASIZE DUP4 CALLDATACOPY POP POP POP PUSH1 0x80 DUP6 ADD MSTORE DUP2 MLOAD PUSH2 0x32A2 SWAP1 PUSH1 0x20 SWAP1 DUP5 ADD DUP2 ADD SWAP1 DUP5 ADD PUSH2 0x598B JUMP JUMPDEST DUP11 PUSH1 0x80 ADD MLOAD PUSH1 0x0 DUP2 MLOAD DUP2 LT PUSH2 0x32B9 JUMPI PUSH2 0x32B9 PUSH2 0x55FA JUMP JUMPDEST PUSH1 0x20 MUL PUSH1 0x20 ADD ADD DUP12 PUSH1 0x80 ADD MLOAD PUSH1 0x1 DUP2 MLOAD DUP2 LT PUSH2 0x32D7 JUMPI PUSH2 0x32D7 PUSH2 0x55FA JUMP JUMPDEST PUSH1 0x20 MUL PUSH1 0x20 ADD ADD DUP13 PUSH1 0xA0 ADD MLOAD PUSH1 0x0 PUSH1 0x2 DUP2 LT PUSH2 0x32F5 JUMPI PUSH2 0x32F5 PUSH2 0x55FA JUMP JUMPDEST PUSH1 0x20 MUL ADD DUP14 PUSH1 0xA0 ADD MLOAD PUSH1 0x1 PUSH1 0x2 DUP2 LT PUSH2 0x3310 JUMPI PUSH2 0x3310 PUSH2 0x55FA JUMP JUMPDEST PUSH1 0xA0 DUP16 ADD SWAP6 SWAP1 SWAP6 MSTORE PUSH1 0x80 DUP15 ADD SWAP6 SWAP1 SWAP6 MSTORE SWAP5 DUP14 MSTORE PUSH1 0x20 SWAP1 SWAP3 MUL SWAP1 SWAP3 ADD SWAP4 SWAP1 SWAP4 MSTORE SWAP3 SWAP1 MSTORE SWAP2 SWAP1 SWAP2 MSTORE MSTORE PUSH2 0x3343 DUP5 DUP5 PUSH1 0x1 PUSH2 0x4314 JUMP JUMPDEST PUSH1 0x0 PUSH2 0x7D0 PUSH1 0x10 SLOAD GT ISZERO PUSH2 0x3483 JUMPI PUSH2 0x3E8 PUSH1 0x10 SLOAD PUSH2 0x3361 SWAP2 SWAP1 PUSH2 0x56AC JUMP JUMPDEST SWAP1 POP DUP1 PUSH1 0x10 PUSH1 0x0 DUP3 DUP3 SLOAD PUSH2 0x3375 SWAP2 SWAP1 PUSH2 0x55E7 JUMP JUMPDEST SWAP1 SWAP2 SSTORE POP POP PUSH1 0x1 PUSH1 0x1 PUSH1 0xA0 SHL SUB DUP3 AND ISZERO PUSH2 0x340C JUMPI PUSH2 0x3394 PUSH1 0x2 DUP3 PUSH2 0x56AC JUMP JUMPDEST PUSH1 0x9 SLOAD PUSH1 0x40 MLOAD PUSH4 0xA9059CBB PUSH1 0xE0 SHL DUP2 MSTORE SWAP2 SWAP3 POP PUSH1 0x1 PUSH1 0x1 PUSH1 0xA0 SHL SUB AND SWAP1 PUSH4 0xA9059CBB SWAP1 PUSH2 0x33C7 SWAP1 DUP6 SWAP1 DUP6 SWAP1 PUSH1 0x4 ADD PUSH2 0x56C0 JUMP JUMPDEST PUSH1 0x20 PUSH1 0x40 MLOAD DUP1 DUP4 SUB DUP2 PUSH1 0x0 DUP8 GAS CALL ISZERO DUP1 ISZERO PUSH2 0x33E6 JUMPI RETURNDATASIZE PUSH1 0x0 DUP1 RETURNDATACOPY RETURNDATASIZE PUSH1 0x0 REVERT JUMPDEST POP POP POP POP PUSH1 0x40 MLOAD RETURNDATASIZE PUSH1 0x1F NOT PUSH1 0x1F DUP3 ADD AND DUP3 ADD DUP1 PUSH1 0x40 MSTORE POP DUP2 ADD SWAP1 PUSH2 0x340A SWAP2 SWAP1 PUSH2 0x56D9 JUMP JUMPDEST POP JUMPDEST PUSH1 0x9 SLOAD PUSH1 0x40 MLOAD PUSH4 0xA9059CBB PUSH1 0xE0 SHL DUP2 MSTORE PUSH1 0x1 PUSH1 0x1 PUSH1 0xA0 SHL SUB SWAP1 SWAP2 AND SWAP1 PUSH4 0xA9059CBB SWAP1 PUSH2 0x343E SWAP1 CALLER SWAP1 DUP6 SWAP1 PUSH1 0x4 ADD PUSH2 0x56C0 JUMP JUMPDEST PUSH1 0x20 PUSH1 0x40 MLOAD DUP1 DUP4 SUB DUP2 PUSH1 0x0 DUP8 GAS CALL ISZERO DUP1 ISZERO PUSH2 0x345D JUMPI RETURNDATASIZE PUSH1 0x0 DUP1 RETURNDATACOPY RETURNDATASIZE PUSH1 0x0 REVERT JUMPDEST POP POP POP POP PUSH1 0x40 MLOAD RETURNDATASIZE PUSH1 0x1F NOT PUSH1 0x1F DUP3 ADD AND DUP3 ADD DUP1 PUSH1 0x40 MSTORE POP DUP2 ADD SWAP1 PUSH2 0x3481 SWAP2 SWAP1 PUSH2 0x56D9 JUMP JUMPDEST POP JUMPDEST PUSH2 0x7D0 PUSH1 0xF SLOAD GT ISZERO PUSH2 0x35FB JUMPI PUSH2 0x3E8 PUSH1 0xF SLOAD PUSH2 0x349F SWAP2 SWAP1 PUSH2 0x56AC JUMP JUMPDEST SWAP1 POP DUP1 PUSH1 0xF PUSH1 0x0 DUP3 DUP3 SLOAD PUSH2 0x34B3 SWAP2 SWAP1 PUSH2 0x55E7 JUMP JUMPDEST SWAP1 SWAP2 SSTORE POP POP PUSH1 0x1 PUSH1 0x1 PUSH1 0xA0 SHL SUB DUP3 AND ISZERO PUSH2 0x3568 JUMPI PUSH2 0x34D2 PUSH1 0x2 DUP3 PUSH2 0x56AC JUMP JUMPDEST PUSH1 0x40 MLOAD PUSH4 0xA9059CBB PUSH1 0xE0 SHL DUP2 MSTORE SWAP1 SWAP2 POP PUSH1 0x1 PUSH1 0x1 PUSH1 0xA0 SHL SUB PUSH32 0x0 AND SWAP1 PUSH4 0xA9059CBB SWAP1 PUSH2 0x3523 SWAP1 DUP6 SWAP1 DUP6 SWAP1 PUSH1 0x4 ADD PUSH2 0x56C0 JUMP JUMPDEST PUSH1 0x20 PUSH1 0x40 MLOAD DUP1 DUP4 SUB DUP2 PUSH1 0x0 DUP8 GAS CALL ISZERO DUP1 ISZERO PUSH2 0x3542 JUMPI RETURNDATASIZE PUSH1 0x0 DUP1 RETURNDATACOPY RETURNDATASIZE PUSH1 0x0 REVERT JUMPDEST POP POP POP POP PUSH1 0x40 MLOAD RETURNDATASIZE PUSH1 0x1F NOT PUSH1 0x1F DUP3 ADD AND DUP3 ADD DUP1 PUSH1 0x40 MSTORE POP DUP2 ADD SWAP1 PUSH2 0x3566 SWAP2 SWAP1 PUSH2 0x56D9 JUMP JUMPDEST POP JUMPDEST PUSH1 0x40 MLOAD PUSH4 0xA9059CBB PUSH1 0xE0 SHL DUP2 MSTORE PUSH1 0x1 PUSH1 0x1 PUSH1 0xA0 SHL SUB PUSH32 0x0 AND SWAP1 PUSH4 0xA9059CBB SWAP1 PUSH2 0x35B6 SWAP1 CALLER SWAP1 DUP6 SWAP1 PUSH1 0x4 ADD PUSH2 0x56C0 JUMP JUMPDEST PUSH1 0x20 PUSH1 0x40 MLOAD DUP1 DUP4 SUB DUP2 PUSH1 0x0 DUP8 GAS CALL ISZERO DUP1 ISZERO PUSH2 0x35D5 JUMPI RETURNDATASIZE PUSH1 0x0 DUP1 RETURNDATACOPY RETURNDATASIZE PUSH1 0x0 REVERT JUMPDEST POP POP POP POP PUSH1 0x40 MLOAD RETURNDATASIZE PUSH1 0x1F NOT PUSH1 0x1F DUP3 ADD AND DUP3 ADD DUP1 PUSH1 0x40 MSTORE POP DUP2 ADD SWAP1 PUSH2 0x35F9 SWAP2 SWAP1 PUSH2 0x56D9 JUMP JUMPDEST POP JUMPDEST PUSH32 0x7F293AA0B9AE407A05FB89BEF36529D7B5A7B5912E5CFA7A0EE9E251E70C6B0E DUP8 DUP8 PUSH1 0x40 MLOAD PUSH2 0x362C SWAP3 SWAP2 SWAP1 PUSH2 0x5A3B JUMP JUMPDEST PUSH1 0x40 MLOAD DUP1 SWAP2 SUB SWAP1 LOG1 POP POP POP POP POP POP POP JUMP JUMPDEST PUSH1 0xE SLOAD PUSH1 0xFF AND ISZERO PUSH2 0x364D JUMPI PUSH1 0x0 DUP1 REVERT JUMPDEST PUSH1 0x0 PUSH2 0x365B DUP5 PUSH1 0x6 SLOAD PUSH2 0x3B43 JUMP JUMPDEST SWAP1 POP PUSH1 0x0 DUP2 GT PUSH2 0x366A JUMPI PUSH1 0x0 DUP1 REVERT JUMPDEST PUSH1 0x0 PUSH2 0x3678 DUP3 PUSH1 0x11 SLOAD PUSH2 0x3C1F JUMP JUMPDEST SWAP1 POP DUP3 DUP2 GT ISZERO PUSH2 0x36BF JUMPI PUSH1 0x40 MLOAD PUSH3 0x461BCD PUSH1 0xE5 SHL DUP2 MSTORE PUSH1 0x20 PUSH1 0x4 DUP3 ADD MSTORE PUSH1 0x12 PUSH1 0x24 DUP3 ADD MSTORE PUSH18 0x1B585E10985CD9505CDCD95D125B881A1A5D PUSH1 0x72 SHL PUSH1 0x44 DUP3 ADD MSTORE PUSH1 0x64 ADD PUSH2 0x107E JUMP JUMPDEST DUP1 PUSH1 0x11 SLOAD PUSH2 0x36CD SWAP2 SWAP1 PUSH2 0x55D4 JUMP JUMPDEST PUSH1 0x11 DUP2 SWAP1 SSTORE POP PUSH1 0x0 PUSH2 0x36E1 DUP4 PUSH1 0x12 SLOAD PUSH2 0x3C1F JUMP JUMPDEST SWAP1 POP DUP5 DUP2 GT ISZERO PUSH2 0x3722 JUMPI PUSH1 0x40 MLOAD PUSH3 0x461BCD PUSH1 0xE5 SHL DUP2 MSTORE PUSH1 0x20 PUSH1 0x4 DUP3 ADD MSTORE PUSH1 0xC PUSH1 0x24 DUP3 ADD MSTORE PUSH12 0x1B585E10D211125B881A1A5D PUSH1 0xA2 SHL PUSH1 0x44 DUP3 ADD MSTORE PUSH1 0x64 ADD PUSH2 0x107E JUMP JUMPDEST DUP1 PUSH1 0x12 SLOAD PUSH2 0x3730 SWAP2 SWAP1 PUSH2 0x55D4 JUMP JUMPDEST PUSH1 0x12 SSTORE PUSH2 0x373D CALLER DUP8 PUSH2 0x3D37 JUMP JUMPDEST PUSH1 0x40 MLOAD PUSH4 0x23B872DD PUSH1 0xE0 SHL DUP2 MSTORE PUSH1 0x1 PUSH1 0x1 PUSH1 0xA0 SHL SUB PUSH32 0x0 AND SWAP1 PUSH4 0x23B872DD SWAP1 PUSH2 0x378D SWAP1 CALLER SWAP1 ADDRESS SWAP1 DUP8 SWAP1 PUSH1 0x4 ADD PUSH2 0x5706 JUMP JUMPDEST PUSH1 0x20 PUSH1 0x40 MLOAD DUP1 DUP4 SUB DUP2 PUSH1 0x0 DUP8 GAS CALL ISZERO DUP1 ISZERO PUSH2 0x37AC JUMPI RETURNDATASIZE PUSH1 0x0 DUP1 RETURNDATACOPY RETURNDATASIZE PUSH1 0x0 REVERT JUMPDEST POP POP POP POP PUSH1 0x40 MLOAD RETURNDATASIZE PUSH1 0x1F NOT PUSH1 0x1F DUP3 ADD AND DUP3 ADD DUP1 PUSH1 0x40 MSTORE POP DUP2 ADD SWAP1 PUSH2 0x37D0 SWAP2 SWAP1 PUSH2 0x56D9 JUMP JUMPDEST PUSH2 0x37D9 JUMPI PUSH1 0x0 DUP1 REVERT JUMPDEST PUSH1 0x9 SLOAD PUSH1 0x40 MLOAD PUSH4 0x23B872DD PUSH1 0xE0 SHL DUP2 MSTORE PUSH1 0x1 PUSH1 0x1 PUSH1 0xA0 SHL SUB SWAP1 SWAP2 AND SWAP1 PUSH4 0x23B872DD SWAP1 PUSH2 0x380D SWAP1 CALLER SWAP1 ADDRESS SWAP1 DUP7 SWAP1 PUSH1 0x4 ADD PUSH2 0x5706 JUMP JUMPDEST PUSH1 0x20 PUSH1 0x40 MLOAD DUP1 DUP4 SUB DUP2 PUSH1 0x0 DUP8 GAS CALL ISZERO DUP1 ISZERO PUSH2 0x382C JUMPI RETURNDATASIZE PUSH1 0x0 DUP1 RETURNDATACOPY RETURNDATASIZE PUSH1 0x0 REVERT JUMPDEST POP POP POP POP PUSH1 0x40 MLOAD RETURNDATASIZE PUSH1 0x1F NOT PUSH1 0x1F DUP3 ADD AND DUP3 ADD DUP1 PUSH1 0x40 MSTORE POP DUP2 ADD SWAP1 PUSH2 0x3850 SWAP2 SWAP1 PUSH2 0x56D9 JUMP JUMPDEST POP PUSH2 0x3859 PUSH2 0xBED JUMP JUMPDEST PUSH1 0x0 DUP1 MLOAD PUSH1 0x20 PUSH2 0x5E40 DUP4 CODECOPY DUP2 MLOAD SWAP2 MSTORE CALLER DUP8 PUSH1 0x40 MLOAD PUSH2 0x3878 SWAP3 SWAP2 SWAP1 PUSH2 0x56C0 JUMP JUMPDEST PUSH1 0x40 MLOAD DUP1 SWAP2 SUB SWAP1 LOG1 POP POP POP POP POP POP JUMP JUMPDEST PUSH1 0x0 PUSH2 0x389A PUSH1 0x12 SLOAD PUSH1 0x11 SLOAD PUSH1 0x0 PUSH2 0x1262 JUMP JUMPDEST SWAP1 POP SWAP1 JUMP JUMPDEST PUSH1 0x0 DUP1 PUSH2 0x38B4 DUP4 PUSH8 0xDE0B6B3A7640000 PUSH2 0x3C1F JUMP JUMPDEST SWAP1 POP PUSH1 0x0 PUSH2 0x38C2 DUP3 DUP8 PUSH2 0x55D4 JUMP JUMPDEST SWAP1 POP PUSH1 0x0 PUSH2 0x38D0 DUP3 DUP9 PUSH2 0x3B43 JUMP JUMPDEST SWAP1 POP PUSH1 0x0 PUSH2 0x38F7 DUP3 PUSH2 0x38F2 PUSH8 0xDE0B6B3A7640000 PUSH8 0x1BC16D674EC80000 PUSH2 0x3B43 JUMP JUMPDEST PUSH2 0x452C JUMP JUMPDEST SWAP1 POP PUSH1 0x0 PUSH2 0x3905 DUP3 DUP10 PUSH2 0x3C1F JUMP JUMPDEST SWAP1 POP PUSH2 0x3911 DUP9 DUP3 PUSH2 0x55E7 JUMP JUMPDEST SWAP10 SWAP9 POP POP POP POP POP POP POP POP POP JUMP JUMPDEST PUSH1 0x0 DUP1 DUP3 ISZERO PUSH2 0x39EE JUMPI PUSH2 0x3941 PUSH8 0xDE0B6B3A7640000 PUSH8 0x1BC16D674EC80000 PUSH2 0x3B43 JUMP JUMPDEST SWAP1 POP PUSH1 0x0 PUSH2 0x3957 DUP7 PUSH8 0xDE0B6B3A7640000 PUSH2 0x3C1F JUMP JUMPDEST SWAP1 POP PUSH1 0x0 PUSH2 0x3965 DUP3 DUP10 PUSH2 0x55E7 JUMP JUMPDEST SWAP1 POP PUSH1 0x0 PUSH2 0x3973 DUP3 DUP11 PUSH2 0x3B43 JUMP JUMPDEST SWAP1 POP PUSH1 0x0 PUSH2 0x398D DUP3 PUSH2 0x38F2 PUSH8 0xDE0B6B3A7640000 DUP9 PUSH2 0x3B43 JUMP JUMPDEST SWAP1 POP PUSH1 0x0 PUSH2 0x399B DUP3 DUP14 PUSH2 0x3C1F JUMP JUMPDEST SWAP1 POP PUSH1 0x0 PUSH2 0x39A9 DUP3 DUP15 PUSH2 0x55E7 JUMP JUMPDEST SWAP1 POP PUSH1 0x0 PUSH2 0x39C8 PUSH2 0x39C2 DUP10 PUSH8 0xDE0B6B3A7640000 PUSH2 0x55E7 JUMP JUMPDEST DUP13 PUSH2 0x3C1F JUMP JUMPDEST SWAP1 POP PUSH2 0x39E0 DUP3 PUSH2 0x162F DUP4 PUSH8 0xDE0B6B3A7640000 PUSH2 0x55E7 JUMP JUMPDEST SWAP9 POP POP POP POP POP POP POP POP PUSH2 0x3A5F JUMP JUMPDEST PUSH1 0x0 PUSH2 0x3A02 DUP6 PUSH8 0xDE0B6B3A7640000 PUSH2 0x55E7 JUMP JUMPDEST SWAP1 POP PUSH2 0x3A0E DUP7 DUP3 PUSH2 0x3C1F JUMP JUMPDEST SWAP1 POP PUSH1 0x0 PUSH2 0x3A24 PUSH8 0xDE0B6B3A7640000 DUP10 PUSH2 0x3B43 JUMP JUMPDEST SWAP1 POP PUSH1 0x0 PUSH2 0x3A43 PUSH2 0x3A3D DUP4 PUSH8 0xDE0B6B3A7640000 PUSH2 0x55E7 JUMP JUMPDEST DUP10 PUSH2 0x452C JUMP JUMPDEST SWAP1 POP PUSH2 0x3A4F DUP11 DUP3 PUSH2 0x3C1F JUMP JUMPDEST PUSH2 0x3A59 SWAP1 DUP12 PUSH2 0x55E7 JUMP JUMPDEST SWAP5 POP POP POP POP JUMPDEST POP SWAP6 SWAP5 POP POP POP POP POP JUMP JUMPDEST PUSH2 0x27F6 PUSH1 0x2 PUSH8 0xDE0B6B3A7640000 PUSH2 0x56AC JUMP JUMPDEST PUSH1 0x1 PUSH1 0x1 PUSH1 0xA0 SHL SUB DUP4 AND PUSH1 0x0 SWAP1 DUP2 MSTORE PUSH1 0x18 PUSH1 0x20 MSTORE PUSH1 0x40 SWAP1 KECCAK256 SLOAD TIMESTAMP GT PUSH2 0x3AA0 JUMPI PUSH1 0x0 DUP1 REVERT JUMPDEST PUSH1 0x1 PUSH1 0x1 PUSH1 0xA0 SHL SUB DUP4 AND PUSH1 0x0 SWAP1 DUP2 MSTORE PUSH1 0x7 PUSH1 0x20 MSTORE PUSH1 0x40 SWAP1 KECCAK256 SLOAD PUSH2 0x3AC4 SWAP1 DUP3 SWAP1 PUSH2 0x55E7 JUMP JUMPDEST PUSH1 0x1 PUSH1 0x1 PUSH1 0xA0 SHL SUB DUP1 DUP6 AND PUSH1 0x0 SWAP1 DUP2 MSTORE PUSH1 0x7 PUSH1 0x20 MSTORE PUSH1 0x40 DUP1 DUP3 KECCAK256 SWAP4 SWAP1 SWAP4 SSTORE SWAP1 DUP5 AND DUP2 MSTORE KECCAK256 SLOAD PUSH2 0x3AF4 SWAP1 DUP3 SWAP1 PUSH2 0x55D4 JUMP JUMPDEST PUSH1 0x1 PUSH1 0x1 PUSH1 0xA0 SHL SUB DUP1 DUP5 AND PUSH1 0x0 DUP2 DUP2 MSTORE PUSH1 0x7 PUSH1 0x20 MSTORE PUSH1 0x40 SWAP1 DUP2 SWAP1 KECCAK256 SWAP4 SWAP1 SWAP4 SSTORE SWAP2 MLOAD SWAP1 DUP6 AND SWAP1 PUSH1 0x0 DUP1 MLOAD PUSH1 0x20 PUSH2 0x5EA0 DUP4 CODECOPY DUP2 MLOAD SWAP2 MSTORE SWAP1 PUSH2 0x3B36 SWAP1 DUP6 DUP2 MSTORE PUSH1 0x20 ADD SWAP1 JUMP JUMPDEST PUSH1 0x40 MLOAD DUP1 SWAP2 SUB SWAP1 LOG3 POP POP POP JUMP JUMPDEST PUSH1 0x0 DUP2 PUSH1 0x0 SUB PUSH2 0x3B84 JUMPI PUSH1 0x40 MLOAD PUSH3 0x461BCD PUSH1 0xE5 SHL DUP2 MSTORE PUSH1 0x20 PUSH1 0x4 DUP3 ADD MSTORE PUSH1 0xC PUSH1 0x24 DUP3 ADD MSTORE PUSH12 0x4552525F4449565F5A45524F PUSH1 0xA0 SHL PUSH1 0x44 DUP3 ADD MSTORE PUSH1 0x64 ADD PUSH2 0x107E JUMP JUMPDEST PUSH1 0x0 PUSH2 0x3B98 PUSH8 0xDE0B6B3A7640000 DUP6 PUSH2 0x5A54 JUMP JUMPDEST SWAP1 POP DUP4 ISZERO DUP1 PUSH2 0x3BB7 JUMPI POP PUSH8 0xDE0B6B3A7640000 PUSH2 0x3BB5 DUP6 DUP4 PUSH2 0x56AC JUMP JUMPDEST EQ JUMPDEST PUSH2 0x3BD3 JUMPI PUSH1 0x40 MLOAD PUSH3 0x461BCD PUSH1 0xE5 SHL DUP2 MSTORE PUSH1 0x4 ADD PUSH2 0x107E SWAP1 PUSH2 0x5A6B JUMP JUMPDEST PUSH1 0x0 PUSH2 0x3BE0 PUSH1 0x2 DUP6 PUSH2 0x56AC JUMP JUMPDEST PUSH2 0x3BEA SWAP1 DUP4 PUSH2 0x55D4 JUMP JUMPDEST SWAP1 POP DUP2 DUP2 LT ISZERO PUSH2 0x3C0C JUMPI PUSH1 0x40 MLOAD PUSH3 0x461BCD PUSH1 0xE5 SHL DUP2 MSTORE PUSH1 0x4 ADD PUSH2 0x107E SWAP1 PUSH2 0x5A6B JUMP JUMPDEST PUSH2 0x3C16 DUP5 DUP3 PUSH2 0x56AC JUMP JUMPDEST SWAP6 SWAP5 POP POP POP POP POP JUMP JUMPDEST PUSH1 0x0 DUP1 PUSH2 0x3C2C DUP4 DUP6 PUSH2 0x5A54 JUMP JUMPDEST SWAP1 POP DUP4 ISZERO DUP1 PUSH2 0x3C43 JUMPI POP DUP3 PUSH2 0x3C41 DUP6 DUP4 PUSH2 0x56AC JUMP JUMPDEST EQ JUMPDEST PUSH2 0x3C82 JUMPI PUSH1 0x40 MLOAD PUSH3 0x461BCD PUSH1 0xE5 SHL DUP2 MSTORE PUSH1 0x20 PUSH1 0x4 DUP3 ADD MSTORE PUSH1 0x10 PUSH1 0x24 DUP3 ADD MSTORE PUSH16 0x4552525F4D554C5F4F564552464C4F57 PUSH1 0x80 SHL PUSH1 0x44 DUP3 ADD MSTORE PUSH1 0x64 ADD PUSH2 0x107E JUMP JUMPDEST PUSH1 0x0 PUSH2 0x3C97 PUSH1 0x2 PUSH8 0xDE0B6B3A7640000 PUSH2 0x56AC JUMP JUMPDEST PUSH2 0x3CA1 SWAP1 DUP4 PUSH2 0x55D4 JUMP JUMPDEST SWAP1 POP PUSH2 0x3C16 PUSH8 0xDE0B6B3A7640000 DUP3 PUSH2 0x56AC JUMP JUMPDEST PUSH1 0x1 PUSH1 0x1 PUSH1 0xA0 SHL SUB DUP3 AND PUSH1 0x0 SWAP1 DUP2 MSTORE PUSH1 0x7 PUSH1 0x20 MSTORE PUSH1 0x40 SWAP1 KECCAK256 SLOAD PUSH2 0x3CD9 SWAP1 DUP3 SWAP1 PUSH2 0x55E7 JUMP JUMPDEST PUSH1 0x1 PUSH1 0x1 PUSH1 0xA0 SHL SUB DUP4 AND PUSH1 0x0 SWAP1 DUP2 MSTORE PUSH1 0x7 PUSH1 0x20 MSTORE PUSH1 0x40 SWAP1 KECCAK256 SSTORE PUSH1 0x6 SLOAD PUSH2 0x3D00 SWAP1 DUP3 SWAP1 PUSH2 0x55E7 JUMP JUMPDEST PUSH1 0x6 SSTORE PUSH1 0x40 MLOAD DUP2 DUP2 MSTORE PUSH1 0x0 SWAP1 PUSH1 0x1 PUSH1 0x1 PUSH1 0xA0 SHL SUB DUP5 AND SWAP1 PUSH1 0x0 DUP1 MLOAD PUSH1 0x20 PUSH2 0x5EA0 DUP4 CODECOPY DUP2 MLOAD SWAP2 MSTORE SWAP1 PUSH1 0x20 ADD JUMPDEST PUSH1 0x40 MLOAD DUP1 SWAP2 SUB SWAP1 LOG3 POP POP JUMP JUMPDEST PUSH1 0x1 PUSH1 0x1 PUSH1 0xA0 SHL SUB DUP3 AND PUSH1 0x0 SWAP1 DUP2 MSTORE PUSH1 0x7 PUSH1 0x20 MSTORE PUSH1 0x40 SWAP1 KECCAK256 SLOAD PUSH2 0x3D5B SWAP1 DUP3 SWAP1 PUSH2 0x55D4 JUMP JUMPDEST PUSH1 0x1 PUSH1 0x1 PUSH1 0xA0 SHL SUB DUP4 AND PUSH1 0x0 SWAP1 DUP2 MSTORE PUSH1 0x7 PUSH1 0x20 MSTORE PUSH1 0x40 SWAP1 KECCAK256 SSTORE PUSH1 0x6 SLOAD PUSH2 0x3D82 SWAP1 DUP3 SWAP1 PUSH2 0x55D4 JUMP JUMPDEST PUSH1 0x6 SSTORE PUSH1 0x40 MLOAD DUP2 DUP2 MSTORE PUSH1 0x1 PUSH1 0x1 PUSH1 0xA0 SHL SUB DUP4 AND SWAP1 PUSH1 0x0 SWAP1 PUSH1 0x0 DUP1 MLOAD PUSH1 0x20 PUSH2 0x5EA0 DUP4 CODECOPY DUP2 MLOAD SWAP2 MSTORE SWAP1 PUSH1 0x20 ADD PUSH2 0x3D2B JUMP JUMPDEST PUSH1 0x0 PUSH2 0x3DBB PUSH2 0x49E5 JUMP JUMPDEST PUSH2 0x3DC3 PUSH2 0x4B14 JUMP JUMPDEST PUSH2 0x3DCB PUSH2 0x49E5 JUMP JUMPDEST DUP5 PUSH1 0x0 ADD MLOAD DUP1 PUSH1 0x20 ADD SWAP1 MLOAD DUP2 ADD SWAP1 PUSH2 0x3DE3 SWAP2 SWAP1 PUSH2 0x5ADA JUMP JUMPDEST PUSH1 0x80 DUP9 ADD MLOAD MLOAD SWAP3 SWAP6 POP SWAP1 SWAP4 POP SWAP2 POP PUSH1 0x2 SUB PUSH2 0x3F72 JUMPI PUSH32 0x0 PUSH1 0x1 PUSH1 0x1 PUSH1 0xA0 SHL SUB AND PUSH4 0xC9219A7A DUP5 DUP5 DUP5 PUSH1 0x40 MLOAD DUP1 PUSH2 0x100 ADD PUSH1 0x40 MSTORE DUP1 DUP12 PUSH1 0x20 ADD MLOAD PUSH1 0x0 SHR DUP2 MSTORE PUSH1 0x20 ADD DUP12 PUSH1 0x60 ADD MLOAD DUP2 MSTORE PUSH1 0x20 ADD PUSH32 0x0 DUP2 MSTORE PUSH1 0x20 ADD DUP12 PUSH1 0x40 ADD MLOAD DUP2 MSTORE PUSH1 0x20 ADD DUP12 PUSH1 0x80 ADD MLOAD PUSH1 0x0 DUP2 MLOAD DUP2 LT PUSH2 0x3E94 JUMPI PUSH2 0x3E94 PUSH2 0x55FA JUMP JUMPDEST PUSH1 0x20 MUL PUSH1 0x20 ADD ADD MLOAD PUSH1 0x0 SHR DUP2 MSTORE PUSH1 0x20 ADD DUP12 PUSH1 0x80 ADD MLOAD PUSH1 0x1 DUP2 MLOAD DUP2 LT PUSH2 0x3EBB JUMPI PUSH2 0x3EBB PUSH2 0x55FA JUMP JUMPDEST PUSH1 0x20 MUL PUSH1 0x20 ADD ADD MLOAD PUSH1 0x0 SHR DUP2 MSTORE PUSH1 0x20 ADD DUP12 PUSH1 0xA0 ADD MLOAD PUSH1 0x0 PUSH1 0x2 DUP2 LT PUSH2 0x3EE2 JUMPI PUSH2 0x3EE2 PUSH2 0x55FA JUMP JUMPDEST PUSH1 0x20 MUL ADD MLOAD PUSH1 0x0 SHR DUP2 MSTORE PUSH1 0x20 ADD DUP12 PUSH1 0xA0 ADD MLOAD PUSH1 0x1 PUSH1 0x2 DUP2 LT PUSH2 0x3F06 JUMPI PUSH2 0x3F06 PUSH2 0x55FA JUMP JUMPDEST PUSH1 0x20 MUL ADD MLOAD SWAP1 MSTORE PUSH1 0x40 MLOAD PUSH1 0x1 PUSH1 0x1 PUSH1 0xE0 SHL SUB NOT PUSH1 0xE0 DUP8 SWAP1 SHL AND DUP2 MSTORE PUSH2 0x3F31 SWAP5 SWAP4 SWAP3 SWAP2 SWAP1 PUSH1 0x4 ADD PUSH2 0x5B95 JUMP JUMPDEST PUSH1 0x20 PUSH1 0x40 MLOAD DUP1 DUP4 SUB DUP2 DUP7 GAS STATICCALL ISZERO DUP1 ISZERO PUSH2 0x3F4E JUMPI RETURNDATASIZE PUSH1 0x0 DUP1 RETURNDATACOPY RETURNDATASIZE PUSH1 0x0 REVERT JUMPDEST POP POP POP POP PUSH1 0x40 MLOAD RETURNDATASIZE PUSH1 0x1F NOT PUSH1 0x1F DUP3 ADD AND DUP3 ADD DUP1 PUSH1 0x40 MSTORE POP DUP2 ADD SWAP1 PUSH2 0x3C16 SWAP2 SWAP1 PUSH2 0x56D9 JUMP JUMPDEST DUP5 PUSH1 0x80 ADD MLOAD MLOAD PUSH1 0x10 SUB PUSH2 0x42DA JUMPI PUSH32 0x0 PUSH1 0x1 PUSH1 0x1 PUSH1 0xA0 SHL SUB AND PUSH4 0xC5A0FC26 DUP5 DUP5 DUP5 PUSH1 0x40 MLOAD DUP1 PUSH2 0x2C0 ADD PUSH1 0x40 MSTORE DUP1 DUP12 PUSH1 0x20 ADD MLOAD PUSH1 0x0 SHR DUP2 MSTORE PUSH1 0x20 ADD DUP12 PUSH1 0x60 ADD MLOAD DUP2 MSTORE PUSH1 0x20 ADD PUSH32 0x0 DUP2 MSTORE PUSH1 0x20 ADD DUP12 PUSH1 0x40 ADD MLOAD DUP2 MSTORE PUSH1 0x20 ADD DUP12 PUSH1 0x80 ADD MLOAD PUSH1 0x0 DUP2 MLOAD DUP2 LT PUSH2 0x401B JUMPI PUSH2 0x401B PUSH2 0x55FA JUMP JUMPDEST PUSH1 0x20 MUL PUSH1 0x20 ADD ADD MLOAD PUSH1 0x0 SHR DUP2 MSTORE PUSH1 0x20 ADD DUP12 PUSH1 0x80 ADD MLOAD PUSH1 0x1 DUP2 MLOAD DUP2 LT PUSH2 0x4042 JUMPI PUSH2 0x4042 PUSH2 0x55FA JUMP JUMPDEST PUSH1 0x20 MUL PUSH1 0x20 ADD ADD MLOAD PUSH1 0x0 SHR DUP2 MSTORE PUSH1 0x20 ADD DUP12 PUSH1 0x80 ADD MLOAD PUSH1 0x2 DUP2 MLOAD DUP2 LT PUSH2 0x4069 JUMPI PUSH2 0x4069 PUSH2 0x55FA JUMP JUMPDEST PUSH1 0x20 MUL PUSH1 0x20 ADD ADD MLOAD PUSH1 0x0 SHR DUP2 MSTORE PUSH1 0x20 ADD DUP12 PUSH1 0x80 ADD MLOAD PUSH1 0x3 DUP2 MLOAD DUP2 LT PUSH2 0x4090 JUMPI PUSH2 0x4090 PUSH2 0x55FA JUMP JUMPDEST PUSH1 0x20 MUL PUSH1 0x20 ADD ADD MLOAD PUSH1 0x0 SHR DUP2 MSTORE PUSH1 0x20 ADD DUP12 PUSH1 0x80 ADD MLOAD PUSH1 0x4 DUP2 MLOAD DUP2 LT PUSH2 0x40B7 JUMPI PUSH2 0x40B7 PUSH2 0x55FA JUMP JUMPDEST PUSH1 0x20 MUL PUSH1 0x20 ADD ADD MLOAD PUSH1 0x0 SHR DUP2 MSTORE PUSH1 0x20 ADD DUP12 PUSH1 0x80 ADD MLOAD PUSH1 0x5 DUP2 MLOAD DUP2 LT PUSH2 0x40DE JUMPI PUSH2 0x40DE PUSH2 0x55FA JUMP JUMPDEST PUSH1 0x20 MUL PUSH1 0x20 ADD ADD MLOAD PUSH1 0x0 SHR DUP2 MSTORE PUSH1 0x20 ADD DUP12 PUSH1 0x80 ADD MLOAD PUSH1 0x6 DUP2 MLOAD DUP2 LT PUSH2 0x4105 JUMPI PUSH2 0x4105 PUSH2 0x55FA JUMP JUMPDEST PUSH1 0x20 MUL PUSH1 0x20 ADD ADD MLOAD PUSH1 0x0 SHR DUP2 MSTORE PUSH1 0x20 ADD DUP12 PUSH1 0x80 ADD MLOAD PUSH1 0x7 DUP2 MLOAD DUP2 LT PUSH2 0x412C JUMPI PUSH2 0x412C PUSH2 0x55FA JUMP JUMPDEST PUSH1 0x20 MUL PUSH1 0x20 ADD ADD MLOAD PUSH1 0x0 SHR DUP2 MSTORE PUSH1 0x20 ADD DUP12 PUSH1 0x80 ADD MLOAD PUSH1 0x8 DUP2 MLOAD DUP2 LT PUSH2 0x4153 JUMPI PUSH2 0x4153 PUSH2 0x55FA JUMP JUMPDEST PUSH1 0x20 MUL PUSH1 0x20 ADD ADD MLOAD PUSH1 0x0 SHR DUP2 MSTORE PUSH1 0x20 ADD DUP12 PUSH1 0x80 ADD MLOAD PUSH1 0x9 DUP2 MLOAD DUP2 LT PUSH2 0x417A JUMPI PUSH2 0x417A PUSH2 0x55FA JUMP JUMPDEST PUSH1 0x20 MUL PUSH1 0x20 ADD ADD MLOAD PUSH1 0x0 SHR DUP2 MSTORE PUSH1 0x20 ADD DUP12 PUSH1 0x80 ADD MLOAD PUSH1 0xA DUP2 MLOAD DUP2 LT PUSH2 0x41A1 JUMPI PUSH2 0x41A1 PUSH2 0x55FA JUMP JUMPDEST PUSH1 0x20 MUL PUSH1 0x20 ADD ADD MLOAD PUSH1 0x0 SHR DUP2 MSTORE PUSH1 0x20 ADD DUP12 PUSH1 0x80 ADD MLOAD PUSH1 0xB DUP2 MLOAD DUP2 LT PUSH2 0x41C8 JUMPI PUSH2 0x41C8 PUSH2 0x55FA JUMP JUMPDEST PUSH1 0x20 MUL PUSH1 0x20 ADD ADD MLOAD PUSH1 0x0 SHR DUP2 MSTORE PUSH1 0x20 ADD DUP12 PUSH1 0x80 ADD MLOAD PUSH1 0xC DUP2 MLOAD DUP2 LT PUSH2 0x41EF JUMPI PUSH2 0x41EF PUSH2 0x55FA JUMP JUMPDEST PUSH1 0x20 MUL PUSH1 0x20 ADD ADD MLOAD PUSH1 0x0 SHR DUP2 MSTORE PUSH1 0x20 ADD DUP12 PUSH1 0x80 ADD MLOAD PUSH1 0xD DUP2 MLOAD DUP2 LT PUSH2 0x4216 JUMPI PUSH2 0x4216 PUSH2 0x55FA JUMP JUMPDEST PUSH1 0x20 MUL PUSH1 0x20 ADD ADD MLOAD PUSH1 0x0 SHR DUP2 MSTORE PUSH1 0x20 ADD DUP12 PUSH1 0x80 ADD MLOAD PUSH1 0xE DUP2 MLOAD DUP2 LT PUSH2 0x423D JUMPI PUSH2 0x423D PUSH2 0x55FA JUMP JUMPDEST PUSH1 0x20 MUL PUSH1 0x20 ADD ADD MLOAD PUSH1 0x0 SHR DUP2 MSTORE PUSH1 0x20 ADD DUP12 PUSH1 0x80 ADD MLOAD PUSH1 0xF DUP2 MLOAD DUP2 LT PUSH2 0x4264 JUMPI PUSH2 0x4264 PUSH2 0x55FA JUMP JUMPDEST PUSH1 0x20 MUL PUSH1 0x20 ADD ADD MLOAD PUSH1 0x0 SHR DUP2 MSTORE PUSH1 0x20 ADD DUP12 PUSH1 0xA0 ADD MLOAD PUSH1 0x0 PUSH1 0x2 DUP2 LT PUSH2 0x428B JUMPI PUSH2 0x428B PUSH2 0x55FA JUMP JUMPDEST PUSH1 0x20 MUL ADD MLOAD PUSH1 0x0 SHR DUP2 MSTORE PUSH1 0x20 ADD DUP12 PUSH1 0xA0 ADD MLOAD PUSH1 0x1 PUSH1 0x2 DUP2 LT PUSH2 0x42AF JUMPI PUSH2 0x42AF PUSH2 0x55FA JUMP JUMPDEST PUSH1 0x20 MUL ADD MLOAD SWAP1 MSTORE PUSH1 0x40 MLOAD PUSH1 0x1 PUSH1 0x1 PUSH1 0xE0 SHL SUB NOT PUSH1 0xE0 DUP8 SWAP1 SHL AND DUP2 MSTORE PUSH2 0x3F31 SWAP5 SWAP4 SWAP3 SWAP2 SWAP1 PUSH1 0x4 ADD PUSH2 0x5BF2 JUMP JUMPDEST PUSH1 0x40 MLOAD PUSH3 0x461BCD PUSH1 0xE5 SHL DUP2 MSTORE PUSH1 0x20 PUSH1 0x4 DUP3 ADD MSTORE PUSH1 0xF PUSH1 0x24 DUP3 ADD MSTORE PUSH15 0x189859081A5B9C1D5D0818DBDD5B9D PUSH1 0x8A SHL PUSH1 0x44 DUP3 ADD MSTORE PUSH1 0x64 ADD PUSH2 0x107E JUMP JUMPDEST PUSH1 0x0 JUMPDEST DUP4 PUSH1 0x80 ADD MLOAD MLOAD DUP2 LT ISZERO PUSH2 0x4450 JUMPI PUSH1 0x19 PUSH1 0x0 DUP6 PUSH1 0x80 ADD MLOAD DUP4 DUP2 MLOAD DUP2 LT PUSH2 0x433E JUMPI PUSH2 0x433E PUSH2 0x55FA JUMP JUMPDEST PUSH1 0x20 SWAP1 DUP2 MUL SWAP2 SWAP1 SWAP2 ADD DUP2 ADD MLOAD DUP3 MSTORE DUP2 ADD SWAP2 SWAP1 SWAP2 MSTORE PUSH1 0x40 ADD PUSH1 0x0 KECCAK256 SLOAD PUSH1 0xFF AND ISZERO PUSH2 0x439F JUMPI PUSH1 0x40 MLOAD PUSH3 0x461BCD PUSH1 0xE5 SHL DUP2 MSTORE PUSH1 0x20 PUSH1 0x4 DUP3 ADD MSTORE PUSH1 0x13 PUSH1 0x24 DUP3 ADD MSTORE PUSH19 0x125B9C1D5D08185B1C9958591E481CDC195B9D PUSH1 0x6A SHL PUSH1 0x44 DUP3 ADD MSTORE PUSH1 0x64 ADD PUSH2 0x107E JUMP JUMPDEST PUSH1 0x1 PUSH1 0x19 PUSH1 0x0 DUP7 PUSH1 0x80 ADD MLOAD DUP5 DUP2 MLOAD DUP2 LT PUSH2 0x43BB JUMPI PUSH2 0x43BB PUSH2 0x55FA JUMP JUMPDEST PUSH1 0x20 MUL PUSH1 0x20 ADD ADD MLOAD DUP2 MSTORE PUSH1 0x20 ADD SWAP1 DUP2 MSTORE PUSH1 0x20 ADD PUSH1 0x0 KECCAK256 PUSH1 0x0 PUSH2 0x100 EXP DUP2 SLOAD DUP2 PUSH1 0xFF MUL NOT AND SWAP1 DUP4 ISZERO ISZERO MUL OR SWAP1 SSTORE POP PUSH32 0x5E58F77BBF94B46D8D896E29753E4458C6E59B48581E20ED58C9558E96F297CE DUP5 PUSH1 0x80 ADD MLOAD DUP3 DUP2 MLOAD DUP2 LT PUSH2 0x441F JUMPI PUSH2 0x441F PUSH2 0x55FA JUMP JUMPDEST PUSH1 0x20 MUL PUSH1 0x20 ADD ADD MLOAD PUSH1 0x40 MLOAD PUSH2 0x4436 SWAP2 DUP2 MSTORE PUSH1 0x20 ADD SWAP1 JUMP JUMPDEST PUSH1 0x40 MLOAD DUP1 SWAP2 SUB SWAP1 LOG1 DUP1 PUSH2 0x4448 DUP2 PUSH2 0x574A JUMP JUMPDEST SWAP2 POP POP PUSH2 0x4317 JUMP JUMPDEST POP PUSH1 0xA0 DUP4 ADD MLOAD DUP1 MLOAD PUSH1 0x20 SWAP1 SWAP2 ADD MLOAD PUSH2 0x4468 SWAP2 SWAP1 PUSH2 0x4659 JUMP JUMPDEST POP PUSH2 0x4471 PUSH2 0xBED JUMP JUMPDEST PUSH1 0xA0 DUP4 ADD MLOAD MLOAD PUSH1 0x3 SLOAD PUSH1 0x0 DUP1 MLOAD PUSH1 0x20 PUSH2 0x5E60 DUP4 CODECOPY DUP2 MLOAD SWAP2 MSTORE SWAP2 SWAP1 PUSH2 0x44A4 SWAP1 PUSH1 0x2 SWAP1 PUSH1 0x1 PUSH1 0x20 SHL SWAP1 DIV PUSH4 0xFFFFFFFF AND PUSH2 0x5C43 JUMP JUMPDEST DUP5 PUSH1 0x80 ADD MLOAD DUP5 PUSH1 0x40 MLOAD PUSH2 0x44BA SWAP5 SWAP4 SWAP3 SWAP2 SWAP1 PUSH2 0x5C60 JUMP JUMPDEST PUSH1 0x40 MLOAD DUP1 SWAP2 SUB SWAP1 LOG1 PUSH1 0xA0 DUP4 ADD MLOAD PUSH1 0x0 DUP1 MLOAD PUSH1 0x20 PUSH2 0x5E60 DUP4 CODECOPY DUP2 MLOAD SWAP2 MSTORE SWAP1 PUSH1 0x1 PUSH1 0x20 MUL ADD MLOAD PUSH1 0x3 SLOAD PUSH2 0x44FA SWAP1 PUSH1 0x1 SWAP1 PUSH1 0x1 PUSH1 0x20 SHL SWAP1 DIV PUSH4 0xFFFFFFFF AND PUSH2 0x5C43 JUMP JUMPDEST DUP5 PUSH1 0xA0 ADD MLOAD DUP5 PUSH1 0x40 MLOAD PUSH2 0x22DD SWAP5 SWAP4 SWAP3 SWAP2 SWAP1 PUSH2 0x5C60 JUMP JUMPDEST PUSH1 0x0 DUP1 DUP3 SLT ISZERO PUSH2 0x4528 JUMPI PUSH2 0x4523 DUP3 PUSH2 0x578A JUMP JUMPDEST PUSH2 0xBE7 JUMP JUMPDEST POP SWAP1 JUMP JUMPDEST PUSH1 0x0 PUSH1 0x1 DUP4 LT ISZERO PUSH2 0x4576 JUMPI PUSH1 0x40 MLOAD PUSH3 0x461BCD PUSH1 0xE5 SHL DUP2 MSTORE PUSH1 0x20 PUSH1 0x4 DUP3 ADD MSTORE PUSH1 0x14 PUSH1 0x24 DUP3 ADD MSTORE PUSH20 0x4552525F504F575F424153455F544F4F5F4C4F57 PUSH1 0x60 SHL PUSH1 0x44 DUP3 ADD MSTORE PUSH1 0x64 ADD PUSH2 0x107E JUMP JUMPDEST PUSH1 0x1 PUSH2 0x458B PUSH8 0xDE0B6B3A7640000 PUSH1 0x2 PUSH2 0x5A54 JUMP JUMPDEST PUSH2 0x4595 SWAP2 SWAP1 PUSH2 0x55E7 JUMP JUMPDEST DUP4 GT ISZERO PUSH2 0x45DC JUMPI PUSH1 0x40 MLOAD PUSH3 0x461BCD PUSH1 0xE5 SHL DUP2 MSTORE PUSH1 0x20 PUSH1 0x4 DUP3 ADD MSTORE PUSH1 0x15 PUSH1 0x24 DUP3 ADD MSTORE PUSH21 0x8AA4A4BEA09EAEBE8482A68ABEA89E9EBE90928E9 PUSH1 0x5B SHL PUSH1 0x44 DUP3 ADD MSTORE PUSH1 0x64 ADD PUSH2 0x107E JUMP JUMPDEST PUSH1 0x0 PUSH2 0x45E7 DUP4 PUSH2 0x4814 JUMP JUMPDEST SWAP1 POP PUSH1 0x0 PUSH2 0x45F5 DUP3 DUP6 PUSH2 0x55E7 JUMP JUMPDEST SWAP1 POP PUSH1 0x0 PUSH2 0x460B DUP7 PUSH2 0x4606 DUP6 PUSH2 0x4832 JUMP JUMPDEST PUSH2 0x4846 JUMP JUMPDEST SWAP1 POP DUP2 PUSH1 0x0 SUB PUSH2 0x461F JUMPI SWAP3 POP PUSH2 0xBE7 SWAP2 POP POP JUMP JUMPDEST PUSH1 0x0 PUSH2 0x4642 DUP8 DUP5 PUSH2 0x463D PUSH5 0x2540BE400 PUSH8 0xDE0B6B3A7640000 PUSH2 0x56AC JUMP JUMPDEST PUSH2 0x48BB JUMP JUMPDEST SWAP1 POP PUSH2 0x464E DUP3 DUP3 PUSH2 0x3C1F JUMP JUMPDEST SWAP8 SWAP7 POP POP POP POP POP POP POP JUMP JUMPDEST PUSH1 0x3 SLOAD PUSH1 0x1 PUSH1 0x20 SHL SWAP1 DIV PUSH4 0xFFFFFFFF AND PUSH2 0x4694 PUSH32 0x0 PUSH1 0x2 PUSH2 0x5DA4 JUMP JUMPDEST PUSH4 0xFFFFFFFF AND DUP2 PUSH4 0xFFFFFFFF AND SUB PUSH2 0x46AB JUMPI PUSH1 0x0 DUP1 REVERT JUMPDEST PUSH1 0x0 PUSH2 0x46B8 PUSH1 0x2 DUP4 PUSH2 0x5DB9 JUMP JUMPDEST SWAP1 POP PUSH1 0x0 PUSH2 0x46C6 DUP6 DUP6 PUSH2 0x1124 JUMP JUMPDEST SWAP1 POP PUSH1 0x0 DUP1 PUSH1 0x1 JUMPDEST PUSH32 0x0 PUSH4 0xFFFFFFFF AND DUP2 PUSH4 0xFFFFFFFF AND LT ISZERO PUSH2 0x478E JUMPI PUSH2 0x470D PUSH1 0x2 DUP7 PUSH2 0x5DDC JUMP JUMPDEST PUSH4 0xFFFFFFFF AND PUSH1 0x0 SUB PUSH2 0x4747 JUMPI PUSH4 0xFFFFFFFF DUP2 AND PUSH1 0x0 SWAP1 DUP2 MSTORE PUSH1 0x2 PUSH1 0x20 SWAP1 DUP2 MSTORE PUSH1 0x40 DUP1 DUP4 KECCAK256 SLOAD SWAP2 DUP4 SWAP1 MSTORE SWAP1 SWAP2 KECCAK256 DUP6 SWAP1 SSTORE DUP5 SWAP4 POP SWAP2 POP PUSH2 0x4763 JUMP JUMPDEST PUSH4 0xFFFFFFFF DUP2 AND PUSH1 0x0 SWAP1 DUP2 MSTORE PUSH1 0x20 DUP2 SWAP1 MSTORE PUSH1 0x40 SWAP1 KECCAK256 SLOAD SWAP3 POP DUP4 SWAP2 POP JUMPDEST PUSH2 0x476D DUP4 DUP4 PUSH2 0x1124 JUMP JUMPDEST SWAP4 POP PUSH2 0x477A PUSH1 0x2 DUP7 PUSH2 0x5DB9 JUMP JUMPDEST SWAP5 POP DUP1 PUSH2 0x4786 DUP2 PUSH2 0x5DFF JUMP JUMPDEST SWAP2 POP POP PUSH2 0x46CE JUMP JUMPDEST POP PUSH1 0x3 SLOAD PUSH1 0x0 SWAP1 PUSH1 0x64 SWAP1 PUSH2 0x47A9 SWAP1 PUSH4 0xFFFFFFFF AND PUSH1 0x1 PUSH2 0x5E22 JUMP JUMPDEST PUSH2 0x47B3 SWAP2 SWAP1 PUSH2 0x5DDC JUMP JUMPDEST PUSH1 0x3 DUP1 SLOAD PUSH4 0xFFFFFFFF NOT AND PUSH4 0xFFFFFFFF DUP4 AND SWAP1 DUP2 OR SWAP1 SWAP2 SSTORE PUSH1 0x0 SWAP1 DUP2 MSTORE PUSH1 0x1 PUSH1 0x20 MSTORE PUSH1 0x40 SWAP1 KECCAK256 DUP6 SWAP1 SSTORE SWAP1 POP PUSH2 0x47E9 DUP7 PUSH1 0x2 PUSH2 0x5E22 JUMP JUMPDEST PUSH1 0x3 PUSH1 0x4 PUSH2 0x100 EXP DUP2 SLOAD DUP2 PUSH4 0xFFFFFFFF MUL NOT AND SWAP1 DUP4 PUSH4 0xFFFFFFFF AND MUL OR SWAP1 SSTORE POP POP POP POP POP POP SWAP3 SWAP2 POP POP JUMP JUMPDEST PUSH1 0x0 PUSH8 0xDE0B6B3A7640000 PUSH2 0x4828 DUP4 PUSH2 0x4832 JUMP JUMPDEST PUSH2 0xBE7 SWAP2 SWAP1 PUSH2 0x5A54 JUMP JUMPDEST PUSH1 0x0 PUSH2 0xBE7 PUSH8 0xDE0B6B3A7640000 DUP4 PUSH2 0x56AC JUMP JUMPDEST PUSH1 0x0 PUSH2 0x4853 PUSH1 0x2 DUP4 PUSH2 0x57B9 JUMP JUMPDEST PUSH1 0x0 SUB PUSH2 0x4868 JUMPI PUSH8 0xDE0B6B3A7640000 PUSH2 0x486A JUMP JUMPDEST DUP3 JUMPDEST SWAP1 POP PUSH2 0x4877 PUSH1 0x2 DUP4 PUSH2 0x56AC JUMP JUMPDEST SWAP2 POP JUMPDEST DUP2 ISZERO PUSH2 0xBE7 JUMPI PUSH2 0x488A DUP4 DUP5 PUSH2 0x3C1F JUMP JUMPDEST SWAP3 POP PUSH2 0x4897 PUSH1 0x2 DUP4 PUSH2 0x57B9 JUMP JUMPDEST ISZERO PUSH2 0x48A9 JUMPI PUSH2 0x48A6 DUP2 DUP5 PUSH2 0x3C1F JUMP JUMPDEST SWAP1 POP JUMPDEST PUSH2 0x48B4 PUSH1 0x2 DUP4 PUSH2 0x56AC JUMP JUMPDEST SWAP2 POP PUSH2 0x487A JUMP JUMPDEST PUSH1 0x0 DUP3 DUP2 DUP1 PUSH2 0x48D2 DUP8 PUSH8 0xDE0B6B3A7640000 PUSH2 0x49AE JUMP JUMPDEST PUSH8 0xDE0B6B3A7640000 SWAP6 POP SWAP1 SWAP3 POP SWAP1 POP DUP4 PUSH1 0x0 PUSH1 0x1 JUMPDEST DUP8 DUP4 LT PUSH2 0x49A1 JUMPI PUSH1 0x0 PUSH2 0x4903 PUSH8 0xDE0B6B3A7640000 DUP4 PUSH2 0x5A54 JUMP JUMPDEST SWAP1 POP PUSH1 0x0 DUP1 PUSH2 0x4923 DUP10 PUSH2 0x491E PUSH8 0xDE0B6B3A7640000 DUP7 PUSH2 0x55E7 JUMP JUMPDEST PUSH2 0x49AE JUMP JUMPDEST SWAP2 POP SWAP2 POP PUSH2 0x4935 DUP7 PUSH2 0x162F DUP5 DUP12 PUSH2 0x3C1F JUMP JUMPDEST SWAP6 POP PUSH2 0x4941 DUP7 DUP5 PUSH2 0x3B43 JUMP JUMPDEST SWAP6 POP DUP6 PUSH1 0x0 SUB PUSH2 0x4953 JUMPI POP POP POP PUSH2 0x49A1 JUMP JUMPDEST DUP7 ISZERO PUSH2 0x495D JUMPI SWAP4 ISZERO SWAP4 JUMPDEST DUP1 ISZERO PUSH2 0x4967 JUMPI SWAP4 ISZERO SWAP4 JUMPDEST DUP5 ISZERO PUSH2 0x497E JUMPI PUSH2 0x4977 DUP7 DUP12 PUSH2 0x55E7 JUMP JUMPDEST SWAP10 POP PUSH2 0x498B JUMP JUMPDEST PUSH2 0x4988 DUP7 DUP12 PUSH2 0x55D4 JUMP JUMPDEST SWAP10 POP JUMPDEST POP POP POP DUP1 DUP1 PUSH2 0x4999 SWAP1 PUSH2 0x574A JUMP JUMPDEST SWAP2 POP POP PUSH2 0x48E8 JUMP JUMPDEST POP POP POP POP POP POP SWAP4 SWAP3 POP POP POP JUMP JUMPDEST PUSH1 0x0 DUP1 DUP3 DUP5 LT PUSH2 0x49CD JUMPI PUSH2 0x49C2 DUP4 DUP6 PUSH2 0x55E7 JUMP JUMPDEST PUSH1 0x0 SWAP2 POP SWAP2 POP PUSH2 0x49DE JUMP JUMPDEST PUSH2 0x49D7 DUP5 DUP5 PUSH2 0x55E7 JUMP JUMPDEST PUSH1 0x1 SWAP2 POP SWAP2 POP JUMPDEST SWAP3 POP SWAP3 SWAP1 POP JUMP JUMPDEST PUSH1 0x40 MLOAD DUP1 PUSH1 0x40 ADD PUSH1 0x40 MSTORE DUP1 PUSH1 0x2 SWAP1 PUSH1 0x20 DUP3 MUL DUP1 CALLDATASIZE DUP4 CALLDATACOPY POP SWAP2 SWAP3 SWAP2 POP POP JUMP JUMPDEST PUSH1 0x40 MLOAD DUP1 PUSH1 0x40 ADD PUSH1 0x40 MSTORE DUP1 PUSH2 0x4A16 PUSH2 0x4AD5 JUMP JUMPDEST DUP2 MSTORE PUSH1 0x20 ADD PUSH2 0x4A23 PUSH2 0x4A9C JUMP JUMPDEST SWAP1 MSTORE SWAP1 JUMP JUMPDEST DUP3 DUP1 SLOAD DUP3 DUP3 SSTORE SWAP1 PUSH1 0x0 MSTORE PUSH1 0x20 PUSH1 0x0 KECCAK256 SWAP1 DUP2 ADD SWAP3 DUP3 ISZERO PUSH2 0x4A63 JUMPI SWAP2 PUSH1 0x20 MUL DUP3 ADD JUMPDEST DUP3 DUP2 GT ISZERO PUSH2 0x4A63 JUMPI DUP3 MLOAD DUP3 SSTORE SWAP2 PUSH1 0x20 ADD SWAP2 SWAP1 PUSH1 0x1 ADD SWAP1 PUSH2 0x4A48 JUMP JUMPDEST POP PUSH2 0x4528 SWAP3 SWAP2 POP PUSH2 0x4B41 JUMP JUMPDEST DUP3 PUSH1 0x2 DUP2 ADD SWAP3 DUP3 ISZERO PUSH2 0x4A63 JUMPI SWAP2 PUSH1 0x20 MUL DUP3 ADD DUP3 DUP2 GT ISZERO PUSH2 0x4A63 JUMPI DUP3 MLOAD DUP3 SSTORE SWAP2 PUSH1 0x20 ADD SWAP2 SWAP1 PUSH1 0x1 ADD SWAP1 PUSH2 0x4A48 JUMP JUMPDEST PUSH1 0x40 MLOAD DUP1 PUSH1 0xC0 ADD PUSH1 0x40 MSTORE DUP1 PUSH1 0x60 DUP2 MSTORE PUSH1 0x20 ADD PUSH1 0x0 DUP1 NOT AND DUP2 MSTORE PUSH1 0x20 ADD PUSH1 0x0 DUP2 MSTORE PUSH1 0x20 ADD PUSH1 0x0 DUP2 MSTORE PUSH1 0x20 ADD PUSH1 0x60 DUP2 MSTORE PUSH1 0x20 ADD PUSH2 0x4A23 PUSH2 0x49E5 JUMP JUMPDEST PUSH1 0x40 MLOAD DUP1 PUSH1 0xC0 ADD PUSH1 0x40 MSTORE DUP1 PUSH1 0x0 PUSH1 0x1 PUSH1 0x1 PUSH1 0xA0 SHL SUB AND DUP2 MSTORE PUSH1 0x20 ADD PUSH1 0x0 DUP2 MSTORE PUSH1 0x20 ADD PUSH1 0x0 DUP2 MSTORE PUSH1 0x20 ADD PUSH1 0x0 DUP2 MSTORE PUSH1 0x20 ADD PUSH1 0x60 DUP2 MSTORE PUSH1 0x20 ADD PUSH1 0x60 DUP2 MSTORE POP SWAP1 JUMP JUMPDEST PUSH1 0x40 MLOAD DUP1 PUSH1 0x40 ADD PUSH1 0x40 MSTORE DUP1 PUSH1 0x2 SWAP1 JUMPDEST PUSH2 0x4B2B PUSH2 0x49E5 JUMP JUMPDEST DUP2 MSTORE PUSH1 0x20 ADD SWAP1 PUSH1 0x1 SWAP1 SUB SWAP1 DUP2 PUSH2 0x4B23 JUMPI SWAP1 POP POP SWAP1 JUMP JUMPDEST JUMPDEST DUP1 DUP3 GT ISZERO PUSH2 0x4528 JUMPI PUSH1 0x0 DUP2 SSTORE PUSH1 0x1 ADD PUSH2 0x4B42 JUMP JUMPDEST PUSH1 0x0 JUMPDEST DUP4 DUP2 LT ISZERO PUSH2 0x4B71 JUMPI DUP2 DUP2 ADD MLOAD DUP4 DUP3 ADD MSTORE PUSH1 0x20 ADD PUSH2 0x4B59 JUMP JUMPDEST POP POP PUSH1 0x0 SWAP2 ADD MSTORE JUMP JUMPDEST PUSH1 0x0 DUP2 MLOAD DUP1 DUP5 MSTORE PUSH2 0x4B92 DUP2 PUSH1 0x20 DUP7 ADD PUSH1 0x20 DUP7 ADD PUSH2 0x4B56 JUMP JUMPDEST PUSH1 0x1F ADD PUSH1 0x1F NOT AND SWAP3 SWAP1 SWAP3 ADD PUSH1 0x20 ADD SWAP3 SWAP2 POP POP JUMP JUMPDEST PUSH1 0x20 DUP2 MSTORE PUSH1 0x0 PUSH2 0x4BB9 PUSH1 0x20 DUP4 ADD DUP5 PUSH2 0x4B7A JUMP JUMPDEST SWAP4 SWAP3 POP POP POP JUMP JUMPDEST PUSH1 0x1 PUSH1 0x1 PUSH1 0xA0 SHL SUB DUP2 AND DUP2 EQ PUSH2 0x4BD5 JUMPI PUSH1 0x0 DUP1 REVERT JUMPDEST POP JUMP JUMPDEST DUP1 CALLDATALOAD PUSH2 0x1C4A DUP2 PUSH2 0x4BC0 JUMP JUMPDEST PUSH1 0x0 DUP1 PUSH1 0x40 DUP4 DUP6 SUB SLT ISZERO PUSH2 0x4BF6 JUMPI PUSH1 0x0 DUP1 REVERT JUMPDEST DUP3 CALLDATALOAD PUSH2 0x4C01 DUP2 PUSH2 0x4BC0 JUMP JUMPDEST SWAP5 PUSH1 0x20 SWAP4 SWAP1 SWAP4 ADD CALLDATALOAD SWAP4 POP POP POP JUMP JUMPDEST PUSH1 0x0 PUSH1 0x20 DUP3 DUP5 SUB SLT ISZERO PUSH2 0x4C21 JUMPI PUSH1 0x0 DUP1 REVERT JUMPDEST POP CALLDATALOAD SWAP2 SWAP1 POP JUMP JUMPDEST PUSH1 0x0 DUP1 PUSH1 0x0 PUSH1 0x60 DUP5 DUP7 SUB SLT ISZERO PUSH2 0x4C3D JUMPI PUSH1 0x0 DUP1 REVERT JUMPDEST DUP4 CALLDATALOAD PUSH2 0x4C48 DUP2 PUSH2 0x4BC0 JUMP JUMPDEST SWAP3 POP PUSH1 0x20 DUP5 ADD CALLDATALOAD PUSH2 0x4C58 DUP2 PUSH2 0x4BC0 JUMP JUMPDEST SWAP3 SWAP6 SWAP3 SWAP5 POP POP POP PUSH1 0x40 SWAP2 SWAP1 SWAP2 ADD CALLDATALOAD SWAP1 JUMP JUMPDEST PUSH1 0x0 DUP1 PUSH1 0x40 DUP4 DUP6 SUB SLT ISZERO PUSH2 0x4C7C JUMPI PUSH1 0x0 DUP1 REVERT JUMPDEST POP POP DUP1 CALLDATALOAD SWAP3 PUSH1 0x20 SWAP1 SWAP2 ADD CALLDATALOAD SWAP2 POP JUMP JUMPDEST PUSH1 0x20 DUP1 DUP3 MSTORE DUP3 MLOAD DUP3 DUP3 ADD DUP2 SWAP1 MSTORE PUSH1 0x0 SWAP2 SWAP1 DUP5 DUP3 ADD SWAP1 PUSH1 0x40 DUP6 ADD SWAP1 DUP5 JUMPDEST DUP2 DUP2 LT ISZERO PUSH2 0x4CCC JUMPI DUP4 MLOAD PUSH1 0x1 PUSH1 0x1 PUSH1 0xA0 SHL SUB AND DUP4 MSTORE SWAP3 DUP5 ADD SWAP3 SWAP2 DUP5 ADD SWAP2 PUSH1 0x1 ADD PUSH2 0x4CA7 JUMP JUMPDEST POP SWAP1 SWAP7 SWAP6 POP POP POP POP POP POP JUMP JUMPDEST PUSH1 0x0 DUP1 PUSH1 0x0 PUSH1 0x60 DUP5 DUP7 SUB SLT ISZERO PUSH2 0x4CED JUMPI PUSH1 0x0 DUP1 REVERT JUMPDEST POP POP DUP2 CALLDATALOAD SWAP4 PUSH1 0x20 DUP4 ADD CALLDATALOAD SWAP4 POP PUSH1 0x40 SWAP1 SWAP3 ADD CALLDATALOAD SWAP2 SWAP1 POP JUMP JUMPDEST PUSH1 0x1 DUP1 PUSH1 0xA0 SHL SUB DUP2 MLOAD AND DUP3 MSTORE PUSH1 0x20 DUP2 ADD MLOAD PUSH1 0x20 DUP4 ADD MSTORE PUSH1 0x40 DUP2 ADD MLOAD PUSH1 0x40 DUP4 ADD MSTORE PUSH1 0x60 DUP2 ADD MLOAD PUSH1 0x60 DUP4 ADD MSTORE PUSH1 0x0 PUSH1 0x80 DUP3 ADD MLOAD PUSH1 0xC0 PUSH1 0x80 DUP6 ADD MSTORE PUSH2 0x4D49 PUSH1 0xC0 DUP6 ADD DUP3 PUSH2 0x4B7A JUMP JUMPDEST SWAP1 POP PUSH1 0xA0 DUP4 ADD MLOAD DUP5 DUP3 SUB PUSH1 0xA0 DUP7 ADD MSTORE PUSH2 0x3C16 DUP3 DUP3 PUSH2 0x4B7A JUMP JUMPDEST DUP1 PUSH1 0x0 JUMPDEST PUSH1 0x2 DUP2 LT ISZERO PUSH2 0x4D85 JUMPI DUP2 MLOAD DUP5 MSTORE PUSH1 0x20 SWAP4 DUP5 ADD SWAP4 SWAP1 SWAP2 ADD SWAP1 PUSH1 0x1 ADD PUSH2 0x4D66 JUMP JUMPDEST POP POP POP POP JUMP JUMPDEST PUSH1 0x0 PUSH1 0x20 DUP1 DUP4 MSTORE DUP4 MLOAD PUSH1 0x40 DUP3 DUP6 ADD MSTORE PUSH2 0x4DA7 PUSH1 0x60 DUP6 ADD DUP3 PUSH2 0x4D04 JUMP JUMPDEST SWAP1 POP DUP2 DUP6 ADD MLOAD PUSH1 0x1F NOT DUP6 DUP4 SUB ADD PUSH1 0x40 DUP7 ADD MSTORE DUP1 MLOAD PUSH1 0xE0 DUP4 MSTORE PUSH2 0x4DCC PUSH1 0xE0 DUP5 ADD DUP3 PUSH2 0x4B7A JUMP JUMPDEST SWAP1 POP DUP4 DUP3 ADD MLOAD DUP5 DUP5 ADD MSTORE PUSH1 0x40 DUP3 ADD MLOAD PUSH1 0x40 DUP5 ADD MSTORE PUSH1 0x60 DUP3 ADD MLOAD PUSH1 0x60 DUP5 ADD MSTORE PUSH1 0x80 DUP3 ADD MLOAD DUP4 DUP3 SUB PUSH1 0x80 DUP6 ADD MSTORE DUP2 DUP2 MLOAD DUP1 DUP5 MSTORE DUP7 DUP5 ADD SWAP2 POP DUP7 DUP4 ADD SWAP4 POP PUSH1 0x0 SWAP3 POP JUMPDEST DUP1 DUP4 LT ISZERO PUSH2 0x4E2C JUMPI DUP4 MLOAD DUP3 MSTORE SWAP3 DUP7 ADD SWAP3 PUSH1 0x1 SWAP3 SWAP1 SWAP3 ADD SWAP2 SWAP1 DUP7 ADD SWAP1 PUSH2 0x4E0C JUMP JUMPDEST POP PUSH1 0xA0 DUP5 ADD MLOAD SWAP6 POP PUSH2 0x21B6 PUSH1 0xA0 DUP7 ADD DUP8 PUSH2 0x4D62 JUMP JUMPDEST DUP1 ISZERO ISZERO DUP2 EQ PUSH2 0x4BD5 JUMPI PUSH1 0x0 DUP1 REVERT JUMPDEST PUSH1 0x0 DUP1 PUSH1 0x0 DUP1 PUSH1 0x80 DUP6 DUP8 SUB SLT ISZERO PUSH2 0x4E65 JUMPI PUSH1 0x0 DUP1 REVERT JUMPDEST DUP5 CALLDATALOAD PUSH2 0x4E70 DUP2 PUSH2 0x4E41 JUMP JUMPDEST SWAP7 PUSH1 0x20 DUP7 ADD CALLDATALOAD SWAP7 POP PUSH1 0x40 DUP7 ADD CALLDATALOAD SWAP6 PUSH1 0x60 ADD CALLDATALOAD SWAP5 POP SWAP3 POP POP POP JUMP JUMPDEST PUSH1 0x20 DUP1 DUP3 MSTORE DUP3 MLOAD DUP3 DUP3 ADD DUP2 SWAP1 MSTORE PUSH1 0x0 SWAP2 SWAP1 PUSH1 0x40 SWAP1 DUP2 DUP6 ADD SWAP1 DUP7 DUP5 ADD DUP6 JUMPDEST DUP3 DUP2 LT ISZERO PUSH2 0x4ED5 JUMPI DUP2 MLOAD DUP1 MLOAD DUP6 MSTORE DUP7 ADD MLOAD PUSH1 0x1 PUSH1 0x1 PUSH1 0xA0 SHL SUB AND DUP7 DUP6 ADD MSTORE SWAP3 DUP5 ADD SWAP3 SWAP1 DUP6 ADD SWAP1 PUSH1 0x1 ADD PUSH2 0x4EA7 JUMP JUMPDEST POP SWAP2 SWAP8 SWAP7 POP POP POP POP POP POP POP JUMP JUMPDEST PUSH1 0x0 PUSH1 0x20 DUP3 DUP5 SUB SLT ISZERO PUSH2 0x4EF4 JUMPI PUSH1 0x0 DUP1 REVERT JUMPDEST DUP2 CALLDATALOAD PUSH2 0x4BB9 DUP2 PUSH2 0x4BC0 JUMP JUMPDEST PUSH1 0x0 DUP1 PUSH1 0x0 DUP1 PUSH1 0x80 DUP6 DUP8 SUB SLT ISZERO PUSH2 0x4F15 JUMPI PUSH1 0x0 DUP1 REVERT JUMPDEST POP POP DUP3 CALLDATALOAD SWAP5 PUSH1 0x20 DUP5 ADD CALLDATALOAD SWAP5 POP PUSH1 0x40 DUP5 ADD CALLDATALOAD SWAP4 PUSH1 0x60 ADD CALLDATALOAD SWAP3 POP SWAP1 POP JUMP JUMPDEST PUSH1 0x0 DUP1 PUSH1 0x0 DUP1 PUSH1 0x80 DUP6 DUP8 SUB SLT ISZERO PUSH2 0x4F47 JUMPI PUSH1 0x0 DUP1 REVERT JUMPDEST DUP5 CALLDATALOAD SWAP4 POP PUSH1 0x20 DUP6 ADD CALLDATALOAD SWAP3 POP PUSH1 0x40 DUP6 ADD CALLDATALOAD SWAP2 POP PUSH1 0x60 DUP6 ADD CALLDATALOAD PUSH2 0x4F67 DUP2 PUSH2 0x4E41 JUMP JUMPDEST SWAP4 SWAP7 SWAP3 SWAP6 POP SWAP1 SWAP4 POP POP JUMP JUMPDEST PUSH4 0x4E487B71 PUSH1 0xE0 SHL PUSH1 0x0 MSTORE PUSH1 0x41 PUSH1 0x4 MSTORE PUSH1 0x24 PUSH1 0x0 REVERT JUMPDEST PUSH1 0x40 MLOAD PUSH1 0xC0 DUP2 ADD PUSH1 0x1 PUSH1 0x1 PUSH1 0x40 SHL SUB DUP2 GT DUP3 DUP3 LT OR ISZERO PUSH2 0x4FAA JUMPI PUSH2 0x4FAA PUSH2 0x4F72 JUMP JUMPDEST PUSH1 0x40 MSTORE SWAP1 JUMP JUMPDEST PUSH1 0x40 DUP1 MLOAD SWAP1 DUP2 ADD PUSH1 0x1 PUSH1 0x1 PUSH1 0x40 SHL SUB DUP2 GT DUP3 DUP3 LT OR ISZERO PUSH2 0x4FAA JUMPI PUSH2 0x4FAA PUSH2 0x4F72 JUMP JUMPDEST PUSH1 0x40 MLOAD PUSH1 0x1F DUP3 ADD PUSH1 0x1F NOT AND DUP2 ADD PUSH1 0x1 PUSH1 0x1 PUSH1 0x40 SHL SUB DUP2 GT DUP3 DUP3 LT OR ISZERO PUSH2 0x4FFA JUMPI PUSH2 0x4FFA PUSH2 0x4F72 JUMP JUMPDEST PUSH1 0x40 MSTORE SWAP2 SWAP1 POP JUMP JUMPDEST PUSH1 0x0 PUSH1 0x1 PUSH1 0x1 PUSH1 0x40 SHL SUB DUP3 GT ISZERO PUSH2 0x501B JUMPI PUSH2 0x501B PUSH2 0x4F72 JUMP JUMPDEST POP PUSH1 0x5 SHL PUSH1 0x20 ADD SWAP1 JUMP JUMPDEST PUSH1 0x0 DUP3 PUSH1 0x1F DUP4 ADD SLT PUSH2 0x5036 JUMPI PUSH1 0x0 DUP1 REVERT JUMPDEST DUP2 CALLDATALOAD PUSH1 0x20 PUSH2 0x504B PUSH2 0x5046 DUP4 PUSH2 0x5002 JUMP JUMPDEST PUSH2 0x4FD2 JUMP JUMPDEST DUP3 DUP2 MSTORE PUSH1 0x5 SWAP3 SWAP1 SWAP3 SHL DUP5 ADD DUP2 ADD SWAP2 DUP2 DUP2 ADD SWAP1 DUP7 DUP5 GT ISZERO PUSH2 0x506A JUMPI PUSH1 0x0 DUP1 REVERT JUMPDEST DUP3 DUP7 ADD JUMPDEST DUP5 DUP2 LT ISZERO PUSH2 0x508E JUMPI DUP1 CALLDATALOAD PUSH2 0x5081 DUP2 PUSH2 0x4BC0 JUMP JUMPDEST DUP4 MSTORE SWAP2 DUP4 ADD SWAP2 DUP4 ADD PUSH2 0x506E JUMP JUMPDEST POP SWAP7 SWAP6 POP POP POP POP POP POP JUMP JUMPDEST PUSH1 0x0 DUP1 PUSH1 0x0 DUP1 PUSH1 0x0 DUP1 PUSH1 0xC0 DUP8 DUP10 SUB SLT ISZERO PUSH2 0x50B2 JUMPI PUSH1 0x0 DUP1 REVERT JUMPDEST DUP7 CALLDATALOAD PUSH1 0x1 PUSH1 0x1 PUSH1 0x40 SHL SUB DUP1 DUP3 GT ISZERO PUSH2 0x50C9 JUMPI PUSH1 0x0 DUP1 REVERT JUMPDEST DUP2 DUP10 ADD SWAP2 POP DUP10 PUSH1 0x1F DUP4 ADD SLT PUSH2 0x50DD JUMPI PUSH1 0x0 DUP1 REVERT JUMPDEST DUP2 CALLDATALOAD PUSH1 0x20 PUSH2 0x50ED PUSH2 0x5046 DUP4 PUSH2 0x5002 JUMP JUMPDEST DUP3 DUP2 MSTORE PUSH1 0x5 SWAP3 SWAP1 SWAP3 SHL DUP5 ADD DUP2 ADD SWAP2 DUP2 DUP2 ADD SWAP1 DUP14 DUP5 GT ISZERO PUSH2 0x510C JUMPI PUSH1 0x0 DUP1 REVERT JUMPDEST SWAP5 DUP3 ADD SWAP5 JUMPDEST DUP4 DUP7 LT ISZERO PUSH2 0x512A JUMPI DUP6 CALLDATALOAD DUP3 MSTORE SWAP5 DUP3 ADD SWAP5 SWAP1 DUP3 ADD SWAP1 PUSH2 0x5111 JUMP JUMPDEST SWAP11 POP POP DUP11 ADD CALLDATALOAD SWAP3 POP POP DUP1 DUP3 GT ISZERO PUSH2 0x5140 JUMPI PUSH1 0x0 DUP1 REVERT JUMPDEST POP PUSH2 0x514D DUP10 DUP3 DUP11 ADD PUSH2 0x5025 JUMP JUMPDEST SWAP6 POP POP PUSH1 0x40 DUP8 ADD CALLDATALOAD SWAP4 POP PUSH1 0x60 DUP8 ADD CALLDATALOAD SWAP3 POP PUSH2 0x516A PUSH1 0x80 DUP9 ADD PUSH2 0x4BD8 JUMP JUMPDEST SWAP2 POP PUSH2 0x5178 PUSH1 0xA0 DUP9 ADD PUSH2 0x4BD8 JUMP JUMPDEST SWAP1 POP SWAP3 SWAP6 POP SWAP3 SWAP6 POP SWAP3 SWAP6 JUMP JUMPDEST PUSH1 0x0 PUSH1 0x1 PUSH1 0x1 PUSH1 0x40 SHL SUB DUP3 GT ISZERO PUSH2 0x519D JUMPI PUSH2 0x519D PUSH2 0x4F72 JUMP JUMPDEST POP PUSH1 0x1F ADD PUSH1 0x1F NOT AND PUSH1 0x20 ADD SWAP1 JUMP JUMPDEST PUSH1 0x0 DUP3 PUSH1 0x1F DUP4 ADD SLT PUSH2 0x51BC JUMPI PUSH1 0x0 DUP1 REVERT JUMPDEST DUP2 CALLDATALOAD PUSH2 0x51CA PUSH2 0x5046 DUP3 PUSH2 0x5184 JUMP JUMPDEST DUP2 DUP2 MSTORE DUP5 PUSH1 0x20 DUP4 DUP7 ADD ADD GT ISZERO PUSH2 0x51DF JUMPI PUSH1 0x0 DUP1 REVERT JUMPDEST DUP2 PUSH1 0x20 DUP6 ADD PUSH1 0x20 DUP4 ADD CALLDATACOPY PUSH1 0x0 SWAP2 DUP2 ADD PUSH1 0x20 ADD SWAP2 SWAP1 SWAP2 MSTORE SWAP4 SWAP3 POP POP POP JUMP JUMPDEST PUSH1 0x0 DUP3 PUSH1 0x1F DUP4 ADD SLT PUSH2 0x520D JUMPI PUSH1 0x0 DUP1 REVERT JUMPDEST DUP2 CALLDATALOAD PUSH1 0x20 PUSH2 0x521D PUSH2 0x5046 DUP4 PUSH2 0x5002 JUMP JUMPDEST DUP3 DUP2 MSTORE PUSH1 0x5 SWAP3 SWAP1 SWAP3 SHL DUP5 ADD DUP2 ADD SWAP2 DUP2 DUP2 ADD SWAP1 DUP7 DUP5 GT ISZERO PUSH2 0x523C JUMPI PUSH1 0x0 DUP1 REVERT JUMPDEST DUP3 DUP7 ADD JUMPDEST DUP5 DUP2 LT ISZERO PUSH2 0x508E JUMPI DUP1 CALLDATALOAD DUP4 MSTORE SWAP2 DUP4 ADD SWAP2 DUP4 ADD PUSH2 0x5240 JUMP JUMPDEST PUSH1 0x0 DUP3 PUSH1 0x1F DUP4 ADD SLT PUSH2 0x5268 JUMPI PUSH1 0x0 DUP1 REVERT JUMPDEST PUSH2 0x5270 PUSH2 0x4FB0 JUMP JUMPDEST DUP1 PUSH1 0x40 DUP5 ADD DUP6 DUP2 GT ISZERO PUSH2 0x5282 JUMPI PUSH1 0x0 DUP1 REVERT JUMPDEST DUP5 JUMPDEST DUP2 DUP2 LT ISZERO PUSH2 0x529C JUMPI DUP1 CALLDATALOAD DUP5 MSTORE PUSH1 0x20 SWAP4 DUP5 ADD SWAP4 ADD PUSH2 0x5284 JUMP JUMPDEST POP SWAP1 SWAP6 SWAP5 POP POP POP POP POP JUMP JUMPDEST PUSH1 0x0 PUSH1 0xE0 DUP3 DUP5 SUB SLT ISZERO PUSH2 0x52B9 JUMPI PUSH1 0x0 DUP1 REVERT JUMPDEST PUSH2 0x52C1 PUSH2 0x4F88 JUMP JUMPDEST SWAP1 POP DUP2 CALLDATALOAD PUSH1 0x1 PUSH1 0x1 PUSH1 0x40 SHL SUB DUP1 DUP3 GT ISZERO PUSH2 0x52DA JUMPI PUSH1 0x0 DUP1 REVERT JUMPDEST PUSH2 0x52E6 DUP6 DUP4 DUP7 ADD PUSH2 0x51AB JUMP JUMPDEST DUP4 MSTORE PUSH1 0x20 DUP5 ADD CALLDATALOAD PUSH1 0x20 DUP5 ADD MSTORE PUSH1 0x40 DUP5 ADD CALLDATALOAD PUSH1 0x40 DUP5 ADD MSTORE PUSH1 0x60 DUP5 ADD CALLDATALOAD PUSH1 0x60 DUP5 ADD MSTORE PUSH1 0x80 DUP5 ADD CALLDATALOAD SWAP2 POP DUP1 DUP3 GT ISZERO PUSH2 0x531A JUMPI PUSH1 0x0 DUP1 REVERT JUMPDEST POP PUSH2 0x5327 DUP5 DUP3 DUP6 ADD PUSH2 0x51FC JUMP JUMPDEST PUSH1 0x80 DUP4 ADD MSTORE POP PUSH2 0x533A DUP4 PUSH1 0xA0 DUP5 ADD PUSH2 0x5257 JUMP JUMPDEST PUSH1 0xA0 DUP3 ADD MSTORE SWAP3 SWAP2 POP POP JUMP JUMPDEST PUSH1 0x0 PUSH1 0xC0 DUP3 DUP5 SUB SLT ISZERO PUSH2 0x5357 JUMPI PUSH1 0x0 DUP1 REVERT JUMPDEST PUSH2 0x535F PUSH2 0x4F88 JUMP JUMPDEST SWAP1 POP PUSH2 0x536A DUP3 PUSH2 0x4BD8 JUMP JUMPDEST DUP2 MSTORE PUSH1 0x20 DUP3 DUP2 ADD CALLDATALOAD SWAP1 DUP3 ADD MSTORE PUSH1 0x40 DUP1 DUP4 ADD CALLDATALOAD SWAP1 DUP3 ADD MSTORE PUSH1 0x60 DUP1 DUP4 ADD CALLDATALOAD SWAP1 DUP3 ADD MSTORE PUSH1 0x80 DUP3 ADD CALLDATALOAD PUSH1 0x1 PUSH1 0x1 PUSH1 0x40 SHL SUB DUP1 DUP3 GT ISZERO PUSH2 0x53A4 JUMPI PUSH1 0x0 DUP1 REVERT JUMPDEST PUSH2 0x53B0 DUP6 DUP4 DUP7 ADD PUSH2 0x51AB JUMP JUMPDEST PUSH1 0x80 DUP5 ADD MSTORE PUSH1 0xA0 DUP5 ADD CALLDATALOAD SWAP2 POP DUP1 DUP3 GT ISZERO PUSH2 0x53C9 JUMPI PUSH1 0x0 DUP1 REVERT JUMPDEST POP PUSH2 0x53D6 DUP5 DUP3 DUP6 ADD PUSH2 0x51AB JUMP JUMPDEST PUSH1 0xA0 DUP4 ADD MSTORE POP SWAP3 SWAP2 POP POP JUMP JUMPDEST PUSH1 0x0 DUP1 PUSH1 0x40 DUP4 DUP6 SUB SLT ISZERO PUSH2 0x53F5 JUMPI PUSH1 0x0 DUP1 REVERT JUMPDEST DUP3 CALLDATALOAD PUSH1 0x1 PUSH1 0x1 PUSH1 0x40 SHL SUB DUP1 DUP3 GT ISZERO PUSH2 0x540C JUMPI PUSH1 0x0 DUP1 REVERT JUMPDEST PUSH2 0x5418 DUP7 DUP4 DUP8 ADD PUSH2 0x52A7 JUMP JUMPDEST SWAP4 POP PUSH1 0x20 DUP6 ADD CALLDATALOAD SWAP2 POP DUP1 DUP3 GT ISZERO PUSH2 0x542E JUMPI PUSH1 0x0 DUP1 REVERT JUMPDEST POP PUSH2 0x543B DUP6 DUP3 DUP7 ADD PUSH2 0x5345 JUMP JUMPDEST SWAP2 POP POP SWAP3 POP SWAP3 SWAP1 POP JUMP JUMPDEST PUSH1 0x0 DUP1 PUSH1 0x0 DUP1 PUSH1 0x80 DUP6 DUP8 SUB SLT ISZERO PUSH2 0x545B JUMPI PUSH1 0x0 DUP1 REVERT JUMPDEST DUP5 CALLDATALOAD PUSH1 0x1 PUSH1 0x1 PUSH1 0x40 SHL SUB DUP1 DUP3 GT ISZERO PUSH2 0x5472 JUMPI PUSH1 0x0 DUP1 REVERT JUMPDEST PUSH2 0x547E DUP9 DUP4 DUP10 ADD PUSH2 0x52A7 JUMP JUMPDEST SWAP6 POP PUSH1 0x20 DUP8 ADD CALLDATALOAD SWAP2 POP DUP1 DUP3 GT ISZERO PUSH2 0x5494 JUMPI PUSH1 0x0 DUP1 REVERT JUMPDEST POP PUSH2 0x54A1 DUP8 DUP3 DUP9 ADD PUSH2 0x5345 JUMP JUMPDEST SWAP4 POP POP PUSH1 0x40 DUP6 ADD CALLDATALOAD PUSH2 0x54B2 DUP2 PUSH2 0x4E41 JUMP JUMPDEST SWAP4 SWAP7 SWAP3 SWAP6 POP SWAP3 SWAP4 PUSH1 0x60 ADD CALLDATALOAD SWAP3 POP POP JUMP JUMPDEST PUSH1 0x0 DUP1 PUSH1 0x40 DUP4 DUP6 SUB SLT ISZERO PUSH2 0x54D5 JUMPI PUSH1 0x0 DUP1 REVERT JUMPDEST DUP3 CALLDATALOAD SWAP2 POP PUSH1 0x20 DUP4 ADD CALLDATALOAD PUSH1 0x1 PUSH1 0x1 PUSH1 0x40 SHL SUB DUP2 GT ISZERO PUSH2 0x54F2 JUMPI PUSH1 0x0 DUP1 REVERT JUMPDEST PUSH2 0x543B DUP6 DUP3 DUP7 ADD PUSH2 0x51AB JUMP JUMPDEST PUSH1 0x0 DUP1 PUSH1 0x40 DUP4 DUP6 SUB SLT ISZERO PUSH2 0x5511 JUMPI PUSH1 0x0 DUP1 REVERT JUMPDEST DUP3 CALLDATALOAD PUSH2 0x551C DUP2 PUSH2 0x4BC0 JUMP JUMPDEST SWAP2 POP PUSH1 0x20 DUP4 ADD CALLDATALOAD PUSH2 0x552C DUP2 PUSH2 0x4BC0 JUMP JUMPDEST DUP1 SWAP2 POP POP SWAP3 POP SWAP3 SWAP1 POP JUMP JUMPDEST PUSH1 0x0 DUP1 PUSH1 0x0 DUP1 PUSH1 0x0 PUSH1 0xA0 DUP7 DUP9 SUB SLT ISZERO PUSH2 0x554F JUMPI PUSH1 0x0 DUP1 REVERT JUMPDEST DUP6 CALLDATALOAD SWAP5 POP PUSH1 0x20 DUP7 ADD CALLDATALOAD SWAP4 POP PUSH1 0x40 DUP7 ADD CALLDATALOAD SWAP3 POP PUSH1 0x60 DUP7 ADD CALLDATALOAD SWAP2 POP PUSH1 0x80 DUP7 ADD CALLDATALOAD PUSH2 0x5576 DUP2 PUSH2 0x4E41 JUMP JUMPDEST DUP1 SWAP2 POP POP SWAP3 SWAP6 POP SWAP3 SWAP6 SWAP1 SWAP4 POP JUMP JUMPDEST PUSH1 0x1 DUP2 DUP2 SHR SWAP1 DUP3 AND DUP1 PUSH2 0x5598 JUMPI PUSH1 0x7F DUP3 AND SWAP2 POP JUMPDEST PUSH1 0x20 DUP3 LT DUP2 SUB PUSH2 0x55B8 JUMPI PUSH4 0x4E487B71 PUSH1 0xE0 SHL PUSH1 0x0 MSTORE PUSH1 0x22 PUSH1 0x4 MSTORE PUSH1 0x24 PUSH1 0x0 REVERT JUMPDEST POP SWAP2 SWAP1 POP JUMP JUMPDEST PUSH4 0x4E487B71 PUSH1 0xE0 SHL PUSH1 0x0 MSTORE PUSH1 0x11 PUSH1 0x4 MSTORE PUSH1 0x24 PUSH1 0x0 REVERT JUMPDEST DUP1 DUP3 ADD DUP1 DUP3 GT ISZERO PUSH2 0xBE7 JUMPI PUSH2 0xBE7 PUSH2 0x55BE JUMP JUMPDEST DUP2 DUP2 SUB DUP2 DUP2 GT ISZERO PUSH2 0xBE7 JUMPI PUSH2 0xBE7 PUSH2 0x55BE JUMP JUMPDEST PUSH4 0x4E487B71 PUSH1 0xE0 SHL PUSH1 0x0 MSTORE PUSH1 0x32 PUSH1 0x4 MSTORE PUSH1 0x24 PUSH1 0x0 REVERT JUMPDEST DUP8 DUP2 MSTORE DUP7 PUSH1 0x20 DUP3 ADD MSTORE DUP6 PUSH1 0x40 DUP3 ADD MSTORE DUP5 PUSH1 0x60 DUP3 ADD MSTORE PUSH1 0xE0 PUSH1 0x80 DUP3 ADD MSTORE PUSH1 0x0 PUSH2 0x563B PUSH1 0xE0 DUP4 ADD DUP7 PUSH2 0x4B7A JUMP JUMPDEST DUP3 DUP2 SUB PUSH1 0xA0 DUP5 ADD MSTORE PUSH2 0x564D DUP2 DUP7 PUSH2 0x4B7A JUMP JUMPDEST SWAP1 POP DUP3 DUP2 SUB PUSH1 0xC0 DUP5 ADD MSTORE PUSH2 0x5661 DUP2 DUP6 PUSH2 0x4B7A JUMP JUMPDEST SWAP11 SWAP10 POP POP POP POP POP POP POP POP POP POP JUMP JUMPDEST PUSH1 0x40 DUP2 ADD PUSH2 0xBE7 DUP3 DUP5 PUSH2 0x4D62 JUMP JUMPDEST PUSH1 0x0 PUSH1 0x20 DUP3 DUP5 SUB SLT ISZERO PUSH2 0x568F JUMPI PUSH1 0x0 DUP1 REVERT JUMPDEST POP MLOAD SWAP2 SWAP1 POP JUMP JUMPDEST PUSH4 0x4E487B71 PUSH1 0xE0 SHL PUSH1 0x0 MSTORE PUSH1 0x12 PUSH1 0x4 MSTORE PUSH1 0x24 PUSH1 0x0 REVERT JUMPDEST PUSH1 0x0 DUP3 PUSH2 0x56BB JUMPI PUSH2 0x56BB PUSH2 0x5696 JUMP JUMPDEST POP DIV SWAP1 JUMP JUMPDEST PUSH1 0x1 PUSH1 0x1 PUSH1 0xA0 SHL SUB SWAP3 SWAP1 SWAP3 AND DUP3 MSTORE PUSH1 0x20 DUP3 ADD MSTORE PUSH1 0x40 ADD SWAP1 JUMP JUMPDEST PUSH1 0x0 PUSH1 0x20 DUP3 DUP5 SUB SLT ISZERO PUSH2 0x56EB JUMPI PUSH1 0x0 DUP1 REVERT JUMPDEST DUP2 MLOAD PUSH2 0x4BB9 DUP2 PUSH2 0x4E41 JUMP JUMPDEST SWAP2 DUP3 MSTORE ISZERO ISZERO PUSH1 0x20 DUP3 ADD MSTORE PUSH1 0x40 ADD SWAP1 JUMP JUMPDEST PUSH1 0x1 PUSH1 0x1 PUSH1 0xA0 SHL SUB SWAP4 DUP5 AND DUP2 MSTORE SWAP2 SWAP1 SWAP3 AND PUSH1 0x20 DUP3 ADD MSTORE PUSH1 0x40 DUP2 ADD SWAP2 SWAP1 SWAP2 MSTORE PUSH1 0x60 ADD SWAP1 JUMP JUMPDEST PUSH1 0x0 PUSH4 0xFFFFFFFF DUP3 AND DUP1 PUSH2 0x5740 JUMPI PUSH2 0x5740 PUSH2 0x55BE JUMP JUMPDEST PUSH1 0x0 NOT ADD SWAP3 SWAP2 POP POP JUMP JUMPDEST PUSH1 0x0 PUSH1 0x1 DUP3 ADD PUSH2 0x575C JUMPI PUSH2 0x575C PUSH2 0x55BE JUMP JUMPDEST POP PUSH1 0x1 ADD SWAP1 JUMP JUMPDEST DUP2 DUP2 SUB PUSH1 0x0 DUP4 SLT DUP1 ISZERO DUP4 DUP4 SGT AND DUP4 DUP4 SLT DUP3 AND OR ISZERO PUSH2 0x5783 JUMPI PUSH2 0x5783 PUSH2 0x55BE JUMP JUMPDEST POP SWAP3 SWAP2 POP POP JUMP JUMPDEST PUSH1 0x0 PUSH1 0x1 PUSH1 0xFF SHL DUP3 ADD PUSH2 0x579F JUMPI PUSH2 0x579F PUSH2 0x55BE JUMP JUMPDEST POP PUSH1 0x0 SUB SWAP1 JUMP JUMPDEST PUSH1 0x20 DUP2 MSTORE PUSH1 0x0 PUSH2 0x4BB9 PUSH1 0x20 DUP4 ADD DUP5 PUSH2 0x4D04 JUMP JUMPDEST PUSH1 0x0 DUP3 PUSH2 0x57C8 JUMPI PUSH2 0x57C8 PUSH2 0x5696 JUMP JUMPDEST POP MOD SWAP1 JUMP JUMPDEST PUSH1 0x1F DUP3 GT ISZERO PUSH2 0x5817 JUMPI PUSH1 0x0 DUP2 DUP2 MSTORE PUSH1 0x20 DUP2 KECCAK256 PUSH1 0x1F DUP6 ADD PUSH1 0x5 SHR DUP2 ADD PUSH1 0x20 DUP7 LT ISZERO PUSH2 0x57F4 JUMPI POP DUP1 JUMPDEST PUSH1 0x1F DUP6 ADD PUSH1 0x5 SHR DUP3 ADD SWAP2 POP JUMPDEST DUP2 DUP2 LT ISZERO PUSH2 0x5813 JUMPI DUP3 DUP2 SSTORE PUSH1 0x1 ADD PUSH2 0x5800 JUMP JUMPDEST POP POP POP JUMPDEST POP POP POP JUMP JUMPDEST DUP2 MLOAD PUSH1 0x1 PUSH1 0x1 PUSH1 0x40 SHL SUB DUP2 GT ISZERO PUSH2 0x5835 JUMPI PUSH2 0x5835 PUSH2 0x4F72 JUMP JUMPDEST PUSH2 0x5849 DUP2 PUSH2 0x5843 DUP5 SLOAD PUSH2 0x5584 JUMP JUMPDEST DUP5 PUSH2 0x57CD JUMP JUMPDEST PUSH1 0x20 DUP1 PUSH1 0x1F DUP4 GT PUSH1 0x1 DUP2 EQ PUSH2 0x587E JUMPI PUSH1 0x0 DUP5 ISZERO PUSH2 0x5866 JUMPI POP DUP6 DUP4 ADD MLOAD JUMPDEST PUSH1 0x0 NOT PUSH1 0x3 DUP7 SWAP1 SHL SHR NOT AND PUSH1 0x1 DUP6 SWAP1 SHL OR DUP6 SSTORE PUSH2 0x5813 JUMP JUMPDEST PUSH1 0x0 DUP6 DUP2 MSTORE PUSH1 0x20 DUP2 KECCAK256 PUSH1 0x1F NOT DUP7 AND SWAP2 JUMPDEST DUP3 DUP2 LT ISZERO PUSH2 0x58AD JUMPI DUP9 DUP7 ADD MLOAD DUP3 SSTORE SWAP5 DUP5 ADD SWAP5 PUSH1 0x1 SWAP1 SWAP2 ADD SWAP1 DUP5 ADD PUSH2 0x588E JUMP JUMPDEST POP DUP6 DUP3 LT ISZERO PUSH2 0x58CB JUMPI DUP8 DUP6 ADD MLOAD PUSH1 0x0 NOT PUSH1 0x3 DUP9 SWAP1 SHL PUSH1 0xF8 AND SHR NOT AND DUP2 SSTORE JUMPDEST POP POP POP POP POP PUSH1 0x1 SWAP1 DUP2 SHL ADD SWAP1 SSTORE POP JUMP JUMPDEST PUSH1 0x60 DUP2 MSTORE PUSH1 0x0 PUSH2 0x58EE PUSH1 0x60 DUP4 ADD DUP7 PUSH2 0x4B7A JUMP JUMPDEST PUSH1 0x20 DUP4 ADD SWAP5 SWAP1 SWAP5 MSTORE POP PUSH1 0x40 ADD MSTORE SWAP2 SWAP1 POP JUMP JUMPDEST PUSH1 0x0 DUP3 PUSH1 0x1F DUP4 ADD SLT PUSH2 0x5911 JUMPI PUSH1 0x0 DUP1 REVERT JUMPDEST DUP2 MLOAD PUSH2 0x591F PUSH2 0x5046 DUP3 PUSH2 0x5184 JUMP JUMPDEST DUP2 DUP2 MSTORE DUP5 PUSH1 0x20 DUP4 DUP7 ADD ADD GT ISZERO PUSH2 0x5934 JUMPI PUSH1 0x0 DUP1 REVERT JUMPDEST PUSH2 0x11F9 DUP3 PUSH1 0x20 DUP4 ADD PUSH1 0x20 DUP8 ADD PUSH2 0x4B56 JUMP JUMPDEST PUSH1 0x0 DUP1 PUSH1 0x40 DUP4 DUP6 SUB SLT ISZERO PUSH2 0x5958 JUMPI PUSH1 0x0 DUP1 REVERT JUMPDEST DUP3 MLOAD PUSH1 0x1 PUSH1 0x1 PUSH1 0x40 SHL SUB DUP2 GT ISZERO PUSH2 0x596E JUMPI PUSH1 0x0 DUP1 REVERT JUMPDEST PUSH2 0x597A DUP6 DUP3 DUP7 ADD PUSH2 0x5900 JUMP JUMPDEST SWAP3 POP POP PUSH1 0x20 DUP4 ADD MLOAD PUSH2 0x552C DUP2 PUSH2 0x4BC0 JUMP JUMPDEST PUSH1 0x0 DUP1 PUSH1 0x0 DUP1 PUSH1 0x0 DUP1 PUSH1 0x0 PUSH1 0xE0 DUP9 DUP11 SUB SLT ISZERO PUSH2 0x59A6 JUMPI PUSH1 0x0 DUP1 REVERT JUMPDEST DUP8 MLOAD PUSH1 0x20 DUP10 ADD MLOAD PUSH1 0x40 DUP11 ADD MLOAD PUSH1 0x60 DUP12 ADD MLOAD PUSH1 0x80 DUP13 ADD MLOAD SWAP4 SWAP11 POP SWAP2 SWAP9 POP SWAP7 POP SWAP5 POP PUSH1 0x1 PUSH1 0x1 PUSH1 0x40 SHL SUB DUP1 DUP3 GT ISZERO PUSH2 0x59DB JUMPI PUSH1 0x0 DUP1 REVERT JUMPDEST PUSH2 0x59E7 DUP12 DUP4 DUP13 ADD PUSH2 0x5900 JUMP JUMPDEST SWAP5 POP PUSH1 0xA0 DUP11 ADD MLOAD SWAP2 POP DUP1 DUP3 GT ISZERO PUSH2 0x59FD JUMPI PUSH1 0x0 DUP1 REVERT JUMPDEST PUSH2 0x5A09 DUP12 DUP4 DUP13 ADD PUSH2 0x5900 JUMP JUMPDEST SWAP4 POP PUSH1 0xC0 DUP11 ADD MLOAD SWAP2 POP DUP1 DUP3 GT ISZERO PUSH2 0x5A1F JUMPI PUSH1 0x0 DUP1 REVERT JUMPDEST POP PUSH2 0x5A2C DUP11 DUP3 DUP12 ADD PUSH2 0x5900 JUMP JUMPDEST SWAP2 POP POP SWAP3 SWAP6 SWAP9 SWAP2 SWAP5 SWAP8 POP SWAP3 SWAP6 POP JUMP JUMPDEST DUP3 DUP2 MSTORE PUSH1 0x40 PUSH1 0x20 DUP3 ADD MSTORE PUSH1 0x0 PUSH2 0x11F9 PUSH1 0x40 DUP4 ADD DUP5 PUSH2 0x4B7A JUMP JUMPDEST DUP1 DUP3 MUL DUP2 ISZERO DUP3 DUP3 DIV DUP5 EQ OR PUSH2 0xBE7 JUMPI PUSH2 0xBE7 PUSH2 0x55BE JUMP JUMPDEST PUSH1 0x20 DUP1 DUP3 MSTORE PUSH1 0x10 SWAP1 DUP3 ADD MSTORE PUSH16 0x11549497D1125597D253951154939053 PUSH1 0x82 SHL PUSH1 0x40 DUP3 ADD MSTORE PUSH1 0x60 ADD SWAP1 JUMP JUMPDEST PUSH1 0x0 DUP3 PUSH1 0x1F DUP4 ADD SLT PUSH2 0x5AA6 JUMPI PUSH1 0x0 DUP1 REVERT JUMPDEST PUSH2 0x5AAE PUSH2 0x4FB0 JUMP JUMPDEST DUP1 PUSH1 0x40 DUP5 ADD DUP6 DUP2 GT ISZERO PUSH2 0x5AC0 JUMPI PUSH1 0x0 DUP1 REVERT JUMPDEST DUP5 JUMPDEST DUP2 DUP2 LT ISZERO PUSH2 0x529C JUMPI DUP1 MLOAD DUP5 MSTORE PUSH1 0x20 SWAP4 DUP5 ADD SWAP4 ADD PUSH2 0x5AC2 JUMP JUMPDEST PUSH1 0x0 DUP1 PUSH1 0x0 PUSH2 0x100 DUP5 DUP7 SUB SLT ISZERO PUSH2 0x5AF0 JUMPI PUSH1 0x0 DUP1 REVERT JUMPDEST PUSH2 0x5AFA DUP6 DUP6 PUSH2 0x5A95 JUMP JUMPDEST SWAP3 POP PUSH1 0x40 DUP6 PUSH1 0x5F DUP7 ADD SLT PUSH2 0x5B0D JUMPI PUSH1 0x0 DUP1 REVERT JUMPDEST PUSH2 0x5B15 PUSH2 0x4FB0 JUMP JUMPDEST DUP1 PUSH1 0xC0 DUP8 ADD DUP9 DUP2 GT ISZERO PUSH2 0x5B27 JUMPI PUSH1 0x0 DUP1 REVERT JUMPDEST DUP4 DUP9 ADD JUMPDEST DUP2 DUP2 LT ISZERO PUSH2 0x5B4C JUMPI PUSH2 0x5B3D DUP11 DUP3 PUSH2 0x5A95 JUMP JUMPDEST DUP5 MSTORE PUSH1 0x20 SWAP1 SWAP4 ADD SWAP3 DUP5 ADD PUSH2 0x5B2B JUMP JUMPDEST POP DUP2 SWAP6 POP PUSH2 0x5B5A DUP10 DUP3 PUSH2 0x5A95 JUMP JUMPDEST SWAP5 POP POP POP POP POP SWAP3 POP SWAP3 POP SWAP3 JUMP JUMPDEST DUP1 PUSH1 0x0 JUMPDEST PUSH1 0x2 DUP2 LT ISZERO PUSH2 0x4D85 JUMPI PUSH2 0x5B7F DUP5 DUP4 MLOAD PUSH2 0x4D62 JUMP JUMPDEST PUSH1 0x40 SWAP4 SWAP1 SWAP4 ADD SWAP3 PUSH1 0x20 SWAP2 SWAP1 SWAP2 ADD SWAP1 PUSH1 0x1 ADD PUSH2 0x5B6B JUMP JUMPDEST PUSH2 0x200 DUP2 ADD PUSH2 0x5BA4 DUP3 DUP8 PUSH2 0x4D62 JUMP JUMPDEST PUSH2 0x5BB1 PUSH1 0x40 DUP4 ADD DUP7 PUSH2 0x5B67 JUMP JUMPDEST PUSH2 0x5BBE PUSH1 0xC0 DUP4 ADD DUP6 PUSH2 0x4D62 JUMP JUMPDEST PUSH2 0x100 DUP3 ADD DUP4 PUSH1 0x0 JUMPDEST PUSH1 0x8 DUP2 LT ISZERO PUSH2 0x5BE6 JUMPI DUP2 MLOAD DUP4 MSTORE PUSH1 0x20 SWAP3 DUP4 ADD SWAP3 SWAP1 SWAP2 ADD SWAP1 PUSH1 0x1 ADD PUSH2 0x5BC7 JUMP JUMPDEST POP POP POP SWAP6 SWAP5 POP POP POP POP POP JUMP JUMPDEST PUSH2 0x3C0 DUP2 ADD PUSH2 0x5C01 DUP3 DUP8 PUSH2 0x4D62 JUMP JUMPDEST PUSH2 0x5C0E PUSH1 0x40 DUP4 ADD DUP7 PUSH2 0x5B67 JUMP JUMPDEST PUSH2 0x5C1B PUSH1 0xC0 DUP4 ADD DUP6 PUSH2 0x4D62 JUMP JUMPDEST PUSH2 0x100 DUP3 ADD DUP4 PUSH1 0x0 JUMPDEST PUSH1 0x16 DUP2 LT ISZERO PUSH2 0x5BE6 JUMPI DUP2 MLOAD DUP4 MSTORE PUSH1 0x20 SWAP3 DUP4 ADD SWAP3 SWAP1 SWAP2 ADD SWAP1 PUSH1 0x1 ADD PUSH2 0x5C24 JUMP JUMPDEST PUSH4 0xFFFFFFFF DUP3 DUP2 AND DUP3 DUP3 AND SUB SWAP1 DUP1 DUP3 GT ISZERO PUSH2 0x5783 JUMPI PUSH2 0x5783 PUSH2 0x55BE JUMP JUMPDEST DUP5 DUP2 MSTORE PUSH4 0xFFFFFFFF DUP5 AND PUSH1 0x20 DUP3 ADD MSTORE PUSH1 0x80 PUSH1 0x40 DUP3 ADD MSTORE PUSH1 0x0 PUSH2 0x5C85 PUSH1 0x80 DUP4 ADD DUP6 PUSH2 0x4B7A JUMP JUMPDEST SWAP1 POP DUP3 ISZERO ISZERO PUSH1 0x60 DUP4 ADD MSTORE SWAP6 SWAP5 POP POP POP POP POP JUMP JUMPDEST PUSH1 0x1 DUP2 DUP2 JUMPDEST DUP1 DUP6 GT ISZERO PUSH2 0x5CD5 JUMPI DUP2 PUSH4 0xFFFFFFFF DIV DUP3 GT ISZERO PUSH2 0x5CBB JUMPI PUSH2 0x5CBB PUSH2 0x55BE JUMP JUMPDEST DUP1 DUP6 AND ISZERO PUSH2 0x5CC8 JUMPI SWAP2 DUP2 MUL SWAP2 JUMPDEST SWAP4 DUP5 SHR SWAP4 SWAP1 DUP1 MUL SWAP1 PUSH2 0x5C9D JUMP JUMPDEST POP SWAP3 POP SWAP3 SWAP1 POP JUMP JUMPDEST PUSH1 0x0 DUP3 PUSH2 0x5CEC JUMPI POP PUSH1 0x1 PUSH2 0xBE7 JUMP JUMPDEST DUP2 PUSH2 0x5CF9 JUMPI POP PUSH1 0x0 PUSH2 0xBE7 JUMP JUMPDEST DUP2 PUSH1 0x1 DUP2 EQ PUSH2 0x5D0F JUMPI PUSH1 0x2 DUP2 EQ PUSH2 0x5D19 JUMPI PUSH2 0x5D4A JUMP JUMPDEST PUSH1 0x1 SWAP2 POP POP PUSH2 0xBE7 JUMP JUMPDEST PUSH1 0xFF DUP5 GT ISZERO PUSH2 0x5D2A JUMPI PUSH2 0x5D2A PUSH2 0x55BE JUMP JUMPDEST PUSH1 0x1 DUP5 SHL SWAP2 POP PUSH4 0xFFFFFFFF DUP3 GT ISZERO PUSH2 0x5D44 JUMPI PUSH2 0x5D44 PUSH2 0x55BE JUMP JUMPDEST POP PUSH2 0xBE7 JUMP JUMPDEST POP PUSH1 0x20 DUP4 LT PUSH2 0x133 DUP4 LT AND PUSH1 0x4E DUP5 LT PUSH1 0xB DUP5 LT AND OR ISZERO PUSH2 0x5D7C JUMPI POP DUP2 DUP2 EXP PUSH4 0xFFFFFFFF DUP2 GT ISZERO PUSH2 0x4523 JUMPI PUSH2 0x4523 PUSH2 0x55BE JUMP JUMPDEST PUSH2 0x5D86 DUP4 DUP4 PUSH2 0x5C98 JUMP JUMPDEST DUP1 PUSH4 0xFFFFFFFF DIV DUP3 GT ISZERO PUSH2 0x5D9C JUMPI PUSH2 0x5D9C PUSH2 0x55BE JUMP JUMPDEST MUL SWAP4 SWAP3 POP POP POP JUMP JUMPDEST PUSH1 0x0 PUSH4 0xFFFFFFFF PUSH2 0x11F9 DUP2 DUP6 AND DUP3 DUP6 AND PUSH2 0x5CDD JUMP JUMPDEST PUSH1 0x0 PUSH4 0xFFFFFFFF DUP1 DUP5 AND DUP1 PUSH2 0x5DD0 JUMPI PUSH2 0x5DD0 PUSH2 0x5696 JUMP JUMPDEST SWAP3 AND SWAP2 SWAP1 SWAP2 DIV SWAP3 SWAP2 POP POP JUMP JUMPDEST PUSH1 0x0 PUSH4 0xFFFFFFFF DUP1 DUP5 AND DUP1 PUSH2 0x5DF3 JUMPI PUSH2 0x5DF3 PUSH2 0x5696 JUMP JUMPDEST SWAP3 AND SWAP2 SWAP1 SWAP2 MOD SWAP3 SWAP2 POP POP JUMP JUMPDEST PUSH1 0x0 PUSH4 0xFFFFFFFF DUP1 DUP4 AND DUP2 DUP2 SUB PUSH2 0x5E18 JUMPI PUSH2 0x5E18 PUSH2 0x55BE JUMP JUMPDEST PUSH1 0x1 ADD SWAP4 SWAP3 POP POP POP JUMP JUMPDEST PUSH4 0xFFFFFFFF DUP2 DUP2 AND DUP4 DUP3 AND ADD SWAP1 DUP1 DUP3 GT ISZERO PUSH2 0x5783 JUMPI PUSH2 0x5783 PUSH2 0x55BE JUMP INVALID CALL PUSH15 0xDE70E2CC42ECF32F5E0D9505C5E24F 0xAF LOG0 0xEA SLOAD LOG4 0x4C LOG4 KECCAK256 DUP10 0xB4 OR 0xF SWAP11 0xF8 DUP13 0x25 0x21 0xE3 0x1E LOG1 SSTORE SWAP13 PUSH16 0xF96BF5BD8F8332B81F1A00FCE5F2F354 ADDRESS 0xBD GASLIMIT EXP PUSH6 0x7C2A7630644E PUSH19 0xE131A029B85045B68181585D2833E84879B970 SWAP2 NUMBER 0xE1 CREATE2 SWAP4 CREATE STOP STOP ADD 0xDD CALLCODE MSTORE 0xAD SHL 0xE2 0xC8 SWAP12 PUSH10 0xC2B068FC378DAA952BA7 CALL PUSH4 0xC4A11628 CREATE2 GAS 0x4D CREATE2 0x23 0xB3 0xEF DUP13 JUMPDEST 0xE1 0xE5 0xEB 0xEC PUSH30 0x5BD14F71427D1E84F3DD0314C0F7B2291E5B200AC8C7C3B925A264697066 PUSH20 0x582212206468CA678D38A15B2BD38129EA5F91BE MSIZE JUMPI PUSH6 0x4F013D3BC795 ISZERO 0xA8 MULMOD 0xB2 INVALID 0xC2 0xEF PUSH5 0x736F6C6343 STOP ADDMOD GT STOP CALLER "},"methodIdentifiers":{"BONE()":"c36596a6","FIELD_SIZE()":"414a37ba","MAX_IN_RATIO()":"ec093021","MAX_OUT_RATIO()":"992e2a92","ROOT_HISTORY_SIZE()":"cd87a3b4","ZERO_VALUE()":"ec732959","addRewards(uint256,uint256,uint256,bool)":"8f84e27c","allowance(address,address)":"dd62ed3e","approve(address,uint256)":"095ea7b3","balanceOf(address)":"70a08231","calcInGivenOut(uint256,uint256,uint256,uint256)":"76a38e91","calcOutGivenIn(uint256,uint256,uint256,uint256)":"72ee6341","calcPoolOutGivenSingleIn(uint256,uint256,uint256)":"e0e6236e","calcSingleOutGivenIn(uint256,uint256,uint256,uint256,bool)":"ea2388d2","calcSpotPrice(uint256,uint256,uint256)":"436f9be4","chainID()":"adc879e9","chd()":"a8109c80","checkDrip()":"0b785fc6","controller()":"f77c4791","decimals()":"313ce567","depositToOtherChain((bytes,bytes32,uint256,uint256,bytes32[],bytes32[2]),(address,int256,uint256,uint256,bytes,bytes),bool,uint256)":"aad32641","dripRate()":"d3261592","fee()":"ddca3f43","finalize(uint256[],address[],uint256,uint256,address,address)":"9260df2a","getDepositCommitmentsById(uint256)":"4b4d4ae8","getDepositIdByCommitmentHash(bytes32)":"3c0540cf","getLastRoot()":"ba70f757","getOracleSubmission(uint256)":"15e1b702","getOracles()":"40884c52","getPartnerContracts()":"5bb25be3","getSpotPrice()":"dc76fabc","getZeros(uint256)":"67fb329b","hashLeftRight(bytes32,bytes32)":"38bf282e","hasher()":"ed33639f","isKnownRoot(bytes32)":"6d9833e3","isSpent(bytes32)":"e5285dcc","lastDrip()":"eadb8259","levels()":"4ecf518b","lpDeposit(uint256,uint256,uint256)":"d544c1d2","lpSingleCHD(uint256,uint256)":"73ee0ac5","lpWithdraw(uint256,uint256,uint256)":"6a01218e","name()":"06fdde03","oracleCHDFunds()":"1f639ee4","oracleDeposit(uint256,bytes)":"d2b12ad5","oracleTokenFunds()":"24e14a7a","recordBalance()":"34540e18","recordBalanceSynth()":"7d33bc73","singleCHDLPToDrip()":"bd4920e5","singleLockTime(address)":"840d205f","swap(bool,uint256,uint256,uint256)":"59542ca9","symbol()":"95d89b41","token()":"fc0c546a","totalSupply()":"18160ddd","transact((bytes,bytes32,uint256,uint256,bytes32[],bytes32[2]),(address,int256,uint256,uint256,bytes,bytes))":"9e7b1cd9","transfer(address,uint256)":"a9059cbb","transferFrom(address,address,uint256)":"23b872dd","userRewards()":"2d57121b","userRewardsCHD()":"1595497d","verifier16()":"2fc0355f","verifier2()":"522d0d70"}}}}}