{"contracts/FlatCharon.sol":{"Math":{"abi":[{"inputs":[],"name":"BONE","outputs":[{"internalType":"uint256","name":"","type":"uint256"}],"stateMutability":"view","type":"function"},{"inputs":[],"name":"MAX_IN_RATIO","outputs":[{"internalType":"uint256","name":"","type":"uint256"}],"stateMutability":"view","type":"function"},{"inputs":[],"name":"MAX_OUT_RATIO","outputs":[{"internalType":"uint256","name":"","type":"uint256"}],"stateMutability":"view","type":"function"},{"inputs":[{"internalType":"uint256","name":"_tokenBalanceIn","type":"uint256"},{"internalType":"uint256","name":"_tokenBalanceOut","type":"uint256"},{"internalType":"uint256","name":"_tokenAmountOut","type":"uint256"},{"internalType":"uint256","name":"_swapFee","type":"uint256"}],"name":"calcInGivenOut","outputs":[{"internalType":"uint256","name":"_tokenAmountIn","type":"uint256"}],"stateMutability":"pure","type":"function"},{"inputs":[{"internalType":"uint256","name":"_tokenBalanceIn","type":"uint256"},{"internalType":"uint256","name":"_tokenBalanceOut","type":"uint256"},{"internalType":"uint256","name":"_tokenAmountIn","type":"uint256"},{"internalType":"uint256","name":"_swapFee","type":"uint256"}],"name":"calcOutGivenIn","outputs":[{"internalType":"uint256","name":"_tokenAmountOut","type":"uint256"}],"stateMutability":"pure","type":"function"},{"inputs":[{"internalType":"uint256","name":"_tokenBalanceIn","type":"uint256"},{"internalType":"uint256","name":"_poolSupply","type":"uint256"},{"internalType":"uint256","name":"_tokenAmountIn","type":"uint256"}],"name":"calcPoolOutGivenSingleIn","outputs":[{"internalType":"uint256","name":"_poolAmountOut","type":"uint256"}],"stateMutability":"pure","type":"function"},{"inputs":[{"internalType":"uint256","name":"_tokenBalanceOut","type":"uint256"},{"internalType":"uint256","name":"_inSupply","type":"uint256"},{"internalType":"uint256","name":"_amountIn","type":"uint256"},{"internalType":"uint256","name":"_swapFee","type":"uint256"},{"internalType":"bool","name":"_isPool","type":"bool"}],"name":"calcSingleOutGivenIn","outputs":[{"internalType":"uint256","name":"_tokenAmountOut","type":"uint256"}],"stateMutability":"pure","type":"function"},{"inputs":[{"internalType":"uint256","name":"_tokenBalanceIn","type":"uint256"},{"internalType":"uint256","name":"_tokenBalanceOut","type":"uint256"},{"internalType":"uint256","name":"_swapFee","type":"uint256"}],"name":"calcSpotPrice","outputs":[{"internalType":"uint256","name":"","type":"uint256"}],"stateMutability":"pure","type":"function"}],"evm":{"bytecode":{"linkReferences":{},"object":"608060405234801561001057600080fd5b50610a3e806100206000396000f3fe608060405234801561001057600080fd5b50600436106100785760003560e01c8063436f9be41461007d57806372ee6341146100a257806376a38e91146100b5578063992e2a92146100c8578063c36596a6146100d0578063e0e6236e146100df578063ea2388d2146100f2578063ec09302114610105575b600080fd5b61009061008b366004610884565b61010d565b60405190815260200160405180910390f35b6100906100b03660046108b0565b61014f565b6100906100c33660046108b0565b6101b0565b61009061020a565b610090670de0b6b3a764000081565b6100906100ed366004610884565b61022b565b6100906101003660046108e2565b6102aa565b6100906103fa565b60008061011a858561040d565b90506000610139670de0b6b3a7640000610134868261094a565b61040d565b905061014582826104ee565b9695505050505050565b60008061016483670de0b6b3a764000061094a565b905061017084826104ee565b9050600061018287610134848261095d565b9050600061019882670de0b6b3a764000061094a565b90506101a487826104ee565b98975050505050505050565b6000806101bd848661094a565b905060006101cb868361040d565b905060006101e1670de0b6b3a76400008361094a565b90506101f585670de0b6b3a764000061094a565b93506101a461020489836104ee565b8561040d565b61021d6003670de0b6b3a7640000610986565b61022890600161095d565b81565b60008061024083670de0b6b3a76400006104ee565b9050600061024e828761095d565b9050600061025c828861040d565b905060006102838261027e670de0b6b3a7640000671bc16d674ec8000061040d565b610584565b9050600061029182896104ee565b905061029d888261094a565b9998505050505050505050565b600080821561037f576102cd670de0b6b3a7640000671bc16d674ec8000061040d565b905060006102e386670de0b6b3a76400006104ee565b905060006102f1828961094a565b905060006102ff828a61040d565b905060006103198261027e670de0b6b3a76400008861040d565b90506000610327828d6104ee565b90506000610335828e61094a565b9050600061035461034e89670de0b6b3a764000061094a565b8c6104ee565b90506103718261036c83670de0b6b3a764000061094a565b6104ee565b9850505050505050506103f0565b600061039385670de0b6b3a764000061094a565b905061039f86826104ee565b905060006103b5670de0b6b3a76400008961040d565b905060006103d46103ce83670de0b6b3a764000061094a565b89610584565b90506103e08a826104ee565b6103ea908b61094a565b94505050505b5095945050505050565b6102286002670de0b6b3a7640000610986565b6000816000036104535760405162461bcd60e51b815260206004820152600c60248201526b4552525f4449565f5a45524f60a01b60448201526064015b60405180910390fd5b6000610467670de0b6b3a76400008561099a565b90508315806104865750670de0b6b3a76400006104848583610986565b145b6104a25760405162461bcd60e51b815260040161044a906109b1565b60006104af600285610986565b6104b9908361095d565b9050818110156104db5760405162461bcd60e51b815260040161044a906109b1565b6104e58482610986565b95945050505050565b6000806104fb838561099a565b90508315806105125750826105108583610986565b145b6105515760405162461bcd60e51b815260206004820152601060248201526f4552525f4d554c5f4f564552464c4f5760801b604482015260640161044a565b60006105666002670de0b6b3a7640000610986565b610570908361095d565b90506104e5670de0b6b3a764000082610986565b600060018310156105ce5760405162461bcd60e51b81526020600482015260146024820152734552525f504f575f424153455f544f4f5f4c4f5760601b604482015260640161044a565b60016105e3670de0b6b3a7640000600261099a565b6105ed919061094a565b8311156106345760405162461bcd60e51b815260206004820152601560248201527408aa4a4bea09eaebe8482a68abea89e9ebe90928e9605b1b604482015260640161044a565b600061063f836106b3565b9050600061064d828561094a565b905060006106638661065e856106d1565b6106e5565b9050816000036106775792506106ad915050565b600061069a87846106956402540be400670de0b6b3a7640000610986565b61075a565b90506106a682826104ee565b9450505050505b92915050565b6000670de0b6b3a76400006106c7836106d1565b6106ad919061099a565b60006106ad670de0b6b3a764000083610986565b60006106f26002836109db565b60000361070757670de0b6b3a7640000610709565b825b9050610716600283610986565b91505b81156106ad5761072983846104ee565b92506107366002836109db565b156107485761074581846104ee565b90505b610753600283610986565b9150610719565b600082818061077187670de0b6b3a764000061084d565b670de0b6b3a76400009550909250905083600060015b8783106108405760006107a2670de0b6b3a76400008361099a565b90506000806107c2896107bd670de0b6b3a76400008661094a565b61084d565b915091506107d48661036c848b6104ee565b95506107e0868461040d565b9550856000036107f257505050610840565b86156107fc579315935b8015610806579315935b841561081d57610816868b61094a565b995061082a565b610827868b61095d565b99505b5050508080610838906109ef565b915050610787565b5050505050509392505050565b60008082841061086c57610861838561094a565b60009150915061087d565b610876848461094a565b6001915091505b9250929050565b60008060006060848603121561089957600080fd5b505081359360208301359350604090920135919050565b600080600080608085870312156108c657600080fd5b5050823594602084013594506040840135936060013592509050565b600080600080600060a086880312156108fa57600080fd5b853594506020860135935060408601359250606086013591506080860135801515811461092657600080fd5b809150509295509295909350565b634e487b7160e01b600052601160045260246000fd5b818103818111156106ad576106ad610934565b808201808211156106ad576106ad610934565b634e487b7160e01b600052601260045260246000fd5b60008261099557610995610970565b500490565b80820281158282048414176106ad576106ad610934565b60208082526010908201526f11549497d1125597d25395115493905360821b604082015260600190565b6000826109ea576109ea610970565b500690565b600060018201610a0157610a01610934565b506001019056fea264697066735822122025fbf9138203e82934a663165d2a29ce7d2ef36b5e8a8d3f050e312158530df464736f6c63430008110033","opcodes":"PUSH1 0x80 PUSH1 0x40 MSTORE CALLVALUE DUP1 ISZERO PUSH2 0x10 JUMPI PUSH1 0x0 DUP1 REVERT JUMPDEST POP PUSH2 0xA3E DUP1 PUSH2 0x20 PUSH1 0x0 CODECOPY PUSH1 0x0 RETURN INVALID PUSH1 0x80 PUSH1 0x40 MSTORE CALLVALUE DUP1 ISZERO PUSH2 0x10 JUMPI PUSH1 0x0 DUP1 REVERT JUMPDEST POP PUSH1 0x4 CALLDATASIZE LT PUSH2 0x78 JUMPI PUSH1 0x0 CALLDATALOAD PUSH1 0xE0 SHR DUP1 PUSH4 0x436F9BE4 EQ PUSH2 0x7D JUMPI DUP1 PUSH4 0x72EE6341 EQ PUSH2 0xA2 JUMPI DUP1 PUSH4 0x76A38E91 EQ PUSH2 0xB5 JUMPI DUP1 PUSH4 0x992E2A92 EQ PUSH2 0xC8 JUMPI DUP1 PUSH4 0xC36596A6 EQ PUSH2 0xD0 JUMPI DUP1 PUSH4 0xE0E6236E EQ PUSH2 0xDF JUMPI DUP1 PUSH4 0xEA2388D2 EQ PUSH2 0xF2 JUMPI DUP1 PUSH4 0xEC093021 EQ PUSH2 0x105 JUMPI JUMPDEST PUSH1 0x0 DUP1 REVERT JUMPDEST PUSH2 0x90 PUSH2 0x8B CALLDATASIZE PUSH1 0x4 PUSH2 0x884 JUMP JUMPDEST PUSH2 0x10D JUMP JUMPDEST PUSH1 0x40 MLOAD SWAP1 DUP2 MSTORE PUSH1 0x20 ADD PUSH1 0x40 MLOAD DUP1 SWAP2 SUB SWAP1 RETURN JUMPDEST PUSH2 0x90 PUSH2 0xB0 CALLDATASIZE PUSH1 0x4 PUSH2 0x8B0 JUMP JUMPDEST PUSH2 0x14F JUMP JUMPDEST PUSH2 0x90 PUSH2 0xC3 CALLDATASIZE PUSH1 0x4 PUSH2 0x8B0 JUMP JUMPDEST PUSH2 0x1B0 JUMP JUMPDEST PUSH2 0x90 PUSH2 0x20A JUMP JUMPDEST PUSH2 0x90 PUSH8 0xDE0B6B3A7640000 DUP2 JUMP JUMPDEST PUSH2 0x90 PUSH2 0xED CALLDATASIZE PUSH1 0x4 PUSH2 0x884 JUMP JUMPDEST PUSH2 0x22B JUMP JUMPDEST PUSH2 0x90 PUSH2 0x100 CALLDATASIZE PUSH1 0x4 PUSH2 0x8E2 JUMP JUMPDEST PUSH2 0x2AA JUMP JUMPDEST PUSH2 0x90 PUSH2 0x3FA JUMP JUMPDEST PUSH1 0x0 DUP1 PUSH2 0x11A DUP6 DUP6 PUSH2 0x40D JUMP JUMPDEST SWAP1 POP PUSH1 0x0 PUSH2 0x139 PUSH8 0xDE0B6B3A7640000 PUSH2 0x134 DUP7 DUP3 PUSH2 0x94A JUMP JUMPDEST PUSH2 0x40D JUMP JUMPDEST SWAP1 POP PUSH2 0x145 DUP3 DUP3 PUSH2 0x4EE JUMP JUMPDEST SWAP7 SWAP6 POP POP POP POP POP POP JUMP JUMPDEST PUSH1 0x0 DUP1 PUSH2 0x164 DUP4 PUSH8 0xDE0B6B3A7640000 PUSH2 0x94A JUMP JUMPDEST SWAP1 POP PUSH2 0x170 DUP5 DUP3 PUSH2 0x4EE JUMP JUMPDEST SWAP1 POP PUSH1 0x0 PUSH2 0x182 DUP8 PUSH2 0x134 DUP5 DUP3 PUSH2 0x95D JUMP JUMPDEST SWAP1 POP PUSH1 0x0 PUSH2 0x198 DUP3 PUSH8 0xDE0B6B3A7640000 PUSH2 0x94A JUMP JUMPDEST SWAP1 POP PUSH2 0x1A4 DUP8 DUP3 PUSH2 0x4EE JUMP JUMPDEST SWAP9 SWAP8 POP POP POP POP POP POP POP POP JUMP JUMPDEST PUSH1 0x0 DUP1 PUSH2 0x1BD DUP5 DUP7 PUSH2 0x94A JUMP JUMPDEST SWAP1 POP PUSH1 0x0 PUSH2 0x1CB DUP7 DUP4 PUSH2 0x40D JUMP JUMPDEST SWAP1 POP PUSH1 0x0 PUSH2 0x1E1 PUSH8 0xDE0B6B3A7640000 DUP4 PUSH2 0x94A JUMP JUMPDEST SWAP1 POP PUSH2 0x1F5 DUP6 PUSH8 0xDE0B6B3A7640000 PUSH2 0x94A JUMP JUMPDEST SWAP4 POP PUSH2 0x1A4 PUSH2 0x204 DUP10 DUP4 PUSH2 0x4EE JUMP JUMPDEST DUP6 PUSH2 0x40D JUMP JUMPDEST PUSH2 0x21D PUSH1 0x3 PUSH8 0xDE0B6B3A7640000 PUSH2 0x986 JUMP JUMPDEST PUSH2 0x228 SWAP1 PUSH1 0x1 PUSH2 0x95D JUMP JUMPDEST DUP2 JUMP JUMPDEST PUSH1 0x0 DUP1 PUSH2 0x240 DUP4 PUSH8 0xDE0B6B3A7640000 PUSH2 0x4EE JUMP JUMPDEST SWAP1 POP PUSH1 0x0 PUSH2 0x24E DUP3 DUP8 PUSH2 0x95D JUMP JUMPDEST SWAP1 POP PUSH1 0x0 PUSH2 0x25C DUP3 DUP9 PUSH2 0x40D JUMP JUMPDEST SWAP1 POP PUSH1 0x0 PUSH2 0x283 DUP3 PUSH2 0x27E PUSH8 0xDE0B6B3A7640000 PUSH8 0x1BC16D674EC80000 PUSH2 0x40D JUMP JUMPDEST PUSH2 0x584 JUMP JUMPDEST SWAP1 POP PUSH1 0x0 PUSH2 0x291 DUP3 DUP10 PUSH2 0x4EE JUMP JUMPDEST SWAP1 POP PUSH2 0x29D DUP9 DUP3 PUSH2 0x94A JUMP JUMPDEST SWAP10 SWAP9 POP POP POP POP POP POP POP POP POP JUMP JUMPDEST PUSH1 0x0 DUP1 DUP3 ISZERO PUSH2 0x37F JUMPI PUSH2 0x2CD PUSH8 0xDE0B6B3A7640000 PUSH8 0x1BC16D674EC80000 PUSH2 0x40D JUMP JUMPDEST SWAP1 POP PUSH1 0x0 PUSH2 0x2E3 DUP7 PUSH8 0xDE0B6B3A7640000 PUSH2 0x4EE JUMP JUMPDEST SWAP1 POP PUSH1 0x0 PUSH2 0x2F1 DUP3 DUP10 PUSH2 0x94A JUMP JUMPDEST SWAP1 POP PUSH1 0x0 PUSH2 0x2FF DUP3 DUP11 PUSH2 0x40D JUMP JUMPDEST SWAP1 POP PUSH1 0x0 PUSH2 0x319 DUP3 PUSH2 0x27E PUSH8 0xDE0B6B3A7640000 DUP9 PUSH2 0x40D JUMP JUMPDEST SWAP1 POP PUSH1 0x0 PUSH2 0x327 DUP3 DUP14 PUSH2 0x4EE JUMP JUMPDEST SWAP1 POP PUSH1 0x0 PUSH2 0x335 DUP3 DUP15 PUSH2 0x94A JUMP JUMPDEST SWAP1 POP PUSH1 0x0 PUSH2 0x354 PUSH2 0x34E DUP10 PUSH8 0xDE0B6B3A7640000 PUSH2 0x94A JUMP JUMPDEST DUP13 PUSH2 0x4EE JUMP JUMPDEST SWAP1 POP PUSH2 0x371 DUP3 PUSH2 0x36C DUP4 PUSH8 0xDE0B6B3A7640000 PUSH2 0x94A JUMP JUMPDEST PUSH2 0x4EE JUMP JUMPDEST SWAP9 POP POP POP POP POP POP POP POP PUSH2 0x3F0 JUMP JUMPDEST PUSH1 0x0 PUSH2 0x393 DUP6 PUSH8 0xDE0B6B3A7640000 PUSH2 0x94A JUMP JUMPDEST SWAP1 POP PUSH2 0x39F DUP7 DUP3 PUSH2 0x4EE JUMP JUMPDEST SWAP1 POP PUSH1 0x0 PUSH2 0x3B5 PUSH8 0xDE0B6B3A7640000 DUP10 PUSH2 0x40D JUMP JUMPDEST SWAP1 POP PUSH1 0x0 PUSH2 0x3D4 PUSH2 0x3CE DUP4 PUSH8 0xDE0B6B3A7640000 PUSH2 0x94A JUMP JUMPDEST DUP10 PUSH2 0x584 JUMP JUMPDEST SWAP1 POP PUSH2 0x3E0 DUP11 DUP3 PUSH2 0x4EE JUMP JUMPDEST PUSH2 0x3EA SWAP1 DUP12 PUSH2 0x94A JUMP JUMPDEST SWAP5 POP POP POP POP JUMPDEST POP SWAP6 SWAP5 POP POP POP POP POP JUMP JUMPDEST PUSH2 0x228 PUSH1 0x2 PUSH8 0xDE0B6B3A7640000 PUSH2 0x986 JUMP JUMPDEST PUSH1 0x0 DUP2 PUSH1 0x0 SUB PUSH2 0x453 JUMPI PUSH1 0x40 MLOAD PUSH3 0x461BCD PUSH1 0xE5 SHL DUP2 MSTORE PUSH1 0x20 PUSH1 0x4 DUP3 ADD MSTORE PUSH1 0xC PUSH1 0x24 DUP3 ADD MSTORE PUSH12 0x4552525F4449565F5A45524F PUSH1 0xA0 SHL PUSH1 0x44 DUP3 ADD MSTORE PUSH1 0x64 ADD JUMPDEST PUSH1 0x40 MLOAD DUP1 SWAP2 SUB SWAP1 REVERT JUMPDEST PUSH1 0x0 PUSH2 0x467 PUSH8 0xDE0B6B3A7640000 DUP6 PUSH2 0x99A JUMP JUMPDEST SWAP1 POP DUP4 ISZERO DUP1 PUSH2 0x486 JUMPI POP PUSH8 0xDE0B6B3A7640000 PUSH2 0x484 DUP6 DUP4 PUSH2 0x986 JUMP JUMPDEST EQ JUMPDEST PUSH2 0x4A2 JUMPI PUSH1 0x40 MLOAD PUSH3 0x461BCD PUSH1 0xE5 SHL DUP2 MSTORE PUSH1 0x4 ADD PUSH2 0x44A SWAP1 PUSH2 0x9B1 JUMP JUMPDEST PUSH1 0x0 PUSH2 0x4AF PUSH1 0x2 DUP6 PUSH2 0x986 JUMP JUMPDEST PUSH2 0x4B9 SWAP1 DUP4 PUSH2 0x95D JUMP JUMPDEST SWAP1 POP DUP2 DUP2 LT ISZERO PUSH2 0x4DB JUMPI PUSH1 0x40 MLOAD PUSH3 0x461BCD PUSH1 0xE5 SHL DUP2 MSTORE PUSH1 0x4 ADD PUSH2 0x44A SWAP1 PUSH2 0x9B1 JUMP JUMPDEST PUSH2 0x4E5 DUP5 DUP3 PUSH2 0x986 JUMP JUMPDEST SWAP6 SWAP5 POP POP POP POP POP JUMP JUMPDEST PUSH1 0x0 DUP1 PUSH2 0x4FB DUP4 DUP6 PUSH2 0x99A JUMP JUMPDEST SWAP1 POP DUP4 ISZERO DUP1 PUSH2 0x512 JUMPI POP DUP3 PUSH2 0x510 DUP6 DUP4 PUSH2 0x986 JUMP JUMPDEST EQ JUMPDEST PUSH2 0x551 JUMPI PUSH1 0x40 MLOAD PUSH3 0x461BCD PUSH1 0xE5 SHL DUP2 MSTORE PUSH1 0x20 PUSH1 0x4 DUP3 ADD MSTORE PUSH1 0x10 PUSH1 0x24 DUP3 ADD MSTORE PUSH16 0x4552525F4D554C5F4F564552464C4F57 PUSH1 0x80 SHL PUSH1 0x44 DUP3 ADD MSTORE PUSH1 0x64 ADD PUSH2 0x44A JUMP JUMPDEST PUSH1 0x0 PUSH2 0x566 PUSH1 0x2 PUSH8 0xDE0B6B3A7640000 PUSH2 0x986 JUMP JUMPDEST PUSH2 0x570 SWAP1 DUP4 PUSH2 0x95D JUMP JUMPDEST SWAP1 POP PUSH2 0x4E5 PUSH8 0xDE0B6B3A7640000 DUP3 PUSH2 0x986 JUMP JUMPDEST PUSH1 0x0 PUSH1 0x1 DUP4 LT ISZERO PUSH2 0x5CE JUMPI PUSH1 0x40 MLOAD PUSH3 0x461BCD PUSH1 0xE5 SHL DUP2 MSTORE PUSH1 0x20 PUSH1 0x4 DUP3 ADD MSTORE PUSH1 0x14 PUSH1 0x24 DUP3 ADD MSTORE PUSH20 0x4552525F504F575F424153455F544F4F5F4C4F57 PUSH1 0x60 SHL PUSH1 0x44 DUP3 ADD MSTORE PUSH1 0x64 ADD PUSH2 0x44A JUMP JUMPDEST PUSH1 0x1 PUSH2 0x5E3 PUSH8 0xDE0B6B3A7640000 PUSH1 0x2 PUSH2 0x99A JUMP JUMPDEST PUSH2 0x5ED SWAP2 SWAP1 PUSH2 0x94A JUMP JUMPDEST DUP4 GT ISZERO PUSH2 0x634 JUMPI PUSH1 0x40 MLOAD PUSH3 0x461BCD PUSH1 0xE5 SHL DUP2 MSTORE PUSH1 0x20 PUSH1 0x4 DUP3 ADD MSTORE PUSH1 0x15 PUSH1 0x24 DUP3 ADD MSTORE PUSH21 0x8AA4A4BEA09EAEBE8482A68ABEA89E9EBE90928E9 PUSH1 0x5B SHL PUSH1 0x44 DUP3 ADD MSTORE PUSH1 0x64 ADD PUSH2 0x44A JUMP JUMPDEST PUSH1 0x0 PUSH2 0x63F DUP4 PUSH2 0x6B3 JUMP JUMPDEST SWAP1 POP PUSH1 0x0 PUSH2 0x64D DUP3 DUP6 PUSH2 0x94A JUMP JUMPDEST SWAP1 POP PUSH1 0x0 PUSH2 0x663 DUP7 PUSH2 0x65E DUP6 PUSH2 0x6D1 JUMP JUMPDEST PUSH2 0x6E5 JUMP JUMPDEST SWAP1 POP DUP2 PUSH1 0x0 SUB PUSH2 0x677 JUMPI SWAP3 POP PUSH2 0x6AD SWAP2 POP POP JUMP JUMPDEST PUSH1 0x0 PUSH2 0x69A DUP8 DUP5 PUSH2 0x695 PUSH5 0x2540BE400 PUSH8 0xDE0B6B3A7640000 PUSH2 0x986 JUMP JUMPDEST PUSH2 0x75A JUMP JUMPDEST SWAP1 POP PUSH2 0x6A6 DUP3 DUP3 PUSH2 0x4EE JUMP JUMPDEST SWAP5 POP POP POP POP POP JUMPDEST SWAP3 SWAP2 POP POP JUMP JUMPDEST PUSH1 0x0 PUSH8 0xDE0B6B3A7640000 PUSH2 0x6C7 DUP4 PUSH2 0x6D1 JUMP JUMPDEST PUSH2 0x6AD SWAP2 SWAP1 PUSH2 0x99A JUMP JUMPDEST PUSH1 0x0 PUSH2 0x6AD PUSH8 0xDE0B6B3A7640000 DUP4 PUSH2 0x986 JUMP JUMPDEST PUSH1 0x0 PUSH2 0x6F2 PUSH1 0x2 DUP4 PUSH2 0x9DB JUMP JUMPDEST PUSH1 0x0 SUB PUSH2 0x707 JUMPI PUSH8 0xDE0B6B3A7640000 PUSH2 0x709 JUMP JUMPDEST DUP3 JUMPDEST SWAP1 POP PUSH2 0x716 PUSH1 0x2 DUP4 PUSH2 0x986 JUMP JUMPDEST SWAP2 POP JUMPDEST DUP2 ISZERO PUSH2 0x6AD JUMPI PUSH2 0x729 DUP4 DUP5 PUSH2 0x4EE JUMP JUMPDEST SWAP3 POP PUSH2 0x736 PUSH1 0x2 DUP4 PUSH2 0x9DB JUMP JUMPDEST ISZERO PUSH2 0x748 JUMPI PUSH2 0x745 DUP2 DUP5 PUSH2 0x4EE JUMP JUMPDEST SWAP1 POP JUMPDEST PUSH2 0x753 PUSH1 0x2 DUP4 PUSH2 0x986 JUMP JUMPDEST SWAP2 POP PUSH2 0x719 JUMP JUMPDEST PUSH1 0x0 DUP3 DUP2 DUP1 PUSH2 0x771 DUP8 PUSH8 0xDE0B6B3A7640000 PUSH2 0x84D JUMP JUMPDEST PUSH8 0xDE0B6B3A7640000 SWAP6 POP SWAP1 SWAP3 POP SWAP1 POP DUP4 PUSH1 0x0 PUSH1 0x1 JUMPDEST DUP8 DUP4 LT PUSH2 0x840 JUMPI PUSH1 0x0 PUSH2 0x7A2 PUSH8 0xDE0B6B3A7640000 DUP4 PUSH2 0x99A JUMP JUMPDEST SWAP1 POP PUSH1 0x0 DUP1 PUSH2 0x7C2 DUP10 PUSH2 0x7BD PUSH8 0xDE0B6B3A7640000 DUP7 PUSH2 0x94A JUMP JUMPDEST PUSH2 0x84D JUMP JUMPDEST SWAP2 POP SWAP2 POP PUSH2 0x7D4 DUP7 PUSH2 0x36C DUP5 DUP12 PUSH2 0x4EE JUMP JUMPDEST SWAP6 POP PUSH2 0x7E0 DUP7 DUP5 PUSH2 0x40D JUMP JUMPDEST SWAP6 POP DUP6 PUSH1 0x0 SUB PUSH2 0x7F2 JUMPI POP POP POP PUSH2 0x840 JUMP JUMPDEST DUP7 ISZERO PUSH2 0x7FC JUMPI SWAP4 ISZERO SWAP4 JUMPDEST DUP1 ISZERO PUSH2 0x806 JUMPI SWAP4 ISZERO SWAP4 JUMPDEST DUP5 ISZERO PUSH2 0x81D JUMPI PUSH2 0x816 DUP7 DUP12 PUSH2 0x94A JUMP JUMPDEST SWAP10 POP PUSH2 0x82A JUMP JUMPDEST PUSH2 0x827 DUP7 DUP12 PUSH2 0x95D JUMP JUMPDEST SWAP10 POP JUMPDEST POP POP POP DUP1 DUP1 PUSH2 0x838 SWAP1 PUSH2 0x9EF JUMP JUMPDEST SWAP2 POP POP PUSH2 0x787 JUMP JUMPDEST POP POP POP POP POP POP SWAP4 SWAP3 POP POP POP JUMP JUMPDEST PUSH1 0x0 DUP1 DUP3 DUP5 LT PUSH2 0x86C JUMPI PUSH2 0x861 DUP4 DUP6 PUSH2 0x94A JUMP JUMPDEST PUSH1 0x0 SWAP2 POP SWAP2 POP PUSH2 0x87D JUMP JUMPDEST PUSH2 0x876 DUP5 DUP5 PUSH2 0x94A JUMP JUMPDEST PUSH1 0x1 SWAP2 POP SWAP2 POP JUMPDEST SWAP3 POP SWAP3 SWAP1 POP JUMP JUMPDEST PUSH1 0x0 DUP1 PUSH1 0x0 PUSH1 0x60 DUP5 DUP7 SUB SLT ISZERO PUSH2 0x899 JUMPI PUSH1 0x0 DUP1 REVERT JUMPDEST POP POP DUP2 CALLDATALOAD SWAP4 PUSH1 0x20 DUP4 ADD CALLDATALOAD SWAP4 POP PUSH1 0x40 SWAP1 SWAP3 ADD CALLDATALOAD SWAP2 SWAP1 POP JUMP JUMPDEST PUSH1 0x0 DUP1 PUSH1 0x0 DUP1 PUSH1 0x80 DUP6 DUP8 SUB SLT ISZERO PUSH2 0x8C6 JUMPI PUSH1 0x0 DUP1 REVERT JUMPDEST POP POP DUP3 CALLDATALOAD SWAP5 PUSH1 0x20 DUP5 ADD CALLDATALOAD SWAP5 POP PUSH1 0x40 DUP5 ADD CALLDATALOAD SWAP4 PUSH1 0x60 ADD CALLDATALOAD SWAP3 POP SWAP1 POP JUMP JUMPDEST PUSH1 0x0 DUP1 PUSH1 0x0 DUP1 PUSH1 0x0 PUSH1 0xA0 DUP7 DUP9 SUB SLT ISZERO PUSH2 0x8FA JUMPI PUSH1 0x0 DUP1 REVERT JUMPDEST DUP6 CALLDATALOAD SWAP5 POP PUSH1 0x20 DUP7 ADD CALLDATALOAD SWAP4 POP PUSH1 0x40 DUP7 ADD CALLDATALOAD SWAP3 POP PUSH1 0x60 DUP7 ADD CALLDATALOAD SWAP2 POP PUSH1 0x80 DUP7 ADD CALLDATALOAD DUP1 ISZERO ISZERO DUP2 EQ PUSH2 0x926 JUMPI PUSH1 0x0 DUP1 REVERT JUMPDEST DUP1 SWAP2 POP POP SWAP3 SWAP6 POP SWAP3 SWAP6 SWAP1 SWAP4 POP JUMP JUMPDEST PUSH4 0x4E487B71 PUSH1 0xE0 SHL PUSH1 0x0 MSTORE PUSH1 0x11 PUSH1 0x4 MSTORE PUSH1 0x24 PUSH1 0x0 REVERT JUMPDEST DUP2 DUP2 SUB DUP2 DUP2 GT ISZERO PUSH2 0x6AD JUMPI PUSH2 0x6AD PUSH2 0x934 JUMP JUMPDEST DUP1 DUP3 ADD DUP1 DUP3 GT ISZERO PUSH2 0x6AD JUMPI PUSH2 0x6AD PUSH2 0x934 JUMP JUMPDEST PUSH4 0x4E487B71 PUSH1 0xE0 SHL PUSH1 0x0 MSTORE PUSH1 0x12 PUSH1 0x4 MSTORE PUSH1 0x24 PUSH1 0x0 REVERT JUMPDEST PUSH1 0x0 DUP3 PUSH2 0x995 JUMPI PUSH2 0x995 PUSH2 0x970 JUMP JUMPDEST POP DIV SWAP1 JUMP JUMPDEST DUP1 DUP3 MUL DUP2 ISZERO DUP3 DUP3 DIV DUP5 EQ OR PUSH2 0x6AD JUMPI PUSH2 0x6AD PUSH2 0x934 JUMP JUMPDEST PUSH1 0x20 DUP1 DUP3 MSTORE PUSH1 0x10 SWAP1 DUP3 ADD MSTORE PUSH16 0x11549497D1125597D253951154939053 PUSH1 0x82 SHL PUSH1 0x40 DUP3 ADD MSTORE PUSH1 0x60 ADD SWAP1 JUMP JUMPDEST PUSH1 0x0 DUP3 PUSH2 0x9EA JUMPI PUSH2 0x9EA PUSH2 0x970 JUMP JUMPDEST POP MOD SWAP1 JUMP JUMPDEST PUSH1 0x0 PUSH1 0x1 DUP3 ADD PUSH2 0xA01 JUMPI PUSH2 0xA01 PUSH2 0x934 JUMP JUMPDEST POP PUSH1 0x1 ADD SWAP1 JUMP INVALID LOG2 PUSH5 0x6970667358 0x22 SLT KECCAK256 0x25 0xFB 0xF9 SGT DUP3 SUB 0xE8 0x29 CALLVALUE 0xA6 PUSH4 0x165D2A29 0xCE PUSH30 0x2EF36B5E8A8D3F050E312158530DF464736F6C6343000811003300000000 "},"methodIdentifiers":{"BONE()":"c36596a6","MAX_IN_RATIO()":"ec093021","MAX_OUT_RATIO()":"992e2a92","calcInGivenOut(uint256,uint256,uint256,uint256)":"76a38e91","calcOutGivenIn(uint256,uint256,uint256,uint256)":"72ee6341","calcPoolOutGivenSingleIn(uint256,uint256,uint256)":"e0e6236e","calcSingleOutGivenIn(uint256,uint256,uint256,uint256,bool)":"ea2388d2","calcSpotPrice(uint256,uint256,uint256)":"436f9be4"}}}}}