{
  "_format": "hh-sol-artifact-1",
  "contractName": "Auction",
  "sourceName": "incentiveToken/contracts/Auction.sol",
  "abi": [
    {
      "inputs": [
        {
          "internalType": "address",
          "name": "_bidToken",
          "type": "address"
        },
        {
          "internalType": "uint256",
          "name": "_mintAmount",
          "type": "uint256"
        },
        {
          "internalType": "uint256",
          "name": "_auctionFrequency",
          "type": "uint256"
        },
        {
          "internalType": "address",
          "name": "_cfc",
          "type": "address"
        },
        {
          "internalType": "string",
          "name": "_name",
          "type": "string"
        },
        {
          "internalType": "string",
          "name": "_symbol",
          "type": "string"
        },
        {
          "internalType": "uint256",
          "name": "_initSupply",
          "type": "uint256"
        }
      ],
      "stateMutability": "nonpayable",
      "type": "constructor"
    },
    {
      "anonymous": false,
      "inputs": [
        {
          "indexed": true,
          "internalType": "address",
          "name": "_src",
          "type": "address"
        },
        {
          "indexed": true,
          "internalType": "address",
          "name": "_dst",
          "type": "address"
        },
        {
          "indexed": false,
          "internalType": "uint256",
          "name": "_amt",
          "type": "uint256"
        }
      ],
      "name": "Approval",
      "type": "event"
    },
    {
      "anonymous": false,
      "inputs": [
        {
          "indexed": false,
          "internalType": "address",
          "name": "_winner",
          "type": "address"
        },
        {
          "indexed": false,
          "internalType": "uint256",
          "name": "_amount",
          "type": "uint256"
        }
      ],
      "name": "AuctionClosed",
      "type": "event"
    },
    {
      "anonymous": false,
      "inputs": [
        {
          "indexed": false,
          "internalType": "uint256",
          "name": "_endDate",
          "type": "uint256"
        }
      ],
      "name": "NewAuctionStarted",
      "type": "event"
    },
    {
      "anonymous": false,
      "inputs": [
        {
          "indexed": false,
          "internalType": "address",
          "name": "_bidder",
          "type": "address"
        },
        {
          "indexed": false,
          "internalType": "uint256",
          "name": "_amount",
          "type": "uint256"
        }
      ],
      "name": "NewTopBid",
      "type": "event"
    },
    {
      "anonymous": false,
      "inputs": [
        {
          "indexed": true,
          "internalType": "address",
          "name": "_src",
          "type": "address"
        },
        {
          "indexed": true,
          "internalType": "address",
          "name": "_dst",
          "type": "address"
        },
        {
          "indexed": false,
          "internalType": "uint256",
          "name": "_amt",
          "type": "uint256"
        }
      ],
      "name": "Transfer",
      "type": "event"
    },
    {
      "inputs": [
        {
          "internalType": "address",
          "name": "_src",
          "type": "address"
        },
        {
          "internalType": "address",
          "name": "_dst",
          "type": "address"
        }
      ],
      "name": "allowance",
      "outputs": [
        {
          "internalType": "uint256",
          "name": "",
          "type": "uint256"
        }
      ],
      "stateMutability": "view",
      "type": "function"
    },
    {
      "inputs": [
        {
          "internalType": "address",
          "name": "_spender",
          "type": "address"
        },
        {
          "internalType": "uint256",
          "name": "_amount",
          "type": "uint256"
        }
      ],
      "name": "approve",
      "outputs": [
        {
          "internalType": "bool",
          "name": "",
          "type": "bool"
        }
      ],
      "stateMutability": "nonpayable",
      "type": "function"
    },
    {
      "inputs": [],
      "name": "auctionFrequency",
      "outputs": [
        {
          "internalType": "uint256",
          "name": "",
          "type": "uint256"
        }
      ],
      "stateMutability": "view",
      "type": "function"
    },
    {
      "inputs": [
        {
          "internalType": "address",
          "name": "_user",
          "type": "address"
        }
      ],
      "name": "balanceOf",
      "outputs": [
        {
          "internalType": "uint256",
          "name": "",
          "type": "uint256"
        }
      ],
      "stateMutability": "view",
      "type": "function"
    },
    {
      "inputs": [
        {
          "internalType": "uint256",
          "name": "_amount",
          "type": "uint256"
        }
      ],
      "name": "bid",
      "outputs": [],
      "stateMutability": "nonpayable",
      "type": "function"
    },
    {
      "inputs": [],
      "name": "bidToken",
      "outputs": [
        {
          "internalType": "contract IERC20",
          "name": "",
          "type": "address"
        }
      ],
      "stateMutability": "view",
      "type": "function"
    },
    {
      "inputs": [],
      "name": "charonFeeContract",
      "outputs": [
        {
          "internalType": "contract ICFC",
          "name": "",
          "type": "address"
        }
      ],
      "stateMutability": "view",
      "type": "function"
    },
    {
      "inputs": [],
      "name": "currentTopBid",
      "outputs": [
        {
          "internalType": "uint256",
          "name": "",
          "type": "uint256"
        }
      ],
      "stateMutability": "view",
      "type": "function"
    },
    {
      "inputs": [],
      "name": "decimals",
      "outputs": [
        {
          "internalType": "uint8",
          "name": "",
          "type": "uint8"
        }
      ],
      "stateMutability": "pure",
      "type": "function"
    },
    {
      "inputs": [],
      "name": "endDate",
      "outputs": [
        {
          "internalType": "uint256",
          "name": "",
          "type": "uint256"
        }
      ],
      "stateMutability": "view",
      "type": "function"
    },
    {
      "inputs": [],
      "name": "mintAmount",
      "outputs": [
        {
          "internalType": "uint256",
          "name": "",
          "type": "uint256"
        }
      ],
      "stateMutability": "view",
      "type": "function"
    },
    {
      "inputs": [],
      "name": "name",
      "outputs": [
        {
          "internalType": "string",
          "name": "",
          "type": "string"
        }
      ],
      "stateMutability": "view",
      "type": "function"
    },
    {
      "inputs": [],
      "name": "startNewAuction",
      "outputs": [],
      "stateMutability": "nonpayable",
      "type": "function"
    },
    {
      "inputs": [],
      "name": "symbol",
      "outputs": [
        {
          "internalType": "string",
          "name": "",
          "type": "string"
        }
      ],
      "stateMutability": "view",
      "type": "function"
    },
    {
      "inputs": [],
      "name": "topBidder",
      "outputs": [
        {
          "internalType": "address",
          "name": "",
          "type": "address"
        }
      ],
      "stateMutability": "view",
      "type": "function"
    },
    {
      "inputs": [],
      "name": "totalSupply",
      "outputs": [
        {
          "internalType": "uint256",
          "name": "",
          "type": "uint256"
        }
      ],
      "stateMutability": "view",
      "type": "function"
    },
    {
      "inputs": [
        {
          "internalType": "address",
          "name": "_to",
          "type": "address"
        },
        {
          "internalType": "uint256",
          "name": "_amount",
          "type": "uint256"
        }
      ],
      "name": "transfer",
      "outputs": [
        {
          "internalType": "bool",
          "name": "",
          "type": "bool"
        }
      ],
      "stateMutability": "nonpayable",
      "type": "function"
    },
    {
      "inputs": [
        {
          "internalType": "address",
          "name": "_from",
          "type": "address"
        },
        {
          "internalType": "address",
          "name": "_to",
          "type": "address"
        },
        {
          "internalType": "uint256",
          "name": "_amount",
          "type": "uint256"
        }
      ],
      "name": "transferFrom",
      "outputs": [
        {
          "internalType": "bool",
          "name": "",
          "type": "bool"
        }
      ],
      "stateMutability": "nonpayable",
      "type": "function"
    }
  ],
  "bytecode": "0x60806040523480156200001157600080fd5b50604051620010f3380380620010f3833981016040819052620000349162000231565b828260006200004483826200036d565b5060016200005382826200036d565b5050600680546001600160a01b03808b166001600160a01b031992831617909255600889905560078890556005805492881692909116919091179055506200009c854262000439565b600a55620000ab3382620000b8565b5050505050505062000461565b6001600160a01b038216600090815260036020526040902054620000de90829062000439565b6001600160a01b0383166000908152600360205260409020556002546200010790829062000439565b6002556040518181526001600160a01b038316906000907fddf252ad1be2c89b69c2b068fc378daa952ba7f163c4a11628f55a4df523b3ef9060200160405180910390a35050565b80516001600160a01b03811681146200016757600080fd5b919050565b634e487b7160e01b600052604160045260246000fd5b600082601f8301126200019457600080fd5b81516001600160401b0380821115620001b157620001b16200016c565b604051601f8301601f19908116603f01168101908282118183101715620001dc57620001dc6200016c565b81604052838152602092508683858801011115620001f957600080fd5b600091505b838210156200021d5785820183015181830184015290820190620001fe565b600093810190920192909252949350505050565b600080600080600080600060e0888a0312156200024d57600080fd5b62000258886200014f565b9650602088015195506040880151945062000276606089016200014f565b60808901519094506001600160401b03808211156200029457600080fd5b620002a28b838c0162000182565b945060a08a0151915080821115620002b957600080fd5b50620002c88a828b0162000182565b92505060c0880151905092959891949750929550565b600181811c90821680620002f357607f821691505b6020821081036200031457634e487b7160e01b600052602260045260246000fd5b50919050565b601f8211156200036857600081815260208120601f850160051c81016020861015620003435750805b601f850160051c820191505b8181101562000364578281556001016200034f565b5050505b505050565b81516001600160401b038111156200038957620003896200016c565b620003a1816200039a8454620002de565b846200031a565b602080601f831160018114620003d95760008415620003c05750858301515b600019600386901b1c1916600185901b17855562000364565b600085815260208120601f198616915b828110156200040a57888601518255948401946001909101908401620003e9565b5085821015620004295787850151600019600388901b60f8161c191681555b5050505050600190811b01905550565b808201808211156200045b57634e487b7160e01b600052601160045260246000fd5b92915050565b610c8280620004716000396000f3fe608060405234801561001057600080fd5b50600436106100e65760003560e01c806301333f06146100eb57806306fdde031461011b578063095ea7b31461013057806318160ddd1461015357806323b872dd14610165578063313ce56714610178578063454a2ab3146101875780635a2bcc181461019c57806370a08231146101a557806379946b3e146101ce5780638369d9e2146101d657806395d89b41146101df578063a9059cbb146101e7578063afcfd22b146101fa578063c24a0f8b1461020d578063dd62ed3e14610216578063dfafd4fd1461024f578063fdd68ef814610262575b600080fd5b600b546100fe906001600160a01b031681565b6040516001600160a01b0390911681526020015b60405180910390f35b61012361026b565b60405161011291906109fd565b61014361013e366004610a67565b6102fd565b6040519015158152602001610112565b6002545b604051908152602001610112565b610143610173366004610a91565b610358565b60405160128152602001610112565b61019a610195366004610acd565b610476565b005b61015760085481565b6101576101b3366004610ae6565b6001600160a01b031660009081526003602052604090205490565b61019a6106c6565b61015760075481565b6101236108b4565b6101436101f5366004610a67565b6108c3565b6005546100fe906001600160a01b031681565b610157600a5481565b610157610224366004610b08565b6001600160a01b03918216600090815260046020908152604080832093909416825291909152205490565b6006546100fe906001600160a01b031681565b61015760095481565b60606000805461027a90610b3b565b80601f01602080910402602001604051908101604052809291908181526020018280546102a690610b3b565b80156102f35780601f106102c8576101008083540402835291602001916102f3565b820191906000526020600020905b8154815290600101906020018083116102d657829003601f168201915b5050505050905090565b3360008181526004602090815260408083206001600160a01b03871680855292528083208590555191929091600080516020610c2d833981519152906103469086815260200190565b60405180910390a35060015b92915050565b6000336001600160a01b038516148061039457506001600160a01b03841660009081526004602090815260408083203384529091529020548211155b6103d45760405162461bcd60e51b815260206004820152600c60248201526b1b9bdd08185c1c1c9bdd995960a21b60448201526064015b60405180910390fd5b6103df8484846108d9565b336001600160a01b0385161461046c576001600160a01b038416600090815260046020908152604080832033845290915290205461041e908390610b8b565b6001600160a01b038581166000908152600460209081526040808320338085529083529281902085905551938452918616929091600080516020610c2d833981519152910160405180910390a35b5060019392505050565b600a5442106104c15760405162461bcd60e51b815260206004820152601760248201527661756374696f6e206d757374206265206f6e676f696e6760481b60448201526064016103cb565b60095481116105045760405162461bcd60e51b815260206004820152600f60248201526e1b5d5cdd081899481d1bdc08189a59608a1b60448201526064016103cb565b6006546040516323b872dd60e01b8152336004820152306024820152604481018390526001600160a01b03909116906323b872dd906064016020604051808303816000875af115801561055b573d6000803e3d6000fd5b505050506040513d601f19601f8201168201806040525081019061057f9190610b9e565b6105bd5760405162461bcd60e51b815260206004820152600f60248201526e6d7573742067657420746f6b656e7360881b60448201526064016103cb565b6009541561068357600654600b5460095460405163a9059cbb60e01b81526001600160a01b039384169363a9059cbb936105fc93911691600401610bc0565b6020604051808303816000875af115801561061b573d6000803e3d6000fd5b505050506040513d601f19601f8201168201806040525081019061063f9190610b9e565b6106835760405162461bcd60e51b81526020600482015260156024820152746d7573742073656e64206261636b20746f6b656e7360581b60448201526064016103cb565b600b80546001600160a01b031916339081179091556009829055604051600080516020610c0d833981519152916106bb918490610bc0565b60405180910390a150565b600a5442101561070f5760405162461bcd60e51b815260206004820152601460248201527330bab1ba34b7b71036bab9ba1031329037bb32b960611b60448201526064016103cb565b600b54600854610728916001600160a01b03169061097c565b600954156108155760065460055460095460405163095ea7b360e01b81526001600160a01b039384169363095ea7b39361076793911691600401610bc0565b6020604051808303816000875af1158015610786573d6000803e3d6000fd5b505050506040513d601f19601f820116820180604052508101906107aa9190610b9e565b5060055460095460405163214cabe560e11b81526004810191909152600060248201526001600160a01b039091169063429957ca90604401600060405180830381600087803b1580156107fc57600080fd5b505af1158015610810573d6000803e3d6000fd5b505050505b600b546009546040517f1d78ca6377547e2f5434a04066a4dcac7670fd77e146b686b06bf8fbc06fb43592610855926001600160a01b0390911691610bc0565b60405180910390a1600754600a5461086d9190610bd9565b600a55600b80546001600160a01b0319163390811790915560006009819055604051600080516020610c0d833981519152926108aa929091610bc0565b60405180910390a1565b60606001805461027a90610b3b565b60006108d03384846108d9565b50600192915050565b6001600160a01b0383166000908152600360205260409020546108fd908290610b8b565b6001600160a01b03808516600090815260036020526040808220939093559084168152205461092d908290610bd9565b6001600160a01b038084166000818152600360205260409081902093909355915190851690600080516020610bed8339815191529061096f9085815260200190565b60405180910390a3505050565b6001600160a01b0382166000908152600360205260409020546109a0908290610bd9565b6001600160a01b0383166000908152600360205260409020556002546109c7908290610bd9565b6002556040518181526001600160a01b03831690600090600080516020610bed8339815191529060200160405180910390a35050565b600060208083528351808285015260005b81811015610a2a57858101830151858201604001528201610a0e565b506000604082860101526040601f19601f8301168501019250505092915050565b80356001600160a01b0381168114610a6257600080fd5b919050565b60008060408385031215610a7a57600080fd5b610a8383610a4b565b946020939093013593505050565b600080600060608486031215610aa657600080fd5b610aaf84610a4b565b9250610abd60208501610a4b565b9150604084013590509250925092565b600060208284031215610adf57600080fd5b5035919050565b600060208284031215610af857600080fd5b610b0182610a4b565b9392505050565b60008060408385031215610b1b57600080fd5b610b2483610a4b565b9150610b3260208401610a4b565b90509250929050565b600181811c90821680610b4f57607f821691505b602082108103610b6f57634e487b7160e01b600052602260045260246000fd5b50919050565b634e487b7160e01b600052601160045260246000fd5b8181038181111561035257610352610b75565b600060208284031215610bb057600080fd5b81518015158114610b0157600080fd5b6001600160a01b03929092168252602082015260400190565b8082018082111561035257610352610b7556feddf252ad1be2c89b69c2b068fc378daa952ba7f163c4a11628f55a4df523b3ef1c11e11b6ba23166c1d895fcbb2933eb498d77822e35178fd2bd77a79027f9928c5be1e5ebec7d5bd14f71427d1e84f3dd0314c0f7b2291e5b200ac8c7c3b925a26469706673582212201857223ae773cf9c7a21c596157e9e89ef4f15fccd0e37ee656120e692fc10e564736f6c63430008110033",
  "linkReferences": {},
  "deployedLinkReferences": {}
}