{
  "_format": "hh-sol-artifact-1",
  "contractName": "Auction",
  "sourceName": "incentiveToken/contracts/Auction.sol",
  "abi": [
    {
      "inputs": [
        {
          "internalType": "address",
          "name": "_bidToken",
          "type": "address"
        },
        {
          "internalType": "uint256",
          "name": "_mintAmount",
          "type": "uint256"
        },
        {
          "internalType": "uint256",
          "name": "_auctionFrequency",
          "type": "uint256"
        },
        {
          "internalType": "address",
          "name": "_cfc",
          "type": "address"
        },
        {
          "internalType": "string",
          "name": "_name",
          "type": "string"
        },
        {
          "internalType": "string",
          "name": "_symbol",
          "type": "string"
        }
      ],
      "stateMutability": "nonpayable",
      "type": "constructor"
    },
    {
      "anonymous": false,
      "inputs": [
        {
          "indexed": true,
          "internalType": "address",
          "name": "_src",
          "type": "address"
        },
        {
          "indexed": true,
          "internalType": "address",
          "name": "_dst",
          "type": "address"
        },
        {
          "indexed": false,
          "internalType": "uint256",
          "name": "_amt",
          "type": "uint256"
        }
      ],
      "name": "Approval",
      "type": "event"
    },
    {
      "anonymous": false,
      "inputs": [
        {
          "indexed": false,
          "internalType": "address",
          "name": "_winner",
          "type": "address"
        },
        {
          "indexed": false,
          "internalType": "uint256",
          "name": "_amount",
          "type": "uint256"
        }
      ],
      "name": "AuctionClosed",
      "type": "event"
    },
    {
      "anonymous": false,
      "inputs": [
        {
          "indexed": false,
          "internalType": "uint256",
          "name": "_endDate",
          "type": "uint256"
        }
      ],
      "name": "NewAuctionStarted",
      "type": "event"
    },
    {
      "anonymous": false,
      "inputs": [
        {
          "indexed": false,
          "internalType": "address",
          "name": "_bidder",
          "type": "address"
        },
        {
          "indexed": false,
          "internalType": "uint256",
          "name": "_amount",
          "type": "uint256"
        }
      ],
      "name": "NewTopBid",
      "type": "event"
    },
    {
      "anonymous": false,
      "inputs": [
        {
          "indexed": true,
          "internalType": "address",
          "name": "_src",
          "type": "address"
        },
        {
          "indexed": true,
          "internalType": "address",
          "name": "_dst",
          "type": "address"
        },
        {
          "indexed": false,
          "internalType": "uint256",
          "name": "_amt",
          "type": "uint256"
        }
      ],
      "name": "Transfer",
      "type": "event"
    },
    {
      "inputs": [
        {
          "internalType": "address",
          "name": "_src",
          "type": "address"
        },
        {
          "internalType": "address",
          "name": "_dst",
          "type": "address"
        }
      ],
      "name": "allowance",
      "outputs": [
        {
          "internalType": "uint256",
          "name": "",
          "type": "uint256"
        }
      ],
      "stateMutability": "view",
      "type": "function"
    },
    {
      "inputs": [
        {
          "internalType": "address",
          "name": "_spender",
          "type": "address"
        },
        {
          "internalType": "uint256",
          "name": "_amount",
          "type": "uint256"
        }
      ],
      "name": "approve",
      "outputs": [
        {
          "internalType": "bool",
          "name": "",
          "type": "bool"
        }
      ],
      "stateMutability": "nonpayable",
      "type": "function"
    },
    {
      "inputs": [],
      "name": "auctionFrequency",
      "outputs": [
        {
          "internalType": "uint256",
          "name": "",
          "type": "uint256"
        }
      ],
      "stateMutability": "view",
      "type": "function"
    },
    {
      "inputs": [
        {
          "internalType": "address",
          "name": "_user",
          "type": "address"
        }
      ],
      "name": "balanceOf",
      "outputs": [
        {
          "internalType": "uint256",
          "name": "",
          "type": "uint256"
        }
      ],
      "stateMutability": "view",
      "type": "function"
    },
    {
      "inputs": [
        {
          "internalType": "uint256",
          "name": "_amount",
          "type": "uint256"
        }
      ],
      "name": "bid",
      "outputs": [],
      "stateMutability": "nonpayable",
      "type": "function"
    },
    {
      "inputs": [],
      "name": "bidToken",
      "outputs": [
        {
          "internalType": "contract IERC20",
          "name": "",
          "type": "address"
        }
      ],
      "stateMutability": "view",
      "type": "function"
    },
    {
      "inputs": [],
      "name": "charonFeeContract",
      "outputs": [
        {
          "internalType": "contract ICFC",
          "name": "",
          "type": "address"
        }
      ],
      "stateMutability": "view",
      "type": "function"
    },
    {
      "inputs": [],
      "name": "currentTopBid",
      "outputs": [
        {
          "internalType": "uint256",
          "name": "",
          "type": "uint256"
        }
      ],
      "stateMutability": "view",
      "type": "function"
    },
    {
      "inputs": [],
      "name": "decimals",
      "outputs": [
        {
          "internalType": "uint8",
          "name": "",
          "type": "uint8"
        }
      ],
      "stateMutability": "pure",
      "type": "function"
    },
    {
      "inputs": [],
      "name": "endDate",
      "outputs": [
        {
          "internalType": "uint256",
          "name": "",
          "type": "uint256"
        }
      ],
      "stateMutability": "view",
      "type": "function"
    },
    {
      "inputs": [],
      "name": "mintAmount",
      "outputs": [
        {
          "internalType": "uint256",
          "name": "",
          "type": "uint256"
        }
      ],
      "stateMutability": "view",
      "type": "function"
    },
    {
      "inputs": [],
      "name": "name",
      "outputs": [
        {
          "internalType": "string",
          "name": "",
          "type": "string"
        }
      ],
      "stateMutability": "view",
      "type": "function"
    },
    {
      "inputs": [],
      "name": "startNewAuction",
      "outputs": [],
      "stateMutability": "nonpayable",
      "type": "function"
    },
    {
      "inputs": [],
      "name": "symbol",
      "outputs": [
        {
          "internalType": "string",
          "name": "",
          "type": "string"
        }
      ],
      "stateMutability": "view",
      "type": "function"
    },
    {
      "inputs": [],
      "name": "topBidder",
      "outputs": [
        {
          "internalType": "address",
          "name": "",
          "type": "address"
        }
      ],
      "stateMutability": "view",
      "type": "function"
    },
    {
      "inputs": [],
      "name": "totalSupply",
      "outputs": [
        {
          "internalType": "uint256",
          "name": "",
          "type": "uint256"
        }
      ],
      "stateMutability": "view",
      "type": "function"
    },
    {
      "inputs": [
        {
          "internalType": "address",
          "name": "_to",
          "type": "address"
        },
        {
          "internalType": "uint256",
          "name": "_amount",
          "type": "uint256"
        }
      ],
      "name": "transfer",
      "outputs": [
        {
          "internalType": "bool",
          "name": "",
          "type": "bool"
        }
      ],
      "stateMutability": "nonpayable",
      "type": "function"
    },
    {
      "inputs": [
        {
          "internalType": "address",
          "name": "_from",
          "type": "address"
        },
        {
          "internalType": "address",
          "name": "_to",
          "type": "address"
        },
        {
          "internalType": "uint256",
          "name": "_amount",
          "type": "uint256"
        }
      ],
      "name": "transferFrom",
      "outputs": [
        {
          "internalType": "bool",
          "name": "",
          "type": "bool"
        }
      ],
      "stateMutability": "nonpayable",
      "type": "function"
    }
  ],
  "bytecode": "0x60806040523480156200001157600080fd5b50604051620010df380380620010df833981016040819052620000349162000230565b8181600062000044838262000361565b50600162000053828262000361565b5050600680546001600160a01b03808a166001600160a01b031992831617909255600888905560078790556005805492871692909116919091179055506200009c84426200042d565b600a55620000ab3386620000b7565b50505050505062000455565b6001600160a01b038216600090815260036020526040902054620000dd9082906200042d565b6001600160a01b038316600090815260036020526040902055600254620001069082906200042d565b6002556040518181526001600160a01b038316906000907fddf252ad1be2c89b69c2b068fc378daa952ba7f163c4a11628f55a4df523b3ef9060200160405180910390a35050565b80516001600160a01b03811681146200016657600080fd5b919050565b634e487b7160e01b600052604160045260246000fd5b600082601f8301126200019357600080fd5b81516001600160401b0380821115620001b057620001b06200016b565b604051601f8301601f19908116603f01168101908282118183101715620001db57620001db6200016b565b81604052838152602092508683858801011115620001f857600080fd5b600091505b838210156200021c5785820183015181830184015290820190620001fd565b600093810190920192909252949350505050565b60008060008060008060c087890312156200024a57600080fd5b62000255876200014e565b9550602087015194506040870151935062000273606088016200014e565b60808801519093506001600160401b03808211156200029157600080fd5b6200029f8a838b0162000181565b935060a0890151915080821115620002b657600080fd5b50620002c589828a0162000181565b9150509295509295509295565b600181811c90821680620002e757607f821691505b6020821081036200030857634e487b7160e01b600052602260045260246000fd5b50919050565b601f8211156200035c57600081815260208120601f850160051c81016020861015620003375750805b601f850160051c820191505b81811015620003585782815560010162000343565b5050505b505050565b81516001600160401b038111156200037d576200037d6200016b565b62000395816200038e8454620002d2565b846200030e565b602080601f831160018114620003cd5760008415620003b45750858301515b600019600386901b1c1916600185901b17855562000358565b600085815260208120601f198616915b82811015620003fe57888601518255948401946001909101908401620003dd565b50858210156200041d5787850151600019600388901b60f8161c191681555b5050505050600190811b01905550565b808201808211156200044f57634e487b7160e01b600052601160045260246000fd5b92915050565b610c7a80620004656000396000f3fe608060405234801561001057600080fd5b50600436106100e65760003560e01c806301333f06146100eb57806306fdde031461011b578063095ea7b31461013057806318160ddd1461015357806323b872dd14610165578063313ce56714610178578063454a2ab3146101875780635a2bcc181461019c57806370a08231146101a557806379946b3e146101ce5780638369d9e2146101d657806395d89b41146101df578063a9059cbb146101e7578063afcfd22b146101fa578063c24a0f8b1461020d578063dd62ed3e14610216578063dfafd4fd1461024f578063fdd68ef814610262575b600080fd5b600b546100fe906001600160a01b031681565b6040516001600160a01b0390911681526020015b60405180910390f35b61012361026b565b60405161011291906109f5565b61014361013e366004610a5f565b6102fd565b6040519015158152602001610112565b6002545b604051908152602001610112565b610143610173366004610a89565b610358565b60405160128152602001610112565b61019a610195366004610ac5565b610471565b005b61015760085481565b6101576101b3366004610ade565b6001600160a01b031660009081526003602052604090205490565b61019a6106c1565b61015760075481565b6101236108ac565b6101436101f5366004610a5f565b6108bb565b6005546100fe906001600160a01b031681565b610157600a5481565b610157610224366004610b00565b6001600160a01b03918216600090815260046020908152604080832093909416825291909152205490565b6006546100fe906001600160a01b031681565b61015760095481565b60606000805461027a90610b33565b80601f01602080910402602001604051908101604052809291908181526020018280546102a690610b33565b80156102f35780601f106102c8576101008083540402835291602001916102f3565b820191906000526020600020905b8154815290600101906020018083116102d657829003601f168201915b5050505050905090565b3360008181526004602090815260408083206001600160a01b03871680855292528083208590555191929091600080516020610c25833981519152906103469086815260200190565b60405180910390a35060015b92915050565b6000336001600160a01b038516148061039457506001600160a01b03841660009081526004602090815260408083203384529091529020548211155b6103d45760405162461bcd60e51b815260206004820152600c60248201526b1b9bdd08185c1c1c9bdd995960a21b60448201526064015b60405180910390fd5b6103df8484846108d1565b336001600160a01b03851614610467576001600160a01b038416600090815260046020908152604080832033845290915290205461041e908390610b83565b6001600160a01b03851660008181526004602090815260408083203380855290835292819020859055519384529092600080516020610c25833981519152910160405180910390a35b5060019392505050565b600a5442106104bc5760405162461bcd60e51b815260206004820152601760248201527661756374696f6e206d757374206265206f6e676f696e6760481b60448201526064016103cb565b60095481116104ff5760405162461bcd60e51b815260206004820152600f60248201526e1b5d5cdd081899481d1bdc08189a59608a1b60448201526064016103cb565b6006546040516323b872dd60e01b8152336004820152306024820152604481018390526001600160a01b03909116906323b872dd906064016020604051808303816000875af1158015610556573d6000803e3d6000fd5b505050506040513d601f19601f8201168201806040525081019061057a9190610b96565b6105b85760405162461bcd60e51b815260206004820152600f60248201526e6d7573742067657420746f6b656e7360881b60448201526064016103cb565b6009541561067e57600654600b5460095460405163a9059cbb60e01b81526001600160a01b039384169363a9059cbb936105f793911691600401610bb8565b6020604051808303816000875af1158015610616573d6000803e3d6000fd5b505050506040513d601f19601f8201168201806040525081019061063a9190610b96565b61067e5760405162461bcd60e51b81526020600482015260156024820152746d7573742073656e64206261636b20746f6b656e7360581b60448201526064016103cb565b600b80546001600160a01b031916339081179091556009829055604051600080516020610c05833981519152916106b6918490610bb8565b60405180910390a150565b600a5442101561070a5760405162461bcd60e51b815260206004820152601460248201527330bab1ba34b7b71036bab9ba1031329037bb32b960611b60448201526064016103cb565b600b54600854610723916001600160a01b031690610974565b600954156108105760065460055460095460405163095ea7b360e01b81526001600160a01b039384169363095ea7b39361076293911691600401610bb8565b6020604051808303816000875af1158015610781573d6000803e3d6000fd5b505050506040513d601f19601f820116820180604052508101906107a59190610b96565b5060055460095460405163214cabe560e11b81526004810191909152600060248201526001600160a01b039091169063429957ca90604401600060405180830381600087803b1580156107f757600080fd5b505af115801561080b573d6000803e3d6000fd5b505050505b600b546009546040517f1d78ca6377547e2f5434a04066a4dcac7670fd77e146b686b06bf8fbc06fb43592610850926001600160a01b0390911691610bb8565b60405180910390a16007546108659042610bd1565b600a55600b80546001600160a01b0319163390811790915560006009819055604051600080516020610c05833981519152926108a2929091610bb8565b60405180910390a1565b60606001805461027a90610b33565b60006108c83384846108d1565b50600192915050565b6001600160a01b0383166000908152600360205260409020546108f5908290610b83565b6001600160a01b038085166000908152600360205260408082209390935590841681522054610925908290610bd1565b6001600160a01b038084166000818152600360205260409081902093909355915190851690600080516020610be5833981519152906109679085815260200190565b60405180910390a3505050565b6001600160a01b038216600090815260036020526040902054610998908290610bd1565b6001600160a01b0383166000908152600360205260409020556002546109bf908290610bd1565b6002556040518181526001600160a01b03831690600090600080516020610be58339815191529060200160405180910390a35050565b600060208083528351808285015260005b81811015610a2257858101830151858201604001528201610a06565b506000604082860101526040601f19601f8301168501019250505092915050565b80356001600160a01b0381168114610a5a57600080fd5b919050565b60008060408385031215610a7257600080fd5b610a7b83610a43565b946020939093013593505050565b600080600060608486031215610a9e57600080fd5b610aa784610a43565b9250610ab560208501610a43565b9150604084013590509250925092565b600060208284031215610ad757600080fd5b5035919050565b600060208284031215610af057600080fd5b610af982610a43565b9392505050565b60008060408385031215610b1357600080fd5b610b1c83610a43565b9150610b2a60208401610a43565b90509250929050565b600181811c90821680610b4757607f821691505b602082108103610b6757634e487b7160e01b600052602260045260246000fd5b50919050565b634e487b7160e01b600052601160045260246000fd5b8181038181111561035257610352610b6d565b600060208284031215610ba857600080fd5b81518015158114610af957600080fd5b6001600160a01b03929092168252602082015260400190565b8082018082111561035257610352610b6d56feddf252ad1be2c89b69c2b068fc378daa952ba7f163c4a11628f55a4df523b3ef1c11e11b6ba23166c1d895fcbb2933eb498d77822e35178fd2bd77a79027f9928c5be1e5ebec7d5bd14f71427d1e84f3dd0314c0f7b2291e5b200ac8c7c3b925a264697066735822122087a99d7db48471f38deaa9700a4e4304458cbcfe0460c1d3dc4152ecaf4423cb64736f6c63430008110033",
  "linkReferences": {},
  "deployedLinkReferences": {}
}