{
  "_format": "hh-sol-artifact-1",
  "contractName": "MockETHtoPOLBridge",
  "sourceName": "charonAMM/contracts/mocks/MockETHToPOLBridge.sol",
  "abi": [
    {
      "inputs": [
        {
          "internalType": "address payable",
          "name": "_tellor",
          "type": "address"
        },
        {
          "internalType": "address",
          "name": "_checkpointManager",
          "type": "address"
        },
        {
          "internalType": "address",
          "name": "_fxRoot",
          "type": "address"
        }
      ],
      "stateMutability": "nonpayable",
      "type": "constructor"
    },
    {
      "inputs": [],
      "name": "SEND_MESSAGE_EVENT_SIG",
      "outputs": [
        {
          "internalType": "bytes32",
          "name": "",
          "type": "bytes32"
        }
      ],
      "stateMutability": "view",
      "type": "function"
    },
    {
      "inputs": [],
      "name": "charon",
      "outputs": [
        {
          "internalType": "address",
          "name": "",
          "type": "address"
        }
      ],
      "stateMutability": "view",
      "type": "function"
    },
    {
      "inputs": [],
      "name": "checkpointManager",
      "outputs": [
        {
          "internalType": "contract ICheckpointManager",
          "name": "",
          "type": "address"
        }
      ],
      "stateMutability": "view",
      "type": "function"
    },
    {
      "inputs": [],
      "name": "fxChildTunnel",
      "outputs": [
        {
          "internalType": "address",
          "name": "",
          "type": "address"
        }
      ],
      "stateMutability": "view",
      "type": "function"
    },
    {
      "inputs": [],
      "name": "fxRoot",
      "outputs": [
        {
          "internalType": "contract IFxStateSender",
          "name": "",
          "type": "address"
        }
      ],
      "stateMutability": "view",
      "type": "function"
    },
    {
      "inputs": [
        {
          "internalType": "bytes",
          "name": "_inputData",
          "type": "bytes"
        }
      ],
      "name": "getCommitment",
      "outputs": [
        {
          "internalType": "bytes",
          "name": "_value",
          "type": "bytes"
        }
      ],
      "stateMutability": "view",
      "type": "function"
    },
    {
      "inputs": [
        {
          "internalType": "bytes32",
          "name": "_queryId",
          "type": "bytes32"
        },
        {
          "internalType": "uint256",
          "name": "_timestamp",
          "type": "uint256"
        }
      ],
      "name": "getDataAfter",
      "outputs": [
        {
          "internalType": "bytes",
          "name": "_value",
          "type": "bytes"
        },
        {
          "internalType": "uint256",
          "name": "_timestampRetrieved",
          "type": "uint256"
        }
      ],
      "stateMutability": "view",
      "type": "function"
    },
    {
      "inputs": [
        {
          "internalType": "bytes32",
          "name": "_queryId",
          "type": "bytes32"
        },
        {
          "internalType": "uint256",
          "name": "_timestamp",
          "type": "uint256"
        }
      ],
      "name": "getDataBefore",
      "outputs": [
        {
          "internalType": "bytes",
          "name": "_value",
          "type": "bytes"
        },
        {
          "internalType": "uint256",
          "name": "_timestampRetrieved",
          "type": "uint256"
        }
      ],
      "stateMutability": "view",
      "type": "function"
    },
    {
      "inputs": [
        {
          "internalType": "bytes32",
          "name": "_queryId",
          "type": "bytes32"
        },
        {
          "internalType": "uint256",
          "name": "_timestamp",
          "type": "uint256"
        }
      ],
      "name": "getIndexForDataAfter",
      "outputs": [
        {
          "internalType": "bool",
          "name": "_found",
          "type": "bool"
        },
        {
          "internalType": "uint256",
          "name": "_index",
          "type": "uint256"
        }
      ],
      "stateMutability": "view",
      "type": "function"
    },
    {
      "inputs": [
        {
          "internalType": "bytes32",
          "name": "_queryId",
          "type": "bytes32"
        },
        {
          "internalType": "uint256",
          "name": "_timestamp",
          "type": "uint256"
        }
      ],
      "name": "getIndexForDataBefore",
      "outputs": [
        {
          "internalType": "bool",
          "name": "_found",
          "type": "bool"
        },
        {
          "internalType": "uint256",
          "name": "_index",
          "type": "uint256"
        }
      ],
      "stateMutability": "view",
      "type": "function"
    },
    {
      "inputs": [
        {
          "internalType": "bytes32",
          "name": "_queryId",
          "type": "bytes32"
        },
        {
          "internalType": "uint256",
          "name": "_timestamp",
          "type": "uint256"
        },
        {
          "internalType": "uint256",
          "name": "_maxAge",
          "type": "uint256"
        },
        {
          "internalType": "uint256",
          "name": "_maxCount",
          "type": "uint256"
        }
      ],
      "name": "getMultipleValuesBefore",
      "outputs": [
        {
          "internalType": "bytes[]",
          "name": "_values",
          "type": "bytes[]"
        },
        {
          "internalType": "uint256[]",
          "name": "_timestamps",
          "type": "uint256[]"
        }
      ],
      "stateMutability": "view",
      "type": "function"
    },
    {
      "inputs": [
        {
          "internalType": "bytes32",
          "name": "_queryId",
          "type": "bytes32"
        }
      ],
      "name": "getNewValueCountbyQueryId",
      "outputs": [
        {
          "internalType": "uint256",
          "name": "",
          "type": "uint256"
        }
      ],
      "stateMutability": "view",
      "type": "function"
    },
    {
      "inputs": [
        {
          "internalType": "bytes32",
          "name": "_queryId",
          "type": "bytes32"
        },
        {
          "internalType": "uint256",
          "name": "_timestamp",
          "type": "uint256"
        }
      ],
      "name": "getReporterByTimestamp",
      "outputs": [
        {
          "internalType": "address",
          "name": "",
          "type": "address"
        }
      ],
      "stateMutability": "view",
      "type": "function"
    },
    {
      "inputs": [
        {
          "internalType": "uint256",
          "name": "_timestamp",
          "type": "uint256"
        },
        {
          "internalType": "uint256",
          "name": "_chainID",
          "type": "uint256"
        },
        {
          "internalType": "address",
          "name": "_address",
          "type": "address"
        }
      ],
      "name": "getRootHashAndSupply",
      "outputs": [
        {
          "internalType": "bytes",
          "name": "_value",
          "type": "bytes"
        }
      ],
      "stateMutability": "view",
      "type": "function"
    },
    {
      "inputs": [
        {
          "internalType": "bytes32",
          "name": "_queryId",
          "type": "bytes32"
        },
        {
          "internalType": "uint256",
          "name": "_index",
          "type": "uint256"
        }
      ],
      "name": "getTimestampbyQueryIdandIndex",
      "outputs": [
        {
          "internalType": "uint256",
          "name": "",
          "type": "uint256"
        }
      ],
      "stateMutability": "view",
      "type": "function"
    },
    {
      "inputs": [],
      "name": "id",
      "outputs": [
        {
          "internalType": "uint256",
          "name": "",
          "type": "uint256"
        }
      ],
      "stateMutability": "view",
      "type": "function"
    },
    {
      "inputs": [],
      "name": "idMappingContract",
      "outputs": [
        {
          "internalType": "contract IMappingContract",
          "name": "",
          "type": "address"
        }
      ],
      "stateMutability": "view",
      "type": "function"
    },
    {
      "inputs": [
        {
          "internalType": "bytes32",
          "name": "_queryId",
          "type": "bytes32"
        },
        {
          "internalType": "uint256",
          "name": "_timestamp",
          "type": "uint256"
        }
      ],
      "name": "isInDispute",
      "outputs": [
        {
          "internalType": "bool",
          "name": "",
          "type": "bool"
        }
      ],
      "stateMutability": "view",
      "type": "function"
    },
    {
      "inputs": [
        {
          "internalType": "bytes32",
          "name": "",
          "type": "bytes32"
        }
      ],
      "name": "processedExits",
      "outputs": [
        {
          "internalType": "bool",
          "name": "",
          "type": "bool"
        }
      ],
      "stateMutability": "view",
      "type": "function"
    },
    {
      "inputs": [
        {
          "internalType": "bytes",
          "name": "_data",
          "type": "bytes"
        }
      ],
      "name": "receiveMessage",
      "outputs": [],
      "stateMutability": "nonpayable",
      "type": "function"
    },
    {
      "inputs": [
        {
          "internalType": "bytes32",
          "name": "_queryId",
          "type": "bytes32"
        },
        {
          "internalType": "uint256",
          "name": "_timestamp",
          "type": "uint256"
        }
      ],
      "name": "retrieveData",
      "outputs": [
        {
          "internalType": "bytes",
          "name": "",
          "type": "bytes"
        }
      ],
      "stateMutability": "view",
      "type": "function"
    },
    {
      "inputs": [
        {
          "internalType": "bytes",
          "name": "_data",
          "type": "bytes"
        }
      ],
      "name": "sendCommitment",
      "outputs": [],
      "stateMutability": "nonpayable",
      "type": "function"
    },
    {
      "inputs": [
        {
          "internalType": "address",
          "name": "_charon",
          "type": "address"
        }
      ],
      "name": "setCharon",
      "outputs": [],
      "stateMutability": "nonpayable",
      "type": "function"
    },
    {
      "inputs": [
        {
          "internalType": "address",
          "name": "_fxChildTunnel",
          "type": "address"
        }
      ],
      "name": "setFxChildTunnel",
      "outputs": [],
      "stateMutability": "nonpayable",
      "type": "function"
    },
    {
      "inputs": [
        {
          "internalType": "address",
          "name": "_addy",
          "type": "address"
        }
      ],
      "name": "setIdMappingContract",
      "outputs": [],
      "stateMutability": "nonpayable",
      "type": "function"
    },
    {
      "inputs": [],
      "name": "tellor",
      "outputs": [
        {
          "internalType": "contract ITellor",
          "name": "",
          "type": "address"
        }
      ],
      "stateMutability": "view",
      "type": "function"
    },
    {
      "inputs": [
        {
          "internalType": "bytes32",
          "name": "_id",
          "type": "bytes32"
        }
      ],
      "name": "valueFor",
      "outputs": [
        {
          "internalType": "int256",
          "name": "_value",
          "type": "int256"
        },
        {
          "internalType": "uint256",
          "name": "_timestamp",
          "type": "uint256"
        },
        {
          "internalType": "uint256",
          "name": "_statusCode",
          "type": "uint256"
        }
      ],
      "stateMutability": "view",
      "type": "function"
    }
  ],
  "bytecode": "0x60806040523480156200001157600080fd5b5060405162001a3438038062001a34833981016040819052620000349162000090565b600080546001600160a01b039485166001600160a01b031991821617909155600380549385169382169390931790925560028054919093169116179055620000e4565b6001600160a01b03811681146200008d57600080fd5b50565b600080600060608486031215620000a657600080fd5b8351620000b38162000077565b6020850151909350620000c68162000077565b6040850151909250620000d98162000077565b809150509250925092565b61194080620000f46000396000f3fe608060405234801561001057600080fd5b50600436106101495760003560e01c80630e387de61461014e578063193b505b146101885780631959ad5b1461019d57806329449085146101c85780632af8aae0146101f2578063353ab5cf1461020557806344e87f911461021857806351e3aea91461023b578063607f2d421461024e57806364ee3c6d146102715780636b2fd9051461029257806377b03e0d146102b2578063972c4928146102c5578063a792765f146102d8578063aea4e49e146102eb578063af640d0f146102fe578063b6f6869e14610307578063c0857ba01461031a578063c5958af91461032d578063ce5e11bf14610340578063de9b771f14610353578063e07c548614610366578063f66f49c314610379578063f78eea831461038c578063f953cec7146103ba578063fc571a5c146103cd578063fcd4a546146103e0575b600080fd5b6101757f8c5261668696ce22758910d05bab8f186d6eb247ceac2af2e82c7dc17669b03681565b6040519081526020015b60405180910390f35b61019b610196366004611170565b610401565b005b6000546101b0906001600160a01b031681565b6040516001600160a01b03909116815260200161017f565b6101db6101d6366004611194565b610439565b60408051921515835260208301919091520161017f565b6001546101b0906001600160a01b031681565b61019b610213366004611170565b6104b8565b61022b610226366004611194565b6104f0565b604051901515815260200161017f565b61019b610249366004611223565b61056d565b61022b61025c3660046112a2565b60056020526000908152604090205460ff1681565b61028461027f366004611194565b6105c9565b60405161017f92919061130b565b6102a56102a0366004611223565b610622565b60405161017f919061132d565b6101756102c03660046112a2565b6106cf565b6004546101b0906001600160a01b031681565b6102846102e6366004611194565b61073d565b61019b6102f9366004611170565b6107c3565b61017560075481565b6102a5610315366004611340565b610851565b6003546101b0906001600160a01b031681565b6102a561033b366004611194565b610912565b61017561034e366004611194565b61098a565b6002546101b0906001600160a01b031681565b6101b0610374366004611194565b6109fe565b6101db610387366004611194565b610a72565b61039f61039a3660046112a2565b610c2f565b6040805193845260208401929092529082015260600161017f565b61019b6103c8366004611223565b610cf4565b6006546101b0906001600160a01b031681565b6103f36103ee366004611379565b610cfd565b60405161017f9291906113ab565b6001546001600160a01b03161561041757600080fd5b600180546001600160a01b0319166001600160a01b0392909216919091179055565b60008054604051632944908560e01b815282916001600160a01b03169063294490859061046c9087908790600401611446565b6040805180830381865afa158015610488573d6000803e3d6000fd5b505050506040513d601f19601f820116820180604052508101906104ac9190611469565b915091505b9250929050565b6006546001600160a01b0316156104ce57600080fd5b600680546001600160a01b0319166001600160a01b0392909216919091179055565b600080546040516344e87f9160e01b81526001600160a01b03909116906344e87f91906105239086908690600401611446565b602060405180830381865afa158015610540573d6000803e3d6000fd5b505050506040513d601f19601f820116820180604052508101906105649190611495565b90505b92915050565b6006546001600160a01b031633146105bd5760405162461bcd60e51b815260206004820152600e60248201526d36bab9ba1031329031b430b937b760911b60448201526064015b60405180910390fd5b6105c681610fe9565b50565b606060008060006105da8686610a72565b915091508161060157600060405180602001604052806000815250909350935050506104b1565b61060b868261098a565b92506106178684610912565b935050509250929050565b60606008600061063184611054565b8152602001908152602001600020805461064a906114b0565b80601f0160208091040260200160405190810160405280929190818152602001828054610676906114b0565b80156106c35780601f10610698576101008083540402835291602001916106c3565b820191906000526020600020905b8154815290600101906020018083116106a657829003601f168201915b50505050509050919050565b600080546040516377b03e0d60e01b8152600481018490526001600160a01b03909116906377b03e0d90602401602060405180830381865afa158015610719573d6000803e3d6000fd5b505050506040513d601f19601f8201168201806040525081019061056791906114e4565b6000805460405163a792765f60e01b8152606092916001600160a01b03169063a792765f906107729087908790600401611446565b600060405180830381865afa15801561078f573d6000803e3d6000fd5b505050506040513d6000823e601f3d908101601f191682016040526107b7919081019061154a565b90969095509350505050565b6004546001600160a01b03161561082f5760405162461bcd60e51b815260206004820152602a60248201527f467842617365526f6f7454756e6e656c3a204348494c445f54554e4e454c5f4160448201526913149150511657d4d15560b21b60648201526084016105b4565b600480546001600160a01b0319166001600160a01b0392909216919091179055565b60408051602081018490526001600160a01b0383168183015260608082018690528251808303820181526080830190935291600091610893919060a0016115a1565b6040516020818303038152906040528051906020012090506108bd8161a8c0426102e691906115f2565b955091508461090a5760405162461bcd60e51b81526020600482015260196024820152781d1a5b595cdd185b5c081b5d5cdd081899481c1c995cd95b9d603a1b60448201526064016105b4565b509392505050565b60005460405163c5958af960e01b81526060916001600160a01b03169063c5958af9906109459086908690600401611446565b600060405180830381865afa158015610962573d6000803e3d6000fd5b505050506040513d6000823e601f3d908101601f191682016040526105649190810190611605565b6000805460405163ce5e11bf60e01b81526001600160a01b039091169063ce5e11bf906109bd9086908690600401611446565b602060405180830381865afa1580156109da573d6000803e3d6000fd5b505050506040513d601f19601f8201168201806040525081019061056491906114e4565b6000805460405163703e2a4360e11b81526001600160a01b039091169063e07c548690610a319086908690600401611446565b602060405180830381865afa158015610a4e573d6000803e3d6000fd5b505050506040513d601f19601f820116820180604052508101906105649190611639565b6000806000610a80856106cf565b905080600003610a975760008092509250506104b1565b80610aa181611656565b9150600190506000808381610ab68a8361098a565b9050888111610ad157600080975097505050505050506104b1565b610adb8a8461098a565b905088811115610aea57600094505b8415610b9a576002610afc848461166d565b610b069190611680565b9350610b128a8561098a565b905088811115610b53576000610b2d8b61034e6001886115f2565b9050898111610b3f5760009550610b4d565b610b4a6001866115f2565b92505b50610aea565b6000610b648b61034e87600161166d565b905089811115610b87576000955084610b7c816116a2565b955050809150610b4d565b610b9285600161166d565b935050610aea565b610ba48a826104f0565b610bba57600184975097505050505050506104b1565b610bc48a826104f0565b8015610bcf57508584105b15610bf25783610bde816116a2565b945050610beb8a8561098a565b9050610bba565b8584148015610c065750610c068a826104f0565b15610c1d57600080975097505050505050506104b1565b600184975097505050505050506104b1565b6001546040516387a475fd60e01b8152600481018390526000918291829182916001600160a01b03909116906387a475fd90602401602060405180830381865afa158015610c81573d6000803e3d6000fd5b505050506040513d601f19601f82011682018060405250810190610ca591906114e4565b90506060610cb8826102e642600161166d565b945090506000849003610cd8576000806101949450945094505050610ced565b6000610ce3826110d6565b955060c893505050505b9193909250565b6105c681611127565b606080600080610d1188610387888a6115f2565b9150915081610d62576040805160008082526020820190925290610d45565b6060815260200190600190039081610d305790505b506040805160008152602081019091529094509250610fe0915050565b6000610d6e8989610439565b909350905082610dc1576040805160008082526020820190925290610da3565b6060815260200190600190039081610d8e5790505b506040805160008152602081019091529095509350610fe092505050565b6000806000886001600160401b03811115610dde57610dde6111b6565b604051908082528060200260200182016040528015610e07578160200160208202803683370190505b5090505b8883108015610e2e57508482610e2286600161166d565b610e2c91906115f2565b115b15610e92576000610e438d61034e85886115f2565b9050610e4f8d826104f0565b610e7f5780828581518110610e6657610e666116bb565b602090810291909101015283610e7b816116a2565b9450505b82610e89816116a2565b93505050610e0b565b6000836001600160401b03811115610eac57610eac6111b6565b604051908082528060200260200182016040528015610edf57816020015b6060815260200190600190039081610eca5790505b5090506000846001600160401b03811115610efc57610efc6111b6565b604051908082528060200260200182016040528015610f25578160200160208202803683370190505b50905060005b85811015610fd3578381610f406001896115f2565b610f4a91906115f2565b81518110610f5a57610f5a6116bb565b6020026020010151828281518110610f7457610f746116bb565b602002602001018181525050610fa38f838381518110610f9657610f966116bb565b6020026020010151610912565b838281518110610fb557610fb56116bb565b60200260200101819052508080610fcb906116a2565b915050610f2b565b5090985096505050505050505b94509492505050565b6002546004805460405163b472047760e01b81526001600160a01b039384169363b47204779361101f93909116918691016116d1565b600060405180830381600087803b15801561103957600080fd5b505af115801561104d573d6000803e3d6000fd5b5050505050565b6000805b82518110156110d05761106c81600161166d565b835161107891906115f2565b6110839060086116f5565b61108e9060026117f0565b8382815181106110a0576110a06116bb565b01602001516110b2919060f81c6116f5565b6110bc908361166d565b9150806110c8816116a2565b915050611058565b50919050565b6000805b82518110156110d0578281815181106110f5576110f56116bb565b016020015160f81c611109836101006116f5565b611113919061166d565b91508061111f816116a2565b9150506110da565b60078054906000611137836116a2565b90915550506007546000908152600860205260409020611157828261184b565b5050565b6001600160a01b03811681146105c657600080fd5b60006020828403121561118257600080fd5b813561118d8161115b565b9392505050565b600080604083850312156111a757600080fd5b50508035926020909101359150565b634e487b7160e01b600052604160045260246000fd5b604051601f8201601f191681016001600160401b03811182821017156111f4576111f46111b6565b604052919050565b60006001600160401b03821115611215576112156111b6565b50601f01601f191660200190565b60006020828403121561123557600080fd5b81356001600160401b0381111561124b57600080fd5b8201601f8101841361125c57600080fd5b803561126f61126a826111fc565b6111cc565b81815285602083850101111561128457600080fd5b81602084016020830137600091810160200191909152949350505050565b6000602082840312156112b457600080fd5b5035919050565b60005b838110156112d65781810151838201526020016112be565b50506000910152565b600081518084526112f78160208601602086016112bb565b601f01601f19169290920160200192915050565b60408152600061131e60408301856112df565b90508260208301529392505050565b60208152600061056460208301846112df565b60008060006060848603121561135557600080fd5b8335925060208401359150604084013561136e8161115b565b809150509250925092565b6000806000806080858703121561138f57600080fd5b5050823594602084013594506040840135936060013592509050565b6000604082016040835280855180835260608501915060608160051b8601019250602080880160005b8381101561140257605f198887030185526113f08683516112df565b955093820193908201906001016113d4565b50508584038187015286518085528782019482019350915060005b828110156114395784518452938101939281019260010161141d565b5091979650505050505050565b918252602082015260400190565b8051801515811461146457600080fd5b919050565b6000806040838503121561147c57600080fd5b61148583611454565b9150602083015190509250929050565b6000602082840312156114a757600080fd5b61056482611454565b600181811c908216806114c457607f821691505b6020821081036110d057634e487b7160e01b600052602260045260246000fd5b6000602082840312156114f657600080fd5b5051919050565b600082601f83011261150e57600080fd5b815161151c61126a826111fc565b81815284602083860101111561153157600080fd5b6115428260208301602087016112bb565b949350505050565b60008060006060848603121561155f57600080fd5b61156884611454565b60208501519093506001600160401b0381111561158457600080fd5b611590868287016114fd565b925050604084015190509250925092565b60408152601160408201527043726f7373436861696e42616c616e636560781b606082015260806020820152600061056460808301846112df565b634e487b7160e01b600052601160045260246000fd5b81810381811115610567576105676115dc565b60006020828403121561161757600080fd5b81516001600160401b0381111561162d57600080fd5b611542848285016114fd565b60006020828403121561164b57600080fd5b815161118d8161115b565b600081611665576116656115dc565b506000190190565b80820180821115610567576105676115dc565b60008261169d57634e487b7160e01b600052601260045260246000fd5b500490565b6000600182016116b4576116b46115dc565b5060010190565b634e487b7160e01b600052603260045260246000fd5b6001600160a01b0383168152604060208201819052600090611542908301846112df565b8082028115828204841417610567576105676115dc565b600181815b8085111561174757816000190482111561172d5761172d6115dc565b8085161561173a57918102915b93841c9390800290611711565b509250929050565b60008261175e57506001610567565b8161176b57506000610567565b8160018114611781576002811461178b576117a7565b6001915050610567565b60ff84111561179c5761179c6115dc565b50506001821b610567565b5060208310610133831016604e8410600b84101617156117ca575081810a610567565b6117d4838361170c565b80600019048211156117e8576117e86115dc565b029392505050565b6000610564838361174f565b601f82111561184657600081815260208120601f850160051c810160208610156118235750805b601f850160051c820191505b818110156118425782815560010161182f565b5050505b505050565b81516001600160401b03811115611864576118646111b6565b6118788161187284546114b0565b846117fc565b602080601f8311600181146118ad57600084156118955750858301515b600019600386901b1c1916600185901b178555611842565b600085815260208120601f198616915b828110156118dc578886015182559484019460019091019084016118bd565b50858210156118fa5787850151600019600388901b60f8161c191681555b5050505050600190811b0190555056fea2646970667358221220d77893970283b8864b507ced703233937eadb24bb8c2dcf81ce5400b7876c6c964736f6c63430008110033",
  "linkReferences": {},
  "deployedLinkReferences": {}
}