{
  "_format": "hh-sol-artifact-1",
  "contractName": "MockETHtoPOLBridge",
  "sourceName": "charonAMM/contracts/mocks/MockETHToPOLBridge.sol",
  "abi": [
    {
      "inputs": [
        {
          "internalType": "address payable",
          "name": "_tellor",
          "type": "address"
        },
        {
          "internalType": "address",
          "name": "_checkpointManager",
          "type": "address"
        },
        {
          "internalType": "address",
          "name": "_fxRoot",
          "type": "address"
        }
      ],
      "stateMutability": "nonpayable",
      "type": "constructor"
    },
    {
      "inputs": [],
      "name": "SEND_MESSAGE_EVENT_SIG",
      "outputs": [
        {
          "internalType": "bytes32",
          "name": "",
          "type": "bytes32"
        }
      ],
      "stateMutability": "view",
      "type": "function"
    },
    {
      "inputs": [],
      "name": "charon",
      "outputs": [
        {
          "internalType": "address",
          "name": "",
          "type": "address"
        }
      ],
      "stateMutability": "view",
      "type": "function"
    },
    {
      "inputs": [],
      "name": "checkpointManager",
      "outputs": [
        {
          "internalType": "contract ICheckpointManager",
          "name": "",
          "type": "address"
        }
      ],
      "stateMutability": "view",
      "type": "function"
    },
    {
      "inputs": [],
      "name": "fxChildTunnel",
      "outputs": [
        {
          "internalType": "address",
          "name": "",
          "type": "address"
        }
      ],
      "stateMutability": "view",
      "type": "function"
    },
    {
      "inputs": [],
      "name": "fxRoot",
      "outputs": [
        {
          "internalType": "contract IFxStateSender",
          "name": "",
          "type": "address"
        }
      ],
      "stateMutability": "view",
      "type": "function"
    },
    {
      "inputs": [
        {
          "internalType": "bytes",
          "name": "_inputData",
          "type": "bytes"
        }
      ],
      "name": "getCommitment",
      "outputs": [
        {
          "internalType": "bytes",
          "name": "_value",
          "type": "bytes"
        },
        {
          "internalType": "address",
          "name": "_caller",
          "type": "address"
        }
      ],
      "stateMutability": "view",
      "type": "function"
    },
    {
      "inputs": [
        {
          "internalType": "bytes32",
          "name": "_queryId",
          "type": "bytes32"
        },
        {
          "internalType": "uint256",
          "name": "_timestamp",
          "type": "uint256"
        }
      ],
      "name": "getDataAfter",
      "outputs": [
        {
          "internalType": "bytes",
          "name": "_value",
          "type": "bytes"
        },
        {
          "internalType": "uint256",
          "name": "_timestampRetrieved",
          "type": "uint256"
        }
      ],
      "stateMutability": "view",
      "type": "function"
    },
    {
      "inputs": [
        {
          "internalType": "bytes32",
          "name": "_queryId",
          "type": "bytes32"
        },
        {
          "internalType": "uint256",
          "name": "_timestamp",
          "type": "uint256"
        }
      ],
      "name": "getDataBefore",
      "outputs": [
        {
          "internalType": "bytes",
          "name": "_value",
          "type": "bytes"
        },
        {
          "internalType": "uint256",
          "name": "_timestampRetrieved",
          "type": "uint256"
        }
      ],
      "stateMutability": "view",
      "type": "function"
    },
    {
      "inputs": [
        {
          "internalType": "bytes32",
          "name": "_queryId",
          "type": "bytes32"
        },
        {
          "internalType": "uint256",
          "name": "_timestamp",
          "type": "uint256"
        }
      ],
      "name": "getIndexForDataAfter",
      "outputs": [
        {
          "internalType": "bool",
          "name": "_found",
          "type": "bool"
        },
        {
          "internalType": "uint256",
          "name": "_index",
          "type": "uint256"
        }
      ],
      "stateMutability": "view",
      "type": "function"
    },
    {
      "inputs": [
        {
          "internalType": "bytes32",
          "name": "_queryId",
          "type": "bytes32"
        },
        {
          "internalType": "uint256",
          "name": "_timestamp",
          "type": "uint256"
        }
      ],
      "name": "getIndexForDataBefore",
      "outputs": [
        {
          "internalType": "bool",
          "name": "_found",
          "type": "bool"
        },
        {
          "internalType": "uint256",
          "name": "_index",
          "type": "uint256"
        }
      ],
      "stateMutability": "view",
      "type": "function"
    },
    {
      "inputs": [
        {
          "internalType": "bytes32",
          "name": "_queryId",
          "type": "bytes32"
        },
        {
          "internalType": "uint256",
          "name": "_timestamp",
          "type": "uint256"
        },
        {
          "internalType": "uint256",
          "name": "_maxAge",
          "type": "uint256"
        },
        {
          "internalType": "uint256",
          "name": "_maxCount",
          "type": "uint256"
        }
      ],
      "name": "getMultipleValuesBefore",
      "outputs": [
        {
          "internalType": "bytes[]",
          "name": "_values",
          "type": "bytes[]"
        },
        {
          "internalType": "uint256[]",
          "name": "_timestamps",
          "type": "uint256[]"
        }
      ],
      "stateMutability": "view",
      "type": "function"
    },
    {
      "inputs": [
        {
          "internalType": "bytes32",
          "name": "_queryId",
          "type": "bytes32"
        }
      ],
      "name": "getNewValueCountbyQueryId",
      "outputs": [
        {
          "internalType": "uint256",
          "name": "",
          "type": "uint256"
        }
      ],
      "stateMutability": "view",
      "type": "function"
    },
    {
      "inputs": [
        {
          "internalType": "bytes32",
          "name": "_queryId",
          "type": "bytes32"
        },
        {
          "internalType": "uint256",
          "name": "_timestamp",
          "type": "uint256"
        }
      ],
      "name": "getReporterByTimestamp",
      "outputs": [
        {
          "internalType": "address",
          "name": "",
          "type": "address"
        }
      ],
      "stateMutability": "view",
      "type": "function"
    },
    {
      "inputs": [
        {
          "internalType": "uint256",
          "name": "_timestamp",
          "type": "uint256"
        },
        {
          "internalType": "uint256",
          "name": "_chainID",
          "type": "uint256"
        },
        {
          "internalType": "address",
          "name": "_address",
          "type": "address"
        }
      ],
      "name": "getRootHashAndSupply",
      "outputs": [
        {
          "internalType": "bytes",
          "name": "_value",
          "type": "bytes"
        }
      ],
      "stateMutability": "view",
      "type": "function"
    },
    {
      "inputs": [
        {
          "internalType": "bytes32",
          "name": "_queryId",
          "type": "bytes32"
        },
        {
          "internalType": "uint256",
          "name": "_index",
          "type": "uint256"
        }
      ],
      "name": "getTimestampbyQueryIdandIndex",
      "outputs": [
        {
          "internalType": "uint256",
          "name": "",
          "type": "uint256"
        }
      ],
      "stateMutability": "view",
      "type": "function"
    },
    {
      "inputs": [],
      "name": "idMappingContract",
      "outputs": [
        {
          "internalType": "contract IMappingContract",
          "name": "",
          "type": "address"
        }
      ],
      "stateMutability": "view",
      "type": "function"
    },
    {
      "inputs": [
        {
          "internalType": "bytes32",
          "name": "_queryId",
          "type": "bytes32"
        },
        {
          "internalType": "uint256",
          "name": "_timestamp",
          "type": "uint256"
        }
      ],
      "name": "isInDispute",
      "outputs": [
        {
          "internalType": "bool",
          "name": "",
          "type": "bool"
        }
      ],
      "stateMutability": "view",
      "type": "function"
    },
    {
      "inputs": [
        {
          "internalType": "bytes32",
          "name": "",
          "type": "bytes32"
        }
      ],
      "name": "processedExits",
      "outputs": [
        {
          "internalType": "bool",
          "name": "",
          "type": "bool"
        }
      ],
      "stateMutability": "view",
      "type": "function"
    },
    {
      "inputs": [
        {
          "internalType": "bytes32",
          "name": "_queryId",
          "type": "bytes32"
        },
        {
          "internalType": "uint256",
          "name": "_timestamp",
          "type": "uint256"
        }
      ],
      "name": "retrieveData",
      "outputs": [
        {
          "internalType": "bytes",
          "name": "",
          "type": "bytes"
        }
      ],
      "stateMutability": "view",
      "type": "function"
    },
    {
      "inputs": [
        {
          "internalType": "bytes",
          "name": "_data",
          "type": "bytes"
        }
      ],
      "name": "sendCommitment",
      "outputs": [],
      "stateMutability": "nonpayable",
      "type": "function"
    },
    {
      "inputs": [
        {
          "internalType": "address",
          "name": "_charon",
          "type": "address"
        }
      ],
      "name": "setCharon",
      "outputs": [],
      "stateMutability": "nonpayable",
      "type": "function"
    },
    {
      "inputs": [
        {
          "internalType": "address",
          "name": "_fxChildTunnel",
          "type": "address"
        }
      ],
      "name": "setFxChildTunnel",
      "outputs": [],
      "stateMutability": "nonpayable",
      "type": "function"
    },
    {
      "inputs": [
        {
          "internalType": "address",
          "name": "_addy",
          "type": "address"
        }
      ],
      "name": "setIdMappingContract",
      "outputs": [],
      "stateMutability": "nonpayable",
      "type": "function"
    },
    {
      "inputs": [],
      "name": "tellor",
      "outputs": [
        {
          "internalType": "contract ITellor",
          "name": "",
          "type": "address"
        }
      ],
      "stateMutability": "view",
      "type": "function"
    },
    {
      "inputs": [
        {
          "internalType": "bytes32",
          "name": "_id",
          "type": "bytes32"
        }
      ],
      "name": "valueFor",
      "outputs": [
        {
          "internalType": "int256",
          "name": "_value",
          "type": "int256"
        },
        {
          "internalType": "uint256",
          "name": "_timestamp",
          "type": "uint256"
        },
        {
          "internalType": "uint256",
          "name": "_statusCode",
          "type": "uint256"
        }
      ],
      "stateMutability": "view",
      "type": "function"
    }
  ],
  "bytecode": "0x60806040523480156200001157600080fd5b506040516200174c3803806200174c833981016040819052620000349162000090565b600180546001600160a01b039384166001600160a01b031991821617909155600080549284169282169290921790915560048054929093169116179055620000e4565b6001600160a01b03811681146200008d57600080fd5b50565b600080600060608486031215620000a657600080fd5b8351620000b38162000077565b6020850151909350620000c68162000077565b6040850151909250620000d98162000077565b809150509250925092565b61165880620000f46000396000f3fe608060405234801561001057600080fd5b50600436106101735760003560e01c8063972c4928116100de578063ce5e11bf11610097578063f66f49c311610071578063f66f49c3146103a8578063f78eea83146103bb578063fc571a5c146103e9578063fcd4a546146103fc57600080fd5b8063ce5e11bf1461036f578063de9b771f14610382578063e07c54861461039557600080fd5b8063972c4928146102f0578063a792765f14610303578063aea4e49e14610316578063b6f6869e14610329578063c0857ba014610349578063c5958af91461035c57600080fd5b806344e87f911161013057806344e87f911461024257806351e3aea914610265578063607f2d421461027857806364ee3c6d1461029b5780636b2fd905146102bc57806377b03e0d146102dd57600080fd5b80630e387de614610178578063193b505b146101b25780631959ad5b146101c757806329449085146101f25780632af8aae01461021c578063353ab5cf1461022f575b600080fd5b61019f7f8c5261668696ce22758910d05bab8f186d6eb247ceac2af2e82c7dc17669b03681565b6040519081526020015b60405180910390f35b6101c56101c036600461109a565b61041d565b005b6004546101da906001600160a01b031681565b6040516001600160a01b0390911681526020016101a9565b6102056102003660046110be565b610455565b6040805192151583526020830191909152016101a9565b6005546101da906001600160a01b031681565b6101c561023d36600461109a565b6104d7565b6102556102503660046110be565b61050f565b60405190151581526020016101a9565b6101c561027336600461114f565b61058f565b6102556102863660046111cf565b60036020526000908152604090205460ff1681565b6102ae6102a93660046110be565b6105eb565b6040516101a9929190611238565b6102cf6102ca36600461114f565b610644565b6040516101a992919061125a565b61019f6102eb3660046111cf565b61069e565b6002546101da906001600160a01b031681565b6102ae6103113660046110be565b61070e565b6101c561032436600461109a565b610796565b61033c610337366004611284565b610824565b6040516101a991906112bd565b6001546101da906001600160a01b031681565b61033c61036a3660046110be565b6108e9565b61019f61037d3660046110be565b610964565b6000546101da906001600160a01b031681565b6101da6103a33660046110be565b6109db565b6102056103b63660046110be565b610a52565b6103ce6103c93660046111cf565b610c0f565b604080519384526020840192909252908201526060016101a9565b6006546101da906001600160a01b031681565b61040f61040a3660046112d0565b610cd4565b6040516101a9929190611302565b6005546001600160a01b03161561043357600080fd5b600580546001600160a01b0319166001600160a01b0392909216919091179055565b60048054604051632944908560e01b81529182018490526024820183905260009182916001600160a01b0316906329449085906044016040805180830381865afa1580156104a7573d6000803e3d6000fd5b505050506040513d601f19601f820116820180604052508101906104cb91906113b2565b915091505b9250929050565b6006546001600160a01b0316156104ed57600080fd5b600680546001600160a01b0319166001600160a01b0392909216919091179055565b600480546040516344e87f9160e01b8152918201849052602482018390526000916001600160a01b03909116906344e87f9190604401602060405180830381865afa158015610562573d6000803e3d6000fd5b505050506040513d601f19601f8201168201806040525081019061058691906113de565b90505b92915050565b6006546001600160a01b031633146105df5760405162461bcd60e51b815260206004820152600e60248201526d36bab9ba1031329031b430b937b760911b60448201526064015b60405180910390fd5b6105e881610fc3565b50565b606060008060006105fc8686610a52565b915091508161062357600060405180602001604052806000815250909350935050506104d0565b61062d8682610964565b925061063986846108e9565b935050509250929050565b6006546060906000906001600160a01b031633146106955760405162461bcd60e51b815260206004820152600e60248201526d36bab9ba1031329031b430b937b760911b60448201526064016105d6565b50909160009150565b600480546040516377b03e0d60e01b81529182018390526000916001600160a01b03909116906377b03e0d90602401602060405180830381865afa1580156106ea573d6000803e3d6000fd5b505050506040513d601f19601f8201168201806040525081019061058991906113f9565b6004805460405163a792765f60e01b8152918201849052602482018390526060916000916001600160a01b03169063a792765f90604401600060405180830381865afa158015610762573d6000803e3d6000fd5b505050506040513d6000823e601f3d908101601f1916820160405261078a919081019061145f565b90969095509350505050565b6002546001600160a01b0316156108025760405162461bcd60e51b815260206004820152602a60248201527f467842617365526f6f7454756e6e656c3a204348494c445f54554e4e454c5f4160448201526913149150511657d4d15560b21b60648201526084016105d6565b600280546001600160a01b0319166001600160a01b0392909216919091179055565b60408051602081018490526001600160a01b0383168183015260608082018690528251808303820181526080830190935291600091610866919060a0016114b6565b6040516020818303038152906040528051906020012090506108908161a8c0426103119190611507565b95509150846108e15760405162461bcd60e51b815260206004820152601960248201527f74696d657374616d70206d7573742062652070726573656e740000000000000060448201526064016105d6565b509392505050565b6004805460405163c5958af960e01b8152918201849052602482018390526060916001600160a01b039091169063c5958af990604401600060405180830381865afa15801561093c573d6000803e3d6000fd5b505050506040513d6000823e601f3d908101601f19168201604052610586919081019061151a565b6004805460405163ce5e11bf60e01b8152918201849052602482018390526000916001600160a01b039091169063ce5e11bf90604401602060405180830381865afa1580156109b7573d6000803e3d6000fd5b505050506040513d601f19601f8201168201806040525081019061058691906113f9565b6004805460405163703e2a4360e11b8152918201849052602482018390526000916001600160a01b039091169063e07c548690604401602060405180830381865afa158015610a2e573d6000803e3d6000fd5b505050506040513d601f19601f82011682018060405250810190610586919061154f565b6000806000610a608561069e565b905080600003610a775760008092509250506104d0565b80610a818161156c565b9150600190506000808381610a968a83610964565b9050888111610ab157600080975097505050505050506104d0565b610abb8a84610964565b905088811115610aca57600094505b8415610b7a576002610adc8484611583565b610ae69190611596565b9350610af28a85610964565b905088811115610b33576000610b0d8b61037d600188611507565b9050898111610b1f5760009550610b2d565b610b2a600186611507565b92505b50610aca565b6000610b448b61037d876001611583565b905089811115610b67576000955084610b5c816115b8565b955050809150610b2d565b610b72856001611583565b935050610aca565b610b848a8261050f565b610b9a57600184975097505050505050506104d0565b610ba48a8261050f565b8015610baf57508584105b15610bd25783610bbe816115b8565b945050610bcb8a85610964565b9050610b9a565b8584148015610be65750610be68a8261050f565b15610bfd57600080975097505050505050506104d0565b600184975097505050505050506104d0565b6005546040516387a475fd60e01b8152600481018390526000918291829182916001600160a01b03909116906387a475fd90602401602060405180830381865afa158015610c61573d6000803e3d6000fd5b505050506040513d601f19601f82011682018060405250810190610c8591906113f9565b90506060610c9882610311426001611583565b945090506000849003610cb8576000806101949450945094505050610ccd565b6000610cc38261102e565b955060c893505050505b9193909250565b606080600080610ce8886103b6888a611507565b9150915081610d39576040805160008082526020820190925290610d1c565b6060815260200190600190039081610d075790505b506040805160008152602081019091529094509250610fba915050565b6000610d458989610455565b909350905082610d98576040805160008082526020820190925290610d7a565b6060815260200190600190039081610d655790505b506040805160008152602081019091529095509350610fba92505050565b60008060008867ffffffffffffffff811115610db657610db66110e0565b604051908082528060200260200182016040528015610ddf578160200160208202803683370190505b5090505b8883108015610e0657508482610dfa866001611583565b610e049190611507565b115b15610e6a576000610e1b8d61037d8588611507565b9050610e278d8261050f565b610e575780828581518110610e3e57610e3e6115d1565b602090810291909101015283610e53816115b8565b9450505b82610e61816115b8565b93505050610de3565b60008367ffffffffffffffff811115610e8557610e856110e0565b604051908082528060200260200182016040528015610eb857816020015b6060815260200190600190039081610ea35790505b50905060008467ffffffffffffffff811115610ed657610ed66110e0565b604051908082528060200260200182016040528015610eff578160200160208202803683370190505b50905060005b85811015610fad578381610f1a600189611507565b610f249190611507565b81518110610f3457610f346115d1565b6020026020010151828281518110610f4e57610f4e6115d1565b602002602001018181525050610f7d8f838381518110610f7057610f706115d1565b60200260200101516108e9565b838281518110610f8f57610f8f6115d1565b60200260200101819052508080610fa5906115b8565b915050610f05565b5090985096505050505050505b94509492505050565b60005460025460405163b472047760e01b81526001600160a01b039283169263b472047792610ff99291169085906004016115e7565b600060405180830381600087803b15801561101357600080fd5b505af1158015611027573d6000803e3d6000fd5b5050505050565b6000805b825181101561107f5782818151811061104d5761104d6115d1565b016020015160f81c6110618361010061160b565b61106b9190611583565b915080611077816115b8565b915050611032565b50919050565b6001600160a01b03811681146105e857600080fd5b6000602082840312156110ac57600080fd5b81356110b781611085565b9392505050565b600080604083850312156110d157600080fd5b50508035926020909101359150565b634e487b7160e01b600052604160045260246000fd5b604051601f8201601f1916810167ffffffffffffffff8111828210171561111f5761111f6110e0565b604052919050565b600067ffffffffffffffff821115611141576111416110e0565b50601f01601f191660200190565b60006020828403121561116157600080fd5b813567ffffffffffffffff81111561117857600080fd5b8201601f8101841361118957600080fd5b803561119c61119782611127565b6110f6565b8181528560208385010111156111b157600080fd5b81602084016020830137600091810160200191909152949350505050565b6000602082840312156111e157600080fd5b5035919050565b60005b838110156112035781810151838201526020016111eb565b50506000910152565b600081518084526112248160208601602086016111e8565b601f01601f19169290920160200192915050565b60408152600061124b604083018561120c565b90508260208301529392505050565b60408152600061126d604083018561120c565b905060018060a01b03831660208301529392505050565b60008060006060848603121561129957600080fd5b833592506020840135915060408401356112b281611085565b809150509250925092565b602081526000610586602083018461120c565b600080600080608085870312156112e657600080fd5b5050823594602084013594506040840135936060013592509050565b6000604082016040835280855180835260608501915060608160051b8601019250602080880160005b8381101561135957605f1988870301855261134786835161120c565b9550938201939082019060010161132b565b50508584038187015286518085528782019482019350915060005b8281101561139057845184529381019392810192600101611374565b5091979650505050505050565b805180151581146113ad57600080fd5b919050565b600080604083850312156113c557600080fd5b6113ce8361139d565b9150602083015190509250929050565b6000602082840312156113f057600080fd5b6105868261139d565b60006020828403121561140b57600080fd5b5051919050565b600082601f83011261142357600080fd5b815161143161119782611127565b81815284602083860101111561144657600080fd5b6114578260208301602087016111e8565b949350505050565b60008060006060848603121561147457600080fd5b61147d8461139d565b9250602084015167ffffffffffffffff81111561149957600080fd5b6114a586828701611412565b925050604084015190509250925092565b60408152601160408201527043726f7373436861696e42616c616e636560781b6060820152608060208201526000610586608083018461120c565b634e487b7160e01b600052601160045260246000fd5b81810381811115610589576105896114f1565b60006020828403121561152c57600080fd5b815167ffffffffffffffff81111561154357600080fd5b61145784828501611412565b60006020828403121561156157600080fd5b81516110b781611085565b60008161157b5761157b6114f1565b506000190190565b80820180821115610589576105896114f1565b6000826115b357634e487b7160e01b600052601260045260246000fd5b500490565b6000600182016115ca576115ca6114f1565b5060010190565b634e487b7160e01b600052603260045260246000fd5b6001600160a01b03831681526040602082018190526000906114579083018461120c565b8082028115828204841417610589576105896114f156fea2646970667358221220cfb313f2d8986f0293b18543bfe8c04e6e38a126412f359cf8cefb97b2f85eed64736f6c63430008110033",
  "linkReferences": {},
  "deployedLinkReferences": {}
}