{
  "_format": "hh-sol-artifact-1",
  "contractName": "POLtoETHBridge",
  "sourceName": "contracts/FlatPOLtoETHBridge.sol",
  "abi": [
    {
      "inputs": [
        {
          "internalType": "address payable",
          "name": "_tellor",
          "type": "address"
        },
        {
          "internalType": "address",
          "name": "_fxChild",
          "type": "address"
        }
      ],
      "stateMutability": "nonpayable",
      "type": "constructor"
    },
    {
      "anonymous": false,
      "inputs": [
        {
          "indexed": false,
          "internalType": "bytes",
          "name": "message",
          "type": "bytes"
        }
      ],
      "name": "MessageSent",
      "type": "event"
    },
    {
      "inputs": [],
      "name": "charon",
      "outputs": [
        {
          "internalType": "address",
          "name": "",
          "type": "address"
        }
      ],
      "stateMutability": "view",
      "type": "function"
    },
    {
      "inputs": [],
      "name": "fxChild",
      "outputs": [
        {
          "internalType": "address",
          "name": "",
          "type": "address"
        }
      ],
      "stateMutability": "view",
      "type": "function"
    },
    {
      "inputs": [],
      "name": "fxRootTunnel",
      "outputs": [
        {
          "internalType": "address",
          "name": "",
          "type": "address"
        }
      ],
      "stateMutability": "view",
      "type": "function"
    },
    {
      "inputs": [
        {
          "internalType": "bytes",
          "name": "_inputData",
          "type": "bytes"
        }
      ],
      "name": "getCommitment",
      "outputs": [
        {
          "internalType": "bytes",
          "name": "_value",
          "type": "bytes"
        }
      ],
      "stateMutability": "nonpayable",
      "type": "function"
    },
    {
      "inputs": [
        {
          "internalType": "bytes32",
          "name": "_queryId",
          "type": "bytes32"
        },
        {
          "internalType": "uint256",
          "name": "_timestamp",
          "type": "uint256"
        }
      ],
      "name": "getDataAfter",
      "outputs": [
        {
          "internalType": "bytes",
          "name": "_value",
          "type": "bytes"
        },
        {
          "internalType": "uint256",
          "name": "_timestampRetrieved",
          "type": "uint256"
        }
      ],
      "stateMutability": "view",
      "type": "function"
    },
    {
      "inputs": [
        {
          "internalType": "bytes32",
          "name": "_queryId",
          "type": "bytes32"
        },
        {
          "internalType": "uint256",
          "name": "_timestamp",
          "type": "uint256"
        }
      ],
      "name": "getDataBefore",
      "outputs": [
        {
          "internalType": "bytes",
          "name": "_value",
          "type": "bytes"
        },
        {
          "internalType": "uint256",
          "name": "_timestampRetrieved",
          "type": "uint256"
        }
      ],
      "stateMutability": "view",
      "type": "function"
    },
    {
      "inputs": [
        {
          "internalType": "bytes32",
          "name": "_queryId",
          "type": "bytes32"
        },
        {
          "internalType": "uint256",
          "name": "_timestamp",
          "type": "uint256"
        }
      ],
      "name": "getIndexForDataAfter",
      "outputs": [
        {
          "internalType": "bool",
          "name": "_found",
          "type": "bool"
        },
        {
          "internalType": "uint256",
          "name": "_index",
          "type": "uint256"
        }
      ],
      "stateMutability": "view",
      "type": "function"
    },
    {
      "inputs": [
        {
          "internalType": "bytes32",
          "name": "_queryId",
          "type": "bytes32"
        },
        {
          "internalType": "uint256",
          "name": "_timestamp",
          "type": "uint256"
        }
      ],
      "name": "getIndexForDataBefore",
      "outputs": [
        {
          "internalType": "bool",
          "name": "_found",
          "type": "bool"
        },
        {
          "internalType": "uint256",
          "name": "_index",
          "type": "uint256"
        }
      ],
      "stateMutability": "view",
      "type": "function"
    },
    {
      "inputs": [
        {
          "internalType": "bytes32",
          "name": "_queryId",
          "type": "bytes32"
        },
        {
          "internalType": "uint256",
          "name": "_timestamp",
          "type": "uint256"
        },
        {
          "internalType": "uint256",
          "name": "_maxAge",
          "type": "uint256"
        },
        {
          "internalType": "uint256",
          "name": "_maxCount",
          "type": "uint256"
        }
      ],
      "name": "getMultipleValuesBefore",
      "outputs": [
        {
          "internalType": "bytes[]",
          "name": "_values",
          "type": "bytes[]"
        },
        {
          "internalType": "uint256[]",
          "name": "_timestamps",
          "type": "uint256[]"
        }
      ],
      "stateMutability": "view",
      "type": "function"
    },
    {
      "inputs": [
        {
          "internalType": "bytes32",
          "name": "_queryId",
          "type": "bytes32"
        }
      ],
      "name": "getNewValueCountbyQueryId",
      "outputs": [
        {
          "internalType": "uint256",
          "name": "",
          "type": "uint256"
        }
      ],
      "stateMutability": "view",
      "type": "function"
    },
    {
      "inputs": [
        {
          "internalType": "bytes32",
          "name": "_queryId",
          "type": "bytes32"
        },
        {
          "internalType": "uint256",
          "name": "_timestamp",
          "type": "uint256"
        }
      ],
      "name": "getReporterByTimestamp",
      "outputs": [
        {
          "internalType": "address",
          "name": "",
          "type": "address"
        }
      ],
      "stateMutability": "view",
      "type": "function"
    },
    {
      "inputs": [
        {
          "internalType": "uint256",
          "name": "_timestamp",
          "type": "uint256"
        },
        {
          "internalType": "uint256",
          "name": "_chainID",
          "type": "uint256"
        },
        {
          "internalType": "address",
          "name": "_address",
          "type": "address"
        }
      ],
      "name": "getRootHashAndSupply",
      "outputs": [
        {
          "internalType": "bytes",
          "name": "_value",
          "type": "bytes"
        }
      ],
      "stateMutability": "view",
      "type": "function"
    },
    {
      "inputs": [
        {
          "internalType": "bytes32",
          "name": "_queryId",
          "type": "bytes32"
        },
        {
          "internalType": "uint256",
          "name": "_index",
          "type": "uint256"
        }
      ],
      "name": "getTimestampbyQueryIdandIndex",
      "outputs": [
        {
          "internalType": "uint256",
          "name": "",
          "type": "uint256"
        }
      ],
      "stateMutability": "view",
      "type": "function"
    },
    {
      "inputs": [],
      "name": "idMappingContract",
      "outputs": [
        {
          "internalType": "contract IMappingContract",
          "name": "",
          "type": "address"
        }
      ],
      "stateMutability": "view",
      "type": "function"
    },
    {
      "inputs": [
        {
          "internalType": "bytes32",
          "name": "_queryId",
          "type": "bytes32"
        },
        {
          "internalType": "uint256",
          "name": "_timestamp",
          "type": "uint256"
        }
      ],
      "name": "isInDispute",
      "outputs": [
        {
          "internalType": "bool",
          "name": "",
          "type": "bool"
        }
      ],
      "stateMutability": "view",
      "type": "function"
    },
    {
      "inputs": [],
      "name": "latestRootMessageSender",
      "outputs": [
        {
          "internalType": "address",
          "name": "",
          "type": "address"
        }
      ],
      "stateMutability": "view",
      "type": "function"
    },
    {
      "inputs": [],
      "name": "latestStateId",
      "outputs": [
        {
          "internalType": "uint256",
          "name": "",
          "type": "uint256"
        }
      ],
      "stateMutability": "view",
      "type": "function"
    },
    {
      "inputs": [
        {
          "internalType": "uint256",
          "name": "stateId",
          "type": "uint256"
        },
        {
          "internalType": "address",
          "name": "rootMessageSender",
          "type": "address"
        },
        {
          "internalType": "bytes",
          "name": "data",
          "type": "bytes"
        }
      ],
      "name": "processMessageFromRoot",
      "outputs": [],
      "stateMutability": "nonpayable",
      "type": "function"
    },
    {
      "inputs": [
        {
          "internalType": "bytes32",
          "name": "_queryId",
          "type": "bytes32"
        },
        {
          "internalType": "uint256",
          "name": "_timestamp",
          "type": "uint256"
        }
      ],
      "name": "retrieveData",
      "outputs": [
        {
          "internalType": "bytes",
          "name": "",
          "type": "bytes"
        }
      ],
      "stateMutability": "view",
      "type": "function"
    },
    {
      "inputs": [
        {
          "internalType": "bytes",
          "name": "_data",
          "type": "bytes"
        }
      ],
      "name": "sendCommitment",
      "outputs": [],
      "stateMutability": "nonpayable",
      "type": "function"
    },
    {
      "inputs": [
        {
          "internalType": "address",
          "name": "_charon",
          "type": "address"
        }
      ],
      "name": "setCharon",
      "outputs": [],
      "stateMutability": "nonpayable",
      "type": "function"
    },
    {
      "inputs": [
        {
          "internalType": "address",
          "name": "_fxRootTunnel",
          "type": "address"
        }
      ],
      "name": "setFxRootTunnel",
      "outputs": [],
      "stateMutability": "nonpayable",
      "type": "function"
    },
    {
      "inputs": [
        {
          "internalType": "address",
          "name": "_addy",
          "type": "address"
        }
      ],
      "name": "setIdMappingContract",
      "outputs": [],
      "stateMutability": "nonpayable",
      "type": "function"
    },
    {
      "inputs": [
        {
          "internalType": "uint256",
          "name": "",
          "type": "uint256"
        }
      ],
      "name": "stateIds",
      "outputs": [
        {
          "internalType": "uint256",
          "name": "",
          "type": "uint256"
        }
      ],
      "stateMutability": "view",
      "type": "function"
    },
    {
      "inputs": [],
      "name": "tellor",
      "outputs": [
        {
          "internalType": "contract ITellor",
          "name": "",
          "type": "address"
        }
      ],
      "stateMutability": "view",
      "type": "function"
    },
    {
      "inputs": [
        {
          "internalType": "bytes32",
          "name": "_id",
          "type": "bytes32"
        }
      ],
      "name": "valueFor",
      "outputs": [
        {
          "internalType": "int256",
          "name": "_value",
          "type": "int256"
        },
        {
          "internalType": "uint256",
          "name": "_timestamp",
          "type": "uint256"
        },
        {
          "internalType": "uint256",
          "name": "_statusCode",
          "type": "uint256"
        }
      ],
      "stateMutability": "view",
      "type": "function"
    }
  ],
  "bytecode": "0x60806040523480156200001157600080fd5b5060405162001b5738038062001b5783398101604081905262000034916200007f565b600080546001600160a01b039384166001600160a01b03199182161790915560028054929093169116179055620000be565b6001600160a01b03811681146200007c57600080fd5b50565b600080604083850312156200009357600080fd5b8251620000a08162000066565b6020840151909250620000b38162000066565b809150509250929050565b611a8980620000ce6000396000f3fe608060405234801561001057600080fd5b506004361061013e5760003560e01c8063193b505b146101435780631959ad5b14610158578063257da3ef1461018857806329449085146101a95780632af8aae0146101d3578063353ab5cf146101e657806344e87f91146101f9578063450d11f01461021c57806351e3aea91461022f5780635a319df91461024257806364ee3c6d1461024b5780636b2fd9051461026c57806377b03e0d1461028c5780637f1e9cb01461029f57806388837094146102b25780639a7c4b71146102c5578063a792765f146102d8578063b6f6869e146102eb578063c5958af9146102fe578063ce5e11bf14610311578063e07c548614610324578063e6a8e74514610337578063f66f49c31461034a578063f78eea831461035d578063fc571a5c1461038b578063fcd4a5461461039e575b600080fd5b610156610151366004611235565b6103bf565b005b60005461016b906001600160a01b031681565b6040516001600160a01b0390911681526020015b60405180910390f35b61019b610196366004611259565b6103f7565b60405190815260200161017f565b6101bc6101b7366004611272565b610418565b60408051921515835260208301919091520161017f565b60015461016b906001600160a01b031681565b6101566101f4366004611235565b610497565b61020c610207366004611272565b6104cf565b604051901515815260200161017f565b60025461016b906001600160a01b031681565b61015661023d366004611301565b61054c565b61019b60045481565b61025e610259366004611272565b61056f565b60405161017f9291906113d0565b61027f61027a366004611301565b6105c8565b60405161017f91906113f2565b61019b61029a366004611259565b61068d565b60035461016b906001600160a01b031681565b6101566102c0366004611235565b6106fb565b6101566102d3366004611405565b61078e565b61025e6102e6366004611272565b610827565b61027f6102f936600461148d565b6108ad565b61027f61030c366004611272565b61096e565b61019b61031f366004611272565b6109e6565b61016b610332366004611272565b610a5a565b60055461016b906001600160a01b031681565b6101bc610358366004611272565b610ace565b61037061036b366004611259565b610c8b565b6040805193845260208401929092529082015260600161017f565b60065461016b906001600160a01b031681565b6103b16103ac3660046114c6565b610d50565b60405161017f9291906114f8565b6001546001600160a01b0316156103d557600080fd5b600180546001600160a01b0319166001600160a01b0392909216919091179055565b6007818154811061040757600080fd5b600091825260209091200154905081565b60008054604051632944908560e01b815282916001600160a01b03169063294490859061044b9087908790600401611593565b6040805180830381865afa158015610467573d6000803e3d6000fd5b505050506040513d601f19601f8201168201806040525081019061048b91906115b6565b915091505b9250929050565b6006546001600160a01b0316156104ad57600080fd5b600680546001600160a01b0319166001600160a01b0392909216919091179055565b600080546040516344e87f9160e01b81526001600160a01b03909116906344e87f91906105029086908690600401611593565b602060405180830381865afa15801561051f573d6000803e3d6000fd5b505050506040513d601f19601f8201168201806040525081019061054391906115e2565b90505b92915050565b6006546001600160a01b0316331461056357600080fd5b61056c8161103c565b50565b606060008060006105808686610ace565b91509150816105a75760006040518060200160405280600081525090935093505050610490565b6105b186826109e6565b92506105bd868461096e565b935050509250929050565b606060006105d583611076565b6000818152600960209081526040808320805460ff1916600117905560089091529020805491925090610607906115fd565b80601f0160208091040260200160405190810160405280929190818152602001828054610633906115fd565b80156106805780601f1061065557610100808354040283529160200191610680565b820191906000526020600020905b81548152906001019060200180831161066357829003601f168201915b5050505050915050919050565b600080546040516377b03e0d60e01b8152600481018490526001600160a01b03909116906377b03e0d90602401602060405180830381865afa1580156106d7573d6000803e3d6000fd5b505050506040513d601f19601f820116820180604052508101906105469190611631565b6003546001600160a01b03161561076c5760405162461bcd60e51b815260206004820152602a60248201527f4678426173654368696c6454756e6e656c3a20524f4f545f54554e4e454c5f4160448201526913149150511657d4d15560b21b60648201526084015b60405180910390fd5b600380546001600160a01b0319166001600160a01b0392909216919091179055565b6002546001600160a01b031633146107e05760405162461bcd60e51b81526020600482015260216024820152600080516020611a348339815191526044820152602960f91b6064820152608401610763565b610821848484848080601f0160208091040260200160405190810160405280939291908181526020018383808284376000920191909152506110f892505050565b50505050565b6000805460405163a792765f60e01b8152606092916001600160a01b03169063a792765f9061085c9087908790600401611593565b600060405180830381865afa158015610879573d6000803e3d6000fd5b505050506040513d6000823e601f3d908101601f191682016040526108a19190810190611697565b90969095509350505050565b60408051602081018490526001600160a01b03831681830152606080820186905282518083038201815260808301909352916000916108ef919060a0016116ee565b6040516020818303038152906040528051906020012090506109198161a8c0426102e6919061173f565b95509150846109665760405162461bcd60e51b81526020600482015260196024820152781d1a5b595cdd185b5c081b5d5cdd081899481c1c995cd95b9d603a1b6044820152606401610763565b509392505050565b60005460405163c5958af960e01b81526060916001600160a01b03169063c5958af9906109a19086908690600401611593565b600060405180830381865afa1580156109be573d6000803e3d6000fd5b505050506040513d6000823e601f3d908101601f191682016040526105439190810190611752565b6000805460405163ce5e11bf60e01b81526001600160a01b039091169063ce5e11bf90610a199086908690600401611593565b602060405180830381865afa158015610a36573d6000803e3d6000fd5b505050506040513d601f19601f820116820180604052508101906105439190611631565b6000805460405163703e2a4360e11b81526001600160a01b039091169063e07c548690610a8d9086908690600401611593565b602060405180830381865afa158015610aaa573d6000803e3d6000fd5b505050506040513d601f19601f820116820180604052508101906105439190611786565b6000806000610adc8561068d565b905080600003610af3576000809250925050610490565b80610afd816117a3565b9150600190506000808381610b128a836109e6565b9050888111610b2d5760008097509750505050505050610490565b610b378a846109e6565b905088811115610b4657600094505b8415610bf6576002610b5884846117ba565b610b6291906117cd565b9350610b6e8a856109e6565b905088811115610baf576000610b898b61031f60018861173f565b9050898111610b9b5760009550610ba9565b610ba660018661173f565b92505b50610b46565b6000610bc08b61031f8760016117ba565b905089811115610be3576000955084610bd8816117ef565b955050809150610ba9565b610bee8560016117ba565b935050610b46565b610c008a826104cf565b610c165760018497509750505050505050610490565b610c208a826104cf565b8015610c2b57508584105b15610c4e5783610c3a816117ef565b945050610c478a856109e6565b9050610c16565b8584148015610c625750610c628a826104cf565b15610c795760008097509750505050505050610490565b60018497509750505050505050610490565b6001546040516387a475fd60e01b8152600481018390526000918291829182916001600160a01b03909116906387a475fd90602401602060405180830381865afa158015610cdd573d6000803e3d6000fd5b505050506040513d601f19601f82011682018060405250810190610d019190611631565b90506060610d14826102e64260016117ba565b945090506000849003610d34576000806101949450945094505050610d49565b6000610d3f826111cf565b955060c893505050505b9193909250565b606080600080610d6488610358888a61173f565b9150915081610db5576040805160008082526020820190925290610d98565b6060815260200190600190039081610d835790505b506040805160008152602081019091529094509250611033915050565b6000610dc18989610418565b909350905082610e14576040805160008082526020820190925290610df6565b6060815260200190600190039081610de15790505b50604080516000815260208101909152909550935061103392505050565b6000806000886001600160401b03811115610e3157610e31611294565b604051908082528060200260200182016040528015610e5a578160200160208202803683370190505b5090505b8883108015610e8157508482610e758660016117ba565b610e7f919061173f565b115b15610ee5576000610e968d61031f858861173f565b9050610ea28d826104cf565b610ed25780828581518110610eb957610eb9611808565b602090810291909101015283610ece816117ef565b9450505b82610edc816117ef565b93505050610e5e565b6000836001600160401b03811115610eff57610eff611294565b604051908082528060200260200182016040528015610f3257816020015b6060815260200190600190039081610f1d5790505b5090506000846001600160401b03811115610f4f57610f4f611294565b604051908082528060200260200182016040528015610f78578160200160208202803683370190505b50905060005b85811015611026578381610f9360018961173f565b610f9d919061173f565b81518110610fad57610fad611808565b6020026020010151828281518110610fc757610fc7611808565b602002602001018181525050610ff68f838381518110610fe957610fe9611808565b602002602001015161096e565b83828151811061100857611008611808565b6020026020010181905250808061101e906117ef565b915050610f7e565b5090985096505050505050505b94509492505050565b7f8c5261668696ce22758910d05bab8f186d6eb247ceac2af2e82c7dc17669b0368160405161106b91906113f2565b60405180910390a150565b6000805b82518110156110f25761108e8160016117ba565b835161109a919061173f565b6110a590600861181e565b6110b0906002611919565b8382815181106110c2576110c2611808565b01602001516110d4919060f81c61181e565b6110de90836117ba565b9150806110ea816117ef565b91505061107a565b50919050565b60035482906001600160a01b038083169116146111595760405162461bcd60e51b815260206004820152602b6024820152600080516020611a3483398151915260448201526a1497d19493d357d493d3d560aa1b6064820152608401610763565b600484905560008481526008602052604090206111768382611974565b5050600580546001600160a01b0319166001600160a01b03939093169290921790915550600780546001810182556000919091527fa66cc928b5edb82af9bd49922954155ab7b0942694bea4ce44661d9a8736c6880155565b6000805b82518110156110f2578281815181106111ee576111ee611808565b016020015160f81c6112028361010061181e565b61120c91906117ba565b915080611218816117ef565b9150506111d3565b6001600160a01b038116811461056c57600080fd5b60006020828403121561124757600080fd5b813561125281611220565b9392505050565b60006020828403121561126b57600080fd5b5035919050565b6000806040838503121561128557600080fd5b50508035926020909101359150565b634e487b7160e01b600052604160045260246000fd5b604051601f8201601f191681016001600160401b03811182821017156112d2576112d2611294565b604052919050565b60006001600160401b038211156112f3576112f3611294565b50601f01601f191660200190565b60006020828403121561131357600080fd5b81356001600160401b0381111561132957600080fd5b8201601f8101841361133a57600080fd5b803561134d611348826112da565b6112aa565b81815285602083850101111561136257600080fd5b81602084016020830137600091810160200191909152949350505050565b60005b8381101561139b578181015183820152602001611383565b50506000910152565b600081518084526113bc816020860160208601611380565b601f01601f19169290920160200192915050565b6040815260006113e360408301856113a4565b90508260208301529392505050565b60208152600061054360208301846113a4565b6000806000806060858703121561141b57600080fd5b84359350602085013561142d81611220565b925060408501356001600160401b038082111561144957600080fd5b818701915087601f83011261145d57600080fd5b81358181111561146c57600080fd5b88602082850101111561147e57600080fd5b95989497505060200194505050565b6000806000606084860312156114a257600080fd5b833592506020840135915060408401356114bb81611220565b809150509250925092565b600080600080608085870312156114dc57600080fd5b5050823594602084013594506040840135936060013592509050565b6000604082016040835280855180835260608501915060608160051b8601019250602080880160005b8381101561154f57605f1988870301855261153d8683516113a4565b95509382019390820190600101611521565b50508584038187015286518085528782019482019350915060005b828110156115865784518452938101939281019260010161156a565b5091979650505050505050565b918252602082015260400190565b805180151581146115b157600080fd5b919050565b600080604083850312156115c957600080fd5b6115d2836115a1565b9150602083015190509250929050565b6000602082840312156115f457600080fd5b610543826115a1565b600181811c9082168061161157607f821691505b6020821081036110f257634e487b7160e01b600052602260045260246000fd5b60006020828403121561164357600080fd5b5051919050565b600082601f83011261165b57600080fd5b8151611669611348826112da565b81815284602083860101111561167e57600080fd5b61168f826020830160208701611380565b949350505050565b6000806000606084860312156116ac57600080fd5b6116b5846115a1565b60208501519093506001600160401b038111156116d157600080fd5b6116dd8682870161164a565b925050604084015190509250925092565b60408152601160408201527043726f7373436861696e42616c616e636560781b606082015260806020820152600061054360808301846113a4565b634e487b7160e01b600052601160045260246000fd5b8181038181111561054657610546611729565b60006020828403121561176457600080fd5b81516001600160401b0381111561177a57600080fd5b61168f8482850161164a565b60006020828403121561179857600080fd5b815161125281611220565b6000816117b2576117b2611729565b506000190190565b8082018082111561054657610546611729565b6000826117ea57634e487b7160e01b600052601260045260246000fd5b500490565b60006001820161180157611801611729565b5060010190565b634e487b7160e01b600052603260045260246000fd5b808202811582820484141761054657610546611729565b600181815b8085111561187057816000190482111561185657611856611729565b8085161561186357918102915b93841c939080029061183a565b509250929050565b60008261188757506001610546565b8161189457506000610546565b81600181146118aa57600281146118b4576118d0565b6001915050610546565b60ff8411156118c5576118c5611729565b50506001821b610546565b5060208310610133831016604e8410600b84101617156118f3575081810a610546565b6118fd8383611835565b806000190482111561191157611911611729565b029392505050565b60006105438383611878565b601f82111561196f57600081815260208120601f850160051c8101602086101561194c5750805b601f850160051c820191505b8181101561196b57828155600101611958565b5050505b505050565b81516001600160401b0381111561198d5761198d611294565b6119a18161199b84546115fd565b84611925565b602080601f8311600181146119d657600084156119be5750858301515b600019600386901b1c1916600185901b17855561196b565b600085815260208120601f198616915b82811015611a05578886015182559484019460019091019084016119e6565b5085821015611a235787850151600019600388901b60f8161c191681555b5050505050600190811b0190555056fe4678426173654368696c6454756e6e656c3a20494e56414c49445f53454e4445a264697066735822122075a2c4c44ba338b649ee1deb3d4639eaf5231a99c8e92ccfe3561d80c3a24ccb64736f6c63430008110033",
  "linkReferences": {},
  "deployedLinkReferences": {}
}