{
  "_format": "hh-sol-artifact-1",
  "contractName": "Charon",
  "sourceName": "charonAMM/contracts/Charon.sol",
  "abi": [
    {
      "inputs": [
        {
          "internalType": "address",
          "name": "_verifier2",
          "type": "address"
        },
        {
          "internalType": "address",
          "name": "_verifier16",
          "type": "address"
        },
        {
          "internalType": "address",
          "name": "_hasher",
          "type": "address"
        },
        {
          "internalType": "address",
          "name": "_token",
          "type": "address"
        },
        {
          "internalType": "uint256",
          "name": "_fee",
          "type": "uint256"
        },
        {
          "internalType": "address[]",
          "name": "_oracles",
          "type": "address[]"
        },
        {
          "internalType": "uint32",
          "name": "_merkleTreeHeight",
          "type": "uint32"
        },
        {
          "internalType": "uint256",
          "name": "_chainID",
          "type": "uint256"
        },
        {
          "internalType": "string",
          "name": "_name",
          "type": "string"
        },
        {
          "internalType": "string",
          "name": "_symbol",
          "type": "string"
        }
      ],
      "stateMutability": "nonpayable",
      "type": "constructor"
    },
    {
      "anonymous": false,
      "inputs": [
        {
          "indexed": true,
          "internalType": "address",
          "name": "_src",
          "type": "address"
        },
        {
          "indexed": true,
          "internalType": "address",
          "name": "_dst",
          "type": "address"
        },
        {
          "indexed": false,
          "internalType": "uint256",
          "name": "_amt",
          "type": "uint256"
        }
      ],
      "name": "Approval",
      "type": "event"
    },
    {
      "anonymous": false,
      "inputs": [
        {
          "indexed": false,
          "internalType": "bool",
          "name": "_isCHD",
          "type": "bool"
        },
        {
          "indexed": false,
          "internalType": "address",
          "name": "_sender",
          "type": "address"
        },
        {
          "indexed": false,
          "internalType": "uint256",
          "name": "_timestamp",
          "type": "uint256"
        },
        {
          "indexed": false,
          "internalType": "uint256",
          "name": "_tokenAmount",
          "type": "uint256"
        }
      ],
      "name": "DepositToOtherChain",
      "type": "event"
    },
    {
      "anonymous": false,
      "inputs": [
        {
          "indexed": false,
          "internalType": "address",
          "name": "_lp",
          "type": "address"
        },
        {
          "indexed": false,
          "internalType": "uint256",
          "name": "_poolAmountOut",
          "type": "uint256"
        }
      ],
      "name": "LPDeposit",
      "type": "event"
    },
    {
      "anonymous": false,
      "inputs": [
        {
          "indexed": false,
          "internalType": "address",
          "name": "_lp",
          "type": "address"
        },
        {
          "indexed": false,
          "internalType": "uint256",
          "name": "_poolAmountIn",
          "type": "uint256"
        }
      ],
      "name": "LPWithdrawal",
      "type": "event"
    },
    {
      "anonymous": false,
      "inputs": [
        {
          "indexed": false,
          "internalType": "bytes32",
          "name": "_commitment",
          "type": "bytes32"
        },
        {
          "indexed": false,
          "internalType": "uint256",
          "name": "_index",
          "type": "uint256"
        },
        {
          "indexed": false,
          "internalType": "bytes",
          "name": "_encryptedOutput",
          "type": "bytes"
        }
      ],
      "name": "NewCommitment",
      "type": "event"
    },
    {
      "anonymous": false,
      "inputs": [
        {
          "indexed": false,
          "internalType": "bytes32",
          "name": "_nullifier",
          "type": "bytes32"
        }
      ],
      "name": "NewNullifier",
      "type": "event"
    },
    {
      "anonymous": false,
      "inputs": [
        {
          "indexed": false,
          "internalType": "uint256",
          "name": "_oracleIndex",
          "type": "uint256"
        },
        {
          "indexed": false,
          "internalType": "bytes",
          "name": "_inputData",
          "type": "bytes"
        }
      ],
      "name": "OracleDeposit",
      "type": "event"
    },
    {
      "anonymous": false,
      "inputs": [
        {
          "indexed": false,
          "internalType": "uint256",
          "name": "_amount",
          "type": "uint256"
        },
        {
          "indexed": false,
          "internalType": "bool",
          "name": "_isCHD",
          "type": "bool"
        }
      ],
      "name": "RewardAdded",
      "type": "event"
    },
    {
      "anonymous": false,
      "inputs": [
        {
          "indexed": false,
          "internalType": "address",
          "name": "_user",
          "type": "address"
        },
        {
          "indexed": false,
          "internalType": "bool",
          "name": "_inIsCHD",
          "type": "bool"
        },
        {
          "indexed": false,
          "internalType": "uint256",
          "name": "_tokenAmountIn",
          "type": "uint256"
        },
        {
          "indexed": false,
          "internalType": "uint256",
          "name": "_tokenAmountOut",
          "type": "uint256"
        }
      ],
      "name": "Swap",
      "type": "event"
    },
    {
      "anonymous": false,
      "inputs": [
        {
          "indexed": true,
          "internalType": "address",
          "name": "_src",
          "type": "address"
        },
        {
          "indexed": true,
          "internalType": "address",
          "name": "_dst",
          "type": "address"
        },
        {
          "indexed": false,
          "internalType": "uint256",
          "name": "_amt",
          "type": "uint256"
        }
      ],
      "name": "Transfer",
      "type": "event"
    },
    {
      "inputs": [],
      "name": "BONE",
      "outputs": [
        {
          "internalType": "uint256",
          "name": "",
          "type": "uint256"
        }
      ],
      "stateMutability": "view",
      "type": "function"
    },
    {
      "inputs": [],
      "name": "FIELD_SIZE",
      "outputs": [
        {
          "internalType": "uint256",
          "name": "",
          "type": "uint256"
        }
      ],
      "stateMutability": "view",
      "type": "function"
    },
    {
      "inputs": [],
      "name": "MAX_IN_RATIO",
      "outputs": [
        {
          "internalType": "uint256",
          "name": "",
          "type": "uint256"
        }
      ],
      "stateMutability": "view",
      "type": "function"
    },
    {
      "inputs": [],
      "name": "MAX_OUT_RATIO",
      "outputs": [
        {
          "internalType": "uint256",
          "name": "",
          "type": "uint256"
        }
      ],
      "stateMutability": "view",
      "type": "function"
    },
    {
      "inputs": [],
      "name": "ROOT_HISTORY_SIZE",
      "outputs": [
        {
          "internalType": "uint32",
          "name": "",
          "type": "uint32"
        }
      ],
      "stateMutability": "view",
      "type": "function"
    },
    {
      "inputs": [],
      "name": "ZERO_VALUE",
      "outputs": [
        {
          "internalType": "uint256",
          "name": "",
          "type": "uint256"
        }
      ],
      "stateMutability": "view",
      "type": "function"
    },
    {
      "inputs": [
        {
          "internalType": "uint256",
          "name": "_toUsers",
          "type": "uint256"
        },
        {
          "internalType": "uint256",
          "name": "_toLPs",
          "type": "uint256"
        },
        {
          "internalType": "uint256",
          "name": "_toOracle",
          "type": "uint256"
        },
        {
          "internalType": "bool",
          "name": "_isCHD",
          "type": "bool"
        }
      ],
      "name": "addRewards",
      "outputs": [],
      "stateMutability": "nonpayable",
      "type": "function"
    },
    {
      "inputs": [
        {
          "internalType": "address",
          "name": "_src",
          "type": "address"
        },
        {
          "internalType": "address",
          "name": "_dst",
          "type": "address"
        }
      ],
      "name": "allowance",
      "outputs": [
        {
          "internalType": "uint256",
          "name": "",
          "type": "uint256"
        }
      ],
      "stateMutability": "view",
      "type": "function"
    },
    {
      "inputs": [
        {
          "internalType": "address",
          "name": "_spender",
          "type": "address"
        },
        {
          "internalType": "uint256",
          "name": "_amount",
          "type": "uint256"
        }
      ],
      "name": "approve",
      "outputs": [
        {
          "internalType": "bool",
          "name": "",
          "type": "bool"
        }
      ],
      "stateMutability": "nonpayable",
      "type": "function"
    },
    {
      "inputs": [
        {
          "internalType": "address",
          "name": "_user",
          "type": "address"
        }
      ],
      "name": "balanceOf",
      "outputs": [
        {
          "internalType": "uint256",
          "name": "",
          "type": "uint256"
        }
      ],
      "stateMutability": "view",
      "type": "function"
    },
    {
      "inputs": [
        {
          "internalType": "uint256",
          "name": "_tokenBalanceIn",
          "type": "uint256"
        },
        {
          "internalType": "uint256",
          "name": "_tokenBalanceOut",
          "type": "uint256"
        },
        {
          "internalType": "uint256",
          "name": "_tokenAmountOut",
          "type": "uint256"
        },
        {
          "internalType": "uint256",
          "name": "_swapFee",
          "type": "uint256"
        }
      ],
      "name": "calcInGivenOut",
      "outputs": [
        {
          "internalType": "uint256",
          "name": "_tokenAmountIn",
          "type": "uint256"
        }
      ],
      "stateMutability": "pure",
      "type": "function"
    },
    {
      "inputs": [
        {
          "internalType": "uint256",
          "name": "_tokenBalanceIn",
          "type": "uint256"
        },
        {
          "internalType": "uint256",
          "name": "_tokenBalanceOut",
          "type": "uint256"
        },
        {
          "internalType": "uint256",
          "name": "_tokenAmountIn",
          "type": "uint256"
        },
        {
          "internalType": "uint256",
          "name": "_swapFee",
          "type": "uint256"
        }
      ],
      "name": "calcOutGivenIn",
      "outputs": [
        {
          "internalType": "uint256",
          "name": "_tokenAmountOut",
          "type": "uint256"
        }
      ],
      "stateMutability": "pure",
      "type": "function"
    },
    {
      "inputs": [
        {
          "internalType": "uint256",
          "name": "_tokenBalanceIn",
          "type": "uint256"
        },
        {
          "internalType": "uint256",
          "name": "_poolSupply",
          "type": "uint256"
        },
        {
          "internalType": "uint256",
          "name": "_tokenAmountIn",
          "type": "uint256"
        }
      ],
      "name": "calcPoolOutGivenSingleIn",
      "outputs": [
        {
          "internalType": "uint256",
          "name": "_poolAmountOut",
          "type": "uint256"
        }
      ],
      "stateMutability": "pure",
      "type": "function"
    },
    {
      "inputs": [
        {
          "internalType": "uint256",
          "name": "_tokenBalanceOut",
          "type": "uint256"
        },
        {
          "internalType": "uint256",
          "name": "_inSupply",
          "type": "uint256"
        },
        {
          "internalType": "uint256",
          "name": "_amountIn",
          "type": "uint256"
        },
        {
          "internalType": "uint256",
          "name": "_swapFee",
          "type": "uint256"
        },
        {
          "internalType": "bool",
          "name": "_isPool",
          "type": "bool"
        }
      ],
      "name": "calcSingleOutGivenIn",
      "outputs": [
        {
          "internalType": "uint256",
          "name": "_tokenAmountOut",
          "type": "uint256"
        }
      ],
      "stateMutability": "pure",
      "type": "function"
    },
    {
      "inputs": [
        {
          "internalType": "uint256",
          "name": "_tokenBalanceIn",
          "type": "uint256"
        },
        {
          "internalType": "uint256",
          "name": "_tokenBalanceOut",
          "type": "uint256"
        },
        {
          "internalType": "uint256",
          "name": "_swapFee",
          "type": "uint256"
        }
      ],
      "name": "calcSpotPrice",
      "outputs": [
        {
          "internalType": "uint256",
          "name": "",
          "type": "uint256"
        }
      ],
      "stateMutability": "pure",
      "type": "function"
    },
    {
      "inputs": [],
      "name": "chainID",
      "outputs": [
        {
          "internalType": "uint256",
          "name": "",
          "type": "uint256"
        }
      ],
      "stateMutability": "view",
      "type": "function"
    },
    {
      "inputs": [],
      "name": "chd",
      "outputs": [
        {
          "internalType": "contract CHD",
          "name": "",
          "type": "address"
        }
      ],
      "stateMutability": "view",
      "type": "function"
    },
    {
      "inputs": [],
      "name": "controller",
      "outputs": [
        {
          "internalType": "address",
          "name": "",
          "type": "address"
        }
      ],
      "stateMutability": "view",
      "type": "function"
    },
    {
      "inputs": [],
      "name": "decimals",
      "outputs": [
        {
          "internalType": "uint8",
          "name": "",
          "type": "uint8"
        }
      ],
      "stateMutability": "pure",
      "type": "function"
    },
    {
      "inputs": [
        {
          "internalType": "bytes32",
          "name": "",
          "type": "bytes32"
        }
      ],
      "name": "depositIdByCommitmentHash",
      "outputs": [
        {
          "internalType": "uint256",
          "name": "",
          "type": "uint256"
        }
      ],
      "stateMutability": "view",
      "type": "function"
    },
    {
      "inputs": [
        {
          "components": [
            {
              "internalType": "bytes",
              "name": "proof",
              "type": "bytes"
            },
            {
              "internalType": "bytes32",
              "name": "root",
              "type": "bytes32"
            },
            {
              "internalType": "uint256",
              "name": "extDataHash",
              "type": "uint256"
            },
            {
              "internalType": "uint256",
              "name": "publicAmount",
              "type": "uint256"
            },
            {
              "internalType": "bytes32[]",
              "name": "inputNullifiers",
              "type": "bytes32[]"
            },
            {
              "internalType": "bytes32[2]",
              "name": "outputCommitments",
              "type": "bytes32[2]"
            }
          ],
          "internalType": "struct Charon.Proof",
          "name": "_proofArgs",
          "type": "tuple"
        },
        {
          "components": [
            {
              "internalType": "address",
              "name": "recipient",
              "type": "address"
            },
            {
              "internalType": "int256",
              "name": "extAmount",
              "type": "int256"
            },
            {
              "internalType": "address",
              "name": "relayer",
              "type": "address"
            },
            {
              "internalType": "uint256",
              "name": "fee",
              "type": "uint256"
            },
            {
              "internalType": "bytes",
              "name": "encryptedOutput1",
              "type": "bytes"
            },
            {
              "internalType": "bytes",
              "name": "encryptedOutput2",
              "type": "bytes"
            }
          ],
          "internalType": "struct Charon.ExtData",
          "name": "_extData",
          "type": "tuple"
        },
        {
          "internalType": "bool",
          "name": "_isCHD",
          "type": "bool"
        }
      ],
      "name": "depositToOtherChain",
      "outputs": [
        {
          "internalType": "uint256",
          "name": "_depositId",
          "type": "uint256"
        }
      ],
      "stateMutability": "nonpayable",
      "type": "function"
    },
    {
      "inputs": [],
      "name": "fee",
      "outputs": [
        {
          "internalType": "uint256",
          "name": "",
          "type": "uint256"
        }
      ],
      "stateMutability": "view",
      "type": "function"
    },
    {
      "inputs": [
        {
          "internalType": "uint256",
          "name": "",
          "type": "uint256"
        }
      ],
      "name": "filledSubtrees",
      "outputs": [
        {
          "internalType": "bytes32",
          "name": "",
          "type": "bytes32"
        }
      ],
      "stateMutability": "view",
      "type": "function"
    },
    {
      "inputs": [
        {
          "internalType": "uint256[]",
          "name": "_partnerChains",
          "type": "uint256[]"
        },
        {
          "internalType": "address[]",
          "name": "_partnerAddys",
          "type": "address[]"
        },
        {
          "internalType": "uint256",
          "name": "_balance",
          "type": "uint256"
        },
        {
          "internalType": "uint256",
          "name": "_synthBalance",
          "type": "uint256"
        },
        {
          "internalType": "address",
          "name": "_chd",
          "type": "address"
        },
        {
          "internalType": "address",
          "name": "_cfc",
          "type": "address"
        }
      ],
      "name": "finalize",
      "outputs": [],
      "stateMutability": "nonpayable",
      "type": "function"
    },
    {
      "inputs": [],
      "name": "finalized",
      "outputs": [
        {
          "internalType": "bool",
          "name": "",
          "type": "bool"
        }
      ],
      "stateMutability": "view",
      "type": "function"
    },
    {
      "inputs": [
        {
          "internalType": "uint256",
          "name": "_id",
          "type": "uint256"
        }
      ],
      "name": "getDepositCommitmentsById",
      "outputs": [
        {
          "components": [
            {
              "components": [
                {
                  "internalType": "address",
                  "name": "recipient",
                  "type": "address"
                },
                {
                  "internalType": "int256",
                  "name": "extAmount",
                  "type": "int256"
                },
                {
                  "internalType": "address",
                  "name": "relayer",
                  "type": "address"
                },
                {
                  "internalType": "uint256",
                  "name": "fee",
                  "type": "uint256"
                },
                {
                  "internalType": "bytes",
                  "name": "encryptedOutput1",
                  "type": "bytes"
                },
                {
                  "internalType": "bytes",
                  "name": "encryptedOutput2",
                  "type": "bytes"
                }
              ],
              "internalType": "struct Charon.ExtData",
              "name": "extData",
              "type": "tuple"
            },
            {
              "components": [
                {
                  "internalType": "bytes",
                  "name": "proof",
                  "type": "bytes"
                },
                {
                  "internalType": "bytes32",
                  "name": "root",
                  "type": "bytes32"
                },
                {
                  "internalType": "uint256",
                  "name": "extDataHash",
                  "type": "uint256"
                },
                {
                  "internalType": "uint256",
                  "name": "publicAmount",
                  "type": "uint256"
                },
                {
                  "internalType": "bytes32[]",
                  "name": "inputNullifiers",
                  "type": "bytes32[]"
                },
                {
                  "internalType": "bytes32[2]",
                  "name": "outputCommitments",
                  "type": "bytes32[2]"
                }
              ],
              "internalType": "struct Charon.Proof",
              "name": "proof",
              "type": "tuple"
            }
          ],
          "internalType": "struct Charon.Commitment",
          "name": "",
          "type": "tuple"
        }
      ],
      "stateMutability": "view",
      "type": "function"
    },
    {
      "inputs": [
        {
          "internalType": "bytes32",
          "name": "_commitment",
          "type": "bytes32"
        }
      ],
      "name": "getDepositIdByCommitmentHash",
      "outputs": [
        {
          "internalType": "uint256",
          "name": "",
          "type": "uint256"
        }
      ],
      "stateMutability": "view",
      "type": "function"
    },
    {
      "inputs": [],
      "name": "getLastRoot",
      "outputs": [
        {
          "internalType": "bytes32",
          "name": "",
          "type": "bytes32"
        }
      ],
      "stateMutability": "view",
      "type": "function"
    },
    {
      "inputs": [
        {
          "internalType": "uint256",
          "name": "_depositId",
          "type": "uint256"
        }
      ],
      "name": "getOracleSubmission",
      "outputs": [
        {
          "internalType": "bytes",
          "name": "_value",
          "type": "bytes"
        }
      ],
      "stateMutability": "view",
      "type": "function"
    },
    {
      "inputs": [],
      "name": "getOracles",
      "outputs": [
        {
          "internalType": "address[]",
          "name": "",
          "type": "address[]"
        }
      ],
      "stateMutability": "view",
      "type": "function"
    },
    {
      "inputs": [],
      "name": "getPartnerContracts",
      "outputs": [
        {
          "components": [
            {
              "internalType": "uint256",
              "name": "chainID",
              "type": "uint256"
            },
            {
              "internalType": "address",
              "name": "contractAddress",
              "type": "address"
            }
          ],
          "internalType": "struct Charon.PartnerContract[]",
          "name": "",
          "type": "tuple[]"
        }
      ],
      "stateMutability": "view",
      "type": "function"
    },
    {
      "inputs": [],
      "name": "getSpotPrice",
      "outputs": [
        {
          "internalType": "uint256",
          "name": "_spotPrice",
          "type": "uint256"
        }
      ],
      "stateMutability": "view",
      "type": "function"
    },
    {
      "inputs": [],
      "name": "getTokens",
      "outputs": [
        {
          "internalType": "address",
          "name": "_chd",
          "type": "address"
        },
        {
          "internalType": "address",
          "name": "_token",
          "type": "address"
        }
      ],
      "stateMutability": "view",
      "type": "function"
    },
    {
      "inputs": [
        {
          "internalType": "uint256",
          "name": "_i",
          "type": "uint256"
        }
      ],
      "name": "getZeros",
      "outputs": [
        {
          "internalType": "bytes32",
          "name": "",
          "type": "bytes32"
        }
      ],
      "stateMutability": "view",
      "type": "function"
    },
    {
      "inputs": [
        {
          "internalType": "bytes32",
          "name": "_left",
          "type": "bytes32"
        },
        {
          "internalType": "bytes32",
          "name": "_right",
          "type": "bytes32"
        }
      ],
      "name": "hashLeftRight",
      "outputs": [
        {
          "internalType": "bytes32",
          "name": "",
          "type": "bytes32"
        }
      ],
      "stateMutability": "view",
      "type": "function"
    },
    {
      "inputs": [],
      "name": "hasher",
      "outputs": [
        {
          "internalType": "contract IHasher",
          "name": "",
          "type": "address"
        }
      ],
      "stateMutability": "view",
      "type": "function"
    },
    {
      "inputs": [
        {
          "internalType": "bytes32",
          "name": "_root",
          "type": "bytes32"
        }
      ],
      "name": "isKnownRoot",
      "outputs": [
        {
          "internalType": "bool",
          "name": "",
          "type": "bool"
        }
      ],
      "stateMutability": "view",
      "type": "function"
    },
    {
      "inputs": [
        {
          "internalType": "bytes32",
          "name": "_nullifierHash",
          "type": "bytes32"
        }
      ],
      "name": "isSpent",
      "outputs": [
        {
          "internalType": "bool",
          "name": "",
          "type": "bool"
        }
      ],
      "stateMutability": "view",
      "type": "function"
    },
    {
      "inputs": [],
      "name": "levels",
      "outputs": [
        {
          "internalType": "uint32",
          "name": "",
          "type": "uint32"
        }
      ],
      "stateMutability": "view",
      "type": "function"
    },
    {
      "inputs": [
        {
          "internalType": "uint256",
          "name": "_poolAmountOut",
          "type": "uint256"
        },
        {
          "internalType": "uint256",
          "name": "_maxCHDIn",
          "type": "uint256"
        },
        {
          "internalType": "uint256",
          "name": "_maxBaseAssetIn",
          "type": "uint256"
        }
      ],
      "name": "lpDeposit",
      "outputs": [],
      "stateMutability": "nonpayable",
      "type": "function"
    },
    {
      "inputs": [
        {
          "internalType": "uint256",
          "name": "_tokenAmountIn",
          "type": "uint256"
        },
        {
          "internalType": "uint256",
          "name": "_minPoolAmountOut",
          "type": "uint256"
        }
      ],
      "name": "lpSingleCHD",
      "outputs": [],
      "stateMutability": "nonpayable",
      "type": "function"
    },
    {
      "inputs": [
        {
          "internalType": "uint256",
          "name": "_poolAmountIn",
          "type": "uint256"
        },
        {
          "internalType": "uint256",
          "name": "_minCHDOut",
          "type": "uint256"
        },
        {
          "internalType": "uint256",
          "name": "_minBaseAssetOut",
          "type": "uint256"
        }
      ],
      "name": "lpWithdraw",
      "outputs": [
        {
          "internalType": "uint256",
          "name": "_tokenAmountOut",
          "type": "uint256"
        }
      ],
      "stateMutability": "nonpayable",
      "type": "function"
    },
    {
      "inputs": [
        {
          "internalType": "uint256",
          "name": "_poolAmountIn",
          "type": "uint256"
        },
        {
          "internalType": "uint256",
          "name": "_minAmountOut",
          "type": "uint256"
        }
      ],
      "name": "lpWithdrawSingleCHD",
      "outputs": [],
      "stateMutability": "nonpayable",
      "type": "function"
    },
    {
      "inputs": [],
      "name": "name",
      "outputs": [
        {
          "internalType": "string",
          "name": "",
          "type": "string"
        }
      ],
      "stateMutability": "view",
      "type": "function"
    },
    {
      "inputs": [
        {
          "internalType": "bytes32",
          "name": "",
          "type": "bytes32"
        }
      ],
      "name": "nullifierHashes",
      "outputs": [
        {
          "internalType": "bool",
          "name": "",
          "type": "bool"
        }
      ],
      "stateMutability": "view",
      "type": "function"
    },
    {
      "inputs": [],
      "name": "oracleCHDFunds",
      "outputs": [
        {
          "internalType": "uint256",
          "name": "",
          "type": "uint256"
        }
      ],
      "stateMutability": "view",
      "type": "function"
    },
    {
      "inputs": [
        {
          "internalType": "uint256",
          "name": "_oracleIndex",
          "type": "uint256"
        },
        {
          "internalType": "bytes",
          "name": "_inputData",
          "type": "bytes"
        }
      ],
      "name": "oracleDeposit",
      "outputs": [],
      "stateMutability": "nonpayable",
      "type": "function"
    },
    {
      "inputs": [],
      "name": "oracleTokenFunds",
      "outputs": [
        {
          "internalType": "uint256",
          "name": "",
          "type": "uint256"
        }
      ],
      "stateMutability": "view",
      "type": "function"
    },
    {
      "inputs": [
        {
          "internalType": "uint256",
          "name": "",
          "type": "uint256"
        }
      ],
      "name": "oracles",
      "outputs": [
        {
          "internalType": "address",
          "name": "",
          "type": "address"
        }
      ],
      "stateMutability": "view",
      "type": "function"
    },
    {
      "inputs": [],
      "name": "recordBalance",
      "outputs": [
        {
          "internalType": "uint256",
          "name": "",
          "type": "uint256"
        }
      ],
      "stateMutability": "view",
      "type": "function"
    },
    {
      "inputs": [],
      "name": "recordBalanceSynth",
      "outputs": [
        {
          "internalType": "uint256",
          "name": "",
          "type": "uint256"
        }
      ],
      "stateMutability": "view",
      "type": "function"
    },
    {
      "inputs": [
        {
          "internalType": "bool",
          "name": "_inIsCHD",
          "type": "bool"
        },
        {
          "internalType": "uint256",
          "name": "_tokenAmountIn",
          "type": "uint256"
        },
        {
          "internalType": "uint256",
          "name": "_minAmountOut",
          "type": "uint256"
        },
        {
          "internalType": "uint256",
          "name": "_maxPrice",
          "type": "uint256"
        }
      ],
      "name": "swap",
      "outputs": [
        {
          "internalType": "uint256",
          "name": "_tokenAmountOut",
          "type": "uint256"
        },
        {
          "internalType": "uint256",
          "name": "_spotPriceAfter",
          "type": "uint256"
        }
      ],
      "stateMutability": "nonpayable",
      "type": "function"
    },
    {
      "inputs": [],
      "name": "symbol",
      "outputs": [
        {
          "internalType": "string",
          "name": "",
          "type": "string"
        }
      ],
      "stateMutability": "view",
      "type": "function"
    },
    {
      "inputs": [],
      "name": "token",
      "outputs": [
        {
          "internalType": "contract IERC20",
          "name": "",
          "type": "address"
        }
      ],
      "stateMutability": "view",
      "type": "function"
    },
    {
      "inputs": [],
      "name": "totalSupply",
      "outputs": [
        {
          "internalType": "uint256",
          "name": "",
          "type": "uint256"
        }
      ],
      "stateMutability": "view",
      "type": "function"
    },
    {
      "inputs": [
        {
          "components": [
            {
              "internalType": "bytes",
              "name": "proof",
              "type": "bytes"
            },
            {
              "internalType": "bytes32",
              "name": "root",
              "type": "bytes32"
            },
            {
              "internalType": "uint256",
              "name": "extDataHash",
              "type": "uint256"
            },
            {
              "internalType": "uint256",
              "name": "publicAmount",
              "type": "uint256"
            },
            {
              "internalType": "bytes32[]",
              "name": "inputNullifiers",
              "type": "bytes32[]"
            },
            {
              "internalType": "bytes32[2]",
              "name": "outputCommitments",
              "type": "bytes32[2]"
            }
          ],
          "internalType": "struct Charon.Proof",
          "name": "_args",
          "type": "tuple"
        },
        {
          "components": [
            {
              "internalType": "address",
              "name": "recipient",
              "type": "address"
            },
            {
              "internalType": "int256",
              "name": "extAmount",
              "type": "int256"
            },
            {
              "internalType": "address",
              "name": "relayer",
              "type": "address"
            },
            {
              "internalType": "uint256",
              "name": "fee",
              "type": "uint256"
            },
            {
              "internalType": "bytes",
              "name": "encryptedOutput1",
              "type": "bytes"
            },
            {
              "internalType": "bytes",
              "name": "encryptedOutput2",
              "type": "bytes"
            }
          ],
          "internalType": "struct Charon.ExtData",
          "name": "_extData",
          "type": "tuple"
        }
      ],
      "name": "transact",
      "outputs": [],
      "stateMutability": "nonpayable",
      "type": "function"
    },
    {
      "inputs": [
        {
          "internalType": "address",
          "name": "_to",
          "type": "address"
        },
        {
          "internalType": "uint256",
          "name": "_amount",
          "type": "uint256"
        }
      ],
      "name": "transfer",
      "outputs": [
        {
          "internalType": "bool",
          "name": "",
          "type": "bool"
        }
      ],
      "stateMutability": "nonpayable",
      "type": "function"
    },
    {
      "inputs": [
        {
          "internalType": "address",
          "name": "_from",
          "type": "address"
        },
        {
          "internalType": "address",
          "name": "_to",
          "type": "address"
        },
        {
          "internalType": "uint256",
          "name": "_amount",
          "type": "uint256"
        }
      ],
      "name": "transferFrom",
      "outputs": [
        {
          "internalType": "bool",
          "name": "",
          "type": "bool"
        }
      ],
      "stateMutability": "nonpayable",
      "type": "function"
    },
    {
      "inputs": [],
      "name": "userRewards",
      "outputs": [
        {
          "internalType": "uint256",
          "name": "",
          "type": "uint256"
        }
      ],
      "stateMutability": "view",
      "type": "function"
    },
    {
      "inputs": [],
      "name": "userRewardsCHD",
      "outputs": [
        {
          "internalType": "uint256",
          "name": "",
          "type": "uint256"
        }
      ],
      "stateMutability": "view",
      "type": "function"
    },
    {
      "inputs": [],
      "name": "verifier16",
      "outputs": [
        {
          "internalType": "contract IVerifier",
          "name": "",
          "type": "address"
        }
      ],
      "stateMutability": "view",
      "type": "function"
    },
    {
      "inputs": [],
      "name": "verifier2",
      "outputs": [
        {
          "internalType": "contract IVerifier",
          "name": "",
          "type": "address"
        }
      ],
      "stateMutability": "view",
      "type": "function"
    }
  ],
  "bytecode": "0x610160604052600380546001600160401b03191690553480156200002257600080fd5b5060405162006915380380620069158339810160408190526200004591620005a6565b8181858a60008263ffffffff1611620000b15760405162461bcd60e51b815260206004820152602360248201527f5f6c6576656c732073686f756c642062652067726561746572207468616e207a60448201526265726f60e81b60648201526084015b60405180910390fd5b60208263ffffffff1610620001095760405162461bcd60e51b815260206004820152601e60248201527f5f6c6576656c732073686f756c64206265206c657373207468616e20333200006044820152606401620000a8565b63ffffffff821660a0526001600160a01b0381166080526000805260026020527f2fe54c60d3acabf3343a35b6eba15db4821b340f76e741e2249685ed4899af6c7fac33ff75c19e70fe83507db0d683fd3465c996598dc972688b7ace676c89077b5560015b60208163ffffffff16116200027d57816001600160a01b031663299e5660604051806040016040528060026000600187620001ab9190620006c1565b63ffffffff16815260200190815260200160002054815260200160026000600187620001d89190620006c1565b63ffffffff168152602001908152602001600020548152506040518263ffffffff1660e01b81526004016200020e9190620006e8565b602060405180830381865afa1580156200022c573d6000803e3d6000fd5b505050506040513d601f19601f820116820180604052508101906200025291906200071b565b63ffffffff821660009081526002602052604090205580620002748162000735565b9150506200016f565b5060005b8263ffffffff168163ffffffff161015620002cc5763ffffffff8116600090815260026020908152604080832054918390529091205580620002c38162000735565b91505062000281565b505063ffffffff166000908152600260209081526040822054918052600190527fa6eef7e35abe7026729641147f7915573c7e97b47efa546f5f6e3230263bcb495560046200031c8382620007ea565b5060056200032b8282620007ea565b5050506001600160a01b03808b1660e05289811661010052871660c052610140869052600d80546001600160a01b0319163317905561012083905284516200037b90600a9060208801906200038c565b5050505050505050505050620008b6565b828054828255906000526020600020908101928215620003e4579160200282015b82811115620003e457825182546001600160a01b0319166001600160a01b03909116178255602090920191600190910190620003ad565b50620003f2929150620003f6565b5090565b5b80821115620003f25760008155600101620003f7565b80516001600160a01b03811681146200042557600080fd5b919050565b634e487b7160e01b600052604160045260246000fd5b604051601f8201601f191681016001600160401b03811182821017156200046b576200046b6200042a565b604052919050565b600082601f8301126200048557600080fd5b815160206001600160401b03821115620004a357620004a36200042a565b8160051b620004b482820162000440565b9283528481018201928281019087851115620004cf57600080fd5b83870192505b84831015620004f957620004e9836200040d565b82529183019190830190620004d5565b979650505050505050565b805163ffffffff811681146200042557600080fd5b600082601f8301126200052b57600080fd5b81516001600160401b038111156200054757620005476200042a565b60206200055d601f8301601f1916820162000440565b82815285828487010111156200057257600080fd5b60005b838110156200059257858101830151828201840152820162000575565b506000928101909101919091529392505050565b6000806000806000806000806000806101408b8d031215620005c757600080fd5b620005d28b6200040d565b9950620005e260208c016200040d565b9850620005f260408c016200040d565b97506200060260608c016200040d565b60808c015160a08d015191985096506001600160401b03808211156200062757600080fd5b620006358e838f0162000473565b96506200064560c08e0162000504565b955060e08d015194506101008d01519150808211156200066457600080fd5b620006728e838f0162000519565b93506101208d01519150808211156200068a57600080fd5b50620006998d828e0162000519565b9150509295989b9194979a5092959850565b634e487b7160e01b600052601160045260246000fd5b63ffffffff828116828216039080821115620006e157620006e1620006ab565b5092915050565b60408101818360005b600281101562000712578151835260209283019290910190600101620006f1565b50505092915050565b6000602082840312156200072e57600080fd5b5051919050565b600063ffffffff808316818103620007515762000751620006ab565b6001019392505050565b600181811c908216806200077057607f821691505b6020821081036200079157634e487b7160e01b600052602260045260246000fd5b50919050565b601f821115620007e557600081815260208120601f850160051c81016020861015620007c05750805b601f850160051c820191505b81811015620007e157828155600101620007cc565b5050505b505050565b81516001600160401b038111156200080657620008066200042a565b6200081e816200081784546200075b565b8462000797565b602080601f8311600181146200085657600084156200083d5750858301515b600019600386901b1c1916600185901b178555620007e1565b600085815260208120601f198616915b82811015620008875788860151825594840194600190910190840162000866565b5085821015620008a65787850151600019600388901b60f8161c191681555b5050505050600190811b01905550565b60805160a05160c05160e051610100516101205161014051615f63620009b2600039600081816107a6015281816112250152818161172601528181611a4201526130c80152600081816106d00152818161406301526141ea01526000818161039801526141950152600081816104bb015261400e01526000818161069e0152818161089f01528181611448015281816115f10152818161176401528181611b6a01528181611d0a01528181612414015281816124ea01528181612bd701528181612e09015281816134fe015261378d01526000818161047f0152818161467201526147300152600081816108450152610dc10152615f636000f3fe608060405234801561001057600080fd5b50600436106102ca5760003560e01c806306fdde03146102cf578063095ea7b3146102ed5780631595497d1461031057806315e1b7021461032757806317cc915c1461033a57806318160ddd1461035d5780631f639ee41461036557806323b872dd1461036e57806324e14a7a146103815780632d57121b1461038a5780632fc0355f14610393578063313ce567146103d257806334540e18146103e157806338bf282e146103ea5780633c0540cf146103fd57806340884c521461041d578063414a37ba14610432578063436f9be4146104475780634b4d4ae81461045a5780634ecf518b1461047a578063522d0d70146104b657806355db51a9146104dd57806359542ca9146104fd5780635b69a7d8146105255780635bb25be31461053857806367fb329b1461054d5780636a01218e146105605780636d9833e31461057357806370a082311461058657806372ee6341146105af57806373ee0ac5146105c25780637460857d146105d757806376a38e91146105ea57806377fe35f4146105fd5780637d33bc73146106105780638f84e27c146106195780639260df2a1461062c57806395d89b411461063f578063991996fc14610647578063992e2a921461065a578063a8109c8014610662578063a9059cbb14610675578063aa6ca80814610688578063adc879e9146106cb578063b3f05b97146106f2578063ba70f75714610706578063c36596a614610723578063cd87a3b414610732578063d2b12ad51461073a578063d544c1d21461074d578063dc76fabc14610760578063dd62ed3e14610768578063ddca3f43146107a1578063e0e6236e146107c8578063e5285dcc146107db578063ea2388d2146107fe578063ec09302114610811578063ec73295914610819578063ed33639f14610840578063f178e47c14610867578063f77c479114610887578063fc0c546a1461089a575b600080fd5b6102d76108c1565b6040516102e49190614c13565b60405180910390f35b6103006102fb366004614c44565b610953565b60405190151581526020016102e4565b61031960115481565b6040519081526020016102e4565b6102d7610335366004614c6e565b6109ae565b610300610348366004614c6e565b60156020526000908152604090205460ff1681565b600654610319565b61031960135481565b61030061037c366004614c87565b610bbc565b61031960125481565b61031960105481565b6103ba7f000000000000000000000000000000000000000000000000000000000000000081565b6040516001600160a01b0390911681526020016102e4565b604051601281526020016102e4565b610319600e5481565b6103196103f8366004614cc3565b610cda565b61031961040b366004614c6e565b60009081526014602052604090205490565b610425610e47565b6040516102e49190614ce5565b610319600080516020615ece83398151915281565b610319610455366004614d32565b610ea8565b61046d610468366004614c6e565b610eea565b6040516102e49190614de3565b6104a17f000000000000000000000000000000000000000000000000000000000000000081565b60405163ffffffff90911681526020016102e4565b6103ba7f000000000000000000000000000000000000000000000000000000000000000081565b6103196104eb366004614c6e565b60146020526000908152604090205481565b61051061050b366004614eaa565b6111ed565b604080519283526020830191909152016102e4565b6103ba610533366004614c6e565b611910565b61054061193a565b6040516102e49190614ee5565b61031961055b366004614c6e565b6119af565b61031961056e366004614d32565b611a0f565b610300610581366004614c6e565b611eda565b610319610594366004614f3d565b6001600160a01b031660009081526007602052604090205490565b6103196105bd366004614f58565b611f58565b6105d56105d0366004614cc3565b611fb9565b005b6103196105e53660046152b2565b6120e1565b6103196105f8366004614f58565b612766565b6105d561060b366004615329565b6127c0565b610319600f5481565b6105d561062736600461538c565b612ae6565b6105d561063a36600461542f565b612d1a565b6102d761303b565b6105d5610655366004614cc3565b61304a565b610319613290565b6009546103ba906001600160a01b031681565b610300610683366004614c44565b6132b1565b600954604080516001600160a01b0392831681527f00000000000000000000000000000000000000000000000000000000000000009092166020830152016102e4565b6103197f000000000000000000000000000000000000000000000000000000000000000081565b600d5461030090600160a01b900460ff1681565b60035463ffffffff16600090815260016020526040902054610319565b610319670de0b6b3a764000081565b6104a1606481565b6105d561074836600461551a565b6132c7565b6105d561075b366004614d32565b613604565b6103196138c1565b610319610776366004615556565b6001600160a01b03918216600090815260086020908152604080832093909416825291909152205490565b6103197f000000000000000000000000000000000000000000000000000000000000000081565b6103196107d6366004614d32565b6138d8565b6103006107e9366004614c6e565b60009081526015602052604090205460ff1690565b61031961080c366004615589565b613957565b610319613aa2565b6103197f2fe54c60d3acabf3343a35b6eba15db4821b340f76e741e2249685ed4899af6c81565b6103ba7f000000000000000000000000000000000000000000000000000000000000000081565b610319610875366004614c6e565b60006020819052908152604090205481565b600d546103ba906001600160a01b031681565b6103ba7f000000000000000000000000000000000000000000000000000000000000000081565b6060600480546108d0906155d6565b80601f01602080910402602001604051908101604052809291908181526020018280546108fc906155d6565b80156109495780601f1061091e57610100808354040283529160200191610949565b820191906000526020600020905b81548152906001019060200180831161092c57829003601f168201915b5050505050905090565b3360008181526008602090815260408083206001600160a01b03871680855292528083208590555191929091600080516020615f0e8339815191529061099c9086815260200190565b60405180910390a35060015b92915050565b60606000600b6109bf600185615626565b815481106109cf576109cf615639565b90600052602060002090600d02016006016040518060c00160405290816000820180546109fb906155d6565b80601f0160208091040260200160405190810160405280929190818152602001828054610a27906155d6565b8015610a745780601f10610a4957610100808354040283529160200191610a74565b820191906000526020600020905b815481529060010190602001808311610a5757829003601f168201915b5050505050815260200160018201548152602001600282015481526020016003820154815260200160048201805480602002602001604051908101604052809291908181526020018280548015610aea57602002820191906000526020600020905b815481526020019060010190808311610ad6575b5050509183525050604080518082019182905260209092019190600584019060029082845b815481526020019060010190808311610b0f5750505050508152505090508060800151600081518110610b4457610b44615639565b60200260200101518160800151600181518110610b6357610b63615639565b60200260200101518260a00151600060028110610b8257610b82615639565b6020908102919091015160a08501518201518551604051610ba59695940161564f565b604051602081830303815290604052915050919050565b6000336001600160a01b0385161480610bf857506001600160a01b03841660009081526008602090815260408083203384529091529020548211155b610c385760405162461bcd60e51b815260206004820152600c60248201526b1b9bdd08185c1c1c9bdd995960a21b60448201526064015b60405180910390fd5b610c43848484613ab5565b336001600160a01b03851614610cd0576001600160a01b0384166000908152600860209081526040808320338452909152902054610c82908390615626565b6001600160a01b038581166000908152600860209081526040808320338085529083529281902085905551938452918616929091600080516020615f0e833981519152910160405180910390a35b5060019392505050565b6000600080516020615ece8339815191528310610d395760405162461bcd60e51b815260206004820181905260248201527f5f6c6566742073686f756c6420626520696e7369646520746865206669656c646044820152606401610c2f565b600080516020615ece8339815191528210610da05760405162461bcd60e51b815260206004820152602160248201527f5f72696768742073686f756c6420626520696e7369646520746865206669656c6044820152601960fa1b6064820152608401610c2f565b610da8614a45565b8381526020810183905260405163014cf2b360e51b81527f00000000000000000000000000000000000000000000000000000000000000006001600160a01b03169063299e566090610dfe90849060040161567a565b602060405180830381865afa158015610e1b573d6000803e3d6000fd5b505050506040513d601f19601f82011682018060405250810190610e3f9190615688565b949350505050565b6060600a80548060200260200160405190810160405280929190818152602001828054801561094957602002820191906000526020600020905b81546001600160a01b03168152600190910190602001808311610e81575050505050905090565b600080610eb58585613b58565b90506000610ed4670de0b6b3a7640000610ecf8682615626565b613b58565b9050610ee08282613c34565b9695505050505050565b610ef2614a63565b600b610eff600184615626565b81548110610f0f57610f0f615639565b600091825260209091206040805161010081018252600d90930290910180546001600160a01b03908116928401928352600182015460608501526002820154166080840152600381015460a0840152600481018054919284929091849160c085019190610f7b906155d6565b80601f0160208091040260200160405190810160405280929190818152602001828054610fa7906155d6565b8015610ff45780601f10610fc957610100808354040283529160200191610ff4565b820191906000526020600020905b815481529060010190602001808311610fd757829003601f168201915b5050505050815260200160058201805461100d906155d6565b80601f0160208091040260200160405190810160405280929190818152602001828054611039906155d6565b80156110865780601f1061105b57610100808354040283529160200191611086565b820191906000526020600020905b81548152906001019060200180831161106957829003601f168201915b5050505050815250508152602001600682016040518060c00160405290816000820180546110b3906155d6565b80601f01602080910402602001604051908101604052809291908181526020018280546110df906155d6565b801561112c5780601f106111015761010080835404028352916020019161112c565b820191906000526020600020905b81548152906001019060200180831161110f57829003601f168201915b50505050508152602001600182015481526020016002820154815260200160038201548152602001600482018054806020026020016040519081016040528092919081815260200182805480156111a257602002820191906000526020600020905b81548152602001906001019080831161118e575b5050509183525050604080518082019182905260209092019190600584019060029082845b8154815260200190600101908083116111c7575050509190925250505090525092915050565b600d546000908190600160a01b900460ff1661121a57600d546001600160a01b0316331461121a57600080fd5b6000806000611249887f0000000000000000000000000000000000000000000000000000000000000000613c34565b90506000611257828a615626565b9050891561126e57600f549350600e549250611279565b600e549350600f5492505b611295846112906002670de0b6b3a76400006156b7565b613c34565b8911156112d75760405162461bcd60e51b815260206004820152601060248201526f4552525f4d41585f494e5f524154494f60801b6044820152606401610c2f565b60006112e585856000610ea8565b90508781111561132d5760405162461bcd60e51b81526020600482015260136024820152724552525f4241445f4c494d49545f505249434560681b6044820152606401610c2f565b8a1561134857611341848684600080613957565b9650611358565b6113558585846000611f58565b96505b888710156113785760405162461bcd60e51b8152600401610c2f906156cb565b6113828288613b58565b8111156113a15760405162461bcd60e51b8152600401610c2f906156f2565b6113ab8785615626565b93508a156115cd57600954604051630a6c1a4f60e11b81526001600160a01b03909116906314d8349e906113e5903390869060040161571b565b6020604051808303816000875af1158015611404573d6000803e3d6000fd5b505050506040513d601f19601f820116820180604052508101906114289190615734565b61143157600080fd5b60405163a9059cbb60e01b81526001600160a01b037f0000000000000000000000000000000000000000000000000000000000000000169063a9059cbb9061147f9033908b9060040161571b565b6020604051808303816000875af115801561149e573d6000803e3d6000fd5b505050506040513d601f19601f820116820180604052508101906114c29190615734565b6114cb57600080fd5b86600e60008282546114dd9190615626565b909155505082156115c857600954600d5460405163095ea7b360e01b81526001600160a01b039283169263095ea7b39261151e92911690879060040161571b565b6020604051808303816000875af115801561153d573d6000803e3d6000fd5b505050506040513d601f19601f820116820180604052508101906115619190615734565b50600d5460405163214cabe560e11b81526001600160a01b039091169063429957ca90611595908690600190600401615751565b600060405180830381600087803b1580156115af57600080fd5b505af11580156115c3573d6000803e3d6000fd5b505050505b611849565b6115d78286615761565b6040516323b872dd60e01b81529095506001600160a01b037f000000000000000000000000000000000000000000000000000000000000000016906323b872dd9061162a90339030908f90600401615774565b6020604051808303816000875af1158015611649573d6000803e3d6000fd5b505050506040513d601f19601f8201168201806040525081019061166d9190615734565b61167657600080fd5b60095460405163a9059cbb60e01b81526001600160a01b039091169063a9059cbb906116a89033908b9060040161571b565b6020604051808303816000875af11580156116c7573d6000803e3d6000fd5b505050506040513d601f19601f820116820180604052508101906116eb9190615734565b6116f457600080fd5b81600e60008282546117069190615761565b9250508190555086600f600082825461171f9190615626565b90915550507f00000000000000000000000000000000000000000000000000000000000000001561184957600d5460405163095ea7b360e01b81526001600160a01b037f000000000000000000000000000000000000000000000000000000000000000081169263095ea7b39261179f929190911690879060040161571b565b6020604051808303816000875af11580156117be573d6000803e3d6000fd5b505050506040513d601f19601f820116820180604052508101906117e29190615734565b50600d5460405163214cabe560e11b81526001600160a01b039091169063429957ca90611816908690600090600401615751565b600060405180830381600087803b15801561183057600080fd5b505af1158015611844573d6000803e3d6000fd5b505050505b61185585856000610ea8565b9550808610156118775760405162461bcd60e51b8152600401610c2f906156f2565b878611156118b95760405162461bcd60e51b815260206004820152600f60248201526e4552525f4c494d49545f505249434560881b6044820152606401610c2f565b604080513381528c151560208201529081018b9052606081018890527fbfd50a04f1e6e4aee344f5d0e7f15d74d0dbb58cd1f711daa6463094ca9508cd9060800160405180910390a1505050505094509492505050565b600a818154811061192057600080fd5b6000918252602090912001546001600160a01b0316905081565b6060600c805480602002602001604051908101604052809291908181526020016000905b828210156119a65760008481526020908190206040805180820190915260028502909101805482526001908101546001600160a01b031682840152908352909201910161195e565b50505050905090565b6000602082116119cc575060009081526002602052604090205490565b60405162461bcd60e51b8152602060048201526013602482015272496e646578206f7574206f6620626f756e647360681b6044820152606401610c2f565b919050565b600d54600090600160a01b900460ff16611a3a57600d546001600160a01b03163314611a3a57600080fd5b6000611a66857f0000000000000000000000000000000000000000000000000000000000000000613c34565b90506000611a748287615626565b90506000611a8482600654613b58565b9050611a903383613cca565b611a9c81600e54613c34565b935083600003611abe5760405162461bcd60e51b8152600401610c2f906156f2565b84841015611ade5760405162461bcd60e51b8152600401610c2f906156cb565b83600e54611aec9190615626565b600e819055506000611b0082600f54613c34565b905080600003611b225760405162461bcd60e51b8152600401610c2f906156f2565b86811015611b425760405162461bcd60e51b8152600401610c2f906156cb565b80600f54611b509190615626565b600f5560405163a9059cbb60e01b81526001600160a01b037f0000000000000000000000000000000000000000000000000000000000000000169063a9059cbb90611ba1903390899060040161571b565b6020604051808303816000875af1158015611bc0573d6000803e3d6000fd5b505050506040513d601f19601f82011682018060405250810190611be49190615734565b611bed57600080fd5b60095460405163a9059cbb60e01b81526001600160a01b039091169063a9059cbb90611c1f903390859060040161571b565b6020604051808303816000875af1158015611c3e573d6000803e3d6000fd5b505050506040513d601f19601f82011682018060405250810190611c629190615734565b611c6b57600080fd5b600080516020615eae8339815191523389604051611c8a92919061571b565b60405180910390a18315611ecf57611ca484600654613b58565b9150611cb03385613cca565b611cbc82600e54613c34565b945084600e54611ccc9190615626565b600e55600f54611cdd908390613c34565b905080600f54611ced9190615626565b600f55600d5460405163095ea7b360e01b81526001600160a01b037f000000000000000000000000000000000000000000000000000000000000000081169263095ea7b392611d45929190911690899060040161571b565b6020604051808303816000875af1158015611d64573d6000803e3d6000fd5b505050506040513d601f19601f82011682018060405250810190611d889190615734565b50600d5460405163214cabe560e11b81526001600160a01b039091169063429957ca90611dbc908890600090600401615751565b600060405180830381600087803b158015611dd657600080fd5b505af1158015611dea573d6000803e3d6000fd5b5050600954600d5460405163095ea7b360e01b81526001600160a01b03928316945063095ea7b39350611e259290911690859060040161571b565b6020604051808303816000875af1158015611e44573d6000803e3d6000fd5b505050506040513d601f19601f82011682018060405250810190611e689190615734565b50600d5460405163214cabe560e11b81526001600160a01b039091169063429957ca90611e9c908490600190600401615751565b600060405180830381600087803b158015611eb657600080fd5b505af1158015611eca573d6000803e3d6000fd5b505050505b505050509392505050565b6000818103611eeb57506000919050565b60035463ffffffff16805b63ffffffff81166000908152600160205260409020548403611f1c575060019392505050565b8063ffffffff16600003611f2e575060645b80611f3881615798565b9150508163ffffffff168163ffffffff1603611ef6575060009392505050565b600080611f6d83670de0b6b3a7640000615626565b9050611f798482613c34565b90506000611f8b87610ecf8482615761565b90506000611fa182670de0b6b3a7640000615626565b9050611fad8782613c34565b98975050505050505050565b600d54600160a01b900460ff16611fe157600d546001600160a01b03163314611fe157600080fd5b6000611ff2600f54600654856138d8565b905082600f60008282546120069190615761565b90915550508181101561202b5760405162461bcd60e51b8152600401610c2f906157b8565b6120353382613d4c565b6009546040516323b872dd60e01b81526001600160a01b03909116906323b872dd9061206990339030908890600401615774565b6020604051808303816000875af1158015612088573d6000803e3d6000fd5b505050506040513d601f19601f820116820180604052508101906120ac9190615734565b6120b557600080fd5b600080516020615e6e83398151915233826040516120d492919061571b565b60405180910390a1505050565b600d54600090600160a01b900460ff1661210c57600d546001600160a01b0316331461210c57600080fd5b60008360200151136121605760405162461bcd60e51b815260206004820152601e60248201527f6d757374206465706f736974206120706f73697469766520616d6f756e7400006044820152606401610c2f565b6040805180820182528481526020808201879052600b8054600181018255600091909152825180517f0175b7a638427703f0dbe7bb9bbf987a2551717b34e79f33b5b1008d1fa01db9600d90930292830180546001600160a01b03199081166001600160a01b03938416178255948301517f0175b7a638427703f0dbe7bb9bbf987a2551717b34e79f33b5b1008d1fa01dba850155958201517f0175b7a638427703f0dbe7bb9bbf987a2551717b34e79f33b5b1008d1fa01dbb8401805490951691161790925560608201517f0175b7a638427703f0dbe7bb9bbf987a2551717b34e79f33b5b1008d1fa01dbc82015560808201519293849390929183917f0175b7a638427703f0dbe7bb9bbf987a2551717b34e79f33b5b1008d1fa01dbd9091019061228d9082615832565b5060a082015160058201906122a29082615832565b50505060208201518051600683019081906122bd9082615832565b5060208281015160018301556040830151600283015560608301516003830155608083015180516122f49260048501920190614a88565b5060a082015161230a9060058301906002614ad3565b5050600b54885160608a01516020808c01516040519499506000975061233696509294509092016158f1565b60408051601f19818403018152918152815160209283012060008181526014909352908220859055915084156123e5576009546020870151604051630a6c1a4f60e11b81526001600160a01b03909216916314d8349e9161239c9133919060040161571b565b6020604051808303816000875af11580156123bb573d6000803e3d6000fd5b505050506040513d601f19601f820116820180604052508101906123df9190615734565b50612499565b6123fa600e54600f5488602001516000612766565b6040516323b872dd60e01b81529091506001600160a01b037f000000000000000000000000000000000000000000000000000000000000000016906323b872dd9061244d90339030908690600401615774565b6020604051808303816000875af115801561246c573d6000803e3d6000fd5b505050506040513d601f19601f820116820180604052508101906124909190615734565b61249957600080fd5b60006103e86010546124ab91906156b7565b9050801561257d576124be6032836156b7565b8111156124d3576124d06032836156b7565b90505b60405163a9059cbb60e01b81526001600160a01b037f0000000000000000000000000000000000000000000000000000000000000000169063a9059cbb90612521903390859060040161571b565b6020604051808303816000875af1158015612540573d6000803e3d6000fd5b505050506040513d601f19601f820116820180604052508101906125649190615734565b5080601060008282546125779190615626565b90915550505b6103e860115461258d91906156b7565b90508015612643576125a06032836156b7565b8111156125b5576125b26032836156b7565b90505b60095460405163a9059cbb60e01b81526001600160a01b039091169063a9059cbb906125e7903390859060040161571b565b6020604051808303816000875af1158015612606573d6000803e3d6000fd5b505050506040513d601f19601f8201168201806040525081019061262a9190615734565b50806011600082825461263d9190615626565b90915550505b60005b600a5461265590600190615626565b81116126f257600a818154811061266e5761266e615639565b6000918252602090912001546001600160a01b03166351e3aea9612691886109ae565b6040518263ffffffff1660e01b81526004016126ad9190614c13565b600060405180830381600087803b1580156126c757600080fd5b505af11580156126db573d6000803e3d6000fd5b5050505080806126ea90615916565b915050612646565b506126fd8888613dc6565b81600e600082825461270f9190615761565b909155505060408051871515815233602082015242818301526060810184905290517f384879cd7979086cdd9cf08737e79dd9fc40fbd32ec9982443d220f73293b2729181900360800190a1505050509392505050565b6000806127738486615626565b905060006127818683613b58565b90506000612797670de0b6b3a764000083615626565b90506127ab85670de0b6b3a7640000615626565b9350611fad6127ba8983613c34565b85613b58565b600d54600160a01b900460ff166127e857600d546001600160a01b031633146127e857600080fd5b6000816060015182602001516127fe919061592f565b9050600081121561282d5761281281615956565b61282a90600080516020615ece833981519152615626565b90505b808360600151146128785760405162461bcd60e51b8152602060048201526015602482015274125b9d985b1a59081c1d589b1a58c8185b5bdd5b9d605a1b6044820152606401610c2f565b6128858360200151611eda565b6128c75760405162461bcd60e51b8152602060048201526013602482015272125b9d985b1a59081b595c9adb19481c9bdbdd606a1b6044820152606401610c2f565b6128d083613fc5565b6129185760405162461bcd60e51b815260206004820152601960248201527824b73b30b634b2103a3930b739b0b1ba34b7b710383937b7b360391b6044820152606401610c2f565b600080516020615ece833981519152826040516020016129389190615972565b6040516020818303038152906040528051906020012060001c61295b9190615985565b8360400151146129ac5760405162461bcd60e51b815260206004820152601c60248201527b092dcc6dee4e4cac6e840caf0e8cae4dcc2d840c8c2e8c240d0c2e6d60231b6044820152606401610c2f565b600082602001511215612a4857600954825160208401516001600160a01b039092169163d4beb4fd91906129df90615956565b6040518363ffffffff1660e01b81526004016129fc92919061571b565b6020604051808303816000875af1158015612a1b573d6000803e3d6000fd5b505050506040513d601f19601f82011682018060405250810190612a3f9190615734565b612a4857600080fd5b606082015115612ad7576009546040808401516060850151915163d4beb4fd60e01b81526001600160a01b039093169263d4beb4fd92612a8b929160040161571b565b6020604051808303816000875af1158015612aaa573d6000803e3d6000fd5b505050506040513d601f19601f82011682018060405250810190612ace9190615734565b612ad757600080fd5b612ae18383613dc6565b505050565b8015612bcd576009546001600160a01b03166323b872dd333085612b0a888a615761565b612b149190615761565b6040518463ffffffff1660e01b8152600401612b3293929190615774565b6020604051808303816000875af1158015612b51573d6000803e3d6000fd5b505050506040513d601f19601f82011682018060405250810190612b759190615734565b612b7e57600080fd5b82600f6000828254612b909190615761565b925050819055508160136000828254612ba99190615761565b925050819055508360116000828254612bc29190615761565b90915550612cc79050565b6001600160a01b037f0000000000000000000000000000000000000000000000000000000000000000166323b872dd333085612c09888a615761565b612c139190615761565b6040518463ffffffff1660e01b8152600401612c3193929190615774565b6020604051808303816000875af1158015612c50573d6000803e3d6000fd5b505050506040513d601f19601f82011682018060405250810190612c749190615734565b612c7d57600080fd5b82600e6000828254612c8f9190615761565b925050819055508160126000828254612ca89190615761565b925050819055508360106000828254612cc19190615761565b90915550505b7f46296264cd106b25aaa6bd852f4cf76bbd7d70550bbe6352bc3a47e35c6f1b2f82612cf38587615761565b612cfd9190615761565b82604051612d0c929190615751565b60405180910390a150505050565b600d546001600160a01b03163314612d6b5760405162461bcd60e51b815260206004820152601460248201527339b437bab6321031329031b7b73a3937b63632b960611b6044820152606401610c2f565b600d54600160a01b900460ff1615612dbb5760405162461bcd60e51b81526020600482015260136024820152721cda1bdd5b1908189948199a5b985b1a5e9959606a1b6044820152606401610c2f565b600d805460ff60a01b1916600160a01b179055600e849055600f839055600980546001600160a01b038085166001600160a01b0319909216919091179091556040516323b872dd60e01b81527f0000000000000000000000000000000000000000000000000000000000000000909116906323b872dd90612e4490339030908990600401615774565b6020604051808303816000875af1158015612e63573d6000803e3d6000fd5b505050506040513d601f19601f82011682018060405250810190612e879190615734565b612e9057600080fd5b60095460405163d4beb4fd60e01b81526001600160a01b039091169063d4beb4fd90612ec2903090879060040161571b565b6020604051808303816000875af1158015612ee1573d6000803e3d6000fd5b505050506040513d601f19601f82011682018060405250810190612f059190615734565b50612f193368056bc75e2d63100000613d4c565b8551855114612f665760405162461bcd60e51b81526020600482015260196024820152786c656e6774682073686f756c64206265207468652073616d6560381b6044820152606401610c2f565b60005b855181101561301357600c6040518060400160405280898481518110612f9157612f91615639565b60200260200101518152602001888481518110612fb057612fb0615639565b6020908102919091018101516001600160a01b0390811690925283546001808201865560009586529482902084516002909202019081559201519190920180546001600160a01b031916919092161790558061300b81615916565b915050612f69565b50600d80546001600160a01b0319166001600160a01b03929092169190911790555050505050565b6060600580546108d0906155d6565b600d54600160a01b900460ff1661307257600d546001600160a01b0316331461307257600080fd5b6000613087600f546006548560006001613957565b905080600f600082825461309b9190615626565b9091555050818110156130c05760405162461bcd60e51b8152600401610c2f906157b8565b60006130ec827f0000000000000000000000000000000000000000000000000000000000000000613c34565b90506130f83385613cca565b6009546001600160a01b031663a9059cbb336131148486615626565b6040518363ffffffff1660e01b815260040161313192919061571b565b6020604051808303816000875af1158015613150573d6000803e3d6000fd5b505050506040513d601f19601f820116820180604052508101906131749190615734565b61317d57600080fd5b600080516020615eae833981519152338560405161319c92919061571b565b60405180910390a1801561328a57600954600d5460405163095ea7b360e01b81526001600160a01b039283169263095ea7b3926131e092911690859060040161571b565b6020604051808303816000875af11580156131ff573d6000803e3d6000fd5b505050506040513d601f19601f820116820180604052508101906132239190615734565b50600d5460405163214cabe560e11b81526001600160a01b039091169063429957ca90613257908490600190600401615751565b600060405180830381600087803b15801561327157600080fd5b505af1158015613285573d6000803e3d6000fd5b505050505b50505050565b6132a36003670de0b6b3a76400006156b7565b6132ae906001615761565b81565b60006132be338484613ab5565b50600192915050565b6132cf614b00565b6132d7614b39565b6060600a85815481106132ec576132ec615639565b600091825260209091200154604051636b2fd90560e01b81526001600160a01b0390911690636b2fd90590613325908790600401614c13565b6000604051808303816000875af1158015613344573d6000803e3d6000fd5b505050506040513d6000823e601f3d908101601f1916820160405261336c91908101906159de565b6040805160028082526060820183529293509190602083019080368337505050608084015280516133a69060209083018101908301615a12565b87608001516000815181106133bd576133bd615639565b6020026020010188608001516001815181106133db576133db615639565b602002602001018960a001516000600281106133f9576133f9615639565b602002018a60a0015160016002811061341457613414615639565b948c5260209094029093019390935292905291909152526134358383613dc6565b6103e860135411156134f0576009546013546001600160a01b039091169063a9059cbb903390613468906103e8906156b7565b6040518363ffffffff1660e01b815260040161348592919061571b565b6020604051808303816000875af11580156134a4573d6000803e3d6000fd5b505050506040513d601f19601f820116820180604052508101906134c89190615734565b506103e86013546134d991906156b7565b601360008282546134ea9190615626565b90915550505b6103e860125411156135c4577f00000000000000000000000000000000000000000000000000000000000000006001600160a01b031663a9059cbb336103e860125461353c91906156b7565b6040518363ffffffff1660e01b815260040161355992919061571b565b6020604051808303816000875af1158015613578573d6000803e3d6000fd5b505050506040513d601f19601f8201168201806040525081019061359c9190615734565b506103e86012546135ad91906156b7565b601260008282546135be9190615626565b90915550505b7f7f293aa0b9ae407a05fb89bef36529d7b5a7b5912e5cfa7a0ee9e251e70c6b0e85856040516135f5929190615a77565b60405180910390a15050505050565b600d54600160a01b900460ff1661362c57600d546001600160a01b0316331461362c57600080fd5b600061363a84600654613b58565b9050600081116136895760405162461bcd60e51b815260206004820152601a60248201527973686f756c64206e6f74206265203020666f7220696e7075747360301b6044820152606401610c2f565b600061369782600e54613c34565b9050828111156136e85760405162461bcd60e51b815260206004820152601c60248201527b1d1bdbc8189a59c818985cd951195c1bdcda5d081c995c5d5a5c995960221b6044820152606401610c2f565b80600e546136f69190615761565b600e81905550600061370a83600f54613c34565b90508481111561375b5760405162461bcd60e51b815260206004820152601c60248201527b1d1bdbc8189a59c818da190819195c1bdcda5d081c995c5d5a5c995960221b6044820152606401610c2f565b80600f546137699190615761565b600f556137763387613d4c565b6040516323b872dd60e01b81526001600160a01b037f000000000000000000000000000000000000000000000000000000000000000016906323b872dd906137c690339030908790600401615774565b6020604051808303816000875af11580156137e5573d6000803e3d6000fd5b505050506040513d601f19601f820116820180604052508101906138099190615734565b61381257600080fd5b6009546040516323b872dd60e01b81526001600160a01b03909116906323b872dd9061384690339030908690600401615774565b6020604051808303816000875af1158015613865573d6000803e3d6000fd5b505050506040513d601f19601f820116820180604052508101906138899190615734565b61389257600080fd5b600080516020615e6e83398151915233876040516138b192919061571b565b60405180910390a1505050505050565b60006138d3600f54600e546000610ea8565b905090565b6000806138ed83670de0b6b3a7640000613c34565b905060006138fb8287615761565b905060006139098288613b58565b905060006139308261392b670de0b6b3a7640000671bc16d674ec80000613b58565b614530565b9050600061393e8289613c34565b905061394a8882615626565b9998505050505050505050565b6000808215613a275761397a670de0b6b3a7640000671bc16d674ec80000613b58565b9050600061399086670de0b6b3a7640000613c34565b9050600061399e8289615626565b905060006139ac828a613b58565b905060006139c68261392b670de0b6b3a764000088613b58565b905060006139d4828d613c34565b905060006139e2828e615626565b90506000613a016139fb89670de0b6b3a7640000615626565b8c613c34565b9050613a198261129083670de0b6b3a7640000615626565b985050505050505050613a98565b6000613a3b85670de0b6b3a7640000615626565b9050613a478682613c34565b90506000613a5d670de0b6b3a764000089613b58565b90506000613a7c613a7683670de0b6b3a7640000615626565b89614530565b9050613a888a82613c34565b613a92908b615626565b94505050505b5095945050505050565b6132ae6002670de0b6b3a76400006156b7565b6001600160a01b038316600090815260076020526040902054613ad9908290615626565b6001600160a01b038085166000908152600760205260408082209390935590841681522054613b09908290615761565b6001600160a01b038084166000818152600760205260409081902093909355915190851690600080516020615eee83398151915290613b4b9085815260200190565b60405180910390a3505050565b600081600003613b995760405162461bcd60e51b815260206004820152600c60248201526b4552525f4449565f5a45524f60a01b6044820152606401610c2f565b6000613bad670de0b6b3a764000085615a90565b9050831580613bcc5750670de0b6b3a7640000613bca85836156b7565b145b613be85760405162461bcd60e51b8152600401610c2f90615aa7565b6000613bf56002856156b7565b613bff9083615761565b905081811015613c215760405162461bcd60e51b8152600401610c2f90615aa7565b613c2b84826156b7565b95945050505050565b600080613c418385615a90565b9050831580613c58575082613c5685836156b7565b145b613c975760405162461bcd60e51b815260206004820152601060248201526f4552525f4d554c5f4f564552464c4f5760801b6044820152606401610c2f565b6000613cac6002670de0b6b3a76400006156b7565b613cb69083615761565b9050613c2b670de0b6b3a7640000826156b7565b6001600160a01b038216600090815260076020526040902054613cee908290615626565b6001600160a01b038316600090815260076020526040902055600654613d15908290615626565b6006556040518181526000906001600160a01b03841690600080516020615eee833981519152906020015b60405180910390a35050565b6001600160a01b038216600090815260076020526040902054613d70908290615761565b6001600160a01b038316600090815260076020526040902055600654613d97908290615761565b6006556040518181526001600160a01b03831690600090600080516020615eee83398151915290602001613d40565b60005b826080015151811015613f05576015600084608001518381518110613df057613df0615639565b60209081029190910181015182528101919091526040016000205460ff1615613e545760405162461bcd60e51b8152602060048201526016602482015275125b9c1d5d081a5cc8185b1c9958591e481cdc195b9d60521b6044820152606401610c2f565b60016015600085608001518481518110613e7057613e70615639565b6020026020010151815260200190815260200160002060006101000a81548160ff0219169083151502179055507f5e58f77bbf94b46d8d896e29753e4458c6e59b48581e20ed58c9558e96f297ce83608001518281518110613ed457613ed4615639565b6020026020010151604051613eeb91815260200190565b60405180910390a180613efd81615916565b915050613dc9565b5060a08201518051602090910151613f1d919061465d565b5060a082015151600354600080516020615e8e8339815191529190613f5190600290600160201b900463ffffffff16615ad1565b8360800151604051613f6593929190615aee565b60405180910390a160a0820151600080516020615e8e8339815191529060016020020151600354613fa590600190600160201b900463ffffffff16615ad1565b8360a00151604051613fb993929190615aee565b60405180910390a15050565b6000613fcf614a45565b613fd7614b81565b613fdf614a45565b8460000151806020019051810190613ff79190615b58565b6080880151519295509093509150600203614186577f00000000000000000000000000000000000000000000000000000000000000006001600160a01b031663c9219a7a8484846040518061010001604052808b6020015160001c81526020018b6060015181526020017f000000000000000000000000000000000000000000000000000000000000000081526020018b6040015181526020018b608001516000815181106140a8576140a8615639565b602002602001015160001c81526020018b608001516001815181106140cf576140cf615639565b602002602001015160001c81526020018b60a001516000600281106140f6576140f6615639565b602002015160001c81526020018b60a0015160016002811061411a5761411a615639565b602002015190526040516001600160e01b031960e087901b1681526141459493929190600401615c13565b602060405180830381865afa158015614162573d6000803e3d6000fd5b505050506040513d601f19601f82011682018060405250810190613c2b9190615734565b8460800151516010036144ee577f00000000000000000000000000000000000000000000000000000000000000006001600160a01b031663c5a0fc26848484604051806102c001604052808b6020015160001c81526020018b6060015181526020017f000000000000000000000000000000000000000000000000000000000000000081526020018b6040015181526020018b6080015160008151811061422f5761422f615639565b602002602001015160001c81526020018b6080015160018151811061425657614256615639565b602002602001015160001c81526020018b6080015160028151811061427d5761427d615639565b602002602001015160001c81526020018b608001516003815181106142a4576142a4615639565b602002602001015160001c81526020018b608001516004815181106142cb576142cb615639565b602002602001015160001c81526020018b608001516005815181106142f2576142f2615639565b602002602001015160001c81526020018b6080015160068151811061431957614319615639565b602002602001015160001c81526020018b6080015160078151811061434057614340615639565b602002602001015160001c81526020018b6080015160088151811061436757614367615639565b602002602001015160001c81526020018b6080015160098151811061438e5761438e615639565b602002602001015160001c81526020018b60800151600a815181106143b5576143b5615639565b602002602001015160001c81526020018b60800151600b815181106143dc576143dc615639565b602002602001015160001c81526020018b60800151600c8151811061440357614403615639565b602002602001015160001c81526020018b60800151600d8151811061442a5761442a615639565b602002602001015160001c81526020018b60800151600e8151811061445157614451615639565b602002602001015160001c81526020018b60800151600f8151811061447857614478615639565b602002602001015160001c81526020018b60a0015160006002811061449f5761449f615639565b602002015160001c81526020018b60a001516001600281106144c3576144c3615639565b602002015190526040516001600160e01b031960e087901b1681526141459493929190600401615c70565b60405162461bcd60e51b81526020600482015260176024820152761d5b9cdd5c1c1bdc9d1959081a5b9c1d5d0818dbdd5b9d604a1b6044820152606401610c2f565b6000600183101561457a5760405162461bcd60e51b81526020600482015260146024820152734552525f504f575f424153455f544f4f5f4c4f5760601b6044820152606401610c2f565b600161458f670de0b6b3a76400006002615a90565b6145999190615626565b8311156145e05760405162461bcd60e51b815260206004820152601560248201527408aa4a4bea09eaebe8482a68abea89e9ebe90928e9605b1b6044820152606401610c2f565b60006145eb83614874565b905060006145f98285615626565b9050600061460f8661460a85614892565b6148a6565b9050816000036146235792506109a8915050565b600061464687846146416402540be400670de0b6b3a76400006156b7565b61491b565b90506146528282613c34565b979650505050505050565b600354600160201b900463ffffffff166146987f00000000000000000000000000000000000000000000000000000000000000006002615dd2565b63ffffffff168163ffffffff160361470b5760405162461bcd60e51b815260206004820152603060248201527f4d65726b6c6520747265652069732066756c6c2e204e6f206d6f7265206c656160448201526f1d995cc818d85b88189948185919195960821b6064820152608401610c2f565b6000614718600283615de7565b905060006147268585610cda565b905060008060015b7f000000000000000000000000000000000000000000000000000000000000000063ffffffff168163ffffffff1610156147ee5761476d600286615e0a565b63ffffffff166000036147a75763ffffffff81166000908152600260209081526040808320549183905290912085905584935091506147c3565b63ffffffff811660009081526020819052604090205492508391505b6147cd8383610cda565b93506147da600286615de7565b9450806147e681615e2d565b91505061472e565b506003546000906064906148099063ffffffff166001615e50565b6148139190615e0a565b6003805463ffffffff191663ffffffff831690811790915560009081526001602052604090208590559050614849866002615e50565b600360046101000a81548163ffffffff021916908363ffffffff160217905550505050505092915050565b6000670de0b6b3a764000061488883614892565b6109a89190615a90565b60006109a8670de0b6b3a7640000836156b7565b60006148b3600283615985565b6000036148c857670de0b6b3a76400006148ca565b825b90506148d76002836156b7565b91505b81156109a8576148ea8384613c34565b92506148f7600283615985565b15614909576149068184613c34565b90505b6149146002836156b7565b91506148da565b600082818061493287670de0b6b3a7640000614a0e565b670de0b6b3a76400009550909250905083600060015b878310614a01576000614963670de0b6b3a764000083615a90565b90506000806149838961497e670de0b6b3a764000086615626565b614a0e565b9150915061499586611290848b613c34565b95506149a18684613b58565b9550856000036149b357505050614a01565b86156149bd579315935b80156149c7579315935b84156149de576149d7868b615626565b99506149eb565b6149e8868b615761565b99505b50505080806149f990615916565b915050614948565b5050505050509392505050565b600080828410614a2d57614a228385615626565b600091509150614a3e565b614a378484615626565b6001915091505b9250929050565b60405180604001604052806002906020820280368337509192915050565b6040518060400160405280614a76614b39565b8152602001614a83614b00565b905290565b828054828255906000526020600020908101928215614ac3579160200282015b82811115614ac3578251825591602001919060010190614aa8565b50614acf929150614bae565b5090565b8260028101928215614ac35791602002820182811115614ac3578251825591602001919060010190614aa8565b6040518060c001604052806060815260200160008019168152602001600081526020016000815260200160608152602001614a83614a45565b6040518060c0016040528060006001600160a01b031681526020016000815260200160006001600160a01b031681526020016000815260200160608152602001606081525090565b60405180604001604052806002905b614b98614a45565b815260200190600190039081614b905790505090565b5b80821115614acf5760008155600101614baf565b60005b83811015614bde578181015183820152602001614bc6565b50506000910152565b60008151808452614bff816020860160208601614bc3565b601f01601f19169290920160200192915050565b602081526000614c266020830184614be7565b9392505050565b80356001600160a01b0381168114611a0a57600080fd5b60008060408385031215614c5757600080fd5b614c6083614c2d565b946020939093013593505050565b600060208284031215614c8057600080fd5b5035919050565b600080600060608486031215614c9c57600080fd5b614ca584614c2d565b9250614cb360208501614c2d565b9150604084013590509250925092565b60008060408385031215614cd657600080fd5b50508035926020909101359150565b6020808252825182820181905260009190848201906040850190845b81811015614d265783516001600160a01b031683529284019291840191600101614d01565b50909695505050505050565b600080600060608486031215614d4757600080fd5b505081359360208301359350604090920135919050565b600060018060a01b03808351168452602083015160208501528060408401511660408501525060608201516060840152608082015160c06080850152614da760c0850182614be7565b905060a083015184820360a0860152613c2b8282614be7565b8060005b600281101561328a578151845260209384019390910190600101614dc4565b600060208083528351604082850152614dff6060850182614d5e565b905081850151601f19858303016040860152805160e08352614e2460e0840182614be7565b9050838201518484015260408201516040840152606082015160608401526080820151838203608085015281815180845286840191508683019350600092505b80831015614e845783518252928601926001929092019190860190614e64565b5060a08401519550611fad60a0860187614dc0565b8015158114614ea757600080fd5b50565b60008060008060808587031215614ec057600080fd5b8435614ecb81614e99565b966020860135965060408601359560600135945092505050565b602080825282518282018190526000919060409081850190868401855b82811015614f30578151805185528601516001600160a01b0316868501529284019290850190600101614f02565b5091979650505050505050565b600060208284031215614f4f57600080fd5b614c2682614c2d565b60008060008060808587031215614f6e57600080fd5b5050823594602084013594506040840135936060013592509050565b634e487b7160e01b600052604160045260246000fd5b60405160c081016001600160401b0381118282101715614fc257614fc2614f8a565b60405290565b604080519081016001600160401b0381118282101715614fc257614fc2614f8a565b604051601f8201601f191681016001600160401b038111828210171561501257615012614f8a565b604052919050565b60006001600160401b0382111561503357615033614f8a565b50601f01601f191660200190565b600082601f83011261505257600080fd5b81356150656150608261501a565b614fea565b81815284602083860101111561507a57600080fd5b816020850160208301376000918101602001919091529392505050565b60006001600160401b038211156150b0576150b0614f8a565b5060051b60200190565b600082601f8301126150cb57600080fd5b813560206150db61506083615097565b82815260059290921b840181019181810190868411156150fa57600080fd5b8286015b8481101561511557803583529183019183016150fe565b509695505050505050565b600082601f83011261513157600080fd5b615139614fc8565b80604084018581111561514b57600080fd5b845b8181101561516557803584526020938401930161514d565b509095945050505050565b600060e0828403121561518257600080fd5b61518a614fa0565b905081356001600160401b03808211156151a357600080fd5b6151af85838601615041565b835260208401356020840152604084013560408401526060840135606084015260808401359150808211156151e357600080fd5b506151f0848285016150ba565b6080830152506152038360a08401615120565b60a082015292915050565b600060c0828403121561522057600080fd5b615228614fa0565b905061523382614c2d565b81526020820135602082015261524b60408301614c2d565b60408201526060828101359082015260808201356001600160401b038082111561527457600080fd5b61528085838601615041565b608084015260a084013591508082111561529957600080fd5b506152a684828501615041565b60a08301525092915050565b6000806000606084860312156152c757600080fd5b83356001600160401b03808211156152de57600080fd5b6152ea87838801615170565b9450602086013591508082111561530057600080fd5b5061530d8682870161520e565b925050604084013561531e81614e99565b809150509250925092565b6000806040838503121561533c57600080fd5b82356001600160401b038082111561535357600080fd5b61535f86838701615170565b9350602085013591508082111561537557600080fd5b506153828582860161520e565b9150509250929050565b600080600080608085870312156153a257600080fd5b84359350602085013592506040850135915060608501356153c281614e99565b939692955090935050565b600082601f8301126153de57600080fd5b813560206153ee61506083615097565b82815260059290921b8401810191818101908684111561540d57600080fd5b8286015b848110156151155761542281614c2d565b8352918301918301615411565b60008060008060008060c0878903121561544857600080fd5b86356001600160401b038082111561545f57600080fd5b818901915089601f83011261547357600080fd5b8135602061548361506083615097565b82815260059290921b8401810191818101908d8411156154a257600080fd5b948201945b838610156154c0578535825294820194908201906154a7565b9a50508a0135925050808211156154d657600080fd5b506154e389828a016153cd565b955050604087013593506060870135925061550060808801614c2d565b915061550e60a08801614c2d565b90509295509295509295565b6000806040838503121561552d57600080fd5b8235915060208301356001600160401b0381111561554a57600080fd5b61538285828601615041565b6000806040838503121561556957600080fd5b61557283614c2d565b915061558060208401614c2d565b90509250929050565b600080600080600060a086880312156155a157600080fd5b8535945060208601359350604086013592506060860135915060808601356155c881614e99565b809150509295509295909350565b600181811c908216806155ea57607f821691505b60208210810361560a57634e487b7160e01b600052602260045260246000fd5b50919050565b634e487b7160e01b600052601160045260246000fd5b818103818111156109a8576109a8615610565b634e487b7160e01b600052603260045260246000fd5b85815284602082015283604082015282606082015260a06080820152600061465260a0830184614be7565b604081016109a88284614dc0565b60006020828403121561569a57600080fd5b5051919050565b634e487b7160e01b600052601260045260246000fd5b6000826156c6576156c66156a1565b500490565b6020808252600d908201526c11549497d31253525517d3d555609a1b604082015260600190565b6020808252600f908201526e08aa4a4be9a82a890be82a0a0a49eb608b1b604082015260600190565b6001600160a01b03929092168252602082015260400190565b60006020828403121561574657600080fd5b8151614c2681614e99565b9182521515602082015260400190565b808201808211156109a8576109a8615610565b6001600160a01b039384168152919092166020820152604081019190915260600190565b600063ffffffff8216806157ae576157ae615610565b6000190192915050565b6020808252601290820152716e6f7420656e6f7567682073717565657a6560701b604082015260600190565b601f821115612ae157600081815260208120601f850160051c8101602086101561580b5750805b601f850160051c820191505b8181101561582a57828155600101615817565b505050505050565b81516001600160401b0381111561584b5761584b614f8a565b61585f8161585984546155d6565b846157e4565b602080601f831160018114615894576000841561587c5750858301515b600019600386901b1c1916600185901b17855561582a565b600085815260208120601f198616915b828110156158c3578886015182559484019460019091019084016158a4565b50858210156158e15787850151600019600388901b60f8161c191681555b5050505050600190811b01905550565b6060815260006159046060830186614be7565b60208301949094525060400152919050565b60006001820161592857615928615610565b5060010190565b818103600083128015838313168383128216171561594f5761594f615610565b5092915050565b6000600160ff1b820161596b5761596b615610565b5060000390565b602081526000614c266020830184614d5e565b600082615994576159946156a1565b500690565b600082601f8301126159aa57600080fd5b81516159b86150608261501a565b8181528460208386010111156159cd57600080fd5b610e3f826020830160208701614bc3565b6000602082840312156159f057600080fd5b81516001600160401b03811115615a0657600080fd5b610e3f84828501615999565b600080600080600060a08688031215615a2a57600080fd5b855160208701516040880151606089015160808a0151939850919650945092506001600160401b03811115615a5e57600080fd5b615a6a88828901615999565b9150509295509295909350565b828152604060208201526000610e3f6040830184614be7565b80820281158282048414176109a8576109a8615610565b60208082526010908201526f11549497d1125597d25395115493905360821b604082015260600190565b63ffffffff82811682821603908082111561594f5761594f615610565b83815263ffffffff83166020820152606060408201526000613c2b6060830184614be7565b600082601f830112615b2457600080fd5b615b2c614fc8565b806040840185811115615b3e57600080fd5b845b81811015615165578051845260209384019301615b40565b60008060006101008486031215615b6e57600080fd5b615b788585615b13565b9250604085605f860112615b8b57600080fd5b615b93614fc8565b8060c0870188811115615ba557600080fd5b8388015b81811015615bca57615bbb8a82615b13565b84526020909301928401615ba9565b50819550615bd88982615b13565b9450505050509250925092565b8060005b600281101561328a57615bfd848351614dc0565b6040939093019260209190910190600101615be9565b6102008101615c228287614dc0565b615c2f6040830186615be5565b615c3c60c0830185614dc0565b61010082018360005b6008811015615c64578151835260209283019290910190600101615c45565b50505095945050505050565b6103c08101615c7f8287614dc0565b615c8c6040830186615be5565b615c9960c0830185614dc0565b61010082018360005b6016811015615c64578151835260209283019290910190600101615ca2565b600181815b80851115615cfe578163ffffffff04821115615ce457615ce4615610565b80851615615cf157918102915b93841c9390800290615cc6565b509250929050565b600082615d15575060016109a8565b81615d22575060006109a8565b8160018114615d385760028114615d4257615d73565b60019150506109a8565b60ff841115615d5357615d53615610565b6001841b915063ffffffff821115615d6d57615d6d615610565b506109a8565b5060208310610133831016604e8410600b8410161715615daa575081810a63ffffffff811115615da557615da5615610565b6109a8565b615db48383615cc1565b8063ffffffff04821115615dca57615dca615610565b029392505050565b600063ffffffff610e3f818516828516615d06565b600063ffffffff80841680615dfe57615dfe6156a1565b92169190910492915050565b600063ffffffff80841680615e2157615e216156a1565b92169190910692915050565b600063ffffffff808316818103615e4657615e46615610565b6001019392505050565b63ffffffff81811683821601908082111561594f5761594f61561056fef16ede70e2cc42ecf32f5e0d9505c5e24fafa0ea54a44ca42089b4170f9af88cf3843eddcfcac65d12d9f26261dab50671fdbf5dc44441816c8bbdace2411afd63408840c9001c8bb7d2941b1ded0ced9ea308da1addf18e9eab93675613b25830644e72e131a029b85045b68181585d2833e84879b9709143e1f593f0000001ddf252ad1be2c89b69c2b068fc378daa952ba7f163c4a11628f55a4df523b3ef8c5be1e5ebec7d5bd14f71427d1e84f3dd0314c0f7b2291e5b200ac8c7c3b925a2646970667358221220a8a6d5721810c3de9240852da099978b2446b8425b1f9c88e046e4c29f1df80564736f6c63430008110033",
  "linkReferences": {},
  "deployedLinkReferences": {}
}