{
  "_format": "hh-sol-artifact-1",
  "contractName": "Charon",
  "sourceName": "charonAMM/contracts/Charon.sol",
  "abi": [
    {
      "inputs": [
        {
          "internalType": "address",
          "name": "_verifier2",
          "type": "address"
        },
        {
          "internalType": "address",
          "name": "_verifier16",
          "type": "address"
        },
        {
          "internalType": "address",
          "name": "_hasher",
          "type": "address"
        },
        {
          "internalType": "address",
          "name": "_token",
          "type": "address"
        },
        {
          "internalType": "uint256",
          "name": "_fee",
          "type": "uint256"
        },
        {
          "internalType": "address[]",
          "name": "_oracles",
          "type": "address[]"
        },
        {
          "internalType": "uint32",
          "name": "_merkleTreeHeight",
          "type": "uint32"
        },
        {
          "internalType": "uint256",
          "name": "_chainID",
          "type": "uint256"
        },
        {
          "internalType": "string",
          "name": "_name",
          "type": "string"
        },
        {
          "internalType": "string",
          "name": "_symbol",
          "type": "string"
        }
      ],
      "stateMutability": "nonpayable",
      "type": "constructor"
    },
    {
      "anonymous": false,
      "inputs": [
        {
          "indexed": true,
          "internalType": "address",
          "name": "_src",
          "type": "address"
        },
        {
          "indexed": true,
          "internalType": "address",
          "name": "_dst",
          "type": "address"
        },
        {
          "indexed": false,
          "internalType": "uint256",
          "name": "_amt",
          "type": "uint256"
        }
      ],
      "name": "Approval",
      "type": "event"
    },
    {
      "anonymous": false,
      "inputs": [
        {
          "indexed": false,
          "internalType": "bool",
          "name": "_isCHD",
          "type": "bool"
        },
        {
          "indexed": false,
          "internalType": "address",
          "name": "_sender",
          "type": "address"
        },
        {
          "indexed": false,
          "internalType": "uint256",
          "name": "_depositId",
          "type": "uint256"
        },
        {
          "indexed": false,
          "internalType": "int256",
          "name": "_amount",
          "type": "int256"
        }
      ],
      "name": "DepositToOtherChain",
      "type": "event"
    },
    {
      "anonymous": false,
      "inputs": [
        {
          "indexed": false,
          "internalType": "address",
          "name": "_lp",
          "type": "address"
        },
        {
          "indexed": false,
          "internalType": "uint256",
          "name": "_poolAmountOut",
          "type": "uint256"
        }
      ],
      "name": "LPDeposit",
      "type": "event"
    },
    {
      "anonymous": false,
      "inputs": [
        {
          "indexed": false,
          "internalType": "address",
          "name": "_lp",
          "type": "address"
        },
        {
          "indexed": false,
          "internalType": "uint256",
          "name": "_poolAmountIn",
          "type": "uint256"
        }
      ],
      "name": "LPWithdrawal",
      "type": "event"
    },
    {
      "anonymous": false,
      "inputs": [
        {
          "indexed": false,
          "internalType": "bytes32",
          "name": "_commitment",
          "type": "bytes32"
        },
        {
          "indexed": false,
          "internalType": "uint256",
          "name": "_index",
          "type": "uint256"
        },
        {
          "indexed": false,
          "internalType": "bytes",
          "name": "_encryptedOutput",
          "type": "bytes"
        },
        {
          "indexed": false,
          "internalType": "bool",
          "name": "_isDeposit",
          "type": "bool"
        }
      ],
      "name": "NewCommitment",
      "type": "event"
    },
    {
      "anonymous": false,
      "inputs": [
        {
          "indexed": false,
          "internalType": "bytes32",
          "name": "_nullifier",
          "type": "bytes32"
        }
      ],
      "name": "NewNullifier",
      "type": "event"
    },
    {
      "anonymous": false,
      "inputs": [
        {
          "indexed": false,
          "internalType": "uint256",
          "name": "_oracleIndex",
          "type": "uint256"
        },
        {
          "indexed": false,
          "internalType": "bytes",
          "name": "_inputData",
          "type": "bytes"
        }
      ],
      "name": "OracleDeposit",
      "type": "event"
    },
    {
      "anonymous": false,
      "inputs": [
        {
          "indexed": false,
          "internalType": "uint256",
          "name": "_amount",
          "type": "uint256"
        },
        {
          "indexed": false,
          "internalType": "bool",
          "name": "_isCHD",
          "type": "bool"
        }
      ],
      "name": "RewardAdded",
      "type": "event"
    },
    {
      "anonymous": false,
      "inputs": [
        {
          "indexed": false,
          "internalType": "address",
          "name": "_user",
          "type": "address"
        },
        {
          "indexed": false,
          "internalType": "bool",
          "name": "_inIsCHD",
          "type": "bool"
        },
        {
          "indexed": false,
          "internalType": "uint256",
          "name": "_tokenAmountIn",
          "type": "uint256"
        },
        {
          "indexed": false,
          "internalType": "uint256",
          "name": "_tokenAmountOut",
          "type": "uint256"
        }
      ],
      "name": "Swap",
      "type": "event"
    },
    {
      "anonymous": false,
      "inputs": [
        {
          "indexed": true,
          "internalType": "address",
          "name": "_src",
          "type": "address"
        },
        {
          "indexed": true,
          "internalType": "address",
          "name": "_dst",
          "type": "address"
        },
        {
          "indexed": false,
          "internalType": "uint256",
          "name": "_amt",
          "type": "uint256"
        }
      ],
      "name": "Transfer",
      "type": "event"
    },
    {
      "inputs": [],
      "name": "BONE",
      "outputs": [
        {
          "internalType": "uint256",
          "name": "",
          "type": "uint256"
        }
      ],
      "stateMutability": "view",
      "type": "function"
    },
    {
      "inputs": [],
      "name": "FIELD_SIZE",
      "outputs": [
        {
          "internalType": "uint256",
          "name": "",
          "type": "uint256"
        }
      ],
      "stateMutability": "view",
      "type": "function"
    },
    {
      "inputs": [],
      "name": "MAX_IN_RATIO",
      "outputs": [
        {
          "internalType": "uint256",
          "name": "",
          "type": "uint256"
        }
      ],
      "stateMutability": "view",
      "type": "function"
    },
    {
      "inputs": [],
      "name": "MAX_OUT_RATIO",
      "outputs": [
        {
          "internalType": "uint256",
          "name": "",
          "type": "uint256"
        }
      ],
      "stateMutability": "view",
      "type": "function"
    },
    {
      "inputs": [],
      "name": "ROOT_HISTORY_SIZE",
      "outputs": [
        {
          "internalType": "uint32",
          "name": "",
          "type": "uint32"
        }
      ],
      "stateMutability": "view",
      "type": "function"
    },
    {
      "inputs": [],
      "name": "ZERO_VALUE",
      "outputs": [
        {
          "internalType": "uint256",
          "name": "",
          "type": "uint256"
        }
      ],
      "stateMutability": "view",
      "type": "function"
    },
    {
      "inputs": [
        {
          "internalType": "uint256",
          "name": "_toUsers",
          "type": "uint256"
        },
        {
          "internalType": "uint256",
          "name": "_toLPs",
          "type": "uint256"
        },
        {
          "internalType": "uint256",
          "name": "_toOracle",
          "type": "uint256"
        },
        {
          "internalType": "bool",
          "name": "_isCHD",
          "type": "bool"
        }
      ],
      "name": "addRewards",
      "outputs": [],
      "stateMutability": "nonpayable",
      "type": "function"
    },
    {
      "inputs": [
        {
          "internalType": "address",
          "name": "_src",
          "type": "address"
        },
        {
          "internalType": "address",
          "name": "_dst",
          "type": "address"
        }
      ],
      "name": "allowance",
      "outputs": [
        {
          "internalType": "uint256",
          "name": "",
          "type": "uint256"
        }
      ],
      "stateMutability": "view",
      "type": "function"
    },
    {
      "inputs": [
        {
          "internalType": "address",
          "name": "_spender",
          "type": "address"
        },
        {
          "internalType": "uint256",
          "name": "_amount",
          "type": "uint256"
        }
      ],
      "name": "approve",
      "outputs": [
        {
          "internalType": "bool",
          "name": "",
          "type": "bool"
        }
      ],
      "stateMutability": "nonpayable",
      "type": "function"
    },
    {
      "inputs": [
        {
          "internalType": "address",
          "name": "_user",
          "type": "address"
        }
      ],
      "name": "balanceOf",
      "outputs": [
        {
          "internalType": "uint256",
          "name": "",
          "type": "uint256"
        }
      ],
      "stateMutability": "view",
      "type": "function"
    },
    {
      "inputs": [
        {
          "internalType": "uint256",
          "name": "_tokenBalanceIn",
          "type": "uint256"
        },
        {
          "internalType": "uint256",
          "name": "_tokenBalanceOut",
          "type": "uint256"
        },
        {
          "internalType": "uint256",
          "name": "_tokenAmountOut",
          "type": "uint256"
        },
        {
          "internalType": "uint256",
          "name": "_swapFee",
          "type": "uint256"
        }
      ],
      "name": "calcInGivenOut",
      "outputs": [
        {
          "internalType": "uint256",
          "name": "_tokenAmountIn",
          "type": "uint256"
        }
      ],
      "stateMutability": "pure",
      "type": "function"
    },
    {
      "inputs": [
        {
          "internalType": "uint256",
          "name": "_tokenBalanceIn",
          "type": "uint256"
        },
        {
          "internalType": "uint256",
          "name": "_tokenBalanceOut",
          "type": "uint256"
        },
        {
          "internalType": "uint256",
          "name": "_tokenAmountIn",
          "type": "uint256"
        },
        {
          "internalType": "uint256",
          "name": "_swapFee",
          "type": "uint256"
        }
      ],
      "name": "calcOutGivenIn",
      "outputs": [
        {
          "internalType": "uint256",
          "name": "_tokenAmountOut",
          "type": "uint256"
        }
      ],
      "stateMutability": "pure",
      "type": "function"
    },
    {
      "inputs": [
        {
          "internalType": "uint256",
          "name": "_tokenBalanceIn",
          "type": "uint256"
        },
        {
          "internalType": "uint256",
          "name": "_poolSupply",
          "type": "uint256"
        },
        {
          "internalType": "uint256",
          "name": "_tokenAmountIn",
          "type": "uint256"
        }
      ],
      "name": "calcPoolOutGivenSingleIn",
      "outputs": [
        {
          "internalType": "uint256",
          "name": "_poolAmountOut",
          "type": "uint256"
        }
      ],
      "stateMutability": "pure",
      "type": "function"
    },
    {
      "inputs": [
        {
          "internalType": "uint256",
          "name": "_tokenBalanceOut",
          "type": "uint256"
        },
        {
          "internalType": "uint256",
          "name": "_inSupply",
          "type": "uint256"
        },
        {
          "internalType": "uint256",
          "name": "_amountIn",
          "type": "uint256"
        },
        {
          "internalType": "uint256",
          "name": "_swapFee",
          "type": "uint256"
        },
        {
          "internalType": "bool",
          "name": "_isPool",
          "type": "bool"
        }
      ],
      "name": "calcSingleOutGivenIn",
      "outputs": [
        {
          "internalType": "uint256",
          "name": "_tokenAmountOut",
          "type": "uint256"
        }
      ],
      "stateMutability": "pure",
      "type": "function"
    },
    {
      "inputs": [
        {
          "internalType": "uint256",
          "name": "_tokenBalanceIn",
          "type": "uint256"
        },
        {
          "internalType": "uint256",
          "name": "_tokenBalanceOut",
          "type": "uint256"
        },
        {
          "internalType": "uint256",
          "name": "_swapFee",
          "type": "uint256"
        }
      ],
      "name": "calcSpotPrice",
      "outputs": [
        {
          "internalType": "uint256",
          "name": "",
          "type": "uint256"
        }
      ],
      "stateMutability": "pure",
      "type": "function"
    },
    {
      "inputs": [],
      "name": "chainID",
      "outputs": [
        {
          "internalType": "uint256",
          "name": "",
          "type": "uint256"
        }
      ],
      "stateMutability": "view",
      "type": "function"
    },
    {
      "inputs": [],
      "name": "chd",
      "outputs": [
        {
          "internalType": "contract CHD",
          "name": "",
          "type": "address"
        }
      ],
      "stateMutability": "view",
      "type": "function"
    },
    {
      "inputs": [],
      "name": "checkDrip",
      "outputs": [],
      "stateMutability": "nonpayable",
      "type": "function"
    },
    {
      "inputs": [],
      "name": "controller",
      "outputs": [
        {
          "internalType": "address",
          "name": "",
          "type": "address"
        }
      ],
      "stateMutability": "view",
      "type": "function"
    },
    {
      "inputs": [],
      "name": "decimals",
      "outputs": [
        {
          "internalType": "uint8",
          "name": "",
          "type": "uint8"
        }
      ],
      "stateMutability": "pure",
      "type": "function"
    },
    {
      "inputs": [
        {
          "components": [
            {
              "internalType": "bytes",
              "name": "proof",
              "type": "bytes"
            },
            {
              "internalType": "bytes32",
              "name": "root",
              "type": "bytes32"
            },
            {
              "internalType": "uint256",
              "name": "extDataHash",
              "type": "uint256"
            },
            {
              "internalType": "uint256",
              "name": "publicAmount",
              "type": "uint256"
            },
            {
              "internalType": "bytes32[]",
              "name": "inputNullifiers",
              "type": "bytes32[]"
            },
            {
              "internalType": "bytes32[2]",
              "name": "outputCommitments",
              "type": "bytes32[2]"
            }
          ],
          "internalType": "struct Charon.Proof",
          "name": "_proofArgs",
          "type": "tuple"
        },
        {
          "components": [
            {
              "internalType": "address",
              "name": "recipient",
              "type": "address"
            },
            {
              "internalType": "int256",
              "name": "extAmount",
              "type": "int256"
            },
            {
              "internalType": "uint256",
              "name": "fee",
              "type": "uint256"
            },
            {
              "internalType": "uint256",
              "name": "rebate",
              "type": "uint256"
            },
            {
              "internalType": "bytes",
              "name": "encryptedOutput1",
              "type": "bytes"
            },
            {
              "internalType": "bytes",
              "name": "encryptedOutput2",
              "type": "bytes"
            }
          ],
          "internalType": "struct Charon.ExtData",
          "name": "_extData",
          "type": "tuple"
        },
        {
          "internalType": "bool",
          "name": "_isCHD",
          "type": "bool"
        },
        {
          "internalType": "uint256",
          "name": "_maxOut",
          "type": "uint256"
        }
      ],
      "name": "depositToOtherChain",
      "outputs": [
        {
          "internalType": "uint256",
          "name": "_depositId",
          "type": "uint256"
        }
      ],
      "stateMutability": "nonpayable",
      "type": "function"
    },
    {
      "inputs": [],
      "name": "dripRate",
      "outputs": [
        {
          "internalType": "uint256",
          "name": "",
          "type": "uint256"
        }
      ],
      "stateMutability": "view",
      "type": "function"
    },
    {
      "inputs": [],
      "name": "fee",
      "outputs": [
        {
          "internalType": "uint256",
          "name": "",
          "type": "uint256"
        }
      ],
      "stateMutability": "view",
      "type": "function"
    },
    {
      "inputs": [
        {
          "internalType": "uint256[]",
          "name": "_partnerChains",
          "type": "uint256[]"
        },
        {
          "internalType": "address[]",
          "name": "_partnerAddys",
          "type": "address[]"
        },
        {
          "internalType": "uint256",
          "name": "_balance",
          "type": "uint256"
        },
        {
          "internalType": "uint256",
          "name": "_synthBalance",
          "type": "uint256"
        },
        {
          "internalType": "address",
          "name": "_chd",
          "type": "address"
        },
        {
          "internalType": "address",
          "name": "_cfc",
          "type": "address"
        }
      ],
      "name": "finalize",
      "outputs": [],
      "stateMutability": "nonpayable",
      "type": "function"
    },
    {
      "inputs": [
        {
          "internalType": "uint256",
          "name": "_id",
          "type": "uint256"
        }
      ],
      "name": "getDepositCommitmentsById",
      "outputs": [
        {
          "components": [
            {
              "components": [
                {
                  "internalType": "address",
                  "name": "recipient",
                  "type": "address"
                },
                {
                  "internalType": "int256",
                  "name": "extAmount",
                  "type": "int256"
                },
                {
                  "internalType": "uint256",
                  "name": "fee",
                  "type": "uint256"
                },
                {
                  "internalType": "uint256",
                  "name": "rebate",
                  "type": "uint256"
                },
                {
                  "internalType": "bytes",
                  "name": "encryptedOutput1",
                  "type": "bytes"
                },
                {
                  "internalType": "bytes",
                  "name": "encryptedOutput2",
                  "type": "bytes"
                }
              ],
              "internalType": "struct Charon.ExtData",
              "name": "extData",
              "type": "tuple"
            },
            {
              "components": [
                {
                  "internalType": "bytes",
                  "name": "proof",
                  "type": "bytes"
                },
                {
                  "internalType": "bytes32",
                  "name": "root",
                  "type": "bytes32"
                },
                {
                  "internalType": "uint256",
                  "name": "extDataHash",
                  "type": "uint256"
                },
                {
                  "internalType": "uint256",
                  "name": "publicAmount",
                  "type": "uint256"
                },
                {
                  "internalType": "bytes32[]",
                  "name": "inputNullifiers",
                  "type": "bytes32[]"
                },
                {
                  "internalType": "bytes32[2]",
                  "name": "outputCommitments",
                  "type": "bytes32[2]"
                }
              ],
              "internalType": "struct Charon.Proof",
              "name": "proof",
              "type": "tuple"
            }
          ],
          "internalType": "struct Charon.Commitment",
          "name": "",
          "type": "tuple"
        }
      ],
      "stateMutability": "view",
      "type": "function"
    },
    {
      "inputs": [
        {
          "internalType": "bytes32",
          "name": "_commitment",
          "type": "bytes32"
        }
      ],
      "name": "getDepositIdByCommitmentHash",
      "outputs": [
        {
          "internalType": "uint256",
          "name": "",
          "type": "uint256"
        }
      ],
      "stateMutability": "view",
      "type": "function"
    },
    {
      "inputs": [],
      "name": "getLastRoot",
      "outputs": [
        {
          "internalType": "bytes32",
          "name": "",
          "type": "bytes32"
        }
      ],
      "stateMutability": "view",
      "type": "function"
    },
    {
      "inputs": [
        {
          "internalType": "uint256",
          "name": "_depositId",
          "type": "uint256"
        }
      ],
      "name": "getOracleSubmission",
      "outputs": [
        {
          "internalType": "bytes",
          "name": "",
          "type": "bytes"
        }
      ],
      "stateMutability": "view",
      "type": "function"
    },
    {
      "inputs": [],
      "name": "getOracles",
      "outputs": [
        {
          "internalType": "address[]",
          "name": "",
          "type": "address[]"
        }
      ],
      "stateMutability": "view",
      "type": "function"
    },
    {
      "inputs": [],
      "name": "getPartnerContracts",
      "outputs": [
        {
          "components": [
            {
              "internalType": "uint256",
              "name": "chainID",
              "type": "uint256"
            },
            {
              "internalType": "address",
              "name": "contractAddress",
              "type": "address"
            }
          ],
          "internalType": "struct Charon.PartnerContract[]",
          "name": "",
          "type": "tuple[]"
        }
      ],
      "stateMutability": "view",
      "type": "function"
    },
    {
      "inputs": [],
      "name": "getSpotPrice",
      "outputs": [
        {
          "internalType": "uint256",
          "name": "",
          "type": "uint256"
        }
      ],
      "stateMutability": "view",
      "type": "function"
    },
    {
      "inputs": [
        {
          "internalType": "uint256",
          "name": "_i",
          "type": "uint256"
        }
      ],
      "name": "getZeros",
      "outputs": [
        {
          "internalType": "bytes32",
          "name": "",
          "type": "bytes32"
        }
      ],
      "stateMutability": "view",
      "type": "function"
    },
    {
      "inputs": [
        {
          "internalType": "bytes32",
          "name": "_left",
          "type": "bytes32"
        },
        {
          "internalType": "bytes32",
          "name": "_right",
          "type": "bytes32"
        }
      ],
      "name": "hashLeftRight",
      "outputs": [
        {
          "internalType": "bytes32",
          "name": "",
          "type": "bytes32"
        }
      ],
      "stateMutability": "view",
      "type": "function"
    },
    {
      "inputs": [],
      "name": "hasher",
      "outputs": [
        {
          "internalType": "contract IHasher",
          "name": "",
          "type": "address"
        }
      ],
      "stateMutability": "view",
      "type": "function"
    },
    {
      "inputs": [
        {
          "internalType": "bytes32",
          "name": "_root",
          "type": "bytes32"
        }
      ],
      "name": "isKnownRoot",
      "outputs": [
        {
          "internalType": "bool",
          "name": "",
          "type": "bool"
        }
      ],
      "stateMutability": "view",
      "type": "function"
    },
    {
      "inputs": [
        {
          "internalType": "bytes32",
          "name": "_nullifierHash",
          "type": "bytes32"
        }
      ],
      "name": "isSpent",
      "outputs": [
        {
          "internalType": "bool",
          "name": "",
          "type": "bool"
        }
      ],
      "stateMutability": "view",
      "type": "function"
    },
    {
      "inputs": [],
      "name": "lastDrip",
      "outputs": [
        {
          "internalType": "uint256",
          "name": "",
          "type": "uint256"
        }
      ],
      "stateMutability": "view",
      "type": "function"
    },
    {
      "inputs": [],
      "name": "levels",
      "outputs": [
        {
          "internalType": "uint32",
          "name": "",
          "type": "uint32"
        }
      ],
      "stateMutability": "view",
      "type": "function"
    },
    {
      "inputs": [
        {
          "internalType": "uint256",
          "name": "_poolAmountOut",
          "type": "uint256"
        },
        {
          "internalType": "uint256",
          "name": "_maxCHDIn",
          "type": "uint256"
        },
        {
          "internalType": "uint256",
          "name": "_maxBaseAssetIn",
          "type": "uint256"
        }
      ],
      "name": "lpDeposit",
      "outputs": [],
      "stateMutability": "nonpayable",
      "type": "function"
    },
    {
      "inputs": [
        {
          "internalType": "uint256",
          "name": "_tokenAmountIn",
          "type": "uint256"
        },
        {
          "internalType": "uint256",
          "name": "_minPoolAmountOut",
          "type": "uint256"
        }
      ],
      "name": "lpSingleCHD",
      "outputs": [],
      "stateMutability": "nonpayable",
      "type": "function"
    },
    {
      "inputs": [
        {
          "internalType": "uint256",
          "name": "_poolAmountIn",
          "type": "uint256"
        },
        {
          "internalType": "uint256",
          "name": "_minCHDOut",
          "type": "uint256"
        },
        {
          "internalType": "uint256",
          "name": "_minBaseAssetOut",
          "type": "uint256"
        }
      ],
      "name": "lpWithdraw",
      "outputs": [
        {
          "internalType": "uint256",
          "name": "_tokenAmountOut",
          "type": "uint256"
        }
      ],
      "stateMutability": "nonpayable",
      "type": "function"
    },
    {
      "inputs": [],
      "name": "name",
      "outputs": [
        {
          "internalType": "string",
          "name": "",
          "type": "string"
        }
      ],
      "stateMutability": "view",
      "type": "function"
    },
    {
      "inputs": [],
      "name": "oracleCHDFunds",
      "outputs": [
        {
          "internalType": "uint256",
          "name": "",
          "type": "uint256"
        }
      ],
      "stateMutability": "view",
      "type": "function"
    },
    {
      "inputs": [
        {
          "internalType": "uint256",
          "name": "_oracleIndex",
          "type": "uint256"
        },
        {
          "internalType": "bytes",
          "name": "_inputData",
          "type": "bytes"
        }
      ],
      "name": "oracleDeposit",
      "outputs": [],
      "stateMutability": "nonpayable",
      "type": "function"
    },
    {
      "inputs": [],
      "name": "oracleTokenFunds",
      "outputs": [
        {
          "internalType": "uint256",
          "name": "",
          "type": "uint256"
        }
      ],
      "stateMutability": "view",
      "type": "function"
    },
    {
      "inputs": [],
      "name": "recordBalance",
      "outputs": [
        {
          "internalType": "uint256",
          "name": "",
          "type": "uint256"
        }
      ],
      "stateMutability": "view",
      "type": "function"
    },
    {
      "inputs": [],
      "name": "recordBalanceSynth",
      "outputs": [
        {
          "internalType": "uint256",
          "name": "",
          "type": "uint256"
        }
      ],
      "stateMutability": "view",
      "type": "function"
    },
    {
      "inputs": [],
      "name": "singleCHDLPToDrip",
      "outputs": [
        {
          "internalType": "uint256",
          "name": "",
          "type": "uint256"
        }
      ],
      "stateMutability": "view",
      "type": "function"
    },
    {
      "inputs": [
        {
          "internalType": "address",
          "name": "",
          "type": "address"
        }
      ],
      "name": "singleLockTime",
      "outputs": [
        {
          "internalType": "uint256",
          "name": "",
          "type": "uint256"
        }
      ],
      "stateMutability": "view",
      "type": "function"
    },
    {
      "inputs": [
        {
          "internalType": "bool",
          "name": "_inIsCHD",
          "type": "bool"
        },
        {
          "internalType": "uint256",
          "name": "_tokenAmountIn",
          "type": "uint256"
        },
        {
          "internalType": "uint256",
          "name": "_minAmountOut",
          "type": "uint256"
        },
        {
          "internalType": "uint256",
          "name": "_maxPrice",
          "type": "uint256"
        }
      ],
      "name": "swap",
      "outputs": [
        {
          "internalType": "uint256",
          "name": "_tokenAmountOut",
          "type": "uint256"
        },
        {
          "internalType": "uint256",
          "name": "_spotPriceAfter",
          "type": "uint256"
        }
      ],
      "stateMutability": "nonpayable",
      "type": "function"
    },
    {
      "inputs": [],
      "name": "symbol",
      "outputs": [
        {
          "internalType": "string",
          "name": "",
          "type": "string"
        }
      ],
      "stateMutability": "view",
      "type": "function"
    },
    {
      "inputs": [],
      "name": "token",
      "outputs": [
        {
          "internalType": "contract IERC20",
          "name": "",
          "type": "address"
        }
      ],
      "stateMutability": "view",
      "type": "function"
    },
    {
      "inputs": [],
      "name": "totalSupply",
      "outputs": [
        {
          "internalType": "uint256",
          "name": "",
          "type": "uint256"
        }
      ],
      "stateMutability": "view",
      "type": "function"
    },
    {
      "inputs": [
        {
          "components": [
            {
              "internalType": "bytes",
              "name": "proof",
              "type": "bytes"
            },
            {
              "internalType": "bytes32",
              "name": "root",
              "type": "bytes32"
            },
            {
              "internalType": "uint256",
              "name": "extDataHash",
              "type": "uint256"
            },
            {
              "internalType": "uint256",
              "name": "publicAmount",
              "type": "uint256"
            },
            {
              "internalType": "bytes32[]",
              "name": "inputNullifiers",
              "type": "bytes32[]"
            },
            {
              "internalType": "bytes32[2]",
              "name": "outputCommitments",
              "type": "bytes32[2]"
            }
          ],
          "internalType": "struct Charon.Proof",
          "name": "_args",
          "type": "tuple"
        },
        {
          "components": [
            {
              "internalType": "address",
              "name": "recipient",
              "type": "address"
            },
            {
              "internalType": "int256",
              "name": "extAmount",
              "type": "int256"
            },
            {
              "internalType": "uint256",
              "name": "fee",
              "type": "uint256"
            },
            {
              "internalType": "uint256",
              "name": "rebate",
              "type": "uint256"
            },
            {
              "internalType": "bytes",
              "name": "encryptedOutput1",
              "type": "bytes"
            },
            {
              "internalType": "bytes",
              "name": "encryptedOutput2",
              "type": "bytes"
            }
          ],
          "internalType": "struct Charon.ExtData",
          "name": "_extData",
          "type": "tuple"
        }
      ],
      "name": "transact",
      "outputs": [],
      "stateMutability": "payable",
      "type": "function"
    },
    {
      "inputs": [
        {
          "internalType": "address",
          "name": "_to",
          "type": "address"
        },
        {
          "internalType": "uint256",
          "name": "_amount",
          "type": "uint256"
        }
      ],
      "name": "transfer",
      "outputs": [
        {
          "internalType": "bool",
          "name": "",
          "type": "bool"
        }
      ],
      "stateMutability": "nonpayable",
      "type": "function"
    },
    {
      "inputs": [
        {
          "internalType": "address",
          "name": "_from",
          "type": "address"
        },
        {
          "internalType": "address",
          "name": "_to",
          "type": "address"
        },
        {
          "internalType": "uint256",
          "name": "_amount",
          "type": "uint256"
        }
      ],
      "name": "transferFrom",
      "outputs": [
        {
          "internalType": "bool",
          "name": "",
          "type": "bool"
        }
      ],
      "stateMutability": "nonpayable",
      "type": "function"
    },
    {
      "inputs": [],
      "name": "userRewards",
      "outputs": [
        {
          "internalType": "uint256",
          "name": "",
          "type": "uint256"
        }
      ],
      "stateMutability": "view",
      "type": "function"
    },
    {
      "inputs": [],
      "name": "userRewardsCHD",
      "outputs": [
        {
          "internalType": "uint256",
          "name": "",
          "type": "uint256"
        }
      ],
      "stateMutability": "view",
      "type": "function"
    },
    {
      "inputs": [],
      "name": "verifier16",
      "outputs": [
        {
          "internalType": "contract IVerifier",
          "name": "",
          "type": "address"
        }
      ],
      "stateMutability": "view",
      "type": "function"
    },
    {
      "inputs": [],
      "name": "verifier2",
      "outputs": [
        {
          "internalType": "contract IVerifier",
          "name": "",
          "type": "address"
        }
      ],
      "stateMutability": "view",
      "type": "function"
    }
  ],
  "bytecode": "0x610160604052600380546001600160401b03191690553480156200002257600080fd5b50604051620068283803806200682883398101604081905262000045916200050e565b8181858a60008263ffffffff16116200005d57600080fd5b60208263ffffffff16106200007157600080fd5b63ffffffff821660a0526001600160a01b0381166080526000805260026020527f2fe54c60d3acabf3343a35b6eba15db4821b340f76e741e2249685ed4899af6c7fac33ff75c19e70fe83507db0d683fd3465c996598dc972688b7ace676c89077b5560015b60208163ffffffff1611620001e557816001600160a01b031663299e566060405180604001604052806002600060018762000113919062000629565b63ffffffff1681526020019081526020016000205481526020016002600060018762000140919062000629565b63ffffffff168152602001908152602001600020548152506040518263ffffffff1660e01b815260040162000176919062000650565b602060405180830381865afa15801562000194573d6000803e3d6000fd5b505050506040513d601f19601f82011682018060405250810190620001ba919062000683565b63ffffffff821660009081526002602052604090205580620001dc816200069d565b915050620000d7565b5060005b8263ffffffff168163ffffffff161015620002345763ffffffff81166000908152600260209081526040808320549183905290912055806200022b816200069d565b915050620001e9565b505063ffffffff166000908152600260209081526040822054918052600190527fa6eef7e35abe7026729641147f7915573c7e97b47efa546f5f6e3230263bcb4955600462000284838262000752565b50600562000293828262000752565b5050506001600160a01b03808b1660e05289811661010052871660c052610140869052600c80546001600160a01b031916331790556101208390528451620002e390600d906020880190620002f4565b50505050505050505050506200081e565b8280548282559060005260206000209081019282156200034c579160200282015b828111156200034c57825182546001600160a01b0319166001600160a01b0390911617825560209092019160019091019062000315565b506200035a9291506200035e565b5090565b5b808211156200035a57600081556001016200035f565b80516001600160a01b03811681146200038d57600080fd5b919050565b634e487b7160e01b600052604160045260246000fd5b604051601f8201601f191681016001600160401b0381118282101715620003d357620003d362000392565b604052919050565b600082601f830112620003ed57600080fd5b815160206001600160401b038211156200040b576200040b62000392565b8160051b6200041c828201620003a8565b92835284810182019282810190878511156200043757600080fd5b83870192505b848310156200046157620004518362000375565b825291830191908301906200043d565b979650505050505050565b805163ffffffff811681146200038d57600080fd5b600082601f8301126200049357600080fd5b81516001600160401b03811115620004af57620004af62000392565b6020620004c5601f8301601f19168201620003a8565b8281528582848701011115620004da57600080fd5b60005b83811015620004fa578581018301518282018401528201620004dd565b506000928101909101919091529392505050565b6000806000806000806000806000806101408b8d0312156200052f57600080fd5b6200053a8b62000375565b99506200054a60208c0162000375565b98506200055a60408c0162000375565b97506200056a60608c0162000375565b60808c015160a08d015191985096506001600160401b03808211156200058f57600080fd5b6200059d8e838f01620003db565b9650620005ad60c08e016200046c565b955060e08d015194506101008d0151915080821115620005cc57600080fd5b620005da8e838f0162000481565b93506101208d0151915080821115620005f257600080fd5b50620006018d828e0162000481565b9150509295989b9194979a5092959850565b634e487b7160e01b600052601160045260246000fd5b63ffffffff82811682821603908082111562000649576200064962000613565b5092915050565b60408101818360005b60028110156200067a57815183526020928301929091019060010162000659565b50505092915050565b6000602082840312156200069657600080fd5b5051919050565b600063ffffffff808316818103620006b957620006b962000613565b6001019392505050565b600181811c90821680620006d857607f821691505b602082108103620006f957634e487b7160e01b600052602260045260246000fd5b50919050565b601f8211156200074d57600081815260208120601f850160051c81016020861015620007285750805b601f850160051c820191505b81811015620007495782815560010162000734565b5050505b505050565b81516001600160401b038111156200076e576200076e62000392565b62000786816200077f8454620006c3565b84620006ff565b602080601f831160018114620007be5760008415620007a55750858301515b600019600386901b1c1916600185901b17855562000749565b600085815260208120601f198616915b82811015620007ef57888601518255948401946001909101908401620007ce565b50858210156200080e5787850151600019600388901b60f8161c191681555b5050505050600190811b01905550565b60805160a05160c05160e051610100516101205161014051615f156200091360003960008181610987015281816115c401528181611a0e0152611c8d01526000818161083101528181613e4f0152613fd60152600081816103eb0152613f810152600081816105900152613dfa015260008181610ade01528181611736015281816118e101528181611a4c01528181611d6901528181611f1301528181612445015281816125f601528181612e5e01528181612f3b015281816134ec0152818161357f01526137540152600081816105470152818161466e01526146d0015260008181610a8a015261117b0152615f156000f3fe6080604052600436106102a75760003560e01c806306fdde03146102ac578063095ea7b3146102d75780630b785fc6146103075780631595497d1461031e57806315e1b7021461034257806318160ddd146103625780631f639ee41461037757806323b872dd1461038d57806324e14a7a146103ad5780632d57121b146103c35780632fc0355f146103d9578063313ce5671461042557806334540e181461044157806338bf282e146104575780633c0540cf1461047757806340884c52146104a4578063414a37ba146104c6578063436f9be4146104e85780634b4d4ae8146105085780634ecf518b14610535578063522d0d701461057e57806359542ca9146105b25780635bb25be3146105e757806367fb329b146106095780636a01218e146106295780636d9833e31461064957806370a082311461066957806372ee63411461069f57806373ee0ac5146106bf57806376a38e91146106df5780637d33bc73146106ff578063840d205f146107155780638f84e27c146107425780639260df2a1461076257806395d89b4114610782578063992e2a92146107975780639e7b1cd9146107ac578063a8109c80146107bf578063a9059cbb146107df578063aad32641146107ff578063adc879e91461081f578063ba70f75714610853578063bd4920e51461087d578063c36596a614610893578063cd87a3b4146108af578063d2b12ad5146108c4578063d3261592146108e4578063d544c1d2146108fa578063dc76fabc1461091a578063dd62ed3e1461092f578063ddca3f4314610975578063e0e6236e146109a9578063e5285dcc146109c9578063ea2388d2146109f9578063eadb825914610a19578063ec09302114610a2f578063ec73295914610a44578063ed33639f14610a78578063f77c479114610aac578063fc0c546a14610acc575b600080fd5b3480156102b857600080fd5b506102c1610b00565b6040516102ce9190614ba6565b60405180910390f35b3480156102e357600080fd5b506102f76102f2366004614be3565b610b92565b60405190151581526020016102ce565b34801561031357600080fd5b5061031c610bed565b005b34801561032a57600080fd5b5061033460145481565b6040519081526020016102ce565b34801561034e57600080fd5b506102c161035d366004614c0f565b610c4f565b34801561036e57600080fd5b50600654610334565b34801561038357600080fd5b5061033460105481565b34801561039957600080fd5b506102f76103a8366004614c28565b61100b565b3480156103b957600080fd5b50610334600f5481565b3480156103cf57600080fd5b5061033460135481565b3480156103e557600080fd5b5061040d7f000000000000000000000000000000000000000000000000000000000000000081565b6040516001600160a01b0390911681526020016102ce565b34801561043157600080fd5b50604051601281526020016102ce565b34801561044d57600080fd5b5061033460115481565b34801561046357600080fd5b50610334610472366004614c69565b611124565b34801561048357600080fd5b50610334610492366004614c0f565b6000908152601a602052604090205490565b3480156104b057600080fd5b506104b9611201565b6040516102ce9190614c8b565b3480156104d257600080fd5b50610334600080516020615e8083398151915281565b3480156104f457600080fd5b50610334610503366004614cd8565b611262565b34801561051457600080fd5b50610528610523366004614c0f565b6112a4565b6040516102ce9190614d8b565b34801561054157600080fd5b506105697f000000000000000000000000000000000000000000000000000000000000000081565b60405163ffffffff90911681526020016102ce565b34801561058a57600080fd5b5061040d7f000000000000000000000000000000000000000000000000000000000000000081565b3480156105be57600080fd5b506105d26105cd366004614e4f565b6115a4565b604080519283526020830191909152016102ce565b3480156105f357600080fd5b506105fc611bb8565b6040516102ce9190614e8a565b34801561061557600080fd5b50610334610624366004614c0f565b611c2d565b34801561063557600080fd5b50610334610644366004614cd8565b611c4f565b34801561065557600080fd5b506102f7610664366004614c0f565b6120e3565b34801561067557600080fd5b50610334610684366004614ee2565b6001600160a01b031660009081526007602052604090205490565b3480156106ab57600080fd5b506103346106ba366004614eff565b612161565b3480156106cb57600080fd5b5061031c6106da366004614c69565b6121c2565b3480156106eb57600080fd5b506103346106fa366004614eff565b6122ea565b34801561070b57600080fd5b5061033460125481565b34801561072157600080fd5b50610334610730366004614ee2565b60186020526000908152604090205481565b34801561074e57600080fd5b5061031c61075d366004614f31565b612344565b34801561076e57600080fd5b5061031c61077d366004615099565b612590565b34801561078e57600080fd5b506102c16127c9565b3480156107a357600080fd5b506103346127d8565b61031c6107ba3660046153e2565b6127f9565b3480156107cb57600080fd5b5060095461040d906001600160a01b031681565b3480156107eb57600080fd5b506102f76107fa366004614be3565b612b7e565b34801561080b57600080fd5b5061033461081a366004615445565b612b94565b34801561082b57600080fd5b506103347f000000000000000000000000000000000000000000000000000000000000000081565b34801561085f57600080fd5b5060035463ffffffff16600090815260016020526040902054610334565b34801561088957600080fd5b5061033460155481565b34801561089f57600080fd5b50610334670de0b6b3a764000081565b3480156108bb57600080fd5b50610569606481565b3480156108d057600080fd5b5061031c6108df3660046154c2565b6131ac565b3480156108f057600080fd5b5061033460175481565b34801561090657600080fd5b5061031c610915366004614cd8565b61363d565b34801561092657600080fd5b50610334613888565b34801561093b57600080fd5b5061033461094a3660046154fe565b6001600160a01b03918216600090815260086020908152604080832093909416825291909152205490565b34801561098157600080fd5b506103347f000000000000000000000000000000000000000000000000000000000000000081565b3480156109b557600080fd5b506103346109c4366004614cd8565b61389f565b3480156109d557600080fd5b506102f76109e4366004614c0f565b60009081526019602052604090205460ff1690565b348015610a0557600080fd5b50610334610a14366004615537565b61391e565b348015610a2557600080fd5b5061033460165481565b348015610a3b57600080fd5b50610334613a69565b348015610a5057600080fd5b506103347f2fe54c60d3acabf3343a35b6eba15db4821b340f76e741e2249685ed4899af6c81565b348015610a8457600080fd5b5061040d7f000000000000000000000000000000000000000000000000000000000000000081565b348015610ab857600080fd5b50600c5461040d906001600160a01b031681565b348015610ad857600080fd5b5061040d7f000000000000000000000000000000000000000000000000000000000000000081565b606060048054610b0f90615584565b80601f0160208091040260200160405190810160405280929190818152602001828054610b3b90615584565b8015610b885780601f10610b5d57610100808354040283529160200191610b88565b820191906000526020600020905b815481529060010190602001808311610b6b57829003601f168201915b5050505050905090565b3360008181526008602090815260408083206001600160a01b03871680855292528083208590555191929091600080516020615ec083398151915290610bdb9086815260200190565b60405180910390a35060015b92915050565b60165442118015610c0057506000601554115b15610c4d5742601655601754601554811115610c1b57506015545b8060126000828254610c2d91906155d4565b925050819055508060156000828254610c4691906155e7565b9091555050505b565b60606000600a610c606001856155e7565b81548110610c7057610c706155fa565b600091825260209091206040805161010081018252600d90930290910180546001600160a01b03169183019182526001810154606084015260028101546080840152600381015460a0840152600481018054919284929091849160c085019190610cd990615584565b80601f0160208091040260200160405190810160405280929190818152602001828054610d0590615584565b8015610d525780601f10610d2757610100808354040283529160200191610d52565b820191906000526020600020905b815481529060010190602001808311610d3557829003601f168201915b50505050508152602001600582018054610d6b90615584565b80601f0160208091040260200160405190810160405280929190818152602001828054610d9790615584565b8015610de45780601f10610db957610100808354040283529160200191610de4565b820191906000526020600020905b815481529060010190602001808311610dc757829003601f168201915b5050505050815250508152602001600682016040518060c0016040529081600082018054610e1190615584565b80601f0160208091040260200160405190810160405280929190818152602001828054610e3d90615584565b8015610e8a5780601f10610e5f57610100808354040283529160200191610e8a565b820191906000526020600020905b815481529060010190602001808311610e6d57829003601f168201915b5050505050815260200160018201548152602001600282015481526020016003820154815260200160048201805480602002602001604051908101604052809291908181526020018280548015610f0057602002820191906000526020600020905b815481526020019060010190808311610eec575b5050509183525050604080518082019182905260209092019190600584019060029082845b815481526020019060010190808311610f2557505050505081525050815250509050806020015160800151600081518110610f6257610f626155fa565b6020026020010151816020015160800151600181518110610f8557610f856155fa565b6020026020010151826020015160a00151600060028110610fa857610fa86155fa565b6020020151836020015160a00151600160028110610fc857610fc86155fa565b6020908102919091015185820151518651608081015160a090910151604051610ff49897969501615610565b604051602081830303815290604052915050919050565b6000336001600160a01b038516148061104757506001600160a01b03841660009081526008602090815260408083203384529091529020548211155b6110875760405162461bcd60e51b815260206004820152600c60248201526b1b9bdd08185c1c1c9bdd995960a21b60448201526064015b60405180910390fd5b611092848484613a7c565b336001600160a01b0385161461111a576001600160a01b03841660009081526008602090815260408083203384529091529020546110d19083906155e7565b6001600160a01b03851660008181526008602090815260408083203380855290835292819020859055519384529092600080516020615ec0833981519152910160405180910390a35b5060019392505050565b6000600080516020615e80833981519152831061114057600080fd5b600080516020615e80833981519152821061115a57600080fd5b6111626149e5565b8381526020810183905260405163014cf2b360e51b81527f00000000000000000000000000000000000000000000000000000000000000006001600160a01b03169063299e5660906111b890849060040161566f565b602060405180830381865afa1580156111d5573d6000803e3d6000fd5b505050506040513d601f19601f820116820180604052508101906111f9919061567d565b949350505050565b6060600d805480602002602001604051908101604052809291908181526020018280548015610b8857602002820191906000526020600020905b81546001600160a01b0316815260019091019060200180831161123b575050505050905090565b60008061126f8585613b43565b9050600061128e670de0b6b3a764000061128986826155e7565b613b43565b905061129a8282613c1f565b9695505050505050565b6112ac614a03565b600a6112b96001846155e7565b815481106112c9576112c96155fa565b600091825260209091206040805161010081018252600d90930290910180546001600160a01b03169183019182526001810154606084015260028101546080840152600381015460a0840152600481018054919284929091849160c08501919061133290615584565b80601f016020809104026020016040519081016040528092919081815260200182805461135e90615584565b80156113ab5780601f10611380576101008083540402835291602001916113ab565b820191906000526020600020905b81548152906001019060200180831161138e57829003601f168201915b505050505081526020016005820180546113c490615584565b80601f01602080910402602001604051908101604052809291908181526020018280546113f090615584565b801561143d5780601f106114125761010080835404028352916020019161143d565b820191906000526020600020905b81548152906001019060200180831161142057829003601f168201915b5050505050815250508152602001600682016040518060c001604052908160008201805461146a90615584565b80601f016020809104026020016040519081016040528092919081815260200182805461149690615584565b80156114e35780601f106114b8576101008083540402835291602001916114e3565b820191906000526020600020905b8154815290600101906020018083116114c657829003601f168201915b505050505081526020016001820154815260200160028201548152602001600382015481526020016004820180548060200260200160405190810160405280929190818152602001828054801561155957602002820191906000526020600020905b815481526020019060010190808311611545575b5050509183525050604080518082019182905260209092019190600584019060029082845b81548152602001906001019080831161157e575050509190925250505090525092915050565b600e54600090819060ff16156115b957600080fd5b60008060006115e8887f0000000000000000000000000000000000000000000000000000000000000000613c1f565b905060006115f6828a6155e7565b9050891561160d5760125493506011549250611618565b601154935060125492505b6116348461162f6002670de0b6b3a76400006156ac565b613c1f565b89111561164057600080fd5b600061164e85856000611262565b90508781111561165d57600080fd5b8a156116785761167184868460008061391e565b9650611688565b6116858585846000612161565b96505b8887101561169557600080fd5b61169f8288613b43565b8111156116ab57600080fd5b6116b587856155e7565b93508a156118bd57600954604051630a6c1a4f60e11b81526001600160a01b03909116906314d8349e906116ef90339086906004016156c0565b600060405180830381600087803b15801561170957600080fd5b505af115801561171d573d6000803e3d6000fd5b505060405163a9059cbb60e01b81526001600160a01b037f000000000000000000000000000000000000000000000000000000000000000016925063a9059cbb915061176f9033908b906004016156c0565b6020604051808303816000875af115801561178e573d6000803e3d6000fd5b505050506040513d601f19601f820116820180604052508101906117b291906156d9565b6117bb57600080fd5b86601160008282546117cd91906155e7565b909155505082156118b857600954600c5460405163095ea7b360e01b81526001600160a01b039283169263095ea7b39261180e9291169087906004016156c0565b6020604051808303816000875af115801561182d573d6000803e3d6000fd5b505050506040513d601f19601f8201168201806040525081019061185191906156d9565b50600c5460405163214cabe560e11b81526001600160a01b039091169063429957ca906118859086906001906004016156f6565b600060405180830381600087803b15801561189f57600080fd5b505af11580156118b3573d6000803e3d6000fd5b505050505b611b31565b6118c782866155d4565b6040516323b872dd60e01b81529095506001600160a01b037f000000000000000000000000000000000000000000000000000000000000000016906323b872dd9061191a90339030908f90600401615706565b6020604051808303816000875af1158015611939573d6000803e3d6000fd5b505050506040513d601f19601f8201168201806040525081019061195d91906156d9565b61196657600080fd5b60095460405163a9059cbb60e01b81526001600160a01b039091169063a9059cbb906119989033908b906004016156c0565b6020604051808303816000875af11580156119b7573d6000803e3d6000fd5b505050506040513d601f19601f820116820180604052508101906119db91906156d9565b5081601160008282546119ee91906155d4565b925050819055508660126000828254611a0791906155e7565b90915550507f000000000000000000000000000000000000000000000000000000000000000015611b3157600c5460405163095ea7b360e01b81526001600160a01b037f000000000000000000000000000000000000000000000000000000000000000081169263095ea7b392611a8792919091169087906004016156c0565b6020604051808303816000875af1158015611aa6573d6000803e3d6000fd5b505050506040513d601f19601f82011682018060405250810190611aca91906156d9565b50600c5460405163214cabe560e11b81526001600160a01b039091169063429957ca90611afe9086906000906004016156f6565b600060405180830381600087803b158015611b1857600080fd5b505af1158015611b2c573d6000803e3d6000fd5b505050505b611b3d85856000611262565b955080861015611b4c57600080fd5b87861115611b5957600080fd5b611b61610bed565b604080513381528c151560208201529081018b9052606081018890527fbfd50a04f1e6e4aee344f5d0e7f15d74d0dbb58cd1f711daa6463094ca9508cd9060800160405180910390a1505050505094509492505050565b6060600b805480602002602001604051908101604052809291908181526020016000905b82821015611c245760008481526020908190206040805180820190915260028502909101805482526001908101546001600160a01b0316828401529083529092019101611bdc565b50505050905090565b6000602082116102a7575060009081526002602052604090205490565b919050565b600e5460009060ff1615611c6257600080fd5b336000908152601860205260409020544211611c7d57600080fd5b611c85610bed565b6000611cb1857f0000000000000000000000000000000000000000000000000000000000000000613c1f565b90506000611cbf82876155e7565b90506000611ccf82600654613b43565b9050611cdb3383613cb5565b611ce781601154613c1f565b935083600003611cf657600080fd5b84841015611d0357600080fd5b83601154611d1191906155e7565b6011819055506000611d2582601254613c1f565b905080600003611d3457600080fd5b86811015611d4157600080fd5b80601254611d4f91906155e7565b60125560405163a9059cbb60e01b81526001600160a01b037f0000000000000000000000000000000000000000000000000000000000000000169063a9059cbb90611da090339089906004016156c0565b6020604051808303816000875af1158015611dbf573d6000803e3d6000fd5b505050506040513d601f19601f82011682018060405250810190611de391906156d9565b611dec57600080fd5b60095460405163a9059cbb60e01b81526001600160a01b039091169063a9059cbb90611e1e90339085906004016156c0565b6020604051808303816000875af1158015611e3d573d6000803e3d6000fd5b505050506040513d601f19601f82011682018060405250810190611e6191906156d9565b507f63408840c9001c8bb7d2941b1ded0ced9ea308da1addf18e9eab93675613b2583389604051611e939291906156c0565b60405180910390a183156120d857611ead84600654613b43565b9150611eb93385613cb5565b611ec582601154613c1f565b945084601154611ed591906155e7565b601155601254611ee6908390613c1f565b905080601254611ef691906155e7565b601255600c5460405163095ea7b360e01b81526001600160a01b037f000000000000000000000000000000000000000000000000000000000000000081169263095ea7b392611f4e92919091169089906004016156c0565b6020604051808303816000875af1158015611f6d573d6000803e3d6000fd5b505050506040513d601f19601f82011682018060405250810190611f9191906156d9565b50600c5460405163214cabe560e11b81526001600160a01b039091169063429957ca90611fc59088906000906004016156f6565b600060405180830381600087803b158015611fdf57600080fd5b505af1158015611ff3573d6000803e3d6000fd5b5050600954600c5460405163095ea7b360e01b81526001600160a01b03928316945063095ea7b3935061202e929091169085906004016156c0565b6020604051808303816000875af115801561204d573d6000803e3d6000fd5b505050506040513d601f19601f8201168201806040525081019061207191906156d9565b50600c5460405163214cabe560e11b81526001600160a01b039091169063429957ca906120a59084906001906004016156f6565b600060405180830381600087803b1580156120bf57600080fd5b505af11580156120d3573d6000803e3d6000fd5b505050505b505050509392505050565b60008181036120f457506000919050565b60035463ffffffff16805b63ffffffff81166000908152600160205260409020548403612125575060019392505050565b8063ffffffff16600003612137575060645b806121418161572a565b9150508163ffffffff168163ffffffff16036120ff575060009392505050565b60008061217683670de0b6b3a76400006155e7565b90506121828482613c1f565b905060006121948761128984826155d4565b905060006121aa82670de0b6b3a76400006155e7565b90506121b68782613c1f565b98975050505050505050565b600e5460ff16156121d257600080fd5b60006121e36012546006548561389f565b905082601560008282546121f791906155d4565b909155505060155461220c906103e8906156ac565b6017558181101561221c57600080fd5b6122263382613d37565b6009546040516323b872dd60e01b81526001600160a01b03909116906323b872dd9061225a90339030908890600401615706565b6020604051808303816000875af1158015612279573d6000803e3d6000fd5b505050506040513d601f19601f8201168201806040525081019061229d91906156d9565b506122ab42620151806155d4565b3360008181526018602052604090819020929092559051600080516020615e40833981519152916122dd9184906156c0565b60405180910390a1505050565b6000806122f784866155e7565b905060006123058683613b43565b9050600061231b670de0b6b3a7640000836155e7565b905061232f85670de0b6b3a76400006155e7565b93506121b661233e8983613c1f565b85613b43565b600e5460ff161561235457600080fd5b801561243b576009546001600160a01b03166323b872dd333085612378888a6155d4565b61238291906155d4565b6040518463ffffffff1660e01b81526004016123a093929190615706565b6020604051808303816000875af11580156123bf573d6000803e3d6000fd5b505050506040513d601f19601f820116820180604052508101906123e391906156d9565b6123ec57600080fd5b82601260008282546123fe91906155d4565b92505081905550816010600082825461241791906155d4565b92505081905550836014600082825461243091906155d4565b909155506125359050565b6001600160a01b037f0000000000000000000000000000000000000000000000000000000000000000166323b872dd333085612477888a6155d4565b61248191906155d4565b6040518463ffffffff1660e01b815260040161249f93929190615706565b6020604051808303816000875af11580156124be573d6000803e3d6000fd5b505050506040513d601f19601f820116820180604052508101906124e291906156d9565b6124eb57600080fd5b82601160008282546124fd91906155d4565b9250508190555081600f600082825461251691906155d4565b92505081905550836013600082825461252f91906155d4565b90915550505b61253d610bed565b7f46296264cd106b25aaa6bd852f4cf76bbd7d70550bbe6352bc3a47e35c6f1b2f8261256985876155d4565b61257391906155d4565b826040516125829291906156f6565b60405180910390a150505050565b600c546001600160a01b031633146125a757600080fd5b6009546001600160a01b0316156125bd57600080fd5b60118490556012839055600980546001600160a01b0319166001600160a01b03848116919091179091556040516323b872dd60e01b81527f0000000000000000000000000000000000000000000000000000000000000000909116906323b872dd9061263190339030908990600401615706565b6020604051808303816000875af1158015612650573d6000803e3d6000fd5b505050506040513d601f19601f8201168201806040525081019061267491906156d9565b61267d57600080fd5b60095460405163d4beb4fd60e01b81526001600160a01b039091169063d4beb4fd906126af90309087906004016156c0565b600060405180830381600087803b1580156126c957600080fd5b505af11580156126dd573d6000803e3d6000fd5b505050506126f43368056bc75e2d63100000613d37565b60005b85518110156127a157600b604051806040016040528089848151811061271f5761271f6155fa565b6020026020010151815260200188848151811061273e5761273e6155fa565b6020908102919091018101516001600160a01b0390811690925283546001808201865560009586529482902084516002909202019081559201519190920180546001600160a01b03191691909216179055806127998161574a565b9150506126f7565b50600c80546001600160a01b0319166001600160a01b03929092169190911790555050505050565b606060058054610b0f90615584565b6127eb6003670de0b6b3a76400006156ac565b6127f69060016155d4565b81565b600e5460ff161561280957600080fd5b600e805460ff191660011790556040810151602082015160009161282c91615763565b9050600081121561285b576128408161578a565b61285890600080516020615e808339815191526155e7565b90505b8083606001511461286b57600080fd5b61287883602001516120e3565b6128b35760405162461bcd60e51b815260206004820152600c60248201526b1a5b9d985b1a59081c9bdbdd60a21b604482015260640161107e565b6128bc83613db1565b6128f85760405162461bcd60e51b815260206004820152600d60248201526c34b73b30b634b210383937b7b360991b604482015260640161107e565b600080516020615e808339815191528260405160200161291891906157a6565b6040516020818303038152906040528051906020012060001c61293b91906157b9565b8360400151146129815760405162461bcd60e51b81526020600482015260116024820152700d2dcc6dee4e4cac6e840cac840d0c2e6d607b1b604482015260640161107e565b600082602001511215612a0457600954825160208401516001600160a01b039092169163d4beb4fd91906129b49061578a565b6040518363ffffffff1660e01b81526004016129d19291906156c0565b600060405180830381600087803b1580156129eb57600080fd5b505af11580156129ff573d6000803e3d6000fd5b505050505b612a1083836000614314565b604082015160009015612b2957600954604080850151905163d4beb4fd60e01b81526001600160a01b039092169163d4beb4fd91612a53913391906004016156c0565b600060405180830381600087803b158015612a6d57600080fd5b505af1158015612a81573d6000803e3d6000fd5b50505050606083015115612b2957612aa460125460115485606001516000612161565b90508260600151836040015111612aee5760405162461bcd60e51b815260206004820152600e60248201526d72656261746520746f6f2062696760901b604482015260640161107e565b82516040516001600160a01b039091169082156108fc029083906000818181858888f19350505050158015612b27573d6000803e3d6000fd5b505b803414612b6e5760405162461bcd60e51b81526020600482015260136024820152726d73672076616c756520213d2072656261746560681b604482015260640161107e565b5050600e805460ff191690555050565b6000612b8b338484613a7c565b50600192915050565b600080846020015113612ba657600080fd5b600e5460ff1615612bb657600080fd5b6040805180820182528581526020808201889052600a8054600181018255600091909152825180517fc65a7bb8d6351c1cf70c95a316cc6a92839c986682d98bc35f958f4883f9d2a8600d90930292830180546001600160a01b0319166001600160a01b03909216919091178155928101517fc65a7bb8d6351c1cf70c95a316cc6a92839c986682d98bc35f958f4883f9d2a9830155938401517fc65a7bb8d6351c1cf70c95a316cc6a92839c986682d98bc35f958f4883f9d2aa82015560608401517fc65a7bb8d6351c1cf70c95a316cc6a92839c986682d98bc35f958f4883f9d2ab82015560808401519293919283917fc65a7bb8d6351c1cf70c95a316cc6a92839c986682d98bc35f958f4883f9d2ac0190612cd5908261581c565b5060a08201516005820190612cea908261581c565b5050506020820151805160068301908190612d05908261581c565b506020828101516001830155604083015160028301556060830151600383015560808301518051612d3c9260048501920190614a28565b5060a0820151612d529060058301906002614a6f565b5050600a54885160608a01516020808c015160405194985060009750612d7e96509294509092016158db565b60405160208183030381529060405280519060200120905081601a6000838152602001908152602001600020819055506000612dc5601154601254886020015160006122ea565b90508415612e3a576009546020870151604051630a6c1a4f60e11b81526001600160a01b03909216916314d8349e91612e03913391906004016156c0565b600060405180830381600087803b158015612e1d57600080fd5b505af1158015612e31573d6000803e3d6000fd5b50505050612efb565b83811115612e4757600080fd5b6040516323b872dd60e01b81526001600160a01b037f000000000000000000000000000000000000000000000000000000000000000016906323b872dd90612e9790339030908690600401615706565b6020604051808303816000875af1158015612eb6573d6000803e3d6000fd5b505050506040513d601f19601f82011682018060405250810190612eda91906156d9565b612ee357600080fd5b8060116000828254612ef591906155d4565b90915550505b60006103e8601354612f0d91906156ac565b9050818111158015612f1f5750600081115b15612fd65760405163a9059cbb60e01b81526001600160a01b037f0000000000000000000000000000000000000000000000000000000000000000169063a9059cbb90612f7290339085906004016156c0565b6020604051808303816000875af1158015612f91573d6000803e3d6000fd5b505050506040513d601f19601f82011682018060405250810190612fb591906156d9565b612fbe57600080fd5b8060136000828254612fd091906155e7565b90915550505b6103e8601454612fe691906156ac565b9050612ff58760200151614510565b81111580156130045750600081115b156130975760095460405163a9059cbb60e01b81526001600160a01b039091169063a9059cbb9061303b90339085906004016156c0565b6020604051808303816000875af115801561305a573d6000803e3d6000fd5b505050506040513d601f19601f8201168201806040525081019061307e91906156d9565b50806014600082825461309191906155e7565b90915550505b60005b600d546130a9906001906155e7565b811161314657600d81815481106130c2576130c26155fa565b6000918252602090912001546001600160a01b03166351e3aea96130e587610c4f565b6040518263ffffffff1660e01b81526004016131019190614ba6565b600060405180830381600087803b15801561311b57600080fd5b505af115801561312f573d6000803e3d6000fd5b50505050808061313e9061574a565b91505061309a565b5061315388886001614314565b6020808801516040805189151581523393810193909352820186905260608201527f0a690c60dfc5e43723ca5640f57a04e22055c1e98fe144bb95da52ce24ae4b9b9060800160405180910390a1505050949350505050565b600e5460ff16156131bc57600080fd5b6131c4614a9c565b6131cc614ad5565b60606000600d86815481106131e3576131e36155fa565b600091825260209091200154604051636b2fd90560e01b81526001600160a01b0390911690636b2fd9059061321c908890600401614ba6565b6000604051808303816000875af115801561323b573d6000803e3d6000fd5b505050506040513d6000823e601f3d908101601f191682016040526132639190810190615945565b60408051600280825260608201909252929450909250816020016020820280368337505050608085015281516132a2906020908401810190840161598b565b8a608001516000815181106132b9576132b96155fa565b602002602001018b608001516001815181106132d7576132d76155fa565b602002602001018c60a001516000600281106132f5576132f56155fa565b602002018d60a00151600160028110613310576133106155fa565b60a08f019590955260808e0195909552948d52602090920290920193909352929052919091525261334384846001614314565b60006107d06010541115613483576103e860105461336191906156ac565b9050806010600082825461337591906155e7565b90915550506001600160a01b0382161561340c576133946002826156ac565b60095460405163a9059cbb60e01b81529192506001600160a01b03169063a9059cbb906133c790859085906004016156c0565b6020604051808303816000875af11580156133e6573d6000803e3d6000fd5b505050506040513d601f19601f8201168201806040525081019061340a91906156d9565b505b60095460405163a9059cbb60e01b81526001600160a01b039091169063a9059cbb9061343e90339085906004016156c0565b6020604051808303816000875af115801561345d573d6000803e3d6000fd5b505050506040513d601f19601f8201168201806040525081019061348191906156d9565b505b6107d0600f5411156135fb576103e8600f5461349f91906156ac565b905080600f60008282546134b391906155e7565b90915550506001600160a01b03821615613568576134d26002826156ac565b60405163a9059cbb60e01b81529091506001600160a01b037f0000000000000000000000000000000000000000000000000000000000000000169063a9059cbb9061352390859085906004016156c0565b6020604051808303816000875af1158015613542573d6000803e3d6000fd5b505050506040513d601f19601f8201168201806040525081019061356691906156d9565b505b60405163a9059cbb60e01b81526001600160a01b037f0000000000000000000000000000000000000000000000000000000000000000169063a9059cbb906135b690339085906004016156c0565b6020604051808303816000875af11580156135d5573d6000803e3d6000fd5b505050506040513d601f19601f820116820180604052508101906135f991906156d9565b505b7f7f293aa0b9ae407a05fb89bef36529d7b5a7b5912e5cfa7a0ee9e251e70c6b0e878760405161362c929190615a3b565b60405180910390a150505050505050565b600e5460ff161561364d57600080fd5b600061365b84600654613b43565b90506000811161366a57600080fd5b600061367882601154613c1f565b9050828111156136bf5760405162461bcd60e51b81526020600482015260126024820152711b585e10985cd9505cdcd95d125b881a1a5d60721b604482015260640161107e565b806011546136cd91906155d4565b60118190555060006136e183601254613c1f565b9050848111156137225760405162461bcd60e51b815260206004820152600c60248201526b1b585e10d211125b881a1a5d60a21b604482015260640161107e565b8060125461373091906155d4565b60125561373d3387613d37565b6040516323b872dd60e01b81526001600160a01b037f000000000000000000000000000000000000000000000000000000000000000016906323b872dd9061378d90339030908790600401615706565b6020604051808303816000875af11580156137ac573d6000803e3d6000fd5b505050506040513d601f19601f820116820180604052508101906137d091906156d9565b6137d957600080fd5b6009546040516323b872dd60e01b81526001600160a01b03909116906323b872dd9061380d90339030908690600401615706565b6020604051808303816000875af115801561382c573d6000803e3d6000fd5b505050506040513d601f19601f8201168201806040525081019061385091906156d9565b50613859610bed565b600080516020615e4083398151915233876040516138789291906156c0565b60405180910390a1505050505050565b600061389a6012546011546000611262565b905090565b6000806138b483670de0b6b3a7640000613c1f565b905060006138c282876155d4565b905060006138d08288613b43565b905060006138f7826138f2670de0b6b3a7640000671bc16d674ec80000613b43565b61452c565b905060006139058289613c1f565b905061391188826155e7565b9998505050505050505050565b60008082156139ee57613941670de0b6b3a7640000671bc16d674ec80000613b43565b9050600061395786670de0b6b3a7640000613c1f565b9050600061396582896155e7565b90506000613973828a613b43565b9050600061398d826138f2670de0b6b3a764000088613b43565b9050600061399b828d613c1f565b905060006139a9828e6155e7565b905060006139c86139c289670de0b6b3a76400006155e7565b8c613c1f565b90506139e08261162f83670de0b6b3a76400006155e7565b985050505050505050613a5f565b6000613a0285670de0b6b3a76400006155e7565b9050613a0e8682613c1f565b90506000613a24670de0b6b3a764000089613b43565b90506000613a43613a3d83670de0b6b3a76400006155e7565b8961452c565b9050613a4f8a82613c1f565b613a59908b6155e7565b94505050505b5095945050505050565b6127f66002670de0b6b3a76400006156ac565b6001600160a01b0383166000908152601860205260409020544211613aa057600080fd5b6001600160a01b038316600090815260076020526040902054613ac49082906155e7565b6001600160a01b038085166000908152600760205260408082209390935590841681522054613af49082906155d4565b6001600160a01b038084166000818152600760205260409081902093909355915190851690600080516020615ea083398151915290613b369085815260200190565b60405180910390a3505050565b600081600003613b845760405162461bcd60e51b815260206004820152600c60248201526b4552525f4449565f5a45524f60a01b604482015260640161107e565b6000613b98670de0b6b3a764000085615a54565b9050831580613bb75750670de0b6b3a7640000613bb585836156ac565b145b613bd35760405162461bcd60e51b815260040161107e90615a6b565b6000613be06002856156ac565b613bea90836155d4565b905081811015613c0c5760405162461bcd60e51b815260040161107e90615a6b565b613c1684826156ac565b95945050505050565b600080613c2c8385615a54565b9050831580613c43575082613c4185836156ac565b145b613c825760405162461bcd60e51b815260206004820152601060248201526f4552525f4d554c5f4f564552464c4f5760801b604482015260640161107e565b6000613c976002670de0b6b3a76400006156ac565b613ca190836155d4565b9050613c16670de0b6b3a7640000826156ac565b6001600160a01b038216600090815260076020526040902054613cd99082906155e7565b6001600160a01b038316600090815260076020526040902055600654613d009082906155e7565b6006556040518181526000906001600160a01b03841690600080516020615ea0833981519152906020015b60405180910390a35050565b6001600160a01b038216600090815260076020526040902054613d5b9082906155d4565b6001600160a01b038316600090815260076020526040902055600654613d829082906155d4565b6006556040518181526001600160a01b03831690600090600080516020615ea083398151915290602001613d2b565b6000613dbb6149e5565b613dc3614b14565b613dcb6149e5565b8460000151806020019051810190613de39190615ada565b6080880151519295509093509150600203613f72577f00000000000000000000000000000000000000000000000000000000000000006001600160a01b031663c9219a7a8484846040518061010001604052808b6020015160001c81526020018b6060015181526020017f000000000000000000000000000000000000000000000000000000000000000081526020018b6040015181526020018b60800151600081518110613e9457613e946155fa565b602002602001015160001c81526020018b60800151600181518110613ebb57613ebb6155fa565b602002602001015160001c81526020018b60a00151600060028110613ee257613ee26155fa565b602002015160001c81526020018b60a00151600160028110613f0657613f066155fa565b602002015190526040516001600160e01b031960e087901b168152613f319493929190600401615b95565b602060405180830381865afa158015613f4e573d6000803e3d6000fd5b505050506040513d601f19601f82011682018060405250810190613c1691906156d9565b8460800151516010036142da577f00000000000000000000000000000000000000000000000000000000000000006001600160a01b031663c5a0fc26848484604051806102c001604052808b6020015160001c81526020018b6060015181526020017f000000000000000000000000000000000000000000000000000000000000000081526020018b6040015181526020018b6080015160008151811061401b5761401b6155fa565b602002602001015160001c81526020018b60800151600181518110614042576140426155fa565b602002602001015160001c81526020018b60800151600281518110614069576140696155fa565b602002602001015160001c81526020018b60800151600381518110614090576140906155fa565b602002602001015160001c81526020018b608001516004815181106140b7576140b76155fa565b602002602001015160001c81526020018b608001516005815181106140de576140de6155fa565b602002602001015160001c81526020018b60800151600681518110614105576141056155fa565b602002602001015160001c81526020018b6080015160078151811061412c5761412c6155fa565b602002602001015160001c81526020018b60800151600881518110614153576141536155fa565b602002602001015160001c81526020018b6080015160098151811061417a5761417a6155fa565b602002602001015160001c81526020018b60800151600a815181106141a1576141a16155fa565b602002602001015160001c81526020018b60800151600b815181106141c8576141c86155fa565b602002602001015160001c81526020018b60800151600c815181106141ef576141ef6155fa565b602002602001015160001c81526020018b60800151600d81518110614216576142166155fa565b602002602001015160001c81526020018b60800151600e8151811061423d5761423d6155fa565b602002602001015160001c81526020018b60800151600f81518110614264576142646155fa565b602002602001015160001c81526020018b60a0015160006002811061428b5761428b6155fa565b602002015160001c81526020018b60a001516001600281106142af576142af6155fa565b602002015190526040516001600160e01b031960e087901b168152613f319493929190600401615bf2565b60405162461bcd60e51b815260206004820152600f60248201526e189859081a5b9c1d5d0818dbdd5b9d608a1b604482015260640161107e565b60005b83608001515181101561445057601960008560800151838151811061433e5761433e6155fa565b60209081029190910181015182528101919091526040016000205460ff161561439f5760405162461bcd60e51b8152602060048201526013602482015272125b9c1d5d08185b1c9958591e481cdc195b9d606a1b604482015260640161107e565b600160196000866080015184815181106143bb576143bb6155fa565b6020026020010151815260200190815260200160002060006101000a81548160ff0219169083151502179055507f5e58f77bbf94b46d8d896e29753e4458c6e59b48581e20ed58c9558e96f297ce8460800151828151811061441f5761441f6155fa565b602002602001015160405161443691815260200190565b60405180910390a1806144488161574a565b915050614317565b5060a083015180516020909101516144689190614659565b50614471610bed565b60a083015151600354600080516020615e6083398151915291906144a490600290600160201b900463ffffffff16615c43565b8460800151846040516144ba9493929190615c60565b60405180910390a160a0830151600080516020615e6083398151915290600160200201516003546144fa90600190600160201b900463ffffffff16615c43565b8460a00151846040516122dd9493929190615c60565b600080821215614528576145238261578a565b610be7565b5090565b600060018310156145765760405162461bcd60e51b81526020600482015260146024820152734552525f504f575f424153455f544f4f5f4c4f5760601b604482015260640161107e565b600161458b670de0b6b3a76400006002615a54565b61459591906155e7565b8311156145dc5760405162461bcd60e51b815260206004820152601560248201527408aa4a4bea09eaebe8482a68abea89e9ebe90928e9605b1b604482015260640161107e565b60006145e783614814565b905060006145f582856155e7565b9050600061460b8661460685614832565b614846565b90508160000361461f579250610be7915050565b6000614642878461463d6402540be400670de0b6b3a76400006156ac565b6148bb565b905061464e8282613c1f565b979650505050505050565b600354600160201b900463ffffffff166146947f00000000000000000000000000000000000000000000000000000000000000006002615da4565b63ffffffff168163ffffffff16036146ab57600080fd5b60006146b8600283615db9565b905060006146c68585611124565b905060008060015b7f000000000000000000000000000000000000000000000000000000000000000063ffffffff168163ffffffff16101561478e5761470d600286615ddc565b63ffffffff166000036147475763ffffffff8116600090815260026020908152604080832054918390529091208590558493509150614763565b63ffffffff811660009081526020819052604090205492508391505b61476d8383611124565b935061477a600286615db9565b94508061478681615dff565b9150506146ce565b506003546000906064906147a99063ffffffff166001615e22565b6147b39190615ddc565b6003805463ffffffff191663ffffffff8316908117909155600090815260016020526040902085905590506147e9866002615e22565b600360046101000a81548163ffffffff021916908363ffffffff160217905550505050505092915050565b6000670de0b6b3a764000061482883614832565b610be79190615a54565b6000610be7670de0b6b3a7640000836156ac565b60006148536002836157b9565b60000361486857670de0b6b3a764000061486a565b825b90506148776002836156ac565b91505b8115610be75761488a8384613c1f565b92506148976002836157b9565b156148a9576148a68184613c1f565b90505b6148b46002836156ac565b915061487a565b60008281806148d287670de0b6b3a76400006149ae565b670de0b6b3a76400009550909250905083600060015b8783106149a1576000614903670de0b6b3a764000083615a54565b90506000806149238961491e670de0b6b3a7640000866155e7565b6149ae565b915091506149358661162f848b613c1f565b95506149418684613b43565b955085600003614953575050506149a1565b861561495d579315935b8015614967579315935b841561497e57614977868b6155e7565b995061498b565b614988868b6155d4565b99505b50505080806149999061574a565b9150506148e8565b5050505050509392505050565b6000808284106149cd576149c283856155e7565b6000915091506149de565b6149d784846155e7565b6001915091505b9250929050565b60405180604001604052806002906020820280368337509192915050565b6040518060400160405280614a16614ad5565b8152602001614a23614a9c565b905290565b828054828255906000526020600020908101928215614a63579160200282015b82811115614a63578251825591602001919060010190614a48565b50614528929150614b41565b8260028101928215614a635791602002820182811115614a63578251825591602001919060010190614a48565b6040518060c001604052806060815260200160008019168152602001600081526020016000815260200160608152602001614a236149e5565b6040518060c0016040528060006001600160a01b0316815260200160008152602001600081526020016000815260200160608152602001606081525090565b60405180604001604052806002905b614b2b6149e5565b815260200190600190039081614b235790505090565b5b808211156145285760008155600101614b42565b60005b83811015614b71578181015183820152602001614b59565b50506000910152565b60008151808452614b92816020860160208601614b56565b601f01601f19169290920160200192915050565b602081526000614bb96020830184614b7a565b9392505050565b6001600160a01b0381168114614bd557600080fd5b50565b8035611c4a81614bc0565b60008060408385031215614bf657600080fd5b8235614c0181614bc0565b946020939093013593505050565b600060208284031215614c2157600080fd5b5035919050565b600080600060608486031215614c3d57600080fd5b8335614c4881614bc0565b92506020840135614c5881614bc0565b929592945050506040919091013590565b60008060408385031215614c7c57600080fd5b50508035926020909101359150565b6020808252825182820181905260009190848201906040850190845b81811015614ccc5783516001600160a01b031683529284019291840191600101614ca7565b50909695505050505050565b600080600060608486031215614ced57600080fd5b505081359360208301359350604090920135919050565b60018060a01b0381511682526020810151602083015260408101516040830152606081015160608301526000608082015160c06080850152614d4960c0850182614b7a565b905060a083015184820360a0860152613c168282614b7a565b8060005b6002811015614d85578151845260209384019390910190600101614d66565b50505050565b600060208083528351604082850152614da76060850182614d04565b905081850151601f19858303016040860152805160e08352614dcc60e0840182614b7a565b9050838201518484015260408201516040840152606082015160608401526080820151838203608085015281815180845286840191508683019350600092505b80831015614e2c5783518252928601926001929092019190860190614e0c565b5060a084015195506121b660a0860187614d62565b8015158114614bd557600080fd5b60008060008060808587031215614e6557600080fd5b8435614e7081614e41565b966020860135965060408601359560600135945092505050565b602080825282518282018190526000919060409081850190868401855b82811015614ed5578151805185528601516001600160a01b0316868501529284019290850190600101614ea7565b5091979650505050505050565b600060208284031215614ef457600080fd5b8135614bb981614bc0565b60008060008060808587031215614f1557600080fd5b5050823594602084013594506040840135936060013592509050565b60008060008060808587031215614f4757600080fd5b8435935060208501359250604085013591506060850135614f6781614e41565b939692955090935050565b634e487b7160e01b600052604160045260246000fd5b60405160c081016001600160401b0381118282101715614faa57614faa614f72565b60405290565b604080519081016001600160401b0381118282101715614faa57614faa614f72565b604051601f8201601f191681016001600160401b0381118282101715614ffa57614ffa614f72565b604052919050565b60006001600160401b0382111561501b5761501b614f72565b5060051b60200190565b600082601f83011261503657600080fd5b8135602061504b61504683615002565b614fd2565b82815260059290921b8401810191818101908684111561506a57600080fd5b8286015b8481101561508e57803561508181614bc0565b835291830191830161506e565b509695505050505050565b60008060008060008060c087890312156150b257600080fd5b86356001600160401b03808211156150c957600080fd5b818901915089601f8301126150dd57600080fd5b813560206150ed61504683615002565b82815260059290921b8401810191818101908d84111561510c57600080fd5b948201945b8386101561512a57853582529482019490820190615111565b9a50508a01359250508082111561514057600080fd5b5061514d89828a01615025565b955050604087013593506060870135925061516a60808801614bd8565b915061517860a08801614bd8565b90509295509295509295565b60006001600160401b0382111561519d5761519d614f72565b50601f01601f191660200190565b600082601f8301126151bc57600080fd5b81356151ca61504682615184565b8181528460208386010111156151df57600080fd5b816020850160208301376000918101602001919091529392505050565b600082601f83011261520d57600080fd5b8135602061521d61504683615002565b82815260059290921b8401810191818101908684111561523c57600080fd5b8286015b8481101561508e5780358352918301918301615240565b600082601f83011261526857600080fd5b615270614fb0565b80604084018581111561528257600080fd5b845b8181101561529c578035845260209384019301615284565b509095945050505050565b600060e082840312156152b957600080fd5b6152c1614f88565b905081356001600160401b03808211156152da57600080fd5b6152e6858386016151ab565b8352602084013560208401526040840135604084015260608401356060840152608084013591508082111561531a57600080fd5b50615327848285016151fc565b60808301525061533a8360a08401615257565b60a082015292915050565b600060c0828403121561535757600080fd5b61535f614f88565b905061536a82614bd8565b815260208281013590820152604080830135908201526060808301359082015260808201356001600160401b03808211156153a457600080fd5b6153b0858386016151ab565b608084015260a08401359150808211156153c957600080fd5b506153d6848285016151ab565b60a08301525092915050565b600080604083850312156153f557600080fd5b82356001600160401b038082111561540c57600080fd5b615418868387016152a7565b9350602085013591508082111561542e57600080fd5b5061543b85828601615345565b9150509250929050565b6000806000806080858703121561545b57600080fd5b84356001600160401b038082111561547257600080fd5b61547e888389016152a7565b9550602087013591508082111561549457600080fd5b506154a187828801615345565b93505060408501356154b281614e41565b9396929550929360600135925050565b600080604083850312156154d557600080fd5b8235915060208301356001600160401b038111156154f257600080fd5b61543b858286016151ab565b6000806040838503121561551157600080fd5b823561551c81614bc0565b9150602083013561552c81614bc0565b809150509250929050565b600080600080600060a0868803121561554f57600080fd5b85359450602086013593506040860135925060608601359150608086013561557681614e41565b809150509295509295909350565b600181811c9082168061559857607f821691505b6020821081036155b857634e487b7160e01b600052602260045260246000fd5b50919050565b634e487b7160e01b600052601160045260246000fd5b80820180821115610be757610be76155be565b81810381811115610be757610be76155be565b634e487b7160e01b600052603260045260246000fd5b87815286602082015285604082015284606082015260e06080820152600061563b60e0830186614b7a565b82810360a084015261564d8186614b7a565b905082810360c08401526156618185614b7a565b9a9950505050505050505050565b60408101610be78284614d62565b60006020828403121561568f57600080fd5b5051919050565b634e487b7160e01b600052601260045260246000fd5b6000826156bb576156bb615696565b500490565b6001600160a01b03929092168252602082015260400190565b6000602082840312156156eb57600080fd5b8151614bb981614e41565b9182521515602082015260400190565b6001600160a01b039384168152919092166020820152604081019190915260600190565b600063ffffffff821680615740576157406155be565b6000190192915050565b60006001820161575c5761575c6155be565b5060010190565b8181036000831280158383131683831282161715615783576157836155be565b5092915050565b6000600160ff1b820161579f5761579f6155be565b5060000390565b602081526000614bb96020830184614d04565b6000826157c8576157c8615696565b500690565b601f82111561581757600081815260208120601f850160051c810160208610156157f45750805b601f850160051c820191505b8181101561581357828155600101615800565b5050505b505050565b81516001600160401b0381111561583557615835614f72565b615849816158438454615584565b846157cd565b602080601f83116001811461587e57600084156158665750858301515b600019600386901b1c1916600185901b178555615813565b600085815260208120601f198616915b828110156158ad5788860151825594840194600190910190840161588e565b50858210156158cb5787850151600019600388901b60f8161c191681555b5050505050600190811b01905550565b6060815260006158ee6060830186614b7a565b60208301949094525060400152919050565b600082601f83011261591157600080fd5b815161591f61504682615184565b81815284602083860101111561593457600080fd5b6111f9826020830160208701614b56565b6000806040838503121561595857600080fd5b82516001600160401b0381111561596e57600080fd5b61597a85828601615900565b925050602083015161552c81614bc0565b600080600080600080600060e0888a0312156159a657600080fd5b8751602089015160408a015160608b015160808c0151939a50919850965094506001600160401b03808211156159db57600080fd5b6159e78b838c01615900565b945060a08a01519150808211156159fd57600080fd5b615a098b838c01615900565b935060c08a0151915080821115615a1f57600080fd5b50615a2c8a828b01615900565b91505092959891949750929550565b8281526040602082015260006111f96040830184614b7a565b8082028115828204841417610be757610be76155be565b60208082526010908201526f11549497d1125597d25395115493905360821b604082015260600190565b600082601f830112615aa657600080fd5b615aae614fb0565b806040840185811115615ac057600080fd5b845b8181101561529c578051845260209384019301615ac2565b60008060006101008486031215615af057600080fd5b615afa8585615a95565b9250604085605f860112615b0d57600080fd5b615b15614fb0565b8060c0870188811115615b2757600080fd5b8388015b81811015615b4c57615b3d8a82615a95565b84526020909301928401615b2b565b50819550615b5a8982615a95565b9450505050509250925092565b8060005b6002811015614d8557615b7f848351614d62565b6040939093019260209190910190600101615b6b565b6102008101615ba48287614d62565b615bb16040830186615b67565b615bbe60c0830185614d62565b61010082018360005b6008811015615be6578151835260209283019290910190600101615bc7565b50505095945050505050565b6103c08101615c018287614d62565b615c0e6040830186615b67565b615c1b60c0830185614d62565b61010082018360005b6016811015615be6578151835260209283019290910190600101615c24565b63ffffffff828116828216039080821115615783576157836155be565b84815263ffffffff84166020820152608060408201526000615c856080830185614b7a565b9050821515606083015295945050505050565b600181815b80851115615cd5578163ffffffff04821115615cbb57615cbb6155be565b80851615615cc857918102915b93841c9390800290615c9d565b509250929050565b600082615cec57506001610be7565b81615cf957506000610be7565b8160018114615d0f5760028114615d1957615d4a565b6001915050610be7565b60ff841115615d2a57615d2a6155be565b6001841b915063ffffffff821115615d4457615d446155be565b50610be7565b5060208310610133831016604e8410600b8410161715615d7c575081810a63ffffffff811115614523576145236155be565b615d868383615c98565b8063ffffffff04821115615d9c57615d9c6155be565b029392505050565b600063ffffffff6111f9818516828516615cdd565b600063ffffffff80841680615dd057615dd0615696565b92169190910492915050565b600063ffffffff80841680615df357615df3615696565b92169190910692915050565b600063ffffffff808316818103615e1857615e186155be565b6001019392505050565b63ffffffff818116838216019080821115615783576157836155be56fef16ede70e2cc42ecf32f5e0d9505c5e24fafa0ea54a44ca42089b4170f9af88c2521e31ea1559c6ff96bf5bd8f8332b81f1a00fce5f2f35430bd450a657c2a7630644e72e131a029b85045b68181585d2833e84879b9709143e1f593f0000001ddf252ad1be2c89b69c2b068fc378daa952ba7f163c4a11628f55a4df523b3ef8c5be1e5ebec7d5bd14f71427d1e84f3dd0314c0f7b2291e5b200ac8c7c3b925a26469706673582212205c035fdf1e88c357c777b710cb2a9d0f9bbe74205fba886fdbb49d2bc429e0d164736f6c63430008110033",
  "linkReferences": {},
  "deployedLinkReferences": {}
}