{
  "_format": "hh-sol-artifact-1",
  "contractName": "GnosisAMB",
  "sourceName": "charonAMM/contracts/bridges/GnosisAMB.sol",
  "abi": [
    {
      "inputs": [
        {
          "internalType": "address",
          "name": "_ambBridge",
          "type": "address"
        },
        {
          "internalType": "address payable",
          "name": "_tellor",
          "type": "address"
        }
      ],
      "stateMutability": "nonpayable",
      "type": "constructor"
    },
    {
      "anonymous": false,
      "inputs": [
        {
          "indexed": false,
          "internalType": "bytes32",
          "name": "_messageId",
          "type": "bytes32"
        },
        {
          "indexed": false,
          "internalType": "bool",
          "name": "_status",
          "type": "bool"
        }
      ],
      "name": "InfoRecieved",
      "type": "event"
    },
    {
      "anonymous": false,
      "inputs": [
        {
          "indexed": false,
          "internalType": "uint256",
          "name": "_depositId",
          "type": "uint256"
        }
      ],
      "name": "InfoRequest",
      "type": "event"
    },
    {
      "inputs": [],
      "name": "_requestSelector",
      "outputs": [
        {
          "internalType": "bytes32",
          "name": "",
          "type": "bytes32"
        }
      ],
      "stateMutability": "view",
      "type": "function"
    },
    {
      "inputs": [],
      "name": "ambBridge",
      "outputs": [
        {
          "internalType": "contract IAMB",
          "name": "",
          "type": "address"
        }
      ],
      "stateMutability": "view",
      "type": "function"
    },
    {
      "inputs": [],
      "name": "charon",
      "outputs": [
        {
          "internalType": "address",
          "name": "",
          "type": "address"
        }
      ],
      "stateMutability": "view",
      "type": "function"
    },
    {
      "inputs": [],
      "name": "connectedCharon",
      "outputs": [
        {
          "internalType": "address",
          "name": "",
          "type": "address"
        }
      ],
      "stateMutability": "view",
      "type": "function"
    },
    {
      "inputs": [
        {
          "internalType": "bytes32",
          "name": "",
          "type": "bytes32"
        }
      ],
      "name": "didPush",
      "outputs": [
        {
          "internalType": "bool",
          "name": "",
          "type": "bool"
        }
      ],
      "stateMutability": "view",
      "type": "function"
    },
    {
      "inputs": [
        {
          "internalType": "bytes",
          "name": "_inputData",
          "type": "bytes"
        }
      ],
      "name": "getCommitment",
      "outputs": [
        {
          "internalType": "bytes",
          "name": "_value",
          "type": "bytes"
        },
        {
          "internalType": "address",
          "name": "_caller",
          "type": "address"
        }
      ],
      "stateMutability": "nonpayable",
      "type": "function"
    },
    {
      "inputs": [
        {
          "internalType": "bytes32",
          "name": "_queryId",
          "type": "bytes32"
        },
        {
          "internalType": "uint256",
          "name": "_timestamp",
          "type": "uint256"
        }
      ],
      "name": "getDataAfter",
      "outputs": [
        {
          "internalType": "bytes",
          "name": "_value",
          "type": "bytes"
        },
        {
          "internalType": "uint256",
          "name": "_timestampRetrieved",
          "type": "uint256"
        }
      ],
      "stateMutability": "view",
      "type": "function"
    },
    {
      "inputs": [
        {
          "internalType": "bytes32",
          "name": "_queryId",
          "type": "bytes32"
        },
        {
          "internalType": "uint256",
          "name": "_timestamp",
          "type": "uint256"
        }
      ],
      "name": "getDataBefore",
      "outputs": [
        {
          "internalType": "bytes",
          "name": "_value",
          "type": "bytes"
        },
        {
          "internalType": "uint256",
          "name": "_timestampRetrieved",
          "type": "uint256"
        }
      ],
      "stateMutability": "view",
      "type": "function"
    },
    {
      "inputs": [
        {
          "internalType": "bytes32",
          "name": "_queryId",
          "type": "bytes32"
        },
        {
          "internalType": "uint256",
          "name": "_timestamp",
          "type": "uint256"
        }
      ],
      "name": "getIndexForDataAfter",
      "outputs": [
        {
          "internalType": "bool",
          "name": "_found",
          "type": "bool"
        },
        {
          "internalType": "uint256",
          "name": "_index",
          "type": "uint256"
        }
      ],
      "stateMutability": "view",
      "type": "function"
    },
    {
      "inputs": [
        {
          "internalType": "bytes32",
          "name": "_queryId",
          "type": "bytes32"
        },
        {
          "internalType": "uint256",
          "name": "_timestamp",
          "type": "uint256"
        }
      ],
      "name": "getIndexForDataBefore",
      "outputs": [
        {
          "internalType": "bool",
          "name": "_found",
          "type": "bool"
        },
        {
          "internalType": "uint256",
          "name": "_index",
          "type": "uint256"
        }
      ],
      "stateMutability": "view",
      "type": "function"
    },
    {
      "inputs": [
        {
          "internalType": "uint256",
          "name": "_depositId",
          "type": "uint256"
        }
      ],
      "name": "getInfo",
      "outputs": [
        {
          "internalType": "bytes32",
          "name": "_messageId",
          "type": "bytes32"
        }
      ],
      "stateMutability": "nonpayable",
      "type": "function"
    },
    {
      "inputs": [],
      "name": "getMessageIds",
      "outputs": [
        {
          "internalType": "bytes32[]",
          "name": "",
          "type": "bytes32[]"
        }
      ],
      "stateMutability": "view",
      "type": "function"
    },
    {
      "inputs": [
        {
          "internalType": "bytes32",
          "name": "_queryId",
          "type": "bytes32"
        },
        {
          "internalType": "uint256",
          "name": "_timestamp",
          "type": "uint256"
        },
        {
          "internalType": "uint256",
          "name": "_maxAge",
          "type": "uint256"
        },
        {
          "internalType": "uint256",
          "name": "_maxCount",
          "type": "uint256"
        }
      ],
      "name": "getMultipleValuesBefore",
      "outputs": [
        {
          "internalType": "bytes[]",
          "name": "_values",
          "type": "bytes[]"
        },
        {
          "internalType": "uint256[]",
          "name": "_timestamps",
          "type": "uint256[]"
        }
      ],
      "stateMutability": "view",
      "type": "function"
    },
    {
      "inputs": [
        {
          "internalType": "bytes32",
          "name": "_queryId",
          "type": "bytes32"
        }
      ],
      "name": "getNewValueCountbyQueryId",
      "outputs": [
        {
          "internalType": "uint256",
          "name": "",
          "type": "uint256"
        }
      ],
      "stateMutability": "view",
      "type": "function"
    },
    {
      "inputs": [
        {
          "internalType": "bytes32",
          "name": "_queryId",
          "type": "bytes32"
        },
        {
          "internalType": "uint256",
          "name": "_timestamp",
          "type": "uint256"
        }
      ],
      "name": "getReporterByTimestamp",
      "outputs": [
        {
          "internalType": "address",
          "name": "",
          "type": "address"
        }
      ],
      "stateMutability": "view",
      "type": "function"
    },
    {
      "inputs": [
        {
          "internalType": "uint256",
          "name": "_timestamp",
          "type": "uint256"
        },
        {
          "internalType": "uint256",
          "name": "_chainID",
          "type": "uint256"
        },
        {
          "internalType": "address",
          "name": "_address",
          "type": "address"
        }
      ],
      "name": "getRootHashAndSupply",
      "outputs": [
        {
          "internalType": "bytes",
          "name": "_value",
          "type": "bytes"
        }
      ],
      "stateMutability": "view",
      "type": "function"
    },
    {
      "inputs": [
        {
          "internalType": "bytes32",
          "name": "_queryId",
          "type": "bytes32"
        },
        {
          "internalType": "uint256",
          "name": "_index",
          "type": "uint256"
        }
      ],
      "name": "getTimestampbyQueryIdandIndex",
      "outputs": [
        {
          "internalType": "uint256",
          "name": "",
          "type": "uint256"
        }
      ],
      "stateMutability": "view",
      "type": "function"
    },
    {
      "inputs": [],
      "name": "idMappingContract",
      "outputs": [
        {
          "internalType": "contract IMappingContract",
          "name": "",
          "type": "address"
        }
      ],
      "stateMutability": "view",
      "type": "function"
    },
    {
      "inputs": [
        {
          "internalType": "bytes32",
          "name": "",
          "type": "bytes32"
        }
      ],
      "name": "idToCaller",
      "outputs": [
        {
          "internalType": "address",
          "name": "",
          "type": "address"
        }
      ],
      "stateMutability": "view",
      "type": "function"
    },
    {
      "inputs": [
        {
          "internalType": "bytes32",
          "name": "_queryId",
          "type": "bytes32"
        },
        {
          "internalType": "uint256",
          "name": "_timestamp",
          "type": "uint256"
        }
      ],
      "name": "isInDispute",
      "outputs": [
        {
          "internalType": "bool",
          "name": "",
          "type": "bool"
        }
      ],
      "stateMutability": "view",
      "type": "function"
    },
    {
      "inputs": [
        {
          "internalType": "bytes32",
          "name": "",
          "type": "bytes32"
        }
      ],
      "name": "messageIdToData",
      "outputs": [
        {
          "internalType": "bytes",
          "name": "",
          "type": "bytes"
        }
      ],
      "stateMutability": "view",
      "type": "function"
    },
    {
      "inputs": [
        {
          "internalType": "uint256",
          "name": "",
          "type": "uint256"
        }
      ],
      "name": "messageIds",
      "outputs": [
        {
          "internalType": "bytes32",
          "name": "",
          "type": "bytes32"
        }
      ],
      "stateMutability": "view",
      "type": "function"
    },
    {
      "inputs": [
        {
          "internalType": "bytes32",
          "name": "messageId",
          "type": "bytes32"
        },
        {
          "internalType": "bool",
          "name": "status",
          "type": "bool"
        },
        {
          "internalType": "bytes",
          "name": "result",
          "type": "bytes"
        }
      ],
      "name": "onInformationReceived",
      "outputs": [],
      "stateMutability": "nonpayable",
      "type": "function"
    },
    {
      "inputs": [
        {
          "internalType": "bytes32",
          "name": "_queryId",
          "type": "bytes32"
        },
        {
          "internalType": "uint256",
          "name": "_timestamp",
          "type": "uint256"
        }
      ],
      "name": "retrieveData",
      "outputs": [
        {
          "internalType": "bytes",
          "name": "",
          "type": "bytes"
        }
      ],
      "stateMutability": "view",
      "type": "function"
    },
    {
      "inputs": [
        {
          "internalType": "bytes",
          "name": "_data",
          "type": "bytes"
        }
      ],
      "name": "sendCommitment",
      "outputs": [],
      "stateMutability": "nonpayable",
      "type": "function"
    },
    {
      "inputs": [
        {
          "internalType": "address",
          "name": "_connectedCharon",
          "type": "address"
        },
        {
          "internalType": "address",
          "name": "_charon",
          "type": "address"
        }
      ],
      "name": "setCharon",
      "outputs": [],
      "stateMutability": "nonpayable",
      "type": "function"
    },
    {
      "inputs": [
        {
          "internalType": "address",
          "name": "_addy",
          "type": "address"
        }
      ],
      "name": "setIdMappingContract",
      "outputs": [],
      "stateMutability": "nonpayable",
      "type": "function"
    },
    {
      "inputs": [],
      "name": "tellor",
      "outputs": [
        {
          "internalType": "contract ITellor",
          "name": "",
          "type": "address"
        }
      ],
      "stateMutability": "view",
      "type": "function"
    },
    {
      "inputs": [
        {
          "internalType": "bytes32",
          "name": "_id",
          "type": "bytes32"
        }
      ],
      "name": "valueFor",
      "outputs": [
        {
          "internalType": "int256",
          "name": "_value",
          "type": "int256"
        },
        {
          "internalType": "uint256",
          "name": "_timestamp",
          "type": "uint256"
        },
        {
          "internalType": "uint256",
          "name": "_statusCode",
          "type": "uint256"
        }
      ],
      "stateMutability": "view",
      "type": "function"
    }
  ],
  "bytecode": "0x60806040523480156200001157600080fd5b5060405162001cce38038062001cce833981016040819052620000349162000082565b600080546001600160a01b039283166001600160a01b03199182161790915560028054939092169216919091179055620000c1565b6001600160a01b03811681146200007f57600080fd5b50565b600080604083850312156200009657600080fd5b8251620000a38162000069565b6020840151909250620000b68162000069565b809150509250929050565b611bfd80620000d16000396000f3fe608060405234801561001057600080fd5b506004361061015f5760003560e01c8063016a7dd4146101645780630ba54df614610182578063193b505b146101ad5780631959ad5b146101c25780631a3cd59a146101d55780631a766fef146101f65780631d7d617f1461021f578063205620811461023257806329449085146102655780632af8aae01461028f57806344e87f91146102a257806351e3aea9146102b55780635f2864b1146102c657806364ee3c6d146102e65780636b2fd9051461030757806377b03e0d146103285780639d17b9c51461033b578063a792765f1461034e578063b6f6869e14610361578063c5958af914610374578063ce5e11bf14610387578063d27eb4731461039a578063d613aede146103af578063e07c5486146103c2578063f534de5b146103d5578063f66f49c3146103e8578063f78eea83146103fb578063fc571a5c14610429578063fcd4a5461461043c575b600080fd5b61016c61045d565b60405161017991906113a0565b60405180910390f35b600254610195906001600160a01b031681565b6040516001600160a01b039091168152602001610179565b6101c06101bb3660046113f9565b6104b5565b005b600054610195906001600160a01b031681565b6101e86101e336600461141d565b6104ed565b604051908152602001610179565b61019561020436600461141d565b6006602052600090815260409020546001600160a01b031681565b6101c061022d366004611436565b610681565b61025561024036600461141d565b60076020526000908152604090205460ff1681565b6040519015158152602001610179565b61027861027336600461146f565b6106c5565b604080519215158352602083019190915201610179565b600154610195906001600160a01b031681565b6102556102b036600461146f565b610744565b6101c06102c33660046114fe565b50565b6102d96102d436600461141d565b6107c1565b60405161017991906115cd565b6102f96102f436600461146f565b61085b565b6040516101799291906115e0565b61031a6103153660046114fe565b6108b4565b604051610179929190611602565b6101e861033636600461141d565b6109a9565b6101e861034936600461141d565b610a17565b6102f961035c36600461146f565b610a38565b6102d961036f36600461162c565b610abe565b6102d961038236600461146f565b610b83565b6101e861039536600461146f565b610bfb565b6101e8600080516020611ba883398151915281565b600454610195906001600160a01b031681565b6101956103d036600461146f565b610c6f565b6101c06103e3366004611673565b610ce3565b6102786103f636600461146f565b610d89565b61040e61040936600461141d565b610f46565b60408051938452602084019290925290820152606001610179565b600354610195906001600160a01b031681565b61044f61044a3660046116fb565b61100b565b60405161017992919061172d565b606060058054806020026020016040519081016040528092919081815260200182805480156104ab57602002820191906000526020600020905b815481526020019060010190808311610497575b5050505050905090565b6001546001600160a01b0316156104cb57600080fd5b600180546001600160a01b0319166001600160a01b0392909216919091179055565b6004546000906001600160a01b031661050557600080fd5b60007f15e1b702c3013cad746078c5fa0edabbf197cdb6d1ecd5f8eb1aac43ea3186288360405160240161053b91815260200190565b60408051601f19818403018152918152602080830180516001600160e01b03166001600160e01b031990951694909417909352600454905191935061058e926001600160a01b03909116918491016117c8565b60408051601f198184030181529082905260025463525ea93760e01b83529092506001600160a01b03169063525ea937906105dd90600080516020611ba88339815191529085906004016117f4565b6020604051808303816000875af11580156105fc573d6000803e3d6000fd5b505050506040513d601f19601f82011682018060405250810190610620919061180d565b6000818152600660205260409081902080546001600160a01b03191633179055519092507fa3034d687625e8075ce08aaa5e7c1fa93f06823b2dab27c2c3acfef6ec5d515f906106739085815260200190565b60405180910390a150919050565b6004546001600160a01b03161561069757600080fd5b600480546001600160a01b039384166001600160a01b03199182161790915560038054929093169116179055565b60008054604051632944908560e01b815282916001600160a01b0316906329449085906106f89087908790600401611826565b6040805180830381865afa158015610714573d6000803e3d6000fd5b505050506040513d601f19601f820116820180604052508101906107389190611834565b915091505b9250929050565b600080546040516344e87f9160e01b81526001600160a01b03909116906344e87f91906107779086908690600401611826565b602060405180830381865afa158015610794573d6000803e3d6000fd5b505050506040513d601f19601f820116820180604052508101906107b89190611862565b90505b92915050565b600860205260009081526040902080546107da9061187f565b80601f01602080910402602001604051908101604052809291908181526020018280546108069061187f565b80156108535780601f1061082857610100808354040283529160200191610853565b820191906000526020600020905b81548152906001019060200180831161083657829003601f168201915b505050505081565b6060600080600061086c8686610d89565b9150915081610893576000604051806020016040528060008152509093509350505061073d565b61089d8682610bfb565b92506108a98684610b83565b935050509250929050565b6003546060906000906001600160a01b031633146108d157600080fd5b60006108dc846112f7565b6000818152600760209081526040808320805460ff191660011790556006825280832054600890925290912080546001600160a01b0390921694509192506109239061187f565b80601f016020809104026020016040519081016040528092919081815260200182805461094f9061187f565b801561099c5780601f106109715761010080835404028352916020019161099c565b820191906000526020600020905b81548152906001019060200180831161097f57829003601f168201915b5050505050925050915091565b600080546040516377b03e0d60e01b8152600481018490526001600160a01b03909116906377b03e0d90602401602060405180830381865afa1580156109f3573d6000803e3d6000fd5b505050506040513d601f19601f820116820180604052508101906107bb919061180d565b60058181548110610a2757600080fd5b600091825260209091200154905081565b6000805460405163a792765f60e01b8152606092916001600160a01b03169063a792765f90610a6d9087908790600401611826565b600060405180830381865afa158015610a8a573d6000803e3d6000fd5b505050506040513d6000823e601f3d908101601f19168201604052610ab291908101906118f8565b90969095509350505050565b60408051602081018490526001600160a01b0383168183015260608082018690528251808303820181526080830190935291600091610b00919060a001611951565b604051602081830303815290604052805190602001209050610b2a8161a8c04261035c91906119a2565b9550915084610b7b5760405162461bcd60e51b81526020600482015260196024820152781d1a5b595cdd185b5c081b5d5cdd081899481c1c995cd95b9d603a1b604482015260640160405180910390fd5b509392505050565b60005460405163c5958af960e01b81526060916001600160a01b03169063c5958af990610bb69086908690600401611826565b600060405180830381865afa158015610bd3573d6000803e3d6000fd5b505050506040513d6000823e601f3d908101601f191682016040526107b891908101906119b5565b6000805460405163ce5e11bf60e01b81526001600160a01b039091169063ce5e11bf90610c2e9086908690600401611826565b602060405180830381865afa158015610c4b573d6000803e3d6000fd5b505050506040513d601f19601f820116820180604052508101906107b8919061180d565b6000805460405163703e2a4360e11b81526001600160a01b039091169063e07c548690610ca29086908690600401611826565b602060405180830381865afa158015610cbf573d6000803e3d6000fd5b505050506040513d601f19601f820116820180604052508101906107b891906119e9565b6002546001600160a01b03163314610cfa57600080fd5b6000848152600860205260409020610d13828483611a55565b50600580546001810182556000919091527f036b6384b5eca791c62761152d0c79bb0604c104a5fb6f4eb0703f3154bb3db0018490556040805185815284151560208201527f5efa0943a541bb99f61278f069cae727623c637832e2fb773d817199c4e96cde910160405180910390a150505050565b6000806000610d97856109a9565b905080600003610dae57600080925092505061073d565b80610db881611b15565b9150600190506000808381610dcd8a83610bfb565b9050888111610de8576000809750975050505050505061073d565b610df28a84610bfb565b905088811115610e0157600094505b8415610eb1576002610e138484611b2c565b610e1d9190611b3f565b9350610e298a85610bfb565b905088811115610e6a576000610e448b6103956001886119a2565b9050898111610e565760009550610e64565b610e616001866119a2565b92505b50610e01565b6000610e7b8b610395876001611b2c565b905089811115610e9e576000955084610e9381611b61565b955050809150610e64565b610ea9856001611b2c565b935050610e01565b610ebb8a82610744565b610ed1576001849750975050505050505061073d565b610edb8a82610744565b8015610ee657508584105b15610f095783610ef581611b61565b945050610f028a85610bfb565b9050610ed1565b8584148015610f1d5750610f1d8a82610744565b15610f34576000809750975050505050505061073d565b6001849750975050505050505061073d565b6001546040516387a475fd60e01b8152600481018390526000918291829182916001600160a01b03909116906387a475fd90602401602060405180830381865afa158015610f98573d6000803e3d6000fd5b505050506040513d601f19601f82011682018060405250810190610fbc919061180d565b90506060610fcf8261035c426001611b2c565b945090506000849003610fef576000806101949450945094505050611004565b6000610ffa8261134f565b955060c893505050505b9193909250565b60608060008061101f886103f6888a6119a2565b9150915081611070576040805160008082526020820190925290611053565b606081526020019060019003908161103e5790505b5060408051600081526020810190915290945092506112ee915050565b600061107c89896106c5565b9093509050826110cf5760408051600080825260208201909252906110b1565b606081526020019060019003908161109c5790505b5060408051600081526020810190915290955093506112ee92505050565b6000806000886001600160401b038111156110ec576110ec611491565b604051908082528060200260200182016040528015611115578160200160208202803683370190505b5090505b888310801561113c57508482611130866001611b2c565b61113a91906119a2565b115b156111a05760006111518d61039585886119a2565b905061115d8d82610744565b61118d578082858151811061117457611174611b7a565b60209081029190910101528361118981611b61565b9450505b8261119781611b61565b93505050611119565b6000836001600160401b038111156111ba576111ba611491565b6040519080825280602002602001820160405280156111ed57816020015b60608152602001906001900390816111d85790505b5090506000846001600160401b0381111561120a5761120a611491565b604051908082528060200260200182016040528015611233578160200160208202803683370190505b50905060005b858110156112e157838161124e6001896119a2565b61125891906119a2565b8151811061126857611268611b7a565b602002602001015182828151811061128257611282611b7a565b6020026020010181815250506112b18f8383815181106112a4576112a4611b7a565b6020026020010151610b83565b8382815181106112c3576112c3611b7a565b602002602001018190525080806112d990611b61565b915050611239565b5090985096505050505050505b94509492505050565b6000805b60208110156113495761130f816008611b90565b83828151811061132157611321611b7a565b01602001516001600160f81b031916901c91909117908061134181611b61565b9150506112fb565b50919050565b6000805b82518110156113495782818151811061136e5761136e611b7a565b016020015160f81c61138283610100611b90565b61138c9190611b2c565b91508061139881611b61565b915050611353565b6020808252825182820181905260009190848201906040850190845b818110156113d8578351835292840192918401916001016113bc565b50909695505050505050565b6001600160a01b03811681146102c357600080fd5b60006020828403121561140b57600080fd5b8135611416816113e4565b9392505050565b60006020828403121561142f57600080fd5b5035919050565b6000806040838503121561144957600080fd5b8235611454816113e4565b91506020830135611464816113e4565b809150509250929050565b6000806040838503121561148257600080fd5b50508035926020909101359150565b634e487b7160e01b600052604160045260246000fd5b604051601f8201601f191681016001600160401b03811182821017156114cf576114cf611491565b604052919050565b60006001600160401b038211156114f0576114f0611491565b50601f01601f191660200190565b60006020828403121561151057600080fd5b81356001600160401b0381111561152657600080fd5b8201601f8101841361153757600080fd5b803561154a611545826114d7565b6114a7565b81815285602083850101111561155f57600080fd5b81602084016020830137600091810160200191909152949350505050565b60005b83811015611598578181015183820152602001611580565b50506000910152565b600081518084526115b981602086016020860161157d565b601f01601f19169290920160200192915050565b6020815260006107b860208301846115a1565b6040815260006115f360408301856115a1565b90508260208301529392505050565b60408152600061161560408301856115a1565b905060018060a01b03831660208301529392505050565b60008060006060848603121561164157600080fd5b8335925060208401359150604084013561165a816113e4565b809150509250925092565b80151581146102c357600080fd5b6000806000806060858703121561168957600080fd5b84359350602085013561169b81611665565b925060408501356001600160401b03808211156116b757600080fd5b818701915087601f8301126116cb57600080fd5b8135818111156116da57600080fd5b8860208285010111156116ec57600080fd5b95989497505060200194505050565b6000806000806080858703121561171157600080fd5b5050823594602084013594506040840135936060013592509050565b6000604082016040835280855180835260608501915060608160051b8601019250602080880160005b8381101561178457605f198887030185526117728683516115a1565b95509382019390820190600101611756565b50508584038187015286518085528782019482019350915060005b828110156117bb5784518452938101939281019260010161179f565b5091979650505050505050565b6001600160a01b03831681526040602082018190526000906117ec908301846115a1565b949350505050565b8281526040602082015260006117ec60408301846115a1565b60006020828403121561181f57600080fd5b5051919050565b918252602082015260400190565b6000806040838503121561184757600080fd5b825161185281611665565b6020939093015192949293505050565b60006020828403121561187457600080fd5b815161141681611665565b600181811c9082168061189357607f821691505b60208210810361134957634e487b7160e01b600052602260045260246000fd5b600082601f8301126118c457600080fd5b81516118d2611545826114d7565b8181528460208386010111156118e757600080fd5b6117ec82602083016020870161157d565b60008060006060848603121561190d57600080fd5b835161191881611665565b60208501519093506001600160401b0381111561193457600080fd5b611940868287016118b3565b925050604084015190509250925092565b60408152601160408201527043726f7373436861696e42616c616e636560781b60608201526080602082015260006107b860808301846115a1565b634e487b7160e01b600052601160045260246000fd5b818103818111156107bb576107bb61198c565b6000602082840312156119c757600080fd5b81516001600160401b038111156119dd57600080fd5b6117ec848285016118b3565b6000602082840312156119fb57600080fd5b8151611416816113e4565b601f821115611a5057600081815260208120601f850160051c81016020861015611a2d5750805b601f850160051c820191505b81811015611a4c57828155600101611a39565b5050505b505050565b6001600160401b03831115611a6c57611a6c611491565b611a8083611a7a835461187f565b83611a06565b6000601f841160018114611ab45760008515611a9c5750838201355b600019600387901b1c1916600186901b178355611b0e565b600083815260209020601f19861690835b82811015611ae55786850135825560209485019460019092019101611ac5565b5086821015611b025760001960f88860031b161c19848701351681555b505060018560011b0183555b5050505050565b600081611b2457611b2461198c565b506000190190565b808201808211156107bb576107bb61198c565b600082611b5c57634e487b7160e01b600052601260045260246000fd5b500490565b600060018201611b7357611b7361198c565b5060010190565b634e487b7160e01b600052603260045260246000fd5b80820281158282048414176107bb576107bb61198c56fe88b6c755140efe88bff94bfafa4a7fdffe226d27d92bd45385bb0cfa90986650a26469706673582212202b54100e6e3057fd21ea66dd8f79d5f523c9495a11c0b3997e49f7cfe521780f64736f6c63430008110033",
  "linkReferences": {},
  "deployedLinkReferences": {}
}