{
  "_format": "hh-sol-artifact-1",
  "contractName": "GnosisAMB",
  "sourceName": "charonAMM/contracts/bridges/GnosisAMB.sol",
  "abi": [
    {
      "inputs": [
        {
          "internalType": "address",
          "name": "_ambBridge",
          "type": "address"
        },
        {
          "internalType": "address payable",
          "name": "_tellor",
          "type": "address"
        }
      ],
      "stateMutability": "nonpayable",
      "type": "constructor"
    },
    {
      "anonymous": false,
      "inputs": [
        {
          "indexed": false,
          "internalType": "bytes32",
          "name": "_messageId",
          "type": "bytes32"
        },
        {
          "indexed": false,
          "internalType": "bool",
          "name": "_status",
          "type": "bool"
        }
      ],
      "name": "InfoRecieved",
      "type": "event"
    },
    {
      "anonymous": false,
      "inputs": [
        {
          "indexed": false,
          "internalType": "uint256",
          "name": "_depositId",
          "type": "uint256"
        }
      ],
      "name": "InfoRequest",
      "type": "event"
    },
    {
      "inputs": [],
      "name": "_requestSelector",
      "outputs": [
        {
          "internalType": "bytes32",
          "name": "",
          "type": "bytes32"
        }
      ],
      "stateMutability": "view",
      "type": "function"
    },
    {
      "inputs": [],
      "name": "ambBridge",
      "outputs": [
        {
          "internalType": "contract IAMB",
          "name": "",
          "type": "address"
        }
      ],
      "stateMutability": "view",
      "type": "function"
    },
    {
      "inputs": [],
      "name": "charon",
      "outputs": [
        {
          "internalType": "address",
          "name": "",
          "type": "address"
        }
      ],
      "stateMutability": "view",
      "type": "function"
    },
    {
      "inputs": [],
      "name": "connectedCharon",
      "outputs": [
        {
          "internalType": "address",
          "name": "",
          "type": "address"
        }
      ],
      "stateMutability": "view",
      "type": "function"
    },
    {
      "inputs": [
        {
          "internalType": "bytes32",
          "name": "",
          "type": "bytes32"
        }
      ],
      "name": "didPush",
      "outputs": [
        {
          "internalType": "bool",
          "name": "",
          "type": "bool"
        }
      ],
      "stateMutability": "view",
      "type": "function"
    },
    {
      "inputs": [
        {
          "internalType": "bytes",
          "name": "_inputData",
          "type": "bytes"
        }
      ],
      "name": "getCommitment",
      "outputs": [
        {
          "internalType": "bytes",
          "name": "_value",
          "type": "bytes"
        },
        {
          "internalType": "address",
          "name": "_caller",
          "type": "address"
        }
      ],
      "stateMutability": "nonpayable",
      "type": "function"
    },
    {
      "inputs": [
        {
          "internalType": "bytes32",
          "name": "_queryId",
          "type": "bytes32"
        },
        {
          "internalType": "uint256",
          "name": "_timestamp",
          "type": "uint256"
        }
      ],
      "name": "getDataAfter",
      "outputs": [
        {
          "internalType": "bytes",
          "name": "_value",
          "type": "bytes"
        },
        {
          "internalType": "uint256",
          "name": "_timestampRetrieved",
          "type": "uint256"
        }
      ],
      "stateMutability": "view",
      "type": "function"
    },
    {
      "inputs": [
        {
          "internalType": "bytes32",
          "name": "_queryId",
          "type": "bytes32"
        },
        {
          "internalType": "uint256",
          "name": "_timestamp",
          "type": "uint256"
        }
      ],
      "name": "getDataBefore",
      "outputs": [
        {
          "internalType": "bytes",
          "name": "_value",
          "type": "bytes"
        },
        {
          "internalType": "uint256",
          "name": "_timestampRetrieved",
          "type": "uint256"
        }
      ],
      "stateMutability": "view",
      "type": "function"
    },
    {
      "inputs": [
        {
          "internalType": "bytes32",
          "name": "_queryId",
          "type": "bytes32"
        },
        {
          "internalType": "uint256",
          "name": "_timestamp",
          "type": "uint256"
        }
      ],
      "name": "getIndexForDataAfter",
      "outputs": [
        {
          "internalType": "bool",
          "name": "_found",
          "type": "bool"
        },
        {
          "internalType": "uint256",
          "name": "_index",
          "type": "uint256"
        }
      ],
      "stateMutability": "view",
      "type": "function"
    },
    {
      "inputs": [
        {
          "internalType": "bytes32",
          "name": "_queryId",
          "type": "bytes32"
        },
        {
          "internalType": "uint256",
          "name": "_timestamp",
          "type": "uint256"
        }
      ],
      "name": "getIndexForDataBefore",
      "outputs": [
        {
          "internalType": "bool",
          "name": "_found",
          "type": "bool"
        },
        {
          "internalType": "uint256",
          "name": "_index",
          "type": "uint256"
        }
      ],
      "stateMutability": "view",
      "type": "function"
    },
    {
      "inputs": [
        {
          "internalType": "uint256",
          "name": "_depositId",
          "type": "uint256"
        }
      ],
      "name": "getInfo",
      "outputs": [
        {
          "internalType": "bytes32",
          "name": "_messageId",
          "type": "bytes32"
        }
      ],
      "stateMutability": "nonpayable",
      "type": "function"
    },
    {
      "inputs": [],
      "name": "getMessageIds",
      "outputs": [
        {
          "internalType": "bytes32[]",
          "name": "",
          "type": "bytes32[]"
        }
      ],
      "stateMutability": "view",
      "type": "function"
    },
    {
      "inputs": [
        {
          "internalType": "bytes32",
          "name": "_queryId",
          "type": "bytes32"
        },
        {
          "internalType": "uint256",
          "name": "_timestamp",
          "type": "uint256"
        },
        {
          "internalType": "uint256",
          "name": "_maxAge",
          "type": "uint256"
        },
        {
          "internalType": "uint256",
          "name": "_maxCount",
          "type": "uint256"
        }
      ],
      "name": "getMultipleValuesBefore",
      "outputs": [
        {
          "internalType": "bytes[]",
          "name": "_values",
          "type": "bytes[]"
        },
        {
          "internalType": "uint256[]",
          "name": "_timestamps",
          "type": "uint256[]"
        }
      ],
      "stateMutability": "view",
      "type": "function"
    },
    {
      "inputs": [
        {
          "internalType": "bytes32",
          "name": "_queryId",
          "type": "bytes32"
        }
      ],
      "name": "getNewValueCountbyQueryId",
      "outputs": [
        {
          "internalType": "uint256",
          "name": "",
          "type": "uint256"
        }
      ],
      "stateMutability": "view",
      "type": "function"
    },
    {
      "inputs": [
        {
          "internalType": "bytes32",
          "name": "_queryId",
          "type": "bytes32"
        },
        {
          "internalType": "uint256",
          "name": "_timestamp",
          "type": "uint256"
        }
      ],
      "name": "getReporterByTimestamp",
      "outputs": [
        {
          "internalType": "address",
          "name": "",
          "type": "address"
        }
      ],
      "stateMutability": "view",
      "type": "function"
    },
    {
      "inputs": [
        {
          "internalType": "uint256",
          "name": "_timestamp",
          "type": "uint256"
        },
        {
          "internalType": "uint256",
          "name": "_chainID",
          "type": "uint256"
        },
        {
          "internalType": "address",
          "name": "_address",
          "type": "address"
        }
      ],
      "name": "getRootHashAndSupply",
      "outputs": [
        {
          "internalType": "bytes",
          "name": "_value",
          "type": "bytes"
        }
      ],
      "stateMutability": "view",
      "type": "function"
    },
    {
      "inputs": [
        {
          "internalType": "bytes32",
          "name": "_queryId",
          "type": "bytes32"
        },
        {
          "internalType": "uint256",
          "name": "_index",
          "type": "uint256"
        }
      ],
      "name": "getTimestampbyQueryIdandIndex",
      "outputs": [
        {
          "internalType": "uint256",
          "name": "",
          "type": "uint256"
        }
      ],
      "stateMutability": "view",
      "type": "function"
    },
    {
      "inputs": [],
      "name": "idMappingContract",
      "outputs": [
        {
          "internalType": "contract IMappingContract",
          "name": "",
          "type": "address"
        }
      ],
      "stateMutability": "view",
      "type": "function"
    },
    {
      "inputs": [
        {
          "internalType": "bytes32",
          "name": "",
          "type": "bytes32"
        }
      ],
      "name": "idToCaller",
      "outputs": [
        {
          "internalType": "address",
          "name": "",
          "type": "address"
        }
      ],
      "stateMutability": "view",
      "type": "function"
    },
    {
      "inputs": [
        {
          "internalType": "bytes32",
          "name": "_queryId",
          "type": "bytes32"
        },
        {
          "internalType": "uint256",
          "name": "_timestamp",
          "type": "uint256"
        }
      ],
      "name": "isInDispute",
      "outputs": [
        {
          "internalType": "bool",
          "name": "",
          "type": "bool"
        }
      ],
      "stateMutability": "view",
      "type": "function"
    },
    {
      "inputs": [
        {
          "internalType": "bytes32",
          "name": "",
          "type": "bytes32"
        }
      ],
      "name": "messageIdToData",
      "outputs": [
        {
          "internalType": "bytes",
          "name": "",
          "type": "bytes"
        }
      ],
      "stateMutability": "view",
      "type": "function"
    },
    {
      "inputs": [
        {
          "internalType": "uint256",
          "name": "",
          "type": "uint256"
        }
      ],
      "name": "messageIds",
      "outputs": [
        {
          "internalType": "bytes32",
          "name": "",
          "type": "bytes32"
        }
      ],
      "stateMutability": "view",
      "type": "function"
    },
    {
      "inputs": [
        {
          "internalType": "bytes32",
          "name": "messageId",
          "type": "bytes32"
        },
        {
          "internalType": "bool",
          "name": "status",
          "type": "bool"
        },
        {
          "internalType": "bytes",
          "name": "result",
          "type": "bytes"
        }
      ],
      "name": "onInformationReceived",
      "outputs": [],
      "stateMutability": "nonpayable",
      "type": "function"
    },
    {
      "inputs": [
        {
          "internalType": "bytes32",
          "name": "_queryId",
          "type": "bytes32"
        },
        {
          "internalType": "uint256",
          "name": "_timestamp",
          "type": "uint256"
        }
      ],
      "name": "retrieveData",
      "outputs": [
        {
          "internalType": "bytes",
          "name": "",
          "type": "bytes"
        }
      ],
      "stateMutability": "view",
      "type": "function"
    },
    {
      "inputs": [
        {
          "internalType": "bytes",
          "name": "_data",
          "type": "bytes"
        }
      ],
      "name": "sendCommitment",
      "outputs": [],
      "stateMutability": "nonpayable",
      "type": "function"
    },
    {
      "inputs": [
        {
          "internalType": "address",
          "name": "_connectedCharon",
          "type": "address"
        },
        {
          "internalType": "address",
          "name": "_charon",
          "type": "address"
        }
      ],
      "name": "setCharon",
      "outputs": [],
      "stateMutability": "nonpayable",
      "type": "function"
    },
    {
      "inputs": [
        {
          "internalType": "address",
          "name": "_addy",
          "type": "address"
        }
      ],
      "name": "setIdMappingContract",
      "outputs": [],
      "stateMutability": "nonpayable",
      "type": "function"
    },
    {
      "inputs": [],
      "name": "tellor",
      "outputs": [
        {
          "internalType": "contract ITellor",
          "name": "",
          "type": "address"
        }
      ],
      "stateMutability": "view",
      "type": "function"
    },
    {
      "inputs": [
        {
          "internalType": "bytes32",
          "name": "_id",
          "type": "bytes32"
        }
      ],
      "name": "valueFor",
      "outputs": [
        {
          "internalType": "int256",
          "name": "_value",
          "type": "int256"
        },
        {
          "internalType": "uint256",
          "name": "_timestamp",
          "type": "uint256"
        },
        {
          "internalType": "uint256",
          "name": "_statusCode",
          "type": "uint256"
        }
      ],
      "stateMutability": "view",
      "type": "function"
    }
  ],
  "bytecode": "0x60806040523480156200001157600080fd5b5060405162001d4838038062001d48833981016040819052620000349162000082565b600080546001600160a01b039283166001600160a01b03199182161790915560028054939092169216919091179055620000c1565b6001600160a01b03811681146200007f57600080fd5b50565b600080604083850312156200009657600080fd5b8251620000a38162000069565b6020840151909250620000b68162000069565b809150509250929050565b611c7780620000d16000396000f3fe608060405234801561001057600080fd5b50600436106101cf5760003560e01c80636b2fd90511610104578063d27eb473116100a2578063f66f49c311610071578063f66f49c31461046a578063f78eea831461047d578063fc571a5c146104ab578063fcd4a546146104be57600080fd5b8063d27eb4731461040a578063d613aede14610431578063e07c548614610444578063f534de5b1461045757600080fd5b8063a792765f116100de578063a792765f146103be578063b6f6869e146103d1578063c5958af9146103e4578063ce5e11bf146103f757600080fd5b80636b2fd9051461037757806377b03e0d146103985780639d17b9c5146103ab57600080fd5b8063205620811161017157806344e87f911161014b57806344e87f911461031257806351e3aea9146103255780635f2864b11461033657806364ee3c6d1461035657600080fd5b806320562081146102a257806329449085146102d55780632af8aae0146102ff57600080fd5b80631959ad5b116101ad5780631959ad5b146102325780631a3cd59a146102455780631a766fef146102665780631d7d617f1461028f57600080fd5b8063016a7dd4146101d45780630ba54df6146101f2578063193b505b1461021d575b600080fd5b6101dc6104df565b6040516101e99190611441565b60405180910390f35b600254610205906001600160a01b031681565b6040516001600160a01b0390911681526020016101e9565b61023061022b36600461149a565b610537565b005b600054610205906001600160a01b031681565b6102586102533660046114be565b61056f565b6040519081526020016101e9565b6102056102743660046114be565b6006602052600090815260409020546001600160a01b031681565b61023061029d3660046114d7565b610715565b6102c56102b03660046114be565b60076020526000908152604090205460ff1681565b60405190151581526020016101e9565b6102e86102e3366004611510565b610759565b6040805192151583526020830191909152016101e9565b600154610205906001600160a01b031681565b6102c5610320366004611510565b6107d9565b6102306103333660046115a1565b50565b6103496103443660046114be565b610857565b6040516101e99190611671565b610369610364366004611510565b6108f1565b6040516101e9929190611684565b61038a6103853660046115a1565b61094a565b6040516101e99291906116a6565b6102586103a63660046114be565b610a3f565b6102586103b93660046114be565b610aad565b6103696103cc366004611510565b610ace565b6103496103df3660046116d0565b610b55565b6103496103f2366004611510565b610c1e565b610258610405366004611510565b610c97565b6102587f88b6c755140efe88bff94bfafa4a7fdffe226d27d92bd45385bb0cfa9098665081565b600454610205906001600160a01b031681565b610205610452366004611510565b610d0c565b610230610465366004611717565b610d81565b6102e8610478366004611510565b610e27565b61049061048b3660046114be565b610fe4565b604080519384526020840192909252908201526060016101e9565b600354610205906001600160a01b031681565b6104d16104cc3660046117a0565b6110a9565b6040516101e99291906117d2565b6060600580548060200260200160405190810160405280929190818152602001828054801561052d57602002820191906000526020600020905b815481526020019060010190808311610519575b5050505050905090565b6001546001600160a01b03161561054d57600080fd5b600180546001600160a01b0319166001600160a01b0392909216919091179055565b6004546000906001600160a01b031661058757600080fd5b60007f15e1b702c3013cad746078c5fa0edabbf197cdb6d1ecd5f8eb1aac43ea318628836040516024016105bd91815260200190565b60408051601f19818403018152918152602080830180516001600160e01b03166001600160e01b0319909516949094179093526004549051919350610610926001600160a01b039091169184910161186d565b60408051601f198184030181529082905260025463525ea93760e01b83529092506001600160a01b03169063525ea93790610671907f88b6c755140efe88bff94bfafa4a7fdffe226d27d92bd45385bb0cfa90986650908590600401611899565b6020604051808303816000875af1158015610690573d6000803e3d6000fd5b505050506040513d601f19601f820116820180604052508101906106b491906118b2565b6000818152600660205260409081902080546001600160a01b03191633179055519092507fa3034d687625e8075ce08aaa5e7c1fa93f06823b2dab27c2c3acfef6ec5d515f906107079085815260200190565b60405180910390a150919050565b6004546001600160a01b03161561072b57600080fd5b600480546001600160a01b039384166001600160a01b03199182161790915560038054929093169116179055565b60008054604051632944908560e01b8152600481018590526024810184905282916001600160a01b0316906329449085906044016040805180830381865afa1580156107a9573d6000803e3d6000fd5b505050506040513d601f19601f820116820180604052508101906107cd91906118cb565b915091505b9250929050565b600080546040516344e87f9160e01b815260048101859052602481018490526001600160a01b03909116906344e87f9190604401602060405180830381865afa15801561082a573d6000803e3d6000fd5b505050506040513d601f19601f8201168201806040525081019061084e91906118f9565b90505b92915050565b6008602052600090815260409020805461087090611916565b80601f016020809104026020016040519081016040528092919081815260200182805461089c90611916565b80156108e95780601f106108be576101008083540402835291602001916108e9565b820191906000526020600020905b8154815290600101906020018083116108cc57829003601f168201915b505050505081565b606060008060006109028686610e27565b915091508161092957600060405180602001604052806000815250909350935050506107d2565b6109338682610c97565b925061093f8684610c1e565b935050509250929050565b6003546060906000906001600160a01b0316331461096757600080fd5b600061097284611398565b6000818152600760209081526040808320805460ff191660011790556006825280832054600890925290912080546001600160a01b0390921694509192506109b990611916565b80601f01602080910402602001604051908101604052809291908181526020018280546109e590611916565b8015610a325780601f10610a0757610100808354040283529160200191610a32565b820191906000526020600020905b815481529060010190602001808311610a1557829003601f168201915b5050505050925050915091565b600080546040516377b03e0d60e01b8152600481018490526001600160a01b03909116906377b03e0d90602401602060405180830381865afa158015610a89573d6000803e3d6000fd5b505050506040513d601f19601f8201168201806040525081019061085191906118b2565b60058181548110610abd57600080fd5b600091825260209091200154905081565b6000805460405163a792765f60e01b81526004810185905260248101849052606092916001600160a01b03169063a792765f90604401600060405180830381865afa158015610b21573d6000803e3d6000fd5b505050506040513d6000823e601f3d908101601f19168201604052610b49919081019061198f565b90969095509350505050565b60408051602081018490526001600160a01b0383168183015260608082018690528251808303820181526080830190935291600091610b97919060a0016119e9565b604051602081830303815290604052805190602001209050610bc18161a8c0426103cc9190611a3a565b9550915084610c165760405162461bcd60e51b815260206004820152601960248201527f74696d657374616d70206d7573742062652070726573656e7400000000000000604482015260640160405180910390fd5b509392505050565b60005460405163c5958af960e01b815260048101849052602481018390526060916001600160a01b03169063c5958af990604401600060405180830381865afa158015610c6f573d6000803e3d6000fd5b505050506040513d6000823e601f3d908101601f1916820160405261084e9190810190611a4d565b6000805460405163ce5e11bf60e01b815260048101859052602481018490526001600160a01b039091169063ce5e11bf90604401602060405180830381865afa158015610ce8573d6000803e3d6000fd5b505050506040513d601f19601f8201168201806040525081019061084e91906118b2565b6000805460405163703e2a4360e11b815260048101859052602481018490526001600160a01b039091169063e07c548690604401602060405180830381865afa158015610d5d573d6000803e3d6000fd5b505050506040513d601f19601f8201168201806040525081019061084e9190611a82565b6002546001600160a01b03163314610d9857600080fd5b6000848152600860205260409020610db1828483611aee565b50600580546001810182556000919091527f036b6384b5eca791c62761152d0c79bb0604c104a5fb6f4eb0703f3154bb3db0018490556040805185815284151560208201527f5efa0943a541bb99f61278f069cae727623c637832e2fb773d817199c4e96cde910160405180910390a150505050565b6000806000610e3585610a3f565b905080600003610e4c5760008092509250506107d2565b80610e5681611baf565b9150600190506000808381610e6b8a83610c97565b9050888111610e8657600080975097505050505050506107d2565b610e908a84610c97565b905088811115610e9f57600094505b8415610f4f576002610eb18484611bc6565b610ebb9190611bd9565b9350610ec78a85610c97565b905088811115610f08576000610ee28b610405600188611a3a565b9050898111610ef45760009550610f02565b610eff600186611a3a565b92505b50610e9f565b6000610f198b610405876001611bc6565b905089811115610f3c576000955084610f3181611bfb565b955050809150610f02565b610f47856001611bc6565b935050610e9f565b610f598a826107d9565b610f6f57600184975097505050505050506107d2565b610f798a826107d9565b8015610f8457508584105b15610fa75783610f9381611bfb565b945050610fa08a85610c97565b9050610f6f565b8584148015610fbb5750610fbb8a826107d9565b15610fd257600080975097505050505050506107d2565b600184975097505050505050506107d2565b6001546040516387a475fd60e01b8152600481018390526000918291829182916001600160a01b03909116906387a475fd90602401602060405180830381865afa158015611036573d6000803e3d6000fd5b505050506040513d601f19601f8201168201806040525081019061105a91906118b2565b9050606061106d826103cc426001611bc6565b94509050600084900361108d5760008061019494509450945050506110a2565b6000611098826113f0565b955060c893505050505b9193909250565b6060806000806110bd88610478888a611a3a565b915091508161110e5760408051600080825260208201909252906110f1565b60608152602001906001900390816110dc5790505b50604080516000815260208101909152909450925061138f915050565b600061111a8989610759565b90935090508261116d57604080516000808252602082019092529061114f565b606081526020019060019003908161113a5790505b50604080516000815260208101909152909550935061138f92505050565b60008060008867ffffffffffffffff81111561118b5761118b611532565b6040519080825280602002602001820160405280156111b4578160200160208202803683370190505b5090505b88831080156111db575084826111cf866001611bc6565b6111d99190611a3a565b115b1561123f5760006111f08d6104058588611a3a565b90506111fc8d826107d9565b61122c578082858151811061121357611213611c14565b60209081029190910101528361122881611bfb565b9450505b8261123681611bfb565b935050506111b8565b60008367ffffffffffffffff81111561125a5761125a611532565b60405190808252806020026020018201604052801561128d57816020015b60608152602001906001900390816112785790505b50905060008467ffffffffffffffff8111156112ab576112ab611532565b6040519080825280602002602001820160405280156112d4578160200160208202803683370190505b50905060005b858110156113825783816112ef600189611a3a565b6112f99190611a3a565b8151811061130957611309611c14565b602002602001015182828151811061132357611323611c14565b6020026020010181815250506113528f83838151811061134557611345611c14565b6020026020010151610c1e565b83828151811061136457611364611c14565b6020026020010181905250808061137a90611bfb565b9150506112da565b5090985096505050505050505b94509492505050565b6000805b60208110156113ea576113b0816008611c2a565b8382815181106113c2576113c2611c14565b01602001516001600160f81b031916901c9190911790806113e281611bfb565b91505061139c565b50919050565b6000805b82518110156113ea5782818151811061140f5761140f611c14565b016020015160f81c61142383610100611c2a565b61142d9190611bc6565b91508061143981611bfb565b9150506113f4565b6020808252825182820181905260009190848201906040850190845b818110156114795783518352928401929184019160010161145d565b50909695505050505050565b6001600160a01b038116811461033357600080fd5b6000602082840312156114ac57600080fd5b81356114b781611485565b9392505050565b6000602082840312156114d057600080fd5b5035919050565b600080604083850312156114ea57600080fd5b82356114f581611485565b9150602083013561150581611485565b809150509250929050565b6000806040838503121561152357600080fd5b50508035926020909101359150565b634e487b7160e01b600052604160045260246000fd5b604051601f8201601f1916810167ffffffffffffffff8111828210171561157157611571611532565b604052919050565b600067ffffffffffffffff82111561159357611593611532565b50601f01601f191660200190565b6000602082840312156115b357600080fd5b813567ffffffffffffffff8111156115ca57600080fd5b8201601f810184136115db57600080fd5b80356115ee6115e982611579565b611548565b81815285602083850101111561160357600080fd5b81602084016020830137600091810160200191909152949350505050565b60005b8381101561163c578181015183820152602001611624565b50506000910152565b6000815180845261165d816020860160208601611621565b601f01601f19169290920160200192915050565b60208152600061084e6020830184611645565b6040815260006116976040830185611645565b90508260208301529392505050565b6040815260006116b96040830185611645565b905060018060a01b03831660208301529392505050565b6000806000606084860312156116e557600080fd5b833592506020840135915060408401356116fe81611485565b809150509250925092565b801515811461033357600080fd5b6000806000806060858703121561172d57600080fd5b84359350602085013561173f81611709565b9250604085013567ffffffffffffffff8082111561175c57600080fd5b818701915087601f83011261177057600080fd5b81358181111561177f57600080fd5b88602082850101111561179157600080fd5b95989497505060200194505050565b600080600080608085870312156117b657600080fd5b5050823594602084013594506040840135936060013592509050565b6000604082016040835280855180835260608501915060608160051b8601019250602080880160005b8381101561182957605f19888703018552611817868351611645565b955093820193908201906001016117fb565b50508584038187015286518085528782019482019350915060005b8281101561186057845184529381019392810192600101611844565b5091979650505050505050565b6001600160a01b038316815260406020820181905260009061189190830184611645565b949350505050565b8281526040602082015260006118916040830184611645565b6000602082840312156118c457600080fd5b5051919050565b600080604083850312156118de57600080fd5b82516118e981611709565b6020939093015192949293505050565b60006020828403121561190b57600080fd5b81516114b781611709565b600181811c9082168061192a57607f821691505b6020821081036113ea57634e487b7160e01b600052602260045260246000fd5b600082601f83011261195b57600080fd5b81516119696115e982611579565b81815284602083860101111561197e57600080fd5b611891826020830160208701611621565b6000806000606084860312156119a457600080fd5b83516119af81611709565b602085015190935067ffffffffffffffff8111156119cc57600080fd5b6119d88682870161194a565b925050604084015190509250925092565b60408152601160408201527043726f7373436861696e42616c616e636560781b606082015260806020820152600061084e6080830184611645565b634e487b7160e01b600052601160045260246000fd5b8181038181111561085157610851611a24565b600060208284031215611a5f57600080fd5b815167ffffffffffffffff811115611a7657600080fd5b6118918482850161194a565b600060208284031215611a9457600080fd5b81516114b781611485565b601f821115611ae957600081815260208120601f850160051c81016020861015611ac65750805b601f850160051c820191505b81811015611ae557828155600101611ad2565b5050505b505050565b67ffffffffffffffff831115611b0657611b06611532565b611b1a83611b148354611916565b83611a9f565b6000601f841160018114611b4e5760008515611b365750838201355b600019600387901b1c1916600186901b178355611ba8565b600083815260209020601f19861690835b82811015611b7f5786850135825560209485019460019092019101611b5f565b5086821015611b9c5760001960f88860031b161c19848701351681555b505060018560011b0183555b5050505050565b600081611bbe57611bbe611a24565b506000190190565b8082018082111561085157610851611a24565b600082611bf657634e487b7160e01b600052601260045260246000fd5b500490565b600060018201611c0d57611c0d611a24565b5060010190565b634e487b7160e01b600052603260045260246000fd5b808202811582820484141761085157610851611a2456fea2646970667358221220e2423edee17e90999fcf3a403155aaf77180accf7bb4ebc8884b9073e217d02c64736f6c63430008110033",
  "linkReferences": {},
  "deployedLinkReferences": {}
}