{
  "_format": "hh-sol-artifact-1",
  "contractName": "GnosisAMB",
  "sourceName": "charonAMM/contracts/bridges/GnosisAMB.sol",
  "abi": [
    {
      "inputs": [
        {
          "internalType": "address",
          "name": "_ambBridge",
          "type": "address"
        },
        {
          "internalType": "address payable",
          "name": "_tellor",
          "type": "address"
        }
      ],
      "stateMutability": "nonpayable",
      "type": "constructor"
    },
    {
      "anonymous": false,
      "inputs": [
        {
          "indexed": false,
          "internalType": "bytes32",
          "name": "_messageId",
          "type": "bytes32"
        },
        {
          "indexed": false,
          "internalType": "bool",
          "name": "_status",
          "type": "bool"
        }
      ],
      "name": "InfoRecieved",
      "type": "event"
    },
    {
      "inputs": [],
      "name": "_requestSelector",
      "outputs": [
        {
          "internalType": "bytes32",
          "name": "",
          "type": "bytes32"
        }
      ],
      "stateMutability": "view",
      "type": "function"
    },
    {
      "inputs": [],
      "name": "ambBridge",
      "outputs": [
        {
          "internalType": "contract IAMB",
          "name": "",
          "type": "address"
        }
      ],
      "stateMutability": "view",
      "type": "function"
    },
    {
      "inputs": [
        {
          "internalType": "bytes32",
          "name": "",
          "type": "bytes32"
        }
      ],
      "name": "didPush",
      "outputs": [
        {
          "internalType": "bool",
          "name": "",
          "type": "bool"
        }
      ],
      "stateMutability": "view",
      "type": "function"
    },
    {
      "inputs": [
        {
          "internalType": "bytes",
          "name": "_inputData",
          "type": "bytes"
        }
      ],
      "name": "getCommitment",
      "outputs": [
        {
          "internalType": "bytes",
          "name": "_value",
          "type": "bytes"
        }
      ],
      "stateMutability": "nonpayable",
      "type": "function"
    },
    {
      "inputs": [
        {
          "internalType": "bytes32",
          "name": "_queryId",
          "type": "bytes32"
        },
        {
          "internalType": "uint256",
          "name": "_timestamp",
          "type": "uint256"
        }
      ],
      "name": "getDataAfter",
      "outputs": [
        {
          "internalType": "bytes",
          "name": "_value",
          "type": "bytes"
        },
        {
          "internalType": "uint256",
          "name": "_timestampRetrieved",
          "type": "uint256"
        }
      ],
      "stateMutability": "view",
      "type": "function"
    },
    {
      "inputs": [
        {
          "internalType": "bytes32",
          "name": "_queryId",
          "type": "bytes32"
        },
        {
          "internalType": "uint256",
          "name": "_timestamp",
          "type": "uint256"
        }
      ],
      "name": "getDataBefore",
      "outputs": [
        {
          "internalType": "bytes",
          "name": "_value",
          "type": "bytes"
        },
        {
          "internalType": "uint256",
          "name": "_timestampRetrieved",
          "type": "uint256"
        }
      ],
      "stateMutability": "view",
      "type": "function"
    },
    {
      "inputs": [
        {
          "internalType": "bytes32",
          "name": "_queryId",
          "type": "bytes32"
        },
        {
          "internalType": "uint256",
          "name": "_timestamp",
          "type": "uint256"
        }
      ],
      "name": "getIndexForDataAfter",
      "outputs": [
        {
          "internalType": "bool",
          "name": "_found",
          "type": "bool"
        },
        {
          "internalType": "uint256",
          "name": "_index",
          "type": "uint256"
        }
      ],
      "stateMutability": "view",
      "type": "function"
    },
    {
      "inputs": [
        {
          "internalType": "bytes32",
          "name": "_queryId",
          "type": "bytes32"
        },
        {
          "internalType": "uint256",
          "name": "_timestamp",
          "type": "uint256"
        }
      ],
      "name": "getIndexForDataBefore",
      "outputs": [
        {
          "internalType": "bool",
          "name": "_found",
          "type": "bool"
        },
        {
          "internalType": "uint256",
          "name": "_index",
          "type": "uint256"
        }
      ],
      "stateMutability": "view",
      "type": "function"
    },
    {
      "inputs": [
        {
          "internalType": "bytes",
          "name": "_data",
          "type": "bytes"
        }
      ],
      "name": "getInfo",
      "outputs": [
        {
          "internalType": "bytes32",
          "name": "",
          "type": "bytes32"
        }
      ],
      "stateMutability": "nonpayable",
      "type": "function"
    },
    {
      "inputs": [],
      "name": "getMessageIds",
      "outputs": [
        {
          "internalType": "bytes32[]",
          "name": "",
          "type": "bytes32[]"
        }
      ],
      "stateMutability": "view",
      "type": "function"
    },
    {
      "inputs": [
        {
          "internalType": "bytes32",
          "name": "_queryId",
          "type": "bytes32"
        },
        {
          "internalType": "uint256",
          "name": "_timestamp",
          "type": "uint256"
        },
        {
          "internalType": "uint256",
          "name": "_maxAge",
          "type": "uint256"
        },
        {
          "internalType": "uint256",
          "name": "_maxCount",
          "type": "uint256"
        }
      ],
      "name": "getMultipleValuesBefore",
      "outputs": [
        {
          "internalType": "bytes[]",
          "name": "_values",
          "type": "bytes[]"
        },
        {
          "internalType": "uint256[]",
          "name": "_timestamps",
          "type": "uint256[]"
        }
      ],
      "stateMutability": "view",
      "type": "function"
    },
    {
      "inputs": [
        {
          "internalType": "bytes32",
          "name": "_queryId",
          "type": "bytes32"
        }
      ],
      "name": "getNewValueCountbyQueryId",
      "outputs": [
        {
          "internalType": "uint256",
          "name": "",
          "type": "uint256"
        }
      ],
      "stateMutability": "view",
      "type": "function"
    },
    {
      "inputs": [
        {
          "internalType": "bytes32",
          "name": "_queryId",
          "type": "bytes32"
        },
        {
          "internalType": "uint256",
          "name": "_timestamp",
          "type": "uint256"
        }
      ],
      "name": "getReporterByTimestamp",
      "outputs": [
        {
          "internalType": "address",
          "name": "",
          "type": "address"
        }
      ],
      "stateMutability": "view",
      "type": "function"
    },
    {
      "inputs": [
        {
          "internalType": "uint256",
          "name": "_timestamp",
          "type": "uint256"
        },
        {
          "internalType": "uint256",
          "name": "_chainID",
          "type": "uint256"
        },
        {
          "internalType": "address",
          "name": "_address",
          "type": "address"
        }
      ],
      "name": "getRootHashAndSupply",
      "outputs": [
        {
          "internalType": "bytes",
          "name": "_value",
          "type": "bytes"
        }
      ],
      "stateMutability": "view",
      "type": "function"
    },
    {
      "inputs": [
        {
          "internalType": "bytes32",
          "name": "_queryId",
          "type": "bytes32"
        },
        {
          "internalType": "uint256",
          "name": "_index",
          "type": "uint256"
        }
      ],
      "name": "getTimestampbyQueryIdandIndex",
      "outputs": [
        {
          "internalType": "uint256",
          "name": "",
          "type": "uint256"
        }
      ],
      "stateMutability": "view",
      "type": "function"
    },
    {
      "inputs": [],
      "name": "idMappingContract",
      "outputs": [
        {
          "internalType": "contract IMappingContract",
          "name": "",
          "type": "address"
        }
      ],
      "stateMutability": "view",
      "type": "function"
    },
    {
      "inputs": [
        {
          "internalType": "bytes32",
          "name": "_queryId",
          "type": "bytes32"
        },
        {
          "internalType": "uint256",
          "name": "_timestamp",
          "type": "uint256"
        }
      ],
      "name": "isInDispute",
      "outputs": [
        {
          "internalType": "bool",
          "name": "",
          "type": "bool"
        }
      ],
      "stateMutability": "view",
      "type": "function"
    },
    {
      "inputs": [
        {
          "internalType": "bytes32",
          "name": "",
          "type": "bytes32"
        }
      ],
      "name": "messageIdToData",
      "outputs": [
        {
          "internalType": "bytes",
          "name": "",
          "type": "bytes"
        }
      ],
      "stateMutability": "view",
      "type": "function"
    },
    {
      "inputs": [
        {
          "internalType": "uint256",
          "name": "",
          "type": "uint256"
        }
      ],
      "name": "messageIds",
      "outputs": [
        {
          "internalType": "bytes32",
          "name": "",
          "type": "bytes32"
        }
      ],
      "stateMutability": "view",
      "type": "function"
    },
    {
      "inputs": [
        {
          "internalType": "bytes32",
          "name": "messageId",
          "type": "bytes32"
        },
        {
          "internalType": "bool",
          "name": "status",
          "type": "bool"
        },
        {
          "internalType": "bytes",
          "name": "result",
          "type": "bytes"
        }
      ],
      "name": "onInformationReceived",
      "outputs": [],
      "stateMutability": "nonpayable",
      "type": "function"
    },
    {
      "inputs": [
        {
          "internalType": "bytes32",
          "name": "_queryId",
          "type": "bytes32"
        },
        {
          "internalType": "uint256",
          "name": "_timestamp",
          "type": "uint256"
        }
      ],
      "name": "retrieveData",
      "outputs": [
        {
          "internalType": "bytes",
          "name": "",
          "type": "bytes"
        }
      ],
      "stateMutability": "view",
      "type": "function"
    },
    {
      "inputs": [
        {
          "internalType": "bytes",
          "name": "_data",
          "type": "bytes"
        }
      ],
      "name": "sendCommitment",
      "outputs": [],
      "stateMutability": "nonpayable",
      "type": "function"
    },
    {
      "inputs": [
        {
          "internalType": "address",
          "name": "_addy",
          "type": "address"
        }
      ],
      "name": "setIdMappingContract",
      "outputs": [],
      "stateMutability": "nonpayable",
      "type": "function"
    },
    {
      "inputs": [],
      "name": "tellor",
      "outputs": [
        {
          "internalType": "contract ITellor",
          "name": "",
          "type": "address"
        }
      ],
      "stateMutability": "view",
      "type": "function"
    },
    {
      "inputs": [
        {
          "internalType": "bytes32",
          "name": "_id",
          "type": "bytes32"
        }
      ],
      "name": "valueFor",
      "outputs": [
        {
          "internalType": "int256",
          "name": "_value",
          "type": "int256"
        },
        {
          "internalType": "uint256",
          "name": "_timestamp",
          "type": "uint256"
        },
        {
          "internalType": "uint256",
          "name": "_statusCode",
          "type": "uint256"
        }
      ],
      "stateMutability": "view",
      "type": "function"
    }
  ],
  "bytecode": "0x60806040523480156200001157600080fd5b5060405162001a6b38038062001a6b833981016040819052620000349162000082565b600080546001600160a01b039283166001600160a01b03199182161790915560028054939092169216919091179055620000c1565b6001600160a01b03811681146200007f57600080fd5b50565b600080604083850312156200009657600080fd5b8251620000a38162000069565b6020840151909250620000b68162000069565b809150509250929050565b61199a80620000d16000396000f3fe608060405234801561001057600080fd5b50600436106101335760003560e01c8063016a7dd4146101385780630ba54df614610156578063193b505b146101815780631959ad5b1461019657806320562081146101a957806329449085146101dc5780632af8aae01461020657806344e87f911461021957806351e3aea91461022c57806352ef4b141461023d5780635f2864b11461025e57806364ee3c6d1461027e5780636b2fd9051461029f57806377b03e0d146102b25780639d17b9c5146102c5578063a792765f146102d8578063b6f6869e146102eb578063c5958af9146102fe578063ce5e11bf14610311578063d27eb47314610324578063e07c548614610339578063f534de5b1461034c578063f66f49c31461035f578063f78eea8314610372578063fcd4a546146103a0575b600080fd5b6101406103c1565b60405161014d919061115e565b60405180910390f35b600254610169906001600160a01b031681565b6040516001600160a01b03909116815260200161014d565b61019461018f3660046111b7565b610419565b005b600054610169906001600160a01b031681565b6101cc6101b73660046111db565b60056020526000908152604090205460ff1681565b604051901515815260200161014d565b6101ef6101ea3660046111f4565b610451565b60408051921515835260208301919091520161014d565b600154610169906001600160a01b031681565b6101cc6102273660046111f4565b6104d0565b61019461023a366004611283565b50565b61025061024b366004611343565b61054d565b60405190815260200161014d565b61027161026c3660046111db565b6105d3565b60405161014d91906113c8565b61029161028c3660046111f4565b61066d565b60405161014d9291906113db565b6102716102ad366004611283565b6106c6565b6102506102c03660046111db565b61078b565b6102506102d33660046111db565b6107f9565b6102916102e63660046111f4565b61081a565b6102716102f93660046113fd565b6108a0565b61027161030c3660046111f4565b610965565b61025061031f3660046111f4565b6109dd565b61025060008051602061194583398151915281565b6101696103473660046111f4565b610a2d565b61019461035a366004611444565b610aa1565b6101ef61036d3660046111f4565b610b47565b6103856103803660046111db565b610d04565b6040805193845260208401929092529082015260600161014d565b6103b36103ae36600461149f565b610dc9565b60405161014d9291906114d1565b6060600380548060200260200160405190810160405280929190818152602001828054801561040f57602002820191906000526020600020905b8154815260200190600101908083116103fb575b5050505050905090565b6001546001600160a01b03161561042f57600080fd5b600180546001600160a01b0319166001600160a01b0392909216919091179055565b60008054604051632944908560e01b815282916001600160a01b031690632944908590610484908790879060040161156c565b6040805180830381865afa1580156104a0573d6000803e3d6000fd5b505050506040513d601f19601f820116820180604052508101906104c4919061157a565b915091505b9250929050565b600080546040516344e87f9160e01b81526001600160a01b03909116906344e87f9190610503908690869060040161156c565b602060405180830381865afa158015610520573d6000803e3d6000fd5b505050506040513d601f19601f8201168201806040525081019061054491906115a8565b90505b92915050565b60025460405163525ea93760e01b81526000916001600160a01b03169063525ea937906105909060008051602061194583398151915290879087906004016115c5565b6020604051808303816000875af11580156105af573d6000803e3d6000fd5b505050506040513d601f19601f8201168201806040525081019061054491906115fb565b600460205260009081526040902080546105ec90611614565b80601f016020809104026020016040519081016040528092919081815260200182805461061890611614565b80156106655780601f1061063a57610100808354040283529160200191610665565b820191906000526020600020905b81548152906001019060200180831161064857829003601f168201915b505050505081565b6060600080600061067e8686610b47565b91509150816106a557600060405180602001604052806000815250909350935050506104c9565b6106af86826109dd565b92506106bb8684610965565b935050509250929050565b606060006106d3836110b5565b6000818152600560209081526040808320805460ff191660011790556004909152902080549192509061070590611614565b80601f016020809104026020016040519081016040528092919081815260200182805461073190611614565b801561077e5780601f106107535761010080835404028352916020019161077e565b820191906000526020600020905b81548152906001019060200180831161076157829003601f168201915b5050505050915050919050565b600080546040516377b03e0d60e01b8152600481018490526001600160a01b03909116906377b03e0d90602401602060405180830381865afa1580156107d5573d6000803e3d6000fd5b505050506040513d601f19601f8201168201806040525081019061054791906115fb565b6003818154811061080957600080fd5b600091825260209091200154905081565b6000805460405163a792765f60e01b8152606092916001600160a01b03169063a792765f9061084f908790879060040161156c565b600060405180830381865afa15801561086c573d6000803e3d6000fd5b505050506040513d6000823e601f3d908101601f191682016040526108949190810190611695565b90969095509350505050565b60408051602081018490526001600160a01b03831681830152606080820186905282518083038201815260808301909352916000916108e2919060a0016116ee565b60405160208183030381529060405280519060200120905061090c8161a8c0426102e6919061173f565b955091508461095d5760405162461bcd60e51b81526020600482015260196024820152781d1a5b595cdd185b5c081b5d5cdd081899481c1c995cd95b9d603a1b604482015260640160405180910390fd5b509392505050565b60005460405163c5958af960e01b81526060916001600160a01b03169063c5958af990610998908690869060040161156c565b600060405180830381865afa1580156109b5573d6000803e3d6000fd5b505050506040513d6000823e601f3d908101601f191682016040526105449190810190611752565b6000805460405163ce5e11bf60e01b81526001600160a01b039091169063ce5e11bf90610a10908690869060040161156c565b602060405180830381865afa1580156105af573d6000803e3d6000fd5b6000805460405163703e2a4360e11b81526001600160a01b039091169063e07c548690610a60908690869060040161156c565b602060405180830381865afa158015610a7d573d6000803e3d6000fd5b505050506040513d601f19601f820116820180604052508101906105449190611786565b6002546001600160a01b03163314610ab857600080fd5b6000848152600460205260409020610ad18284836117f2565b50600380546001810182556000919091527fc2575a0e9e593c00f959f8c92f12db2869c3395a3b0502d05e2516446f71f85b018490556040805185815284151560208201527f5efa0943a541bb99f61278f069cae727623c637832e2fb773d817199c4e96cde910160405180910390a150505050565b6000806000610b558561078b565b905080600003610b6c5760008092509250506104c9565b80610b76816118b2565b9150600190506000808381610b8b8a836109dd565b9050888111610ba657600080975097505050505050506104c9565b610bb08a846109dd565b905088811115610bbf57600094505b8415610c6f576002610bd184846118c9565b610bdb91906118dc565b9350610be78a856109dd565b905088811115610c28576000610c028b61031f60018861173f565b9050898111610c145760009550610c22565b610c1f60018661173f565b92505b50610bbf565b6000610c398b61031f8760016118c9565b905089811115610c5c576000955084610c51816118fe565b955050809150610c22565b610c678560016118c9565b935050610bbf565b610c798a826104d0565b610c8f57600184975097505050505050506104c9565b610c998a826104d0565b8015610ca457508584105b15610cc75783610cb3816118fe565b945050610cc08a856109dd565b9050610c8f565b8584148015610cdb5750610cdb8a826104d0565b15610cf257600080975097505050505050506104c9565b600184975097505050505050506104c9565b6001546040516387a475fd60e01b8152600481018390526000918291829182916001600160a01b03909116906387a475fd90602401602060405180830381865afa158015610d56573d6000803e3d6000fd5b505050506040513d601f19601f82011682018060405250810190610d7a91906115fb565b90506060610d8d826102e64260016118c9565b945090506000849003610dad576000806101949450945094505050610dc2565b6000610db88261110d565b955060c893505050505b9193909250565b606080600080610ddd8861036d888a61173f565b9150915081610e2e576040805160008082526020820190925290610e11565b6060815260200190600190039081610dfc5790505b5060408051600081526020810190915290945092506110ac915050565b6000610e3a8989610451565b909350905082610e8d576040805160008082526020820190925290610e6f565b6060815260200190600190039081610e5a5790505b5060408051600081526020810190915290955093506110ac92505050565b6000806000886001600160401b03811115610eaa57610eaa611216565b604051908082528060200260200182016040528015610ed3578160200160208202803683370190505b5090505b8883108015610efa57508482610eee8660016118c9565b610ef8919061173f565b115b15610f5e576000610f0f8d61031f858861173f565b9050610f1b8d826104d0565b610f4b5780828581518110610f3257610f32611917565b602090810291909101015283610f47816118fe565b9450505b82610f55816118fe565b93505050610ed7565b6000836001600160401b03811115610f7857610f78611216565b604051908082528060200260200182016040528015610fab57816020015b6060815260200190600190039081610f965790505b5090506000846001600160401b03811115610fc857610fc8611216565b604051908082528060200260200182016040528015610ff1578160200160208202803683370190505b50905060005b8581101561109f57838161100c60018961173f565b611016919061173f565b8151811061102657611026611917565b602002602001015182828151811061104057611040611917565b60200260200101818152505061106f8f83838151811061106257611062611917565b6020026020010151610965565b83828151811061108157611081611917565b60200260200101819052508080611097906118fe565b915050610ff7565b5090985096505050505050505b94509492505050565b6000805b6020811015611107576110cd81600861192d565b8382815181106110df576110df611917565b01602001516001600160f81b031916901c9190911790806110ff816118fe565b9150506110b9565b50919050565b6000805b82518110156111075782818151811061112c5761112c611917565b016020015160f81c6111408361010061192d565b61114a91906118c9565b915080611156816118fe565b915050611111565b6020808252825182820181905260009190848201906040850190845b818110156111965783518352928401929184019160010161117a565b50909695505050505050565b6001600160a01b038116811461023a57600080fd5b6000602082840312156111c957600080fd5b81356111d4816111a2565b9392505050565b6000602082840312156111ed57600080fd5b5035919050565b6000806040838503121561120757600080fd5b50508035926020909101359150565b634e487b7160e01b600052604160045260246000fd5b604051601f8201601f191681016001600160401b038111828210171561125457611254611216565b604052919050565b60006001600160401b0382111561127557611275611216565b50601f01601f191660200190565b60006020828403121561129557600080fd5b81356001600160401b038111156112ab57600080fd5b8201601f810184136112bc57600080fd5b80356112cf6112ca8261125c565b61122c565b8181528560208385010111156112e457600080fd5b81602084016020830137600091810160200191909152949350505050565b60008083601f84011261131457600080fd5b5081356001600160401b0381111561132b57600080fd5b6020830191508360208285010111156104c957600080fd5b6000806020838503121561135657600080fd5b82356001600160401b0381111561136c57600080fd5b61089485828601611302565b60005b8381101561139357818101518382015260200161137b565b50506000910152565b600081518084526113b4816020860160208601611378565b601f01601f19169290920160200192915050565b602081526000610544602083018461139c565b6040815260006113ee604083018561139c565b90508260208301529392505050565b60008060006060848603121561141257600080fd5b8335925060208401359150604084013561142b816111a2565b809150509250925092565b801515811461023a57600080fd5b6000806000806060858703121561145a57600080fd5b84359350602085013561146c81611436565b925060408501356001600160401b0381111561148757600080fd5b61149387828801611302565b95989497509550505050565b600080600080608085870312156114b557600080fd5b5050823594602084013594506040840135936060013592509050565b6000604082016040835280855180835260608501915060608160051b8601019250602080880160005b8381101561152857605f1988870301855261151686835161139c565b955093820193908201906001016114fa565b50508584038187015286518085528782019482019350915060005b8281101561155f57845184529381019392810192600101611543565b5091979650505050505050565b918252602082015260400190565b6000806040838503121561158d57600080fd5b825161159881611436565b6020939093015192949293505050565b6000602082840312156115ba57600080fd5b81516111d481611436565b83815260406020820152816040820152818360608301376000818301606090810191909152601f909201601f1916010192915050565b60006020828403121561160d57600080fd5b5051919050565b600181811c9082168061162857607f821691505b60208210810361110757634e487b7160e01b600052602260045260246000fd5b600082601f83011261165957600080fd5b81516116676112ca8261125c565b81815284602083860101111561167c57600080fd5b61168d826020830160208701611378565b949350505050565b6000806000606084860312156116aa57600080fd5b83516116b581611436565b60208501519093506001600160401b038111156116d157600080fd5b6116dd86828701611648565b925050604084015190509250925092565b60408152601160408201527043726f7373436861696e42616c616e636560781b6060820152608060208201526000610544608083018461139c565b634e487b7160e01b600052601160045260246000fd5b8181038181111561054757610547611729565b60006020828403121561176457600080fd5b81516001600160401b0381111561177a57600080fd5b61168d84828501611648565b60006020828403121561179857600080fd5b81516111d4816111a2565b601f8211156117ed57600081815260208120601f850160051c810160208610156117ca5750805b601f850160051c820191505b818110156117e9578281556001016117d6565b5050505b505050565b6001600160401b0383111561180957611809611216565b61181d836118178354611614565b836117a3565b6000601f84116001811461185157600085156118395750838201355b600019600387901b1c1916600186901b1783556118ab565b600083815260209020601f19861690835b828110156118825786850135825560209485019460019092019101611862565b508682101561189f5760001960f88860031b161c19848701351681555b505060018560011b0183555b5050505050565b6000816118c1576118c1611729565b506000190190565b8082018082111561054757610547611729565b6000826118f957634e487b7160e01b600052601260045260246000fd5b500490565b60006001820161191057611910611729565b5060010190565b634e487b7160e01b600052603260045260246000fd5b80820281158282048414176105475761054761172956fe88b6c755140efe88bff94bfafa4a7fdffe226d27d92bd45385bb0cfa90986650a2646970667358221220a166903f4f185016276052e1c079c25dac9900a84be0c3b5081b82294230953164736f6c63430008110033",
  "linkReferences": {},
  "deployedLinkReferences": {}
}