{
  "_format": "hh-sol-artifact-1",
  "contractName": "MockNativeBridge",
  "sourceName": "charonAMM/contracts/mocks/MockNativeBridge.sol",
  "abi": [
    {
      "inputs": [],
      "stateMutability": "nonpayable",
      "type": "constructor"
    },
    {
      "inputs": [],
      "name": "amb",
      "outputs": [
        {
          "internalType": "contract GnosisAMB",
          "name": "",
          "type": "address"
        }
      ],
      "stateMutability": "view",
      "type": "function"
    },
    {
      "inputs": [],
      "name": "e2p",
      "outputs": [
        {
          "internalType": "contract ETHtoPOLBridge",
          "name": "",
          "type": "address"
        }
      ],
      "stateMutability": "view",
      "type": "function"
    },
    {
      "inputs": [],
      "name": "fxChildTunnel",
      "outputs": [
        {
          "internalType": "address",
          "name": "",
          "type": "address"
        }
      ],
      "stateMutability": "view",
      "type": "function"
    },
    {
      "inputs": [],
      "name": "lastBlock",
      "outputs": [
        {
          "internalType": "uint256",
          "name": "",
          "type": "uint256"
        }
      ],
      "stateMutability": "view",
      "type": "function"
    },
    {
      "inputs": [],
      "name": "p2e",
      "outputs": [
        {
          "internalType": "contract POLtoETHBridge",
          "name": "",
          "type": "address"
        }
      ],
      "stateMutability": "view",
      "type": "function"
    },
    {
      "inputs": [
        {
          "internalType": "address",
          "name": "_fxChildTunnel",
          "type": "address"
        },
        {
          "internalType": "bytes",
          "name": "_message",
          "type": "bytes"
        }
      ],
      "name": "sendMessageToChild",
      "outputs": [],
      "stateMutability": "nonpayable",
      "type": "function"
    },
    {
      "inputs": [
        {
          "internalType": "bytes",
          "name": "_message",
          "type": "bytes"
        }
      ],
      "name": "sendMessageToRoot",
      "outputs": [],
      "stateMutability": "nonpayable",
      "type": "function"
    },
    {
      "inputs": [
        {
          "internalType": "uint256",
          "name": "_depositId",
          "type": "uint256"
        },
        {
          "internalType": "bytes",
          "name": "_data",
          "type": "bytes"
        }
      ],
      "name": "setAMBInfo",
      "outputs": [],
      "stateMutability": "nonpayable",
      "type": "function"
    },
    {
      "inputs": [
        {
          "internalType": "address",
          "name": "_amb",
          "type": "address"
        },
        {
          "internalType": "address",
          "name": "_p2e",
          "type": "address"
        },
        {
          "internalType": "address",
          "name": "_e2p",
          "type": "address"
        }
      ],
      "name": "setUsers",
      "outputs": [],
      "stateMutability": "nonpayable",
      "type": "function"
    }
  ],
  "bytecode": "0x608060405234801561001057600080fd5b50600480546001600160a01b03191630179055610574806100326000396000f3fe608060405234801561001057600080fd5b50600436106100835760003560e01c80631062b39a146100885780634b2a1398146100b857806350d15dec146100cb57806361f30c1b146100e0578063806b984f1461012d578063972c4928146101445780639a113ee214610157578063b47204771461016a578063f76b057f1461017d575b600080fd5b60005461009b906001600160a01b031681565b6040516001600160a01b0390911681526020015b60405180910390f35b60035461009b906001600160a01b031681565b6100de6100d9366004610372565b610190565b005b6100de6100ee3660046103d4565b600080546001600160a01b039485166001600160a01b031991821617909155600280549385169382169390931790925560038054919093169116179055565b61013660015481565b6040519081526020016100af565b60045461009b906001600160a01b031681565b6100de610165366004610417565b610218565b6100de610178366004610453565b61027d565b60025461009b906001600160a01b031681565b60005460408051602080820186905282518083038201815282840193849052805191012063f534de5b60e01b9092526001600160a01b039092169163f534de5b916101e29160019086906044016104d0565b600060405180830381600087803b1580156101fc57600080fd5b505af1158015610210573d6000803e3d6000fd5b505050505050565b60035460405163f953cec760e01b81526001600160a01b039091169063f953cec7906102489084906004016104fa565b600060405180830381600087803b15801561026257600080fd5b505af1158015610276573d6000803e3d6000fd5b5050505050565b6004546001600160a01b0383811691161461029757600080fd5b436001819055600254604051639a7c4b7160e01b81526001600160a01b0390911691639a7c4b71916101e2919030908690600401610514565b634e487b7160e01b600052604160045260246000fd5b600082601f8301126102f757600080fd5b81356001600160401b0380821115610311576103116102d0565b604051601f8301601f19908116603f01168101908282118183101715610339576103396102d0565b8160405283815286602085880101111561035257600080fd5b836020870160208301376000602085830101528094505050505092915050565b6000806040838503121561038557600080fd5b8235915060208301356001600160401b038111156103a257600080fd5b6103ae858286016102e6565b9150509250929050565b80356001600160a01b03811681146103cf57600080fd5b919050565b6000806000606084860312156103e957600080fd5b6103f2846103b8565b9250610400602085016103b8565b915061040e604085016103b8565b90509250925092565b60006020828403121561042957600080fd5b81356001600160401b0381111561043f57600080fd5b61044b848285016102e6565b949350505050565b6000806040838503121561046657600080fd5b61046f836103b8565b915060208301356001600160401b038111156103a257600080fd5b6000815180845260005b818110156104b057602081850181015186830182015201610494565b506000602082860101526020601f19601f83011685010191505092915050565b83815282151560208201526060604082015260006104f1606083018461048a565b95945050505050565b60208152600061050d602083018461048a565b9392505050565b8381526001600160a01b03831660208201526060604082018190526000906104f19083018461048a56fea2646970667358221220556bdbffefe8154c1b38d7cf528a47af8231ecfb14525ee4b15a80804432dd4d64736f6c63430008110033",
  "linkReferences": {},
  "deployedLinkReferences": {}
}