{
  "_format": "hh-sol-artifact-1",
  "contractName": "MockNativeBridge",
  "sourceName": "charonAMM/contracts/mocks/MockNativeBridge.sol",
  "abi": [
    {
      "inputs": [],
      "stateMutability": "nonpayable",
      "type": "constructor"
    },
    {
      "inputs": [],
      "name": "amb",
      "outputs": [
        {
          "internalType": "contract GnosisAMB",
          "name": "",
          "type": "address"
        }
      ],
      "stateMutability": "view",
      "type": "function"
    },
    {
      "inputs": [],
      "name": "e2p",
      "outputs": [
        {
          "internalType": "contract ETHtoPOLBridge",
          "name": "",
          "type": "address"
        }
      ],
      "stateMutability": "view",
      "type": "function"
    },
    {
      "inputs": [],
      "name": "fxChildTunnel",
      "outputs": [
        {
          "internalType": "address",
          "name": "",
          "type": "address"
        }
      ],
      "stateMutability": "view",
      "type": "function"
    },
    {
      "inputs": [],
      "name": "lastBlock",
      "outputs": [
        {
          "internalType": "uint256",
          "name": "",
          "type": "uint256"
        }
      ],
      "stateMutability": "view",
      "type": "function"
    },
    {
      "inputs": [],
      "name": "p2e",
      "outputs": [
        {
          "internalType": "contract POLtoETHBridge",
          "name": "",
          "type": "address"
        }
      ],
      "stateMutability": "view",
      "type": "function"
    },
    {
      "inputs": [
        {
          "internalType": "address",
          "name": "_fxChildTunnel",
          "type": "address"
        },
        {
          "internalType": "bytes",
          "name": "_message",
          "type": "bytes"
        }
      ],
      "name": "sendMessageToChild",
      "outputs": [],
      "stateMutability": "nonpayable",
      "type": "function"
    },
    {
      "inputs": [
        {
          "internalType": "uint256",
          "name": "_depositId",
          "type": "uint256"
        },
        {
          "internalType": "bytes",
          "name": "_data",
          "type": "bytes"
        }
      ],
      "name": "setAMBInfo",
      "outputs": [],
      "stateMutability": "nonpayable",
      "type": "function"
    },
    {
      "inputs": [
        {
          "internalType": "address",
          "name": "_amb",
          "type": "address"
        },
        {
          "internalType": "address",
          "name": "_p2e",
          "type": "address"
        },
        {
          "internalType": "address",
          "name": "_e2p",
          "type": "address"
        }
      ],
      "name": "setUsers",
      "outputs": [],
      "stateMutability": "nonpayable",
      "type": "function"
    }
  ],
  "bytecode": "0x608060405234801561001057600080fd5b50600380546001600160a01b03191630179055610498806100326000396000f3fe608060405234801561001057600080fd5b50600436106100785760003560e01c80631062b39a1461007d5780634b2a1398146100ad57806350d15dec146100c057806361f30c1b146100d5578063806b984f14610122578063972c492814610139578063b47204771461014c578063f76b057f1461015f575b600080fd5b600054610090906001600160a01b031681565b6040516001600160a01b0390911681526020015b60405180910390f35b600254610090906001600160a01b031681565b6100d36100ce3660046102ec565b610172565b005b6100d36100e336600461034e565b600080546001600160a01b039485166001600160a01b031991821617909155600180549385169382169390931790925560028054919093169116179055565b61012b60045481565b6040519081526020016100a4565b600354610090906001600160a01b031681565b6100d361015a366004610391565b6101fa565b600154610090906001600160a01b031681565b60005460408051602080820186905282518083038201815282840193849052805191012063f534de5b60e01b9092526001600160a01b039092169163f534de5b916101c491600190869060440161040e565b600060405180830381600087803b1580156101de57600080fd5b505af11580156101f2573d6000803e3d6000fd5b505050505050565b6003546001600160a01b0383811691161461021457600080fd5b436004818155600154604051639a7c4b7160e01b81526001600160a01b0390911692639a7c4b71926101c4923091879101610438565b634e487b7160e01b600052604160045260246000fd5b600082601f83011261027157600080fd5b81356001600160401b038082111561028b5761028b61024a565b604051601f8301601f19908116603f011681019082821181831017156102b3576102b361024a565b816040528381528660208588010111156102cc57600080fd5b836020870160208301376000602085830101528094505050505092915050565b600080604083850312156102ff57600080fd5b8235915060208301356001600160401b0381111561031c57600080fd5b61032885828601610260565b9150509250929050565b80356001600160a01b038116811461034957600080fd5b919050565b60008060006060848603121561036357600080fd5b61036c84610332565b925061037a60208501610332565b915061038860408501610332565b90509250925092565b600080604083850312156103a457600080fd5b6103ad83610332565b915060208301356001600160401b0381111561031c57600080fd5b6000815180845260005b818110156103ee576020818501810151868301820152016103d2565b506000602082860101526020601f19601f83011685010191505092915050565b838152821515602082015260606040820152600061042f60608301846103c8565b95945050505050565b8381526001600160a01b038316602082015260606040820181905260009061042f908301846103c856fea26469706673582212200ce750815d1b16ca6a9c67f96e27c86a41d014e9c8e171dc7cdc84d86fbf74d864736f6c63430008110033",
  "linkReferences": {},
  "deployedLinkReferences": {}
}