{
  "_format": "hh-sol-artifact-1",
  "contractName": "MockNativeBridge",
  "sourceName": "charonAMM/contracts/mocks/MockNativeBridge.sol",
  "abi": [
    {
      "inputs": [],
      "stateMutability": "nonpayable",
      "type": "constructor"
    },
    {
      "inputs": [],
      "name": "amb",
      "outputs": [
        {
          "internalType": "contract GnosisAMB",
          "name": "",
          "type": "address"
        }
      ],
      "stateMutability": "view",
      "type": "function"
    },
    {
      "inputs": [],
      "name": "e2p",
      "outputs": [
        {
          "internalType": "contract ETHtoPOLBridge",
          "name": "",
          "type": "address"
        }
      ],
      "stateMutability": "view",
      "type": "function"
    },
    {
      "inputs": [],
      "name": "fxChildTunnel",
      "outputs": [
        {
          "internalType": "address",
          "name": "",
          "type": "address"
        }
      ],
      "stateMutability": "view",
      "type": "function"
    },
    {
      "inputs": [],
      "name": "lastBlock",
      "outputs": [
        {
          "internalType": "uint256",
          "name": "",
          "type": "uint256"
        }
      ],
      "stateMutability": "view",
      "type": "function"
    },
    {
      "inputs": [],
      "name": "p2e",
      "outputs": [
        {
          "internalType": "contract POLtoETHBridge",
          "name": "",
          "type": "address"
        }
      ],
      "stateMutability": "view",
      "type": "function"
    },
    {
      "inputs": [
        {
          "internalType": "address",
          "name": "_fxChildTunnel",
          "type": "address"
        },
        {
          "internalType": "bytes",
          "name": "_message",
          "type": "bytes"
        }
      ],
      "name": "sendMessageToChild",
      "outputs": [],
      "stateMutability": "nonpayable",
      "type": "function"
    },
    {
      "inputs": [
        {
          "internalType": "uint256",
          "name": "_depositId",
          "type": "uint256"
        },
        {
          "internalType": "bytes",
          "name": "_data",
          "type": "bytes"
        }
      ],
      "name": "setAMBInfo",
      "outputs": [],
      "stateMutability": "nonpayable",
      "type": "function"
    },
    {
      "inputs": [
        {
          "internalType": "address",
          "name": "_amb",
          "type": "address"
        },
        {
          "internalType": "address",
          "name": "_p2e",
          "type": "address"
        },
        {
          "internalType": "address",
          "name": "_e2p",
          "type": "address"
        }
      ],
      "name": "setUsers",
      "outputs": [],
      "stateMutability": "nonpayable",
      "type": "function"
    }
  ],
  "bytecode": "0x608060405234801561001057600080fd5b50600380546001600160a01b031916301790556104ab806100326000396000f3fe608060405234801561001057600080fd5b50600436106100885760003560e01c8063806b984f1161005b578063806b984f14610132578063972c492814610149578063b47204771461015c578063f76b057f1461016f57600080fd5b80631062b39a1461008d5780634b2a1398146100bd57806350d15dec146100d057806361f30c1b146100e5575b600080fd5b6000546100a0906001600160a01b031681565b6040516001600160a01b0390911681526020015b60405180910390f35b6002546100a0906001600160a01b031681565b6100e36100de3660046102fd565b610182565b005b6100e36100f3366004610360565b600080546001600160a01b039485166001600160a01b031991821617909155600180549385169382169390931790925560028054919093169116179055565b61013b60045481565b6040519081526020016100b4565b6003546100a0906001600160a01b031681565b6100e361016a3660046103a3565b61020a565b6001546100a0906001600160a01b031681565b60005460408051602080820186905282518083038201815282840193849052805191012063f534de5b60e01b9092526001600160a01b039092169163f534de5b916101d4916001908690604401610421565b600060405180830381600087803b1580156101ee57600080fd5b505af1158015610202573d6000803e3d6000fd5b505050505050565b6003546001600160a01b0383811691161461022457600080fd5b436004818155600154604051639a7c4b7160e01b81526001600160a01b0390911692639a7c4b71926101d492309187910161044b565b634e487b7160e01b600052604160045260246000fd5b600082601f83011261028157600080fd5b813567ffffffffffffffff8082111561029c5761029c61025a565b604051601f8301601f19908116603f011681019082821181831017156102c4576102c461025a565b816040528381528660208588010111156102dd57600080fd5b836020870160208301376000602085830101528094505050505092915050565b6000806040838503121561031057600080fd5b82359150602083013567ffffffffffffffff81111561032e57600080fd5b61033a85828601610270565b9150509250929050565b80356001600160a01b038116811461035b57600080fd5b919050565b60008060006060848603121561037557600080fd5b61037e84610344565b925061038c60208501610344565b915061039a60408501610344565b90509250925092565b600080604083850312156103b657600080fd5b6103bf83610344565b9150602083013567ffffffffffffffff81111561032e57600080fd5b6000815180845260005b81811015610401576020818501810151868301820152016103e5565b506000602082860101526020601f19601f83011685010191505092915050565b838152821515602082015260606040820152600061044260608301846103db565b95945050505050565b8381526001600160a01b0383166020820152606060408201819052600090610442908301846103db56fea2646970667358221220458e200d26384a13a2b5f90f361118508a937e3837b127284f83931a971fb65964736f6c63430008110033",
  "linkReferences": {},
  "deployedLinkReferences": {}
}