{
  "_format": "hh-sol-artifact-1",
  "contractName": "ETHtoPOLBridge",
  "sourceName": "contracts/FlatETHtoPOLBridge.sol",
  "abi": [
    {
      "inputs": [
        {
          "internalType": "address payable",
          "name": "_tellor",
          "type": "address"
        },
        {
          "internalType": "address",
          "name": "_checkpointManager",
          "type": "address"
        },
        {
          "internalType": "address",
          "name": "_fxRoot",
          "type": "address"
        }
      ],
      "stateMutability": "nonpayable",
      "type": "constructor"
    },
    {
      "inputs": [],
      "name": "SEND_MESSAGE_EVENT_SIG",
      "outputs": [
        {
          "internalType": "bytes32",
          "name": "",
          "type": "bytes32"
        }
      ],
      "stateMutability": "view",
      "type": "function"
    },
    {
      "inputs": [],
      "name": "charon",
      "outputs": [
        {
          "internalType": "address",
          "name": "",
          "type": "address"
        }
      ],
      "stateMutability": "view",
      "type": "function"
    },
    {
      "inputs": [],
      "name": "checkpointManager",
      "outputs": [
        {
          "internalType": "contract ICheckpointManager",
          "name": "",
          "type": "address"
        }
      ],
      "stateMutability": "view",
      "type": "function"
    },
    {
      "inputs": [],
      "name": "fxChildTunnel",
      "outputs": [
        {
          "internalType": "address",
          "name": "",
          "type": "address"
        }
      ],
      "stateMutability": "view",
      "type": "function"
    },
    {
      "inputs": [],
      "name": "fxRoot",
      "outputs": [
        {
          "internalType": "contract IFxStateSender",
          "name": "",
          "type": "address"
        }
      ],
      "stateMutability": "view",
      "type": "function"
    },
    {
      "inputs": [
        {
          "internalType": "bytes",
          "name": "_inputData",
          "type": "bytes"
        }
      ],
      "name": "getCommitment",
      "outputs": [
        {
          "internalType": "bytes",
          "name": "_value",
          "type": "bytes"
        },
        {
          "internalType": "address",
          "name": "_caller",
          "type": "address"
        }
      ],
      "stateMutability": "nonpayable",
      "type": "function"
    },
    {
      "inputs": [
        {
          "internalType": "bytes32",
          "name": "_queryId",
          "type": "bytes32"
        },
        {
          "internalType": "uint256",
          "name": "_timestamp",
          "type": "uint256"
        }
      ],
      "name": "getDataAfter",
      "outputs": [
        {
          "internalType": "bytes",
          "name": "_value",
          "type": "bytes"
        },
        {
          "internalType": "uint256",
          "name": "_timestampRetrieved",
          "type": "uint256"
        }
      ],
      "stateMutability": "view",
      "type": "function"
    },
    {
      "inputs": [
        {
          "internalType": "bytes32",
          "name": "_queryId",
          "type": "bytes32"
        },
        {
          "internalType": "uint256",
          "name": "_timestamp",
          "type": "uint256"
        }
      ],
      "name": "getDataBefore",
      "outputs": [
        {
          "internalType": "bytes",
          "name": "_value",
          "type": "bytes"
        },
        {
          "internalType": "uint256",
          "name": "_timestampRetrieved",
          "type": "uint256"
        }
      ],
      "stateMutability": "view",
      "type": "function"
    },
    {
      "inputs": [
        {
          "internalType": "bytes32",
          "name": "_queryId",
          "type": "bytes32"
        },
        {
          "internalType": "uint256",
          "name": "_timestamp",
          "type": "uint256"
        }
      ],
      "name": "getIndexForDataAfter",
      "outputs": [
        {
          "internalType": "bool",
          "name": "_found",
          "type": "bool"
        },
        {
          "internalType": "uint256",
          "name": "_index",
          "type": "uint256"
        }
      ],
      "stateMutability": "view",
      "type": "function"
    },
    {
      "inputs": [
        {
          "internalType": "bytes32",
          "name": "_queryId",
          "type": "bytes32"
        },
        {
          "internalType": "uint256",
          "name": "_timestamp",
          "type": "uint256"
        }
      ],
      "name": "getIndexForDataBefore",
      "outputs": [
        {
          "internalType": "bool",
          "name": "_found",
          "type": "bool"
        },
        {
          "internalType": "uint256",
          "name": "_index",
          "type": "uint256"
        }
      ],
      "stateMutability": "view",
      "type": "function"
    },
    {
      "inputs": [
        {
          "internalType": "bytes32",
          "name": "_queryId",
          "type": "bytes32"
        },
        {
          "internalType": "uint256",
          "name": "_timestamp",
          "type": "uint256"
        },
        {
          "internalType": "uint256",
          "name": "_maxAge",
          "type": "uint256"
        },
        {
          "internalType": "uint256",
          "name": "_maxCount",
          "type": "uint256"
        }
      ],
      "name": "getMultipleValuesBefore",
      "outputs": [
        {
          "internalType": "bytes[]",
          "name": "_values",
          "type": "bytes[]"
        },
        {
          "internalType": "uint256[]",
          "name": "_timestamps",
          "type": "uint256[]"
        }
      ],
      "stateMutability": "view",
      "type": "function"
    },
    {
      "inputs": [
        {
          "internalType": "bytes32",
          "name": "_queryId",
          "type": "bytes32"
        }
      ],
      "name": "getNewValueCountbyQueryId",
      "outputs": [
        {
          "internalType": "uint256",
          "name": "",
          "type": "uint256"
        }
      ],
      "stateMutability": "view",
      "type": "function"
    },
    {
      "inputs": [
        {
          "internalType": "bytes32",
          "name": "_queryId",
          "type": "bytes32"
        },
        {
          "internalType": "uint256",
          "name": "_timestamp",
          "type": "uint256"
        }
      ],
      "name": "getReporterByTimestamp",
      "outputs": [
        {
          "internalType": "address",
          "name": "",
          "type": "address"
        }
      ],
      "stateMutability": "view",
      "type": "function"
    },
    {
      "inputs": [
        {
          "internalType": "uint256",
          "name": "_timestamp",
          "type": "uint256"
        },
        {
          "internalType": "uint256",
          "name": "_chainID",
          "type": "uint256"
        },
        {
          "internalType": "address",
          "name": "_address",
          "type": "address"
        }
      ],
      "name": "getRootHashAndSupply",
      "outputs": [
        {
          "internalType": "bytes",
          "name": "_value",
          "type": "bytes"
        }
      ],
      "stateMutability": "view",
      "type": "function"
    },
    {
      "inputs": [
        {
          "internalType": "bytes32",
          "name": "_queryId",
          "type": "bytes32"
        },
        {
          "internalType": "uint256",
          "name": "_index",
          "type": "uint256"
        }
      ],
      "name": "getTimestampbyQueryIdandIndex",
      "outputs": [
        {
          "internalType": "uint256",
          "name": "",
          "type": "uint256"
        }
      ],
      "stateMutability": "view",
      "type": "function"
    },
    {
      "inputs": [],
      "name": "idMappingContract",
      "outputs": [
        {
          "internalType": "contract IMappingContract",
          "name": "",
          "type": "address"
        }
      ],
      "stateMutability": "view",
      "type": "function"
    },
    {
      "inputs": [
        {
          "internalType": "bytes32",
          "name": "_queryId",
          "type": "bytes32"
        },
        {
          "internalType": "uint256",
          "name": "_timestamp",
          "type": "uint256"
        }
      ],
      "name": "isInDispute",
      "outputs": [
        {
          "internalType": "bool",
          "name": "",
          "type": "bool"
        }
      ],
      "stateMutability": "view",
      "type": "function"
    },
    {
      "inputs": [
        {
          "internalType": "bytes32",
          "name": "",
          "type": "bytes32"
        }
      ],
      "name": "processedExits",
      "outputs": [
        {
          "internalType": "bool",
          "name": "",
          "type": "bool"
        }
      ],
      "stateMutability": "view",
      "type": "function"
    },
    {
      "inputs": [
        {
          "internalType": "bytes32",
          "name": "_queryId",
          "type": "bytes32"
        },
        {
          "internalType": "uint256",
          "name": "_timestamp",
          "type": "uint256"
        }
      ],
      "name": "retrieveData",
      "outputs": [
        {
          "internalType": "bytes",
          "name": "",
          "type": "bytes"
        }
      ],
      "stateMutability": "view",
      "type": "function"
    },
    {
      "inputs": [
        {
          "internalType": "bytes",
          "name": "_data",
          "type": "bytes"
        }
      ],
      "name": "sendCommitment",
      "outputs": [],
      "stateMutability": "nonpayable",
      "type": "function"
    },
    {
      "inputs": [
        {
          "internalType": "address",
          "name": "_charon",
          "type": "address"
        }
      ],
      "name": "setCharon",
      "outputs": [],
      "stateMutability": "nonpayable",
      "type": "function"
    },
    {
      "inputs": [
        {
          "internalType": "address",
          "name": "_fxChildTunnel",
          "type": "address"
        }
      ],
      "name": "setFxChildTunnel",
      "outputs": [],
      "stateMutability": "nonpayable",
      "type": "function"
    },
    {
      "inputs": [
        {
          "internalType": "address",
          "name": "_addy",
          "type": "address"
        }
      ],
      "name": "setIdMappingContract",
      "outputs": [],
      "stateMutability": "nonpayable",
      "type": "function"
    },
    {
      "inputs": [],
      "name": "tellor",
      "outputs": [
        {
          "internalType": "contract ITellor",
          "name": "",
          "type": "address"
        }
      ],
      "stateMutability": "view",
      "type": "function"
    },
    {
      "inputs": [
        {
          "internalType": "bytes32",
          "name": "_id",
          "type": "bytes32"
        }
      ],
      "name": "valueFor",
      "outputs": [
        {
          "internalType": "int256",
          "name": "_value",
          "type": "int256"
        },
        {
          "internalType": "uint256",
          "name": "_timestamp",
          "type": "uint256"
        },
        {
          "internalType": "uint256",
          "name": "_statusCode",
          "type": "uint256"
        }
      ],
      "stateMutability": "view",
      "type": "function"
    }
  ],
  "bytecode": "0x60806040523480156200001157600080fd5b5060405162002e3638038062002e36833981016040819052620000349162000090565b600180546001600160a01b039384166001600160a01b031991821617909155600080549284169282169290921790915560048054929093169116179055620000e4565b6001600160a01b03811681146200008d57600080fd5b50565b600080600060608486031215620000a657600080fd5b8351620000b38162000077565b6020850151909350620000c68162000077565b6040850151909250620000d98162000077565b809150509250925092565b612d4280620000f46000396000f3fe608060405234801561001057600080fd5b50600436106101735760003560e01c8063972c4928116100de578063ce5e11bf11610097578063f66f49c311610071578063f66f49c3146103a8578063f78eea83146103bb578063fc571a5c146103e9578063fcd4a546146103fc57600080fd5b8063ce5e11bf1461036f578063de9b771f14610382578063e07c54861461039557600080fd5b8063972c4928146102f0578063a792765f14610303578063aea4e49e14610316578063b6f6869e14610329578063c0857ba014610349578063c5958af91461035c57600080fd5b806344e87f911161013057806344e87f911461024257806351e3aea914610265578063607f2d421461027857806364ee3c6d1461029b5780636b2fd905146102bc57806377b03e0d146102dd57600080fd5b80630e387de614610178578063193b505b146101b25780631959ad5b146101c757806329449085146101f25780632af8aae01461021c578063353ab5cf1461022f575b600080fd5b61019f7f8c5261668696ce22758910d05bab8f186d6eb247ceac2af2e82c7dc17669b03681565b6040519081526020015b60405180910390f35b6101c56101c03660046125b5565b61041d565b005b6004546101da906001600160a01b031681565b6040516001600160a01b0390911681526020016101a9565b6102056102003660046125d2565b610455565b6040805192151583526020830191909152016101a9565b6005546101da906001600160a01b031681565b6101c561023d3660046125b5565b6104d7565b6102556102503660046125d2565b61050f565b60405190151581526020016101a9565b6101c5610273366004612661565b61058f565b6102556102863660046126e0565b60036020526000908152604090205460ff1681565b6102ae6102a93660046125d2565b6105eb565b6040516101a9929190612749565b6102cf6102ca366004612661565b610644565b6040516101a992919061276b565b61019f6102eb3660046126e0565b6106ab565b6002546101da906001600160a01b031681565b6102ae6103113660046125d2565b61071b565b6101c56103243660046125b5565b6107a3565b61033c610337366004612795565b610831565b6040516101a991906127ce565b6001546101da906001600160a01b031681565b61033c61036a3660046125d2565b6108f6565b61019f61037d3660046125d2565b610971565b6000546101da906001600160a01b031681565b6101da6103a33660046125d2565b6109e8565b6102056103b63660046125d2565b610a5f565b6103ce6103c93660046126e0565b610c1c565b604080519384526020840192909252908201526060016101a9565b6006546101da906001600160a01b031681565b61040f61040a3660046127e1565b610ce1565b6040516101a9929190612813565b6005546001600160a01b03161561043357600080fd5b600580546001600160a01b0319166001600160a01b0392909216919091179055565b60048054604051632944908560e01b81529182018490526024820183905260009182916001600160a01b0316906329449085906044016040805180830381865afa1580156104a7573d6000803e3d6000fd5b505050506040513d601f19601f820116820180604052508101906104cb91906128c3565b915091505b9250929050565b6006546001600160a01b0316156104ed57600080fd5b600680546001600160a01b0319166001600160a01b0392909216919091179055565b600480546040516344e87f9160e01b8152918201849052602482018390526000916001600160a01b03909116906344e87f9190604401602060405180830381865afa158015610562573d6000803e3d6000fd5b505050506040513d601f19601f8201168201806040525081019061058691906128ef565b90505b92915050565b6006546001600160a01b031633146105df5760405162461bcd60e51b815260206004820152600e60248201526d36bab9ba1031329031b430b937b760911b60448201526064015b60405180910390fd5b6105e881610fcd565b50565b606060008060006105fc8686610a5f565b915091508161062357600060405180602001604052806000815250909350935050506104d0565b61062d8682610971565b925061063986846108f6565b935050509250929050565b6006546060906000906001600160a01b031633146106955760405162461bcd60e51b815260206004820152600e60248201526d36bab9ba1031329031b430b937b760911b60448201526064016105d6565b60006106a084611038565b946000945092505050565b600480546040516377b03e0d60e01b81529182018390526000916001600160a01b03909116906377b03e0d90602401602060405180830381865afa1580156106f7573d6000803e3d6000fd5b505050506040513d601f19601f82011682018060405250810190610589919061290a565b6004805460405163a792765f60e01b8152918201849052602482018390526060916000916001600160a01b03169063a792765f90604401600060405180830381865afa15801561076f573d6000803e3d6000fd5b505050506040513d6000823e601f3d908101601f191682016040526107979190810190612968565b90969095509350505050565b6002546001600160a01b03161561080f5760405162461bcd60e51b815260206004820152602a60248201527f467842617365526f6f7454756e6e656c3a204348494c445f54554e4e454c5f4160448201526913149150511657d4d15560b21b60648201526084016105d6565b600280546001600160a01b0319166001600160a01b0392909216919091179055565b60408051602081018490526001600160a01b0383168183015260608082018690528251808303820181526080830190935291600091610873919060a0016129be565b60405160208183030381529060405280519060200120905061089d8161a8c0426103119190612a0f565b95509150846108ee5760405162461bcd60e51b815260206004820152601960248201527f74696d657374616d70206d7573742062652070726573656e740000000000000060448201526064016105d6565b509392505050565b6004805460405163c5958af960e01b8152918201849052602482018390526060916001600160a01b039091169063c5958af990604401600060405180830381865afa158015610949573d6000803e3d6000fd5b505050506040513d6000823e601f3d908101601f191682016040526105869190810190612a22565b6004805460405163ce5e11bf60e01b8152918201849052602482018390526000916001600160a01b039091169063ce5e11bf90604401602060405180830381865afa1580156109c4573d6000803e3d6000fd5b505050506040513d601f19601f82011682018060405250810190610586919061290a565b6004805460405163703e2a4360e11b8152918201849052602482018390526000916001600160a01b039091169063e07c548690604401602060405180830381865afa158015610a3b573d6000803e3d6000fd5b505050506040513d601f19601f820116820180604052508101906105869190612a56565b6000806000610a6d856106ab565b905080600003610a845760008092509250506104d0565b80610a8e81612a73565b9150600190506000808381610aa38a83610971565b9050888111610abe57600080975097505050505050506104d0565b610ac88a84610971565b905088811115610ad757600094505b8415610b87576002610ae98484612a8a565b610af39190612ab3565b9350610aff8a85610971565b905088811115610b40576000610b1a8b61037d600188612a0f565b9050898111610b2c5760009550610b3a565b610b37600186612a0f565b92505b50610ad7565b6000610b518b61037d876001612a8a565b905089811115610b74576000955084610b6981612ac7565b955050809150610b3a565b610b7f856001612a8a565b935050610ad7565b610b918a8261050f565b610ba757600184975097505050505050506104d0565b610bb18a8261050f565b8015610bbc57508584105b15610bdf5783610bcb81612ac7565b945050610bd88a85610971565b9050610ba7565b8584148015610bf35750610bf38a8261050f565b15610c0a57600080975097505050505050506104d0565b600184975097505050505050506104d0565b6005546040516387a475fd60e01b8152600481018390526000918291829182916001600160a01b03909116906387a475fd90602401602060405180830381865afa158015610c6e573d6000803e3d6000fd5b505050506040513d601f19601f82011682018060405250810190610c92919061290a565b90506060610ca582610311426001612a8a565b945090506000849003610cc5576000806101949450945094505050610cda565b6000610cd08261131d565b955060c893505050505b9193909250565b606080600080610cf5886103b6888a612a0f565b9150915081610d46576040805160008082526020820190925290610d29565b6060815260200190600190039081610d145790505b506040805160008152602081019091529094509250610fc4915050565b6000610d528989610455565b909350905082610da5576040805160008082526020820190925290610d87565b6060815260200190600190039081610d725790505b506040805160008152602081019091529095509350610fc492505050565b6000806000886001600160401b03811115610dc257610dc26125f4565b604051908082528060200260200182016040528015610deb578160200160208202803683370190505b5090505b8883108015610e1257508482610e06866001612a8a565b610e109190612a0f565b115b15610e76576000610e278d61037d8588612a0f565b9050610e338d8261050f565b610e635780828581518110610e4a57610e4a612ae0565b602090810291909101015283610e5f81612ac7565b9450505b82610e6d81612ac7565b93505050610def565b6000836001600160401b03811115610e9057610e906125f4565b604051908082528060200260200182016040528015610ec357816020015b6060815260200190600190039081610eae5790505b5090506000846001600160401b03811115610ee057610ee06125f4565b604051908082528060200260200182016040528015610f09578160200160208202803683370190505b50905060005b85811015610fb7578381610f24600189612a0f565b610f2e9190612a0f565b81518110610f3e57610f3e612ae0565b6020026020010151828281518110610f5857610f58612ae0565b602002602001018181525050610f878f838381518110610f7a57610f7a612ae0565b60200260200101516108f6565b838281518110610f9957610f99612ae0565b60200260200101819052508080610faf90612ac7565b915050610f0f565b5090985096505050505050505b94509492505050565b60005460025460405163b472047760e01b81526001600160a01b039283169263b472047792611003929116908590600401612af6565b600060405180830381600087803b15801561101d57600080fd5b505af1158015611031573d6000803e3d6000fd5b5050505050565b6060600061104583611374565b90506000611052826113d3565b9050600061105f836113fc565b905060008161106d84611425565b611076866115e1565b60405160200161108893929190612b1a565b60408051601f1981840301815291815281516020928301206000818152600390935291205490915060ff161561110c5760405162461bcd60e51b8152602060048201526024808201527f4678526f6f7454756e6e656c3a20455849545f414c52454144595f50524f434560448201526314d4d15160e21b60648201526084016105d6565b6000818152600360205260408120805460ff1916600117905561112e856115fd565b9050600061113b82611746565b9050611146816117d6565b6002546001600160a01b039081169116146111b15760405162461bcd60e51b815260206004820152602560248201527f4678526f6f7454756e6e656c3a20494e56414c49445f46585f4348494c445f54604482015264155393915360da1b60648201526084016105d6565b60006111bc876117ff565b90506111dc6111cc846020015190565b876111d68a61181b565b84611837565b6112345760405162461bcd60e51b815260206004820152602360248201527f4678526f6f7454756e6e656c3a20494e56414c49445f524543454950545f505260448201526227a7a360e91b60648201526084016105d6565b6112628561124189611aea565b61124a8a611b06565b846112548c611b22565b61125d8d611b3e565b611b5a565b600061126d83611c78565b90507f8c5261668696ce22758910d05bab8f186d6eb247ceac2af2e82c7dc17669b0366112a361129e836000611cb4565b611cec565b146112f05760405162461bcd60e51b815260206004820152601f60248201527f4678526f6f7454756e6e656c3a20494e56414c49445f5349474e41545552450060448201526064016105d6565b60006112fb84611d67565b80602001905181019061130e9190612a22565b9b9a5050505050505050505050565b6000805b825181101561136e5782818151811061133c5761133c612ae0565b016020015160f81c61135083610100612b47565b61135a9190612a8a565b91508061136681612ac7565b915050611321565b50919050565b60408051602081019091526060815260006113be6113b98460408051808201825260008082526020918201528151808301909252825182529182019181019190915290565b611d83565b60408051602081019091529081529392505050565b606061058982600001516008815181106113ef576113ef612ae0565b6020026020010151611e98565b6000610589826000015160028151811061141857611418612ae0565b6020026020010151611cec565b604080516020810190915260008152815160609190156105895760008061144d600086611f34565b60f81c9050600181148061146457508060ff166003145b1561150b576001855160026114799190612b47565b6114839190612a0f565b6001600160401b0381111561149a5761149a6125f4565b6040519080825280601f01601f1916602001820160405280156114c4576020820181803683370190505b50925060006114d4600187611f34565b905080846000815181106114ea576114ea612ae0565b60200101906001600160f81b031916908160001a905350600192505061156e565b60028551600261151b9190612b47565b6115259190612a0f565b6001600160401b0381111561153c5761153c6125f4565b6040519080825280601f01601f191660200182016040528015611566576020820181803683370190505b509250600091505b60ff82165b83518110156115d85761159d61158c60ff851683612a0f565b611597906002612a8a565b87611f34565b8482815181106115af576115af612ae0565b60200101906001600160f81b031916908160001a905350806115d081612ac7565b915050611573565b50505092915050565b6000610589826000015160098151811061141857611418612ae0565b61162160405180606001604052806060815260200160608152602001600081525090565b61163b82600001516006815181106113ef576113ef612ae0565b60208281018290526040805180820182526000808252908301528051808201909152825181529181019082015261167181611fb5565b156116865761167f81611d83565b8252611732565b6020820151805160009061169c90600190612a0f565b6001600160401b038111156116b3576116b36125f4565b6040519080825280601f01601f1916602001820160405280156116dd576020820181803683370190505b5090506000808360210191508260200190506116fb82828551611ff0565b60408051808201825260008082526020918201528151808301909252845182528085019082015261172b90611d83565b8652505050505b61173b836115e1565b604083015250919050565b604080516080810182526000918101828152606080830193909352815260208101919091526000611794836000015160038151811061178757611787612ae0565b6020026020010151611d83565b8360400151815181106117a9576117a9612ae0565b6020026020010151905060405180604001604052808281526020016117cd83611d83565b90529392505050565b600061058982602001516000815181106117f2576117f2612ae0565b602002602001015161207b565b6000610589826000015160058151811061141857611418612ae0565b606061058982600001516007815181106113ef576113ef612ae0565b60008061186b8460408051808201825260008082526020918201528151808301909252825182529182019181019190915290565b9050600061187882611d83565b90506060808560008061188a8b611425565b905080516000036118a5576000975050505050505050611ae2565b60005b8651811015611ad95781518311156118cb57600098505050505050505050611ae2565b6118ed8782815181106118e0576118e0612ae0565b6020026020010151612095565b95508580519060200120841461190e57600098505050505050505050611ae2565b61192387828151811061178757611787612ae0565b945084516011036119f55781518303611982578c80519060200120611954866010815181106113ef576113ef612ae0565b805190602001200361197157600198505050505050505050611ae2565b600098505050505050505050611ae2565b600082848151811061199657611996612ae0565b016020015160f81c905060108111156119bb5760009950505050505050505050611ae2565b6119e0868260ff16815181106119d3576119d3612ae0565b6020026020010151612113565b94506119ed600185612a8a565b935050611ac7565b8451600203611971576000611a20611a19876000815181106113ef576113ef612ae0565b8486612141565b8351909150611a2f8286612a8a565b03611a82578d80519060200120611a52876001815181106113ef576113ef612ae0565b8051906020012003611a705760019950505050505050505050611ae2565b60009950505050505050505050611ae2565b80600003611a9c5760009950505050505050505050611ae2565b611aa68185612a8a565b9350611abe866001815181106119d3576119d3612ae0565b9450611ac79050565b80611ad181612ac7565b9150506118a8565b50505050505050505b949350505050565b6000610589826000015160038151811061141857611418612ae0565b6000610589826000015160048151811061141857611418612ae0565b6000610589826000015160008151811061141857611418612ae0565b606061058982600001516001815181106113ef576113ef612ae0565b6001546040516320a9cea560e11b81526004810184905260009182916001600160a01b03909116906341539d4a9060240160a060405180830381865afa158015611ba8573d6000803e3d6000fd5b505050506040513d601f19601f82011682018060405250810190611bcc9190612b5e565b50505091509150611c228189611be29190612a0f565b6040805160208082018d90528183018c9052606082018b905260808083018b90528351808403909101815260a09092019092528051910120908486612248565b611c6e5760405162461bcd60e51b815260206004820152601c60248201527f4678526f6f7454756e6e656c3a20494e56414c49445f4845414445520000000060448201526064016105d6565b5050505050505050565b6040805160208101909152606081526040518060200160405280611cac846020015160018151811061178757611787612ae0565b905292915050565b60408051808201909152600080825260208201528251805183908110611cdc57611cdc612ae0565b6020026020010151905092915050565b805160009015801590611d0157508151602110155b611d0a57600080fd5b6000611d1983602001516123b0565b90506000818460000151611d2d9190612a0f565b9050600080838660200151611d429190612a8a565b9050805191506020831015611d5e57826020036101000a820491505b50949350505050565b606061058982602001516002815181106113ef576113ef612ae0565b6060611d8e82611fb5565b611d9757600080fd5b6000611da283612432565b90506000816001600160401b03811115611dbe57611dbe6125f4565b604051908082528060200260200182016040528015611e0357816020015b6040805180820190915260008082526020820152815260200190600190039081611ddc5790505b5090506000611e1585602001516123b0565b8560200151611e249190612a8a565b90506000805b84811015611e8d57611e3b836124b7565b9150604051806040016040528083815260200184815250848281518110611e6457611e64612ae0565b6020908102919091010152611e798284612a8a565b925080611e8581612ac7565b915050611e2a565b509195945050505050565b8051606090611ea657600080fd5b6000611eb583602001516123b0565b90506000818460000151611ec99190612a0f565b90506000816001600160401b03811115611ee557611ee56125f4565b6040519080825280601f01601f191660200182016040528015611f0f576020820181803683370190505b5090506000816020019050611d5e848760200151611f2d9190612a8a565b828561255b565b6000611f41600284612bab565b15611f7b57601082611f54600286612ab3565b81518110611f6457611f64612ae0565b0160200151611f76919060f81c612bbf565b611fab565b601082611f89600286612ab3565b81518110611f9957611f99612ae0565b0160200151611fab919060f81c612be1565b60f81b9392505050565b80516000908103611fc857506000919050565b6020820151805160001a9060c0821015611fe6575060009392505050565b5060019392505050565b80600003611ffd57505050565b602081106120355782518252612014602084612a8a565b9250612021602083612a8a565b915061202e602082612a0f565b9050611ffd565b8060000361204257505050565b60006001612051836020612a0f565b61205d90610100612ce7565b6120679190612a0f565b935183518516941916939093179091525050565b805160009060151461208c57600080fd5b61058982611cec565b6060600082600001516001600160401b038111156120b5576120b56125f4565b6040519080825280601f01601f1916602001820160405280156120df576020820181803683370190505b50905080516000036120f15792915050565b600081602001905061210c846020015182866000015161255b565b5092915050565b805160009060211461212457600080fd5b600080836020015160016121389190612a8a565b51949350505050565b6000808061214e86611425565b9050600081516001600160401b0381111561216b5761216b6125f4565b6040519080825280601f01601f191660200182016040528015612195576020820181803683370190505b509050845b82516121a69087612a8a565b8110156122195760008782815181106121c1576121c1612ae0565b01602001516001600160f81b031916905080836121de8985612a0f565b815181106121ee576121ee612ae0565b60200101906001600160f81b031916908160001a90535050808061221190612ac7565b91505061219a565b508080519060200120828051906020012003612238578151925061223d565b600092505b509095945050505050565b6000602082516122589190612bab565b1561229c5760405162461bcd60e51b8152602060048201526014602482015273092dcecc2d8d2c840e0e4dedecc40d8cadccee8d60631b60448201526064016105d6565b6000602083516122ac9190612ab3565b90506122b9816002612ce7565b85106122ff5760405162461bcd60e51b81526020600482015260156024820152744c65616620696e64657820697320746f6f2062696760581b60448201526064016105d6565b60008660205b855181116123a25785810151925061231e600289612bab565b600003612356576040805160208101849052908101849052606001604051602081830303815290604052805190602001209150612383565b60408051602081018590529081018390526060016040516020818303038152906040528051906020012091505b61238e600289612ab3565b975061239b602082612a8a565b9050612305565b509094149695505050505050565b8051600090811a60808110156123c95750600092915050565b60b88110806123e4575060c081108015906123e4575060f881105b156123f25750600192915050565b60c081101561242657612407600160b8612cf3565b6124149060ff1682612a0f565b61241f906001612a8a565b9392505050565b612407600160f8612cf3565b8051600090810361244557506000919050565b60008061245584602001516123b0565b84602001516124649190612a8a565b905060008460000151856020015161247c9190612a8a565b90505b808210156124ae57612490826124b7565b61249a9083612a8a565b9150826124a681612ac7565b93505061247f565b50909392505050565b80516000908190811a60808110156124d2576001915061210c565b60b88110156124f8576124e6608082612a0f565b6124f1906001612a8a565b915061210c565b60c08110156125255760b78103600185019450806020036101000a8551046001820181019350505061210c565b60f8811015612539576124e660c082612a0f565b60019390930151602084900360f7016101000a900490920160f5190192915050565b8060000361256857505050565b60208110612035578251825261257f602084612a8a565b925061258c602083612a8a565b9150612599602082612a0f565b9050612568565b6001600160a01b03811681146105e857600080fd5b6000602082840312156125c757600080fd5b813561241f816125a0565b600080604083850312156125e557600080fd5b50508035926020909101359150565b634e487b7160e01b600052604160045260246000fd5b604051601f8201601f191681016001600160401b0381118282101715612632576126326125f4565b604052919050565b60006001600160401b03821115612653576126536125f4565b50601f01601f191660200190565b60006020828403121561267357600080fd5b81356001600160401b0381111561268957600080fd5b8201601f8101841361269a57600080fd5b80356126ad6126a88261263a565b61260a565b8181528560208385010111156126c257600080fd5b81602084016020830137600091810160200191909152949350505050565b6000602082840312156126f257600080fd5b5035919050565b60005b838110156127145781810151838201526020016126fc565b50506000910152565b600081518084526127358160208601602086016126f9565b601f01601f19169290920160200192915050565b60408152600061275c604083018561271d565b90508260208301529392505050565b60408152600061277e604083018561271d565b905060018060a01b03831660208301529392505050565b6000806000606084860312156127aa57600080fd5b833592506020840135915060408401356127c3816125a0565b809150509250925092565b602081526000610586602083018461271d565b600080600080608085870312156127f757600080fd5b5050823594602084013594506040840135936060013592509050565b6000604082016040835280855180835260608501915060608160051b8601019250602080880160005b8381101561286a57605f1988870301855261285886835161271d565b9550938201939082019060010161283c565b50508584038187015286518085528782019482019350915060005b828110156128a157845184529381019392810192600101612885565b5091979650505050505050565b805180151581146128be57600080fd5b919050565b600080604083850312156128d657600080fd5b6128df836128ae565b9150602083015190509250929050565b60006020828403121561290157600080fd5b610586826128ae565b60006020828403121561291c57600080fd5b5051919050565b600082601f83011261293457600080fd5b81516129426126a88261263a565b81815284602083860101111561295757600080fd5b611ae28260208301602087016126f9565b60008060006060848603121561297d57600080fd5b612986846128ae565b925060208401516001600160401b038111156129a157600080fd5b6129ad86828701612923565b925050604084015190509250925092565b60408152601160408201527043726f7373436861696e42616c616e636560781b6060820152608060208201526000610586608083018461271d565b634e487b7160e01b600052601160045260246000fd5b81810381811115610589576105896129f9565b600060208284031215612a3457600080fd5b81516001600160401b03811115612a4a57600080fd5b611ae284828501612923565b600060208284031215612a6857600080fd5b815161241f816125a0565b600081612a8257612a826129f9565b506000190190565b80820180821115610589576105896129f9565b634e487b7160e01b600052601260045260246000fd5b600082612ac257612ac2612a9d565b500490565b600060018201612ad957612ad96129f9565b5060010190565b634e487b7160e01b600052603260045260246000fd5b6001600160a01b0383168152604060208201819052600090611ae29083018461271d565b83815260008351612b328160208501602088016126f9565b60209201918201929092526040019392505050565b8082028115828204841417610589576105896129f9565b600080600080600060a08688031215612b7657600080fd5b855194506020860151935060408601519250606086015191506080860151612b9d816125a0565b809150509295509295909350565b600082612bba57612bba612a9d565b500690565b600060ff831680612bd257612bd2612a9d565b8060ff84160691505092915050565b600060ff831680612bf457612bf4612a9d565b8060ff84160491505092915050565b600181815b80851115612c3e578160001904821115612c2457612c246129f9565b80851615612c3157918102915b93841c9390800290612c08565b509250929050565b600082612c5557506001610589565b81612c6257506000610589565b8160018114612c785760028114612c8257612c9e565b6001915050610589565b60ff841115612c9357612c936129f9565b50506001821b610589565b5060208310610133831016604e8410600b8410161715612cc1575081810a610589565b612ccb8383612c03565b8060001904821115612cdf57612cdf6129f9565b029392505050565b60006105868383612c46565b60ff8281168282160390811115610589576105896129f956fea2646970667358221220316e73e7409331b8d3cfa1aedcda1b43e2008b33ea3bcb3dbcf6eb25b0dd2a5264736f6c63430008110033",
  "linkReferences": {},
  "deployedLinkReferences": {}
}