{
  "_format": "hh-sol-artifact-1",
  "contractName": "MerkleTreeWithHistory",
  "sourceName": "charonAMM/contracts/MerkleTreeWithHistory.sol",
  "abi": [
    {
      "inputs": [
        {
          "internalType": "uint32",
          "name": "_levels",
          "type": "uint32"
        },
        {
          "internalType": "address",
          "name": "_hasher",
          "type": "address"
        }
      ],
      "stateMutability": "nonpayable",
      "type": "constructor"
    },
    {
      "inputs": [],
      "name": "FIELD_SIZE",
      "outputs": [
        {
          "internalType": "uint256",
          "name": "",
          "type": "uint256"
        }
      ],
      "stateMutability": "view",
      "type": "function"
    },
    {
      "inputs": [],
      "name": "ROOT_HISTORY_SIZE",
      "outputs": [
        {
          "internalType": "uint32",
          "name": "",
          "type": "uint32"
        }
      ],
      "stateMutability": "view",
      "type": "function"
    },
    {
      "inputs": [],
      "name": "ZERO_VALUE",
      "outputs": [
        {
          "internalType": "uint256",
          "name": "",
          "type": "uint256"
        }
      ],
      "stateMutability": "view",
      "type": "function"
    },
    {
      "inputs": [
        {
          "internalType": "uint256",
          "name": "",
          "type": "uint256"
        }
      ],
      "name": "filledSubtrees",
      "outputs": [
        {
          "internalType": "bytes32",
          "name": "",
          "type": "bytes32"
        }
      ],
      "stateMutability": "view",
      "type": "function"
    },
    {
      "inputs": [],
      "name": "getLastRoot",
      "outputs": [
        {
          "internalType": "bytes32",
          "name": "",
          "type": "bytes32"
        }
      ],
      "stateMutability": "view",
      "type": "function"
    },
    {
      "inputs": [
        {
          "internalType": "uint256",
          "name": "_i",
          "type": "uint256"
        }
      ],
      "name": "getZeros",
      "outputs": [
        {
          "internalType": "bytes32",
          "name": "",
          "type": "bytes32"
        }
      ],
      "stateMutability": "view",
      "type": "function"
    },
    {
      "inputs": [
        {
          "internalType": "bytes32",
          "name": "_left",
          "type": "bytes32"
        },
        {
          "internalType": "bytes32",
          "name": "_right",
          "type": "bytes32"
        }
      ],
      "name": "hashLeftRight",
      "outputs": [
        {
          "internalType": "bytes32",
          "name": "",
          "type": "bytes32"
        }
      ],
      "stateMutability": "view",
      "type": "function"
    },
    {
      "inputs": [],
      "name": "hasher",
      "outputs": [
        {
          "internalType": "contract IHasher",
          "name": "",
          "type": "address"
        }
      ],
      "stateMutability": "view",
      "type": "function"
    },
    {
      "inputs": [
        {
          "internalType": "bytes32",
          "name": "_root",
          "type": "bytes32"
        }
      ],
      "name": "isKnownRoot",
      "outputs": [
        {
          "internalType": "bool",
          "name": "",
          "type": "bool"
        }
      ],
      "stateMutability": "view",
      "type": "function"
    },
    {
      "inputs": [],
      "name": "levels",
      "outputs": [
        {
          "internalType": "uint32",
          "name": "",
          "type": "uint32"
        }
      ],
      "stateMutability": "view",
      "type": "function"
    }
  ],
  "bytecode": "0x60c0604052600380546001600160401b031916905534801561002057600080fd5b5060405161097338038061097383398101604081905261003f916102f5565b60008263ffffffff16116100a65760405162461bcd60e51b815260206004820152602360248201527f5f6c6576656c732073686f756c642062652067726561746572207468616e207a60448201526265726f60e81b60648201526084015b60405180910390fd5b60208263ffffffff16106100fc5760405162461bcd60e51b815260206004820152601e60248201527f5f6c6576656c732073686f756c64206265206c657373207468616e2033320000604482015260640161009d565b63ffffffff821660a0526001600160a01b0381166080526000805260026020527f2fe54c60d3acabf3343a35b6eba15db4821b340f76e741e2249685ed4899af6c7fac33ff75c19e70fe83507db0d683fd3465c996598dc972688b7ace676c89077b5560015b60208163ffffffff161161026357816001600160a01b031663299e566060405180604001604052806002600060018761019b919061035a565b63ffffffff168152602001908152602001600020548152602001600260006001876101c6919061035a565b63ffffffff168152602001908152602001600020548152506040518263ffffffff1660e01b81526004016101fa919061037e565b602060405180830381865afa158015610217573d6000803e3d6000fd5b505050506040513d601f19601f8201168201806040525081019061023b91906103af565b63ffffffff82166000908152600260205260409020558061025b816103c8565b915050610162565b5060005b8263ffffffff168163ffffffff1610156102ae5763ffffffff81166000908152600260209081526040808320549183905290912055806102a6816103c8565b915050610267565b505063ffffffff166000908152600260209081526040822054918052600190527fa6eef7e35abe7026729641147f7915573c7e97b47efa546f5f6e3230263bcb49556103eb565b6000806040838503121561030857600080fd5b825163ffffffff8116811461031c57600080fd5b60208401519092506001600160a01b038116811461033957600080fd5b809150509250929050565b634e487b7160e01b600052601160045260246000fd5b63ffffffff82811682821603908082111561037757610377610344565b5092915050565b60408101818360005b60028110156103a6578151835260209283019290910190600101610387565b50505092915050565b6000602082840312156103c157600080fd5b5051919050565b600063ffffffff8083168181036103e1576103e1610344565b6001019392505050565b60805160a05161055d610416600039600060d301526000818161019101526102d7015261055d6000f3fe608060405234801561001057600080fd5b506004361061008e5760003560e01c806338bf282e14610093578063414a37ba146100b95780634ecf518b146100ce57806367fb329b1461010a5780636d9833e31461011d578063ba70f75714610140578063cd87a3b41461015d578063ec73295914610165578063ed33639f1461018c578063f178e47c146101cb575b600080fd5b6100a66100a1366004610454565b6101eb565b6040519081526020015b60405180910390f35b6100a660008051602061050883398151915281565b6100f57f000000000000000000000000000000000000000000000000000000000000000081565b60405163ffffffff90911681526020016100b0565b6100a6610118366004610476565b61035d565b61013061012b366004610476565b6103b8565b60405190151581526020016100b0565b60035463ffffffff166000908152600160205260409020546100a6565b6100f5606481565b6100a67f2fe54c60d3acabf3343a35b6eba15db4821b340f76e741e2249685ed4899af6c81565b6101b37f000000000000000000000000000000000000000000000000000000000000000081565b6040516001600160a01b0390911681526020016100b0565b6100a66101d9366004610476565b60006020819052908152604090205481565b6000600080516020610508833981519152831061024f5760405162461bcd60e51b815260206004820181905260248201527f5f6c6566742073686f756c6420626520696e7369646520746865206669656c6460448201526064015b60405180910390fd5b60008051602061050883398151915282106102b65760405162461bcd60e51b815260206004820152602160248201527f5f72696768742073686f756c6420626520696e7369646520746865206669656c6044820152601960fa1b6064820152608401610246565b6102be610436565b8381526020810183905260405163014cf2b360e51b81527f00000000000000000000000000000000000000000000000000000000000000006001600160a01b03169063299e56609061031490849060040161048f565b602060405180830381865afa158015610331573d6000803e3d6000fd5b505050506040513d601f19601f8201168201806040525081019061035591906104c0565b949350505050565b60006020821161037a575060009081526002602052604090205490565b60405162461bcd60e51b8152602060048201526013602482015272496e646578206f7574206f6620626f756e647360681b6044820152606401610246565b60008181036103c957506000919050565b60035463ffffffff16805b63ffffffff811660009081526001602052604090205484036103fa575060019392505050565b8063ffffffff1660000361040c575060645b80610416816104d9565b9150508163ffffffff168163ffffffff16036103d4575060009392505050565b60405180604001604052806002906020820280368337509192915050565b6000806040838503121561046757600080fd5b50508035926020909101359150565b60006020828403121561048857600080fd5b5035919050565b60408101818360005b60028110156104b7578151835260209283019290910190600101610498565b50505092915050565b6000602082840312156104d257600080fd5b5051919050565b600063ffffffff8216806104fd57634e487b7160e01b600052601160045260246000fd5b600019019291505056fe30644e72e131a029b85045b68181585d2833e84879b9709143e1f593f0000001a2646970667358221220070697dcf248614e2c885e3a7c413a7cb0a91b8ee0de1c112e264a10685ff22264736f6c63430008110033",
  "linkReferences": {},
  "deployedLinkReferences": {}
}