{
  "_format": "hh-sol-artifact-1",
  "contractName": "ICheckpointManager",
  "sourceName": "charonAMM/contracts/bridges/extensions/FxBaseRootTunnel.sol",
  "abi": [
    {
      "inputs": [
        {
          "internalType": "uint256",
          "name": "",
          "type": "uint256"
        }
      ],
      "name": "headerBlocks",
      "outputs": [
        {
          "internalType": "bytes32",
          "name": "root",
          "type": "bytes32"
        },
        {
          "internalType": "uint256",
          "name": "start",
          "type": "uint256"
        },
        {
          "internalType": "uint256",
          "name": "end",
          "type": "uint256"
        },
        {
          "internalType": "uint256",
          "name": "createdAt",
          "type": "uint256"
        },
        {
          "internalType": "address",
          "name": "proposer",
          "type": "address"
        }
      ],
      "stateMutability": "view",
      "type": "function"
    }
  ],
  "bytecode": "0x608060405234801561001057600080fd5b5060f38061001f6000396000f3fe6080604052348015600f57600080fd5b506004361060285760003560e01c806341539d4a14602d575b600080fd5b6070603836600460a5565b60006020819052908152604090208054600182015460028301546003840154600490940154929391929091906001600160a01b031685565b6040805195865260208601949094529284019190915260608301526001600160a01b0316608082015260a00160405180910390f35b60006020828403121560b657600080fd5b503591905056fea2646970667358221220f26b509cc6e52a7d5fc4ee87ebca7e156315318611cd65215630941fb6067fc164736f6c63430008110033",
  "linkReferences": {},
  "deployedLinkReferences": {}
}