{
  "_format": "hh-sol-artifact-1",
  "contractName": "MerkleTree",
  "sourceName": "feeContract/contracts/helpers/MerkleTree.sol",
  "abi": [
    {
      "inputs": [
        {
          "internalType": "bytes32[]",
          "name": "_inputs",
          "type": "bytes32[]"
        }
      ],
      "name": "getRootHash",
      "outputs": [
        {
          "internalType": "bytes32",
          "name": "",
          "type": "bytes32"
        }
      ],
      "stateMutability": "pure",
      "type": "function"
    }
  ],
  "bytecode": "0x608060405234801561001057600080fd5b5061046e806100206000396000f3fe608060405234801561001057600080fd5b506004361061002b5760003560e01c80633a608e6514610030575b600080fd5b61004361003e3660046102d7565b610055565b60405190815260200160405180910390f35b80516000906001819003610086578260008151811061007657610076610394565b6020026020010151915050919050565b60006100936002836103c0565b61009e6002846103ea565b6100a891906103fe565b6001600160401b038111156100bf576100bf6102c1565b6040519080825280602002602001820160405280156100e8578160200160208202803683370190505b5090506000806100f9600185610417565b905060016000805b821561019d5788858151811061011957610119610394565b602002602001015190508385600161013191906103fe565b111561016757808160405160200161014a92919061042a565b60405160208183030381529060405280519060200120915061022f565b80896101748760016103fe565b8151811061018457610184610394565b602002602001015160405160200161014a92919061042a565b8585815181106101af576101af610394565b60200260200101519050838560016101c791906103fe565b11156101e057808160405160200161014a92919061042a565b80866101ed8760016103fe565b815181106101fd576101fd610394565b602002602001015160405160200161021692919061042a565b6040516020818303038152906040528051906020012091505b818661023c6002886103ea565b8151811061024c5761024c610394565b60209081029190910101526102626002866103fe565b9450838511156102935760026102788187610417565b61028291906103ea565b935083156102985760009450600092505b610101565b856000815181106102ab576102ab610394565b6020026020010151975050505050505050919050565b634e487b7160e01b600052604160045260246000fd5b600060208083850312156102ea57600080fd5b82356001600160401b038082111561030157600080fd5b818501915085601f83011261031557600080fd5b813581811115610327576103276102c1565b8060051b604051601f19603f8301168101818110858211171561034c5761034c6102c1565b60405291825284820192508381018501918883111561036a57600080fd5b938501935b828510156103885784358452938501939285019261036f565b98975050505050505050565b634e487b7160e01b600052603260045260246000fd5b634e487b7160e01b600052601260045260246000fd5b6000826103cf576103cf6103aa565b500690565b634e487b7160e01b600052601160045260246000fd5b6000826103f9576103f96103aa565b500490565b80820180821115610411576104116103d4565b92915050565b81810381811115610411576104116103d4565b91825260208201526040019056fea2646970667358221220688037069a6438976e2f3460ddde07d3a25ebdbfe1229e6eefca4551f1ce35fb64736f6c63430008110033",
  "linkReferences": {},
  "deployedLinkReferences": {}
}