{
  "_format": "hh-sol-artifact-1",
  "contractName": "MerkleTree",
  "sourceName": "feeContract/contracts/helpers/MerkleTree.sol",
  "abi": [
    {
      "inputs": [
        {
          "internalType": "bytes32[]",
          "name": "_inputs",
          "type": "bytes32[]"
        }
      ],
      "name": "getRootHash",
      "outputs": [
        {
          "internalType": "bytes32",
          "name": "",
          "type": "bytes32"
        }
      ],
      "stateMutability": "pure",
      "type": "function"
    }
  ],
  "bytecode": "0x608060405234801561001057600080fd5b5061047c806100206000396000f3fe608060405234801561001057600080fd5b506004361061002b5760003560e01c80633a608e6514610030575b600080fd5b61004361003e3660046102f2565b610055565b60405190815260200160405180910390f35b805160009060018190036100865782600081518110610076576100766103b0565b6020026020010151915050919050565b60006100936002836103dc565b61009e600284610406565b6100a8919061041a565b67ffffffffffffffff8111156100c0576100c06102dc565b6040519080825280602002602001820160405280156100e9578160200160208202803683370190505b5090506000806100fa600185610433565b905060016000805b82156101a95788858151811061011a5761011a6103b0565b6020026020010151905083856001610132919061041a565b111561016a5760408051602081018390529081018290526060015b60405160208183030381529060405280519060200120915061024a565b808961017787600161041a565b81518110610187576101876103b0565b602002602001015160405160200161014d929190918252602082015260400190565b8585815181106101bb576101bb6103b0565b60200260200101519050838560016101d3919061041a565b11156101f257604080516020810183905290810182905260600161014d565b80866101ff87600161041a565b8151811061020f5761020f6103b0565b6020026020010151604051602001610231929190918252602082015260400190565b6040516020818303038152906040528051906020012091505b8186610257600288610406565b81518110610267576102676103b0565b602090810291909101015261027d60028661041a565b9450838511156102ae5760026102938187610433565b61029d9190610406565b935083156102b35760009450600092505b610102565b856000815181106102c6576102c66103b0565b6020026020010151975050505050505050919050565b634e487b7160e01b600052604160045260246000fd5b6000602080838503121561030557600080fd5b823567ffffffffffffffff8082111561031d57600080fd5b818501915085601f83011261033157600080fd5b813581811115610343576103436102dc565b8060051b604051601f19603f83011681018181108582111715610368576103686102dc565b60405291825284820192508381018501918883111561038657600080fd5b938501935b828510156103a45784358452938501939285019261038b565b98975050505050505050565b634e487b7160e01b600052603260045260246000fd5b634e487b7160e01b600052601260045260246000fd5b6000826103eb576103eb6103c6565b500690565b634e487b7160e01b600052601160045260246000fd5b600082610415576104156103c6565b500490565b8082018082111561042d5761042d6103f0565b92915050565b8181038181111561042d5761042d6103f056fea2646970667358221220147ed1a2953efce6481058ab9d39317638b060fbdf623d09b9a1631bcd9d792b64736f6c63430008110033",
  "linkReferences": {},
  "deployedLinkReferences": {}
}