{
  "_format": "hh-sol-artifact-1",
  "contractName": "TellorBridge",
  "sourceName": "contracts/FlatTellorBridge.sol",
  "abi": [
    {
      "inputs": [
        {
          "internalType": "address payable",
          "name": "_tellor",
          "type": "address"
        }
      ],
      "stateMutability": "nonpayable",
      "type": "constructor"
    },
    {
      "inputs": [],
      "name": "charon",
      "outputs": [
        {
          "internalType": "address",
          "name": "",
          "type": "address"
        }
      ],
      "stateMutability": "view",
      "type": "function"
    },
    {
      "inputs": [],
      "name": "connectedChainId",
      "outputs": [
        {
          "internalType": "uint256",
          "name": "",
          "type": "uint256"
        }
      ],
      "stateMutability": "view",
      "type": "function"
    },
    {
      "inputs": [
        {
          "internalType": "bytes",
          "name": "_inputData",
          "type": "bytes"
        }
      ],
      "name": "getCommitment",
      "outputs": [
        {
          "internalType": "bytes",
          "name": "_value",
          "type": "bytes"
        },
        {
          "internalType": "address",
          "name": "_caller",
          "type": "address"
        }
      ],
      "stateMutability": "view",
      "type": "function"
    },
    {
      "inputs": [
        {
          "internalType": "bytes32",
          "name": "_queryId",
          "type": "bytes32"
        },
        {
          "internalType": "uint256",
          "name": "_timestamp",
          "type": "uint256"
        }
      ],
      "name": "getDataAfter",
      "outputs": [
        {
          "internalType": "bytes",
          "name": "_value",
          "type": "bytes"
        },
        {
          "internalType": "uint256",
          "name": "_timestampRetrieved",
          "type": "uint256"
        }
      ],
      "stateMutability": "view",
      "type": "function"
    },
    {
      "inputs": [
        {
          "internalType": "bytes32",
          "name": "_queryId",
          "type": "bytes32"
        },
        {
          "internalType": "uint256",
          "name": "_timestamp",
          "type": "uint256"
        }
      ],
      "name": "getDataBefore",
      "outputs": [
        {
          "internalType": "bytes",
          "name": "_value",
          "type": "bytes"
        },
        {
          "internalType": "uint256",
          "name": "_timestampRetrieved",
          "type": "uint256"
        }
      ],
      "stateMutability": "view",
      "type": "function"
    },
    {
      "inputs": [
        {
          "internalType": "bytes32",
          "name": "_queryId",
          "type": "bytes32"
        },
        {
          "internalType": "uint256",
          "name": "_timestamp",
          "type": "uint256"
        }
      ],
      "name": "getIndexForDataAfter",
      "outputs": [
        {
          "internalType": "bool",
          "name": "_found",
          "type": "bool"
        },
        {
          "internalType": "uint256",
          "name": "_index",
          "type": "uint256"
        }
      ],
      "stateMutability": "view",
      "type": "function"
    },
    {
      "inputs": [
        {
          "internalType": "bytes32",
          "name": "_queryId",
          "type": "bytes32"
        },
        {
          "internalType": "uint256",
          "name": "_timestamp",
          "type": "uint256"
        }
      ],
      "name": "getIndexForDataBefore",
      "outputs": [
        {
          "internalType": "bool",
          "name": "_found",
          "type": "bool"
        },
        {
          "internalType": "uint256",
          "name": "_index",
          "type": "uint256"
        }
      ],
      "stateMutability": "view",
      "type": "function"
    },
    {
      "inputs": [
        {
          "internalType": "bytes32",
          "name": "_queryId",
          "type": "bytes32"
        },
        {
          "internalType": "uint256",
          "name": "_timestamp",
          "type": "uint256"
        },
        {
          "internalType": "uint256",
          "name": "_maxAge",
          "type": "uint256"
        },
        {
          "internalType": "uint256",
          "name": "_maxCount",
          "type": "uint256"
        }
      ],
      "name": "getMultipleValuesBefore",
      "outputs": [
        {
          "internalType": "bytes[]",
          "name": "_values",
          "type": "bytes[]"
        },
        {
          "internalType": "uint256[]",
          "name": "_timestamps",
          "type": "uint256[]"
        }
      ],
      "stateMutability": "view",
      "type": "function"
    },
    {
      "inputs": [
        {
          "internalType": "bytes32",
          "name": "_queryId",
          "type": "bytes32"
        }
      ],
      "name": "getNewValueCountbyQueryId",
      "outputs": [
        {
          "internalType": "uint256",
          "name": "",
          "type": "uint256"
        }
      ],
      "stateMutability": "view",
      "type": "function"
    },
    {
      "inputs": [
        {
          "internalType": "bytes32",
          "name": "_queryId",
          "type": "bytes32"
        },
        {
          "internalType": "uint256",
          "name": "_timestamp",
          "type": "uint256"
        }
      ],
      "name": "getReporterByTimestamp",
      "outputs": [
        {
          "internalType": "address",
          "name": "",
          "type": "address"
        }
      ],
      "stateMutability": "view",
      "type": "function"
    },
    {
      "inputs": [
        {
          "internalType": "uint256",
          "name": "_timestamp",
          "type": "uint256"
        },
        {
          "internalType": "uint256",
          "name": "_chainID",
          "type": "uint256"
        },
        {
          "internalType": "address",
          "name": "_address",
          "type": "address"
        }
      ],
      "name": "getRootHashAndSupply",
      "outputs": [
        {
          "internalType": "bytes",
          "name": "_value",
          "type": "bytes"
        }
      ],
      "stateMutability": "view",
      "type": "function"
    },
    {
      "inputs": [
        {
          "internalType": "bytes32",
          "name": "_queryId",
          "type": "bytes32"
        },
        {
          "internalType": "uint256",
          "name": "_index",
          "type": "uint256"
        }
      ],
      "name": "getTimestampbyQueryIdandIndex",
      "outputs": [
        {
          "internalType": "uint256",
          "name": "",
          "type": "uint256"
        }
      ],
      "stateMutability": "view",
      "type": "function"
    },
    {
      "inputs": [],
      "name": "idMappingContract",
      "outputs": [
        {
          "internalType": "contract IMappingContract",
          "name": "",
          "type": "address"
        }
      ],
      "stateMutability": "view",
      "type": "function"
    },
    {
      "inputs": [
        {
          "internalType": "bytes32",
          "name": "_queryId",
          "type": "bytes32"
        },
        {
          "internalType": "uint256",
          "name": "_timestamp",
          "type": "uint256"
        }
      ],
      "name": "isInDispute",
      "outputs": [
        {
          "internalType": "bool",
          "name": "",
          "type": "bool"
        }
      ],
      "stateMutability": "view",
      "type": "function"
    },
    {
      "inputs": [
        {
          "internalType": "bytes32",
          "name": "_queryId",
          "type": "bytes32"
        },
        {
          "internalType": "uint256",
          "name": "_timestamp",
          "type": "uint256"
        }
      ],
      "name": "retrieveData",
      "outputs": [
        {
          "internalType": "bytes",
          "name": "",
          "type": "bytes"
        }
      ],
      "stateMutability": "view",
      "type": "function"
    },
    {
      "inputs": [
        {
          "internalType": "bytes",
          "name": "_data",
          "type": "bytes"
        }
      ],
      "name": "sendCommitment",
      "outputs": [],
      "stateMutability": "nonpayable",
      "type": "function"
    },
    {
      "inputs": [
        {
          "internalType": "address",
          "name": "_addy",
          "type": "address"
        }
      ],
      "name": "setIdMappingContract",
      "outputs": [],
      "stateMutability": "nonpayable",
      "type": "function"
    },
    {
      "inputs": [
        {
          "internalType": "address",
          "name": "_charon",
          "type": "address"
        },
        {
          "internalType": "uint256",
          "name": "_connectedChainId",
          "type": "uint256"
        }
      ],
      "name": "setPartnerInfo",
      "outputs": [],
      "stateMutability": "nonpayable",
      "type": "function"
    },
    {
      "inputs": [],
      "name": "tellor",
      "outputs": [
        {
          "internalType": "contract ITellor",
          "name": "",
          "type": "address"
        }
      ],
      "stateMutability": "view",
      "type": "function"
    },
    {
      "inputs": [
        {
          "internalType": "bytes32",
          "name": "_id",
          "type": "bytes32"
        }
      ],
      "name": "valueFor",
      "outputs": [
        {
          "internalType": "int256",
          "name": "_value",
          "type": "int256"
        },
        {
          "internalType": "uint256",
          "name": "_timestamp",
          "type": "uint256"
        },
        {
          "internalType": "uint256",
          "name": "_statusCode",
          "type": "uint256"
        }
      ],
      "stateMutability": "view",
      "type": "function"
    }
  ],
  "bytecode": "0x608060405234801561001057600080fd5b5060405161166938038061166983398101604081905261002f91610054565b600080546001600160a01b0319166001600160a01b0392909216919091179055610084565b60006020828403121561006657600080fd5b81516001600160a01b038116811461007d57600080fd5b9392505050565b6115d6806100936000396000f3fe608060405234801561001057600080fd5b50600436106100fc5760003560e01c8063193b505b146101015780631959ad5b1461011657806329449085146101465780632af8aae01461017057806344e87f911461018357806351e3aea9146101a657806356bebf54146101b757806364ee3c6d146101ca5780636b2fd905146101eb57806376fa25901461020c57806377b03e0d14610223578063a792765f14610236578063b6f6869e14610249578063c5958af914610269578063ce5e11bf1461027c578063e07c54861461028f578063f66f49c3146102a2578063f78eea83146102b5578063fc571a5c146102e3578063fcd4a546146102f6575b600080fd5b61011461010f366004610fa2565b610317565b005b600054610129906001600160a01b031681565b6040516001600160a01b0390911681526020015b60405180910390f35b610159610154366004610fc6565b61034f565b60408051921515835260208301919091520161013d565b600154610129906001600160a01b031681565b610196610191366004610fc6565b6103ce565b604051901515815260200161013d565b6101146101b4366004611055565b50565b6101146101c53660046110d4565b61044b565b6101dd6101d8366004610fc6565b610487565b60405161013d929190611150565b6101fe6101f9366004611055565b6104e0565b60405161013d929190611172565b61021560035481565b60405190815260200161013d565b61021561023136600461119c565b6106b3565b6101dd610244366004610fc6565b610721565b61025c6102573660046111b5565b6107a7565b60405161013d91906111ee565b61025c610277366004610fc6565b610868565b61021561028a366004610fc6565b6108e0565b61012961029d366004610fc6565b610954565b6101596102b0366004610fc6565b6109c8565b6102c86102c336600461119c565b610b85565b6040805193845260208401929092529082015260600161013d565b600254610129906001600160a01b031681565b610309610304366004611201565b610c4a565b60405161013d929190611233565b6001546001600160a01b03161561032d57600080fd5b600180546001600160a01b0319166001600160a01b0392909216919091179055565b60008054604051632944908560e01b815282916001600160a01b03169063294490859061038290879087906004016112ce565b6040805180830381865afa15801561039e573d6000803e3d6000fd5b505050506040513d601f19601f820116820180604052508101906103c291906112f1565b915091505b9250929050565b600080546040516344e87f9160e01b81526001600160a01b03909116906344e87f919061040190869086906004016112ce565b602060405180830381865afa15801561041e573d6000803e3d6000fd5b505050506040513d601f19601f82011682018060405250810190610442919061131d565b90505b92915050565b6002546001600160a01b03161561046157600080fd5b600280546001600160a01b0319166001600160a01b039390931692909217909155600355565b6060600080600061049886866109c8565b91509150816104bf57600060405180602001604052806000815250909350935050506103c7565b6104c986826108e0565b92506104d58684610868565b935050509250929050565b6002546060906000906001600160a01b03166105425760405162461bcd60e51b815260206004820152601c60248201527b18da185c9bdb881859191c995cdcc81cda1bdd5b19081899481cd95d60221b60448201526064015b60405180910390fd5b600080848060200190518101906105599190611338565b905060007f15e1b702c3013cad746078c5fa0edabbf197cdb6d1ecd5f8eb1aac43ea3186288260405160240161059191815260200190565b60408051601f19818403018152918152602080830180516001600160e01b03166001600160e01b03199095169490941790935260035460025491519294506000936105ea9391926001600160a01b031691869101611351565b60408051601f198184030181529082905261060791602001611384565b6040516020818303038152906040528051906020012090506106318161a8c04261024491906113cb565b60005460405163703e2a4360e11b81529298509095506001600160a01b03169063e07c54869061066790849088906004016112ce565b602060405180830381865afa158015610684573d6000803e3d6000fd5b505050506040513d601f19601f820116820180604052508101906106a891906113de565b945050505050915091565b600080546040516377b03e0d60e01b8152600481018490526001600160a01b03909116906377b03e0d90602401602060405180830381865afa1580156106fd573d6000803e3d6000fd5b505050506040513d601f19601f820116820180604052508101906104459190611338565b6000805460405163a792765f60e01b8152606092916001600160a01b03169063a792765f9061075690879087906004016112ce565b600060405180830381865afa158015610773573d6000803e3d6000fd5b505050506040513d6000823e601f3d908101601f1916820160405261079b9190810190611448565b90969095509350505050565b60408051602081018490526001600160a01b03831681830152606080820186905282518083038201815260808301909352916000916107e9919060a00161149f565b6040516020818303038152906040528051906020012090506108138161a8c04261024491906113cb565b95509150846108605760405162461bcd60e51b81526020600482015260196024820152781d1a5b595cdd185b5c081b5d5cdd081899481c1c995cd95b9d603a1b6044820152606401610539565b509392505050565b60005460405163c5958af960e01b81526060916001600160a01b03169063c5958af99061089b90869086906004016112ce565b600060405180830381865afa1580156108b8573d6000803e3d6000fd5b505050506040513d6000823e601f3d908101601f1916820160405261044291908101906114da565b6000805460405163ce5e11bf60e01b81526001600160a01b039091169063ce5e11bf9061091390869086906004016112ce565b602060405180830381865afa158015610930573d6000803e3d6000fd5b505050506040513d601f19601f820116820180604052508101906104429190611338565b6000805460405163703e2a4360e11b81526001600160a01b039091169063e07c54869061098790869086906004016112ce565b602060405180830381865afa1580156109a4573d6000803e3d6000fd5b505050506040513d601f19601f8201168201806040525081019061044291906113de565b60008060006109d6856106b3565b9050806000036109ed5760008092509250506103c7565b806109f78161150e565b9150600190506000808381610a0c8a836108e0565b9050888111610a2757600080975097505050505050506103c7565b610a318a846108e0565b905088811115610a4057600094505b8415610af0576002610a528484611525565b610a5c9190611538565b9350610a688a856108e0565b905088811115610aa9576000610a838b61028a6001886113cb565b9050898111610a955760009550610aa3565b610aa06001866113cb565b92505b50610a40565b6000610aba8b61028a876001611525565b905089811115610add576000955084610ad28161155a565b955050809150610aa3565b610ae8856001611525565b935050610a40565b610afa8a826103ce565b610b1057600184975097505050505050506103c7565b610b1a8a826103ce565b8015610b2557508584105b15610b485783610b348161155a565b945050610b418a856108e0565b9050610b10565b8584148015610b5c5750610b5c8a826103ce565b15610b7357600080975097505050505050506103c7565b600184975097505050505050506103c7565b6001546040516387a475fd60e01b8152600481018390526000918291829182916001600160a01b03909116906387a475fd90602401602060405180830381865afa158015610bd7573d6000803e3d6000fd5b505050506040513d601f19601f82011682018060405250810190610bfb9190611338565b90506060610c0e82610244426001611525565b945090506000849003610c2e576000806101949450945094505050610c43565b6000610c3982610f36565b955060c893505050505b9193909250565b606080600080610c5e886102b0888a6113cb565b9150915081610caf576040805160008082526020820190925290610c92565b6060815260200190600190039081610c7d5790505b506040805160008152602081019091529094509250610f2d915050565b6000610cbb898961034f565b909350905082610d0e576040805160008082526020820190925290610cf0565b6060815260200190600190039081610cdb5790505b506040805160008152602081019091529095509350610f2d92505050565b6000806000886001600160401b03811115610d2b57610d2b610fe8565b604051908082528060200260200182016040528015610d54578160200160208202803683370190505b5090505b8883108015610d7b57508482610d6f866001611525565b610d7991906113cb565b115b15610ddf576000610d908d61028a85886113cb565b9050610d9c8d826103ce565b610dcc5780828581518110610db357610db3611573565b602090810291909101015283610dc88161155a565b9450505b82610dd68161155a565b93505050610d58565b6000836001600160401b03811115610df957610df9610fe8565b604051908082528060200260200182016040528015610e2c57816020015b6060815260200190600190039081610e175790505b5090506000846001600160401b03811115610e4957610e49610fe8565b604051908082528060200260200182016040528015610e72578160200160208202803683370190505b50905060005b85811015610f20578381610e8d6001896113cb565b610e9791906113cb565b81518110610ea757610ea7611573565b6020026020010151828281518110610ec157610ec1611573565b602002602001018181525050610ef08f838381518110610ee357610ee3611573565b6020026020010151610868565b838281518110610f0257610f02611573565b60200260200101819052508080610f189061155a565b915050610e78565b5090985096505050505050505b94509492505050565b6000805b8251811015610f8757828181518110610f5557610f55611573565b016020015160f81c610f6983610100611589565b610f739190611525565b915080610f7f8161155a565b915050610f3a565b50919050565b6001600160a01b03811681146101b457600080fd5b600060208284031215610fb457600080fd5b8135610fbf81610f8d565b9392505050565b60008060408385031215610fd957600080fd5b50508035926020909101359150565b634e487b7160e01b600052604160045260246000fd5b604051601f8201601f191681016001600160401b038111828210171561102657611026610fe8565b604052919050565b60006001600160401b0382111561104757611047610fe8565b50601f01601f191660200190565b60006020828403121561106757600080fd5b81356001600160401b0381111561107d57600080fd5b8201601f8101841361108e57600080fd5b80356110a161109c8261102e565b610ffe565b8181528560208385010111156110b657600080fd5b81602084016020830137600091810160200191909152949350505050565b600080604083850312156110e757600080fd5b82356110f281610f8d565b946020939093013593505050565b60005b8381101561111b578181015183820152602001611103565b50506000910152565b6000815180845261113c816020860160208601611100565b601f01601f19169290920160200192915050565b6040815260006111636040830185611124565b90508260208301529392505050565b6040815260006111856040830185611124565b905060018060a01b03831660208301529392505050565b6000602082840312156111ae57600080fd5b5035919050565b6000806000606084860312156111ca57600080fd5b833592506020840135915060408401356111e381610f8d565b809150509250925092565b6020815260006104426020830184611124565b6000806000806080858703121561121757600080fd5b5050823594602084013594506040840135936060013592509050565b6000604082016040835280855180835260608501915060608160051b8601019250602080880160005b8381101561128a57605f19888703018552611278868351611124565b9550938201939082019060010161125c565b50508584038187015286518085528782019482019350915060005b828110156112c1578451845293810193928101926001016112a5565b5091979650505050505050565b918252602082015260400190565b805180151581146112ec57600080fd5b919050565b6000806040838503121561130457600080fd5b61130d836112dc565b9150602083015190509250929050565b60006020828403121561132f57600080fd5b610442826112dc565b60006020828403121561134a57600080fd5b5051919050565b8381526001600160a01b038316602082015260606040820181905260009061137b90830184611124565b95945050505050565b60408152600760408201526611559350d85b1b60ca1b60608201526080602082015260006104426080830184611124565b634e487b7160e01b600052601160045260246000fd5b81810381811115610445576104456113b5565b6000602082840312156113f057600080fd5b8151610fbf81610f8d565b600082601f83011261140c57600080fd5b815161141a61109c8261102e565b81815284602083860101111561142f57600080fd5b611440826020830160208701611100565b949350505050565b60008060006060848603121561145d57600080fd5b611466846112dc565b60208501519093506001600160401b0381111561148257600080fd5b61148e868287016113fb565b925050604084015190509250925092565b60408152601160408201527043726f7373436861696e42616c616e636560781b60608201526080602082015260006104426080830184611124565b6000602082840312156114ec57600080fd5b81516001600160401b0381111561150257600080fd5b611440848285016113fb565b60008161151d5761151d6113b5565b506000190190565b80820180821115610445576104456113b5565b60008261155557634e487b7160e01b600052601260045260246000fd5b500490565b60006001820161156c5761156c6113b5565b5060010190565b634e487b7160e01b600052603260045260246000fd5b8082028115828204841417610445576104456113b556fea26469706673582212201d17acea0f5c74cc6ad5d488306816d0c67f94f0091d89d1f9b374c2de21ef2964736f6c63430008110033",
  "linkReferences": {},
  "deployedLinkReferences": {}
}