{
  "_format": "hh-sol-artifact-1",
  "contractName": "TellorBridge",
  "sourceName": "contracts/FlatTellorBridge.sol",
  "abi": [
    {
      "inputs": [
        {
          "internalType": "address payable",
          "name": "_tellor",
          "type": "address"
        }
      ],
      "stateMutability": "nonpayable",
      "type": "constructor"
    },
    {
      "inputs": [],
      "name": "charon",
      "outputs": [
        {
          "internalType": "address",
          "name": "",
          "type": "address"
        }
      ],
      "stateMutability": "view",
      "type": "function"
    },
    {
      "inputs": [],
      "name": "connectedChainId",
      "outputs": [
        {
          "internalType": "uint256",
          "name": "",
          "type": "uint256"
        }
      ],
      "stateMutability": "view",
      "type": "function"
    },
    {
      "inputs": [
        {
          "internalType": "bytes",
          "name": "_inputData",
          "type": "bytes"
        }
      ],
      "name": "getCommitment",
      "outputs": [
        {
          "internalType": "bytes",
          "name": "_value",
          "type": "bytes"
        },
        {
          "internalType": "address",
          "name": "_caller",
          "type": "address"
        }
      ],
      "stateMutability": "view",
      "type": "function"
    },
    {
      "inputs": [
        {
          "internalType": "bytes32",
          "name": "_queryId",
          "type": "bytes32"
        },
        {
          "internalType": "uint256",
          "name": "_timestamp",
          "type": "uint256"
        }
      ],
      "name": "getDataAfter",
      "outputs": [
        {
          "internalType": "bytes",
          "name": "_value",
          "type": "bytes"
        },
        {
          "internalType": "uint256",
          "name": "_timestampRetrieved",
          "type": "uint256"
        }
      ],
      "stateMutability": "view",
      "type": "function"
    },
    {
      "inputs": [
        {
          "internalType": "bytes32",
          "name": "_queryId",
          "type": "bytes32"
        },
        {
          "internalType": "uint256",
          "name": "_timestamp",
          "type": "uint256"
        }
      ],
      "name": "getDataBefore",
      "outputs": [
        {
          "internalType": "bytes",
          "name": "_value",
          "type": "bytes"
        },
        {
          "internalType": "uint256",
          "name": "_timestampRetrieved",
          "type": "uint256"
        }
      ],
      "stateMutability": "view",
      "type": "function"
    },
    {
      "inputs": [
        {
          "internalType": "bytes32",
          "name": "_queryId",
          "type": "bytes32"
        },
        {
          "internalType": "uint256",
          "name": "_timestamp",
          "type": "uint256"
        }
      ],
      "name": "getIndexForDataAfter",
      "outputs": [
        {
          "internalType": "bool",
          "name": "_found",
          "type": "bool"
        },
        {
          "internalType": "uint256",
          "name": "_index",
          "type": "uint256"
        }
      ],
      "stateMutability": "view",
      "type": "function"
    },
    {
      "inputs": [
        {
          "internalType": "bytes32",
          "name": "_queryId",
          "type": "bytes32"
        },
        {
          "internalType": "uint256",
          "name": "_timestamp",
          "type": "uint256"
        }
      ],
      "name": "getIndexForDataBefore",
      "outputs": [
        {
          "internalType": "bool",
          "name": "_found",
          "type": "bool"
        },
        {
          "internalType": "uint256",
          "name": "_index",
          "type": "uint256"
        }
      ],
      "stateMutability": "view",
      "type": "function"
    },
    {
      "inputs": [
        {
          "internalType": "bytes32",
          "name": "_queryId",
          "type": "bytes32"
        },
        {
          "internalType": "uint256",
          "name": "_timestamp",
          "type": "uint256"
        },
        {
          "internalType": "uint256",
          "name": "_maxAge",
          "type": "uint256"
        },
        {
          "internalType": "uint256",
          "name": "_maxCount",
          "type": "uint256"
        }
      ],
      "name": "getMultipleValuesBefore",
      "outputs": [
        {
          "internalType": "bytes[]",
          "name": "_values",
          "type": "bytes[]"
        },
        {
          "internalType": "uint256[]",
          "name": "_timestamps",
          "type": "uint256[]"
        }
      ],
      "stateMutability": "view",
      "type": "function"
    },
    {
      "inputs": [
        {
          "internalType": "bytes32",
          "name": "_queryId",
          "type": "bytes32"
        }
      ],
      "name": "getNewValueCountbyQueryId",
      "outputs": [
        {
          "internalType": "uint256",
          "name": "",
          "type": "uint256"
        }
      ],
      "stateMutability": "view",
      "type": "function"
    },
    {
      "inputs": [
        {
          "internalType": "bytes32",
          "name": "_queryId",
          "type": "bytes32"
        },
        {
          "internalType": "uint256",
          "name": "_timestamp",
          "type": "uint256"
        }
      ],
      "name": "getReporterByTimestamp",
      "outputs": [
        {
          "internalType": "address",
          "name": "",
          "type": "address"
        }
      ],
      "stateMutability": "view",
      "type": "function"
    },
    {
      "inputs": [
        {
          "internalType": "uint256",
          "name": "_timestamp",
          "type": "uint256"
        },
        {
          "internalType": "uint256",
          "name": "_chainID",
          "type": "uint256"
        },
        {
          "internalType": "address",
          "name": "_address",
          "type": "address"
        }
      ],
      "name": "getRootHashAndSupply",
      "outputs": [
        {
          "internalType": "bytes",
          "name": "_value",
          "type": "bytes"
        }
      ],
      "stateMutability": "view",
      "type": "function"
    },
    {
      "inputs": [
        {
          "internalType": "bytes32",
          "name": "_queryId",
          "type": "bytes32"
        },
        {
          "internalType": "uint256",
          "name": "_index",
          "type": "uint256"
        }
      ],
      "name": "getTimestampbyQueryIdandIndex",
      "outputs": [
        {
          "internalType": "uint256",
          "name": "",
          "type": "uint256"
        }
      ],
      "stateMutability": "view",
      "type": "function"
    },
    {
      "inputs": [],
      "name": "idMappingContract",
      "outputs": [
        {
          "internalType": "contract IMappingContract",
          "name": "",
          "type": "address"
        }
      ],
      "stateMutability": "view",
      "type": "function"
    },
    {
      "inputs": [
        {
          "internalType": "bytes32",
          "name": "_queryId",
          "type": "bytes32"
        },
        {
          "internalType": "uint256",
          "name": "_timestamp",
          "type": "uint256"
        }
      ],
      "name": "isInDispute",
      "outputs": [
        {
          "internalType": "bool",
          "name": "",
          "type": "bool"
        }
      ],
      "stateMutability": "view",
      "type": "function"
    },
    {
      "inputs": [
        {
          "internalType": "bytes32",
          "name": "_queryId",
          "type": "bytes32"
        },
        {
          "internalType": "uint256",
          "name": "_timestamp",
          "type": "uint256"
        }
      ],
      "name": "retrieveData",
      "outputs": [
        {
          "internalType": "bytes",
          "name": "",
          "type": "bytes"
        }
      ],
      "stateMutability": "view",
      "type": "function"
    },
    {
      "inputs": [
        {
          "internalType": "bytes",
          "name": "_data",
          "type": "bytes"
        }
      ],
      "name": "sendCommitment",
      "outputs": [],
      "stateMutability": "nonpayable",
      "type": "function"
    },
    {
      "inputs": [
        {
          "internalType": "address",
          "name": "_addy",
          "type": "address"
        }
      ],
      "name": "setIdMappingContract",
      "outputs": [],
      "stateMutability": "nonpayable",
      "type": "function"
    },
    {
      "inputs": [
        {
          "internalType": "address",
          "name": "_charon",
          "type": "address"
        },
        {
          "internalType": "uint256",
          "name": "_connectedChainId",
          "type": "uint256"
        }
      ],
      "name": "setPartnerInfo",
      "outputs": [],
      "stateMutability": "nonpayable",
      "type": "function"
    },
    {
      "inputs": [],
      "name": "tellor",
      "outputs": [
        {
          "internalType": "contract ITellor",
          "name": "",
          "type": "address"
        }
      ],
      "stateMutability": "view",
      "type": "function"
    },
    {
      "inputs": [
        {
          "internalType": "bytes32",
          "name": "_id",
          "type": "bytes32"
        }
      ],
      "name": "valueFor",
      "outputs": [
        {
          "internalType": "int256",
          "name": "_value",
          "type": "int256"
        },
        {
          "internalType": "uint256",
          "name": "_timestamp",
          "type": "uint256"
        },
        {
          "internalType": "uint256",
          "name": "_statusCode",
          "type": "uint256"
        }
      ],
      "stateMutability": "view",
      "type": "function"
    }
  ],
  "bytecode": "0x608060405234801561001057600080fd5b506040516116fd3803806116fd83398101604081905261002f91610054565b600080546001600160a01b0319166001600160a01b0392909216919091179055610084565b60006020828403121561006657600080fd5b81516001600160a01b038116811461007d57600080fd5b9392505050565b61166a806100936000396000f3fe608060405234801561001057600080fd5b506004361061012c5760003560e01c806377b03e0d116100ad578063e07c548611610071578063e07c5486146102bf578063f66f49c3146102d2578063f78eea83146102e5578063fc571a5c14610313578063fcd4a5461461032657600080fd5b806377b03e0d14610253578063a792765f14610266578063b6f6869e14610279578063c5958af914610299578063ce5e11bf146102ac57600080fd5b806351e3aea9116100f457806351e3aea9146101d657806356bebf54146101e757806364ee3c6d146101fa5780636b2fd9051461021b57806376fa25901461023c57600080fd5b8063193b505b146101315780631959ad5b1461014657806329449085146101765780632af8aae0146101a057806344e87f91146101b3575b600080fd5b61014461013f366004610ff9565b610347565b005b600054610159906001600160a01b031681565b6040516001600160a01b0390911681526020015b60405180910390f35b61018961018436600461101d565b61037f565b60408051921515835260208301919091520161016d565b600154610159906001600160a01b031681565b6101c66101c136600461101d565b6103ff565b604051901515815260200161016d565b6101446101e43660046110ae565b50565b6101446101f536600461112e565b61047d565b61020d61020836600461101d565b6104b9565b60405161016d9291906111aa565b61022e6102293660046110ae565b610512565b60405161016d9291906111cc565b61024560035481565b60405190815260200161016d565b6102456102613660046111f6565b6106ff565b61020d61027436600461101d565b61076d565b61028c61028736600461120f565b6107f4565b60405161016d9190611248565b61028c6102a736600461101d565b6108b9565b6102456102ba36600461101d565b610932565b6101596102cd36600461101d565b6109a7565b6101896102e036600461101d565b610a1c565b6102f86102f33660046111f6565b610bd9565b6040805193845260208401929092529082015260600161016d565b600254610159906001600160a01b031681565b61033961033436600461125b565b610c9e565b60405161016d92919061128d565b6001546001600160a01b03161561035d57600080fd5b600180546001600160a01b0319166001600160a01b0392909216919091179055565b60008054604051632944908560e01b8152600481018590526024810184905282916001600160a01b0316906329449085906044016040805180830381865afa1580156103cf573d6000803e3d6000fd5b505050506040513d601f19601f820116820180604052508101906103f3919061133d565b915091505b9250929050565b600080546040516344e87f9160e01b815260048101859052602481018490526001600160a01b03909116906344e87f9190604401602060405180830381865afa158015610450573d6000803e3d6000fd5b505050506040513d601f19601f820116820180604052508101906104749190611369565b90505b92915050565b6002546001600160a01b03161561049357600080fd5b600280546001600160a01b0319166001600160a01b039390931692909217909155600355565b606060008060006104ca8686610a1c565b91509150816104f157600060405180602001604052806000815250909350935050506103f8565b6104fb8682610932565b925061050786846108b9565b935050509250929050565b6002546060906000906001600160a01b03166105755760405162461bcd60e51b815260206004820152601c60248201527f636861726f6e20616464726573732073686f756c64206265207365740000000060448201526064015b60405180910390fd5b6000808480602001905181019061058c9190611384565b905060007f15e1b702c3013cad746078c5fa0edabbf197cdb6d1ecd5f8eb1aac43ea318628826040516024016105c491815260200190565b60408051601f19818403018152918152602080830180516001600160e01b03166001600160e01b031990951694909417909352600354600254915192945060009361061d9391926001600160a01b03169186910161139d565b60408051601f198184030181529082905261063a916020016113d0565b6040516020818303038152906040528051906020012090506106648161a8c0426102749190611417565b8151919750945061067e9087016020908101908801611477565b5060005460405163703e2a4360e11b815260048101849052602481018790529197506001600160a01b03169063e07c548690604401602060405180830381865afa1580156106d0573d6000803e3d6000fd5b505050506040513d601f19601f820116820180604052508101906106f491906114be565b945050505050915091565b600080546040516377b03e0d60e01b8152600481018490526001600160a01b03909116906377b03e0d90602401602060405180830381865afa158015610749573d6000803e3d6000fd5b505050506040513d601f19601f820116820180604052508101906104779190611384565b6000805460405163a792765f60e01b81526004810185905260248101849052606092916001600160a01b03169063a792765f90604401600060405180830381865afa1580156107c0573d6000803e3d6000fd5b505050506040513d6000823e601f3d908101601f191682016040526107e891908101906114db565b90969095509350505050565b60408051602081018490526001600160a01b0383168183015260608082018690528251808303820181526080830190935291600091610836919060a001611532565b6040516020818303038152906040528051906020012090506108608161a8c0426102749190611417565b95509150846108b15760405162461bcd60e51b815260206004820152601960248201527f74696d657374616d70206d7573742062652070726573656e7400000000000000604482015260640161056c565b509392505050565b60005460405163c5958af960e01b815260048101849052602481018390526060916001600160a01b03169063c5958af990604401600060405180830381865afa15801561090a573d6000803e3d6000fd5b505050506040513d6000823e601f3d908101601f19168201604052610474919081019061156d565b6000805460405163ce5e11bf60e01b815260048101859052602481018490526001600160a01b039091169063ce5e11bf90604401602060405180830381865afa158015610983573d6000803e3d6000fd5b505050506040513d601f19601f820116820180604052508101906104749190611384565b6000805460405163703e2a4360e11b815260048101859052602481018490526001600160a01b039091169063e07c548690604401602060405180830381865afa1580156109f8573d6000803e3d6000fd5b505050506040513d601f19601f8201168201806040525081019061047491906114be565b6000806000610a2a856106ff565b905080600003610a415760008092509250506103f8565b80610a4b816115a2565b9150600190506000808381610a608a83610932565b9050888111610a7b57600080975097505050505050506103f8565b610a858a84610932565b905088811115610a9457600094505b8415610b44576002610aa684846115b9565b610ab091906115cc565b9350610abc8a85610932565b905088811115610afd576000610ad78b6102ba600188611417565b9050898111610ae95760009550610af7565b610af4600186611417565b92505b50610a94565b6000610b0e8b6102ba8760016115b9565b905089811115610b31576000955084610b26816115ee565b955050809150610af7565b610b3c8560016115b9565b935050610a94565b610b4e8a826103ff565b610b6457600184975097505050505050506103f8565b610b6e8a826103ff565b8015610b7957508584105b15610b9c5783610b88816115ee565b945050610b958a85610932565b9050610b64565b8584148015610bb05750610bb08a826103ff565b15610bc757600080975097505050505050506103f8565b600184975097505050505050506103f8565b6001546040516387a475fd60e01b8152600481018390526000918291829182916001600160a01b03909116906387a475fd90602401602060405180830381865afa158015610c2b573d6000803e3d6000fd5b505050506040513d601f19601f82011682018060405250810190610c4f9190611384565b90506060610c62826102744260016115b9565b945090506000849003610c82576000806101949450945094505050610c97565b6000610c8d82610f8d565b955060c893505050505b9193909250565b606080600080610cb2886102e0888a611417565b9150915081610d03576040805160008082526020820190925290610ce6565b6060815260200190600190039081610cd15790505b506040805160008152602081019091529094509250610f84915050565b6000610d0f898961037f565b909350905082610d62576040805160008082526020820190925290610d44565b6060815260200190600190039081610d2f5790505b506040805160008152602081019091529095509350610f8492505050565b60008060008867ffffffffffffffff811115610d8057610d8061103f565b604051908082528060200260200182016040528015610da9578160200160208202803683370190505b5090505b8883108015610dd057508482610dc48660016115b9565b610dce9190611417565b115b15610e34576000610de58d6102ba8588611417565b9050610df18d826103ff565b610e215780828581518110610e0857610e08611607565b602090810291909101015283610e1d816115ee565b9450505b82610e2b816115ee565b93505050610dad565b60008367ffffffffffffffff811115610e4f57610e4f61103f565b604051908082528060200260200182016040528015610e8257816020015b6060815260200190600190039081610e6d5790505b50905060008467ffffffffffffffff811115610ea057610ea061103f565b604051908082528060200260200182016040528015610ec9578160200160208202803683370190505b50905060005b85811015610f77578381610ee4600189611417565b610eee9190611417565b81518110610efe57610efe611607565b6020026020010151828281518110610f1857610f18611607565b602002602001018181525050610f478f838381518110610f3a57610f3a611607565b60200260200101516108b9565b838281518110610f5957610f59611607565b60200260200101819052508080610f6f906115ee565b915050610ecf565b5090985096505050505050505b94509492505050565b6000805b8251811015610fde57828181518110610fac57610fac611607565b016020015160f81c610fc08361010061161d565b610fca91906115b9565b915080610fd6816115ee565b915050610f91565b50919050565b6001600160a01b03811681146101e457600080fd5b60006020828403121561100b57600080fd5b813561101681610fe4565b9392505050565b6000806040838503121561103057600080fd5b50508035926020909101359150565b634e487b7160e01b600052604160045260246000fd5b604051601f8201601f1916810167ffffffffffffffff8111828210171561107e5761107e61103f565b604052919050565b600067ffffffffffffffff8211156110a0576110a061103f565b50601f01601f191660200190565b6000602082840312156110c057600080fd5b813567ffffffffffffffff8111156110d757600080fd5b8201601f810184136110e857600080fd5b80356110fb6110f682611086565b611055565b81815285602083850101111561111057600080fd5b81602084016020830137600091810160200191909152949350505050565b6000806040838503121561114157600080fd5b823561114c81610fe4565b946020939093013593505050565b60005b8381101561117557818101518382015260200161115d565b50506000910152565b6000815180845261119681602086016020860161115a565b601f01601f19169290920160200192915050565b6040815260006111bd604083018561117e565b90508260208301529392505050565b6040815260006111df604083018561117e565b905060018060a01b03831660208301529392505050565b60006020828403121561120857600080fd5b5035919050565b60008060006060848603121561122457600080fd5b8335925060208401359150604084013561123d81610fe4565b809150509250925092565b602081526000610474602083018461117e565b6000806000806080858703121561127157600080fd5b5050823594602084013594506040840135936060013592509050565b6000604082016040835280855180835260608501915060608160051b8601019250602080880160005b838110156112e457605f198887030185526112d286835161117e565b955093820193908201906001016112b6565b50508584038187015286518085528782019482019350915060005b8281101561131b578451845293810193928101926001016112ff565b5091979650505050505050565b8051801515811461133857600080fd5b919050565b6000806040838503121561135057600080fd5b61135983611328565b9150602083015190509250929050565b60006020828403121561137b57600080fd5b61047482611328565b60006020828403121561139657600080fd5b5051919050565b8381526001600160a01b03831660208201526060604082018190526000906113c79083018461117e565b95945050505050565b60408152600760408201526611559350d85b1b60ca1b6060820152608060208201526000610474608083018461117e565b634e487b7160e01b600052601160045260246000fd5b8181038181111561047757610477611401565b600082601f83011261143b57600080fd5b81516114496110f682611086565b81815284602083860101111561145e57600080fd5b61146f82602083016020870161115a565b949350505050565b6000806040838503121561148a57600080fd5b825167ffffffffffffffff8111156114a157600080fd5b6114ad8582860161142a565b925050602083015190509250929050565b6000602082840312156114d057600080fd5b815161101681610fe4565b6000806000606084860312156114f057600080fd5b6114f984611328565b9250602084015167ffffffffffffffff81111561151557600080fd5b6115218682870161142a565b925050604084015190509250925092565b60408152601160408201527043726f7373436861696e42616c616e636560781b6060820152608060208201526000610474608083018461117e565b60006020828403121561157f57600080fd5b815167ffffffffffffffff81111561159657600080fd5b61146f8482850161142a565b6000816115b1576115b1611401565b506000190190565b8082018082111561047757610477611401565b6000826115e957634e487b7160e01b600052601260045260246000fd5b500490565b60006001820161160057611600611401565b5060010190565b634e487b7160e01b600052603260045260246000fd5b80820281158282048414176104775761047761140156fea2646970667358221220e370747e65fbe872f3f8b6d02c255e866284e003e7e02009ad80f5095d9e5d7664736f6c63430008110033",
  "linkReferences": {},
  "deployedLinkReferences": {}
}