{
  "_format": "hh-sol-artifact-1",
  "contractName": "UsingTellor",
  "sourceName": "contracts/FlatTellorBridge.sol",
  "abi": [
    {
      "inputs": [
        {
          "internalType": "address payable",
          "name": "_tellor",
          "type": "address"
        }
      ],
      "stateMutability": "nonpayable",
      "type": "constructor"
    },
    {
      "inputs": [
        {
          "internalType": "bytes32",
          "name": "_queryId",
          "type": "bytes32"
        },
        {
          "internalType": "uint256",
          "name": "_timestamp",
          "type": "uint256"
        }
      ],
      "name": "getDataAfter",
      "outputs": [
        {
          "internalType": "bytes",
          "name": "_value",
          "type": "bytes"
        },
        {
          "internalType": "uint256",
          "name": "_timestampRetrieved",
          "type": "uint256"
        }
      ],
      "stateMutability": "view",
      "type": "function"
    },
    {
      "inputs": [
        {
          "internalType": "bytes32",
          "name": "_queryId",
          "type": "bytes32"
        },
        {
          "internalType": "uint256",
          "name": "_timestamp",
          "type": "uint256"
        }
      ],
      "name": "getDataBefore",
      "outputs": [
        {
          "internalType": "bytes",
          "name": "_value",
          "type": "bytes"
        },
        {
          "internalType": "uint256",
          "name": "_timestampRetrieved",
          "type": "uint256"
        }
      ],
      "stateMutability": "view",
      "type": "function"
    },
    {
      "inputs": [
        {
          "internalType": "bytes32",
          "name": "_queryId",
          "type": "bytes32"
        },
        {
          "internalType": "uint256",
          "name": "_timestamp",
          "type": "uint256"
        }
      ],
      "name": "getIndexForDataAfter",
      "outputs": [
        {
          "internalType": "bool",
          "name": "_found",
          "type": "bool"
        },
        {
          "internalType": "uint256",
          "name": "_index",
          "type": "uint256"
        }
      ],
      "stateMutability": "view",
      "type": "function"
    },
    {
      "inputs": [
        {
          "internalType": "bytes32",
          "name": "_queryId",
          "type": "bytes32"
        },
        {
          "internalType": "uint256",
          "name": "_timestamp",
          "type": "uint256"
        }
      ],
      "name": "getIndexForDataBefore",
      "outputs": [
        {
          "internalType": "bool",
          "name": "_found",
          "type": "bool"
        },
        {
          "internalType": "uint256",
          "name": "_index",
          "type": "uint256"
        }
      ],
      "stateMutability": "view",
      "type": "function"
    },
    {
      "inputs": [
        {
          "internalType": "bytes32",
          "name": "_queryId",
          "type": "bytes32"
        },
        {
          "internalType": "uint256",
          "name": "_timestamp",
          "type": "uint256"
        },
        {
          "internalType": "uint256",
          "name": "_maxAge",
          "type": "uint256"
        },
        {
          "internalType": "uint256",
          "name": "_maxCount",
          "type": "uint256"
        }
      ],
      "name": "getMultipleValuesBefore",
      "outputs": [
        {
          "internalType": "bytes[]",
          "name": "_values",
          "type": "bytes[]"
        },
        {
          "internalType": "uint256[]",
          "name": "_timestamps",
          "type": "uint256[]"
        }
      ],
      "stateMutability": "view",
      "type": "function"
    },
    {
      "inputs": [
        {
          "internalType": "bytes32",
          "name": "_queryId",
          "type": "bytes32"
        }
      ],
      "name": "getNewValueCountbyQueryId",
      "outputs": [
        {
          "internalType": "uint256",
          "name": "",
          "type": "uint256"
        }
      ],
      "stateMutability": "view",
      "type": "function"
    },
    {
      "inputs": [
        {
          "internalType": "bytes32",
          "name": "_queryId",
          "type": "bytes32"
        },
        {
          "internalType": "uint256",
          "name": "_timestamp",
          "type": "uint256"
        }
      ],
      "name": "getReporterByTimestamp",
      "outputs": [
        {
          "internalType": "address",
          "name": "",
          "type": "address"
        }
      ],
      "stateMutability": "view",
      "type": "function"
    },
    {
      "inputs": [
        {
          "internalType": "bytes32",
          "name": "_queryId",
          "type": "bytes32"
        },
        {
          "internalType": "uint256",
          "name": "_index",
          "type": "uint256"
        }
      ],
      "name": "getTimestampbyQueryIdandIndex",
      "outputs": [
        {
          "internalType": "uint256",
          "name": "",
          "type": "uint256"
        }
      ],
      "stateMutability": "view",
      "type": "function"
    },
    {
      "inputs": [],
      "name": "idMappingContract",
      "outputs": [
        {
          "internalType": "contract IMappingContract",
          "name": "",
          "type": "address"
        }
      ],
      "stateMutability": "view",
      "type": "function"
    },
    {
      "inputs": [
        {
          "internalType": "bytes32",
          "name": "_queryId",
          "type": "bytes32"
        },
        {
          "internalType": "uint256",
          "name": "_timestamp",
          "type": "uint256"
        }
      ],
      "name": "isInDispute",
      "outputs": [
        {
          "internalType": "bool",
          "name": "",
          "type": "bool"
        }
      ],
      "stateMutability": "view",
      "type": "function"
    },
    {
      "inputs": [
        {
          "internalType": "bytes32",
          "name": "_queryId",
          "type": "bytes32"
        },
        {
          "internalType": "uint256",
          "name": "_timestamp",
          "type": "uint256"
        }
      ],
      "name": "retrieveData",
      "outputs": [
        {
          "internalType": "bytes",
          "name": "",
          "type": "bytes"
        }
      ],
      "stateMutability": "view",
      "type": "function"
    },
    {
      "inputs": [
        {
          "internalType": "address",
          "name": "_addy",
          "type": "address"
        }
      ],
      "name": "setIdMappingContract",
      "outputs": [],
      "stateMutability": "nonpayable",
      "type": "function"
    },
    {
      "inputs": [],
      "name": "tellor",
      "outputs": [
        {
          "internalType": "contract ITellor",
          "name": "",
          "type": "address"
        }
      ],
      "stateMutability": "view",
      "type": "function"
    },
    {
      "inputs": [
        {
          "internalType": "bytes32",
          "name": "_id",
          "type": "bytes32"
        }
      ],
      "name": "valueFor",
      "outputs": [
        {
          "internalType": "int256",
          "name": "_value",
          "type": "int256"
        },
        {
          "internalType": "uint256",
          "name": "_timestamp",
          "type": "uint256"
        },
        {
          "internalType": "uint256",
          "name": "_statusCode",
          "type": "uint256"
        }
      ],
      "stateMutability": "view",
      "type": "function"
    }
  ],
  "bytecode": "0x608060405234801561001057600080fd5b5060405161115138038061115183398101604081905261002f91610054565b600080546001600160a01b0319166001600160a01b0392909216919091179055610084565b60006020828403121561006657600080fd5b81516001600160a01b038116811461007d57600080fd5b9392505050565b6110be806100936000396000f3fe608060405234801561001057600080fd5b50600436106100ea5760003560e01c8063a792765f1161008c578063e07c548611610066578063e07c54861461021c578063f66f49c31461022f578063f78eea8314610242578063fcd4a5461461027057600080fd5b8063a792765f146101d6578063c5958af9146101e9578063ce5e11bf1461020957600080fd5b80632af8aae0116100c85780632af8aae01461015e57806344e87f911461017157806364ee3c6d1461019457806377b03e0d146101b557600080fd5b8063193b505b146100ef5780631959ad5b146101045780632944908514610134575b600080fd5b6101026100fd366004610c58565b610291565b005b600054610117906001600160a01b031681565b6040516001600160a01b0390911681526020015b60405180910390f35b610147610142366004610c7c565b6102c9565b60408051921515835260208301919091520161012b565b600154610117906001600160a01b031681565b61018461017f366004610c7c565b610349565b604051901515815260200161012b565b6101a76101a2366004610c7c565b6103c7565b60405161012b929190610cee565b6101c86101c3366004610d10565b610420565b60405190815260200161012b565b6101a76101e4366004610c7c565b61048e565b6101fc6101f7366004610c7c565b610515565b60405161012b9190610d29565b6101c8610217366004610c7c565b61058e565b61011761022a366004610c7c565b610603565b61014761023d366004610c7c565b610678565b610255610250366004610d10565b610835565b6040805193845260208401929092529082015260600161012b565b61028361027e366004610d3c565b6108fa565b60405161012b929190610d6e565b6001546001600160a01b0316156102a757600080fd5b600180546001600160a01b0319166001600160a01b0392909216919091179055565b60008054604051632944908560e01b8152600481018590526024810184905282916001600160a01b0316906329449085906044016040805180830381865afa158015610319573d6000803e3d6000fd5b505050506040513d601f19601f8201168201806040525081019061033d9190610e1e565b915091505b9250929050565b600080546040516344e87f9160e01b815260048101859052602481018490526001600160a01b03909116906344e87f9190604401602060405180830381865afa15801561039a573d6000803e3d6000fd5b505050506040513d601f19601f820116820180604052508101906103be9190610e4a565b90505b92915050565b606060008060006103d88686610678565b91509150816103ff5760006040518060200160405280600081525090935093505050610342565b610409868261058e565b92506104158684610515565b935050509250929050565b600080546040516377b03e0d60e01b8152600481018490526001600160a01b03909116906377b03e0d90602401602060405180830381865afa15801561046a573d6000803e3d6000fd5b505050506040513d601f19601f820116820180604052508101906103c19190610e65565b6000805460405163a792765f60e01b81526004810185905260248101849052606092916001600160a01b03169063a792765f90604401600060405180830381865afa1580156104e1573d6000803e3d6000fd5b505050506040513d6000823e601f3d908101601f191682016040526105099190810190610f1c565b90969095509350505050565b60005460405163c5958af960e01b815260048101849052602481018390526060916001600160a01b03169063c5958af990604401600060405180830381865afa158015610566573d6000803e3d6000fd5b505050506040513d6000823e601f3d908101601f191682016040526103be9190810190610f73565b6000805460405163ce5e11bf60e01b815260048101859052602481018490526001600160a01b039091169063ce5e11bf90604401602060405180830381865afa1580156105df573d6000803e3d6000fd5b505050506040513d601f19601f820116820180604052508101906103be9190610e65565b6000805460405163703e2a4360e11b815260048101859052602481018490526001600160a01b039091169063e07c548690604401602060405180830381865afa158015610654573d6000803e3d6000fd5b505050506040513d601f19601f820116820180604052508101906103be9190610fb0565b600080600061068685610420565b90508060000361069d576000809250925050610342565b806106a781610fe3565b91506001905060008083816106bc8a8361058e565b90508881116106d75760008097509750505050505050610342565b6106e18a8461058e565b9050888111156106f057600094505b84156107a05760026107028484610ffa565b61070c919061100d565b93506107188a8561058e565b9050888111156107595760006107338b61021760018861102f565b90508981116107455760009550610753565b61075060018661102f565b92505b506106f0565b600061076a8b610217876001610ffa565b90508981111561078d57600095508461078281611042565b955050809150610753565b610798856001610ffa565b9350506106f0565b6107aa8a82610349565b6107c05760018497509750505050505050610342565b6107ca8a82610349565b80156107d557508584105b156107f857836107e481611042565b9450506107f18a8561058e565b90506107c0565b858414801561080c575061080c8a82610349565b156108235760008097509750505050505050610342565b60018497509750505050505050610342565b6001546040516387a475fd60e01b8152600481018390526000918291829182916001600160a01b03909116906387a475fd90602401602060405180830381865afa158015610887573d6000803e3d6000fd5b505050506040513d601f19601f820116820180604052508101906108ab9190610e65565b905060606108be826101e4426001610ffa565b9450905060008490036108de5760008061019494509450945050506108f3565b60006108e982610be9565b955060c893505050505b9193909250565b60608060008061090e8861023d888a61102f565b915091508161095f576040805160008082526020820190925290610942565b606081526020019060019003908161092d5790505b506040805160008152602081019091529094509250610be0915050565b600061096b89896102c9565b9093509050826109be5760408051600080825260208201909252906109a0565b606081526020019060019003908161098b5790505b506040805160008152602081019091529095509350610be092505050565b60008060008867ffffffffffffffff8111156109dc576109dc610e7e565b604051908082528060200260200182016040528015610a05578160200160208202803683370190505b5090505b8883108015610a2c57508482610a20866001610ffa565b610a2a919061102f565b115b15610a90576000610a418d610217858861102f565b9050610a4d8d82610349565b610a7d5780828581518110610a6457610a6461105b565b602090810291909101015283610a7981611042565b9450505b82610a8781611042565b93505050610a09565b60008367ffffffffffffffff811115610aab57610aab610e7e565b604051908082528060200260200182016040528015610ade57816020015b6060815260200190600190039081610ac95790505b50905060008467ffffffffffffffff811115610afc57610afc610e7e565b604051908082528060200260200182016040528015610b25578160200160208202803683370190505b50905060005b85811015610bd3578381610b4060018961102f565b610b4a919061102f565b81518110610b5a57610b5a61105b565b6020026020010151828281518110610b7457610b7461105b565b602002602001018181525050610ba38f838381518110610b9657610b9661105b565b6020026020010151610515565b838281518110610bb557610bb561105b565b60200260200101819052508080610bcb90611042565b915050610b2b565b5090985096505050505050505b94509492505050565b6000805b8251811015610c3a57828181518110610c0857610c0861105b565b016020015160f81c610c1c83610100611071565b610c269190610ffa565b915080610c3281611042565b915050610bed565b50919050565b6001600160a01b0381168114610c5557600080fd5b50565b600060208284031215610c6a57600080fd5b8135610c7581610c40565b9392505050565b60008060408385031215610c8f57600080fd5b50508035926020909101359150565b60005b83811015610cb9578181015183820152602001610ca1565b50506000910152565b60008151808452610cda816020860160208601610c9e565b601f01601f19169290920160200192915050565b604081526000610d016040830185610cc2565b90508260208301529392505050565b600060208284031215610d2257600080fd5b5035919050565b6020815260006103be6020830184610cc2565b60008060008060808587031215610d5257600080fd5b5050823594602084013594506040840135936060013592509050565b6000604082016040835280855180835260608501915060608160051b8601019250602080880160005b83811015610dc557605f19888703018552610db3868351610cc2565b95509382019390820190600101610d97565b50508584038187015286518085528782019482019350915060005b82811015610dfc57845184529381019392810192600101610de0565b5091979650505050505050565b80518015158114610e1957600080fd5b919050565b60008060408385031215610e3157600080fd5b610e3a83610e09565b9150602083015190509250929050565b600060208284031215610e5c57600080fd5b6103be82610e09565b600060208284031215610e7757600080fd5b5051919050565b634e487b7160e01b600052604160045260246000fd5b600082601f830112610ea557600080fd5b815167ffffffffffffffff80821115610ec057610ec0610e7e565b604051601f8301601f19908116603f01168101908282118183101715610ee857610ee8610e7e565b81604052838152866020858801011115610f0157600080fd5b610f12846020830160208901610c9e565b9695505050505050565b600080600060608486031215610f3157600080fd5b610f3a84610e09565b9250602084015167ffffffffffffffff811115610f5657600080fd5b610f6286828701610e94565b925050604084015190509250925092565b600060208284031215610f8557600080fd5b815167ffffffffffffffff811115610f9c57600080fd5b610fa884828501610e94565b949350505050565b600060208284031215610fc257600080fd5b8151610c7581610c40565b634e487b7160e01b600052601160045260246000fd5b600081610ff257610ff2610fcd565b506000190190565b808201808211156103c1576103c1610fcd565b60008261102a57634e487b7160e01b600052601260045260246000fd5b500490565b818103818111156103c1576103c1610fcd565b60006001820161105457611054610fcd565b5060010190565b634e487b7160e01b600052603260045260246000fd5b80820281158282048414176103c1576103c1610fcd56fea26469706673582212206414347b861f1091cdb6af82def76d8838cd3124e4089176e87eff5ded77ac4764736f6c63430008110033",
  "linkReferences": {},
  "deployedLinkReferences": {}
}