{
  "_format": "hh-sol-artifact-1",
  "contractName": "MockERC20",
  "sourceName": "charonAMM/contracts/mocks/MockERC20.sol",
  "abi": [
    {
      "inputs": [
        {
          "internalType": "address",
          "name": "_charon",
          "type": "address"
        },
        {
          "internalType": "string",
          "name": "_name",
          "type": "string"
        },
        {
          "internalType": "string",
          "name": "_symbol",
          "type": "string"
        }
      ],
      "stateMutability": "nonpayable",
      "type": "constructor"
    },
    {
      "anonymous": false,
      "inputs": [
        {
          "indexed": true,
          "internalType": "address",
          "name": "_src",
          "type": "address"
        },
        {
          "indexed": true,
          "internalType": "address",
          "name": "_dst",
          "type": "address"
        },
        {
          "indexed": false,
          "internalType": "uint256",
          "name": "_amt",
          "type": "uint256"
        }
      ],
      "name": "Approval",
      "type": "event"
    },
    {
      "anonymous": false,
      "inputs": [
        {
          "indexed": false,
          "internalType": "address",
          "name": "_from",
          "type": "address"
        },
        {
          "indexed": false,
          "internalType": "uint256",
          "name": "_amount",
          "type": "uint256"
        }
      ],
      "name": "CHDBurned",
      "type": "event"
    },
    {
      "anonymous": false,
      "inputs": [
        {
          "indexed": false,
          "internalType": "address",
          "name": "_to",
          "type": "address"
        },
        {
          "indexed": false,
          "internalType": "uint256",
          "name": "_amount",
          "type": "uint256"
        }
      ],
      "name": "CHDMinted",
      "type": "event"
    },
    {
      "anonymous": false,
      "inputs": [
        {
          "indexed": true,
          "internalType": "address",
          "name": "_src",
          "type": "address"
        },
        {
          "indexed": true,
          "internalType": "address",
          "name": "_dst",
          "type": "address"
        },
        {
          "indexed": false,
          "internalType": "uint256",
          "name": "_amt",
          "type": "uint256"
        }
      ],
      "name": "Transfer",
      "type": "event"
    },
    {
      "inputs": [
        {
          "internalType": "address",
          "name": "_src",
          "type": "address"
        },
        {
          "internalType": "address",
          "name": "_dst",
          "type": "address"
        }
      ],
      "name": "allowance",
      "outputs": [
        {
          "internalType": "uint256",
          "name": "",
          "type": "uint256"
        }
      ],
      "stateMutability": "view",
      "type": "function"
    },
    {
      "inputs": [
        {
          "internalType": "address",
          "name": "_spender",
          "type": "address"
        },
        {
          "internalType": "uint256",
          "name": "_amount",
          "type": "uint256"
        }
      ],
      "name": "approve",
      "outputs": [
        {
          "internalType": "bool",
          "name": "",
          "type": "bool"
        }
      ],
      "stateMutability": "nonpayable",
      "type": "function"
    },
    {
      "inputs": [
        {
          "internalType": "address",
          "name": "_user",
          "type": "address"
        }
      ],
      "name": "balanceOf",
      "outputs": [
        {
          "internalType": "uint256",
          "name": "",
          "type": "uint256"
        }
      ],
      "stateMutability": "view",
      "type": "function"
    },
    {
      "inputs": [
        {
          "internalType": "address",
          "name": "account",
          "type": "address"
        },
        {
          "internalType": "uint256",
          "name": "amount",
          "type": "uint256"
        }
      ],
      "name": "burn",
      "outputs": [],
      "stateMutability": "nonpayable",
      "type": "function"
    },
    {
      "inputs": [
        {
          "internalType": "address",
          "name": "_from",
          "type": "address"
        },
        {
          "internalType": "uint256",
          "name": "_amount",
          "type": "uint256"
        }
      ],
      "name": "burnCHD",
      "outputs": [
        {
          "internalType": "bool",
          "name": "",
          "type": "bool"
        }
      ],
      "stateMutability": "nonpayable",
      "type": "function"
    },
    {
      "inputs": [],
      "name": "charon",
      "outputs": [
        {
          "internalType": "address",
          "name": "",
          "type": "address"
        }
      ],
      "stateMutability": "view",
      "type": "function"
    },
    {
      "inputs": [],
      "name": "decimals",
      "outputs": [
        {
          "internalType": "uint8",
          "name": "",
          "type": "uint8"
        }
      ],
      "stateMutability": "pure",
      "type": "function"
    },
    {
      "inputs": [
        {
          "internalType": "address",
          "name": "account",
          "type": "address"
        },
        {
          "internalType": "uint256",
          "name": "amount",
          "type": "uint256"
        }
      ],
      "name": "mint",
      "outputs": [],
      "stateMutability": "nonpayable",
      "type": "function"
    },
    {
      "inputs": [
        {
          "internalType": "address",
          "name": "_to",
          "type": "address"
        },
        {
          "internalType": "uint256",
          "name": "_amount",
          "type": "uint256"
        }
      ],
      "name": "mintCHD",
      "outputs": [
        {
          "internalType": "bool",
          "name": "",
          "type": "bool"
        }
      ],
      "stateMutability": "nonpayable",
      "type": "function"
    },
    {
      "inputs": [],
      "name": "name",
      "outputs": [
        {
          "internalType": "string",
          "name": "",
          "type": "string"
        }
      ],
      "stateMutability": "view",
      "type": "function"
    },
    {
      "inputs": [],
      "name": "symbol",
      "outputs": [
        {
          "internalType": "string",
          "name": "",
          "type": "string"
        }
      ],
      "stateMutability": "view",
      "type": "function"
    },
    {
      "inputs": [],
      "name": "totalSupply",
      "outputs": [
        {
          "internalType": "uint256",
          "name": "",
          "type": "uint256"
        }
      ],
      "stateMutability": "view",
      "type": "function"
    },
    {
      "inputs": [
        {
          "internalType": "address",
          "name": "_to",
          "type": "address"
        },
        {
          "internalType": "uint256",
          "name": "_amount",
          "type": "uint256"
        }
      ],
      "name": "transfer",
      "outputs": [
        {
          "internalType": "bool",
          "name": "",
          "type": "bool"
        }
      ],
      "stateMutability": "nonpayable",
      "type": "function"
    },
    {
      "inputs": [
        {
          "internalType": "address",
          "name": "_from",
          "type": "address"
        },
        {
          "internalType": "address",
          "name": "_to",
          "type": "address"
        },
        {
          "internalType": "uint256",
          "name": "_amount",
          "type": "uint256"
        }
      ],
      "name": "transferFrom",
      "outputs": [
        {
          "internalType": "bool",
          "name": "",
          "type": "bool"
        }
      ],
      "stateMutability": "nonpayable",
      "type": "function"
    }
  ],
  "bytecode": "0x60806040523480156200001157600080fd5b5060405162000c8f38038062000c8f83398101604081905262000034916200014b565b8282828181600062000047838262000264565b50600162000056828262000264565b5050600580546001600160a01b0319166001600160a01b0395909516949094179093555062000330945050505050565b634e487b7160e01b600052604160045260246000fd5b600082601f830112620000ae57600080fd5b81516001600160401b0380821115620000cb57620000cb62000086565b604051601f8301601f19908116603f01168101908282118183101715620000f657620000f662000086565b816040528381526020925086838588010111156200011357600080fd5b600091505b8382101562000137578582018301518183018401529082019062000118565b600093810190920192909252949350505050565b6000806000606084860312156200016157600080fd5b83516001600160a01b03811681146200017957600080fd5b60208501519093506001600160401b03808211156200019757600080fd5b620001a5878388016200009c565b93506040860151915080821115620001bc57600080fd5b50620001cb868287016200009c565b9150509250925092565b600181811c90821680620001ea57607f821691505b6020821081036200020b57634e487b7160e01b600052602260045260246000fd5b50919050565b601f8211156200025f57600081815260208120601f850160051c810160208610156200023a5750805b601f850160051c820191505b818110156200025b5782815560010162000246565b5050505b505050565b81516001600160401b0381111562000280576200028062000086565b6200029881620002918454620001d5565b8462000211565b602080601f831160018114620002d05760008415620002b75750858301515b600019600386901b1c1916600185901b1785556200025b565b600085815260208120601f198616915b828110156200030157888601518255948401946001909101908401620002e0565b5085821015620003205787850151600019600388901b60f8161c191681555b5050505050600190811b01905550565b61094f80620003406000396000f3fe608060405234801561001057600080fd5b50600436106100ba5760003560e01c806306fdde03146100bf578063095ea7b3146100dd57806314d8349e1461010057806318160ddd1461011357806323b872dd14610125578063313ce5671461013857806340c10f191461014757806370a082311461015c57806395d89b41146101855780639dc29fac1461018d578063a9059cbb146101a0578063d4beb4fd146101b3578063dd62ed3e146101c6578063fc571a5c146101ff575b600080fd5b6100c761022a565b6040516100d491906106f6565b60405180910390f35b6100f06100eb366004610760565b6102bc565b60405190151581526020016100d4565b6100f061010e366004610760565b610317565b6002545b6040519081526020016100d4565b6100f061013336600461078a565b610399565b604051601281526020016100d4565b61015a610155366004610760565b6104b2565b005b61011761016a3660046107c6565b6001600160a01b031660009081526003602052604090205490565b6100c76104c0565b61015a61019b366004610760565b6104cf565b6100f06101ae366004610760565b6104d9565b6100f06101c1366004610760565b6104ef565b6101176101d43660046107e8565b6001600160a01b03918216600090815260046020908152604080832093909416825291909152205490565b600554610212906001600160a01b031681565b6040516001600160a01b0390911681526020016100d4565b6060600080546102399061081b565b80601f01602080910402602001604051908101604052809291908181526020018280546102659061081b565b80156102b25780601f10610287576101008083540402835291602001916102b2565b820191906000526020600020905b81548152906001019060200180831161029557829003601f168201915b5050505050905090565b3360008181526004602090815260408083206001600160a01b038716808552925280832085905551919290916000805160206108fa833981519152906103059086815260200190565b60405180910390a35060015b92915050565b6005546000906001600160a01b0316331461034d5760405162461bcd60e51b815260040161034490610855565b60405180910390fd5b6103578383610557565b7f5c5cb3e0a9ad2ec73b92c9ed2e03a34ddde0c53b0fd7411b12eb811c5a6fd9e18383604051610388929190610884565b60405180910390a150600192915050565b6000336001600160a01b03851614806103d557506001600160a01b03841660009081526004602090815260408083203384529091529020548211155b6104105760405162461bcd60e51b815260206004820152600c60248201526b1b9bdd08185c1c1c9bdd995960a21b6044820152606401610344565b61041b8484846105d9565b336001600160a01b038516146104a8576001600160a01b038416600090815260046020908152604080832033845290915290205461045a9083906108b3565b6001600160a01b0385811660009081526004602090815260408083203380855290835292819020859055519384529186169290916000805160206108fa833981519152910160405180910390a35b5060019392505050565b6104bc828261067c565b5050565b6060600180546102399061081b565b6104bc8282610557565b60006104e63384846105d9565b50600192915050565b6005546000906001600160a01b0316331461051c5760405162461bcd60e51b815260040161034490610855565b610526838361067c565b7f42fdba80807c442430fe8d9ad3387e6464f57216915bef176ca27337de13bf778383604051610388929190610884565b6001600160a01b03821660009081526003602052604090205461057b9082906108b3565b6001600160a01b0383166000908152600360205260409020556002546105a29082906108b3565b6002556040518181526000906001600160a01b038416906000805160206108da833981519152906020015b60405180910390a35050565b6001600160a01b0383166000908152600360205260409020546105fd9082906108b3565b6001600160a01b03808516600090815260036020526040808220939093559084168152205461062d9082906108c6565b6001600160a01b0380841660008181526003602052604090819020939093559151908516906000805160206108da8339815191529061066f9085815260200190565b60405180910390a3505050565b6001600160a01b0382166000908152600360205260409020546106a09082906108c6565b6001600160a01b0383166000908152600360205260409020556002546106c79082906108c6565b6002556040518181526001600160a01b038316906000906000805160206108da833981519152906020016105cd565b600060208083528351808285015260005b8181101561072357858101830151858201604001528201610707565b506000604082860101526040601f19601f8301168501019250505092915050565b80356001600160a01b038116811461075b57600080fd5b919050565b6000806040838503121561077357600080fd5b61077c83610744565b946020939093013593505050565b60008060006060848603121561079f57600080fd5b6107a884610744565b92506107b660208501610744565b9150604084013590509250925092565b6000602082840312156107d857600080fd5b6107e182610744565b9392505050565b600080604083850312156107fb57600080fd5b61080483610744565b915061081260208401610744565b90509250929050565b600181811c9082168061082f57607f821691505b60208210810361084f57634e487b7160e01b600052602260045260246000fd5b50919050565b60208082526015908201527431b0b63632b91036bab9ba1031329031b430b937b760591b604082015260600190565b6001600160a01b03929092168252602082015260400190565b634e487b7160e01b600052601160045260246000fd5b818103818111156103115761031161089d565b808201808211156103115761031161089d56feddf252ad1be2c89b69c2b068fc378daa952ba7f163c4a11628f55a4df523b3ef8c5be1e5ebec7d5bd14f71427d1e84f3dd0314c0f7b2291e5b200ac8c7c3b925a264697066735822122080de2aa34ea3ae71f63f3558e314de55cee6cd4204066c66ea791ff1aa5aea6e64736f6c63430008110033",
  "linkReferences": {},
  "deployedLinkReferences": {}
}