{
  "_format": "hh-sol-artifact-1",
  "contractName": "Registry",
  "sourceName": "contracts/Registry.sol",
  "abi": [
    {
      "anonymous": false,
      "inputs": [
        {
          "indexed": true,
          "internalType": "address",
          "name": "_a",
          "type": "address"
        },
        {
          "indexed": false,
          "internalType": "bytes",
          "name": "_publicKey",
          "type": "bytes"
        }
      ],
      "name": "Registered",
      "type": "event"
    },
    {
      "inputs": [
        {
          "internalType": "address",
          "name": "",
          "type": "address"
        }
      ],
      "name": "addressToPublicKey",
      "outputs": [
        {
          "internalType": "bytes",
          "name": "",
          "type": "bytes"
        }
      ],
      "stateMutability": "view",
      "type": "function"
    },
    {
      "inputs": [
        {
          "internalType": "address",
          "name": "_a",
          "type": "address"
        }
      ],
      "name": "getPublicKey",
      "outputs": [
        {
          "internalType": "bytes",
          "name": "",
          "type": "bytes"
        }
      ],
      "stateMutability": "view",
      "type": "function"
    },
    {
      "inputs": [
        {
          "internalType": "bytes",
          "name": "_publicKey",
          "type": "bytes"
        }
      ],
      "name": "register",
      "outputs": [],
      "stateMutability": "nonpayable",
      "type": "function"
    }
  ],
  "bytecode": "0x608060405234801561001057600080fd5b506108c2806100206000396000f3fe608060405234801561001057600080fd5b50600436106100415760003560e01c806369f465b61461004657806382fbdc9c14610076578063857cdbb814610092575b600080fd5b610060600480360381019061005b9190610347565b6100c2565b60405161006d9190610404565b60405180910390f35b610090600480360381019061008b919061055b565b610162565b005b6100ac60048036038101906100a79190610347565b6101ff565b6040516100b99190610404565b60405180910390f35b600060205280600052604060002060009150905080546100e1906105d3565b80601f016020809104026020016040519081016040528092919081815260200182805461010d906105d3565b801561015a5780601f1061012f5761010080835404028352916020019161015a565b820191906000526020600020905b81548152906001019060200180831161013d57829003601f168201915b505050505081565b806000803373ffffffffffffffffffffffffffffffffffffffff1673ffffffffffffffffffffffffffffffffffffffff16815260200190815260200160002090816101ad91906107ba565b503373ffffffffffffffffffffffffffffffffffffffff167fb5ca2dfb0bd25603299b76fefa9fbe3abdc9f951bdfb7ffd208f93ab7f8e203c826040516101f49190610404565b60405180910390a250565b606060008060008473ffffffffffffffffffffffffffffffffffffffff1673ffffffffffffffffffffffffffffffffffffffff168152602001908152602001600020805461024c906105d3565b80601f0160208091040260200160405190810160405280929190818152602001828054610278906105d3565b80156102c55780601f1061029a576101008083540402835291602001916102c5565b820191906000526020600020905b8154815290600101906020018083116102a857829003601f168201915b5050505050905080915050919050565b6000604051905090565b600080fd5b600080fd5b600073ffffffffffffffffffffffffffffffffffffffff82169050919050565b6000610314826102e9565b9050919050565b61032481610309565b811461032f57600080fd5b50565b6000813590506103418161031b565b92915050565b60006020828403121561035d5761035c6102df565b5b600061036b84828501610332565b91505092915050565b600081519050919050565b600082825260208201905092915050565b60005b838110156103ae578082015181840152602081019050610393565b60008484015250505050565b6000601f19601f8301169050919050565b60006103d682610374565b6103e0818561037f565b93506103f0818560208601610390565b6103f9816103ba565b840191505092915050565b6000602082019050818103600083015261041e81846103cb565b905092915050565b600080fd5b600080fd5b7f4e487b7100000000000000000000000000000000000000000000000000000000600052604160045260246000fd5b610468826103ba565b810181811067ffffffffffffffff8211171561048757610486610430565b5b80604052505050565b600061049a6102d5565b90506104a6828261045f565b919050565b600067ffffffffffffffff8211156104c6576104c5610430565b5b6104cf826103ba565b9050602081019050919050565b82818337600083830152505050565b60006104fe6104f9846104ab565b610490565b90508281526020810184848401111561051a5761051961042b565b5b6105258482856104dc565b509392505050565b600082601f83011261054257610541610426565b5b81356105528482602086016104eb565b91505092915050565b600060208284031215610571576105706102df565b5b600082013567ffffffffffffffff81111561058f5761058e6102e4565b5b61059b8482850161052d565b91505092915050565b7f4e487b7100000000000000000000000000000000000000000000000000000000600052602260045260246000fd5b600060028204905060018216806105eb57607f821691505b6020821081036105fe576105fd6105a4565b5b50919050565b60008190508160005260206000209050919050565b60006020601f8301049050919050565b600082821b905092915050565b6000600883026106667fffffffffffffffffffffffffffffffffffffffffffffffffffffffffffffffff82610629565b6106708683610629565b95508019841693508086168417925050509392505050565b6000819050919050565b6000819050919050565b60006106b76106b26106ad84610688565b610692565b610688565b9050919050565b6000819050919050565b6106d18361069c565b6106e56106dd826106be565b848454610636565b825550505050565b600090565b6106fa6106ed565b6107058184846106c8565b505050565b5b818110156107295761071e6000826106f2565b60018101905061070b565b5050565b601f82111561076e5761073f81610604565b61074884610619565b81016020851015610757578190505b61076b61076385610619565b83018261070a565b50505b505050565b600082821c905092915050565b600061079160001984600802610773565b1980831691505092915050565b60006107aa8383610780565b9150826002028217905092915050565b6107c382610374565b67ffffffffffffffff8111156107dc576107db610430565b5b6107e682546105d3565b6107f182828561072d565b600060209050601f8311600181146108245760008415610812578287015190505b61081c858261079e565b865550610884565b601f19841661083286610604565b60005b8281101561085a57848901518255600182019150602085019450602081019050610835565b868310156108775784890151610873601f891682610780565b8355505b6001600288020188555050505b50505050505056fea26469706673582212204aed3fa5e6bcd007c51fc0c0a397cba107a68299e269bd5ddff6ee56d55bfb8d64736f6c63430008130033",
  "linkReferences": {},
  "deployedLinkReferences": {}
}