{
  "_format": "hh-sol-artifact-1",
  "contractName": "CHD",
  "sourceName": "contracts/FlatBasetoken.sol",
  "abi": [
    {
      "inputs": [
        {
          "internalType": "address",
          "name": "_charon",
          "type": "address"
        },
        {
          "internalType": "string",
          "name": "_name",
          "type": "string"
        },
        {
          "internalType": "string",
          "name": "_symbol",
          "type": "string"
        }
      ],
      "stateMutability": "nonpayable",
      "type": "constructor"
    },
    {
      "anonymous": false,
      "inputs": [
        {
          "indexed": true,
          "internalType": "address",
          "name": "_src",
          "type": "address"
        },
        {
          "indexed": true,
          "internalType": "address",
          "name": "_dst",
          "type": "address"
        },
        {
          "indexed": false,
          "internalType": "uint256",
          "name": "_amt",
          "type": "uint256"
        }
      ],
      "name": "Approval",
      "type": "event"
    },
    {
      "anonymous": false,
      "inputs": [
        {
          "indexed": false,
          "internalType": "address",
          "name": "_from",
          "type": "address"
        },
        {
          "indexed": false,
          "internalType": "uint256",
          "name": "_amount",
          "type": "uint256"
        }
      ],
      "name": "CHDBurned",
      "type": "event"
    },
    {
      "anonymous": false,
      "inputs": [
        {
          "indexed": false,
          "internalType": "address",
          "name": "_to",
          "type": "address"
        },
        {
          "indexed": false,
          "internalType": "uint256",
          "name": "_amount",
          "type": "uint256"
        }
      ],
      "name": "CHDMinted",
      "type": "event"
    },
    {
      "anonymous": false,
      "inputs": [
        {
          "indexed": true,
          "internalType": "address",
          "name": "_src",
          "type": "address"
        },
        {
          "indexed": true,
          "internalType": "address",
          "name": "_dst",
          "type": "address"
        },
        {
          "indexed": false,
          "internalType": "uint256",
          "name": "_amt",
          "type": "uint256"
        }
      ],
      "name": "Transfer",
      "type": "event"
    },
    {
      "inputs": [
        {
          "internalType": "address",
          "name": "_src",
          "type": "address"
        },
        {
          "internalType": "address",
          "name": "_dst",
          "type": "address"
        }
      ],
      "name": "allowance",
      "outputs": [
        {
          "internalType": "uint256",
          "name": "",
          "type": "uint256"
        }
      ],
      "stateMutability": "view",
      "type": "function"
    },
    {
      "inputs": [
        {
          "internalType": "address",
          "name": "_spender",
          "type": "address"
        },
        {
          "internalType": "uint256",
          "name": "_amount",
          "type": "uint256"
        }
      ],
      "name": "approve",
      "outputs": [
        {
          "internalType": "bool",
          "name": "",
          "type": "bool"
        }
      ],
      "stateMutability": "nonpayable",
      "type": "function"
    },
    {
      "inputs": [
        {
          "internalType": "address",
          "name": "_user",
          "type": "address"
        }
      ],
      "name": "balanceOf",
      "outputs": [
        {
          "internalType": "uint256",
          "name": "",
          "type": "uint256"
        }
      ],
      "stateMutability": "view",
      "type": "function"
    },
    {
      "inputs": [
        {
          "internalType": "address",
          "name": "_from",
          "type": "address"
        },
        {
          "internalType": "uint256",
          "name": "_amount",
          "type": "uint256"
        }
      ],
      "name": "burnCHD",
      "outputs": [
        {
          "internalType": "bool",
          "name": "",
          "type": "bool"
        }
      ],
      "stateMutability": "nonpayable",
      "type": "function"
    },
    {
      "inputs": [],
      "name": "charon",
      "outputs": [
        {
          "internalType": "address",
          "name": "",
          "type": "address"
        }
      ],
      "stateMutability": "view",
      "type": "function"
    },
    {
      "inputs": [],
      "name": "decimals",
      "outputs": [
        {
          "internalType": "uint8",
          "name": "",
          "type": "uint8"
        }
      ],
      "stateMutability": "pure",
      "type": "function"
    },
    {
      "inputs": [
        {
          "internalType": "address",
          "name": "_to",
          "type": "address"
        },
        {
          "internalType": "uint256",
          "name": "_amount",
          "type": "uint256"
        }
      ],
      "name": "mintCHD",
      "outputs": [
        {
          "internalType": "bool",
          "name": "",
          "type": "bool"
        }
      ],
      "stateMutability": "nonpayable",
      "type": "function"
    },
    {
      "inputs": [],
      "name": "name",
      "outputs": [
        {
          "internalType": "string",
          "name": "",
          "type": "string"
        }
      ],
      "stateMutability": "view",
      "type": "function"
    },
    {
      "inputs": [],
      "name": "symbol",
      "outputs": [
        {
          "internalType": "string",
          "name": "",
          "type": "string"
        }
      ],
      "stateMutability": "view",
      "type": "function"
    },
    {
      "inputs": [],
      "name": "totalSupply",
      "outputs": [
        {
          "internalType": "uint256",
          "name": "",
          "type": "uint256"
        }
      ],
      "stateMutability": "view",
      "type": "function"
    },
    {
      "inputs": [
        {
          "internalType": "address",
          "name": "_to",
          "type": "address"
        },
        {
          "internalType": "uint256",
          "name": "_amount",
          "type": "uint256"
        }
      ],
      "name": "transfer",
      "outputs": [
        {
          "internalType": "bool",
          "name": "",
          "type": "bool"
        }
      ],
      "stateMutability": "nonpayable",
      "type": "function"
    },
    {
      "inputs": [
        {
          "internalType": "address",
          "name": "_from",
          "type": "address"
        },
        {
          "internalType": "address",
          "name": "_to",
          "type": "address"
        },
        {
          "internalType": "uint256",
          "name": "_amount",
          "type": "uint256"
        }
      ],
      "name": "transferFrom",
      "outputs": [
        {
          "internalType": "bool",
          "name": "",
          "type": "bool"
        }
      ],
      "stateMutability": "nonpayable",
      "type": "function"
    }
  ],
  "bytecode": "0x60806040523480156200001157600080fd5b5060405162000c3338038062000c33833981016040819052620000349162000145565b818160006200004483826200025e565b5060016200005382826200025e565b5050600580546001600160a01b0319166001600160a01b039590951694909417909355506200032a915050565b634e487b7160e01b600052604160045260246000fd5b600082601f830112620000a857600080fd5b81516001600160401b0380821115620000c557620000c562000080565b604051601f8301601f19908116603f01168101908282118183101715620000f057620000f062000080565b816040528381526020925086838588010111156200010d57600080fd5b600091505b8382101562000131578582018301518183018401529082019062000112565b600093810190920192909252949350505050565b6000806000606084860312156200015b57600080fd5b83516001600160a01b03811681146200017357600080fd5b60208501519093506001600160401b03808211156200019157600080fd5b6200019f8783880162000096565b93506040860151915080821115620001b657600080fd5b50620001c58682870162000096565b9150509250925092565b600181811c90821680620001e457607f821691505b6020821081036200020557634e487b7160e01b600052602260045260246000fd5b50919050565b601f8211156200025957600081815260208120601f850160051c81016020861015620002345750805b601f850160051c820191505b81811015620002555782815560010162000240565b5050505b505050565b81516001600160401b038111156200027a576200027a62000080565b62000292816200028b8454620001cf565b846200020b565b602080601f831160018114620002ca5760008415620002b15750858301515b600019600386901b1c1916600185901b17855562000255565b600085815260208120601f198616915b82811015620002fb57888601518255948401946001909101908401620002da565b50858210156200031a5787850151600019600388901b60f8161c191681555b5050505050600190811b01905550565b6108f9806200033a6000396000f3fe608060405234801561001057600080fd5b50600436106100a45760003560e01c806306fdde03146100a9578063095ea7b3146100c757806314d8349e146100ea57806318160ddd146100fd57806323b872dd1461010f578063313ce5671461012257806370a082311461013157806395d89b411461015a578063a9059cbb14610162578063d4beb4fd14610175578063dd62ed3e14610188578063fc571a5c146101c1575b600080fd5b6100b16101ec565b6040516100be91906106a0565b60405180910390f35b6100da6100d536600461070a565b61027e565b60405190151581526020016100be565b6100da6100f836600461070a565b6102d9565b6002545b6040519081526020016100be565b6100da61011d366004610734565b61035b565b604051601281526020016100be565b61010161013f366004610770565b6001600160a01b031660009081526003602052604090205490565b6100b1610474565b6100da61017036600461070a565b610483565b6100da61018336600461070a565b610499565b610101610196366004610792565b6001600160a01b03918216600090815260046020908152604080832093909416825291909152205490565b6005546101d4906001600160a01b031681565b6040516001600160a01b0390911681526020016100be565b6060600080546101fb906107c5565b80601f0160208091040260200160405190810160405280929190818152602001828054610227906107c5565b80156102745780601f1061024957610100808354040283529160200191610274565b820191906000526020600020905b81548152906001019060200180831161025757829003601f168201915b5050505050905090565b3360008181526004602090815260408083206001600160a01b038716808552925280832085905551919290916000805160206108a4833981519152906102c79086815260200190565b60405180910390a35060015b92915050565b6005546000906001600160a01b0316331461030f5760405162461bcd60e51b8152600401610306906107ff565b60405180910390fd5b6103198383610501565b7f5c5cb3e0a9ad2ec73b92c9ed2e03a34ddde0c53b0fd7411b12eb811c5a6fd9e1838360405161034a92919061082e565b60405180910390a150600192915050565b6000336001600160a01b038516148061039757506001600160a01b03841660009081526004602090815260408083203384529091529020548211155b6103d25760405162461bcd60e51b815260206004820152600c60248201526b1b9bdd08185c1c1c9bdd995960a21b6044820152606401610306565b6103dd848484610583565b336001600160a01b0385161461046a576001600160a01b038416600090815260046020908152604080832033845290915290205461041c90839061085d565b6001600160a01b0385811660009081526004602090815260408083203380855290835292819020859055519384529186169290916000805160206108a4833981519152910160405180910390a35b5060019392505050565b6060600180546101fb906107c5565b6000610490338484610583565b50600192915050565b6005546000906001600160a01b031633146104c65760405162461bcd60e51b8152600401610306906107ff565b6104d08383610626565b7f42fdba80807c442430fe8d9ad3387e6464f57216915bef176ca27337de13bf77838360405161034a92919061082e565b6001600160a01b03821660009081526003602052604090205461052590829061085d565b6001600160a01b03831660009081526003602052604090205560025461054c90829061085d565b6002556040518181526000906001600160a01b03841690600080516020610884833981519152906020015b60405180910390a35050565b6001600160a01b0383166000908152600360205260409020546105a790829061085d565b6001600160a01b0380851660009081526003602052604080822093909355908416815220546105d7908290610870565b6001600160a01b038084166000818152600360205260409081902093909355915190851690600080516020610884833981519152906106199085815260200190565b60405180910390a3505050565b6001600160a01b03821660009081526003602052604090205461064a908290610870565b6001600160a01b038316600090815260036020526040902055600254610671908290610870565b6002556040518181526001600160a01b0383169060009060008051602061088483398151915290602001610577565b600060208083528351808285015260005b818110156106cd578581018301518582016040015282016106b1565b506000604082860101526040601f19601f8301168501019250505092915050565b80356001600160a01b038116811461070557600080fd5b919050565b6000806040838503121561071d57600080fd5b610726836106ee565b946020939093013593505050565b60008060006060848603121561074957600080fd5b610752846106ee565b9250610760602085016106ee565b9150604084013590509250925092565b60006020828403121561078257600080fd5b61078b826106ee565b9392505050565b600080604083850312156107a557600080fd5b6107ae836106ee565b91506107bc602084016106ee565b90509250929050565b600181811c908216806107d957607f821691505b6020821081036107f957634e487b7160e01b600052602260045260246000fd5b50919050565b60208082526015908201527431b0b63632b91036bab9ba1031329031b430b937b760591b604082015260600190565b6001600160a01b03929092168252602082015260400190565b634e487b7160e01b600052601160045260246000fd5b818103818111156102d3576102d3610847565b808201808211156102d3576102d361084756feddf252ad1be2c89b69c2b068fc378daa952ba7f163c4a11628f55a4df523b3ef8c5be1e5ebec7d5bd14f71427d1e84f3dd0314c0f7b2291e5b200ac8c7c3b925a2646970667358221220e3e791abbdf68a5520dcdbcea8cd790a85ba986433d5c035f311d33d0240c75e64736f6c63430008110033",
  "linkReferences": {},
  "deployedLinkReferences": {}
}