{
  "_format": "hh-sol-artifact-1",
  "contractName": "CHD",
  "sourceName": "contracts/FlatBasetoken.sol",
  "abi": [
    {
      "inputs": [
        {
          "internalType": "address",
          "name": "_charon",
          "type": "address"
        },
        {
          "internalType": "string",
          "name": "_name",
          "type": "string"
        },
        {
          "internalType": "string",
          "name": "_symbol",
          "type": "string"
        }
      ],
      "stateMutability": "nonpayable",
      "type": "constructor"
    },
    {
      "anonymous": false,
      "inputs": [
        {
          "indexed": true,
          "internalType": "address",
          "name": "_src",
          "type": "address"
        },
        {
          "indexed": true,
          "internalType": "address",
          "name": "_dst",
          "type": "address"
        },
        {
          "indexed": false,
          "internalType": "uint256",
          "name": "_amt",
          "type": "uint256"
        }
      ],
      "name": "Approval",
      "type": "event"
    },
    {
      "anonymous": false,
      "inputs": [
        {
          "indexed": false,
          "internalType": "address",
          "name": "_from",
          "type": "address"
        },
        {
          "indexed": false,
          "internalType": "uint256",
          "name": "_amount",
          "type": "uint256"
        }
      ],
      "name": "CHDBurned",
      "type": "event"
    },
    {
      "anonymous": false,
      "inputs": [
        {
          "indexed": false,
          "internalType": "address",
          "name": "_to",
          "type": "address"
        },
        {
          "indexed": false,
          "internalType": "uint256",
          "name": "_amount",
          "type": "uint256"
        }
      ],
      "name": "CHDMinted",
      "type": "event"
    },
    {
      "anonymous": false,
      "inputs": [
        {
          "indexed": true,
          "internalType": "address",
          "name": "_src",
          "type": "address"
        },
        {
          "indexed": true,
          "internalType": "address",
          "name": "_dst",
          "type": "address"
        },
        {
          "indexed": false,
          "internalType": "uint256",
          "name": "_amt",
          "type": "uint256"
        }
      ],
      "name": "Transfer",
      "type": "event"
    },
    {
      "inputs": [
        {
          "internalType": "address",
          "name": "_src",
          "type": "address"
        },
        {
          "internalType": "address",
          "name": "_dst",
          "type": "address"
        }
      ],
      "name": "allowance",
      "outputs": [
        {
          "internalType": "uint256",
          "name": "",
          "type": "uint256"
        }
      ],
      "stateMutability": "view",
      "type": "function"
    },
    {
      "inputs": [
        {
          "internalType": "address",
          "name": "_spender",
          "type": "address"
        },
        {
          "internalType": "uint256",
          "name": "_amount",
          "type": "uint256"
        }
      ],
      "name": "approve",
      "outputs": [
        {
          "internalType": "bool",
          "name": "",
          "type": "bool"
        }
      ],
      "stateMutability": "nonpayable",
      "type": "function"
    },
    {
      "inputs": [
        {
          "internalType": "address",
          "name": "_user",
          "type": "address"
        }
      ],
      "name": "balanceOf",
      "outputs": [
        {
          "internalType": "uint256",
          "name": "",
          "type": "uint256"
        }
      ],
      "stateMutability": "view",
      "type": "function"
    },
    {
      "inputs": [
        {
          "internalType": "address",
          "name": "_from",
          "type": "address"
        },
        {
          "internalType": "uint256",
          "name": "_amount",
          "type": "uint256"
        }
      ],
      "name": "burnCHD",
      "outputs": [],
      "stateMutability": "nonpayable",
      "type": "function"
    },
    {
      "inputs": [],
      "name": "charon",
      "outputs": [
        {
          "internalType": "address",
          "name": "",
          "type": "address"
        }
      ],
      "stateMutability": "view",
      "type": "function"
    },
    {
      "inputs": [],
      "name": "decimals",
      "outputs": [
        {
          "internalType": "uint8",
          "name": "",
          "type": "uint8"
        }
      ],
      "stateMutability": "pure",
      "type": "function"
    },
    {
      "inputs": [
        {
          "internalType": "address",
          "name": "_to",
          "type": "address"
        },
        {
          "internalType": "uint256",
          "name": "_amount",
          "type": "uint256"
        }
      ],
      "name": "mintCHD",
      "outputs": [],
      "stateMutability": "nonpayable",
      "type": "function"
    },
    {
      "inputs": [],
      "name": "name",
      "outputs": [
        {
          "internalType": "string",
          "name": "",
          "type": "string"
        }
      ],
      "stateMutability": "view",
      "type": "function"
    },
    {
      "inputs": [],
      "name": "symbol",
      "outputs": [
        {
          "internalType": "string",
          "name": "",
          "type": "string"
        }
      ],
      "stateMutability": "view",
      "type": "function"
    },
    {
      "inputs": [],
      "name": "totalSupply",
      "outputs": [
        {
          "internalType": "uint256",
          "name": "",
          "type": "uint256"
        }
      ],
      "stateMutability": "view",
      "type": "function"
    },
    {
      "inputs": [
        {
          "internalType": "address",
          "name": "_to",
          "type": "address"
        },
        {
          "internalType": "uint256",
          "name": "_amount",
          "type": "uint256"
        }
      ],
      "name": "transfer",
      "outputs": [
        {
          "internalType": "bool",
          "name": "",
          "type": "bool"
        }
      ],
      "stateMutability": "nonpayable",
      "type": "function"
    },
    {
      "inputs": [
        {
          "internalType": "address",
          "name": "_from",
          "type": "address"
        },
        {
          "internalType": "address",
          "name": "_to",
          "type": "address"
        },
        {
          "internalType": "uint256",
          "name": "_amount",
          "type": "uint256"
        }
      ],
      "name": "transferFrom",
      "outputs": [
        {
          "internalType": "bool",
          "name": "",
          "type": "bool"
        }
      ],
      "stateMutability": "nonpayable",
      "type": "function"
    }
  ],
  "bytecode": "0x60806040523480156200001157600080fd5b5060405162000bf438038062000bf4833981016040819052620000349162000145565b818160006200004483826200025e565b5060016200005382826200025e565b5050600580546001600160a01b0319166001600160a01b039590951694909417909355506200032a915050565b634e487b7160e01b600052604160045260246000fd5b600082601f830112620000a857600080fd5b81516001600160401b0380821115620000c557620000c562000080565b604051601f8301601f19908116603f01168101908282118183101715620000f057620000f062000080565b816040528381526020925086838588010111156200010d57600080fd5b600091505b8382101562000131578582018301518183018401529082019062000112565b600093810190920192909252949350505050565b6000806000606084860312156200015b57600080fd5b83516001600160a01b03811681146200017357600080fd5b60208501519093506001600160401b03808211156200019157600080fd5b6200019f8783880162000096565b93506040860151915080821115620001b657600080fd5b50620001c58682870162000096565b9150509250925092565b600181811c90821680620001e457607f821691505b6020821081036200020557634e487b7160e01b600052602260045260246000fd5b50919050565b601f8211156200025957600081815260208120601f850160051c81016020861015620002345750805b601f850160051c820191505b81811015620002555782815560010162000240565b5050505b505050565b81516001600160401b038111156200027a576200027a62000080565b62000292816200028b8454620001cf565b846200020b565b602080601f831160018114620002ca5760008415620002b15750858301515b600019600386901b1c1916600185901b17855562000255565b600085815260208120601f198616915b82811015620002fb57888601518255948401946001909101908401620002da565b50858210156200031a5787850151600019600388901b60f8161c191681555b5050505050600190811b01905550565b6108ba806200033a6000396000f3fe608060405234801561001057600080fd5b50600436106100b45760003560e01c806370a082311161007157806370a082311461014357806395d89b411461016c578063a9059cbb14610174578063d4beb4fd14610187578063dd62ed3e1461019a578063fc571a5c146101d357600080fd5b806306fdde03146100b9578063095ea7b3146100d757806314d8349e146100fa57806318160ddd1461010f57806323b872dd14610121578063313ce56714610134575b600080fd5b6100c16101fe565b6040516100ce91906106e9565b60405180910390f35b6100ea6100e5366004610753565b610290565b60405190151581526020016100ce565b61010d610108366004610753565b6102fd565b005b6002545b6040519081526020016100ce565b6100ea61012f36600461077d565b610365565b604051601281526020016100ce565b6101136101513660046107b9565b6001600160a01b031660009081526003602052604090205490565b6100c161048f565b6100ea610182366004610753565b61049e565b61010d610195366004610753565b6104b4565b6101136101a83660046107db565b6001600160a01b03918216600090815260046020908152604080832093909416825291909152205490565b6005546101e6906001600160a01b031681565b6040516001600160a01b0390911681526020016100ce565b60606000805461020d9061080e565b80601f01602080910402602001604051908101604052809291908181526020018280546102399061080e565b80156102865780601f1061025b57610100808354040283529160200191610286565b820191906000526020600020905b81548152906001019060200180831161026957829003601f168201915b5050505050905090565b3360008181526004602090815260408083206001600160a01b038716808552925280832085905551919290917f8c5be1e5ebec7d5bd14f71427d1e84f3dd0314c0f7b2291e5b200ac8c7c3b925906102eb9086815260200190565b60405180910390a35060015b92915050565b6005546001600160a01b0316331461031457600080fd5b61031e8282610514565b604080516001600160a01b0384168152602081018390527f5c5cb3e0a9ad2ec73b92c9ed2e03a34ddde0c53b0fd7411b12eb811c5a6fd9e191015b60405180910390a15050565b6000336001600160a01b03851614806103a157506001600160a01b03841660009081526004602090815260408083203384529091529020548211155b6103e05760405162461bcd60e51b815260206004820152600c60248201526b1b9bdd08185c1c1c9bdd995960a21b604482015260640160405180910390fd5b6103eb8484846105a8565b336001600160a01b03851614610485576001600160a01b038416600090815260046020908152604080832033845290915290205461042a90839061085e565b6001600160a01b038516600081815260046020908152604080832033808552908352928190208590555193845290927f8c5be1e5ebec7d5bd14f71427d1e84f3dd0314c0f7b2291e5b200ac8c7c3b925910160405180910390a35b5060019392505050565b60606001805461020d9061080e565b60006104ab3384846105a8565b50600192915050565b6005546001600160a01b031633146104cb57600080fd5b6104d5828261065d565b604080516001600160a01b0384168152602081018390527f42fdba80807c442430fe8d9ad3387e6464f57216915bef176ca27337de13bf779101610359565b6001600160a01b03821660009081526003602052604090205461053890829061085e565b6001600160a01b03831660009081526003602052604090205560025461055f90829061085e565b6002556040518181526000906001600160a01b038416907fddf252ad1be2c89b69c2b068fc378daa952ba7f163c4a11628f55a4df523b3ef906020015b60405180910390a35050565b6001600160a01b0383166000908152600360205260409020546105cc90829061085e565b6001600160a01b0380851660009081526003602052604080822093909355908416815220546105fc908290610871565b6001600160a01b0380841660008181526003602052604090819020939093559151908516907fddf252ad1be2c89b69c2b068fc378daa952ba7f163c4a11628f55a4df523b3ef906106509085815260200190565b60405180910390a3505050565b6001600160a01b038216600090815260036020526040902054610681908290610871565b6001600160a01b0383166000908152600360205260409020556002546106a8908290610871565b6002556040518181526001600160a01b038316906000907fddf252ad1be2c89b69c2b068fc378daa952ba7f163c4a11628f55a4df523b3ef9060200161059c565b600060208083528351808285015260005b81811015610716578581018301518582016040015282016106fa565b506000604082860101526040601f19601f8301168501019250505092915050565b80356001600160a01b038116811461074e57600080fd5b919050565b6000806040838503121561076657600080fd5b61076f83610737565b946020939093013593505050565b60008060006060848603121561079257600080fd5b61079b84610737565b92506107a960208501610737565b9150604084013590509250925092565b6000602082840312156107cb57600080fd5b6107d482610737565b9392505050565b600080604083850312156107ee57600080fd5b6107f783610737565b915061080560208401610737565b90509250929050565b600181811c9082168061082257607f821691505b60208210810361084257634e487b7160e01b600052602260045260246000fd5b50919050565b634e487b7160e01b600052601160045260246000fd5b818103818111156102f7576102f7610848565b808201808211156102f7576102f761084856fea26469706673582212206556291b1eab1e15dbe5c860e653a77ffb00d88f398bccde3aee2ae09194922d64736f6c63430008110033",
  "linkReferences": {},
  "deployedLinkReferences": {}
}