{
  "_format": "hh-sol-artifact-1",
  "contractName": "MockERC20",
  "sourceName": "contracts/FlatBasetoken.sol",
  "abi": [
    {
      "inputs": [
        {
          "internalType": "address",
          "name": "_charon",
          "type": "address"
        },
        {
          "internalType": "string",
          "name": "_name",
          "type": "string"
        },
        {
          "internalType": "string",
          "name": "_symbol",
          "type": "string"
        }
      ],
      "stateMutability": "nonpayable",
      "type": "constructor"
    },
    {
      "anonymous": false,
      "inputs": [
        {
          "indexed": true,
          "internalType": "address",
          "name": "_src",
          "type": "address"
        },
        {
          "indexed": true,
          "internalType": "address",
          "name": "_dst",
          "type": "address"
        },
        {
          "indexed": false,
          "internalType": "uint256",
          "name": "_amt",
          "type": "uint256"
        }
      ],
      "name": "Approval",
      "type": "event"
    },
    {
      "anonymous": false,
      "inputs": [
        {
          "indexed": false,
          "internalType": "address",
          "name": "_from",
          "type": "address"
        },
        {
          "indexed": false,
          "internalType": "uint256",
          "name": "_amount",
          "type": "uint256"
        }
      ],
      "name": "CHDBurned",
      "type": "event"
    },
    {
      "anonymous": false,
      "inputs": [
        {
          "indexed": false,
          "internalType": "address",
          "name": "_to",
          "type": "address"
        },
        {
          "indexed": false,
          "internalType": "uint256",
          "name": "_amount",
          "type": "uint256"
        }
      ],
      "name": "CHDMinted",
      "type": "event"
    },
    {
      "anonymous": false,
      "inputs": [
        {
          "indexed": true,
          "internalType": "address",
          "name": "_src",
          "type": "address"
        },
        {
          "indexed": true,
          "internalType": "address",
          "name": "_dst",
          "type": "address"
        },
        {
          "indexed": false,
          "internalType": "uint256",
          "name": "_amt",
          "type": "uint256"
        }
      ],
      "name": "Transfer",
      "type": "event"
    },
    {
      "inputs": [
        {
          "internalType": "address",
          "name": "_src",
          "type": "address"
        },
        {
          "internalType": "address",
          "name": "_dst",
          "type": "address"
        }
      ],
      "name": "allowance",
      "outputs": [
        {
          "internalType": "uint256",
          "name": "",
          "type": "uint256"
        }
      ],
      "stateMutability": "view",
      "type": "function"
    },
    {
      "inputs": [
        {
          "internalType": "address",
          "name": "_spender",
          "type": "address"
        },
        {
          "internalType": "uint256",
          "name": "_amount",
          "type": "uint256"
        }
      ],
      "name": "approve",
      "outputs": [
        {
          "internalType": "bool",
          "name": "",
          "type": "bool"
        }
      ],
      "stateMutability": "nonpayable",
      "type": "function"
    },
    {
      "inputs": [
        {
          "internalType": "address",
          "name": "_user",
          "type": "address"
        }
      ],
      "name": "balanceOf",
      "outputs": [
        {
          "internalType": "uint256",
          "name": "",
          "type": "uint256"
        }
      ],
      "stateMutability": "view",
      "type": "function"
    },
    {
      "inputs": [
        {
          "internalType": "address",
          "name": "account",
          "type": "address"
        },
        {
          "internalType": "uint256",
          "name": "amount",
          "type": "uint256"
        }
      ],
      "name": "burn",
      "outputs": [],
      "stateMutability": "nonpayable",
      "type": "function"
    },
    {
      "inputs": [
        {
          "internalType": "address",
          "name": "_from",
          "type": "address"
        },
        {
          "internalType": "uint256",
          "name": "_amount",
          "type": "uint256"
        }
      ],
      "name": "burnCHD",
      "outputs": [],
      "stateMutability": "nonpayable",
      "type": "function"
    },
    {
      "inputs": [],
      "name": "charon",
      "outputs": [
        {
          "internalType": "address",
          "name": "",
          "type": "address"
        }
      ],
      "stateMutability": "view",
      "type": "function"
    },
    {
      "inputs": [],
      "name": "decimals",
      "outputs": [
        {
          "internalType": "uint8",
          "name": "",
          "type": "uint8"
        }
      ],
      "stateMutability": "pure",
      "type": "function"
    },
    {
      "inputs": [
        {
          "internalType": "address",
          "name": "account",
          "type": "address"
        },
        {
          "internalType": "uint256",
          "name": "amount",
          "type": "uint256"
        }
      ],
      "name": "mint",
      "outputs": [],
      "stateMutability": "nonpayable",
      "type": "function"
    },
    {
      "inputs": [
        {
          "internalType": "address",
          "name": "_to",
          "type": "address"
        },
        {
          "internalType": "uint256",
          "name": "_amount",
          "type": "uint256"
        }
      ],
      "name": "mintCHD",
      "outputs": [],
      "stateMutability": "nonpayable",
      "type": "function"
    },
    {
      "inputs": [],
      "name": "name",
      "outputs": [
        {
          "internalType": "string",
          "name": "",
          "type": "string"
        }
      ],
      "stateMutability": "view",
      "type": "function"
    },
    {
      "inputs": [],
      "name": "symbol",
      "outputs": [
        {
          "internalType": "string",
          "name": "",
          "type": "string"
        }
      ],
      "stateMutability": "view",
      "type": "function"
    },
    {
      "inputs": [],
      "name": "totalSupply",
      "outputs": [
        {
          "internalType": "uint256",
          "name": "",
          "type": "uint256"
        }
      ],
      "stateMutability": "view",
      "type": "function"
    },
    {
      "inputs": [
        {
          "internalType": "address",
          "name": "_to",
          "type": "address"
        },
        {
          "internalType": "uint256",
          "name": "_amount",
          "type": "uint256"
        }
      ],
      "name": "transfer",
      "outputs": [
        {
          "internalType": "bool",
          "name": "",
          "type": "bool"
        }
      ],
      "stateMutability": "nonpayable",
      "type": "function"
    },
    {
      "inputs": [
        {
          "internalType": "address",
          "name": "_from",
          "type": "address"
        },
        {
          "internalType": "address",
          "name": "_to",
          "type": "address"
        },
        {
          "internalType": "uint256",
          "name": "_amount",
          "type": "uint256"
        }
      ],
      "name": "transferFrom",
      "outputs": [
        {
          "internalType": "bool",
          "name": "",
          "type": "bool"
        }
      ],
      "stateMutability": "nonpayable",
      "type": "function"
    }
  ],
  "bytecode": "0x60806040523480156200001157600080fd5b5060405162000c6e38038062000c6e83398101604081905262000034916200014b565b8282828181600062000047838262000264565b50600162000056828262000264565b5050600580546001600160a01b0319166001600160a01b0395909516949094179093555062000330945050505050565b634e487b7160e01b600052604160045260246000fd5b600082601f830112620000ae57600080fd5b81516001600160401b0380821115620000cb57620000cb62000086565b604051601f8301601f19908116603f01168101908282118183101715620000f657620000f662000086565b816040528381526020925086838588010111156200011357600080fd5b600091505b8382101562000137578582018301518183018401529082019062000118565b600093810190920192909252949350505050565b6000806000606084860312156200016157600080fd5b83516001600160a01b03811681146200017957600080fd5b60208501519093506001600160401b03808211156200019757600080fd5b620001a5878388016200009c565b93506040860151915080821115620001bc57600080fd5b50620001cb868287016200009c565b9150509250925092565b600181811c90821680620001ea57607f821691505b6020821081036200020b57634e487b7160e01b600052602260045260246000fd5b50919050565b601f8211156200025f57600081815260208120601f850160051c810160208610156200023a5750805b601f850160051c820191505b818110156200025b5782815560010162000246565b5050505b505050565b81516001600160401b0381111562000280576200028062000086565b6200029881620002918454620001d5565b8462000211565b602080601f831160018114620002d05760008415620002b75750858301515b600019600386901b1c1916600185901b1785556200025b565b600085815260208120601f198616915b828110156200030157888601518255948401946001909101908401620002e0565b5085821015620003205787850151600019600388901b60f8161c191681555b5050505050600190811b01905550565b61092e80620003406000396000f3fe608060405234801561001057600080fd5b50600436106100ea5760003560e01c806370a082311161008c578063a9059cbb11610066578063a9059cbb146101d0578063d4beb4fd146101e3578063dd62ed3e146101f6578063fc571a5c1461022f57600080fd5b806370a082311461018c57806395d89b41146101b55780639dc29fac146101bd57600080fd5b806318160ddd116100c857806318160ddd1461014557806323b872dd14610157578063313ce5671461016a57806340c10f191461017957600080fd5b806306fdde03146100ef578063095ea7b31461010d57806314d8349e14610130575b600080fd5b6100f761025a565b604051610104919061075d565b60405180910390f35b61012061011b3660046107c7565b6102ec565b6040519015158152602001610104565b61014361013e3660046107c7565b610359565b005b6002545b604051908152602001610104565b6101206101653660046107f1565b6103c1565b60405160128152602001610104565b6101436101873660046107c7565b6104eb565b61014961019a36600461082d565b6001600160a01b031660009081526003602052604090205490565b6100f76104f9565b6101436101cb3660046107c7565b610508565b6101206101de3660046107c7565b610512565b6101436101f13660046107c7565b610528565b61014961020436600461084f565b6001600160a01b03918216600090815260046020908152604080832093909416825291909152205490565b600554610242906001600160a01b031681565b6040516001600160a01b039091168152602001610104565b60606000805461026990610882565b80601f016020809104026020016040519081016040528092919081815260200182805461029590610882565b80156102e25780601f106102b7576101008083540402835291602001916102e2565b820191906000526020600020905b8154815290600101906020018083116102c557829003601f168201915b5050505050905090565b3360008181526004602090815260408083206001600160a01b038716808552925280832085905551919290917f8c5be1e5ebec7d5bd14f71427d1e84f3dd0314c0f7b2291e5b200ac8c7c3b925906103479086815260200190565b60405180910390a35060015b92915050565b6005546001600160a01b0316331461037057600080fd5b61037a8282610588565b604080516001600160a01b0384168152602081018390527f5c5cb3e0a9ad2ec73b92c9ed2e03a34ddde0c53b0fd7411b12eb811c5a6fd9e191015b60405180910390a15050565b6000336001600160a01b03851614806103fd57506001600160a01b03841660009081526004602090815260408083203384529091529020548211155b61043c5760405162461bcd60e51b815260206004820152600c60248201526b1b9bdd08185c1c1c9bdd995960a21b604482015260640160405180910390fd5b61044784848461061c565b336001600160a01b038516146104e1576001600160a01b03841660009081526004602090815260408083203384529091529020546104869083906108d2565b6001600160a01b038516600081815260046020908152604080832033808552908352928190208590555193845290927f8c5be1e5ebec7d5bd14f71427d1e84f3dd0314c0f7b2291e5b200ac8c7c3b925910160405180910390a35b5060019392505050565b6104f582826106d1565b5050565b60606001805461026990610882565b6104f58282610588565b600061051f33848461061c565b50600192915050565b6005546001600160a01b0316331461053f57600080fd5b61054982826106d1565b604080516001600160a01b0384168152602081018390527f42fdba80807c442430fe8d9ad3387e6464f57216915bef176ca27337de13bf7791016103b5565b6001600160a01b0382166000908152600360205260409020546105ac9082906108d2565b6001600160a01b0383166000908152600360205260409020556002546105d39082906108d2565b6002556040518181526000906001600160a01b038416907fddf252ad1be2c89b69c2b068fc378daa952ba7f163c4a11628f55a4df523b3ef906020015b60405180910390a35050565b6001600160a01b0383166000908152600360205260409020546106409082906108d2565b6001600160a01b0380851660009081526003602052604080822093909355908416815220546106709082906108e5565b6001600160a01b0380841660008181526003602052604090819020939093559151908516907fddf252ad1be2c89b69c2b068fc378daa952ba7f163c4a11628f55a4df523b3ef906106c49085815260200190565b60405180910390a3505050565b6001600160a01b0382166000908152600360205260409020546106f59082906108e5565b6001600160a01b03831660009081526003602052604090205560025461071c9082906108e5565b6002556040518181526001600160a01b038316906000907fddf252ad1be2c89b69c2b068fc378daa952ba7f163c4a11628f55a4df523b3ef90602001610610565b600060208083528351808285015260005b8181101561078a5785810183015185820160400152820161076e565b506000604082860101526040601f19601f8301168501019250505092915050565b80356001600160a01b03811681146107c257600080fd5b919050565b600080604083850312156107da57600080fd5b6107e3836107ab565b946020939093013593505050565b60008060006060848603121561080657600080fd5b61080f846107ab565b925061081d602085016107ab565b9150604084013590509250925092565b60006020828403121561083f57600080fd5b610848826107ab565b9392505050565b6000806040838503121561086257600080fd5b61086b836107ab565b9150610879602084016107ab565b90509250929050565b600181811c9082168061089657607f821691505b6020821081036108b657634e487b7160e01b600052602260045260246000fd5b50919050565b634e487b7160e01b600052601160045260246000fd5b81810381811115610353576103536108bc565b80820180821115610353576103536108bc56fea264697066735822122050d47cab1c4a4526801b1b371a5a2bae498c8fc2dca7bbf925a200d2e0832dc064736f6c63430008110033",
  "linkReferences": {},
  "deployedLinkReferences": {}
}