{
  "_format": "hh-sol-artifact-1",
  "contractName": "MockPOLtoETHBridge",
  "sourceName": "charonAMM/contracts/mocks/MockPOLToETHBridge.sol",
  "abi": [
    {
      "inputs": [
        {
          "internalType": "address payable",
          "name": "_tellor",
          "type": "address"
        },
        {
          "internalType": "address",
          "name": "_fxChild",
          "type": "address"
        }
      ],
      "stateMutability": "nonpayable",
      "type": "constructor"
    },
    {
      "anonymous": false,
      "inputs": [
        {
          "indexed": false,
          "internalType": "uint256",
          "name": "_stateId",
          "type": "uint256"
        },
        {
          "indexed": false,
          "internalType": "bytes",
          "name": "_data",
          "type": "bytes"
        }
      ],
      "name": "MessageProcessed",
      "type": "event"
    },
    {
      "anonymous": false,
      "inputs": [
        {
          "indexed": false,
          "internalType": "bytes",
          "name": "message",
          "type": "bytes"
        }
      ],
      "name": "MessageSent",
      "type": "event"
    },
    {
      "inputs": [],
      "name": "charon",
      "outputs": [
        {
          "internalType": "address",
          "name": "",
          "type": "address"
        }
      ],
      "stateMutability": "view",
      "type": "function"
    },
    {
      "inputs": [
        {
          "internalType": "uint256",
          "name": "",
          "type": "uint256"
        }
      ],
      "name": "didPush",
      "outputs": [
        {
          "internalType": "bool",
          "name": "",
          "type": "bool"
        }
      ],
      "stateMutability": "view",
      "type": "function"
    },
    {
      "inputs": [],
      "name": "fxChild",
      "outputs": [
        {
          "internalType": "address",
          "name": "",
          "type": "address"
        }
      ],
      "stateMutability": "view",
      "type": "function"
    },
    {
      "inputs": [],
      "name": "fxRootTunnel",
      "outputs": [
        {
          "internalType": "address",
          "name": "",
          "type": "address"
        }
      ],
      "stateMutability": "view",
      "type": "function"
    },
    {
      "inputs": [
        {
          "internalType": "bytes",
          "name": "_inputData",
          "type": "bytes"
        }
      ],
      "name": "getCommitment",
      "outputs": [
        {
          "internalType": "bytes",
          "name": "_value",
          "type": "bytes"
        },
        {
          "internalType": "address",
          "name": "",
          "type": "address"
        }
      ],
      "stateMutability": "nonpayable",
      "type": "function"
    },
    {
      "inputs": [
        {
          "internalType": "bytes32",
          "name": "_queryId",
          "type": "bytes32"
        },
        {
          "internalType": "uint256",
          "name": "_timestamp",
          "type": "uint256"
        }
      ],
      "name": "getDataAfter",
      "outputs": [
        {
          "internalType": "bytes",
          "name": "_value",
          "type": "bytes"
        },
        {
          "internalType": "uint256",
          "name": "_timestampRetrieved",
          "type": "uint256"
        }
      ],
      "stateMutability": "view",
      "type": "function"
    },
    {
      "inputs": [
        {
          "internalType": "bytes32",
          "name": "_queryId",
          "type": "bytes32"
        },
        {
          "internalType": "uint256",
          "name": "_timestamp",
          "type": "uint256"
        }
      ],
      "name": "getDataBefore",
      "outputs": [
        {
          "internalType": "bytes",
          "name": "_value",
          "type": "bytes"
        },
        {
          "internalType": "uint256",
          "name": "_timestampRetrieved",
          "type": "uint256"
        }
      ],
      "stateMutability": "view",
      "type": "function"
    },
    {
      "inputs": [
        {
          "internalType": "bytes32",
          "name": "_queryId",
          "type": "bytes32"
        },
        {
          "internalType": "uint256",
          "name": "_timestamp",
          "type": "uint256"
        }
      ],
      "name": "getIndexForDataAfter",
      "outputs": [
        {
          "internalType": "bool",
          "name": "_found",
          "type": "bool"
        },
        {
          "internalType": "uint256",
          "name": "_index",
          "type": "uint256"
        }
      ],
      "stateMutability": "view",
      "type": "function"
    },
    {
      "inputs": [
        {
          "internalType": "bytes32",
          "name": "_queryId",
          "type": "bytes32"
        },
        {
          "internalType": "uint256",
          "name": "_timestamp",
          "type": "uint256"
        }
      ],
      "name": "getIndexForDataBefore",
      "outputs": [
        {
          "internalType": "bool",
          "name": "_found",
          "type": "bool"
        },
        {
          "internalType": "uint256",
          "name": "_index",
          "type": "uint256"
        }
      ],
      "stateMutability": "view",
      "type": "function"
    },
    {
      "inputs": [
        {
          "internalType": "bytes32",
          "name": "_queryId",
          "type": "bytes32"
        },
        {
          "internalType": "uint256",
          "name": "_timestamp",
          "type": "uint256"
        },
        {
          "internalType": "uint256",
          "name": "_maxAge",
          "type": "uint256"
        },
        {
          "internalType": "uint256",
          "name": "_maxCount",
          "type": "uint256"
        }
      ],
      "name": "getMultipleValuesBefore",
      "outputs": [
        {
          "internalType": "bytes[]",
          "name": "_values",
          "type": "bytes[]"
        },
        {
          "internalType": "uint256[]",
          "name": "_timestamps",
          "type": "uint256[]"
        }
      ],
      "stateMutability": "view",
      "type": "function"
    },
    {
      "inputs": [
        {
          "internalType": "bytes32",
          "name": "_queryId",
          "type": "bytes32"
        }
      ],
      "name": "getNewValueCountbyQueryId",
      "outputs": [
        {
          "internalType": "uint256",
          "name": "",
          "type": "uint256"
        }
      ],
      "stateMutability": "view",
      "type": "function"
    },
    {
      "inputs": [
        {
          "internalType": "bytes32",
          "name": "_queryId",
          "type": "bytes32"
        },
        {
          "internalType": "uint256",
          "name": "_timestamp",
          "type": "uint256"
        }
      ],
      "name": "getReporterByTimestamp",
      "outputs": [
        {
          "internalType": "address",
          "name": "",
          "type": "address"
        }
      ],
      "stateMutability": "view",
      "type": "function"
    },
    {
      "inputs": [
        {
          "internalType": "uint256",
          "name": "_timestamp",
          "type": "uint256"
        },
        {
          "internalType": "uint256",
          "name": "_chainID",
          "type": "uint256"
        },
        {
          "internalType": "address",
          "name": "_address",
          "type": "address"
        }
      ],
      "name": "getRootHashAndSupply",
      "outputs": [
        {
          "internalType": "bytes",
          "name": "_value",
          "type": "bytes"
        }
      ],
      "stateMutability": "view",
      "type": "function"
    },
    {
      "inputs": [],
      "name": "getStateIds",
      "outputs": [
        {
          "internalType": "uint256[]",
          "name": "",
          "type": "uint256[]"
        }
      ],
      "stateMutability": "view",
      "type": "function"
    },
    {
      "inputs": [
        {
          "internalType": "bytes32",
          "name": "_queryId",
          "type": "bytes32"
        },
        {
          "internalType": "uint256",
          "name": "_index",
          "type": "uint256"
        }
      ],
      "name": "getTimestampbyQueryIdandIndex",
      "outputs": [
        {
          "internalType": "uint256",
          "name": "",
          "type": "uint256"
        }
      ],
      "stateMutability": "view",
      "type": "function"
    },
    {
      "inputs": [],
      "name": "idMappingContract",
      "outputs": [
        {
          "internalType": "contract IMappingContract",
          "name": "",
          "type": "address"
        }
      ],
      "stateMutability": "view",
      "type": "function"
    },
    {
      "inputs": [
        {
          "internalType": "bytes32",
          "name": "_queryId",
          "type": "bytes32"
        },
        {
          "internalType": "uint256",
          "name": "_timestamp",
          "type": "uint256"
        }
      ],
      "name": "isInDispute",
      "outputs": [
        {
          "internalType": "bool",
          "name": "",
          "type": "bool"
        }
      ],
      "stateMutability": "view",
      "type": "function"
    },
    {
      "inputs": [],
      "name": "latestRootMessageSender",
      "outputs": [
        {
          "internalType": "address",
          "name": "",
          "type": "address"
        }
      ],
      "stateMutability": "view",
      "type": "function"
    },
    {
      "inputs": [],
      "name": "latestStateId",
      "outputs": [
        {
          "internalType": "uint256",
          "name": "",
          "type": "uint256"
        }
      ],
      "stateMutability": "view",
      "type": "function"
    },
    {
      "inputs": [
        {
          "internalType": "uint256",
          "name": "_stateId",
          "type": "uint256"
        },
        {
          "internalType": "address",
          "name": "_sender",
          "type": "address"
        },
        {
          "internalType": "bytes",
          "name": "_data",
          "type": "bytes"
        }
      ],
      "name": "processMessageFromRoot",
      "outputs": [],
      "stateMutability": "nonpayable",
      "type": "function"
    },
    {
      "inputs": [
        {
          "internalType": "bytes32",
          "name": "_queryId",
          "type": "bytes32"
        },
        {
          "internalType": "uint256",
          "name": "_timestamp",
          "type": "uint256"
        }
      ],
      "name": "retrieveData",
      "outputs": [
        {
          "internalType": "bytes",
          "name": "",
          "type": "bytes"
        }
      ],
      "stateMutability": "view",
      "type": "function"
    },
    {
      "inputs": [
        {
          "internalType": "bytes",
          "name": "_data",
          "type": "bytes"
        }
      ],
      "name": "sendCommitment",
      "outputs": [],
      "stateMutability": "nonpayable",
      "type": "function"
    },
    {
      "inputs": [
        {
          "internalType": "address",
          "name": "_charon",
          "type": "address"
        }
      ],
      "name": "setCharon",
      "outputs": [],
      "stateMutability": "nonpayable",
      "type": "function"
    },
    {
      "inputs": [
        {
          "internalType": "address",
          "name": "_fxRootTunnel",
          "type": "address"
        }
      ],
      "name": "setFxRootTunnel",
      "outputs": [],
      "stateMutability": "nonpayable",
      "type": "function"
    },
    {
      "inputs": [
        {
          "internalType": "address",
          "name": "_addy",
          "type": "address"
        }
      ],
      "name": "setIdMappingContract",
      "outputs": [],
      "stateMutability": "nonpayable",
      "type": "function"
    },
    {
      "inputs": [
        {
          "internalType": "uint256",
          "name": "",
          "type": "uint256"
        }
      ],
      "name": "stateIdToData",
      "outputs": [
        {
          "internalType": "bytes",
          "name": "",
          "type": "bytes"
        }
      ],
      "stateMutability": "view",
      "type": "function"
    },
    {
      "inputs": [
        {
          "internalType": "uint256",
          "name": "",
          "type": "uint256"
        }
      ],
      "name": "stateIds",
      "outputs": [
        {
          "internalType": "uint256",
          "name": "",
          "type": "uint256"
        }
      ],
      "stateMutability": "view",
      "type": "function"
    },
    {
      "inputs": [],
      "name": "tellor",
      "outputs": [
        {
          "internalType": "contract ITellor",
          "name": "",
          "type": "address"
        }
      ],
      "stateMutability": "view",
      "type": "function"
    },
    {
      "inputs": [
        {
          "internalType": "bytes32",
          "name": "_id",
          "type": "bytes32"
        }
      ],
      "name": "valueFor",
      "outputs": [
        {
          "internalType": "int256",
          "name": "_value",
          "type": "int256"
        },
        {
          "internalType": "uint256",
          "name": "_timestamp",
          "type": "uint256"
        },
        {
          "internalType": "uint256",
          "name": "_statusCode",
          "type": "uint256"
        }
      ],
      "stateMutability": "view",
      "type": "function"
    }
  ],
  "bytecode": "0x60806040523480156200001157600080fd5b5060405162001c5738038062001c5783398101604081905262000034916200007f565b600080546001600160a01b039384166001600160a01b03199182161790915560028054929093169116179055620000be565b6001600160a01b03811681146200007c57600080fd5b50565b600080604083850312156200009357600080fd5b8251620000a08162000066565b6020840151909250620000b38162000066565b809150509250929050565b611b8980620000ce6000396000f3fe608060405234801561001057600080fd5b506004361061015f5760003560e01c8063193b505b146101645780631959ad5b14610179578063235baceb146101a9578063257da3ef146101be57806329449085146101df5780632af8aae0146102095780633368d5f61461021c578063353ab5cf1461024f57806344e87f9114610262578063450d11f01461027557806351e3aea9146102885780635a319df91461029b57806364ee3c6d146102a45780636b2fd905146102c557806377b03e0d146102e65780637f1e9cb0146102f957806385f804411461030c578063888370941461032c5780639a7c4b711461033f578063a792765f14610352578063b6f6869e14610365578063c5958af914610378578063ce5e11bf1461038b578063e07c54861461039e578063e6a8e745146103b1578063f66f49c3146103c4578063f78eea83146103d7578063fc571a5c14610405578063fcd4a54614610418575b600080fd5b61017761017236600461130f565b610439565b005b60005461018c906001600160a01b031681565b6040516001600160a01b0390911681526020015b60405180910390f35b6101b1610471565b6040516101a0919061136e565b6101d16101cc366004611381565b6104c9565b6040519081526020016101a0565b6101f26101ed36600461139a565b6104ea565b6040805192151583526020830191909152016101a0565b60015461018c906001600160a01b031681565b61023f61022a366004611381565b60086020526000908152604090205460ff1681565b60405190151581526020016101a0565b61017761025d36600461130f565b610569565b61023f61027036600461139a565b6105a1565b60025461018c906001600160a01b031681565b61017761029636600461147f565b61061e565b6101d160065481565b6102b76102b236600461139a565b610641565b6040516101a092919061150b565b6102d86102d336600461147f565b61069a565b6040516101a092919061152d565b6101d16102f4366004611381565b610780565b60035461018c906001600160a01b031681565b61031f61031a366004611381565b6107ee565b6040516101a09190611557565b61017761033a36600461130f565b610888565b61017761034d36600461156a565b61091b565b6102b761036036600461139a565b61092b565b61031f6103733660046115c2565b6109b1565b61031f61038636600461139a565b610a72565b6101d161039936600461139a565b610aea565b61018c6103ac36600461139a565b610b5e565b60055461018c906001600160a01b031681565b6101f26103d236600461139a565b610bd2565b6103ea6103e5366004611381565b610d8f565b604080519384526020840192909252908201526060016101a0565b60045461018c906001600160a01b031681565b61042b6104263660046115fb565b610e54565b6040516101a092919061162d565b6001546001600160a01b03161561044f57600080fd5b600180546001600160a01b0319166001600160a01b0392909216919091179055565b606060078054806020026020016040519081016040528092919081815260200182805480156104bf57602002820191906000526020600020905b8154815260200190600101908083116104ab575b5050505050905090565b600781815481106104d957600080fd5b600091825260209091200154905081565b60008054604051632944908560e01b815282916001600160a01b03169063294490859061051d90879087906004016116a3565b6040805180830381865afa158015610539573d6000803e3d6000fd5b505050506040513d601f19601f8201168201806040525081019061055d91906116c6565b915091505b9250929050565b6004546001600160a01b03161561057f57600080fd5b600480546001600160a01b0319166001600160a01b0392909216919091179055565b600080546040516344e87f9160e01b81526001600160a01b03909116906344e87f91906105d490869086906004016116a3565b602060405180830381865afa1580156105f1573d6000803e3d6000fd5b505050506040513d601f19601f8201168201806040525081019061061591906116f2565b90505b92915050565b6004546001600160a01b0316331461063557600080fd5b61063e81611140565b50565b606060008060006106528686610bd2565b91509150816106795760006040518060200160405280600081525090935093505050610562565b6106838682610aea565b925061068f8684610a72565b935050509250929050565b6004546060906000906001600160a01b031633146106b757600080fd5b60006106c28461117a565b6000818152600860209081526040808320805460ff191660011790556009909152812080549293509182906106f69061170d565b80601f01602080910402602001604051908101604052809291908181526020018280546107229061170d565b801561076f5780601f106107445761010080835404028352916020019161076f565b820191906000526020600020905b81548152906001019060200180831161075257829003601f168201915b505050505091509250925050915091565b600080546040516377b03e0d60e01b8152600481018490526001600160a01b03909116906377b03e0d90602401602060405180830381865afa1580156107ca573d6000803e3d6000fd5b505050506040513d601f19601f820116820180604052508101906106189190611741565b600960205260009081526040902080546108079061170d565b80601f01602080910402602001604051908101604052809291908181526020018280546108339061170d565b80156108805780601f1061085557610100808354040283529160200191610880565b820191906000526020600020905b81548152906001019060200180831161086357829003601f168201915b505050505081565b6003546001600160a01b0316156108f95760405162461bcd60e51b815260206004820152602a60248201527f4678426173654368696c6454756e6e656c3a20524f4f545f54554e4e454c5f4160448201526913149150511657d4d15560b21b60648201526084015b60405180910390fd5b600380546001600160a01b0319166001600160a01b0392909216919091179055565b6109268383836111fc565b505050565b6000805460405163a792765f60e01b8152606092916001600160a01b03169063a792765f9061096090879087906004016116a3565b600060405180830381865afa15801561097d573d6000803e3d6000fd5b505050506040513d6000823e601f3d908101601f191682016040526109a5919081019061179f565b90969095509350505050565b60408051602081018490526001600160a01b03831681830152606080820186905282518083038201815260808301909352916000916109f3919060a0016117f6565b604051602081830303815290604052805190602001209050610a1d8161a8c0426103609190611847565b9550915084610a6a5760405162461bcd60e51b81526020600482015260196024820152781d1a5b595cdd185b5c081b5d5cdd081899481c1c995cd95b9d603a1b60448201526064016108f0565b509392505050565b60005460405163c5958af960e01b81526060916001600160a01b03169063c5958af990610aa590869086906004016116a3565b600060405180830381865afa158015610ac2573d6000803e3d6000fd5b505050506040513d6000823e601f3d908101601f19168201604052610615919081019061185a565b6000805460405163ce5e11bf60e01b81526001600160a01b039091169063ce5e11bf90610b1d90869086906004016116a3565b602060405180830381865afa158015610b3a573d6000803e3d6000fd5b505050506040513d601f19601f820116820180604052508101906106159190611741565b6000805460405163703e2a4360e11b81526001600160a01b039091169063e07c548690610b9190869086906004016116a3565b602060405180830381865afa158015610bae573d6000803e3d6000fd5b505050506040513d601f19601f82011682018060405250810190610615919061188e565b6000806000610be085610780565b905080600003610bf7576000809250925050610562565b80610c01816118ab565b9150600190506000808381610c168a83610aea565b9050888111610c315760008097509750505050505050610562565b610c3b8a84610aea565b905088811115610c4a57600094505b8415610cfa576002610c5c84846118c2565b610c6691906118d5565b9350610c728a85610aea565b905088811115610cb3576000610c8d8b610399600188611847565b9050898111610c9f5760009550610cad565b610caa600186611847565b92505b50610c4a565b6000610cc48b6103998760016118c2565b905089811115610ce7576000955084610cdc816118f7565b955050809150610cad565b610cf28560016118c2565b935050610c4a565b610d048a826105a1565b610d1a5760018497509750505050505050610562565b610d248a826105a1565b8015610d2f57508584105b15610d525783610d3e816118f7565b945050610d4b8a85610aea565b9050610d1a565b8584148015610d665750610d668a826105a1565b15610d7d5760008097509750505050505050610562565b60018497509750505050505050610562565b6001546040516387a475fd60e01b8152600481018390526000918291829182916001600160a01b03909116906387a475fd90602401602060405180830381865afa158015610de1573d6000803e3d6000fd5b505050506040513d601f19601f82011682018060405250810190610e059190611741565b90506060610e18826103604260016118c2565b945090506000849003610e38576000806101949450945094505050610e4d565b6000610e43826112a9565b955060c893505050505b9193909250565b606080600080610e68886103d2888a611847565b9150915081610eb9576040805160008082526020820190925290610e9c565b6060815260200190600190039081610e875790505b506040805160008152602081019091529094509250611137915050565b6000610ec589896104ea565b909350905082610f18576040805160008082526020820190925290610efa565b6060815260200190600190039081610ee55790505b50604080516000815260208101909152909550935061113792505050565b6000806000886001600160401b03811115610f3557610f356113bc565b604051908082528060200260200182016040528015610f5e578160200160208202803683370190505b5090505b8883108015610f8557508482610f798660016118c2565b610f839190611847565b115b15610fe9576000610f9a8d6103998588611847565b9050610fa68d826105a1565b610fd65780828581518110610fbd57610fbd611910565b602090810291909101015283610fd2816118f7565b9450505b82610fe0816118f7565b93505050610f62565b6000836001600160401b03811115611003576110036113bc565b60405190808252806020026020018201604052801561103657816020015b60608152602001906001900390816110215790505b5090506000846001600160401b03811115611053576110536113bc565b60405190808252806020026020018201604052801561107c578160200160208202803683370190505b50905060005b8581101561112a578381611097600189611847565b6110a19190611847565b815181106110b1576110b1611910565b60200260200101518282815181106110cb576110cb611910565b6020026020010181815250506110fa8f8383815181106110ed576110ed611910565b6020026020010151610a72565b83828151811061110c5761110c611910565b60200260200101819052508080611122906118f7565b915050611082565b5090985096505050505050505b94509492505050565b7f8c5261668696ce22758910d05bab8f186d6eb247ceac2af2e82c7dc17669b0368160405161116f9190611557565b60405180910390a150565b6000805b82518110156111f6576111928160016118c2565b835161119e9190611847565b6111a9906008611926565b6111b4906002611a21565b8382815181106111c6576111c6611910565b01602001516111d8919060f81c611926565b6111e290836118c2565b9150806111ee816118f7565b91505061117e565b50919050565b600683905560008381526009602052604090206112198282611a7b565b50600580546001600160a01b0319166001600160a01b038416179055600780546001810182556000919091527fa66cc928b5edb82af9bd49922954155ab7b0942694bea4ce44661d9a8736c688018390556040517fee0e09ba869dfa3bb2bdc599655fe02168b54ff6e55a18613497f80a1da60c219061129c9085908490611b3a565b60405180910390a1505050565b6000805b82518110156111f6578281815181106112c8576112c8611910565b016020015160f81c6112dc83610100611926565b6112e691906118c2565b9150806112f2816118f7565b9150506112ad565b6001600160a01b038116811461063e57600080fd5b60006020828403121561132157600080fd5b813561132c816112fa565b9392505050565b600081518084526020808501945080840160005b8381101561136357815187529582019590820190600101611347565b509495945050505050565b6020815260006106156020830184611333565b60006020828403121561139357600080fd5b5035919050565b600080604083850312156113ad57600080fd5b50508035926020909101359150565b634e487b7160e01b600052604160045260246000fd5b604051601f8201601f191681016001600160401b03811182821017156113fa576113fa6113bc565b604052919050565b60006001600160401b0382111561141b5761141b6113bc565b50601f01601f191660200190565b600082601f83011261143a57600080fd5b813561144d61144882611402565b6113d2565b81815284602083860101111561146257600080fd5b816020850160208301376000918101602001919091529392505050565b60006020828403121561149157600080fd5b81356001600160401b038111156114a757600080fd5b6114b384828501611429565b949350505050565b60005b838110156114d65781810151838201526020016114be565b50506000910152565b600081518084526114f78160208601602086016114bb565b601f01601f19169290920160200192915050565b60408152600061151e60408301856114df565b90508260208301529392505050565b60408152600061154060408301856114df565b905060018060a01b03831660208301529392505050565b60208152600061061560208301846114df565b60008060006060848603121561157f57600080fd5b833592506020840135611591816112fa565b915060408401356001600160401b038111156115ac57600080fd5b6115b886828701611429565b9150509250925092565b6000806000606084860312156115d757600080fd5b833592506020840135915060408401356115f0816112fa565b809150509250925092565b6000806000806080858703121561161157600080fd5b5050823594602084013594506040840135936060013592509050565b6000604082016040835280855180835260608501915060608160051b8601019250602080880160005b8381101561168457605f198887030185526116728683516114df565b95509382019390820190600101611656565b50508584038187015250505061169a8185611333565b95945050505050565b918252602082015260400190565b805180151581146116c157600080fd5b919050565b600080604083850312156116d957600080fd5b6116e2836116b1565b9150602083015190509250929050565b60006020828403121561170457600080fd5b610615826116b1565b600181811c9082168061172157607f821691505b6020821081036111f657634e487b7160e01b600052602260045260246000fd5b60006020828403121561175357600080fd5b5051919050565b600082601f83011261176b57600080fd5b815161177961144882611402565b81815284602083860101111561178e57600080fd5b6114b38260208301602087016114bb565b6000806000606084860312156117b457600080fd5b6117bd846116b1565b60208501519093506001600160401b038111156117d957600080fd5b6117e58682870161175a565b925050604084015190509250925092565b60408152601160408201527043726f7373436861696e42616c616e636560781b606082015260806020820152600061061560808301846114df565b634e487b7160e01b600052601160045260246000fd5b8181038181111561061857610618611831565b60006020828403121561186c57600080fd5b81516001600160401b0381111561188257600080fd5b6114b38482850161175a565b6000602082840312156118a057600080fd5b815161132c816112fa565b6000816118ba576118ba611831565b506000190190565b8082018082111561061857610618611831565b6000826118f257634e487b7160e01b600052601260045260246000fd5b500490565b60006001820161190957611909611831565b5060010190565b634e487b7160e01b600052603260045260246000fd5b808202811582820484141761061857610618611831565b600181815b8085111561197857816000190482111561195e5761195e611831565b8085161561196b57918102915b93841c9390800290611942565b509250929050565b60008261198f57506001610618565b8161199c57506000610618565b81600181146119b257600281146119bc576119d8565b6001915050610618565b60ff8411156119cd576119cd611831565b50506001821b610618565b5060208310610133831016604e8410600b84101617156119fb575081810a610618565b611a05838361193d565b8060001904821115611a1957611a19611831565b029392505050565b60006106158383611980565b601f82111561092657600081815260208120601f850160051c81016020861015611a545750805b601f850160051c820191505b81811015611a7357828155600101611a60565b505050505050565b81516001600160401b03811115611a9457611a946113bc565b611aa881611aa2845461170d565b84611a2d565b602080601f831160018114611add5760008415611ac55750858301515b600019600386901b1c1916600185901b178555611a73565b600085815260208120601f198616915b82811015611b0c57888601518255948401946001909101908401611aed565b5085821015611b2a5787850151600019600388901b60f8161c191681555b5050505050600190811b01905550565b8281526040602082015260006114b360408301846114df56fea2646970667358221220db40a49e1eaa0a080fb624453affda1403500f2c11e7c4e52a29e8a63add973b64736f6c63430008110033",
  "linkReferences": {},
  "deployedLinkReferences": {}
}