{
  "_format": "hh-sol-artifact-1",
  "contractName": "MockPOLtoETHBridge",
  "sourceName": "charonAMM/contracts/mocks/MockPOLToETHBridge.sol",
  "abi": [
    {
      "inputs": [
        {
          "internalType": "address payable",
          "name": "_tellor",
          "type": "address"
        },
        {
          "internalType": "address",
          "name": "_fxChild",
          "type": "address"
        }
      ],
      "stateMutability": "nonpayable",
      "type": "constructor"
    },
    {
      "anonymous": false,
      "inputs": [
        {
          "indexed": false,
          "internalType": "uint256",
          "name": "_stateId",
          "type": "uint256"
        },
        {
          "indexed": false,
          "internalType": "bytes",
          "name": "_data",
          "type": "bytes"
        }
      ],
      "name": "MessageProcessed",
      "type": "event"
    },
    {
      "anonymous": false,
      "inputs": [
        {
          "indexed": false,
          "internalType": "bytes",
          "name": "message",
          "type": "bytes"
        }
      ],
      "name": "MessageSent",
      "type": "event"
    },
    {
      "inputs": [],
      "name": "charon",
      "outputs": [
        {
          "internalType": "address",
          "name": "",
          "type": "address"
        }
      ],
      "stateMutability": "view",
      "type": "function"
    },
    {
      "inputs": [
        {
          "internalType": "uint256",
          "name": "",
          "type": "uint256"
        }
      ],
      "name": "didPush",
      "outputs": [
        {
          "internalType": "bool",
          "name": "",
          "type": "bool"
        }
      ],
      "stateMutability": "view",
      "type": "function"
    },
    {
      "inputs": [],
      "name": "fxChild",
      "outputs": [
        {
          "internalType": "address",
          "name": "",
          "type": "address"
        }
      ],
      "stateMutability": "view",
      "type": "function"
    },
    {
      "inputs": [],
      "name": "fxRootTunnel",
      "outputs": [
        {
          "internalType": "address",
          "name": "",
          "type": "address"
        }
      ],
      "stateMutability": "view",
      "type": "function"
    },
    {
      "inputs": [
        {
          "internalType": "bytes",
          "name": "_inputData",
          "type": "bytes"
        }
      ],
      "name": "getCommitment",
      "outputs": [
        {
          "internalType": "bytes",
          "name": "_value",
          "type": "bytes"
        },
        {
          "internalType": "address",
          "name": "",
          "type": "address"
        }
      ],
      "stateMutability": "nonpayable",
      "type": "function"
    },
    {
      "inputs": [
        {
          "internalType": "bytes32",
          "name": "_queryId",
          "type": "bytes32"
        },
        {
          "internalType": "uint256",
          "name": "_timestamp",
          "type": "uint256"
        }
      ],
      "name": "getDataAfter",
      "outputs": [
        {
          "internalType": "bytes",
          "name": "_value",
          "type": "bytes"
        },
        {
          "internalType": "uint256",
          "name": "_timestampRetrieved",
          "type": "uint256"
        }
      ],
      "stateMutability": "view",
      "type": "function"
    },
    {
      "inputs": [
        {
          "internalType": "bytes32",
          "name": "_queryId",
          "type": "bytes32"
        },
        {
          "internalType": "uint256",
          "name": "_timestamp",
          "type": "uint256"
        }
      ],
      "name": "getDataBefore",
      "outputs": [
        {
          "internalType": "bytes",
          "name": "_value",
          "type": "bytes"
        },
        {
          "internalType": "uint256",
          "name": "_timestampRetrieved",
          "type": "uint256"
        }
      ],
      "stateMutability": "view",
      "type": "function"
    },
    {
      "inputs": [
        {
          "internalType": "bytes32",
          "name": "_queryId",
          "type": "bytes32"
        },
        {
          "internalType": "uint256",
          "name": "_timestamp",
          "type": "uint256"
        }
      ],
      "name": "getIndexForDataAfter",
      "outputs": [
        {
          "internalType": "bool",
          "name": "_found",
          "type": "bool"
        },
        {
          "internalType": "uint256",
          "name": "_index",
          "type": "uint256"
        }
      ],
      "stateMutability": "view",
      "type": "function"
    },
    {
      "inputs": [
        {
          "internalType": "bytes32",
          "name": "_queryId",
          "type": "bytes32"
        },
        {
          "internalType": "uint256",
          "name": "_timestamp",
          "type": "uint256"
        }
      ],
      "name": "getIndexForDataBefore",
      "outputs": [
        {
          "internalType": "bool",
          "name": "_found",
          "type": "bool"
        },
        {
          "internalType": "uint256",
          "name": "_index",
          "type": "uint256"
        }
      ],
      "stateMutability": "view",
      "type": "function"
    },
    {
      "inputs": [
        {
          "internalType": "bytes32",
          "name": "_queryId",
          "type": "bytes32"
        },
        {
          "internalType": "uint256",
          "name": "_timestamp",
          "type": "uint256"
        },
        {
          "internalType": "uint256",
          "name": "_maxAge",
          "type": "uint256"
        },
        {
          "internalType": "uint256",
          "name": "_maxCount",
          "type": "uint256"
        }
      ],
      "name": "getMultipleValuesBefore",
      "outputs": [
        {
          "internalType": "bytes[]",
          "name": "_values",
          "type": "bytes[]"
        },
        {
          "internalType": "uint256[]",
          "name": "_timestamps",
          "type": "uint256[]"
        }
      ],
      "stateMutability": "view",
      "type": "function"
    },
    {
      "inputs": [
        {
          "internalType": "bytes32",
          "name": "_queryId",
          "type": "bytes32"
        }
      ],
      "name": "getNewValueCountbyQueryId",
      "outputs": [
        {
          "internalType": "uint256",
          "name": "",
          "type": "uint256"
        }
      ],
      "stateMutability": "view",
      "type": "function"
    },
    {
      "inputs": [
        {
          "internalType": "bytes32",
          "name": "_queryId",
          "type": "bytes32"
        },
        {
          "internalType": "uint256",
          "name": "_timestamp",
          "type": "uint256"
        }
      ],
      "name": "getReporterByTimestamp",
      "outputs": [
        {
          "internalType": "address",
          "name": "",
          "type": "address"
        }
      ],
      "stateMutability": "view",
      "type": "function"
    },
    {
      "inputs": [
        {
          "internalType": "uint256",
          "name": "_timestamp",
          "type": "uint256"
        },
        {
          "internalType": "uint256",
          "name": "_chainID",
          "type": "uint256"
        },
        {
          "internalType": "address",
          "name": "_address",
          "type": "address"
        }
      ],
      "name": "getRootHashAndSupply",
      "outputs": [
        {
          "internalType": "bytes",
          "name": "_value",
          "type": "bytes"
        }
      ],
      "stateMutability": "view",
      "type": "function"
    },
    {
      "inputs": [],
      "name": "getStateIds",
      "outputs": [
        {
          "internalType": "uint256[]",
          "name": "",
          "type": "uint256[]"
        }
      ],
      "stateMutability": "view",
      "type": "function"
    },
    {
      "inputs": [
        {
          "internalType": "bytes32",
          "name": "_queryId",
          "type": "bytes32"
        },
        {
          "internalType": "uint256",
          "name": "_index",
          "type": "uint256"
        }
      ],
      "name": "getTimestampbyQueryIdandIndex",
      "outputs": [
        {
          "internalType": "uint256",
          "name": "",
          "type": "uint256"
        }
      ],
      "stateMutability": "view",
      "type": "function"
    },
    {
      "inputs": [],
      "name": "idMappingContract",
      "outputs": [
        {
          "internalType": "contract IMappingContract",
          "name": "",
          "type": "address"
        }
      ],
      "stateMutability": "view",
      "type": "function"
    },
    {
      "inputs": [
        {
          "internalType": "bytes32",
          "name": "_queryId",
          "type": "bytes32"
        },
        {
          "internalType": "uint256",
          "name": "_timestamp",
          "type": "uint256"
        }
      ],
      "name": "isInDispute",
      "outputs": [
        {
          "internalType": "bool",
          "name": "",
          "type": "bool"
        }
      ],
      "stateMutability": "view",
      "type": "function"
    },
    {
      "inputs": [],
      "name": "latestRootMessageSender",
      "outputs": [
        {
          "internalType": "address",
          "name": "",
          "type": "address"
        }
      ],
      "stateMutability": "view",
      "type": "function"
    },
    {
      "inputs": [],
      "name": "latestStateId",
      "outputs": [
        {
          "internalType": "uint256",
          "name": "",
          "type": "uint256"
        }
      ],
      "stateMutability": "view",
      "type": "function"
    },
    {
      "inputs": [
        {
          "internalType": "uint256",
          "name": "_stateId",
          "type": "uint256"
        },
        {
          "internalType": "address",
          "name": "_sender",
          "type": "address"
        },
        {
          "internalType": "bytes",
          "name": "_data",
          "type": "bytes"
        }
      ],
      "name": "processMessageFromRoot",
      "outputs": [],
      "stateMutability": "nonpayable",
      "type": "function"
    },
    {
      "inputs": [
        {
          "internalType": "bytes32",
          "name": "_queryId",
          "type": "bytes32"
        },
        {
          "internalType": "uint256",
          "name": "_timestamp",
          "type": "uint256"
        }
      ],
      "name": "retrieveData",
      "outputs": [
        {
          "internalType": "bytes",
          "name": "",
          "type": "bytes"
        }
      ],
      "stateMutability": "view",
      "type": "function"
    },
    {
      "inputs": [
        {
          "internalType": "bytes",
          "name": "_data",
          "type": "bytes"
        }
      ],
      "name": "sendCommitment",
      "outputs": [],
      "stateMutability": "nonpayable",
      "type": "function"
    },
    {
      "inputs": [
        {
          "internalType": "address",
          "name": "_charon",
          "type": "address"
        }
      ],
      "name": "setCharon",
      "outputs": [],
      "stateMutability": "nonpayable",
      "type": "function"
    },
    {
      "inputs": [
        {
          "internalType": "address",
          "name": "_fxRootTunnel",
          "type": "address"
        }
      ],
      "name": "setFxRootTunnel",
      "outputs": [],
      "stateMutability": "nonpayable",
      "type": "function"
    },
    {
      "inputs": [
        {
          "internalType": "address",
          "name": "_addy",
          "type": "address"
        }
      ],
      "name": "setIdMappingContract",
      "outputs": [],
      "stateMutability": "nonpayable",
      "type": "function"
    },
    {
      "inputs": [
        {
          "internalType": "uint256",
          "name": "",
          "type": "uint256"
        }
      ],
      "name": "stateIdToData",
      "outputs": [
        {
          "internalType": "bytes",
          "name": "",
          "type": "bytes"
        }
      ],
      "stateMutability": "view",
      "type": "function"
    },
    {
      "inputs": [
        {
          "internalType": "uint256",
          "name": "",
          "type": "uint256"
        }
      ],
      "name": "stateIds",
      "outputs": [
        {
          "internalType": "uint256",
          "name": "",
          "type": "uint256"
        }
      ],
      "stateMutability": "view",
      "type": "function"
    },
    {
      "inputs": [],
      "name": "tellor",
      "outputs": [
        {
          "internalType": "contract ITellor",
          "name": "",
          "type": "address"
        }
      ],
      "stateMutability": "view",
      "type": "function"
    },
    {
      "inputs": [
        {
          "internalType": "bytes32",
          "name": "_id",
          "type": "bytes32"
        }
      ],
      "name": "valueFor",
      "outputs": [
        {
          "internalType": "int256",
          "name": "_value",
          "type": "int256"
        },
        {
          "internalType": "uint256",
          "name": "_timestamp",
          "type": "uint256"
        },
        {
          "internalType": "uint256",
          "name": "_statusCode",
          "type": "uint256"
        }
      ],
      "stateMutability": "view",
      "type": "function"
    }
  ],
  "bytecode": "0x60806040523480156200001157600080fd5b5060405162001ccc38038062001ccc83398101604081905262000034916200007f565b600080546001600160a01b039384166001600160a01b03199182161790915560028054929093169116179055620000be565b6001600160a01b03811681146200007c57600080fd5b50565b600080604083850312156200009357600080fd5b8251620000a08162000066565b6020840151909250620000b38162000066565b809150509250929050565b611bfe80620000ce6000396000f3fe608060405234801561001057600080fd5b50600436106101cf5760003560e01c806377b03e0d11610104578063c5958af9116100a2578063f66f49c311610071578063f66f49c314610434578063f78eea8314610447578063fc571a5c14610475578063fcd4a5461461048857600080fd5b8063c5958af9146103e8578063ce5e11bf146103fb578063e07c54861461040e578063e6a8e7451461042157600080fd5b806388837094116100de578063888370941461039c5780639a7c4b71146103af578063a792765f146103c2578063b6f6869e146103d557600080fd5b806377b03e0d146103565780637f1e9cb01461036957806385f804411461037c57600080fd5b8063353ab5cf1161017157806351e3aea91161014b57806351e3aea9146102f85780635a319df91461030b57806364ee3c6d146103145780636b2fd9051461033557600080fd5b8063353ab5cf146102bf57806344e87f91146102d2578063450d11f0146102e557600080fd5b8063257da3ef116101ad578063257da3ef1461022e578063294490851461024f5780632af8aae0146102795780633368d5f61461028c57600080fd5b8063193b505b146101d45780631959ad5b146101e9578063235baceb14610219575b600080fd5b6101e76101e236600461138c565b6104a9565b005b6000546101fc906001600160a01b031681565b6040516001600160a01b0390911681526020015b60405180910390f35b6102216104e1565b60405161021091906113eb565b61024161023c3660046113fe565b610539565b604051908152602001610210565b61026261025d366004611417565b61055a565b604080519215158352602083019190915201610210565b6001546101fc906001600160a01b031681565b6102af61029a3660046113fe565b60086020526000908152604090205460ff1681565b6040519015158152602001610210565b6101e76102cd36600461138c565b6105da565b6102af6102e0366004611417565b610612565b6002546101fc906001600160a01b031681565b6101e76103063660046114fe565b610690565b61024160065481565b610327610322366004611417565b6106b3565b60405161021092919061158b565b6103486103433660046114fe565b61070c565b6040516102109291906115ad565b6102416103643660046113fe565b6107f2565b6003546101fc906001600160a01b031681565b61038f61038a3660046113fe565b610860565b60405161021091906115d7565b6101e76103aa36600461138c565b6108fa565b6101e76103bd3660046115ea565b61098d565b6103276103d0366004611417565b61099d565b61038f6103e3366004611643565b610a24565b61038f6103f6366004611417565b610ae9565b610241610409366004611417565b610b62565b6101fc61041c366004611417565b610bd7565b6005546101fc906001600160a01b031681565b610262610442366004611417565b610c4c565b61045a6104553660046113fe565b610e09565b60408051938452602084019290925290820152606001610210565b6004546101fc906001600160a01b031681565b61049b61049636600461167c565b610ece565b6040516102109291906116ae565b6001546001600160a01b0316156104bf57600080fd5b600180546001600160a01b0319166001600160a01b0392909216919091179055565b6060600780548060200260200160405190810160405280929190818152602001828054801561052f57602002820191906000526020600020905b81548152602001906001019080831161051b575b5050505050905090565b6007818154811061054957600080fd5b600091825260209091200154905081565b60008054604051632944908560e01b8152600481018590526024810184905282916001600160a01b0316906329449085906044016040805180830381865afa1580156105aa573d6000803e3d6000fd5b505050506040513d601f19601f820116820180604052508101906105ce9190611739565b915091505b9250929050565b6004546001600160a01b0316156105f057600080fd5b600480546001600160a01b0319166001600160a01b0392909216919091179055565b600080546040516344e87f9160e01b815260048101859052602481018490526001600160a01b03909116906344e87f9190604401602060405180830381865afa158015610663573d6000803e3d6000fd5b505050506040513d601f19601f820116820180604052508101906106879190611765565b90505b92915050565b6004546001600160a01b031633146106a757600080fd5b6106b0816111bd565b50565b606060008060006106c48686610c4c565b91509150816106eb57600060405180602001604052806000815250909350935050506105d3565b6106f58682610b62565b92506107018684610ae9565b935050509250929050565b6004546060906000906001600160a01b0316331461072957600080fd5b6000610734846111f7565b6000818152600860209081526040808320805460ff1916600117905560099091528120805492935091829061076890611780565b80601f016020809104026020016040519081016040528092919081815260200182805461079490611780565b80156107e15780601f106107b6576101008083540402835291602001916107e1565b820191906000526020600020905b8154815290600101906020018083116107c457829003601f168201915b505050505091509250925050915091565b600080546040516377b03e0d60e01b8152600481018490526001600160a01b03909116906377b03e0d90602401602060405180830381865afa15801561083c573d6000803e3d6000fd5b505050506040513d601f19601f8201168201806040525081019061068a91906117b4565b6009602052600090815260409020805461087990611780565b80601f01602080910402602001604051908101604052809291908181526020018280546108a590611780565b80156108f25780601f106108c7576101008083540402835291602001916108f2565b820191906000526020600020905b8154815290600101906020018083116108d557829003601f168201915b505050505081565b6003546001600160a01b03161561096b5760405162461bcd60e51b815260206004820152602a60248201527f4678426173654368696c6454756e6e656c3a20524f4f545f54554e4e454c5f4160448201526913149150511657d4d15560b21b60648201526084015b60405180910390fd5b600380546001600160a01b0319166001600160a01b0392909216919091179055565b610998838383611279565b505050565b6000805460405163a792765f60e01b81526004810185905260248101849052606092916001600160a01b03169063a792765f90604401600060405180830381865afa1580156109f0573d6000803e3d6000fd5b505050506040513d6000823e601f3d908101601f19168201604052610a189190810190611812565b90969095509350505050565b60408051602081018490526001600160a01b0383168183015260608082018690528251808303820181526080830190935291600091610a66919060a001611869565b604051602081830303815290604052805190602001209050610a908161a8c0426103d091906118ba565b9550915084610ae15760405162461bcd60e51b815260206004820152601960248201527f74696d657374616d70206d7573742062652070726573656e74000000000000006044820152606401610962565b509392505050565b60005460405163c5958af960e01b815260048101849052602481018390526060916001600160a01b03169063c5958af990604401600060405180830381865afa158015610b3a573d6000803e3d6000fd5b505050506040513d6000823e601f3d908101601f1916820160405261068791908101906118cd565b6000805460405163ce5e11bf60e01b815260048101859052602481018490526001600160a01b039091169063ce5e11bf90604401602060405180830381865afa158015610bb3573d6000803e3d6000fd5b505050506040513d601f19601f8201168201806040525081019061068791906117b4565b6000805460405163703e2a4360e11b815260048101859052602481018490526001600160a01b039091169063e07c548690604401602060405180830381865afa158015610c28573d6000803e3d6000fd5b505050506040513d601f19601f820116820180604052508101906106879190611902565b6000806000610c5a856107f2565b905080600003610c715760008092509250506105d3565b80610c7b8161191f565b9150600190506000808381610c908a83610b62565b9050888111610cab57600080975097505050505050506105d3565b610cb58a84610b62565b905088811115610cc457600094505b8415610d74576002610cd68484611936565b610ce09190611949565b9350610cec8a85610b62565b905088811115610d2d576000610d078b6104096001886118ba565b9050898111610d195760009550610d27565b610d246001866118ba565b92505b50610cc4565b6000610d3e8b610409876001611936565b905089811115610d61576000955084610d568161196b565b955050809150610d27565b610d6c856001611936565b935050610cc4565b610d7e8a82610612565b610d9457600184975097505050505050506105d3565b610d9e8a82610612565b8015610da957508584105b15610dcc5783610db88161196b565b945050610dc58a85610b62565b9050610d94565b8584148015610de05750610de08a82610612565b15610df757600080975097505050505050506105d3565b600184975097505050505050506105d3565b6001546040516387a475fd60e01b8152600481018390526000918291829182916001600160a01b03909116906387a475fd90602401602060405180830381865afa158015610e5b573d6000803e3d6000fd5b505050506040513d601f19601f82011682018060405250810190610e7f91906117b4565b90506060610e92826103d0426001611936565b945090506000849003610eb2576000806101949450945094505050610ec7565b6000610ebd82611326565b955060c893505050505b9193909250565b606080600080610ee288610442888a6118ba565b9150915081610f33576040805160008082526020820190925290610f16565b6060815260200190600190039081610f015790505b5060408051600081526020810190915290945092506111b4915050565b6000610f3f898961055a565b909350905082610f92576040805160008082526020820190925290610f74565b6060815260200190600190039081610f5f5790505b5060408051600081526020810190915290955093506111b492505050565b60008060008867ffffffffffffffff811115610fb057610fb0611439565b604051908082528060200260200182016040528015610fd9578160200160208202803683370190505b5090505b888310801561100057508482610ff4866001611936565b610ffe91906118ba565b115b156110645760006110158d61040985886118ba565b90506110218d82610612565b611051578082858151811061103857611038611984565b60209081029190910101528361104d8161196b565b9450505b8261105b8161196b565b93505050610fdd565b60008367ffffffffffffffff81111561107f5761107f611439565b6040519080825280602002602001820160405280156110b257816020015b606081526020019060019003908161109d5790505b50905060008467ffffffffffffffff8111156110d0576110d0611439565b6040519080825280602002602001820160405280156110f9578160200160208202803683370190505b50905060005b858110156111a75783816111146001896118ba565b61111e91906118ba565b8151811061112e5761112e611984565b602002602001015182828151811061114857611148611984565b6020026020010181815250506111778f83838151811061116a5761116a611984565b6020026020010151610ae9565b83828151811061118957611189611984565b6020026020010181905250808061119f9061196b565b9150506110ff565b5090985096505050505050505b94509492505050565b7f8c5261668696ce22758910d05bab8f186d6eb247ceac2af2e82c7dc17669b036816040516111ec91906115d7565b60405180910390a150565b6000805b82518110156112735761120f816001611936565b835161121b91906118ba565b61122690600861199a565b611231906002611a95565b83828151811061124357611243611984565b0160200151611255919060f81c61199a565b61125f9083611936565b91508061126b8161196b565b9150506111fb565b50919050565b600683905560008381526009602052604090206112968282611aef565b50600580546001600160a01b0319166001600160a01b038416179055600780546001810182556000919091527fa66cc928b5edb82af9bd49922954155ab7b0942694bea4ce44661d9a8736c688018390556040517fee0e09ba869dfa3bb2bdc599655fe02168b54ff6e55a18613497f80a1da60c21906113199085908490611baf565b60405180910390a1505050565b6000805b82518110156112735782818151811061134557611345611984565b016020015160f81c6113598361010061199a565b6113639190611936565b91508061136f8161196b565b91505061132a565b6001600160a01b03811681146106b057600080fd5b60006020828403121561139e57600080fd5b81356113a981611377565b9392505050565b600081518084526020808501945080840160005b838110156113e0578151875295820195908201906001016113c4565b509495945050505050565b60208152600061068760208301846113b0565b60006020828403121561141057600080fd5b5035919050565b6000806040838503121561142a57600080fd5b50508035926020909101359150565b634e487b7160e01b600052604160045260246000fd5b604051601f8201601f1916810167ffffffffffffffff8111828210171561147857611478611439565b604052919050565b600067ffffffffffffffff82111561149a5761149a611439565b50601f01601f191660200190565b600082601f8301126114b957600080fd5b81356114cc6114c782611480565b61144f565b8181528460208386010111156114e157600080fd5b816020850160208301376000918101602001919091529392505050565b60006020828403121561151057600080fd5b813567ffffffffffffffff81111561152757600080fd5b611533848285016114a8565b949350505050565b60005b8381101561155657818101518382015260200161153e565b50506000910152565b6000815180845261157781602086016020860161153b565b601f01601f19169290920160200192915050565b60408152600061159e604083018561155f565b90508260208301529392505050565b6040815260006115c0604083018561155f565b905060018060a01b03831660208301529392505050565b602081526000610687602083018461155f565b6000806000606084860312156115ff57600080fd5b83359250602084013561161181611377565b9150604084013567ffffffffffffffff81111561162d57600080fd5b611639868287016114a8565b9150509250925092565b60008060006060848603121561165857600080fd5b8335925060208401359150604084013561167181611377565b809150509250925092565b6000806000806080858703121561169257600080fd5b5050823594602084013594506040840135936060013592509050565b6000604082016040835280855180835260608501915060608160051b8601019250602080880160005b8381101561170557605f198887030185526116f386835161155f565b955093820193908201906001016116d7565b50508584038187015250505061171b81856113b0565b95945050505050565b8051801515811461173457600080fd5b919050565b6000806040838503121561174c57600080fd5b61175583611724565b9150602083015190509250929050565b60006020828403121561177757600080fd5b61068782611724565b600181811c9082168061179457607f821691505b60208210810361127357634e487b7160e01b600052602260045260246000fd5b6000602082840312156117c657600080fd5b5051919050565b600082601f8301126117de57600080fd5b81516117ec6114c782611480565b81815284602083860101111561180157600080fd5b61153382602083016020870161153b565b60008060006060848603121561182757600080fd5b61183084611724565b9250602084015167ffffffffffffffff81111561184c57600080fd5b611858868287016117cd565b925050604084015190509250925092565b60408152601160408201527043726f7373436861696e42616c616e636560781b6060820152608060208201526000610687608083018461155f565b634e487b7160e01b600052601160045260246000fd5b8181038181111561068a5761068a6118a4565b6000602082840312156118df57600080fd5b815167ffffffffffffffff8111156118f657600080fd5b611533848285016117cd565b60006020828403121561191457600080fd5b81516113a981611377565b60008161192e5761192e6118a4565b506000190190565b8082018082111561068a5761068a6118a4565b60008261196657634e487b7160e01b600052601260045260246000fd5b500490565b60006001820161197d5761197d6118a4565b5060010190565b634e487b7160e01b600052603260045260246000fd5b808202811582820484141761068a5761068a6118a4565b600181815b808511156119ec5781600019048211156119d2576119d26118a4565b808516156119df57918102915b93841c93908002906119b6565b509250929050565b600082611a035750600161068a565b81611a105750600061068a565b8160018114611a265760028114611a3057611a4c565b600191505061068a565b60ff841115611a4157611a416118a4565b50506001821b61068a565b5060208310610133831016604e8410600b8410161715611a6f575081810a61068a565b611a7983836119b1565b8060001904821115611a8d57611a8d6118a4565b029392505050565b600061068783836119f4565b601f82111561099857600081815260208120601f850160051c81016020861015611ac85750805b601f850160051c820191505b81811015611ae757828155600101611ad4565b505050505050565b815167ffffffffffffffff811115611b0957611b09611439565b611b1d81611b178454611780565b84611aa1565b602080601f831160018114611b525760008415611b3a5750858301515b600019600386901b1c1916600185901b178555611ae7565b600085815260208120601f198616915b82811015611b8157888601518255948401946001909101908401611b62565b5085821015611b9f5787850151600019600388901b60f8161c191681555b5050505050600190811b01905550565b828152604060208201526000611533604083018461155f56fea2646970667358221220dc2fcda3f6e2bee895f7dc76393e4e820c68deab55c80003525893da5a49e9e964736f6c63430008110033",
  "linkReferences": {},
  "deployedLinkReferences": {}
}