{
  "_format": "hh-sol-artifact-1",
  "contractName": "MockPOLtoETHBridge",
  "sourceName": "charonAMM/contracts/mocks/MockPOLToETHBridge.sol",
  "abi": [
    {
      "inputs": [
        {
          "internalType": "address payable",
          "name": "_tellor",
          "type": "address"
        },
        {
          "internalType": "address",
          "name": "_fxChild",
          "type": "address"
        }
      ],
      "stateMutability": "nonpayable",
      "type": "constructor"
    },
    {
      "anonymous": false,
      "inputs": [
        {
          "indexed": false,
          "internalType": "bytes",
          "name": "message",
          "type": "bytes"
        }
      ],
      "name": "MessageSent",
      "type": "event"
    },
    {
      "inputs": [],
      "name": "charon",
      "outputs": [
        {
          "internalType": "address",
          "name": "",
          "type": "address"
        }
      ],
      "stateMutability": "view",
      "type": "function"
    },
    {
      "inputs": [],
      "name": "fxChild",
      "outputs": [
        {
          "internalType": "address",
          "name": "",
          "type": "address"
        }
      ],
      "stateMutability": "view",
      "type": "function"
    },
    {
      "inputs": [],
      "name": "fxRootTunnel",
      "outputs": [
        {
          "internalType": "address",
          "name": "",
          "type": "address"
        }
      ],
      "stateMutability": "view",
      "type": "function"
    },
    {
      "inputs": [
        {
          "internalType": "bytes",
          "name": "_inputData",
          "type": "bytes"
        }
      ],
      "name": "getCommitment",
      "outputs": [
        {
          "internalType": "bytes",
          "name": "_value",
          "type": "bytes"
        }
      ],
      "stateMutability": "nonpayable",
      "type": "function"
    },
    {
      "inputs": [
        {
          "internalType": "bytes32",
          "name": "_queryId",
          "type": "bytes32"
        },
        {
          "internalType": "uint256",
          "name": "_timestamp",
          "type": "uint256"
        }
      ],
      "name": "getDataAfter",
      "outputs": [
        {
          "internalType": "bytes",
          "name": "_value",
          "type": "bytes"
        },
        {
          "internalType": "uint256",
          "name": "_timestampRetrieved",
          "type": "uint256"
        }
      ],
      "stateMutability": "view",
      "type": "function"
    },
    {
      "inputs": [
        {
          "internalType": "bytes32",
          "name": "_queryId",
          "type": "bytes32"
        },
        {
          "internalType": "uint256",
          "name": "_timestamp",
          "type": "uint256"
        }
      ],
      "name": "getDataBefore",
      "outputs": [
        {
          "internalType": "bytes",
          "name": "_value",
          "type": "bytes"
        },
        {
          "internalType": "uint256",
          "name": "_timestampRetrieved",
          "type": "uint256"
        }
      ],
      "stateMutability": "view",
      "type": "function"
    },
    {
      "inputs": [
        {
          "internalType": "bytes32",
          "name": "_queryId",
          "type": "bytes32"
        },
        {
          "internalType": "uint256",
          "name": "_timestamp",
          "type": "uint256"
        }
      ],
      "name": "getIndexForDataAfter",
      "outputs": [
        {
          "internalType": "bool",
          "name": "_found",
          "type": "bool"
        },
        {
          "internalType": "uint256",
          "name": "_index",
          "type": "uint256"
        }
      ],
      "stateMutability": "view",
      "type": "function"
    },
    {
      "inputs": [
        {
          "internalType": "bytes32",
          "name": "_queryId",
          "type": "bytes32"
        },
        {
          "internalType": "uint256",
          "name": "_timestamp",
          "type": "uint256"
        }
      ],
      "name": "getIndexForDataBefore",
      "outputs": [
        {
          "internalType": "bool",
          "name": "_found",
          "type": "bool"
        },
        {
          "internalType": "uint256",
          "name": "_index",
          "type": "uint256"
        }
      ],
      "stateMutability": "view",
      "type": "function"
    },
    {
      "inputs": [
        {
          "internalType": "bytes32",
          "name": "_queryId",
          "type": "bytes32"
        },
        {
          "internalType": "uint256",
          "name": "_timestamp",
          "type": "uint256"
        },
        {
          "internalType": "uint256",
          "name": "_maxAge",
          "type": "uint256"
        },
        {
          "internalType": "uint256",
          "name": "_maxCount",
          "type": "uint256"
        }
      ],
      "name": "getMultipleValuesBefore",
      "outputs": [
        {
          "internalType": "bytes[]",
          "name": "_values",
          "type": "bytes[]"
        },
        {
          "internalType": "uint256[]",
          "name": "_timestamps",
          "type": "uint256[]"
        }
      ],
      "stateMutability": "view",
      "type": "function"
    },
    {
      "inputs": [
        {
          "internalType": "bytes32",
          "name": "_queryId",
          "type": "bytes32"
        }
      ],
      "name": "getNewValueCountbyQueryId",
      "outputs": [
        {
          "internalType": "uint256",
          "name": "",
          "type": "uint256"
        }
      ],
      "stateMutability": "view",
      "type": "function"
    },
    {
      "inputs": [
        {
          "internalType": "bytes32",
          "name": "_queryId",
          "type": "bytes32"
        },
        {
          "internalType": "uint256",
          "name": "_timestamp",
          "type": "uint256"
        }
      ],
      "name": "getReporterByTimestamp",
      "outputs": [
        {
          "internalType": "address",
          "name": "",
          "type": "address"
        }
      ],
      "stateMutability": "view",
      "type": "function"
    },
    {
      "inputs": [
        {
          "internalType": "uint256",
          "name": "_timestamp",
          "type": "uint256"
        },
        {
          "internalType": "uint256",
          "name": "_chainID",
          "type": "uint256"
        },
        {
          "internalType": "address",
          "name": "_address",
          "type": "address"
        }
      ],
      "name": "getRootHashAndSupply",
      "outputs": [
        {
          "internalType": "bytes",
          "name": "_value",
          "type": "bytes"
        }
      ],
      "stateMutability": "view",
      "type": "function"
    },
    {
      "inputs": [
        {
          "internalType": "bytes32",
          "name": "_queryId",
          "type": "bytes32"
        },
        {
          "internalType": "uint256",
          "name": "_index",
          "type": "uint256"
        }
      ],
      "name": "getTimestampbyQueryIdandIndex",
      "outputs": [
        {
          "internalType": "uint256",
          "name": "",
          "type": "uint256"
        }
      ],
      "stateMutability": "view",
      "type": "function"
    },
    {
      "inputs": [],
      "name": "idMappingContract",
      "outputs": [
        {
          "internalType": "contract IMappingContract",
          "name": "",
          "type": "address"
        }
      ],
      "stateMutability": "view",
      "type": "function"
    },
    {
      "inputs": [
        {
          "internalType": "bytes32",
          "name": "_queryId",
          "type": "bytes32"
        },
        {
          "internalType": "uint256",
          "name": "_timestamp",
          "type": "uint256"
        }
      ],
      "name": "isInDispute",
      "outputs": [
        {
          "internalType": "bool",
          "name": "",
          "type": "bool"
        }
      ],
      "stateMutability": "view",
      "type": "function"
    },
    {
      "inputs": [],
      "name": "latestRootMessageSender",
      "outputs": [
        {
          "internalType": "address",
          "name": "",
          "type": "address"
        }
      ],
      "stateMutability": "view",
      "type": "function"
    },
    {
      "inputs": [],
      "name": "latestStateId",
      "outputs": [
        {
          "internalType": "uint256",
          "name": "",
          "type": "uint256"
        }
      ],
      "stateMutability": "view",
      "type": "function"
    },
    {
      "inputs": [
        {
          "internalType": "uint256",
          "name": "stateId",
          "type": "uint256"
        },
        {
          "internalType": "address",
          "name": "sender",
          "type": "address"
        },
        {
          "internalType": "bytes",
          "name": "data",
          "type": "bytes"
        }
      ],
      "name": "processMessageFromRoot",
      "outputs": [],
      "stateMutability": "nonpayable",
      "type": "function"
    },
    {
      "inputs": [
        {
          "internalType": "bytes32",
          "name": "_queryId",
          "type": "bytes32"
        },
        {
          "internalType": "uint256",
          "name": "_timestamp",
          "type": "uint256"
        }
      ],
      "name": "retrieveData",
      "outputs": [
        {
          "internalType": "bytes",
          "name": "",
          "type": "bytes"
        }
      ],
      "stateMutability": "view",
      "type": "function"
    },
    {
      "inputs": [
        {
          "internalType": "bytes",
          "name": "_data",
          "type": "bytes"
        }
      ],
      "name": "sendCommitment",
      "outputs": [],
      "stateMutability": "nonpayable",
      "type": "function"
    },
    {
      "inputs": [
        {
          "internalType": "address",
          "name": "_charon",
          "type": "address"
        }
      ],
      "name": "setCharon",
      "outputs": [],
      "stateMutability": "nonpayable",
      "type": "function"
    },
    {
      "inputs": [
        {
          "internalType": "address",
          "name": "_fxRootTunnel",
          "type": "address"
        }
      ],
      "name": "setFxRootTunnel",
      "outputs": [],
      "stateMutability": "nonpayable",
      "type": "function"
    },
    {
      "inputs": [
        {
          "internalType": "address",
          "name": "_addy",
          "type": "address"
        }
      ],
      "name": "setIdMappingContract",
      "outputs": [],
      "stateMutability": "nonpayable",
      "type": "function"
    },
    {
      "inputs": [
        {
          "internalType": "uint256",
          "name": "",
          "type": "uint256"
        }
      ],
      "name": "stateIds",
      "outputs": [
        {
          "internalType": "uint256",
          "name": "",
          "type": "uint256"
        }
      ],
      "stateMutability": "view",
      "type": "function"
    },
    {
      "inputs": [],
      "name": "tellor",
      "outputs": [
        {
          "internalType": "contract ITellor",
          "name": "",
          "type": "address"
        }
      ],
      "stateMutability": "view",
      "type": "function"
    },
    {
      "inputs": [
        {
          "internalType": "bytes32",
          "name": "_id",
          "type": "bytes32"
        }
      ],
      "name": "valueFor",
      "outputs": [
        {
          "internalType": "int256",
          "name": "_value",
          "type": "int256"
        },
        {
          "internalType": "uint256",
          "name": "_timestamp",
          "type": "uint256"
        },
        {
          "internalType": "uint256",
          "name": "_statusCode",
          "type": "uint256"
        }
      ],
      "stateMutability": "view",
      "type": "function"
    }
  ],
  "bytecode": "0x60806040523480156200001157600080fd5b5060405162001a2538038062001a2583398101604081905262000034916200007f565b600080546001600160a01b039384166001600160a01b03199182161790915560028054929093169116179055620000be565b6001600160a01b03811681146200007c57600080fd5b50565b600080604083850312156200009357600080fd5b8251620000a08162000066565b6020840151909250620000b38162000066565b809150509250929050565b61195780620000ce6000396000f3fe608060405234801561001057600080fd5b506004361061013e5760003560e01c8063193b505b146101435780631959ad5b14610158578063257da3ef1461018857806329449085146101a95780632af8aae0146101d3578063353ab5cf146101e657806344e87f91146101f9578063450d11f01461021c57806351e3aea91461022f5780635a319df91461024257806364ee3c6d1461024b5780636b2fd9051461026c57806377b03e0d1461028c5780637f1e9cb01461029f57806388837094146102b25780639a7c4b71146102c5578063a792765f146102d8578063b6f6869e146102eb578063c5958af9146102fe578063ce5e11bf14610311578063e07c548614610324578063e6a8e74514610337578063f66f49c31461034a578063f78eea831461035d578063fc571a5c1461038b578063fcd4a5461461039e575b600080fd5b610156610151366004611149565b6103bf565b005b60005461016b906001600160a01b031681565b6040516001600160a01b0390911681526020015b60405180910390f35b61019b61019636600461116d565b6103f7565b60405190815260200161017f565b6101bc6101b7366004611186565b610418565b60408051921515835260208301919091520161017f565b60015461016b906001600160a01b031681565b6101566101f4366004611149565b610497565b61020c610207366004611186565b6104cf565b604051901515815260200161017f565b60025461016b906001600160a01b031681565b61015661023d36600461126b565b61054c565b61019b60045481565b61025e610259366004611186565b61056f565b60405161017f9291906112f7565b61027f61027a36600461126b565b6105c8565b60405161017f9190611319565b61019b61029a36600461116d565b61068d565b60035461016b906001600160a01b031681565b6101566102c0366004611149565b6106fb565b6101566102d336600461132c565b61078e565b61025e6102e6366004611186565b61079e565b61027f6102f9366004611384565b610824565b61027f61030c366004611186565b6108e5565b61019b61031f366004611186565b61095d565b61016b610332366004611186565b6109d1565b60055461016b906001600160a01b031681565b6101bc610358366004611186565b610a45565b61037061036b36600461116d565b610c02565b6040805193845260208401929092529082015260600161017f565b60065461016b906001600160a01b031681565b6103b16103ac3660046113bd565b610cc7565b60405161017f9291906113ef565b6001546001600160a01b0316156103d557600080fd5b600180546001600160a01b0319166001600160a01b0392909216919091179055565b6007818154811061040757600080fd5b600091825260209091200154905081565b60008054604051632944908560e01b815282916001600160a01b03169063294490859061044b908790879060040161148a565b6040805180830381865afa158015610467573d6000803e3d6000fd5b505050506040513d601f19601f8201168201806040525081019061048b91906114ad565b915091505b9250929050565b6006546001600160a01b0316156104ad57600080fd5b600680546001600160a01b0319166001600160a01b0392909216919091179055565b600080546040516344e87f9160e01b81526001600160a01b03909116906344e87f9190610502908690869060040161148a565b602060405180830381865afa15801561051f573d6000803e3d6000fd5b505050506040513d601f19601f8201168201806040525081019061054391906114d9565b90505b92915050565b6006546001600160a01b0316331461056357600080fd5b61056c81610fb3565b50565b606060008060006105808686610a45565b91509150816105a75760006040518060200160405280600081525090935093505050610490565b6105b1868261095d565b92506105bd86846108e5565b935050509250929050565b606060006105d583610fed565b6000818152600960209081526040808320805460ff1916600117905560089091529020805491925090610607906114f4565b80601f0160208091040260200160405190810160405280929190818152602001828054610633906114f4565b80156106805780601f1061065557610100808354040283529160200191610680565b820191906000526020600020905b81548152906001019060200180831161066357829003601f168201915b5050505050915050919050565b600080546040516377b03e0d60e01b8152600481018490526001600160a01b03909116906377b03e0d90602401602060405180830381865afa1580156106d7573d6000803e3d6000fd5b505050506040513d601f19601f820116820180604052508101906105469190611528565b6003546001600160a01b03161561076c5760405162461bcd60e51b815260206004820152602a60248201527f4678426173654368696c6454756e6e656c3a20524f4f545f54554e4e454c5f4160448201526913149150511657d4d15560b21b60648201526084015b60405180910390fd5b600380546001600160a01b0319166001600160a01b0392909216919091179055565b61079983838361106f565b505050565b6000805460405163a792765f60e01b8152606092916001600160a01b03169063a792765f906107d3908790879060040161148a565b600060405180830381865afa1580156107f0573d6000803e3d6000fd5b505050506040513d6000823e601f3d908101601f191682016040526108189190810190611586565b90969095509350505050565b60408051602081018490526001600160a01b0383168183015260608082018690528251808303820181526080830190935291600091610866919060a0016115dd565b6040516020818303038152906040528051906020012090506108908161a8c0426102e6919061162e565b95509150846108dd5760405162461bcd60e51b81526020600482015260196024820152781d1a5b595cdd185b5c081b5d5cdd081899481c1c995cd95b9d603a1b6044820152606401610763565b509392505050565b60005460405163c5958af960e01b81526060916001600160a01b03169063c5958af990610918908690869060040161148a565b600060405180830381865afa158015610935573d6000803e3d6000fd5b505050506040513d6000823e601f3d908101601f191682016040526105439190810190611641565b6000805460405163ce5e11bf60e01b81526001600160a01b039091169063ce5e11bf90610990908690869060040161148a565b602060405180830381865afa1580156109ad573d6000803e3d6000fd5b505050506040513d601f19601f820116820180604052508101906105439190611528565b6000805460405163703e2a4360e11b81526001600160a01b039091169063e07c548690610a04908690869060040161148a565b602060405180830381865afa158015610a21573d6000803e3d6000fd5b505050506040513d601f19601f820116820180604052508101906105439190611675565b6000806000610a538561068d565b905080600003610a6a576000809250925050610490565b80610a7481611692565b9150600190506000808381610a898a8361095d565b9050888111610aa45760008097509750505050505050610490565b610aae8a8461095d565b905088811115610abd57600094505b8415610b6d576002610acf84846116a9565b610ad991906116bc565b9350610ae58a8561095d565b905088811115610b26576000610b008b61031f60018861162e565b9050898111610b125760009550610b20565b610b1d60018661162e565b92505b50610abd565b6000610b378b61031f8760016116a9565b905089811115610b5a576000955084610b4f816116de565b955050809150610b20565b610b658560016116a9565b935050610abd565b610b778a826104cf565b610b8d5760018497509750505050505050610490565b610b978a826104cf565b8015610ba257508584105b15610bc55783610bb1816116de565b945050610bbe8a8561095d565b9050610b8d565b8584148015610bd95750610bd98a826104cf565b15610bf05760008097509750505050505050610490565b60018497509750505050505050610490565b6001546040516387a475fd60e01b8152600481018390526000918291829182916001600160a01b03909116906387a475fd90602401602060405180830381865afa158015610c54573d6000803e3d6000fd5b505050506040513d601f19601f82011682018060405250810190610c789190611528565b90506060610c8b826102e64260016116a9565b945090506000849003610cab576000806101949450945094505050610cc0565b6000610cb6826110e3565b955060c893505050505b9193909250565b606080600080610cdb88610358888a61162e565b9150915081610d2c576040805160008082526020820190925290610d0f565b6060815260200190600190039081610cfa5790505b506040805160008152602081019091529094509250610faa915050565b6000610d388989610418565b909350905082610d8b576040805160008082526020820190925290610d6d565b6060815260200190600190039081610d585790505b506040805160008152602081019091529095509350610faa92505050565b6000806000886001600160401b03811115610da857610da86111a8565b604051908082528060200260200182016040528015610dd1578160200160208202803683370190505b5090505b8883108015610df857508482610dec8660016116a9565b610df6919061162e565b115b15610e5c576000610e0d8d61031f858861162e565b9050610e198d826104cf565b610e495780828581518110610e3057610e306116f7565b602090810291909101015283610e45816116de565b9450505b82610e53816116de565b93505050610dd5565b6000836001600160401b03811115610e7657610e766111a8565b604051908082528060200260200182016040528015610ea957816020015b6060815260200190600190039081610e945790505b5090506000846001600160401b03811115610ec657610ec66111a8565b604051908082528060200260200182016040528015610eef578160200160208202803683370190505b50905060005b85811015610f9d578381610f0a60018961162e565b610f14919061162e565b81518110610f2457610f246116f7565b6020026020010151828281518110610f3e57610f3e6116f7565b602002602001018181525050610f6d8f838381518110610f6057610f606116f7565b60200260200101516108e5565b838281518110610f7f57610f7f6116f7565b60200260200101819052508080610f95906116de565b915050610ef5565b5090985096505050505050505b94509492505050565b7f8c5261668696ce22758910d05bab8f186d6eb247ceac2af2e82c7dc17669b03681604051610fe29190611319565b60405180910390a150565b6000805b8251811015611069576110058160016116a9565b8351611011919061162e565b61101c90600861170d565b611027906002611808565b838281518110611039576110396116f7565b016020015161104b919060f81c61170d565b61105590836116a9565b915080611061816116de565b915050610ff1565b50919050565b6004839055600083815260086020526040902061108c8282611862565b5050600580546001600160a01b0319166001600160a01b0392909216919091179055600780546001810182556000919091527fa66cc928b5edb82af9bd49922954155ab7b0942694bea4ce44661d9a8736c6880155565b6000805b825181101561106957828181518110611102576111026116f7565b016020015160f81c6111168361010061170d565b61112091906116a9565b91508061112c816116de565b9150506110e7565b6001600160a01b038116811461056c57600080fd5b60006020828403121561115b57600080fd5b813561116681611134565b9392505050565b60006020828403121561117f57600080fd5b5035919050565b6000806040838503121561119957600080fd5b50508035926020909101359150565b634e487b7160e01b600052604160045260246000fd5b604051601f8201601f191681016001600160401b03811182821017156111e6576111e66111a8565b604052919050565b60006001600160401b03821115611207576112076111a8565b50601f01601f191660200190565b600082601f83011261122657600080fd5b8135611239611234826111ee565b6111be565b81815284602083860101111561124e57600080fd5b816020850160208301376000918101602001919091529392505050565b60006020828403121561127d57600080fd5b81356001600160401b0381111561129357600080fd5b61129f84828501611215565b949350505050565b60005b838110156112c25781810151838201526020016112aa565b50506000910152565b600081518084526112e38160208601602086016112a7565b601f01601f19169290920160200192915050565b60408152600061130a60408301856112cb565b90508260208301529392505050565b60208152600061054360208301846112cb565b60008060006060848603121561134157600080fd5b83359250602084013561135381611134565b915060408401356001600160401b0381111561136e57600080fd5b61137a86828701611215565b9150509250925092565b60008060006060848603121561139957600080fd5b833592506020840135915060408401356113b281611134565b809150509250925092565b600080600080608085870312156113d357600080fd5b5050823594602084013594506040840135936060013592509050565b6000604082016040835280855180835260608501915060608160051b8601019250602080880160005b8381101561144657605f198887030185526114348683516112cb565b95509382019390820190600101611418565b50508584038187015286518085528782019482019350915060005b8281101561147d57845184529381019392810192600101611461565b5091979650505050505050565b918252602082015260400190565b805180151581146114a857600080fd5b919050565b600080604083850312156114c057600080fd5b6114c983611498565b9150602083015190509250929050565b6000602082840312156114eb57600080fd5b61054382611498565b600181811c9082168061150857607f821691505b60208210810361106957634e487b7160e01b600052602260045260246000fd5b60006020828403121561153a57600080fd5b5051919050565b600082601f83011261155257600080fd5b8151611560611234826111ee565b81815284602083860101111561157557600080fd5b61129f8260208301602087016112a7565b60008060006060848603121561159b57600080fd5b6115a484611498565b60208501519093506001600160401b038111156115c057600080fd5b6115cc86828701611541565b925050604084015190509250925092565b60408152601160408201527043726f7373436861696e42616c616e636560781b606082015260806020820152600061054360808301846112cb565b634e487b7160e01b600052601160045260246000fd5b8181038181111561054657610546611618565b60006020828403121561165357600080fd5b81516001600160401b0381111561166957600080fd5b61129f84828501611541565b60006020828403121561168757600080fd5b815161116681611134565b6000816116a1576116a1611618565b506000190190565b8082018082111561054657610546611618565b6000826116d957634e487b7160e01b600052601260045260246000fd5b500490565b6000600182016116f0576116f0611618565b5060010190565b634e487b7160e01b600052603260045260246000fd5b808202811582820484141761054657610546611618565b600181815b8085111561175f57816000190482111561174557611745611618565b8085161561175257918102915b93841c9390800290611729565b509250929050565b60008261177657506001610546565b8161178357506000610546565b816001811461179957600281146117a3576117bf565b6001915050610546565b60ff8411156117b4576117b4611618565b50506001821b610546565b5060208310610133831016604e8410600b84101617156117e2575081810a610546565b6117ec8383611724565b806000190482111561180057611800611618565b029392505050565b60006105438383611767565b601f82111561079957600081815260208120601f850160051c8101602086101561183b5750805b601f850160051c820191505b8181101561185a57828155600101611847565b505050505050565b81516001600160401b0381111561187b5761187b6111a8565b61188f8161188984546114f4565b84611814565b602080601f8311600181146118c457600084156118ac5750858301515b600019600386901b1c1916600185901b17855561185a565b600085815260208120601f198616915b828110156118f3578886015182559484019460019091019084016118d4565b50858210156119115787850151600019600388901b60f8161c191681555b5050505050600190811b0190555056fea26469706673582212203d1f1f5dabe35eada18b199825af8f77b8dbdab5df392e0e96e9e7669106f3bc64736f6c63430008110033",
  "linkReferences": {},
  "deployedLinkReferences": {}
}