{
  "_format": "hh-sol-artifact-1",
  "contractName": "Math",
  "sourceName": "charonAMM/contracts/helpers/Math.sol",
  "abi": [
    {
      "inputs": [
        {
          "internalType": "uint256",
          "name": "_tokenBalanceIn",
          "type": "uint256"
        },
        {
          "internalType": "uint256",
          "name": "_tokenBalanceOut",
          "type": "uint256"
        },
        {
          "internalType": "uint256",
          "name": "_tokenAmountOut",
          "type": "uint256"
        },
        {
          "internalType": "uint256",
          "name": "_swapFee",
          "type": "uint256"
        }
      ],
      "name": "calcInGivenOut",
      "outputs": [
        {
          "internalType": "uint256",
          "name": "_tokenAmountIn",
          "type": "uint256"
        }
      ],
      "stateMutability": "pure",
      "type": "function"
    },
    {
      "inputs": [
        {
          "internalType": "uint256",
          "name": "_tokenBalanceIn",
          "type": "uint256"
        },
        {
          "internalType": "uint256",
          "name": "_tokenBalanceOut",
          "type": "uint256"
        },
        {
          "internalType": "uint256",
          "name": "_tokenAmountIn",
          "type": "uint256"
        },
        {
          "internalType": "uint256",
          "name": "_swapFee",
          "type": "uint256"
        }
      ],
      "name": "calcOutGivenIn",
      "outputs": [
        {
          "internalType": "uint256",
          "name": "_tokenAmountOut",
          "type": "uint256"
        }
      ],
      "stateMutability": "pure",
      "type": "function"
    },
    {
      "inputs": [
        {
          "internalType": "uint256",
          "name": "_tokenBalanceIn",
          "type": "uint256"
        },
        {
          "internalType": "uint256",
          "name": "_poolSupply",
          "type": "uint256"
        },
        {
          "internalType": "uint256",
          "name": "_tokenAmountIn",
          "type": "uint256"
        }
      ],
      "name": "calcPoolOutGivenSingleIn",
      "outputs": [
        {
          "internalType": "uint256",
          "name": "_poolAmountOut",
          "type": "uint256"
        }
      ],
      "stateMutability": "pure",
      "type": "function"
    },
    {
      "inputs": [
        {
          "internalType": "uint256",
          "name": "_tokenBalanceOut",
          "type": "uint256"
        },
        {
          "internalType": "uint256",
          "name": "_inSupply",
          "type": "uint256"
        },
        {
          "internalType": "uint256",
          "name": "_amountIn",
          "type": "uint256"
        },
        {
          "internalType": "uint256",
          "name": "_swapFee",
          "type": "uint256"
        },
        {
          "internalType": "bool",
          "name": "_isPool",
          "type": "bool"
        }
      ],
      "name": "calcSingleOutGivenIn",
      "outputs": [
        {
          "internalType": "uint256",
          "name": "_tokenAmountOut",
          "type": "uint256"
        }
      ],
      "stateMutability": "pure",
      "type": "function"
    },
    {
      "inputs": [
        {
          "internalType": "uint256",
          "name": "_tokenBalanceIn",
          "type": "uint256"
        },
        {
          "internalType": "uint256",
          "name": "_tokenBalanceOut",
          "type": "uint256"
        },
        {
          "internalType": "uint256",
          "name": "_swapFee",
          "type": "uint256"
        }
      ],
      "name": "calcSpotPrice",
      "outputs": [
        {
          "internalType": "uint256",
          "name": "",
          "type": "uint256"
        }
      ],
      "stateMutability": "pure",
      "type": "function"
    }
  ],
  "bytecode": "0x608060405234801561001057600080fd5b506109b2806100206000396000f3fe608060405234801561001057600080fd5b50600436106100575760003560e01c8063436f9be41461005c57806372ee63411461008157806376a38e9114610094578063e0e6236e146100a7578063ea2388d2146100ba575b600080fd5b61006f61006a366004610822565b6100cd565b60405190815260200160405180910390f35b61006f61008f36600461084e565b61010f565b61006f6100a236600461084e565b610170565b61006f6100b5366004610822565b6101ca565b61006f6100c8366004610880565b610249565b6000806100da8585610399565b905060006100f9670de0b6b3a76400006100f486826108e8565b610399565b905061010582826104c0565b9695505050505050565b60008061012483670de0b6b3a76400006108e8565b905061013084826104c0565b90506000610142876100f484826108fb565b9050600061015882670de0b6b3a76400006108e8565b905061016487826104c0565b98975050505050505050565b60008061017d84866108e8565b9050600061018b8683610399565b905060006101a1670de0b6b3a7640000836108e8565b90506101b585670de0b6b3a76400006108e8565b93506101646101c489836104c0565b85610399565b6000806101df83670de0b6b3a76400006104c0565b905060006101ed82876108fb565b905060006101fb8288610399565b905060006102228261021d670de0b6b3a7640000671bc16d674ec80000610399565b61054b565b9050600061023082896104c0565b905061023c88826108e8565b9998505050505050505050565b600080821561031e5761026c670de0b6b3a7640000671bc16d674ec80000610399565b9050600061028286670de0b6b3a76400006104c0565b9050600061029082896108e8565b9050600061029e828a610399565b905060006102b88261021d670de0b6b3a764000088610399565b905060006102c6828d6104c0565b905060006102d4828e6108e8565b905060006102f36102ed89670de0b6b3a76400006108e8565b8c6104c0565b90506103108261030b83670de0b6b3a76400006108e8565b6104c0565b98505050505050505061038f565b600061033285670de0b6b3a76400006108e8565b905061033e86826104c0565b90506000610354670de0b6b3a764000089610399565b9050600061037361036d83670de0b6b3a76400006108e8565b8961054b565b905061037f8a826104c0565b610389908b6108e8565b94505050505b5095945050505050565b6000816000036103df5760405162461bcd60e51b815260206004820152600c60248201526b4552525f4449565f5a45524f60a01b60448201526064015b60405180910390fd5b60006103f384670de0b6b3a764000061090e565b90508315806104125750610407848261093b565b670de0b6b3a7640000145b6104515760405162461bcd60e51b815260206004820152601060248201526f11549497d1125597d25395115493905360821b60448201526064016103d6565b600061045e60028561093b565b61046890836108fb565b9050818110156104ad5760405162461bcd60e51b815260206004820152601060248201526f11549497d1125597d25395115493905360821b60448201526064016103d6565b6104b7848261093b565b95945050505050565b6000806104cd838561090e565b90508315806104e45750826104e2858361093b565b145b6105235760405162461bcd60e51b815260206004820152601060248201526f4552525f4d554c5f4f564552464c4f5760801b60448201526064016103d6565b6000610537826706f05b59d3b200006108fb565b90506104b7670de0b6b3a76400008261093b565b600060018310156105955760405162461bcd60e51b81526020600482015260146024820152734552525f504f575f424153455f544f4f5f4c4f5760601b60448201526064016103d6565b671bc16d674ec7ffff8311156105e55760405162461bcd60e51b815260206004820152601560248201527408aa4a4bea09eaebe8482a68abea89e9ebe90928e9605b1b60448201526064016103d6565b60006105f083610652565b905060006105fe82856108e8565b905060006106148661060f8561066f565b610683565b90508160000361062857925061064c915050565b600061063987846305f5e1006106f8565b905061064582826104c0565b9450505050505b92915050565b600061065d8261066f565b61064c90670de0b6b3a764000061090e565b600061064c670de0b6b3a76400008361093b565b600061069060028361094f565b6000036106a557670de0b6b3a76400006106a7565b825b90506106b460028361093b565b91505b811561064c576106c783846104c0565b92506106d460028361094f565b156106e6576106e381846104c0565b90505b6106f160028361093b565b91506106b7565b600082818061070f87670de0b6b3a76400006107eb565b670de0b6b3a76400009550909250905083600060015b8783106107de57600061074082670de0b6b3a764000061090e565b90506000806107608961075b670de0b6b3a7640000866108e8565b6107eb565b915091506107728661030b848b6104c0565b955061077e8684610399565b955085600003610790575050506107de565b861561079a579315935b80156107a4579315935b84156107bb576107b4868b6108e8565b99506107c8565b6107c5868b6108fb565b99505b50505080806107d690610963565b915050610725565b5050505050509392505050565b60008082841061080a576107ff83856108e8565b60009150915061081b565b61081484846108e8565b6001915091505b9250929050565b60008060006060848603121561083757600080fd5b505081359360208301359350604090920135919050565b6000806000806080858703121561086457600080fd5b5050823594602084013594506040840135936060013592509050565b600080600080600060a0868803121561089857600080fd5b85359450602086013593506040860135925060608601359150608086013580151581146108c457600080fd5b809150509295509295909350565b634e487b7160e01b600052601160045260246000fd5b8181038181111561064c5761064c6108d2565b8082018082111561064c5761064c6108d2565b808202811582820484141761064c5761064c6108d2565b634e487b7160e01b600052601260045260246000fd5b60008261094a5761094a610925565b500490565b60008261095e5761095e610925565b500690565b600060018201610975576109756108d2565b506001019056fea26469706673582212206134e4e13818cf8572353c7ed83a72eae73335191fa95dd29900016e0dd8b48c64736f6c63430008110033",
  "linkReferences": {},
  "deployedLinkReferences": {}
}