{
  "_format": "hh-sol-artifact-1",
  "contractName": "Math",
  "sourceName": "charonAMM/contracts/helpers/Math.sol",
  "abi": [
    {
      "inputs": [],
      "name": "BONE",
      "outputs": [
        {
          "internalType": "uint256",
          "name": "",
          "type": "uint256"
        }
      ],
      "stateMutability": "view",
      "type": "function"
    },
    {
      "inputs": [],
      "name": "MAX_IN_RATIO",
      "outputs": [
        {
          "internalType": "uint256",
          "name": "",
          "type": "uint256"
        }
      ],
      "stateMutability": "view",
      "type": "function"
    },
    {
      "inputs": [],
      "name": "MAX_OUT_RATIO",
      "outputs": [
        {
          "internalType": "uint256",
          "name": "",
          "type": "uint256"
        }
      ],
      "stateMutability": "view",
      "type": "function"
    },
    {
      "inputs": [
        {
          "internalType": "uint256",
          "name": "_tokenBalanceIn",
          "type": "uint256"
        },
        {
          "internalType": "uint256",
          "name": "_tokenBalanceOut",
          "type": "uint256"
        },
        {
          "internalType": "uint256",
          "name": "_tokenAmountOut",
          "type": "uint256"
        },
        {
          "internalType": "uint256",
          "name": "_swapFee",
          "type": "uint256"
        }
      ],
      "name": "calcInGivenOut",
      "outputs": [
        {
          "internalType": "uint256",
          "name": "_tokenAmountIn",
          "type": "uint256"
        }
      ],
      "stateMutability": "pure",
      "type": "function"
    },
    {
      "inputs": [
        {
          "internalType": "uint256",
          "name": "_tokenBalanceIn",
          "type": "uint256"
        },
        {
          "internalType": "uint256",
          "name": "_tokenBalanceOut",
          "type": "uint256"
        },
        {
          "internalType": "uint256",
          "name": "_tokenAmountIn",
          "type": "uint256"
        },
        {
          "internalType": "uint256",
          "name": "_swapFee",
          "type": "uint256"
        }
      ],
      "name": "calcOutGivenIn",
      "outputs": [
        {
          "internalType": "uint256",
          "name": "_tokenAmountOut",
          "type": "uint256"
        }
      ],
      "stateMutability": "pure",
      "type": "function"
    },
    {
      "inputs": [
        {
          "internalType": "uint256",
          "name": "_tokenBalanceIn",
          "type": "uint256"
        },
        {
          "internalType": "uint256",
          "name": "_poolSupply",
          "type": "uint256"
        },
        {
          "internalType": "uint256",
          "name": "_tokenAmountIn",
          "type": "uint256"
        }
      ],
      "name": "calcPoolOutGivenSingleIn",
      "outputs": [
        {
          "internalType": "uint256",
          "name": "_poolAmountOut",
          "type": "uint256"
        }
      ],
      "stateMutability": "pure",
      "type": "function"
    },
    {
      "inputs": [
        {
          "internalType": "uint256",
          "name": "_tokenBalanceOut",
          "type": "uint256"
        },
        {
          "internalType": "uint256",
          "name": "_inSupply",
          "type": "uint256"
        },
        {
          "internalType": "uint256",
          "name": "_amountIn",
          "type": "uint256"
        },
        {
          "internalType": "uint256",
          "name": "_swapFee",
          "type": "uint256"
        },
        {
          "internalType": "bool",
          "name": "_isPool",
          "type": "bool"
        }
      ],
      "name": "calcSingleOutGivenIn",
      "outputs": [
        {
          "internalType": "uint256",
          "name": "_tokenAmountOut",
          "type": "uint256"
        }
      ],
      "stateMutability": "pure",
      "type": "function"
    },
    {
      "inputs": [
        {
          "internalType": "uint256",
          "name": "_tokenBalanceIn",
          "type": "uint256"
        },
        {
          "internalType": "uint256",
          "name": "_tokenBalanceOut",
          "type": "uint256"
        },
        {
          "internalType": "uint256",
          "name": "_swapFee",
          "type": "uint256"
        }
      ],
      "name": "calcSpotPrice",
      "outputs": [
        {
          "internalType": "uint256",
          "name": "",
          "type": "uint256"
        }
      ],
      "stateMutability": "pure",
      "type": "function"
    }
  ],
  "bytecode": "0x608060405234801561001057600080fd5b50610a3e806100206000396000f3fe608060405234801561001057600080fd5b50600436106100785760003560e01c8063436f9be41461007d57806372ee6341146100a257806376a38e91146100b5578063992e2a92146100c8578063c36596a6146100d0578063e0e6236e146100df578063ea2388d2146100f2578063ec09302114610105575b600080fd5b61009061008b366004610884565b61010d565b60405190815260200160405180910390f35b6100906100b03660046108b0565b61014f565b6100906100c33660046108b0565b6101b0565b61009061020a565b610090670de0b6b3a764000081565b6100906100ed366004610884565b61022b565b6100906101003660046108e2565b6102aa565b6100906103fa565b60008061011a858561040d565b90506000610139670de0b6b3a7640000610134868261094a565b61040d565b905061014582826104ee565b9695505050505050565b60008061016483670de0b6b3a764000061094a565b905061017084826104ee565b9050600061018287610134848261095d565b9050600061019882670de0b6b3a764000061094a565b90506101a487826104ee565b98975050505050505050565b6000806101bd848661094a565b905060006101cb868361040d565b905060006101e1670de0b6b3a76400008361094a565b90506101f585670de0b6b3a764000061094a565b93506101a461020489836104ee565b8561040d565b61021d6003670de0b6b3a7640000610986565b61022890600161095d565b81565b60008061024083670de0b6b3a76400006104ee565b9050600061024e828761095d565b9050600061025c828861040d565b905060006102838261027e670de0b6b3a7640000671bc16d674ec8000061040d565b610584565b9050600061029182896104ee565b905061029d888261094a565b9998505050505050505050565b600080821561037f576102cd670de0b6b3a7640000671bc16d674ec8000061040d565b905060006102e386670de0b6b3a76400006104ee565b905060006102f1828961094a565b905060006102ff828a61040d565b905060006103198261027e670de0b6b3a76400008861040d565b90506000610327828d6104ee565b90506000610335828e61094a565b9050600061035461034e89670de0b6b3a764000061094a565b8c6104ee565b90506103718261036c83670de0b6b3a764000061094a565b6104ee565b9850505050505050506103f0565b600061039385670de0b6b3a764000061094a565b905061039f86826104ee565b905060006103b5670de0b6b3a76400008961040d565b905060006103d46103ce83670de0b6b3a764000061094a565b89610584565b90506103e08a826104ee565b6103ea908b61094a565b94505050505b5095945050505050565b6102286002670de0b6b3a7640000610986565b6000816000036104535760405162461bcd60e51b815260206004820152600c60248201526b4552525f4449565f5a45524f60a01b60448201526064015b60405180910390fd5b6000610467670de0b6b3a76400008561099a565b90508315806104865750670de0b6b3a76400006104848583610986565b145b6104a25760405162461bcd60e51b815260040161044a906109b1565b60006104af600285610986565b6104b9908361095d565b9050818110156104db5760405162461bcd60e51b815260040161044a906109b1565b6104e58482610986565b95945050505050565b6000806104fb838561099a565b90508315806105125750826105108583610986565b145b6105515760405162461bcd60e51b815260206004820152601060248201526f4552525f4d554c5f4f564552464c4f5760801b604482015260640161044a565b60006105666002670de0b6b3a7640000610986565b610570908361095d565b90506104e5670de0b6b3a764000082610986565b600060018310156105ce5760405162461bcd60e51b81526020600482015260146024820152734552525f504f575f424153455f544f4f5f4c4f5760601b604482015260640161044a565b60016105e3670de0b6b3a7640000600261099a565b6105ed919061094a565b8311156106345760405162461bcd60e51b815260206004820152601560248201527408aa4a4bea09eaebe8482a68abea89e9ebe90928e9605b1b604482015260640161044a565b600061063f836106b3565b9050600061064d828561094a565b905060006106638661065e856106d1565b6106e5565b9050816000036106775792506106ad915050565b600061069a87846106956402540be400670de0b6b3a7640000610986565b61075a565b90506106a682826104ee565b9450505050505b92915050565b6000670de0b6b3a76400006106c7836106d1565b6106ad919061099a565b60006106ad670de0b6b3a764000083610986565b60006106f26002836109db565b60000361070757670de0b6b3a7640000610709565b825b9050610716600283610986565b91505b81156106ad5761072983846104ee565b92506107366002836109db565b156107485761074581846104ee565b90505b610753600283610986565b9150610719565b600082818061077187670de0b6b3a764000061084d565b670de0b6b3a76400009550909250905083600060015b8783106108405760006107a2670de0b6b3a76400008361099a565b90506000806107c2896107bd670de0b6b3a76400008661094a565b61084d565b915091506107d48661036c848b6104ee565b95506107e0868461040d565b9550856000036107f257505050610840565b86156107fc579315935b8015610806579315935b841561081d57610816868b61094a565b995061082a565b610827868b61095d565b99505b5050508080610838906109ef565b915050610787565b5050505050509392505050565b60008082841061086c57610861838561094a565b60009150915061087d565b610876848461094a565b6001915091505b9250929050565b60008060006060848603121561089957600080fd5b505081359360208301359350604090920135919050565b600080600080608085870312156108c657600080fd5b5050823594602084013594506040840135936060013592509050565b600080600080600060a086880312156108fa57600080fd5b853594506020860135935060408601359250606086013591506080860135801515811461092657600080fd5b809150509295509295909350565b634e487b7160e01b600052601160045260246000fd5b818103818111156106ad576106ad610934565b808201808211156106ad576106ad610934565b634e487b7160e01b600052601260045260246000fd5b60008261099557610995610970565b500490565b80820281158282048414176106ad576106ad610934565b60208082526010908201526f11549497d1125597d25395115493905360821b604082015260600190565b6000826109ea576109ea610970565b500690565b600060018201610a0157610a01610934565b506001019056fea2646970667358221220bffa46f204805a8b569fcee01ffc6a8b1f0d7c4d84494cfcc87f3a3b9945cdbb64736f6c63430008110033",
  "linkReferences": {},
  "deployedLinkReferences": {}
}