{
  "_format": "hh-sol-artifact-1",
  "contractName": "Verifier2",
  "sourceName": "contracts/Verifier2.sol",
  "abi": [
    {
      "inputs": [
        {
          "internalType": "uint256[2]",
          "name": "a",
          "type": "uint256[2]"
        },
        {
          "internalType": "uint256[2][2]",
          "name": "b",
          "type": "uint256[2][2]"
        },
        {
          "internalType": "uint256[2]",
          "name": "c",
          "type": "uint256[2]"
        },
        {
          "internalType": "uint256[8]",
          "name": "input",
          "type": "uint256[8]"
        }
      ],
      "name": "verifyProof",
      "outputs": [
        {
          "internalType": "bool",
          "name": "r",
          "type": "bool"
        }
      ],
      "stateMutability": "view",
      "type": "function"
    }
  ],
  "bytecode": "0x608060405234801561001057600080fd5b506111c0806100206000396000f3fe608060405234801561001057600080fd5b506004361061002b5760003560e01c8063c9219a7a14610030575b600080fd5b61012d600480360361020081101561004757600080fd5b6040805180820182529183019291818301918390600290839083908082843760009201829052506040805180820190915293969594608081019493509150600290835b828210156100c8576040805180820182529080840286019060029083908390808284376000920191909152505050815260019091019060200161008a565b505060408051808201825293969594818101949350915060029083908390808284376000920191909152505060408051610100818101909252929594938181019392509060089083908390808284376000920191909152509194506101419350505050565b604080519115158252519081900360200190f35b600061014b61105f565b6040805180820182528751815260208089015181830152908352815160808101835287515181840190815288518301516060808401919091529082528351808501855289840180515182525184015181850152828401528483019190915282518084018452875181528783015181840152848401528251600880825261012082019094529092909182016101008036833701905050905060005b600881101561021e578481600881106101fa57fe5b602002015182828151811061020b57fe5b60209081029190910101526001016101e5565b506102298183610247565b6102385760019250505061023f565b6000925050505b949350505050565b60007f30644e72e131a029b85045b68181585d2833e84879b9709143e1f593f0000001610272611091565b61027a610423565b90508060800151518551600101146102ce576040805162461bcd60e51b81526020600482015260126024820152711d995c9a599a595c8b5898590b5a5b9c1d5d60721b604482015290519081900360640190fd5b6102d66110d8565b6040518060400160405280600081526020016000815250905060005b86518110156103ac578387828151811061030857fe5b602002602001015110610362576040805162461bcd60e51b815260206004820152601f60248201527f76657269666965722d6774652d736e61726b2d7363616c61722d6669656c6400604482015290519081900360640190fd5b6103a28261039d8560800151846001018151811061037c57fe5b60200260200101518a858151811061039057fe5b6020026020010151610abe565b610b53565b91506001016102f2565b506103cf8183608001516000815181106103c257fe5b6020026020010151610b53565b90506104056103e18660000151610be4565b8660200151846000015185602001518587604001518b604001518960600151610c70565b610415576001935050505061041d565b600093505050505b92915050565b61042b611091565b6040805180820182527f2d4d9aa7e302d9df41749d5507949d05dbea33fbb16c643b22f599a2be6df2e281527f14bedd503c37ceb061d8ec60209fe345ce89830a19230301f076caff004d19266020808301919091529083528151608080820184527f0967032fcbf776d1afc985f88877f182d38480a653f2decaa9794cbc3bf3060c8285019081527f0e187847ad4c798374d0d6732bf501847dd68bc0e071241e0213bc7fc13db7ab606080850191909152908352845180860186527f304cfbd1e08a704a99f5e847d93f8c3caafddec46b7a0d379da69a4d112346a781527f1739c1b1a457a8c7313123d24d2f9192f896b7c63eea05a9d57f06547ad0cec8818601528385015285840192909252835180820185527f198e9393920d483a7260bfb731fb5d25f1aa493335a9e71297e485b7aef312c28186019081527f1800deef121f1e76426a00665e5c4479674322d4f75edadd46debd5cd992f6ed828501528152845180860186527f090689d0585ff075ec9e99ad690c3395bc4b313370b38ef355acdadcd122975b81527f12c85ea5db8c6deb4aab71808dcb408fe3d1e7690c43d37b4ce6cc0166fa7daa818601528185015285850152835190810184527f01fd89fa11654f6c3a267b8fc980aabe32614b7c42f2af8a5379e4f38b6340f98185019081527f1795fbc5fbe12aed08bc894050275529192727ed0c1e6c23ee7f0c353c8e248f828401528152835180850185527f2abd6431c8e7a459494a4d6e89e02372e3a95b4fb34d03c0240d415ee20b40b781527f1742e62416addb45dc04f72e38c0aea7b6c955b9722804d4fccf5922975eb00d818501528184015290840152815160098082526101408201909352919082015b6106af6110d8565b8152602001906001900390816106a757505060808201908152604080518082019091527f2ad9864396a7fb5b8709606b7e655663bf88dd4963f6015cd894f41b238b1d2b81527f1d3aa44e9dfe24cd574544ee5eb13eafef1e449555ab3a2549a791191aaea70a60208201529051805160009061072857fe5b602002602001018190525060405180604001604052807f2c5c1097f13a607493f5f67affe9b0d6f489cd8c4683b8316491a9e3f584627a81526020017f030640f2301849bdd08554761f8afc6255e33bc7996d8d768d82591ff29d0f4a815250816080015160018151811061079957fe5b602002602001018190525060405180604001604052807f0a3e9c1686dc6cf158b02a8b690892530444dead8531a09ea7a66b80b9252d9681526020017f0c9d66d98798d4d5009895b8f20a1f9c8bc9538651513422c5a659d6752452b4815250816080015160028151811061080a57fe5b602002602001018190525060405180604001604052807f13d708cc4f189430f94fff9700e15e8e3d465e83989f5a03785f44f00209139f81526020017f141c20e0480369ee8430ab294ba373621e948dadc0c2ad8ce863f6ef6b09ac52815250816080015160038151811061087b57fe5b602002602001018190525060405180604001604052807f040f6a23ef87ba1516aac419070e755409a3d610a8bdeaa46688b347fb162a8a81526020017f07b56a6552d232c96e4919d7970ee1f89af111e8988c32997f73a04bb8b79dcc81525081608001516004815181106108ec57fe5b602002602001018190525060405180604001604052807f1fad13dacde90b4a36cc49250655d59c00a6a806c213d85bbd9f7ff5abe8d02b81526020017f162cb21fcd61d35e66e39c5c684d647ed587674b96150db2923c1eb132a1f8bd815250816080015160058151811061095d57fe5b602002602001018190525060405180604001604052807f08cb72ef5e38b4ab9c19043288092dfb80e7f3a770af72d65d46cd67b0754c5e81526020017f1641a6917bd297f08f8ceac89fb1a6a02fd991ddadb4345f94e66d322dab3b1481525081608001516006815181106109ce57fe5b602002602001018190525060405180604001604052807f13a863d6c16c298a5bef9b6cecb6173fe5ac846e1313fcb57dd764fab514e63d81526020017f09d0a6f48dbf43c1cdc75783d4b4eac5530ea7503794753b3ec494c640e97f918152508160800151600781518110610a3f57fe5b602002602001018190525060405180604001604052807f13ce498966c9d18565e8cdcb0e4d91ded8a4cf828628d2fcf06ef0fc4d78c55e81526020017f0cb4f7352ddcc18b21fef7e6bf9e224f085860744bd87aada5ebecd26b8b27038152508160800151600881518110610ab057fe5b602002602001018190525090565b610ac66110d8565b610ace6110f2565b835181526020808501519082015260408101839052600060608360808460076107d05a03fa9050808015610b0157610b03565bfe5b5080610b4b576040805162461bcd60e51b81526020600482015260126024820152711c185a5c9a5b99cb5b5d5b0b59985a5b195960721b604482015290519081900360640190fd5b505092915050565b610b5b6110d8565b610b63611110565b8351815260208085015181830152835160408301528301516060808301919091526000908360c08460066107d05a03fa9050808015610b01575080610b4b576040805162461bcd60e51b81526020600482015260126024820152711c185a5c9a5b99cb5859190b59985a5b195960721b604482015290519081900360640190fd5b610bec6110d8565b81517f30644e72e131a029b85045b68181585d97816a916871ca8d3c208c16d87cfd4790158015610c1f57506020830151155b15610c3f5750506040805180820190915260008082526020820152610c6b565b60405180604001604052808460000151815260200182856020015181610c6157fe5b0683038152509150505b919050565b60408051600480825260a0820190925260009160609190816020015b610c946110d8565b815260200190600190039081610c8c57505060408051600480825260a0820190925291925060609190602082015b610cca61112e565b815260200190600190039081610cc25790505090508a82600081518110610ced57fe5b60200260200101819052508882600181518110610d0657fe5b60200260200101819052508682600281518110610d1f57fe5b60200260200101819052508482600381518110610d3857fe5b60200260200101819052508981600081518110610d5157fe5b60200260200101819052508781600181518110610d6a57fe5b60200260200101819052508581600281518110610d8357fe5b60200260200101819052508381600381518110610d9c57fe5b6020026020010181905250610db18282610dc0565b9b9a5050505050505050505050565b60008151835114610e11576040805162461bcd60e51b81526020600482015260166024820152751c185a5c9a5b99cb5b195b99dd1a1ccb59985a5b195960521b604482015290519081900360640190fd5b82516006810260608167ffffffffffffffff81118015610e3057600080fd5b50604051908082528060200260200182016040528015610e5a578160200160208202803683370190505b50905060005b83811015610fdf57868181518110610e7457fe5b602002602001015160000151828260060260000181518110610e9257fe5b602002602001018181525050868181518110610eaa57fe5b602002602001015160200151828260060260010181518110610ec857fe5b602002602001018181525050858181518110610ee057fe5b602090810291909101015151518251839060026006850201908110610f0157fe5b602002602001018181525050858181518110610f1957fe5b60209081029190910101515160016020020151828260060260030181518110610f3e57fe5b602002602001018181525050858181518110610f5657fe5b602002602001015160200151600060028110610f6e57fe5b6020020151828260060260040181518110610f8557fe5b602002602001018181525050858181518110610f9d57fe5b602002602001015160200151600160028110610fb557fe5b6020020151828260060260050181518110610fcc57fe5b6020908102919091010152600101610e60565b50610fe861114e565b6000602082602086026020860160086107d05a03fa9050808015610b01575080611051576040805162461bcd60e51b81526020600482015260156024820152741c185a5c9a5b99cb5bdc18dbd9194b59985a5b1959605a1b604482015290519081900360640190fd5b505115159695505050505050565b60405180606001604052806110726110d8565b815260200161107f61112e565b815260200161108c6110d8565b905290565b6040518060a001604052806110a46110d8565b81526020016110b161112e565b81526020016110be61112e565b81526020016110cb61112e565b8152602001606081525090565b604051806040016040528060008152602001600081525090565b60405180606001604052806003906020820280368337509192915050565b60405180608001604052806004906020820280368337509192915050565b604051806040016040528061114161116c565b815260200161108c61116c565b60405180602001604052806001906020820280368337509192915050565b6040518060400160405280600290602082028036833750919291505056fea26469706673582212208b37fa5ff4c136bff81ac069c2ec8afab95b377df368c2c8397e387d146840bf64736f6c634300060c0033",
  "linkReferences": {},
  "deployedLinkReferences": {}
}