{
  "_format": "hh-sol-artifact-1",
  "contractName": "Verifier2",
  "sourceName": "contracts/Verifier2.sol",
  "abi": [
    {
      "inputs": [
        {
          "internalType": "uint256[2]",
          "name": "a",
          "type": "uint256[2]"
        },
        {
          "internalType": "uint256[2][2]",
          "name": "b",
          "type": "uint256[2][2]"
        },
        {
          "internalType": "uint256[2]",
          "name": "c",
          "type": "uint256[2]"
        },
        {
          "internalType": "uint256[8]",
          "name": "input",
          "type": "uint256[8]"
        }
      ],
      "name": "verifyProof",
      "outputs": [
        {
          "internalType": "bool",
          "name": "r",
          "type": "bool"
        }
      ],
      "stateMutability": "view",
      "type": "function"
    }
  ],
  "bytecode": "0x608060405234801561001057600080fd5b506111be806100206000396000f3fe608060405234801561001057600080fd5b506004361061002b5760003560e01c8063c9219a7a14610030575b600080fd5b61012d600480360361020081101561004757600080fd5b6040805180820182529183019291818301918390600290839083908082843760009201829052506040805180820190915293969594608081019493509150600290835b828210156100c8576040805180820182529080840286019060029083908390808284376000920191909152505050815260019091019060200161008a565b505060408051808201825293969594818101949350915060029083908390808284376000920191909152505060408051610100818101909252929594938181019392509060089083908390808284376000920191909152509194506101419350505050565b604080519115158252519081900360200190f35b600061014b61105d565b6040805180820182528751815260208089015181830152908352815160808101835287515181840190815288518301516060808401919091529082528351808501855289840180515182525184015181850152828401528483019190915282518084018452875181528783015181840152848401528251600880825261012082019094529092909182016101008036833701905050905060005b600881101561021e578481600881106101fa57fe5b602002015182828151811061020b57fe5b60209081029190910101526001016101e5565b506102298183610247565b6102385760019250505061023f565b6000925050505b949350505050565b60007f30644e72e131a029b85045b68181585d2833e84879b9709143e1f593f000000161027261108f565b61027a610423565b90508060800151518551600101146102ce576040805162461bcd60e51b81526020600482015260126024820152711d995c9a599a595c8b5898590b5a5b9c1d5d60721b604482015290519081900360640190fd5b6102d66110d6565b6040518060400160405280600081526020016000815250905060005b86518110156103ac578387828151811061030857fe5b602002602001015110610362576040805162461bcd60e51b815260206004820152601f60248201527f76657269666965722d6774652d736e61726b2d7363616c61722d6669656c6400604482015290519081900360640190fd5b6103a28261039d8560800151846001018151811061037c57fe5b60200260200101518a858151811061039057fe5b6020026020010151610abd565b610b52565b91506001016102f2565b506103cf8183608001516000815181106103c257fe5b6020026020010151610b52565b90506104056103e18660000151610be3565b8660200151846000015185602001518587604001518b604001518960600151610c6f565b610415576001935050505061041d565b600093505050505b92915050565b61042b61108f565b6040805180820182527f2d4d9aa7e302d9df41749d5507949d05dbea33fbb16c643b22f599a2be6df2e281527f14bedd503c37ceb061d8ec60209fe345ce89830a19230301f076caff004d19266020808301919091529083528151608080820184527f0967032fcbf776d1afc985f88877f182d38480a653f2decaa9794cbc3bf3060c8285019081527f0e187847ad4c798374d0d6732bf501847dd68bc0e071241e0213bc7fc13db7ab606080850191909152908352845180860186527f304cfbd1e08a704a99f5e847d93f8c3caafddec46b7a0d379da69a4d112346a781527f1739c1b1a457a8c7313123d24d2f9192f896b7c63eea05a9d57f06547ad0cec8818601528385015285840192909252835180820185527f198e9393920d483a7260bfb731fb5d25f1aa493335a9e71297e485b7aef312c28186019081527f1800deef121f1e76426a00665e5c4479674322d4f75edadd46debd5cd992f6ed828501528152845180860186527f090689d0585ff075ec9e99ad690c3395bc4b313370b38ef355acdadcd122975b81527f12c85ea5db8c6deb4aab71808dcb408fe3d1e7690c43d37b4ce6cc0166fa7daa818601528185015285850152835190810184527f08d75dddc9f4c5ae90ba01c9f1324b0d8c683013974a3876c21e90e1f556f55c8185019081527f2a4e4fec1aec86b3fdf8fabadb1eeb7c15503176469e46e773e48121064403fa828401528152835180850185527f21b7ebf5798fc0e9f6443c3fabc176fa36114d2e964aea3407b41c265be38bab81527f138b4e3e198bfc0d7d23cea22cd88a52ddc7736cfa4eac16ab2bdef3bbc599b3818501528184015290840152815160098082526101408201909352919082015b6106af6110d6565b8152602001906001900390816106a757505060808201908152604080518082019091527f10fbb98839e6ca67b072515c5df28a4d14b7401fb71963e0469a131309d0658b81527f1af581ead335951cd602f2ac172a00514bb0365324970123d6d3f895fa1656bb60208201529051805160009061072857fe5b602002602001018190525060405180604001604052807f098010170b1e5199ec534f93f99eef78b659bbaaa21f681ded831ad7fd567d0681526020017f24adba7d4d846feccb506a86c5e398b3d94a99372c147b58aebab2f93f107491815250816080015160018151811061079957fe5b602002602001018190525060405180604001604052807f2690611efbfe68ab96b4589655ce68412ad16bb2dce3b8692b753acf5cb0124881526020017ee66cc53d46f138390430ee812d17c88b3b1f865ba833bd94bf0a7592807845815250816080015160028151811061080957fe5b602002602001018190525060405180604001604052807f0938310eb534ddfa43d4fbf8133a5b6351ba668bb857892960fb960017ffbc8c81526020017f2f76b4d95cc9b25a3197461477ab9d2a417b51a51fbf74a4d5a9ec17c4ecc54d815250816080015160038151811061087a57fe5b602002602001018190525060405180604001604052807f01cc0ee70e57a15e032e171d869511f28757ac963ebb1dce5d1e5b3d5451e8d081526020017f09d1eb9fc15ab836408fd53382326800198a4de4bc627dce105dd16e665c1b6681525081608001516004815181106108eb57fe5b602002602001018190525060405180604001604052807f2ea12997fdb723b5cd79475e0f00d9b4cde687d73168380ba1fd509e2e6c6be881526020017f030a49daef5c7dd93e81c5cdee776f32e5c3b9c43c958660ea994355ff73c0e1815250816080015160058151811061095c57fe5b602002602001018190525060405180604001604052807f0d4bea08ac5281470b3fb8858087ae878d8f870950b27635a387e433525c3fce81526020017f0ea629cca8e70882a268922d22db94143acfd49abb522fa1822907c87de651a381525081608001516006815181106109cd57fe5b602002602001018190525060405180604001604052807f1d1abfeea6e75eeb6eae29360714ab961fb58c80c5b88fe79e6a25f815bbb35881526020017f2c85d45401d7cbfef2e46a1bbffc71bcda624ee7b5b36727634d1b4438dd887d8152508160800151600781518110610a3e57fe5b602002602001018190525060405180604001604052807f0dcfbe0929036456e745c33a12a40ad77090a2f931500f2d2657778ac2f2fd8381526020017f17c6c8645788b0a7c7d7cdf4ad84394abcdf74fdef834d55f8ba5a9e5f78ed578152508160800151600881518110610aaf57fe5b602002602001018190525090565b610ac56110d6565b610acd6110f0565b835181526020808501519082015260408101839052600060608360808460076107d05a03fa9050808015610b0057610b02565bfe5b5080610b4a576040805162461bcd60e51b81526020600482015260126024820152711c185a5c9a5b99cb5b5d5b0b59985a5b195960721b604482015290519081900360640190fd5b505092915050565b610b5a6110d6565b610b6261110e565b8351815260208085015181830152835160408301528301516060808301919091526000908360c08460066107d05a03fa9050808015610b00575080610b4a576040805162461bcd60e51b81526020600482015260126024820152711c185a5c9a5b99cb5859190b59985a5b195960721b604482015290519081900360640190fd5b610beb6110d6565b81517f30644e72e131a029b85045b68181585d97816a916871ca8d3c208c16d87cfd4790158015610c1e57506020830151155b15610c3e5750506040805180820190915260008082526020820152610c6a565b60405180604001604052808460000151815260200182856020015181610c6057fe5b0683038152509150505b919050565b60408051600480825260a0820190925260009160609190816020015b610c936110d6565b815260200190600190039081610c8b57505060408051600480825260a0820190925291925060609190602082015b610cc961112c565b815260200190600190039081610cc15790505090508a82600081518110610cec57fe5b60200260200101819052508882600181518110610d0557fe5b60200260200101819052508682600281518110610d1e57fe5b60200260200101819052508482600381518110610d3757fe5b60200260200101819052508981600081518110610d5057fe5b60200260200101819052508781600181518110610d6957fe5b60200260200101819052508581600281518110610d8257fe5b60200260200101819052508381600381518110610d9b57fe5b6020026020010181905250610db08282610dbf565b9b9a5050505050505050505050565b60008151835114610e10576040805162461bcd60e51b81526020600482015260166024820152751c185a5c9a5b99cb5b195b99dd1a1ccb59985a5b195960521b604482015290519081900360640190fd5b8251600681026060816001600160401b0381118015610e2e57600080fd5b50604051908082528060200260200182016040528015610e58578160200160208202803683370190505b50905060005b83811015610fdd57868181518110610e7257fe5b602002602001015160000151828260060260000181518110610e9057fe5b602002602001018181525050868181518110610ea857fe5b602002602001015160200151828260060260010181518110610ec657fe5b602002602001018181525050858181518110610ede57fe5b602090810291909101015151518251839060026006850201908110610eff57fe5b602002602001018181525050858181518110610f1757fe5b60209081029190910101515160016020020151828260060260030181518110610f3c57fe5b602002602001018181525050858181518110610f5457fe5b602002602001015160200151600060028110610f6c57fe5b6020020151828260060260040181518110610f8357fe5b602002602001018181525050858181518110610f9b57fe5b602002602001015160200151600160028110610fb357fe5b6020020151828260060260050181518110610fca57fe5b6020908102919091010152600101610e5e565b50610fe661114c565b6000602082602086026020860160086107d05a03fa9050808015610b0057508061104f576040805162461bcd60e51b81526020600482015260156024820152741c185a5c9a5b99cb5bdc18dbd9194b59985a5b1959605a1b604482015290519081900360640190fd5b505115159695505050505050565b60405180606001604052806110706110d6565b815260200161107d61112c565b815260200161108a6110d6565b905290565b6040518060a001604052806110a26110d6565b81526020016110af61112c565b81526020016110bc61112c565b81526020016110c961112c565b8152602001606081525090565b604051806040016040528060008152602001600081525090565b60405180606001604052806003906020820280368337509192915050565b60405180608001604052806004906020820280368337509192915050565b604051806040016040528061113f61116a565b815260200161108a61116a565b60405180602001604052806001906020820280368337509192915050565b6040518060400160405280600290602082028036833750919291505056fea264697066735822122020f3fab322582fc9f4302b9e5dbed9f86eb7460f9788aee7fcbcaff8dd5b7fd164736f6c634300060c0033",
  "linkReferences": {},
  "deployedLinkReferences": {}
}