{
  "_format": "hh-sol-artifact-1",
  "contractName": "MerkleTreeWithHistory",
  "sourceName": "contracts/FlatCharon.sol",
  "abi": [
    {
      "inputs": [
        {
          "internalType": "uint32",
          "name": "_levels",
          "type": "uint32"
        },
        {
          "internalType": "address",
          "name": "_hasher",
          "type": "address"
        }
      ],
      "stateMutability": "nonpayable",
      "type": "constructor"
    },
    {
      "inputs": [],
      "name": "FIELD_SIZE",
      "outputs": [
        {
          "internalType": "uint256",
          "name": "",
          "type": "uint256"
        }
      ],
      "stateMutability": "view",
      "type": "function"
    },
    {
      "inputs": [],
      "name": "ROOT_HISTORY_SIZE",
      "outputs": [
        {
          "internalType": "uint32",
          "name": "",
          "type": "uint32"
        }
      ],
      "stateMutability": "view",
      "type": "function"
    },
    {
      "inputs": [],
      "name": "ZERO_VALUE",
      "outputs": [
        {
          "internalType": "uint256",
          "name": "",
          "type": "uint256"
        }
      ],
      "stateMutability": "view",
      "type": "function"
    },
    {
      "inputs": [],
      "name": "getLastRoot",
      "outputs": [
        {
          "internalType": "bytes32",
          "name": "",
          "type": "bytes32"
        }
      ],
      "stateMutability": "view",
      "type": "function"
    },
    {
      "inputs": [
        {
          "internalType": "uint256",
          "name": "_i",
          "type": "uint256"
        }
      ],
      "name": "getZeros",
      "outputs": [
        {
          "internalType": "bytes32",
          "name": "",
          "type": "bytes32"
        }
      ],
      "stateMutability": "view",
      "type": "function"
    },
    {
      "inputs": [
        {
          "internalType": "bytes32",
          "name": "_left",
          "type": "bytes32"
        },
        {
          "internalType": "bytes32",
          "name": "_right",
          "type": "bytes32"
        }
      ],
      "name": "hashLeftRight",
      "outputs": [
        {
          "internalType": "bytes32",
          "name": "",
          "type": "bytes32"
        }
      ],
      "stateMutability": "view",
      "type": "function"
    },
    {
      "inputs": [],
      "name": "hasher",
      "outputs": [
        {
          "internalType": "contract IHasher",
          "name": "",
          "type": "address"
        }
      ],
      "stateMutability": "view",
      "type": "function"
    },
    {
      "inputs": [
        {
          "internalType": "bytes32",
          "name": "_root",
          "type": "bytes32"
        }
      ],
      "name": "isKnownRoot",
      "outputs": [
        {
          "internalType": "bool",
          "name": "",
          "type": "bool"
        }
      ],
      "stateMutability": "view",
      "type": "function"
    },
    {
      "inputs": [],
      "name": "levels",
      "outputs": [
        {
          "internalType": "uint32",
          "name": "",
          "type": "uint32"
        }
      ],
      "stateMutability": "view",
      "type": "function"
    }
  ],
  "bytecode": "0x60c0604052600380546001600160401b031916905534801561002057600080fd5b506040516107de3803806107de83398101604081905261003f9161025e565b60008263ffffffff161161005257600080fd5b60208263ffffffff161061006557600080fd5b63ffffffff821660a0526001600160a01b0381166080526000805260026020527f2fe54c60d3acabf3343a35b6eba15db4821b340f76e741e2249685ed4899af6c7fac33ff75c19e70fe83507db0d683fd3465c996598dc972688b7ace676c89077b5560015b60208163ffffffff16116101cc57816001600160a01b031663299e566060405180604001604052806002600060018761010491906102c3565b63ffffffff1681526020019081526020016000205481526020016002600060018761012f91906102c3565b63ffffffff168152602001908152602001600020548152506040518263ffffffff1660e01b815260040161016391906102e7565b602060405180830381865afa158015610180573d6000803e3d6000fd5b505050506040513d601f19601f820116820180604052508101906101a49190610318565b63ffffffff8216600090815260026020526040902055806101c481610331565b9150506100cb565b5060005b8263ffffffff168163ffffffff1610156102175763ffffffff811660009081526002602090815260408083205491839052909120558061020f81610331565b9150506101d0565b505063ffffffff166000908152600260209081526040822054918052600190527fa6eef7e35abe7026729641147f7915573c7e97b47efa546f5f6e3230263bcb4955610354565b6000806040838503121561027157600080fd5b825163ffffffff8116811461028557600080fd5b60208401519092506001600160a01b03811681146102a257600080fd5b809150509250929050565b634e487b7160e01b600052601160045260246000fd5b63ffffffff8281168282160390808211156102e0576102e06102ad565b5092915050565b60408101818360005b600281101561030f5781518352602092830192909101906001016102f0565b50505092915050565b60006020828403121561032a57600080fd5b5051919050565b600063ffffffff80831681810361034a5761034a6102ad565b6001019392505050565b60805160a05161045f61037f600039600060c80152600081816101860152610217015261045f6000f3fe608060405234801561001057600080fd5b50600436106100835760003560e01c806338bf282e14610088578063414a37ba146100ae5780634ecf518b146100c357806367fb329b146100ff5780636d9833e314610112578063ba70f75714610135578063cd87a3b414610152578063ec7329591461015a578063ed33639f14610181575b600080fd5b61009b610096366004610356565b6101c0565b6040519081526020015b60405180910390f35b61009b60008051602061040a83398151915281565b6100ea7f000000000000000000000000000000000000000000000000000000000000000081565b60405163ffffffff90911681526020016100a5565b61009b61010d366004610378565b61029d565b610125610120366004610378565b6102ba565b60405190151581526020016100a5565b60035463ffffffff1660009081526001602052604090205461009b565b6100ea606481565b61009b7f2fe54c60d3acabf3343a35b6eba15db4821b340f76e741e2249685ed4899af6c81565b6101a87f000000000000000000000000000000000000000000000000000000000000000081565b6040516001600160a01b0390911681526020016100a5565b600060008051602061040a83398151915283106101dc57600080fd5b60008051602061040a83398151915282106101f657600080fd5b6101fe610338565b8381526020810183905260405163014cf2b360e51b81527f00000000000000000000000000000000000000000000000000000000000000006001600160a01b03169063299e566090610254908490600401610391565b602060405180830381865afa158015610271573d6000803e3d6000fd5b505050506040513d601f19601f8201168201806040525081019061029591906103c2565b949350505050565b600060208211610083575060009081526002602052604090205490565b60008181036102cb57506000919050565b60035463ffffffff16805b63ffffffff811660009081526001602052604090205484036102fc575060019392505050565b8063ffffffff1660000361030e575060645b80610318816103db565b9150508163ffffffff168163ffffffff16036102d6575060009392505050565b60405180604001604052806002906020820280368337509192915050565b6000806040838503121561036957600080fd5b50508035926020909101359150565b60006020828403121561038a57600080fd5b5035919050565b60408101818360005b60028110156103b957815183526020928301929091019060010161039a565b50505092915050565b6000602082840312156103d457600080fd5b5051919050565b600063ffffffff8216806103ff57634e487b7160e01b600052601160045260246000fd5b600019019291505056fe30644e72e131a029b85045b68181585d2833e84879b9709143e1f593f0000001a2646970667358221220e14394c4e69837b1430a76f6b9fcc2f226efd2ff1a660f2aa1cb358decfef57a64736f6c63430008110033",
  "linkReferences": {},
  "deployedLinkReferences": {}
}