{
  "_format": "hh-sol-artifact-1",
  "contractName": "Oracle",
  "sourceName": "feeContract/contracts/helpers/Oracle.sol",
  "abi": [
    {
      "inputs": [
        {
          "internalType": "address payable",
          "name": "_tellor",
          "type": "address"
        }
      ],
      "stateMutability": "nonpayable",
      "type": "constructor"
    },
    {
      "inputs": [
        {
          "internalType": "bytes32",
          "name": "_queryId",
          "type": "bytes32"
        },
        {
          "internalType": "uint256",
          "name": "_timestamp",
          "type": "uint256"
        }
      ],
      "name": "getDataAfter",
      "outputs": [
        {
          "internalType": "bytes",
          "name": "_value",
          "type": "bytes"
        },
        {
          "internalType": "uint256",
          "name": "_timestampRetrieved",
          "type": "uint256"
        }
      ],
      "stateMutability": "view",
      "type": "function"
    },
    {
      "inputs": [
        {
          "internalType": "bytes32",
          "name": "_queryId",
          "type": "bytes32"
        },
        {
          "internalType": "uint256",
          "name": "_timestamp",
          "type": "uint256"
        }
      ],
      "name": "getDataBefore",
      "outputs": [
        {
          "internalType": "bytes",
          "name": "_value",
          "type": "bytes"
        },
        {
          "internalType": "uint256",
          "name": "_timestampRetrieved",
          "type": "uint256"
        }
      ],
      "stateMutability": "view",
      "type": "function"
    },
    {
      "inputs": [
        {
          "internalType": "bytes32",
          "name": "_queryId",
          "type": "bytes32"
        },
        {
          "internalType": "uint256",
          "name": "_timestamp",
          "type": "uint256"
        }
      ],
      "name": "getIndexForDataAfter",
      "outputs": [
        {
          "internalType": "bool",
          "name": "_found",
          "type": "bool"
        },
        {
          "internalType": "uint256",
          "name": "_index",
          "type": "uint256"
        }
      ],
      "stateMutability": "view",
      "type": "function"
    },
    {
      "inputs": [
        {
          "internalType": "bytes32",
          "name": "_queryId",
          "type": "bytes32"
        },
        {
          "internalType": "uint256",
          "name": "_timestamp",
          "type": "uint256"
        }
      ],
      "name": "getIndexForDataBefore",
      "outputs": [
        {
          "internalType": "bool",
          "name": "_found",
          "type": "bool"
        },
        {
          "internalType": "uint256",
          "name": "_index",
          "type": "uint256"
        }
      ],
      "stateMutability": "view",
      "type": "function"
    },
    {
      "inputs": [
        {
          "internalType": "bytes32",
          "name": "_queryId",
          "type": "bytes32"
        },
        {
          "internalType": "uint256",
          "name": "_timestamp",
          "type": "uint256"
        },
        {
          "internalType": "uint256",
          "name": "_maxAge",
          "type": "uint256"
        },
        {
          "internalType": "uint256",
          "name": "_maxCount",
          "type": "uint256"
        }
      ],
      "name": "getMultipleValuesBefore",
      "outputs": [
        {
          "internalType": "bytes[]",
          "name": "_values",
          "type": "bytes[]"
        },
        {
          "internalType": "uint256[]",
          "name": "_timestamps",
          "type": "uint256[]"
        }
      ],
      "stateMutability": "view",
      "type": "function"
    },
    {
      "inputs": [
        {
          "internalType": "bytes32",
          "name": "_queryId",
          "type": "bytes32"
        }
      ],
      "name": "getNewValueCountbyQueryId",
      "outputs": [
        {
          "internalType": "uint256",
          "name": "",
          "type": "uint256"
        }
      ],
      "stateMutability": "view",
      "type": "function"
    },
    {
      "inputs": [
        {
          "internalType": "bytes32",
          "name": "_queryId",
          "type": "bytes32"
        },
        {
          "internalType": "uint256",
          "name": "_timestamp",
          "type": "uint256"
        }
      ],
      "name": "getReporterByTimestamp",
      "outputs": [
        {
          "internalType": "address",
          "name": "",
          "type": "address"
        }
      ],
      "stateMutability": "view",
      "type": "function"
    },
    {
      "inputs": [
        {
          "internalType": "uint256",
          "name": "_timestamp",
          "type": "uint256"
        },
        {
          "internalType": "uint256",
          "name": "_chainID",
          "type": "uint256"
        },
        {
          "internalType": "address",
          "name": "_address",
          "type": "address"
        }
      ],
      "name": "getRootHashAndSupply",
      "outputs": [
        {
          "internalType": "bytes",
          "name": "_value",
          "type": "bytes"
        }
      ],
      "stateMutability": "view",
      "type": "function"
    },
    {
      "inputs": [
        {
          "internalType": "bytes32",
          "name": "_queryId",
          "type": "bytes32"
        },
        {
          "internalType": "uint256",
          "name": "_index",
          "type": "uint256"
        }
      ],
      "name": "getTimestampbyQueryIdandIndex",
      "outputs": [
        {
          "internalType": "uint256",
          "name": "",
          "type": "uint256"
        }
      ],
      "stateMutability": "view",
      "type": "function"
    },
    {
      "inputs": [],
      "name": "idMappingContract",
      "outputs": [
        {
          "internalType": "contract IMappingContract",
          "name": "",
          "type": "address"
        }
      ],
      "stateMutability": "view",
      "type": "function"
    },
    {
      "inputs": [
        {
          "internalType": "bytes32",
          "name": "_queryId",
          "type": "bytes32"
        },
        {
          "internalType": "uint256",
          "name": "_timestamp",
          "type": "uint256"
        }
      ],
      "name": "isInDispute",
      "outputs": [
        {
          "internalType": "bool",
          "name": "",
          "type": "bool"
        }
      ],
      "stateMutability": "view",
      "type": "function"
    },
    {
      "inputs": [
        {
          "internalType": "bytes32",
          "name": "_queryId",
          "type": "bytes32"
        },
        {
          "internalType": "uint256",
          "name": "_timestamp",
          "type": "uint256"
        }
      ],
      "name": "retrieveData",
      "outputs": [
        {
          "internalType": "bytes",
          "name": "",
          "type": "bytes"
        }
      ],
      "stateMutability": "view",
      "type": "function"
    },
    {
      "inputs": [
        {
          "internalType": "address",
          "name": "_addy",
          "type": "address"
        }
      ],
      "name": "setIdMappingContract",
      "outputs": [],
      "stateMutability": "nonpayable",
      "type": "function"
    },
    {
      "inputs": [],
      "name": "tellor",
      "outputs": [
        {
          "internalType": "contract ITellor",
          "name": "",
          "type": "address"
        }
      ],
      "stateMutability": "view",
      "type": "function"
    },
    {
      "inputs": [
        {
          "internalType": "bytes32",
          "name": "_id",
          "type": "bytes32"
        }
      ],
      "name": "valueFor",
      "outputs": [
        {
          "internalType": "int256",
          "name": "_value",
          "type": "int256"
        },
        {
          "internalType": "uint256",
          "name": "_timestamp",
          "type": "uint256"
        },
        {
          "internalType": "uint256",
          "name": "_statusCode",
          "type": "uint256"
        }
      ],
      "stateMutability": "view",
      "type": "function"
    }
  ],
  "bytecode": "0x608060405234801561001057600080fd5b506040516112ac3803806112ac83398101604081905261002f91610054565b600080546001600160a01b0319166001600160a01b0392909216919091179055610084565b60006020828403121561006657600080fd5b81516001600160a01b038116811461007d57600080fd5b9392505050565b611219806100936000396000f3fe608060405234801561001057600080fd5b50600436106100f55760003560e01c8063a792765f11610097578063e07c548611610066578063e07c54861461023a578063f66f49c31461024d578063f78eea8314610260578063fcd4a5461461028e57600080fd5b8063a792765f146101e1578063b6f6869e146101f4578063c5958af914610214578063ce5e11bf1461022757600080fd5b80632af8aae0116100d35780632af8aae01461016957806344e87f911461017c57806364ee3c6d1461019f57806377b03e0d146101c057600080fd5b8063193b505b146100fa5780631959ad5b1461010f578063294490851461013f575b600080fd5b61010d610108366004610d3f565b6102af565b005b600054610122906001600160a01b031681565b6040516001600160a01b0390911681526020015b60405180910390f35b61015261014d366004610d63565b6102e7565b604080519215158352602083019190915201610136565b600154610122906001600160a01b031681565b61018f61018a366004610d63565b610367565b6040519015158152602001610136565b6101b26101ad366004610d63565b6103e5565b604051610136929190610dd5565b6101d36101ce366004610df7565b61043e565b604051908152602001610136565b6101b26101ef366004610d63565b6104ac565b610207610202366004610e10565b610533565b6040516101369190610e49565b610207610222366004610d63565b6105fc565b6101d3610235366004610d63565b610675565b610122610248366004610d63565b6106ea565b61015261025b366004610d63565b61075f565b61027361026e366004610df7565b61091c565b60408051938452602084019290925290820152606001610136565b6102a161029c366004610e5c565b6109e1565b604051610136929190610e8e565b6001546001600160a01b0316156102c557600080fd5b600180546001600160a01b0319166001600160a01b0392909216919091179055565b60008054604051632944908560e01b8152600481018590526024810184905282916001600160a01b0316906329449085906044016040805180830381865afa158015610337573d6000803e3d6000fd5b505050506040513d601f19601f8201168201806040525081019061035b9190610f3e565b915091505b9250929050565b600080546040516344e87f9160e01b815260048101859052602481018490526001600160a01b03909116906344e87f9190604401602060405180830381865afa1580156103b8573d6000803e3d6000fd5b505050506040513d601f19601f820116820180604052508101906103dc9190610f6a565b90505b92915050565b606060008060006103f6868661075f565b915091508161041d5760006040518060200160405280600081525090935093505050610360565b6104278682610675565b925061043386846105fc565b935050509250929050565b600080546040516377b03e0d60e01b8152600481018490526001600160a01b03909116906377b03e0d90602401602060405180830381865afa158015610488573d6000803e3d6000fd5b505050506040513d601f19601f820116820180604052508101906103df9190610f85565b6000805460405163a792765f60e01b81526004810185905260248101849052606092916001600160a01b03169063a792765f90604401600060405180830381865afa1580156104ff573d6000803e3d6000fd5b505050506040513d6000823e601f3d908101601f19168201604052610527919081019061103c565b90969095509350505050565b60408051602081018490526001600160a01b0383168183015260608082018690528251808303820181526080830190935291600091610575919060a001611093565b60405160208183030381529060405280519060200120905061059f8161a8c0426101ef91906110e4565b95509150846105f45760405162461bcd60e51b815260206004820152601960248201527f74696d657374616d70206d7573742062652070726573656e7400000000000000604482015260640160405180910390fd5b509392505050565b60005460405163c5958af960e01b815260048101849052602481018390526060916001600160a01b03169063c5958af990604401600060405180830381865afa15801561064d573d6000803e3d6000fd5b505050506040513d6000823e601f3d908101601f191682016040526103dc91908101906110f7565b6000805460405163ce5e11bf60e01b815260048101859052602481018490526001600160a01b039091169063ce5e11bf90604401602060405180830381865afa1580156106c6573d6000803e3d6000fd5b505050506040513d601f19601f820116820180604052508101906103dc9190610f85565b6000805460405163703e2a4360e11b815260048101859052602481018490526001600160a01b039091169063e07c548690604401602060405180830381865afa15801561073b573d6000803e3d6000fd5b505050506040513d601f19601f820116820180604052508101906103dc9190611134565b600080600061076d8561043e565b905080600003610784576000809250925050610360565b8061078e81611151565b91506001905060008083816107a38a83610675565b90508881116107be5760008097509750505050505050610360565b6107c88a84610675565b9050888111156107d757600094505b84156108875760026107e98484611168565b6107f3919061117b565b93506107ff8a85610675565b90508881111561084057600061081a8b6102356001886110e4565b905089811161082c576000955061083a565b6108376001866110e4565b92505b506107d7565b60006108518b610235876001611168565b9050898111156108745760009550846108698161119d565b95505080915061083a565b61087f856001611168565b9350506107d7565b6108918a82610367565b6108a75760018497509750505050505050610360565b6108b18a82610367565b80156108bc57508584105b156108df57836108cb8161119d565b9450506108d88a85610675565b90506108a7565b85841480156108f357506108f38a82610367565b1561090a5760008097509750505050505050610360565b60018497509750505050505050610360565b6001546040516387a475fd60e01b8152600481018390526000918291829182916001600160a01b03909116906387a475fd90602401602060405180830381865afa15801561096e573d6000803e3d6000fd5b505050506040513d601f19601f820116820180604052508101906109929190610f85565b905060606109a5826101ef426001611168565b9450905060008490036109c55760008061019494509450945050506109da565b60006109d082610cd0565b955060c893505050505b9193909250565b6060806000806109f58861025b888a6110e4565b9150915081610a46576040805160008082526020820190925290610a29565b6060815260200190600190039081610a145790505b506040805160008152602081019091529094509250610cc7915050565b6000610a5289896102e7565b909350905082610aa5576040805160008082526020820190925290610a87565b6060815260200190600190039081610a725790505b506040805160008152602081019091529095509350610cc792505050565b60008060008867ffffffffffffffff811115610ac357610ac3610f9e565b604051908082528060200260200182016040528015610aec578160200160208202803683370190505b5090505b8883108015610b1357508482610b07866001611168565b610b1191906110e4565b115b15610b77576000610b288d61023585886110e4565b9050610b348d82610367565b610b645780828581518110610b4b57610b4b6111b6565b602090810291909101015283610b608161119d565b9450505b82610b6e8161119d565b93505050610af0565b60008367ffffffffffffffff811115610b9257610b92610f9e565b604051908082528060200260200182016040528015610bc557816020015b6060815260200190600190039081610bb05790505b50905060008467ffffffffffffffff811115610be357610be3610f9e565b604051908082528060200260200182016040528015610c0c578160200160208202803683370190505b50905060005b85811015610cba578381610c276001896110e4565b610c3191906110e4565b81518110610c4157610c416111b6565b6020026020010151828281518110610c5b57610c5b6111b6565b602002602001018181525050610c8a8f838381518110610c7d57610c7d6111b6565b60200260200101516105fc565b838281518110610c9c57610c9c6111b6565b60200260200101819052508080610cb29061119d565b915050610c12565b5090985096505050505050505b94509492505050565b6000805b8251811015610d2157828181518110610cef57610cef6111b6565b016020015160f81c610d03836101006111cc565b610d0d9190611168565b915080610d198161119d565b915050610cd4565b50919050565b6001600160a01b0381168114610d3c57600080fd5b50565b600060208284031215610d5157600080fd5b8135610d5c81610d27565b9392505050565b60008060408385031215610d7657600080fd5b50508035926020909101359150565b60005b83811015610da0578181015183820152602001610d88565b50506000910152565b60008151808452610dc1816020860160208601610d85565b601f01601f19169290920160200192915050565b604081526000610de86040830185610da9565b90508260208301529392505050565b600060208284031215610e0957600080fd5b5035919050565b600080600060608486031215610e2557600080fd5b83359250602084013591506040840135610e3e81610d27565b809150509250925092565b6020815260006103dc6020830184610da9565b60008060008060808587031215610e7257600080fd5b5050823594602084013594506040840135936060013592509050565b6000604082016040835280855180835260608501915060608160051b8601019250602080880160005b83811015610ee557605f19888703018552610ed3868351610da9565b95509382019390820190600101610eb7565b50508584038187015286518085528782019482019350915060005b82811015610f1c57845184529381019392810192600101610f00565b5091979650505050505050565b80518015158114610f3957600080fd5b919050565b60008060408385031215610f5157600080fd5b610f5a83610f29565b9150602083015190509250929050565b600060208284031215610f7c57600080fd5b6103dc82610f29565b600060208284031215610f9757600080fd5b5051919050565b634e487b7160e01b600052604160045260246000fd5b600082601f830112610fc557600080fd5b815167ffffffffffffffff80821115610fe057610fe0610f9e565b604051601f8301601f19908116603f0116810190828211818310171561100857611008610f9e565b8160405283815286602085880101111561102157600080fd5b611032846020830160208901610d85565b9695505050505050565b60008060006060848603121561105157600080fd5b61105a84610f29565b9250602084015167ffffffffffffffff81111561107657600080fd5b61108286828701610fb4565b925050604084015190509250925092565b60408152601160408201527043726f7373436861696e42616c616e636560781b60608201526080602082015260006103dc6080830184610da9565b634e487b7160e01b600052601160045260246000fd5b818103818111156103df576103df6110ce565b60006020828403121561110957600080fd5b815167ffffffffffffffff81111561112057600080fd5b61112c84828501610fb4565b949350505050565b60006020828403121561114657600080fd5b8151610d5c81610d27565b600081611160576111606110ce565b506000190190565b808201808211156103df576103df6110ce565b60008261119857634e487b7160e01b600052601260045260246000fd5b500490565b6000600182016111af576111af6110ce565b5060010190565b634e487b7160e01b600052603260045260246000fd5b80820281158282048414176103df576103df6110ce56fea2646970667358221220620dc55acf475a4a0aa87b58164e634cb7ffa114ea46cc960035d1d8a672f6d464736f6c63430008110033",
  "linkReferences": {},
  "deployedLinkReferences": {}
}