{
  "_format": "hh-sol-artifact-1",
  "contractName": "Oracle",
  "sourceName": "feeContract/contracts/helpers/Oracle.sol",
  "abi": [
    {
      "inputs": [
        {
          "internalType": "address payable",
          "name": "_tellor",
          "type": "address"
        }
      ],
      "stateMutability": "nonpayable",
      "type": "constructor"
    },
    {
      "inputs": [
        {
          "internalType": "bytes32",
          "name": "_queryId",
          "type": "bytes32"
        },
        {
          "internalType": "uint256",
          "name": "_timestamp",
          "type": "uint256"
        }
      ],
      "name": "getDataAfter",
      "outputs": [
        {
          "internalType": "bytes",
          "name": "_value",
          "type": "bytes"
        },
        {
          "internalType": "uint256",
          "name": "_timestampRetrieved",
          "type": "uint256"
        }
      ],
      "stateMutability": "view",
      "type": "function"
    },
    {
      "inputs": [
        {
          "internalType": "bytes32",
          "name": "_queryId",
          "type": "bytes32"
        },
        {
          "internalType": "uint256",
          "name": "_timestamp",
          "type": "uint256"
        }
      ],
      "name": "getDataBefore",
      "outputs": [
        {
          "internalType": "bytes",
          "name": "_value",
          "type": "bytes"
        },
        {
          "internalType": "uint256",
          "name": "_timestampRetrieved",
          "type": "uint256"
        }
      ],
      "stateMutability": "view",
      "type": "function"
    },
    {
      "inputs": [
        {
          "internalType": "bytes32",
          "name": "_queryId",
          "type": "bytes32"
        },
        {
          "internalType": "uint256",
          "name": "_timestamp",
          "type": "uint256"
        }
      ],
      "name": "getIndexForDataAfter",
      "outputs": [
        {
          "internalType": "bool",
          "name": "_found",
          "type": "bool"
        },
        {
          "internalType": "uint256",
          "name": "_index",
          "type": "uint256"
        }
      ],
      "stateMutability": "view",
      "type": "function"
    },
    {
      "inputs": [
        {
          "internalType": "bytes32",
          "name": "_queryId",
          "type": "bytes32"
        },
        {
          "internalType": "uint256",
          "name": "_timestamp",
          "type": "uint256"
        }
      ],
      "name": "getIndexForDataBefore",
      "outputs": [
        {
          "internalType": "bool",
          "name": "_found",
          "type": "bool"
        },
        {
          "internalType": "uint256",
          "name": "_index",
          "type": "uint256"
        }
      ],
      "stateMutability": "view",
      "type": "function"
    },
    {
      "inputs": [
        {
          "internalType": "bytes32",
          "name": "_queryId",
          "type": "bytes32"
        },
        {
          "internalType": "uint256",
          "name": "_timestamp",
          "type": "uint256"
        },
        {
          "internalType": "uint256",
          "name": "_maxAge",
          "type": "uint256"
        },
        {
          "internalType": "uint256",
          "name": "_maxCount",
          "type": "uint256"
        }
      ],
      "name": "getMultipleValuesBefore",
      "outputs": [
        {
          "internalType": "bytes[]",
          "name": "_values",
          "type": "bytes[]"
        },
        {
          "internalType": "uint256[]",
          "name": "_timestamps",
          "type": "uint256[]"
        }
      ],
      "stateMutability": "view",
      "type": "function"
    },
    {
      "inputs": [
        {
          "internalType": "bytes32",
          "name": "_queryId",
          "type": "bytes32"
        }
      ],
      "name": "getNewValueCountbyQueryId",
      "outputs": [
        {
          "internalType": "uint256",
          "name": "",
          "type": "uint256"
        }
      ],
      "stateMutability": "view",
      "type": "function"
    },
    {
      "inputs": [
        {
          "internalType": "bytes32",
          "name": "_queryId",
          "type": "bytes32"
        },
        {
          "internalType": "uint256",
          "name": "_timestamp",
          "type": "uint256"
        }
      ],
      "name": "getReporterByTimestamp",
      "outputs": [
        {
          "internalType": "address",
          "name": "",
          "type": "address"
        }
      ],
      "stateMutability": "view",
      "type": "function"
    },
    {
      "inputs": [
        {
          "internalType": "uint256",
          "name": "_timestamp",
          "type": "uint256"
        },
        {
          "internalType": "uint256",
          "name": "_chainID",
          "type": "uint256"
        },
        {
          "internalType": "address",
          "name": "_address",
          "type": "address"
        }
      ],
      "name": "getRootHashAndSupply",
      "outputs": [
        {
          "internalType": "bytes",
          "name": "_value",
          "type": "bytes"
        }
      ],
      "stateMutability": "view",
      "type": "function"
    },
    {
      "inputs": [
        {
          "internalType": "bytes32",
          "name": "_queryId",
          "type": "bytes32"
        },
        {
          "internalType": "uint256",
          "name": "_index",
          "type": "uint256"
        }
      ],
      "name": "getTimestampbyQueryIdandIndex",
      "outputs": [
        {
          "internalType": "uint256",
          "name": "",
          "type": "uint256"
        }
      ],
      "stateMutability": "view",
      "type": "function"
    },
    {
      "inputs": [],
      "name": "idMappingContract",
      "outputs": [
        {
          "internalType": "contract IMappingContract",
          "name": "",
          "type": "address"
        }
      ],
      "stateMutability": "view",
      "type": "function"
    },
    {
      "inputs": [
        {
          "internalType": "bytes32",
          "name": "_queryId",
          "type": "bytes32"
        },
        {
          "internalType": "uint256",
          "name": "_timestamp",
          "type": "uint256"
        }
      ],
      "name": "isInDispute",
      "outputs": [
        {
          "internalType": "bool",
          "name": "",
          "type": "bool"
        }
      ],
      "stateMutability": "view",
      "type": "function"
    },
    {
      "inputs": [
        {
          "internalType": "bytes32",
          "name": "_queryId",
          "type": "bytes32"
        },
        {
          "internalType": "uint256",
          "name": "_timestamp",
          "type": "uint256"
        }
      ],
      "name": "retrieveData",
      "outputs": [
        {
          "internalType": "bytes",
          "name": "",
          "type": "bytes"
        }
      ],
      "stateMutability": "view",
      "type": "function"
    },
    {
      "inputs": [
        {
          "internalType": "address",
          "name": "_addy",
          "type": "address"
        }
      ],
      "name": "setIdMappingContract",
      "outputs": [],
      "stateMutability": "nonpayable",
      "type": "function"
    },
    {
      "inputs": [],
      "name": "tellor",
      "outputs": [
        {
          "internalType": "contract ITellor",
          "name": "",
          "type": "address"
        }
      ],
      "stateMutability": "view",
      "type": "function"
    },
    {
      "inputs": [
        {
          "internalType": "bytes32",
          "name": "_id",
          "type": "bytes32"
        }
      ],
      "name": "valueFor",
      "outputs": [
        {
          "internalType": "int256",
          "name": "_value",
          "type": "int256"
        },
        {
          "internalType": "uint256",
          "name": "_timestamp",
          "type": "uint256"
        },
        {
          "internalType": "uint256",
          "name": "_statusCode",
          "type": "uint256"
        }
      ],
      "stateMutability": "view",
      "type": "function"
    }
  ],
  "bytecode": "0x608060405234801561001057600080fd5b5060405161127b38038061127b83398101604081905261002f91610054565b600080546001600160a01b0319166001600160a01b0392909216919091179055610084565b60006020828403121561006657600080fd5b81516001600160a01b038116811461007d57600080fd5b9392505050565b6111e8806100936000396000f3fe608060405234801561001057600080fd5b50600436106100c55760003560e01c8063193b505b146100ca5780631959ad5b146100df578063294490851461010f5780632af8aae01461013957806344e87f911461014c57806364ee3c6d1461016f57806377b03e0d14610190578063a792765f146101b1578063b6f6869e146101c4578063c5958af9146101e4578063ce5e11bf146101f7578063e07c54861461020a578063f66f49c31461021d578063f78eea8314610230578063fcd4a5461461025e575b600080fd5b6100dd6100d8366004610d02565b61027f565b005b6000546100f2906001600160a01b031681565b6040516001600160a01b0390911681526020015b60405180910390f35b61012261011d366004610d26565b6102b7565b604080519215158352602083019190915201610106565b6001546100f2906001600160a01b031681565b61015f61015a366004610d26565b610336565b6040519015158152602001610106565b61018261017d366004610d26565b6103b3565b604051610106929190610d98565b6101a361019e366004610dba565b61040c565b604051908152602001610106565b6101826101bf366004610d26565b61047a565b6101d76101d2366004610dd3565b610500565b6040516101069190610e0c565b6101d76101f2366004610d26565b6105c5565b6101a3610205366004610d26565b61063d565b6100f2610218366004610d26565b6106b1565b61012261022b366004610d26565b610725565b61024361023e366004610dba565b6108e2565b60408051938452602084019290925290820152606001610106565b61027161026c366004610e1f565b6109a7565b604051610106929190610e51565b6001546001600160a01b03161561029557600080fd5b600180546001600160a01b0319166001600160a01b0392909216919091179055565b60008054604051632944908560e01b815282916001600160a01b0316906329449085906102ea9087908790600401610eec565b6040805180830381865afa158015610306573d6000803e3d6000fd5b505050506040513d601f19601f8201168201806040525081019061032a9190610f0f565b915091505b9250929050565b600080546040516344e87f9160e01b81526001600160a01b03909116906344e87f91906103699086908690600401610eec565b602060405180830381865afa158015610386573d6000803e3d6000fd5b505050506040513d601f19601f820116820180604052508101906103aa9190610f3b565b90505b92915050565b606060008060006103c48686610725565b91509150816103eb576000604051806020016040528060008152509093509350505061032f565b6103f5868261063d565b925061040186846105c5565b935050509250929050565b600080546040516377b03e0d60e01b8152600481018490526001600160a01b03909116906377b03e0d90602401602060405180830381865afa158015610456573d6000803e3d6000fd5b505050506040513d601f19601f820116820180604052508101906103ad9190610f56565b6000805460405163a792765f60e01b8152606092916001600160a01b03169063a792765f906104af9087908790600401610eec565b600060405180830381865afa1580156104cc573d6000803e3d6000fd5b505050506040513d6000823e601f3d908101601f191682016040526104f4919081019061100c565b90969095509350505050565b60408051602081018490526001600160a01b0383168183015260608082018690528251808303820181526080830190935291600091610542919060a001611063565b60405160208183030381529060405280519060200120905061056c8161a8c0426101bf91906110b4565b95509150846105bd5760405162461bcd60e51b81526020600482015260196024820152781d1a5b595cdd185b5c081b5d5cdd081899481c1c995cd95b9d603a1b604482015260640160405180910390fd5b509392505050565b60005460405163c5958af960e01b81526060916001600160a01b03169063c5958af9906105f89086908690600401610eec565b600060405180830381865afa158015610615573d6000803e3d6000fd5b505050506040513d6000823e601f3d908101601f191682016040526103aa91908101906110c7565b6000805460405163ce5e11bf60e01b81526001600160a01b039091169063ce5e11bf906106709086908690600401610eec565b602060405180830381865afa15801561068d573d6000803e3d6000fd5b505050506040513d601f19601f820116820180604052508101906103aa9190610f56565b6000805460405163703e2a4360e11b81526001600160a01b039091169063e07c5486906106e49086908690600401610eec565b602060405180830381865afa158015610701573d6000803e3d6000fd5b505050506040513d601f19601f820116820180604052508101906103aa9190611103565b60008060006107338561040c565b90508060000361074a57600080925092505061032f565b8061075481611120565b91506001905060008083816107698a8361063d565b9050888111610784576000809750975050505050505061032f565b61078e8a8461063d565b90508881111561079d57600094505b841561084d5760026107af8484611137565b6107b9919061114a565b93506107c58a8561063d565b9050888111156108065760006107e08b6102056001886110b4565b90508981116107f25760009550610800565b6107fd6001866110b4565b92505b5061079d565b60006108178b610205876001611137565b90508981111561083a57600095508461082f8161116c565b955050809150610800565b610845856001611137565b93505061079d565b6108578a82610336565b61086d576001849750975050505050505061032f565b6108778a82610336565b801561088257508584105b156108a557836108918161116c565b94505061089e8a8561063d565b905061086d565b85841480156108b957506108b98a82610336565b156108d0576000809750975050505050505061032f565b6001849750975050505050505061032f565b6001546040516387a475fd60e01b8152600481018390526000918291829182916001600160a01b03909116906387a475fd90602401602060405180830381865afa158015610934573d6000803e3d6000fd5b505050506040513d601f19601f820116820180604052508101906109589190610f56565b9050606061096b826101bf426001611137565b94509050600084900361098b5760008061019494509450945050506109a0565b600061099682610c93565b955060c893505050505b9193909250565b6060806000806109bb8861022b888a6110b4565b9150915081610a0c5760408051600080825260208201909252906109ef565b60608152602001906001900390816109da5790505b506040805160008152602081019091529094509250610c8a915050565b6000610a1889896102b7565b909350905082610a6b576040805160008082526020820190925290610a4d565b6060815260200190600190039081610a385790505b506040805160008152602081019091529095509350610c8a92505050565b6000806000886001600160401b03811115610a8857610a88610f6f565b604051908082528060200260200182016040528015610ab1578160200160208202803683370190505b5090505b8883108015610ad857508482610acc866001611137565b610ad691906110b4565b115b15610b3c576000610aed8d61020585886110b4565b9050610af98d82610336565b610b295780828581518110610b1057610b10611185565b602090810291909101015283610b258161116c565b9450505b82610b338161116c565b93505050610ab5565b6000836001600160401b03811115610b5657610b56610f6f565b604051908082528060200260200182016040528015610b8957816020015b6060815260200190600190039081610b745790505b5090506000846001600160401b03811115610ba657610ba6610f6f565b604051908082528060200260200182016040528015610bcf578160200160208202803683370190505b50905060005b85811015610c7d578381610bea6001896110b4565b610bf491906110b4565b81518110610c0457610c04611185565b6020026020010151828281518110610c1e57610c1e611185565b602002602001018181525050610c4d8f838381518110610c4057610c40611185565b60200260200101516105c5565b838281518110610c5f57610c5f611185565b60200260200101819052508080610c759061116c565b915050610bd5565b5090985096505050505050505b94509492505050565b6000805b8251811015610ce457828181518110610cb257610cb2611185565b016020015160f81c610cc68361010061119b565b610cd09190611137565b915080610cdc8161116c565b915050610c97565b50919050565b6001600160a01b0381168114610cff57600080fd5b50565b600060208284031215610d1457600080fd5b8135610d1f81610cea565b9392505050565b60008060408385031215610d3957600080fd5b50508035926020909101359150565b60005b83811015610d63578181015183820152602001610d4b565b50506000910152565b60008151808452610d84816020860160208601610d48565b601f01601f19169290920160200192915050565b604081526000610dab6040830185610d6c565b90508260208301529392505050565b600060208284031215610dcc57600080fd5b5035919050565b600080600060608486031215610de857600080fd5b83359250602084013591506040840135610e0181610cea565b809150509250925092565b6020815260006103aa6020830184610d6c565b60008060008060808587031215610e3557600080fd5b5050823594602084013594506040840135936060013592509050565b6000604082016040835280855180835260608501915060608160051b8601019250602080880160005b83811015610ea857605f19888703018552610e96868351610d6c565b95509382019390820190600101610e7a565b50508584038187015286518085528782019482019350915060005b82811015610edf57845184529381019392810192600101610ec3565b5091979650505050505050565b918252602082015260400190565b80518015158114610f0a57600080fd5b919050565b60008060408385031215610f2257600080fd5b610f2b83610efa565b9150602083015190509250929050565b600060208284031215610f4d57600080fd5b6103aa82610efa565b600060208284031215610f6857600080fd5b5051919050565b634e487b7160e01b600052604160045260246000fd5b600082601f830112610f9657600080fd5b81516001600160401b0380821115610fb057610fb0610f6f565b604051601f8301601f19908116603f01168101908282118183101715610fd857610fd8610f6f565b81604052838152866020858801011115610ff157600080fd5b611002846020830160208901610d48565b9695505050505050565b60008060006060848603121561102157600080fd5b61102a84610efa565b60208501519093506001600160401b0381111561104657600080fd5b61105286828701610f85565b925050604084015190509250925092565b60408152601160408201527043726f7373436861696e42616c616e636560781b60608201526080602082015260006103aa6080830184610d6c565b634e487b7160e01b600052601160045260246000fd5b818103818111156103ad576103ad61109e565b6000602082840312156110d957600080fd5b81516001600160401b038111156110ef57600080fd5b6110fb84828501610f85565b949350505050565b60006020828403121561111557600080fd5b8151610d1f81610cea565b60008161112f5761112f61109e565b506000190190565b808201808211156103ad576103ad61109e565b60008261116757634e487b7160e01b600052601260045260246000fd5b500490565b60006001820161117e5761117e61109e565b5060010190565b634e487b7160e01b600052603260045260246000fd5b80820281158282048414176103ad576103ad61109e56fea2646970667358221220ca90765e6261f03d9debe59fcf58c540a42ad45e77bb30f123fda71b66b3080764736f6c63430008110033",
  "linkReferences": {},
  "deployedLinkReferences": {}
}