{
  "_format": "hh-sol-artifact-1",
  "contractName": "Oracle",
  "sourceName": "feeContract/contracts/helpers/Oracle.sol",
  "abi": [
    {
      "inputs": [
        {
          "internalType": "address payable",
          "name": "_tellor",
          "type": "address"
        }
      ],
      "stateMutability": "nonpayable",
      "type": "constructor"
    },
    {
      "inputs": [
        {
          "internalType": "uint256",
          "name": "_chain",
          "type": "uint256"
        },
        {
          "internalType": "address",
          "name": "_partnerContract",
          "type": "address"
        },
        {
          "internalType": "uint256",
          "name": "_depositId",
          "type": "uint256"
        }
      ],
      "name": "getCommitment",
      "outputs": [
        {
          "internalType": "bytes",
          "name": "_value",
          "type": "bytes"
        },
        {
          "internalType": "address",
          "name": "_reporter",
          "type": "address"
        }
      ],
      "stateMutability": "view",
      "type": "function"
    },
    {
      "inputs": [
        {
          "internalType": "bytes32",
          "name": "_queryId",
          "type": "bytes32"
        },
        {
          "internalType": "uint256",
          "name": "_timestamp",
          "type": "uint256"
        }
      ],
      "name": "getDataAfter",
      "outputs": [
        {
          "internalType": "bytes",
          "name": "_value",
          "type": "bytes"
        },
        {
          "internalType": "uint256",
          "name": "_timestampRetrieved",
          "type": "uint256"
        }
      ],
      "stateMutability": "view",
      "type": "function"
    },
    {
      "inputs": [
        {
          "internalType": "bytes32",
          "name": "_queryId",
          "type": "bytes32"
        },
        {
          "internalType": "uint256",
          "name": "_timestamp",
          "type": "uint256"
        }
      ],
      "name": "getDataBefore",
      "outputs": [
        {
          "internalType": "bytes",
          "name": "_value",
          "type": "bytes"
        },
        {
          "internalType": "uint256",
          "name": "_timestampRetrieved",
          "type": "uint256"
        }
      ],
      "stateMutability": "view",
      "type": "function"
    },
    {
      "inputs": [
        {
          "internalType": "bytes32",
          "name": "_queryId",
          "type": "bytes32"
        },
        {
          "internalType": "uint256",
          "name": "_timestamp",
          "type": "uint256"
        }
      ],
      "name": "getIndexForDataAfter",
      "outputs": [
        {
          "internalType": "bool",
          "name": "_found",
          "type": "bool"
        },
        {
          "internalType": "uint256",
          "name": "_index",
          "type": "uint256"
        }
      ],
      "stateMutability": "view",
      "type": "function"
    },
    {
      "inputs": [
        {
          "internalType": "bytes32",
          "name": "_queryId",
          "type": "bytes32"
        },
        {
          "internalType": "uint256",
          "name": "_timestamp",
          "type": "uint256"
        }
      ],
      "name": "getIndexForDataBefore",
      "outputs": [
        {
          "internalType": "bool",
          "name": "_found",
          "type": "bool"
        },
        {
          "internalType": "uint256",
          "name": "_index",
          "type": "uint256"
        }
      ],
      "stateMutability": "view",
      "type": "function"
    },
    {
      "inputs": [
        {
          "internalType": "bytes32",
          "name": "_queryId",
          "type": "bytes32"
        },
        {
          "internalType": "uint256",
          "name": "_timestamp",
          "type": "uint256"
        },
        {
          "internalType": "uint256",
          "name": "_maxAge",
          "type": "uint256"
        },
        {
          "internalType": "uint256",
          "name": "_maxCount",
          "type": "uint256"
        }
      ],
      "name": "getMultipleValuesBefore",
      "outputs": [
        {
          "internalType": "bytes[]",
          "name": "_values",
          "type": "bytes[]"
        },
        {
          "internalType": "uint256[]",
          "name": "_timestamps",
          "type": "uint256[]"
        }
      ],
      "stateMutability": "view",
      "type": "function"
    },
    {
      "inputs": [
        {
          "internalType": "bytes32",
          "name": "_queryId",
          "type": "bytes32"
        }
      ],
      "name": "getNewValueCountbyQueryId",
      "outputs": [
        {
          "internalType": "uint256",
          "name": "",
          "type": "uint256"
        }
      ],
      "stateMutability": "view",
      "type": "function"
    },
    {
      "inputs": [
        {
          "internalType": "bytes32",
          "name": "_queryId",
          "type": "bytes32"
        },
        {
          "internalType": "uint256",
          "name": "_timestamp",
          "type": "uint256"
        }
      ],
      "name": "getReporterByTimestamp",
      "outputs": [
        {
          "internalType": "address",
          "name": "",
          "type": "address"
        }
      ],
      "stateMutability": "view",
      "type": "function"
    },
    {
      "inputs": [
        {
          "internalType": "uint256",
          "name": "_timestamp",
          "type": "uint256"
        },
        {
          "internalType": "uint256",
          "name": "_chainID",
          "type": "uint256"
        },
        {
          "internalType": "address",
          "name": "_address",
          "type": "address"
        }
      ],
      "name": "getRootHashAndSupply",
      "outputs": [
        {
          "internalType": "bytes",
          "name": "_value",
          "type": "bytes"
        }
      ],
      "stateMutability": "view",
      "type": "function"
    },
    {
      "inputs": [
        {
          "internalType": "bytes32",
          "name": "_queryId",
          "type": "bytes32"
        },
        {
          "internalType": "uint256",
          "name": "_index",
          "type": "uint256"
        }
      ],
      "name": "getTimestampbyQueryIdandIndex",
      "outputs": [
        {
          "internalType": "uint256",
          "name": "",
          "type": "uint256"
        }
      ],
      "stateMutability": "view",
      "type": "function"
    },
    {
      "inputs": [],
      "name": "idMappingContract",
      "outputs": [
        {
          "internalType": "contract IMappingContract",
          "name": "",
          "type": "address"
        }
      ],
      "stateMutability": "view",
      "type": "function"
    },
    {
      "inputs": [
        {
          "internalType": "bytes32",
          "name": "_queryId",
          "type": "bytes32"
        },
        {
          "internalType": "uint256",
          "name": "_timestamp",
          "type": "uint256"
        }
      ],
      "name": "isInDispute",
      "outputs": [
        {
          "internalType": "bool",
          "name": "",
          "type": "bool"
        }
      ],
      "stateMutability": "view",
      "type": "function"
    },
    {
      "inputs": [
        {
          "internalType": "bytes32",
          "name": "_queryId",
          "type": "bytes32"
        },
        {
          "internalType": "uint256",
          "name": "_timestamp",
          "type": "uint256"
        }
      ],
      "name": "retrieveData",
      "outputs": [
        {
          "internalType": "bytes",
          "name": "",
          "type": "bytes"
        }
      ],
      "stateMutability": "view",
      "type": "function"
    },
    {
      "inputs": [
        {
          "internalType": "address",
          "name": "_addy",
          "type": "address"
        }
      ],
      "name": "setIdMappingContract",
      "outputs": [],
      "stateMutability": "nonpayable",
      "type": "function"
    },
    {
      "inputs": [],
      "name": "tellor",
      "outputs": [
        {
          "internalType": "contract ITellor",
          "name": "",
          "type": "address"
        }
      ],
      "stateMutability": "view",
      "type": "function"
    },
    {
      "inputs": [
        {
          "internalType": "bytes32",
          "name": "_id",
          "type": "bytes32"
        }
      ],
      "name": "valueFor",
      "outputs": [
        {
          "internalType": "int256",
          "name": "_value",
          "type": "int256"
        },
        {
          "internalType": "uint256",
          "name": "_timestamp",
          "type": "uint256"
        },
        {
          "internalType": "uint256",
          "name": "_statusCode",
          "type": "uint256"
        }
      ],
      "stateMutability": "view",
      "type": "function"
    }
  ],
  "bytecode": "0x608060405234801561001057600080fd5b5060405161145538038061145583398101604081905261002f91610054565b600080546001600160a01b0319166001600160a01b0392909216919091179055610084565b60006020828403121561006657600080fd5b81516001600160a01b038116811461007d57600080fd5b9392505050565b6113c2806100936000396000f3fe608060405234801561001057600080fd5b50600436106100d05760003560e01c8063193b505b146100d55780631959ad5b146100ea578063294490851461011a5780632af8aae01461014457806344e87f911461015757806364ee3c6d1461017a5780637303f2a71461019b57806377b03e0d146101bc578063a792765f146101dd578063b6f6869e146101f0578063c5958af914610210578063ce5e11bf14610223578063e07c548614610236578063f66f49c314610249578063f78eea831461025c578063fcd4a5461461028a575b600080fd5b6100e86100e3366004610e16565b6102ab565b005b6000546100fd906001600160a01b031681565b6040516001600160a01b0390911681526020015b60405180910390f35b61012d610128366004610e3a565b6102e3565b604080519215158352602083019190915201610111565b6001546100fd906001600160a01b031681565b61016a610165366004610e3a565b610362565b6040519015158152602001610111565b61018d610188366004610e3a565b6103df565b604051610111929190610eac565b6101ae6101a9366004610ece565b610438565b604051610111929190610f06565b6101cf6101ca366004610f30565b610520565b604051908152602001610111565b61018d6101eb366004610e3a565b61058e565b6102036101fe366004610f49565b610614565b6040516101119190610f82565b61020361021e366004610e3a565b6106d9565b6101cf610231366004610e3a565b610751565b6100fd610244366004610e3a565b6107c5565b61012d610257366004610e3a565b610839565b61026f61026a366004610f30565b6109f6565b60408051938452602084019290925290820152606001610111565b61029d610298366004610f95565b610abb565b604051610111929190610fc7565b6001546001600160a01b0316156102c157600080fd5b600180546001600160a01b0319166001600160a01b0392909216919091179055565b60008054604051632944908560e01b815282916001600160a01b0316906329449085906103169087908790600401611062565b6040805180830381865afa158015610332573d6000803e3d6000fd5b505050506040513d601f19601f820116820180604052508101906103569190611085565b915091505b9250929050565b600080546040516344e87f9160e01b81526001600160a01b03909116906344e87f91906103959086908690600401611062565b602060405180830381865afa1580156103b2573d6000803e3d6000fd5b505050506040513d601f19601f820116820180604052508101906103d691906110b1565b90505b92915050565b606060008060006103f08686610839565b9150915081610417576000604051806020016040528060008152509093509350505061035b565b6104218682610751565b925061042d86846106d9565b935050509250929050565b60606000807f15e1b702c3013cad746078c5fa0edabbf197cdb6d1ecd5f8eb1aac43ea3186288460405160240161047191815260200190565b60408051601f19818403018152918152602080830180516001600160e01b03166001600160e01b031990951694909417909352519092506000916104bb91899189918691016110cc565b60408051601f19818403018152908290526104d8916020016110ff565b60405160208183030381529060405280519060200120905060006105048261a8c0426101eb9190611146565b909550905061051382826107c5565b9350505050935093915050565b600080546040516377b03e0d60e01b8152600481018490526001600160a01b03909116906377b03e0d90602401602060405180830381865afa15801561056a573d6000803e3d6000fd5b505050506040513d601f19601f820116820180604052508101906103d99190611159565b6000805460405163a792765f60e01b8152606092916001600160a01b03169063a792765f906105c39087908790600401611062565b600060405180830381865afa1580156105e0573d6000803e3d6000fd5b505050506040513d6000823e601f3d908101601f19168201604052610608919081019061120f565b90969095509350505050565b60408051602081018490526001600160a01b0383168183015260608082018690528251808303820181526080830190935291600091610656919060a001611266565b6040516020818303038152906040528051906020012090506106808161a8c0426101eb9190611146565b95509150846106d15760405162461bcd60e51b81526020600482015260196024820152781d1a5b595cdd185b5c081b5d5cdd081899481c1c995cd95b9d603a1b604482015260640160405180910390fd5b509392505050565b60005460405163c5958af960e01b81526060916001600160a01b03169063c5958af99061070c9086908690600401611062565b600060405180830381865afa158015610729573d6000803e3d6000fd5b505050506040513d6000823e601f3d908101601f191682016040526103d691908101906112a1565b6000805460405163ce5e11bf60e01b81526001600160a01b039091169063ce5e11bf906107849086908690600401611062565b602060405180830381865afa1580156107a1573d6000803e3d6000fd5b505050506040513d601f19601f820116820180604052508101906103d69190611159565b6000805460405163703e2a4360e11b81526001600160a01b039091169063e07c5486906107f89086908690600401611062565b602060405180830381865afa158015610815573d6000803e3d6000fd5b505050506040513d601f19601f820116820180604052508101906103d691906112dd565b600080600061084785610520565b90508060000361085e57600080925092505061035b565b80610868816112fa565b915060019050600080838161087d8a83610751565b9050888111610898576000809750975050505050505061035b565b6108a28a84610751565b9050888111156108b157600094505b84156109615760026108c38484611311565b6108cd9190611324565b93506108d98a85610751565b90508881111561091a5760006108f48b610231600188611146565b90508981116109065760009550610914565b610911600186611146565b92505b506108b1565b600061092b8b610231876001611311565b90508981111561094e57600095508461094381611346565b955050809150610914565b610959856001611311565b9350506108b1565b61096b8a82610362565b610981576001849750975050505050505061035b565b61098b8a82610362565b801561099657508584105b156109b957836109a581611346565b9450506109b28a85610751565b9050610981565b85841480156109cd57506109cd8a82610362565b156109e4576000809750975050505050505061035b565b6001849750975050505050505061035b565b6001546040516387a475fd60e01b8152600481018390526000918291829182916001600160a01b03909116906387a475fd90602401602060405180830381865afa158015610a48573d6000803e3d6000fd5b505050506040513d601f19601f82011682018060405250810190610a6c9190611159565b90506060610a7f826101eb426001611311565b945090506000849003610a9f576000806101949450945094505050610ab4565b6000610aaa82610da7565b955060c893505050505b9193909250565b606080600080610acf88610257888a611146565b9150915081610b20576040805160008082526020820190925290610b03565b6060815260200190600190039081610aee5790505b506040805160008152602081019091529094509250610d9e915050565b6000610b2c89896102e3565b909350905082610b7f576040805160008082526020820190925290610b61565b6060815260200190600190039081610b4c5790505b506040805160008152602081019091529095509350610d9e92505050565b6000806000886001600160401b03811115610b9c57610b9c611172565b604051908082528060200260200182016040528015610bc5578160200160208202803683370190505b5090505b8883108015610bec57508482610be0866001611311565b610bea9190611146565b115b15610c50576000610c018d6102318588611146565b9050610c0d8d82610362565b610c3d5780828581518110610c2457610c2461135f565b602090810291909101015283610c3981611346565b9450505b82610c4781611346565b93505050610bc9565b6000836001600160401b03811115610c6a57610c6a611172565b604051908082528060200260200182016040528015610c9d57816020015b6060815260200190600190039081610c885790505b5090506000846001600160401b03811115610cba57610cba611172565b604051908082528060200260200182016040528015610ce3578160200160208202803683370190505b50905060005b85811015610d91578381610cfe600189611146565b610d089190611146565b81518110610d1857610d1861135f565b6020026020010151828281518110610d3257610d3261135f565b602002602001018181525050610d618f838381518110610d5457610d5461135f565b60200260200101516106d9565b838281518110610d7357610d7361135f565b60200260200101819052508080610d8990611346565b915050610ce9565b5090985096505050505050505b94509492505050565b6000805b8251811015610df857828181518110610dc657610dc661135f565b016020015160f81c610dda83610100611375565b610de49190611311565b915080610df081611346565b915050610dab565b50919050565b6001600160a01b0381168114610e1357600080fd5b50565b600060208284031215610e2857600080fd5b8135610e3381610dfe565b9392505050565b60008060408385031215610e4d57600080fd5b50508035926020909101359150565b60005b83811015610e77578181015183820152602001610e5f565b50506000910152565b60008151808452610e98816020860160208601610e5c565b601f01601f19169290920160200192915050565b604081526000610ebf6040830185610e80565b90508260208301529392505050565b600080600060608486031215610ee357600080fd5b833592506020840135610ef581610dfe565b929592945050506040919091013590565b604081526000610f196040830185610e80565b905060018060a01b03831660208301529392505050565b600060208284031215610f4257600080fd5b5035919050565b600080600060608486031215610f5e57600080fd5b83359250602084013591506040840135610f7781610dfe565b809150509250925092565b6020815260006103d66020830184610e80565b60008060008060808587031215610fab57600080fd5b5050823594602084013594506040840135936060013592509050565b6000604082016040835280855180835260608501915060608160051b8601019250602080880160005b8381101561101e57605f1988870301855261100c868351610e80565b95509382019390820190600101610ff0565b50508584038187015286518085528782019482019350915060005b8281101561105557845184529381019392810192600101611039565b5091979650505050505050565b918252602082015260400190565b8051801515811461108057600080fd5b919050565b6000806040838503121561109857600080fd5b6110a183611070565b9150602083015190509250929050565b6000602082840312156110c357600080fd5b6103d682611070565b8381526001600160a01b03831660208201526060604082018190526000906110f690830184610e80565b95945050505050565b60408152600760408201526611559350d85b1b60ca1b60608201526080602082015260006103d66080830184610e80565b634e487b7160e01b600052601160045260246000fd5b818103818111156103d9576103d9611130565b60006020828403121561116b57600080fd5b5051919050565b634e487b7160e01b600052604160045260246000fd5b600082601f83011261119957600080fd5b81516001600160401b03808211156111b3576111b3611172565b604051601f8301601f19908116603f011681019082821181831017156111db576111db611172565b816040528381528660208588010111156111f457600080fd5b611205846020830160208901610e5c565b9695505050505050565b60008060006060848603121561122457600080fd5b61122d84611070565b60208501519093506001600160401b0381111561124957600080fd5b61125586828701611188565b925050604084015190509250925092565b60408152601160408201527043726f7373436861696e42616c616e636560781b60608201526080602082015260006103d66080830184610e80565b6000602082840312156112b357600080fd5b81516001600160401b038111156112c957600080fd5b6112d584828501611188565b949350505050565b6000602082840312156112ef57600080fd5b8151610e3381610dfe565b60008161130957611309611130565b506000190190565b808201808211156103d9576103d9611130565b60008261134157634e487b7160e01b600052601260045260246000fd5b500490565b60006001820161135857611358611130565b5060010190565b634e487b7160e01b600052603260045260246000fd5b80820281158282048414176103d9576103d961113056fea2646970667358221220657732cc9b21285efb14072cc7093b7518e4fbf4d5b35cb652a9f70d48fceaea64736f6c63430008110033",
  "linkReferences": {},
  "deployedLinkReferences": {}
}