{
  "_format": "hh-sol-artifact-1",
  "contractName": "ETHtoPOLBridge",
  "sourceName": "charonAMM/contracts/bridges/ETHtoPOLBridge.sol",
  "abi": [
    {
      "inputs": [
        {
          "internalType": "address payable",
          "name": "_tellor",
          "type": "address"
        },
        {
          "internalType": "address",
          "name": "_checkpointManager",
          "type": "address"
        },
        {
          "internalType": "address",
          "name": "_fxRoot",
          "type": "address"
        }
      ],
      "stateMutability": "nonpayable",
      "type": "constructor"
    },
    {
      "inputs": [],
      "name": "SEND_MESSAGE_EVENT_SIG",
      "outputs": [
        {
          "internalType": "bytes32",
          "name": "",
          "type": "bytes32"
        }
      ],
      "stateMutability": "view",
      "type": "function"
    },
    {
      "inputs": [],
      "name": "charon",
      "outputs": [
        {
          "internalType": "address",
          "name": "",
          "type": "address"
        }
      ],
      "stateMutability": "view",
      "type": "function"
    },
    {
      "inputs": [],
      "name": "checkpointManager",
      "outputs": [
        {
          "internalType": "contract ICheckpointManager",
          "name": "",
          "type": "address"
        }
      ],
      "stateMutability": "view",
      "type": "function"
    },
    {
      "inputs": [],
      "name": "fxChildTunnel",
      "outputs": [
        {
          "internalType": "address",
          "name": "",
          "type": "address"
        }
      ],
      "stateMutability": "view",
      "type": "function"
    },
    {
      "inputs": [],
      "name": "fxRoot",
      "outputs": [
        {
          "internalType": "contract IFxStateSender",
          "name": "",
          "type": "address"
        }
      ],
      "stateMutability": "view",
      "type": "function"
    },
    {
      "inputs": [
        {
          "internalType": "bytes",
          "name": "_inputData",
          "type": "bytes"
        }
      ],
      "name": "getCommitment",
      "outputs": [
        {
          "internalType": "bytes",
          "name": "_value",
          "type": "bytes"
        }
      ],
      "stateMutability": "view",
      "type": "function"
    },
    {
      "inputs": [
        {
          "internalType": "bytes32",
          "name": "_queryId",
          "type": "bytes32"
        },
        {
          "internalType": "uint256",
          "name": "_timestamp",
          "type": "uint256"
        }
      ],
      "name": "getDataAfter",
      "outputs": [
        {
          "internalType": "bytes",
          "name": "_value",
          "type": "bytes"
        },
        {
          "internalType": "uint256",
          "name": "_timestampRetrieved",
          "type": "uint256"
        }
      ],
      "stateMutability": "view",
      "type": "function"
    },
    {
      "inputs": [
        {
          "internalType": "bytes32",
          "name": "_queryId",
          "type": "bytes32"
        },
        {
          "internalType": "uint256",
          "name": "_timestamp",
          "type": "uint256"
        }
      ],
      "name": "getDataBefore",
      "outputs": [
        {
          "internalType": "bytes",
          "name": "_value",
          "type": "bytes"
        },
        {
          "internalType": "uint256",
          "name": "_timestampRetrieved",
          "type": "uint256"
        }
      ],
      "stateMutability": "view",
      "type": "function"
    },
    {
      "inputs": [
        {
          "internalType": "bytes32",
          "name": "_queryId",
          "type": "bytes32"
        },
        {
          "internalType": "uint256",
          "name": "_timestamp",
          "type": "uint256"
        }
      ],
      "name": "getIndexForDataAfter",
      "outputs": [
        {
          "internalType": "bool",
          "name": "_found",
          "type": "bool"
        },
        {
          "internalType": "uint256",
          "name": "_index",
          "type": "uint256"
        }
      ],
      "stateMutability": "view",
      "type": "function"
    },
    {
      "inputs": [
        {
          "internalType": "bytes32",
          "name": "_queryId",
          "type": "bytes32"
        },
        {
          "internalType": "uint256",
          "name": "_timestamp",
          "type": "uint256"
        }
      ],
      "name": "getIndexForDataBefore",
      "outputs": [
        {
          "internalType": "bool",
          "name": "_found",
          "type": "bool"
        },
        {
          "internalType": "uint256",
          "name": "_index",
          "type": "uint256"
        }
      ],
      "stateMutability": "view",
      "type": "function"
    },
    {
      "inputs": [
        {
          "internalType": "bytes32",
          "name": "_queryId",
          "type": "bytes32"
        },
        {
          "internalType": "uint256",
          "name": "_timestamp",
          "type": "uint256"
        },
        {
          "internalType": "uint256",
          "name": "_maxAge",
          "type": "uint256"
        },
        {
          "internalType": "uint256",
          "name": "_maxCount",
          "type": "uint256"
        }
      ],
      "name": "getMultipleValuesBefore",
      "outputs": [
        {
          "internalType": "bytes[]",
          "name": "_values",
          "type": "bytes[]"
        },
        {
          "internalType": "uint256[]",
          "name": "_timestamps",
          "type": "uint256[]"
        }
      ],
      "stateMutability": "view",
      "type": "function"
    },
    {
      "inputs": [
        {
          "internalType": "bytes32",
          "name": "_queryId",
          "type": "bytes32"
        }
      ],
      "name": "getNewValueCountbyQueryId",
      "outputs": [
        {
          "internalType": "uint256",
          "name": "",
          "type": "uint256"
        }
      ],
      "stateMutability": "view",
      "type": "function"
    },
    {
      "inputs": [
        {
          "internalType": "bytes32",
          "name": "_queryId",
          "type": "bytes32"
        },
        {
          "internalType": "uint256",
          "name": "_timestamp",
          "type": "uint256"
        }
      ],
      "name": "getReporterByTimestamp",
      "outputs": [
        {
          "internalType": "address",
          "name": "",
          "type": "address"
        }
      ],
      "stateMutability": "view",
      "type": "function"
    },
    {
      "inputs": [
        {
          "internalType": "uint256",
          "name": "_timestamp",
          "type": "uint256"
        },
        {
          "internalType": "uint256",
          "name": "_chainID",
          "type": "uint256"
        },
        {
          "internalType": "address",
          "name": "_address",
          "type": "address"
        }
      ],
      "name": "getRootHashAndSupply",
      "outputs": [
        {
          "internalType": "bytes",
          "name": "_value",
          "type": "bytes"
        }
      ],
      "stateMutability": "view",
      "type": "function"
    },
    {
      "inputs": [
        {
          "internalType": "bytes32",
          "name": "_queryId",
          "type": "bytes32"
        },
        {
          "internalType": "uint256",
          "name": "_index",
          "type": "uint256"
        }
      ],
      "name": "getTimestampbyQueryIdandIndex",
      "outputs": [
        {
          "internalType": "uint256",
          "name": "",
          "type": "uint256"
        }
      ],
      "stateMutability": "view",
      "type": "function"
    },
    {
      "inputs": [],
      "name": "id",
      "outputs": [
        {
          "internalType": "uint256",
          "name": "",
          "type": "uint256"
        }
      ],
      "stateMutability": "view",
      "type": "function"
    },
    {
      "inputs": [],
      "name": "idMappingContract",
      "outputs": [
        {
          "internalType": "contract IMappingContract",
          "name": "",
          "type": "address"
        }
      ],
      "stateMutability": "view",
      "type": "function"
    },
    {
      "inputs": [
        {
          "internalType": "bytes32",
          "name": "_queryId",
          "type": "bytes32"
        },
        {
          "internalType": "uint256",
          "name": "_timestamp",
          "type": "uint256"
        }
      ],
      "name": "isInDispute",
      "outputs": [
        {
          "internalType": "bool",
          "name": "",
          "type": "bool"
        }
      ],
      "stateMutability": "view",
      "type": "function"
    },
    {
      "inputs": [
        {
          "internalType": "bytes32",
          "name": "",
          "type": "bytes32"
        }
      ],
      "name": "processedExits",
      "outputs": [
        {
          "internalType": "bool",
          "name": "",
          "type": "bool"
        }
      ],
      "stateMutability": "view",
      "type": "function"
    },
    {
      "inputs": [
        {
          "internalType": "bytes",
          "name": "inputData",
          "type": "bytes"
        }
      ],
      "name": "receiveMessage",
      "outputs": [],
      "stateMutability": "nonpayable",
      "type": "function"
    },
    {
      "inputs": [
        {
          "internalType": "bytes32",
          "name": "_queryId",
          "type": "bytes32"
        },
        {
          "internalType": "uint256",
          "name": "_timestamp",
          "type": "uint256"
        }
      ],
      "name": "retrieveData",
      "outputs": [
        {
          "internalType": "bytes",
          "name": "",
          "type": "bytes"
        }
      ],
      "stateMutability": "view",
      "type": "function"
    },
    {
      "inputs": [
        {
          "internalType": "bytes",
          "name": "_data",
          "type": "bytes"
        }
      ],
      "name": "sendCommitment",
      "outputs": [],
      "stateMutability": "nonpayable",
      "type": "function"
    },
    {
      "inputs": [
        {
          "internalType": "address",
          "name": "_charon",
          "type": "address"
        }
      ],
      "name": "setCharon",
      "outputs": [],
      "stateMutability": "nonpayable",
      "type": "function"
    },
    {
      "inputs": [
        {
          "internalType": "address",
          "name": "_fxChildTunnel",
          "type": "address"
        }
      ],
      "name": "setFxChildTunnel",
      "outputs": [],
      "stateMutability": "nonpayable",
      "type": "function"
    },
    {
      "inputs": [
        {
          "internalType": "address",
          "name": "_addy",
          "type": "address"
        }
      ],
      "name": "setIdMappingContract",
      "outputs": [],
      "stateMutability": "nonpayable",
      "type": "function"
    },
    {
      "inputs": [],
      "name": "tellor",
      "outputs": [
        {
          "internalType": "contract ITellor",
          "name": "",
          "type": "address"
        }
      ],
      "stateMutability": "view",
      "type": "function"
    },
    {
      "inputs": [
        {
          "internalType": "bytes32",
          "name": "_id",
          "type": "bytes32"
        }
      ],
      "name": "valueFor",
      "outputs": [
        {
          "internalType": "int256",
          "name": "_value",
          "type": "int256"
        },
        {
          "internalType": "uint256",
          "name": "_timestamp",
          "type": "uint256"
        },
        {
          "internalType": "uint256",
          "name": "_statusCode",
          "type": "uint256"
        }
      ],
      "stateMutability": "view",
      "type": "function"
    }
  ],
  "bytecode": "0x60806040523480156200001157600080fd5b5060405162002fd038038062002fd0833981016040819052620000349162000090565b600080546001600160a01b039485166001600160a01b031991821617909155600380549385169382169390931790925560028054919093169116179055620000e4565b6001600160a01b03811681146200008d57600080fd5b50565b600080600060608486031215620000a657600080fd5b8351620000b38162000077565b6020850151909350620000c68162000077565b6040850151909250620000d98162000077565b809150509250925092565b612edc80620000f46000396000f3fe608060405234801561001057600080fd5b50600436106101495760003560e01c80630e387de61461014e578063193b505b146101765780631959ad5b1461018b57806329449085146101b65780632af8aae0146101e0578063353ab5cf146101f357806344e87f911461020657806351e3aea914610229578063607f2d421461023c57806364ee3c6d1461025f5780636b2fd9051461028057806377b03e0d146102a0578063972c4928146102b3578063a792765f146102c6578063aea4e49e146102d9578063af640d0f146102ec578063b6f6869e146102f5578063c0857ba014610308578063c5958af91461031b578063ce5e11bf1461032e578063de9b771f14610341578063e07c548614610354578063f66f49c314610367578063f78eea831461037a578063f953cec7146103a8578063fc571a5c146103bb578063fcd4a546146103ce575b600080fd5b610163600080516020612e8783398151915281565b6040519081526020015b60405180910390f35b610189610184366004612608565b6103ef565b005b60005461019e906001600160a01b031681565b6040516001600160a01b03909116815260200161016d565b6101c96101c4366004612625565b610427565b60408051921515835260208301919091520161016d565b60015461019e906001600160a01b031681565b610189610201366004612608565b6104a6565b610219610214366004612625565b6104de565b604051901515815260200161016d565b6101896102373660046126b4565b61055b565b61021961024a366004612733565b60056020526000908152604090205460ff1681565b61027261026d366004612625565b6105b7565b60405161016d92919061279c565b61029361028e3660046126b4565b610610565b60405161016d91906127be565b6101636102ae366004612733565b6106bd565b60045461019e906001600160a01b031681565b6102726102d4366004612625565b61072b565b6101896102e7366004612608565b6107b1565b61016360075481565b6102936103033660046127d1565b61083f565b60035461019e906001600160a01b031681565b610293610329366004612625565b610900565b61016361033c366004612625565b610978565b60025461019e906001600160a01b031681565b61019e610362366004612625565b6109ec565b6101c9610375366004612625565b610a60565b61038d610388366004612733565b610c1d565b6040805193845260208401929092529082015260600161016d565b6101896103b63660046126b4565b610ce2565b60065461019e906001600160a01b031681565b6103e16103dc36600461280a565b610cfc565b60405161016d92919061283c565b6001546001600160a01b03161561040557600080fd5b600180546001600160a01b0319166001600160a01b0392909216919091179055565b60008054604051632944908560e01b815282916001600160a01b03169063294490859061045a90879087906004016128d7565b6040805180830381865afa158015610476573d6000803e3d6000fd5b505050506040513d601f19601f8201168201806040525081019061049a91906128fa565b915091505b9250929050565b6006546001600160a01b0316156104bc57600080fd5b600680546001600160a01b0319166001600160a01b0392909216919091179055565b600080546040516344e87f9160e01b81526001600160a01b03909116906344e87f919061051190869086906004016128d7565b602060405180830381865afa15801561052e573d6000803e3d6000fd5b505050506040513d601f19601f820116820180604052508101906105529190612926565b90505b92915050565b6006546001600160a01b031633146105ab5760405162461bcd60e51b815260206004820152600e60248201526d36bab9ba1031329031b430b937b760911b60448201526064015b60405180910390fd5b6105b481610fe8565b50565b606060008060006105c88686610a60565b91509150816105ef576000604051806020016040528060008152509093509350505061049f565b6105f98682610978565b92506106058684610900565b935050509250929050565b60606008600061061f84611053565b8152602001908152602001600020805461063890612941565b80601f016020809104026020016040519081016040528092919081815260200182805461066490612941565b80156106b15780601f10610686576101008083540402835291602001916106b1565b820191906000526020600020905b81548152906001019060200180831161069457829003601f168201915b50505050509050919050565b600080546040516377b03e0d60e01b8152600481018490526001600160a01b03909116906377b03e0d90602401602060405180830381865afa158015610707573d6000803e3d6000fd5b505050506040513d601f19601f820116820180604052508101906105559190612975565b6000805460405163a792765f60e01b8152606092916001600160a01b03169063a792765f9061076090879087906004016128d7565b600060405180830381865afa15801561077d573d6000803e3d6000fd5b505050506040513d6000823e601f3d908101601f191682016040526107a591908101906129d3565b90969095509350505050565b6004546001600160a01b03161561081d5760405162461bcd60e51b815260206004820152602a60248201527f467842617365526f6f7454756e6e656c3a204348494c445f54554e4e454c5f4160448201526913149150511657d4d15560b21b60648201526084016105a2565b600480546001600160a01b0319166001600160a01b0392909216919091179055565b60408051602081018490526001600160a01b0383168183015260608082018690528251808303820181526080830190935291600091610881919060a001612a2a565b6040516020818303038152906040528051906020012090506108ab8161a8c0426102d49190612a7b565b95509150846108f85760405162461bcd60e51b81526020600482015260196024820152781d1a5b595cdd185b5c081b5d5cdd081899481c1c995cd95b9d603a1b60448201526064016105a2565b509392505050565b60005460405163c5958af960e01b81526060916001600160a01b03169063c5958af99061093390869086906004016128d7565b600060405180830381865afa158015610950573d6000803e3d6000fd5b505050506040513d6000823e601f3d908101601f191682016040526105529190810190612a8e565b6000805460405163ce5e11bf60e01b81526001600160a01b039091169063ce5e11bf906109ab90869086906004016128d7565b602060405180830381865afa1580156109c8573d6000803e3d6000fd5b505050506040513d601f19601f820116820180604052508101906105529190612975565b6000805460405163703e2a4360e11b81526001600160a01b039091169063e07c548690610a1f90869086906004016128d7565b602060405180830381865afa158015610a3c573d6000803e3d6000fd5b505050506040513d601f19601f820116820180604052508101906105529190612ac2565b6000806000610a6e856106bd565b905080600003610a8557600080925092505061049f565b80610a8f81612adf565b9150600190506000808381610aa48a83610978565b9050888111610abf576000809750975050505050505061049f565b610ac98a84610978565b905088811115610ad857600094505b8415610b88576002610aea8484612af6565b610af49190612b1f565b9350610b008a85610978565b905088811115610b41576000610b1b8b61033c600188612a7b565b9050898111610b2d5760009550610b3b565b610b38600186612a7b565b92505b50610ad8565b6000610b528b61033c876001612af6565b905089811115610b75576000955084610b6a81612b33565b955050809150610b3b565b610b80856001612af6565b935050610ad8565b610b928a826104de565b610ba8576001849750975050505050505061049f565b610bb28a826104de565b8015610bbd57508584105b15610be05783610bcc81612b33565b945050610bd98a85610978565b9050610ba8565b8584148015610bf45750610bf48a826104de565b15610c0b576000809750975050505050505061049f565b6001849750975050505050505061049f565b6001546040516387a475fd60e01b8152600481018390526000918291829182916001600160a01b03909116906387a475fd90602401602060405180830381865afa158015610c6f573d6000803e3d6000fd5b505050506040513d601f19601f82011682018060405250810190610c939190612975565b90506060610ca6826102d4426001612af6565b945090506000849003610cc6576000806101949450945094505050610cdb565b6000610cd1826110d5565b955060c893505050505b9193909250565b6000610ced82611126565b9050610cf8816113f9565b5050565b606080600080610d1088610375888a612a7b565b9150915081610d61576040805160008082526020820190925290610d44565b6060815260200190600190039081610d2f5790505b506040805160008152602081019091529094509250610fdf915050565b6000610d6d8989610427565b909350905082610dc0576040805160008082526020820190925290610da2565b6060815260200190600190039081610d8d5790505b506040805160008152602081019091529095509350610fdf92505050565b6000806000886001600160401b03811115610ddd57610ddd612647565b604051908082528060200260200182016040528015610e06578160200160208202803683370190505b5090505b8883108015610e2d57508482610e21866001612af6565b610e2b9190612a7b565b115b15610e91576000610e428d61033c8588612a7b565b9050610e4e8d826104de565b610e7e5780828581518110610e6557610e65612b4c565b602090810291909101015283610e7a81612b33565b9450505b82610e8881612b33565b93505050610e0a565b6000836001600160401b03811115610eab57610eab612647565b604051908082528060200260200182016040528015610ede57816020015b6060815260200190600190039081610ec95790505b5090506000846001600160401b03811115610efb57610efb612647565b604051908082528060200260200182016040528015610f24578160200160208202803683370190505b50905060005b85811015610fd2578381610f3f600189612a7b565b610f499190612a7b565b81518110610f5957610f59612b4c565b6020026020010151828281518110610f7357610f73612b4c565b602002602001018181525050610fa28f838381518110610f9557610f95612b4c565b6020026020010151610900565b838281518110610fb457610fb4612b4c565b60200260200101819052508080610fca90612b33565b915050610f2a565b5090985096505050505050505b94509492505050565b6002546004805460405163b472047760e01b81526001600160a01b039384169363b47204779361101e9390911691869101612b62565b600060405180830381600087803b15801561103857600080fd5b505af115801561104c573d6000803e3d6000fd5b5050505050565b6000805b82518110156110cf5761106b816001612af6565b83516110779190612a7b565b611082906008612b86565b61108d906002612c81565b83828151811061109f5761109f612b4c565b01602001516110b1919060f81c612b86565b6110bb9083612af6565b9150806110c781612b33565b915050611057565b50919050565b6000805b82518110156110cf578281815181106110f4576110f4612b4c565b016020015160f81c61110883610100612b86565b6111129190612af6565b91508061111e81612b33565b9150506110d9565b6060600061113383611429565b9050600061114082611460565b9050600061114d83611489565b905060008161115b846114b2565b6111648661166e565b60405160200161117693929190612c8d565b60408051601f1981840301815291815281516020928301206000818152600590935291205490915060ff16156111fa5760405162461bcd60e51b8152602060048201526024808201527f4678526f6f7454756e6e656c3a20455849545f414c52454144595f50524f434560448201526314d4d15160e21b60648201526084016105a2565b6000818152600560205260408120805460ff1916600117905561121c8561168a565b9050600061122982611797565b90506112348161180a565b6004546001600160a01b0390811691161461129f5760405162461bcd60e51b815260206004820152602560248201527f4678526f6f7454756e6e656c3a20494e56414c49445f46585f4348494c445f54604482015264155393915360da1b60648201526084016105a2565b60006112aa87611833565b90506112ca6112ba846020015190565b876112c48a61184f565b8461186b565b6113225760405162461bcd60e51b815260206004820152602360248201527f4678526f6f7454756e6e656c3a20494e56414c49445f524543454950545f505260448201526227a7a360e91b60648201526084016105a2565b6113508561132f89611af6565b6113388a611b12565b846113428c611b2e565b61134b8d611b4a565b611b66565b600061135b83611c83565b9050600080516020612e8783398151915261137f61137a836000611cbf565b611ceb565b146113cc5760405162461bcd60e51b815260206004820152601f60248201527f4678526f6f7454756e6e656c3a20494e56414c49445f5349474e41545552450060448201526064016105a2565b60006113d784611d66565b8060200190518101906113ea9190612a8e565b9b9a5050505050505050505050565b6007805490600061140983612b33565b90915550506007546000908152600860205260409020610cf88282612d09565b604080516020810190915260608152600061144b61144684611d82565b611da8565b60408051602081019091529081529392505050565b6060610555826000015160088151811061147c5761147c612b4c565b6020026020010151611eb1565b600061055582600001516002815181106114a5576114a5612b4c565b6020026020010151611ceb565b60408051602081019091526000815281516060919015610555576000806114da600086611f4d565b60f81c905060018114806114f157508060ff166003145b15611598576001855160026115069190612b86565b6115109190612a7b565b6001600160401b0381111561152757611527612647565b6040519080825280601f01601f191660200182016040528015611551576020820181803683370190505b5092506000611561600187611f4d565b9050808460008151811061157757611577612b4c565b60200101906001600160f81b031916908160001a90535060019250506115fb565b6002855160026115a89190612b86565b6115b29190612a7b565b6001600160401b038111156115c9576115c9612647565b6040519080825280601f01601f1916602001820160405280156115f3576020820181803683370190505b509250600091505b60ff82165b83518110156116655761162a61161960ff851683612a7b565b611624906002612af6565b87611f4d565b84828151811061163c5761163c612b4c565b60200101906001600160f81b031916908160001a9053508061165d81612b33565b915050611600565b50505092915050565b600061055582600001516009815181106114a5576114a5612b4c565b6116ae60405180606001604052806060815260200160608152602001600081525090565b6116c8826000015160068151811061147c5761147c612b4c565b602082018190526000906116db90611d82565b90506116e681611fce565b156116fb576116f481611da8565b8252611783565b6020820151805160009061171190600190612a7b565b6001600160401b0381111561172857611728612647565b6040519080825280601f01601f191660200182016040528015611752576020820181803683370190505b50905060008083602101915082602001905061177082828551612009565b61177c61144684611d82565b8652505050505b61178c8361166e565b604083015250919050565b61179f6125b9565b60006117c883600001516003815181106117bb576117bb612b4c565b6020026020010151611da8565b8360400151815181106117dd576117dd612b4c565b60200260200101519050604051806040016040528082815260200161180183611da8565b90529392505050565b6000610555826020015160008151811061182657611826612b4c565b6020026020010151612094565b600061055582600001516005815181106114a5576114a5612b4c565b6060610555826000015160078151811061147c5761147c612b4c565b60008061187784611d82565b9050600061188482611da8565b9050606080856000806118968b6114b2565b905080516000036118b1576000975050505050505050611aee565b60005b8651811015611ae55781518311156118d757600098505050505050505050611aee565b6118f98782815181106118ec576118ec612b4c565b60200260200101516120ae565b95508580519060200120841461191a57600098505050505050505050611aee565b61192f8782815181106117bb576117bb612b4c565b94508451601103611a01578151830361198e578c805190602001206119608660108151811061147c5761147c612b4c565b805190602001200361197d57600198505050505050505050611aee565b600098505050505050505050611aee565b60008284815181106119a2576119a2612b4c565b016020015160f81c905060108111156119c75760009950505050505050505050611aee565b6119ec868260ff16815181106119df576119df612b4c565b602002602001015161212c565b94506119f9600185612af6565b935050611ad3565b845160020361197d576000611a2c611a258760008151811061147c5761147c612b4c565b848661215a565b8351909150611a3b8286612af6565b03611a8e578d80519060200120611a5e8760018151811061147c5761147c612b4c565b8051906020012003611a7c5760019950505050505050505050611aee565b60009950505050505050505050611aee565b80600003611aa85760009950505050505050505050611aee565b611ab28185612af6565b9350611aca866001815181106119df576119df612b4c565b9450611ad39050565b80611add81612b33565b9150506118b4565b50505050505050505b949350505050565b600061055582600001516003815181106114a5576114a5612b4c565b600061055582600001516004815181106114a5576114a5612b4c565b600061055582600001516000815181106114a5576114a5612b4c565b6060610555826000015160018151811061147c5761147c612b4c565b6003546040516320a9cea560e11b81526004810184905260009182916001600160a01b03909116906341539d4a9060240160a060405180830381865afa158015611bb4573d6000803e3d6000fd5b505050506040513d601f19601f82011682018060405250810190611bd89190612dc8565b50505091509150611c2e8189611bee9190612a7b565b6040805160208082018d90528183018c9052606082018b905260808083018b90528351808403909101815260a09092019092528051910120908486612261565b611c795760405162461bcd60e51b815260206004820152601c60248201527b233c2937b7ba2a3ab73732b61d1024a72b20a624a22fa422a0a222a960211b60448201526064016105a2565b5050505050505050565b6040805160208101909152606081526040518060200160405280611cb784602001516001815181106117bb576117bb612b4c565b905292915050565b611cc76125d9565b8251805183908110611cdb57611cdb612b4c565b6020026020010151905092915050565b805160009015801590611d0057508151602110155b611d0957600080fd5b6000611d1883602001516123c9565b90506000818460000151611d2c9190612a7b565b9050600080838660200151611d419190612af6565b9050805191506020831015611d5d57826020036101000a820491505b50949350505050565b6060610555826020015160028151811061147c5761147c612b4c565b611d8a6125d9565b50604080518082019091528151815260209182019181019190915290565b6060611db382611fce565b611dbc57600080fd5b6000611dc78361244b565b90506000816001600160401b03811115611de357611de3612647565b604051908082528060200260200182016040528015611e1c57816020015b611e096125d9565b815260200190600190039081611e015790505b5090506000611e2e85602001516123c9565b8560200151611e3d9190612af6565b90506000805b84811015611ea657611e54836124d0565b9150604051806040016040528083815260200184815250848281518110611e7d57611e7d612b4c565b6020908102919091010152611e928284612af6565b925080611e9e81612b33565b915050611e43565b509195945050505050565b8051606090611ebf57600080fd5b6000611ece83602001516123c9565b90506000818460000151611ee29190612a7b565b90506000816001600160401b03811115611efe57611efe612647565b6040519080825280601f01601f191660200182016040528015611f28576020820181803683370190505b5090506000816020019050611d5d848760200151611f469190612af6565b8285612574565b6000611f5a600284612e15565b15611f9457601082611f6d600286612b1f565b81518110611f7d57611f7d612b4c565b0160200151611f8f919060f81c612e29565b611fc4565b601082611fa2600286612b1f565b81518110611fb257611fb2612b4c565b0160200151611fc4919060f81c612e4b565b60f81b9392505050565b80516000908103611fe157506000919050565b6020820151805160001a9060c0821015611fff575060009392505050565b5060019392505050565b8060000361201657505050565b6020811061204e578251825261202d602084612af6565b925061203a602083612af6565b9150612047602082612a7b565b9050612016565b8060000361205b57505050565b6000600161206a836020612a7b565b61207690610100612c81565b6120809190612a7b565b935183518516941916939093179091525050565b80516000906015146120a557600080fd5b61055582611ceb565b6060600082600001516001600160401b038111156120ce576120ce612647565b6040519080825280601f01601f1916602001820160405280156120f8576020820181803683370190505b509050805160000361210a5792915050565b60008160200190506121258460200151828660000151612574565b5092915050565b805160009060211461213d57600080fd5b600080836020015160016121519190612af6565b51949350505050565b60008080612167866114b2565b9050600081516001600160401b0381111561218457612184612647565b6040519080825280601f01601f1916602001820160405280156121ae576020820181803683370190505b509050845b82516121bf9087612af6565b8110156122325760008782815181106121da576121da612b4c565b01602001516001600160f81b031916905080836121f78985612a7b565b8151811061220757612207612b4c565b60200101906001600160f81b031916908160001a90535050808061222a90612b33565b9150506121b3565b5080805190602001208280519060200120036122515781519250612256565b600092505b509095945050505050565b6000602082516122719190612e15565b156122b55760405162461bcd60e51b8152602060048201526014602482015273092dcecc2d8d2c840e0e4dedecc40d8cadccee8d60631b60448201526064016105a2565b6000602083516122c59190612b1f565b90506122d2816002612c81565b85106123185760405162461bcd60e51b81526020600482015260156024820152744c65616620696e64657820697320746f6f2062696760581b60448201526064016105a2565b60008660205b855181116123bb57858101519250612337600289612e15565b60000361236f57604080516020810184905290810184905260600160405160208183030381529060405280519060200120915061239c565b60408051602081018590529081018390526060016040516020818303038152906040528051906020012091505b6123a7600289612b1f565b97506123b4602082612af6565b905061231e565b509094149695505050505050565b8051600090811a60808110156123e25750600092915050565b60b88110806123fd575060c081108015906123fd575060f881105b1561240b5750600192915050565b60c081101561243f57612420600160b8612e6d565b61242d9060ff1682612a7b565b612438906001612af6565b9392505050565b612420600160f8612e6d565b8051600090810361245e57506000919050565b60008061246e84602001516123c9565b846020015161247d9190612af6565b90506000846000015185602001516124959190612af6565b90505b808210156124c7576124a9826124d0565b6124b39083612af6565b9150826124bf81612b33565b935050612498565b50909392505050565b80516000908190811a60808110156124eb5760019150612125565b60b8811015612511576124ff608082612a7b565b61250a906001612af6565b9150612125565b60c081101561253e5760b78103600185019450806020036101000a85510460018201810193505050612125565b60f8811015612552576124ff60c082612a7b565b60019390930151602084900360f7016101000a900490920160f5190192915050565b8060000361258157505050565b6020811061204e5782518252612598602084612af6565b92506125a5602083612af6565b91506125b2602082612a7b565b9050612581565b60405180604001604052806125cc6125d9565b8152602001606081525090565b604051806040016040528060008152602001600081525090565b6001600160a01b03811681146105b457600080fd5b60006020828403121561261a57600080fd5b8135612438816125f3565b6000806040838503121561263857600080fd5b50508035926020909101359150565b634e487b7160e01b600052604160045260246000fd5b604051601f8201601f191681016001600160401b038111828210171561268557612685612647565b604052919050565b60006001600160401b038211156126a6576126a6612647565b50601f01601f191660200190565b6000602082840312156126c657600080fd5b81356001600160401b038111156126dc57600080fd5b8201601f810184136126ed57600080fd5b80356127006126fb8261268d565b61265d565b81815285602083850101111561271557600080fd5b81602084016020830137600091810160200191909152949350505050565b60006020828403121561274557600080fd5b5035919050565b60005b8381101561276757818101518382015260200161274f565b50506000910152565b6000815180845261278881602086016020860161274c565b601f01601f19169290920160200192915050565b6040815260006127af6040830185612770565b90508260208301529392505050565b6020815260006105526020830184612770565b6000806000606084860312156127e657600080fd5b833592506020840135915060408401356127ff816125f3565b809150509250925092565b6000806000806080858703121561282057600080fd5b5050823594602084013594506040840135936060013592509050565b6000604082016040835280855180835260608501915060608160051b8601019250602080880160005b8381101561289357605f19888703018552612881868351612770565b95509382019390820190600101612865565b50508584038187015286518085528782019482019350915060005b828110156128ca578451845293810193928101926001016128ae565b5091979650505050505050565b918252602082015260400190565b805180151581146128f557600080fd5b919050565b6000806040838503121561290d57600080fd5b612916836128e5565b9150602083015190509250929050565b60006020828403121561293857600080fd5b610552826128e5565b600181811c9082168061295557607f821691505b6020821081036110cf57634e487b7160e01b600052602260045260246000fd5b60006020828403121561298757600080fd5b5051919050565b600082601f83011261299f57600080fd5b81516129ad6126fb8261268d565b8181528460208386010111156129c257600080fd5b611aee82602083016020870161274c565b6000806000606084860312156129e857600080fd5b6129f1846128e5565b60208501519093506001600160401b03811115612a0d57600080fd5b612a198682870161298e565b925050604084015190509250925092565b60408152601160408201527043726f7373436861696e42616c616e636560781b60608201526080602082015260006105526080830184612770565b634e487b7160e01b600052601160045260246000fd5b8181038181111561055557610555612a65565b600060208284031215612aa057600080fd5b81516001600160401b03811115612ab657600080fd5b611aee8482850161298e565b600060208284031215612ad457600080fd5b8151612438816125f3565b600081612aee57612aee612a65565b506000190190565b8082018082111561055557610555612a65565b634e487b7160e01b600052601260045260246000fd5b600082612b2e57612b2e612b09565b500490565b600060018201612b4557612b45612a65565b5060010190565b634e487b7160e01b600052603260045260246000fd5b6001600160a01b0383168152604060208201819052600090611aee90830184612770565b808202811582820484141761055557610555612a65565b600181815b80851115612bd8578160001904821115612bbe57612bbe612a65565b80851615612bcb57918102915b93841c9390800290612ba2565b509250929050565b600082612bef57506001610555565b81612bfc57506000610555565b8160018114612c125760028114612c1c57612c38565b6001915050610555565b60ff841115612c2d57612c2d612a65565b50506001821b610555565b5060208310610133831016604e8410600b8410161715612c5b575081810a610555565b612c658383612b9d565b8060001904821115612c7957612c79612a65565b029392505050565b60006105528383612be0565b83815260008351612ca581602085016020880161274c565b60209201918201929092526040019392505050565b601f821115612d0457600081815260208120601f850160051c81016020861015612ce15750805b601f850160051c820191505b81811015612d0057828155600101612ced565b5050505b505050565b81516001600160401b03811115612d2257612d22612647565b612d3681612d308454612941565b84612cba565b602080601f831160018114612d6b5760008415612d535750858301515b600019600386901b1c1916600185901b178555612d00565b600085815260208120601f198616915b82811015612d9a57888601518255948401946001909101908401612d7b565b5085821015612db85787850151600019600388901b60f8161c191681555b5050505050600190811b01905550565b600080600080600060a08688031215612de057600080fd5b855194506020860151935060408601519250606086015191506080860151612e07816125f3565b809150509295509295909350565b600082612e2457612e24612b09565b500690565b600060ff831680612e3c57612e3c612b09565b8060ff84160691505092915050565b600060ff831680612e5e57612e5e612b09565b8060ff84160491505092915050565b60ff828116828216039081111561055557610555612a6556fe8c5261668696ce22758910d05bab8f186d6eb247ceac2af2e82c7dc17669b036a2646970667358221220af3033df49e26978775f0c8e5f244859a9b622ee606bc5ddb02078ba93a739ea64736f6c63430008110033",
  "linkReferences": {},
  "deployedLinkReferences": {}
}