{
  "_format": "hh-sol-artifact-1",
  "contractName": "Verifier16",
  "sourceName": "contracts/Verifier16.sol",
  "abi": [
    {
      "inputs": [
        {
          "internalType": "uint256[2]",
          "name": "a",
          "type": "uint256[2]"
        },
        {
          "internalType": "uint256[2][2]",
          "name": "b",
          "type": "uint256[2][2]"
        },
        {
          "internalType": "uint256[2]",
          "name": "c",
          "type": "uint256[2]"
        },
        {
          "internalType": "uint256[22]",
          "name": "input",
          "type": "uint256[22]"
        }
      ],
      "name": "verifyProof",
      "outputs": [
        {
          "internalType": "bool",
          "name": "r",
          "type": "bool"
        }
      ],
      "stateMutability": "view",
      "type": "function"
    }
  ],
  "bytecode": "0x608060405234801561001057600080fd5b506117ea806100206000396000f3fe608060405234801561001057600080fd5b506004361061002b5760003560e01c8063c5a0fc2614610030575b600080fd5b61012d60048036036103c081101561004757600080fd5b6040805180820182529183019291818301918390600290839083908082843760009201829052506040805180820190915293969594608081019493509150600290835b828210156100c8576040805180820182529080840286019060029083908390808284376000920191909152505050815260019091019060200161008a565b5050604080518082018252939695948181019493509150600290839083908082843760009201919091525050604080516102c0818101909252929594938181019392509060169083908390808284376000920191909152509194506101419350505050565b604080519115158252519081900360200190f35b600061014b611689565b604080518082018252875181526020808901518183015290835281516080810183528751518184019081528851830151606080840191909152908252835180850185528984018051518252518401518185015282840152848301919091528251808401845287518152878301518184015284840152825160168082526102e082019094529092909182016102c08036833701905050905060005b601681101561021e578481601681106101fa57fe5b602002015182828151811061020b57fe5b60209081029190910101526001016101e5565b506102298183610247565b6102385760019250505061023f565b6000925050505b949350505050565b60007f30644e72e131a029b85045b68181585d2833e84879b9709143e1f593f00000016102726116bb565b61027a610423565b90508060800151518551600101146102ce576040805162461bcd60e51b81526020600482015260126024820152711d995c9a599a595c8b5898590b5a5b9c1d5d60721b604482015290519081900360640190fd5b6102d6611702565b6040518060400160405280600081526020016000815250905060005b86518110156103ac578387828151811061030857fe5b602002602001015110610362576040805162461bcd60e51b815260206004820152601f60248201527f76657269666965722d6774652d736e61726b2d7363616c61722d6669656c6400604482015290519081900360640190fd5b6103a28261039d8560800151846001018151811061037c57fe5b60200260200101518a858151811061039057fe5b60200260200101516110e9565b61117e565b91506001016102f2565b506103cf8183608001516000815181106103c257fe5b602002602001015161117e565b90506104056103e1866000015161120f565b8660200151846000015185602001518587604001518b60400151896060015161129b565b610415576001935050505061041d565b600093505050505b92915050565b61042b6116bb565b6040805180820182527f2d4d9aa7e302d9df41749d5507949d05dbea33fbb16c643b22f599a2be6df2e281527f14bedd503c37ceb061d8ec60209fe345ce89830a19230301f076caff004d19266020808301919091529083528151608080820184527f0967032fcbf776d1afc985f88877f182d38480a653f2decaa9794cbc3bf3060c8285019081527f0e187847ad4c798374d0d6732bf501847dd68bc0e071241e0213bc7fc13db7ab606080850191909152908352845180860186527f304cfbd1e08a704a99f5e847d93f8c3caafddec46b7a0d379da69a4d112346a781527f1739c1b1a457a8c7313123d24d2f9192f896b7c63eea05a9d57f06547ad0cec8818601528385015285840192909252835180820185527f198e9393920d483a7260bfb731fb5d25f1aa493335a9e71297e485b7aef312c28186019081527f1800deef121f1e76426a00665e5c4479674322d4f75edadd46debd5cd992f6ed828501528152845180860186527f090689d0585ff075ec9e99ad690c3395bc4b313370b38ef355acdadcd122975b81527f12c85ea5db8c6deb4aab71808dcb408fe3d1e7690c43d37b4ce6cc0166fa7daa818601528185015285850152835190810184527f0f4f1cb048f135552963aebe0ed46a936c03d57a44808d5d4d925f8f409dab408185019081527f2fbf37bbed06409734c3d70c09a9d0877f280773d83e0085ba8471035823dc2b828401528152835180850185527f0a466d51e423785cdc8757e35b6fad6861c6ccd4344da91e3117c347d5b89dc081527f23cf78cf3db555b3d5aa24cba6a57e9cdadb634181bb8008735466d63f58172f818501528184015290840152815160178082526103008201909352919082015b6106af611702565b8152602001906001900390816106a757505060808201908152604080518082019091527f1ed14221a56a3be5e34a6dda44427b83e9c7cb23a18e795cfabb9bdd6b55b69081527f09ba26a7282ba1313ed16ef64cf704102352ad9e402b619fa17be0d7fbb4460d60208201529051805160009061072857fe5b602002602001018190525060405180604001604052807e37f4075a50088f5699c8f1abfd342edab83dee54824d2c86ddd17b97d46ff581526020017f18376305d3403b1b49de6232e61624bd22e4825df0f0fee38a471172c54b4d05815250816080015160018151811061079857fe5b602002602001018190525060405180604001604052807f15858e8e7c2324be28afc2c3580fee1156864a04a676fc9cc221737f3424583d81526020017f2e59e46aa91b5719328445873a1290dddd9e5fdb43681e84c4dccda11aee6ed2815250816080015160028151811061080957fe5b602002602001018190525060405180604001604052807f2d15f432c82a662605c99e1c0da0b3ef853c688a166a3bf3fa6742c94f38ae2e81526020017e824d08f95a3efcd7edf913476fd212f042f11a2984c1bdff8db6f2eeadaa06815250816080015160038151811061087957fe5b602002602001018190525060405180604001604052807f112763dd6f491d0ddaf59bcb16f93b5d974959412392622774fa30e160c41e6381526020017f2e3192e937f3fc468668c7a98a14f958795206019df77d28726f64c627dfe68e81525081608001516004815181106108ea57fe5b602002602001018190525060405180604001604052807f2f616a7fa452a9cc2a5b2fbece6ab362f81ed9446da03705421414948159b40081526020017f1ee0bdbd322397a4316e4d6baf949e3120b5aef743252234cc26971da0dd4db7815250816080015160058151811061095b57fe5b602002602001018190525060405180604001604052807f19ee06e656def8376ac699da775a37ad73aef40427927ba998d8ac345d0ef08b81526020017f08607cf00999060f270bdb4e998ffbb6bebbd52983a4039af879239c7385af4e81525081608001516006815181106109cc57fe5b602002602001018190525060405180604001604052807f0762e5ecfafb6bd6c4931a2e7c3f2dca3401efa014a1951cbe19ad9363f4df8181526020017f14bfce27ab612807c27b0bc2287e32d0143d8470ee9b47b93360a3e148f16c438152508160800151600781518110610a3d57fe5b602002602001018190525060405180604001604052807f2aec12f6993aa80c9df9e3c16170f8368a6c6c7fa3efd2883adaab2e8ac43d7b81526020017f268ed4076ca2c65a973fad1ad260c83139601bede94558a36a726bc40dc257b28152508160800151600881518110610aae57fe5b602002602001018190525060405180604001604052807f045eae55b4077388f42d417bf541a056fb3b79f36142bf4b7b11519b3986df1781526020017f06a4d45477f4408e286746f8d84a1f407cebbf294695fcb6acccc79ff91e77d98152508160800151600981518110610b1f57fe5b602002602001018190525060405180604001604052807f01304b49de0c4fa0bd5f928e1740ae3ba8e1f90d3ecbdb71d20723a96f9ec86881526020017f24ba17fa812a308cea05a94b1f4434c956e5c58ab43efad13afee24fff7552658152508160800151600a81518110610b9057fe5b602002602001018190525060405180604001604052807f1b77ffa1d47152228659f16adc91850e05df3e93300f8459b9878e3150a11b4b81526020017e86dd4fdd6ee5174edc58139c906eff402aa568e042dd22b3ada0dfed69d4198152508160800151600b81518110610c0057fe5b602002602001018190525060405180604001604052807f2889d24adffc608607dcd82335a44ed6c3490c10ce3cf5c78d2717204784ac8181526020017f2be164d161c5170c122d4b6b4c6a77fa64b4201dd9216e4982e15f6f5d293d938152508160800151600c81518110610c7157fe5b602002602001018190525060405180604001604052807f02f52ce7b06f9cc11ecd52ab3e8056718f8cd9b796c3f8b4e15bd96a62cca38081526020017f1014d411eeac9c94cdefa957fdbf4310127072f7d8d9eb3a803ab869eb2bf95c8152508160800151600d81518110610ce257fe5b602002602001018190525060405180604001604052807f1f8efa90dcce33f1e9917ddeac9e5696189ea5585f70bb01fa777f510c52808181526020017f303026d8a456d0592963d7be7b30337a5658f3723940daf7a530225afc3499598152508160800151600e81518110610d5357fe5b602002602001018190525060405180604001604052807f06c3fd1a8793dc3bbdb7696fd34c8cf4dc6044a518dc2f74e3dde9eb950f2c9d81526020017f0fc0be759fed31d4565ae9997cc2020a4e5b09beed7d1b25451b2372bfecb7c88152508160800151600f81518110610dc457fe5b602002602001018190525060405180604001604052807f04c76a21026846f6d6b1ae72ed3c82e9794a60c4492c767de8d4d1a4ccf6738e81526020017f0adbb9c8f85125b85f83456776f792037f791cfb3470c96125ce14715c60e3048152508160800151601081518110610e3557fe5b602002602001018190525060405180604001604052807f303c888cad66eb6851f5dddc64edfefec5fcfaf67567dd385520995ef485596c81526020017f1cb96c5fccc414f053c108cb19987cee4972bbee050eab1f338d50b033fc84868152508160800151601181518110610ea657fe5b602002602001018190525060405180604001604052807f294280c60fa9a6fea9c0bdcffc814307d8aaa9ec31724113f1eeedd161d5761681526020017f2bb8732c9903ae1de170d5362aa97a9309940405611d5f3094eeb18632b130668152508160800151601281518110610f1757fe5b602002602001018190525060405180604001604052807f1cb5b25c1010155e672597ae580ab949e3877a08d7dff621deb052397684201581526020017f18b21c726143598a7c24182e9515d4f19902562cf296f468cf182a8e1c3af5298152508160800151601381518110610f8857fe5b602002602001018190525060405180604001604052807f0d631f36b0e1d519907a212dcd2fa68415680e84788f74573b28390487d53cf981526020017f0aa55ae92c56a7dba7b9f315a214231f4a6aed3dcd35d9f0d2a4107aaa23f1768152508160800151601481518110610ff957fe5b602002602001018190525060405180604001604052807f1d1c550bf72d15f5e73413c1634930c4365eb78d7bc42f73949d3a200831780c81526020017f07b88dc81948d7bb64043c738a8383116a57d86316129eb4ee81f12fd83005d2815250816080015160158151811061106a57fe5b602002602001018190525060405180604001604052807f1304d601096f788e0981067f275814ce869e957ef1f3150574a542628aa271cf81526020017f2a8ee97ab74b1e604ad78d81fd468a3a6b0922676243dd675e8f5dc2177728ac81525081608001516016815181106110db57fe5b602002602001018190525090565b6110f1611702565b6110f961171c565b835181526020808501519082015260408101839052600060608360808460076107d05a03fa905080801561112c5761112e565bfe5b5080611176576040805162461bcd60e51b81526020600482015260126024820152711c185a5c9a5b99cb5b5d5b0b59985a5b195960721b604482015290519081900360640190fd5b505092915050565b611186611702565b61118e61173a565b8351815260208085015181830152835160408301528301516060808301919091526000908360c08460066107d05a03fa905080801561112c575080611176576040805162461bcd60e51b81526020600482015260126024820152711c185a5c9a5b99cb5859190b59985a5b195960721b604482015290519081900360640190fd5b611217611702565b81517f30644e72e131a029b85045b68181585d97816a916871ca8d3c208c16d87cfd479015801561124a57506020830151155b1561126a5750506040805180820190915260008082526020820152611296565b6040518060400160405280846000015181526020018285602001518161128c57fe5b0683038152509150505b919050565b60408051600480825260a0820190925260009160609190816020015b6112bf611702565b8152602001906001900390816112b757505060408051600480825260a0820190925291925060609190602082015b6112f5611758565b8152602001906001900390816112ed5790505090508a8260008151811061131857fe5b6020026020010181905250888260018151811061133157fe5b6020026020010181905250868260028151811061134a57fe5b6020026020010181905250848260038151811061136357fe5b6020026020010181905250898160008151811061137c57fe5b6020026020010181905250878160018151811061139557fe5b602002602001018190525085816002815181106113ae57fe5b602002602001018190525083816003815181106113c757fe5b60200260200101819052506113dc82826113eb565b9b9a5050505050505050505050565b6000815183511461143c576040805162461bcd60e51b81526020600482015260166024820152751c185a5c9a5b99cb5b195b99dd1a1ccb59985a5b195960521b604482015290519081900360640190fd5b8251600681026060816001600160401b038111801561145a57600080fd5b50604051908082528060200260200182016040528015611484578160200160208202803683370190505b50905060005b838110156116095786818151811061149e57fe5b6020026020010151600001518282600602600001815181106114bc57fe5b6020026020010181815250508681815181106114d457fe5b6020026020010151602001518282600602600101815181106114f257fe5b60200260200101818152505085818151811061150a57fe5b60209081029190910101515151825183906002600685020190811061152b57fe5b60200260200101818152505085818151811061154357fe5b6020908102919091010151516001602002015182826006026003018151811061156857fe5b60200260200101818152505085818151811061158057fe5b60200260200101516020015160006002811061159857fe5b60200201518282600602600401815181106115af57fe5b6020026020010181815250508581815181106115c757fe5b6020026020010151602001516001600281106115df57fe5b60200201518282600602600501815181106115f657fe5b602090810291909101015260010161148a565b50611612611778565b6000602082602086026020860160086107d05a03fa905080801561112c57508061167b576040805162461bcd60e51b81526020600482015260156024820152741c185a5c9a5b99cb5bdc18dbd9194b59985a5b1959605a1b604482015290519081900360640190fd5b505115159695505050505050565b604051806060016040528061169c611702565b81526020016116a9611758565b81526020016116b6611702565b905290565b6040518060a001604052806116ce611702565b81526020016116db611758565b81526020016116e8611758565b81526020016116f5611758565b8152602001606081525090565b604051806040016040528060008152602001600081525090565b60405180606001604052806003906020820280368337509192915050565b60405180608001604052806004906020820280368337509192915050565b604051806040016040528061176b611796565b81526020016116b6611796565b60405180602001604052806001906020820280368337509192915050565b6040518060400160405280600290602082028036833750919291505056fea2646970667358221220d612bc2e3e63ddca5ec62b07a63dd87966bb6ca46c68bd7078485cf254c8fc1164736f6c634300060c0033",
  "linkReferences": {},
  "deployedLinkReferences": {}
}