{
  "_format": "hh-sol-artifact-1",
  "contractName": "Verifier16",
  "sourceName": "contracts/Verifier16.sol",
  "abi": [
    {
      "inputs": [
        {
          "internalType": "uint256[2]",
          "name": "a",
          "type": "uint256[2]"
        },
        {
          "internalType": "uint256[2][2]",
          "name": "b",
          "type": "uint256[2][2]"
        },
        {
          "internalType": "uint256[2]",
          "name": "c",
          "type": "uint256[2]"
        },
        {
          "internalType": "uint256[22]",
          "name": "input",
          "type": "uint256[22]"
        }
      ],
      "name": "verifyProof",
      "outputs": [
        {
          "internalType": "bool",
          "name": "r",
          "type": "bool"
        }
      ],
      "stateMutability": "view",
      "type": "function"
    }
  ],
  "bytecode": "0x608060405234801561001057600080fd5b506117ed806100206000396000f3fe608060405234801561001057600080fd5b506004361061002b5760003560e01c8063c5a0fc2614610030575b600080fd5b61012d60048036036103c081101561004757600080fd5b6040805180820182529183019291818301918390600290839083908082843760009201829052506040805180820190915293969594608081019493509150600290835b828210156100c8576040805180820182529080840286019060029083908390808284376000920191909152505050815260019091019060200161008a565b5050604080518082018252939695948181019493509150600290839083908082843760009201919091525050604080516102c0818101909252929594938181019392509060169083908390808284376000920191909152509194506101419350505050565b604080519115158252519081900360200190f35b600061014b61168c565b604080518082018252875181526020808901518183015290835281516080810183528751518184019081528851830151606080840191909152908252835180850185528984018051518252518401518185015282840152848301919091528251808401845287518152878301518184015284840152825160168082526102e082019094529092909182016102c08036833701905050905060005b601681101561021e578481601681106101fa57fe5b602002015182828151811061020b57fe5b60209081029190910101526001016101e5565b506102298183610247565b6102385760019250505061023f565b6000925050505b949350505050565b60007f30644e72e131a029b85045b68181585d2833e84879b9709143e1f593f00000016102726116be565b61027a610423565b90508060800151518551600101146102ce576040805162461bcd60e51b81526020600482015260126024820152711d995c9a599a595c8b5898590b5a5b9c1d5d60721b604482015290519081900360640190fd5b6102d6611705565b6040518060400160405280600081526020016000815250905060005b86518110156103ac578387828151811061030857fe5b602002602001015110610362576040805162461bcd60e51b815260206004820152601f60248201527f76657269666965722d6774652d736e61726b2d7363616c61722d6669656c6400604482015290519081900360640190fd5b6103a28261039d8560800151846001018151811061037c57fe5b60200260200101518a858151811061039057fe5b60200260200101516110eb565b611180565b91506001016102f2565b506103cf8183608001516000815181106103c257fe5b6020026020010151611180565b90506104056103e18660000151611211565b8660200151846000015185602001518587604001518b60400151896060015161129d565b610415576001935050505061041d565b600093505050505b92915050565b61042b6116be565b6040805180820182527f2d4d9aa7e302d9df41749d5507949d05dbea33fbb16c643b22f599a2be6df2e281527f14bedd503c37ceb061d8ec60209fe345ce89830a19230301f076caff004d19266020808301919091529083528151608080820184527f0967032fcbf776d1afc985f88877f182d38480a653f2decaa9794cbc3bf3060c8285019081527f0e187847ad4c798374d0d6732bf501847dd68bc0e071241e0213bc7fc13db7ab606080850191909152908352845180860186527f304cfbd1e08a704a99f5e847d93f8c3caafddec46b7a0d379da69a4d112346a781527f1739c1b1a457a8c7313123d24d2f9192f896b7c63eea05a9d57f06547ad0cec8818601528385015285840192909252835180820185527f198e9393920d483a7260bfb731fb5d25f1aa493335a9e71297e485b7aef312c28186019081527f1800deef121f1e76426a00665e5c4479674322d4f75edadd46debd5cd992f6ed828501528152845180860186527f090689d0585ff075ec9e99ad690c3395bc4b313370b38ef355acdadcd122975b81527f12c85ea5db8c6deb4aab71808dcb408fe3d1e7690c43d37b4ce6cc0166fa7daa818601528185015285850152835190810184527f17da196b227f10ffb26d7c432db6bc1d1eb9535ec1d4b57eeaf4ec0ca151e0728185019081527f07ac23ebd208e26f5114d8ee492ac88636c06d3712d61d20dfd9a5c3e879b5ed828401528152835180850185527f026395a14310a204acf0283dcacb1deb0f54203f13b9cfb32853ff15072c431981527f152121077f34338fd363bfa966ebaf221357c763f995bfe9c4f961bb386f90b0818501528184015290840152815160178082526103008201909352919082015b6106af611705565b8152602001906001900390816106a757505060808201908152604080518082019091527f01d65afc1f7dfc2216afe4157ac42f2ce163f1e1a0fdc37d65db3b5f708540cb81527f0199093255ce5e39e9eecd6a493ba10bc4320adefeb495b336f57ef03b881af360208201529051805160009061072857fe5b602002602001018190525060405180604001604052807f0209828ea6bbfc32e1e4315093f47a3c5d57edcf731e93e749411855a8d0b08281526020017f143597bda533d7987144ce219e33da1fe15e74d1de6db6b4ec1a758bf138d4b2815250816080015160018151811061079957fe5b602002602001018190525060405180604001604052807f1f1d15c4a8526a19312294783f8cbc62e6f8a93612f480ae289149fa13c923c881526020017f0240be07043ac806481d70b5904c9cf671b2e9639a7e36b95f1a37c5e45de617815250816080015160028151811061080a57fe5b602002602001018190525060405180604001604052807f2b2fed80081d36fbc0b1560d35c5b0655890ce22c95b41dd8adb4d975c7324cb81526020017f1125192d479c6206821a9aad7a8a43d07126383d43259f4264782761d7df00df815250816080015160038151811061087b57fe5b602002602001018190525060405180604001604052807f03e80179efa347a277966cb78897b524236ac8e5ec70236596b0f5d46a15f9b181526020017f0ac293f3cd77cd5b12b28a82bceac67d8adec9013da9d86bb0bb4fddbf4f24dc81525081608001516004815181106108ec57fe5b602002602001018190525060405180604001604052807f1caa7d991f69ee5f95e6030e4ec7a85a3dc0fb1c0c6ce3b3b4adf75050b4952381526020017f2688e4f166f6030a4582fc8eb2adab65749df52673dd7f11616a8c0fb8ef26b2815250816080015160058151811061095d57fe5b602002602001018190525060405180604001604052807f1f7bcd82fc0ae03c7322d631be1823af5146bbcb96308085b87919743cae9e0481526020017f0ca41fd659b7167ee355f5def3065a476304940f91a788838808f1c878a81fc881525081608001516006815181106109ce57fe5b602002602001018190525060405180604001604052807f2deaa7f4161f773eda64b90037dddae2250bc6a3be991092a612eae7cd5201fe81526020017f08dbb8d965289f52740ad7d6a23414f2eadc0ffaa68197da3c56c3e4594f5f808152508160800151600781518110610a3f57fe5b602002602001018190525060405180604001604052807f27d94f50e42f9d04bb7f062fa877726831b9198e1e970f054df0873a139d4f0881526020017f04cb85f1cfe06274cf63ffc4e77f28c7f694a3b7614e1f181af3550354ebb88b8152508160800151600881518110610ab057fe5b602002602001018190525060405180604001604052807f2094f03a4dc4024f91a60b00c9a8de22d0557d2ba9e5d3179c446be5f91ae5a381526020017f0aa862125cf26fe30a5b734b3c26603bcb4f43c65f12316bb3f5199f5d1c14e68152508160800151600981518110610b2157fe5b602002602001018190525060405180604001604052807f116269bf72b7478a2040cb8c86f68ddd1eca36614c049f86b3d6427d5cf4428f81526020017f24eeff79fac4fc7cc15a532a530db38c36947269413d6d2df0c3535c7d221de08152508160800151600a81518110610b9257fe5b602002602001018190525060405180604001604052807f22371ba1bfa8d76ab0c78999bfe82f4ddb251f1e19316f39cb3199892d85b54581526020017f0ed143a57c2818d9e60511d827a2bdd350a7eb72cdaa466b2daadbe556b4e8de8152508160800151600b81518110610c0357fe5b602002602001018190525060405180604001604052807f02d7c440affc707b38daf9738ad3c3502f13a280a157f7e6d677a9385080674881526020017f1a27140ec6c0f27ec2bf8040b05854b044516dffba1c726a3a0a4ba3764869308152508160800151600c81518110610c7457fe5b602002602001018190525060405180604001604052807f1f5f6e666ab7687fbde00e979b1edd2ce0e421e0dd57ead65df99d48a9957bad81526020017f17271cda39d02a2444110c83d2170368e0c179bd5ae443826ce5c08a270cddba8152508160800151600d81518110610ce557fe5b602002602001018190525060405180604001604052807e37b5454a2feb0cc4c4a5a4333f25e5fad0f88a9913e91a16ca7f9cb43b94fc81526020017f28dd9688e52f8a6385e47cb2591c4dd23845dcbe863c8e313d531d96bd10f5378152508160800151600e81518110610d5557fe5b602002602001018190525060405180604001604052807f2c4ce96151f5449c93e87b4e41f22aaae20fd1977af863038d6a2537a005221281526020017f226a0f0532c6002aac62231f88612b0b7eceea0268165548b8a73d656ee44f358152508160800151600f81518110610dc657fe5b602002602001018190525060405180604001604052807f05c74f5cf4d8529801b86c32b9a17bdc29ab8a4beb545c004cc12a390e21d29081526020017f0aa547c27851d9104247c34f404aefdcda363f0a611d6373af3a5bf5f47ad1de8152508160800151601081518110610e3757fe5b602002602001018190525060405180604001604052807f041142a375a7ccc215cafe44bc8f477b4357cc1cbf49ce3825e7c0058399f97a81526020017f2c2b0d99a7abf312c1aad5c7a8f8bc06ef398ebdcfecd61c7dd243cad10d05198152508160800151601181518110610ea857fe5b602002602001018190525060405180604001604052807f1ebd0549b4b19a7681e3e130109d637d46a0b7c66133b22c97e8e9bf6189e91481526020017f288fbdb0edb3cbc6c2aca3303506409d47ac63f592e5cdd71e0a8121463584c08152508160800151601281518110610f1957fe5b602002602001018190525060405180604001604052807f27cf920136671d2b28e2dc42c25fa47046955e245d9b42b12c6052e04120556081526020017f1accc993b660ae79155499602db709acc4d780102e4b7354a026a275677d0c3c8152508160800151601381518110610f8a57fe5b602002602001018190525060405180604001604052807f2730dbe6c4abcfc3fe0ae60eae3f14604101478ce69805b17346a47ceeb5d07581526020017f074c449b56145ee167d4ee3bb6e197c0367eeee0da88f280bafa14f76220177a8152508160800151601481518110610ffb57fe5b602002602001018190525060405180604001604052807f1f8f998e6e346b04768b3997b1e911f5a06fd2cbfa1353c7b5a4d1bf9a55536d81526020017f206a2b4ca98f41f303af113a6c8f68588f8b28e5eadc9f9cec10aca58842fe00815250816080015160158151811061106c57fe5b602002602001018190525060405180604001604052807f1a744b7940a476c71dbccb03b4af15020a5a5303597c6d4471f7c008890eb91781526020017f300c58120538f5004f7b5b296fdfb650067a01b86058588e6e13ac0718c4e1e081525081608001516016815181106110dd57fe5b602002602001018190525090565b6110f3611705565b6110fb61171f565b835181526020808501519082015260408101839052600060608360808460076107d05a03fa905080801561112e57611130565bfe5b5080611178576040805162461bcd60e51b81526020600482015260126024820152711c185a5c9a5b99cb5b5d5b0b59985a5b195960721b604482015290519081900360640190fd5b505092915050565b611188611705565b61119061173d565b8351815260208085015181830152835160408301528301516060808301919091526000908360c08460066107d05a03fa905080801561112e575080611178576040805162461bcd60e51b81526020600482015260126024820152711c185a5c9a5b99cb5859190b59985a5b195960721b604482015290519081900360640190fd5b611219611705565b81517f30644e72e131a029b85045b68181585d97816a916871ca8d3c208c16d87cfd479015801561124c57506020830151155b1561126c5750506040805180820190915260008082526020820152611298565b6040518060400160405280846000015181526020018285602001518161128e57fe5b0683038152509150505b919050565b60408051600480825260a0820190925260009160609190816020015b6112c1611705565b8152602001906001900390816112b957505060408051600480825260a0820190925291925060609190602082015b6112f761175b565b8152602001906001900390816112ef5790505090508a8260008151811061131a57fe5b6020026020010181905250888260018151811061133357fe5b6020026020010181905250868260028151811061134c57fe5b6020026020010181905250848260038151811061136557fe5b6020026020010181905250898160008151811061137e57fe5b6020026020010181905250878160018151811061139757fe5b602002602001018190525085816002815181106113b057fe5b602002602001018190525083816003815181106113c957fe5b60200260200101819052506113de82826113ed565b9b9a5050505050505050505050565b6000815183511461143e576040805162461bcd60e51b81526020600482015260166024820152751c185a5c9a5b99cb5b195b99dd1a1ccb59985a5b195960521b604482015290519081900360640190fd5b82516006810260608167ffffffffffffffff8111801561145d57600080fd5b50604051908082528060200260200182016040528015611487578160200160208202803683370190505b50905060005b8381101561160c578681815181106114a157fe5b6020026020010151600001518282600602600001815181106114bf57fe5b6020026020010181815250508681815181106114d757fe5b6020026020010151602001518282600602600101815181106114f557fe5b60200260200101818152505085818151811061150d57fe5b60209081029190910101515151825183906002600685020190811061152e57fe5b60200260200101818152505085818151811061154657fe5b6020908102919091010151516001602002015182826006026003018151811061156b57fe5b60200260200101818152505085818151811061158357fe5b60200260200101516020015160006002811061159b57fe5b60200201518282600602600401815181106115b257fe5b6020026020010181815250508581815181106115ca57fe5b6020026020010151602001516001600281106115e257fe5b60200201518282600602600501815181106115f957fe5b602090810291909101015260010161148d565b5061161561177b565b6000602082602086026020860160086107d05a03fa905080801561112e57508061167e576040805162461bcd60e51b81526020600482015260156024820152741c185a5c9a5b99cb5bdc18dbd9194b59985a5b1959605a1b604482015290519081900360640190fd5b505115159695505050505050565b604051806060016040528061169f611705565b81526020016116ac61175b565b81526020016116b9611705565b905290565b6040518060a001604052806116d1611705565b81526020016116de61175b565b81526020016116eb61175b565b81526020016116f861175b565b8152602001606081525090565b604051806040016040528060008152602001600081525090565b60405180606001604052806003906020820280368337509192915050565b60405180608001604052806004906020820280368337509192915050565b604051806040016040528061176e611799565b81526020016116b9611799565b60405180602001604052806001906020820280368337509192915050565b6040518060400160405280600290602082028036833750919291505056fea2646970667358221220e7482e4159770682931ef138e21c1f881386d6b556ba4674b1a98170ac389c6d64736f6c634300060c0033",
  "linkReferences": {},
  "deployedLinkReferences": {}
}